{
	"contracts/Coin2.sol": {
		"CoinFlip": {
			"abi": [
				{
					"inputs": [
						{
							"internalType": "bytes32",
							"name": "commitment",
							"type": "bytes32"
						}
					],
					"stateMutability": "payable",
					"type": "constructor"
				},
				{
					"inputs": [
						{
							"internalType": "bool",
							"name": "choice",
							"type": "bool"
						},
						{
							"internalType": "uint256",
							"name": "nonce",
							"type": "uint256"
						}
					],
					"name": "Reveal1",
					"outputs": [],
					"stateMutability": "nonpayable",
					"type": "function"
				},
				{
					"inputs": [
						{
							"internalType": "bool",
							"name": "choice",
							"type": "bool"
						},
						{
							"internalType": "uint256",
							"name": "nonce",
							"type": "uint256"
						}
					],
					"name": "Reveal2",
					"outputs": [],
					"stateMutability": "nonpayable",
					"type": "function"
				},
				{
					"inputs": [
						{
							"internalType": "bytes32",
							"name": "commitment",
							"type": "bytes32"
						}
					],
					"name": "TakeBet",
					"outputs": [],
					"stateMutability": "payable",
					"type": "function"
				},
				{
					"inputs": [],
					"name": "betAmount",
					"outputs": [
						{
							"internalType": "uint256",
							"name": "",
							"type": "uint256"
						}
					],
					"stateMutability": "view",
					"type": "function"
				},
				{
					"inputs": [],
					"name": "player1",
					"outputs": [
						{
							"internalType": "address payable",
							"name": "",
							"type": "address"
						}
					],
					"stateMutability": "view",
					"type": "function"
				},
				{
					"inputs": [],
					"name": "player1Choice",
					"outputs": [
						{
							"internalType": "bool",
							"name": "",
							"type": "bool"
						}
					],
					"stateMutability": "view",
					"type": "function"
				},
				{
					"inputs": [],
					"name": "player1Commitment",
					"outputs": [
						{
							"internalType": "bytes32",
							"name": "",
							"type": "bytes32"
						}
					],
					"stateMutability": "view",
					"type": "function"
				},
				{
					"inputs": [],
					"name": "player2",
					"outputs": [
						{
							"internalType": "address payable",
							"name": "",
							"type": "address"
						}
					],
					"stateMutability": "view",
					"type": "function"
				},
				{
					"inputs": [],
					"name": "player2Choice",
					"outputs": [
						{
							"internalType": "bool",
							"name": "",
							"type": "bool"
						}
					],
					"stateMutability": "view",
					"type": "function"
				},
				{
					"inputs": [],
					"name": "player2Commitment",
					"outputs": [
						{
							"internalType": "bytes32",
							"name": "",
							"type": "bytes32"
						}
					],
					"stateMutability": "view",
					"type": "function"
				},
				{
					"inputs": [],
					"name": "revealed",
					"outputs": [
						{
							"internalType": "bool",
							"name": "",
							"type": "bool"
						}
					],
					"stateMutability": "view",
					"type": "function"
				}
			],
			"devdoc": {
				"kind": "dev",
				"methods": {},
				"version": 1
			},
			"evm": {
				"assembly": "    /* \"contracts/Coin2.sol\":62:1572  contract CoinFlip {\r... */\n  mstore(0x40, 0x80)\n    /* \"contracts/Coin2.sol\":369:557  constructor(bytes32 commitment) payable {\r... */\n  mload(0x40)\n  sub(codesize, bytecodeSize)\n  dup1\n  bytecodeSize\n  dup4\n  codecopy\n  dup2\n  dup2\n  add\n  0x40\n  mstore\n  dup2\n  add\n  swap1\n  tag_1\n  swap2\n  swap1\n  tag_2\n  jump\t// in\ntag_1:\n    /* \"contracts/Coin2.sol\":438:448  msg.sender */\n  caller\n    /* \"contracts/Coin2.sol\":420:427  player1 */\n  0x00\n  dup1\n    /* \"contracts/Coin2.sol\":420:449  player1 = payable(msg.sender) */\n  0x0100\n  exp\n  dup2\n  sload\n  dup2\n  0xffffffffffffffffffffffffffffffffffffffff\n  mul\n  not\n  and\n  swap1\n  dup4\n  0xffffffffffffffffffffffffffffffffffffffff\n  and\n  mul\n  or\n  swap1\n  sstore\n  pop\n    /* \"contracts/Coin2.sol\":480:490  commitment */\n  dup1\n    /* \"contracts/Coin2.sol\":460:477  player1Commitment */\n  0x02\n    /* \"contracts/Coin2.sol\":460:490  player1Commitment = commitment */\n  dup2\n  swap1\n  sstore\n  pop\n    /* \"contracts/Coin2.sol\":513:522  msg.value */\n  callvalue\n    /* \"contracts/Coin2.sol\":501:510  betAmount */\n  0x04\n    /* \"contracts/Coin2.sol\":501:522  betAmount = msg.value */\n  dup2\n  swap1\n  sstore\n  pop\n    /* \"contracts/Coin2.sol\":544:549  false */\n  0x00\n    /* \"contracts/Coin2.sol\":533:541  revealed */\n  0x05\n  0x02\n    /* \"contracts/Coin2.sol\":533:549  revealed = false */\n  0x0100\n  exp\n  dup2\n  sload\n  dup2\n  0xff\n  mul\n  not\n  and\n  swap1\n  dup4\n  iszero\n  iszero\n  mul\n  or\n  swap1\n  sstore\n  pop\n    /* \"contracts/Coin2.sol\":369:557  constructor(bytes32 commitment) payable {\r... */\n  pop\n    /* \"contracts/Coin2.sol\":62:1572  contract CoinFlip {\r... */\n  jump(tag_5)\n    /* \"#utility.yul\":7:150   */\ntag_7:\n    /* \"#utility.yul\":64:69   */\n  0x00\n    /* \"#utility.yul\":95:101   */\n  dup2\n    /* \"#utility.yul\":89:102   */\n  mload\n    /* \"#utility.yul\":80:102   */\n  swap1\n  pop\n    /* \"#utility.yul\":111:144   */\n  tag_9\n    /* \"#utility.yul\":138:143   */\n  dup2\n    /* \"#utility.yul\":111:144   */\n  tag_10\n  jump\t// in\ntag_9:\n    /* \"#utility.yul\":7:150   */\n  swap3\n  swap2\n  pop\n  pop\n  jump\t// out\n    /* \"#utility.yul\":156:507   */\ntag_2:\n    /* \"#utility.yul\":226:232   */\n  0x00\n    /* \"#utility.yul\":275:277   */\n  0x20\n    /* \"#utility.yul\":263:272   */\n  dup3\n    /* \"#utility.yul\":254:261   */\n  dup5\n    /* \"#utility.yul\":250:273   */\n  sub\n    /* \"#utility.yul\":246:278   */\n  slt\n    /* \"#utility.yul\":243:362   */\n  iszero\n  tag_12\n  jumpi\n    /* \"#utility.yul\":281:360   */\n  tag_13\n  tag_14\n  jump\t// in\ntag_13:\n    /* \"#utility.yul\":243:362   */\ntag_12:\n    /* \"#utility.yul\":401:402   */\n  0x00\n    /* \"#utility.yul\":426:490   */\n  tag_15\n    /* \"#utility.yul\":482:489   */\n  dup5\n    /* \"#utility.yul\":473:479   */\n  dup3\n    /* \"#utility.yul\":462:471   */\n  dup6\n    /* \"#utility.yul\":458:480   */\n  add\n    /* \"#utility.yul\":426:490   */\n  tag_7\n  jump\t// in\ntag_15:\n    /* \"#utility.yul\":416:490   */\n  swap2\n  pop\n    /* \"#utility.yul\":372:500   */\n  pop\n    /* \"#utility.yul\":156:507   */\n  swap3\n  swap2\n  pop\n  pop\n  jump\t// out\n    /* \"#utility.yul\":594:671   */\ntag_18:\n    /* \"#utility.yul\":631:638   */\n  0x00\n    /* \"#utility.yul\":660:665   */\n  dup2\n    /* \"#utility.yul\":649:665   */\n  swap1\n  pop\n    /* \"#utility.yul\":594:671   */\n  swap2\n  swap1\n  pop\n  jump\t// out\n    /* \"#utility.yul\":800:917   */\ntag_14:\n    /* \"#utility.yul\":909:910   */\n  0x00\n    /* \"#utility.yul\":906:907   */\n  dup1\n    /* \"#utility.yul\":899:911   */\n  revert\n    /* \"#utility.yul\":923:1045   */\ntag_10:\n    /* \"#utility.yul\":996:1020   */\n  tag_24\n    /* \"#utility.yul\":1014:1019   */\n  dup2\n    /* \"#utility.yul\":996:1020   */\n  tag_18\n  jump\t// in\ntag_24:\n    /* \"#utility.yul\":989:994   */\n  dup2\n    /* \"#utility.yul\":986:1021   */\n  eq\n    /* \"#utility.yul\":976:1039   */\n  tag_25\n  jumpi\n    /* \"#utility.yul\":1035:1036   */\n  0x00\n    /* \"#utility.yul\":1032:1033   */\n  dup1\n    /* \"#utility.yul\":1025:1037   */\n  revert\n    /* \"#utility.yul\":976:1039   */\ntag_25:\n    /* \"#utility.yul\":923:1045   */\n  pop\n  jump\t// out\n    /* \"contracts/Coin2.sol\":62:1572  contract CoinFlip {\r... */\ntag_5:\n  dataSize(sub_0)\n  dup1\n  dataOffset(sub_0)\n  0x00\n  codecopy\n  0x00\n  return\nstop\n\nsub_0: assembly {\n        /* \"contracts/Coin2.sol\":62:1572  contract CoinFlip {\r... */\n      mstore(0x40, 0x80)\n      jumpi(tag_1, lt(calldatasize, 0x04))\n      shr(0xe0, calldataload(0x00))\n      dup1\n      0xb422de9d\n      gt\n      tag_13\n      jumpi\n      dup1\n      0xb422de9d\n      eq\n      tag_7\n      jumpi\n      dup1\n      0xcf7c3708\n      eq\n      tag_8\n      jumpi\n      dup1\n      0xd24257c0\n      eq\n      tag_9\n      jumpi\n      dup1\n      0xd30895e4\n      eq\n      tag_10\n      jumpi\n      dup1\n      0xd8b1f219\n      eq\n      tag_11\n      jumpi\n      dup1\n      0xeb13175d\n      eq\n      tag_12\n      jumpi\n      jump(tag_1)\n    tag_13:\n      dup1\n      0x0ce6e680\n      eq\n      tag_2\n      jumpi\n      dup1\n      0x2c0f9aaa\n      eq\n      tag_3\n      jumpi\n      dup1\n      0x51830227\n      eq\n      tag_4\n      jumpi\n      dup1\n      0x59a5f12d\n      eq\n      tag_5\n      jumpi\n      dup1\n      0x603f5088\n      eq\n      tag_6\n      jumpi\n    tag_1:\n      0x00\n      dup1\n      revert\n        /* \"contracts/Coin2.sol\":308:333  bool public player2Choice */\n    tag_2:\n      callvalue\n      dup1\n      iszero\n      tag_14\n      jumpi\n      0x00\n      dup1\n      revert\n    tag_14:\n      pop\n      tag_15\n      tag_16\n      jump\t// in\n    tag_15:\n      mload(0x40)\n      tag_17\n      swap2\n      swap1\n      tag_18\n      jump\t// in\n    tag_17:\n      mload(0x40)\n      dup1\n      swap2\n      sub\n      swap1\n      return\n        /* \"contracts/Coin2.sol\":1135:1569  function Reveal2(bool choice, uint256 nonce) public {\r... */\n    tag_3:\n      callvalue\n      dup1\n      iszero\n      tag_19\n      jumpi\n      0x00\n      dup1\n      revert\n    tag_19:\n      pop\n      tag_20\n      0x04\n      dup1\n      calldatasize\n      sub\n      dup2\n      add\n      swap1\n      tag_21\n      swap2\n      swap1\n      tag_22\n      jump\t// in\n    tag_21:\n      tag_23\n      jump\t// in\n    tag_20:\n      stop\n        /* \"contracts/Coin2.sol\":340:360  bool public revealed */\n    tag_4:\n      callvalue\n      dup1\n      iszero\n      tag_24\n      jumpi\n      0x00\n      dup1\n      revert\n    tag_24:\n      pop\n      tag_25\n      tag_26\n      jump\t// in\n    tag_25:\n      mload(0x40)\n      tag_27\n      swap2\n      swap1\n      tag_18\n      jump\t// in\n    tag_27:\n      mload(0x40)\n      dup1\n      swap2\n      sub\n      swap1\n      return\n        /* \"contracts/Coin2.sol\":124:154  address payable public player2 */\n    tag_5:\n      callvalue\n      dup1\n      iszero\n      tag_28\n      jumpi\n      0x00\n      dup1\n      revert\n    tag_28:\n      pop\n      tag_29\n      tag_30\n      jump\t// in\n    tag_29:\n      mload(0x40)\n      tag_31\n      swap2\n      swap1\n      tag_32\n      jump\t// in\n    tag_31:\n      mload(0x40)\n      dup1\n      swap2\n      sub\n      swap1\n      return\n        /* \"contracts/Coin2.sol\":202:234  bytes32 public player2Commitment */\n    tag_6:\n      callvalue\n      dup1\n      iszero\n      tag_33\n      jumpi\n      0x00\n      dup1\n      revert\n    tag_33:\n      pop\n      tag_34\n      tag_35\n      jump\t// in\n    tag_34:\n      mload(0x40)\n      tag_36\n      swap2\n      swap1\n      tag_37\n      jump\t// in\n    tag_36:\n      mload(0x40)\n      dup1\n      swap2\n      sub\n      swap1\n      return\n        /* \"contracts/Coin2.sol\":565:791  function TakeBet(bytes32 commitment) public payable {\r... */\n    tag_7:\n      tag_38\n      0x04\n      dup1\n      calldatasize\n      sub\n      dup2\n      add\n      swap1\n      tag_39\n      swap2\n      swap1\n      tag_40\n      jump\t// in\n    tag_39:\n      tag_41\n      jump\t// in\n    tag_38:\n      stop\n        /* \"contracts/Coin2.sol\":799:1127  function Reveal1(bool choice, uint256 nonce) public {\r... */\n    tag_8:\n      callvalue\n      dup1\n      iszero\n      tag_42\n      jumpi\n      0x00\n      dup1\n      revert\n    tag_42:\n      pop\n      tag_43\n      0x04\n      dup1\n      calldatasize\n      sub\n      dup2\n      add\n      swap1\n      tag_44\n      swap2\n      swap1\n      tag_22\n      jump\t// in\n    tag_44:\n      tag_45\n      jump\t// in\n    tag_43:\n      stop\n        /* \"contracts/Coin2.sol\":243:267  uint256 public betAmount */\n    tag_9:\n      callvalue\n      dup1\n      iszero\n      tag_46\n      jumpi\n      0x00\n      dup1\n      revert\n    tag_46:\n      pop\n      tag_47\n      tag_48\n      jump\t// in\n    tag_47:\n      mload(0x40)\n      tag_49\n      swap2\n      swap1\n      tag_50\n      jump\t// in\n    tag_49:\n      mload(0x40)\n      dup1\n      swap2\n      sub\n      swap1\n      return\n        /* \"contracts/Coin2.sol\":87:117  address payable public player1 */\n    tag_10:\n      callvalue\n      dup1\n      iszero\n      tag_51\n      jumpi\n      0x00\n      dup1\n      revert\n    tag_51:\n      pop\n      tag_52\n      tag_53\n      jump\t// in\n    tag_52:\n      mload(0x40)\n      tag_54\n      swap2\n      swap1\n      tag_32\n      jump\t// in\n    tag_54:\n      mload(0x40)\n      dup1\n      swap2\n      sub\n      swap1\n      return\n        /* \"contracts/Coin2.sol\":276:301  bool public player1Choice */\n    tag_11:\n      callvalue\n      dup1\n      iszero\n      tag_55\n      jumpi\n      0x00\n      dup1\n      revert\n    tag_55:\n      pop\n      tag_56\n      tag_57\n      jump\t// in\n    tag_56:\n      mload(0x40)\n      tag_58\n      swap2\n      swap1\n      tag_18\n      jump\t// in\n    tag_58:\n      mload(0x40)\n      dup1\n      swap2\n      sub\n      swap1\n      return\n        /* \"contracts/Coin2.sol\":163:195  bytes32 public player1Commitment */\n    tag_12:\n      callvalue\n      dup1\n      iszero\n      tag_59\n      jumpi\n      0x00\n      dup1\n      revert\n    tag_59:\n      pop\n      tag_60\n      tag_61\n      jump\t// in\n    tag_60:\n      mload(0x40)\n      tag_62\n      swap2\n      swap1\n      tag_37\n      jump\t// in\n    tag_62:\n      mload(0x40)\n      dup1\n      swap2\n      sub\n      swap1\n      return\n        /* \"contracts/Coin2.sol\":308:333  bool public player2Choice */\n    tag_16:\n      0x05\n      0x01\n      swap1\n      sload\n      swap1\n      0x0100\n      exp\n      swap1\n      div\n      0xff\n      and\n      dup2\n      jump\t// out\n        /* \"contracts/Coin2.sol\":1135:1569  function Reveal2(bool choice, uint256 nonce) public {\r... */\n    tag_23:\n        /* \"contracts/Coin2.sol\":1225:1226  0 */\n      0x00\n        /* \"contracts/Coin2.sol\":1206:1227  player2 != address(0) */\n      0xffffffffffffffffffffffffffffffffffffffff\n      and\n        /* \"contracts/Coin2.sol\":1206:1213  player2 */\n      0x01\n      0x00\n      swap1\n      sload\n      swap1\n      0x0100\n      exp\n      swap1\n      div\n      0xffffffffffffffffffffffffffffffffffffffff\n      and\n        /* \"contracts/Coin2.sol\":1206:1227  player2 != address(0) */\n      0xffffffffffffffffffffffffffffffffffffffff\n      and\n      eq\n      iszero\n        /* \"contracts/Coin2.sol\":1198:1228  require(player2 != address(0)) */\n      tag_64\n      jumpi\n      0x00\n      dup1\n      revert\n    tag_64:\n        /* \"contracts/Coin2.sol\":1247:1255  revealed */\n      0x05\n      0x02\n      swap1\n      sload\n      swap1\n      0x0100\n      exp\n      swap1\n      div\n      0xff\n      and\n        /* \"contracts/Coin2.sol\":1239:1256  require(revealed) */\n      tag_65\n      jumpi\n      0x00\n      dup1\n      revert\n    tag_65:\n        /* \"contracts/Coin2.sol\":1321:1338  player2Commitment */\n      sload(0x03)\n        /* \"contracts/Coin2.sol\":1302:1308  choice */\n      dup3\n        /* \"contracts/Coin2.sol\":1310:1315  nonce */\n      dup3\n        /* \"contracts/Coin2.sol\":1285:1316  abi.encodePacked(choice, nonce) */\n      add(0x20, mload(0x40))\n      tag_66\n      swap3\n      swap2\n      swap1\n      tag_67\n      jump\t// in\n    tag_66:\n      mload(0x40)\n      0x20\n      dup2\n      dup4\n      sub\n      sub\n      dup2\n      mstore\n      swap1\n      0x40\n      mstore\n        /* \"contracts/Coin2.sol\":1275:1317  keccak256(abi.encodePacked(choice, nonce)) */\n      dup1\n      mload\n      swap1\n      0x20\n      add\n      keccak256\n        /* \"contracts/Coin2.sol\":1275:1338  keccak256(abi.encodePacked(choice, nonce)) == player2Commitment */\n      eq\n        /* \"contracts/Coin2.sol\":1267:1339  require(keccak256(abi.encodePacked(choice, nonce)) == player2Commitment) */\n      tag_68\n      jumpi\n      0x00\n      dup1\n      revert\n    tag_68:\n        /* \"contracts/Coin2.sol\":1368:1374  choice */\n      dup2\n        /* \"contracts/Coin2.sol\":1352:1365  player2Choice */\n      0x05\n      0x01\n        /* \"contracts/Coin2.sol\":1352:1374  player2Choice = choice */\n      0x0100\n      exp\n      dup2\n      sload\n      dup2\n      0xff\n      mul\n      not\n      and\n      swap1\n      dup4\n      iszero\n      iszero\n      mul\n      or\n      swap1\n      sstore\n      pop\n        /* \"contracts/Coin2.sol\":1416:1422  choice */\n      dup2\n        /* \"contracts/Coin2.sol\":1399:1422  player2Choice == choice */\n      iszero\n      iszero\n        /* \"contracts/Coin2.sol\":1399:1412  player2Choice */\n      0x05\n      0x01\n      swap1\n      sload\n      swap1\n      0x0100\n      exp\n      swap1\n      div\n      0xff\n      and\n        /* \"contracts/Coin2.sol\":1399:1422  player2Choice == choice */\n      iszero\n      iszero\n      eq\n        /* \"contracts/Coin2.sol\":1395:1562  if (player2Choice == choice) {\r... */\n      iszero\n      tag_69\n      jumpi\n        /* \"contracts/Coin2.sol\":1439:1446  player2 */\n      0x01\n      0x00\n      swap1\n      sload\n      swap1\n      0x0100\n      exp\n      swap1\n      div\n      0xffffffffffffffffffffffffffffffffffffffff\n      and\n        /* \"contracts/Coin2.sol\":1439:1455  player2.transfer */\n      0xffffffffffffffffffffffffffffffffffffffff\n      and\n        /* \"contracts/Coin2.sol\":1439:1478  player2.transfer(address(this).balance) */\n      0x08fc\n        /* \"contracts/Coin2.sol\":1456:1477  address(this).balance */\n      selfbalance\n        /* \"contracts/Coin2.sol\":1439:1478  player2.transfer(address(this).balance) */\n      swap1\n      dup2\n      iszero\n      mul\n      swap1\n      mload(0x40)\n      0x00\n      mload(0x40)\n      dup1\n      dup4\n      sub\n      dup2\n      dup6\n      dup9\n      dup9\n      call\n      swap4\n      pop\n      pop\n      pop\n      pop\n      iszero\n      dup1\n      iszero\n      tag_71\n      jumpi\n      returndatasize\n      0x00\n      dup1\n      returndatacopy\n      revert(0x00, returndatasize)\n    tag_71:\n      pop\n        /* \"contracts/Coin2.sol\":1395:1562  if (player2Choice == choice) {\r... */\n      jump(tag_72)\n    tag_69:\n        /* \"contracts/Coin2.sol\":1511:1518  player1 */\n      0x00\n      dup1\n      sload\n      swap1\n      0x0100\n      exp\n      swap1\n      div\n      0xffffffffffffffffffffffffffffffffffffffff\n      and\n        /* \"contracts/Coin2.sol\":1511:1527  player1.transfer */\n      0xffffffffffffffffffffffffffffffffffffffff\n      and\n        /* \"contracts/Coin2.sol\":1511:1550  player1.transfer(address(this).balance) */\n      0x08fc\n        /* \"contracts/Coin2.sol\":1528:1549  address(this).balance */\n      selfbalance\n        /* \"contracts/Coin2.sol\":1511:1550  player1.transfer(address(this).balance) */\n      swap1\n      dup2\n      iszero\n      mul\n      swap1\n      mload(0x40)\n      0x00\n      mload(0x40)\n      dup1\n      dup4\n      sub\n      dup2\n      dup6\n      dup9\n      dup9\n      call\n      swap4\n      pop\n      pop\n      pop\n      pop\n      iszero\n      dup1\n      iszero\n      tag_74\n      jumpi\n      returndatasize\n      0x00\n      dup1\n      returndatacopy\n      revert(0x00, returndatasize)\n    tag_74:\n      pop\n        /* \"contracts/Coin2.sol\":1395:1562  if (player2Choice == choice) {\r... */\n    tag_72:\n        /* \"contracts/Coin2.sol\":1135:1569  function Reveal2(bool choice, uint256 nonce) public {\r... */\n      pop\n      pop\n      jump\t// out\n        /* \"contracts/Coin2.sol\":340:360  bool public revealed */\n    tag_26:\n      0x05\n      0x02\n      swap1\n      sload\n      swap1\n      0x0100\n      exp\n      swap1\n      div\n      0xff\n      and\n      dup2\n      jump\t// out\n        /* \"contracts/Coin2.sol\":124:154  address payable public player2 */\n    tag_30:\n      0x01\n      0x00\n      swap1\n      sload\n      swap1\n      0x0100\n      exp\n      swap1\n      div\n      0xffffffffffffffffffffffffffffffffffffffff\n      and\n      dup2\n      jump\t// out\n        /* \"contracts/Coin2.sol\":202:234  bytes32 public player2Commitment */\n    tag_35:\n      sload(0x03)\n      dup2\n      jump\t// out\n        /* \"contracts/Coin2.sol\":565:791  function TakeBet(bytes32 commitment) public payable {\r... */\n    tag_41:\n        /* \"contracts/Coin2.sol\":655:656  0 */\n      0x00\n        /* \"contracts/Coin2.sol\":636:657  player2 == address(0) */\n      0xffffffffffffffffffffffffffffffffffffffff\n      and\n        /* \"contracts/Coin2.sol\":636:643  player2 */\n      0x01\n      0x00\n      swap1\n      sload\n      swap1\n      0x0100\n      exp\n      swap1\n      div\n      0xffffffffffffffffffffffffffffffffffffffff\n      and\n        /* \"contracts/Coin2.sol\":636:657  player2 == address(0) */\n      0xffffffffffffffffffffffffffffffffffffffff\n      and\n      eq\n        /* \"contracts/Coin2.sol\":628:658  require(player2 == address(0)) */\n      tag_76\n      jumpi\n      0x00\n      dup1\n      revert\n    tag_76:\n        /* \"contracts/Coin2.sol\":690:699  betAmount */\n      sload(0x04)\n        /* \"contracts/Coin2.sol\":677:686  msg.value */\n      callvalue\n        /* \"contracts/Coin2.sol\":677:699  msg.value == betAmount */\n      eq\n        /* \"contracts/Coin2.sol\":669:700  require(msg.value == betAmount) */\n      tag_77\n      jumpi\n      0x00\n      dup1\n      revert\n    tag_77:\n        /* \"contracts/Coin2.sol\":731:741  msg.sender */\n      caller\n        /* \"contracts/Coin2.sol\":713:720  player2 */\n      0x01\n      0x00\n        /* \"contracts/Coin2.sol\":713:742  player2 = payable(msg.sender) */\n      0x0100\n      exp\n      dup2\n      sload\n      dup2\n      0xffffffffffffffffffffffffffffffffffffffff\n      mul\n      not\n      and\n      swap1\n      dup4\n      0xffffffffffffffffffffffffffffffffffffffff\n      and\n      mul\n      or\n      swap1\n      sstore\n      pop\n        /* \"contracts/Coin2.sol\":773:783  commitment */\n      dup1\n        /* \"contracts/Coin2.sol\":753:770  player2Commitment */\n      0x03\n        /* \"contracts/Coin2.sol\":753:783  player2Commitment = commitment */\n      dup2\n      swap1\n      sstore\n      pop\n        /* \"contracts/Coin2.sol\":565:791  function TakeBet(bytes32 commitment) public payable {\r... */\n      pop\n      jump\t// out\n        /* \"contracts/Coin2.sol\":799:1127  function Reveal1(bool choice, uint256 nonce) public {\r... */\n    tag_45:\n        /* \"contracts/Coin2.sol\":889:890  0 */\n      0x00\n        /* \"contracts/Coin2.sol\":870:891  player2 != address(0) */\n      0xffffffffffffffffffffffffffffffffffffffff\n      and\n        /* \"contracts/Coin2.sol\":870:877  player2 */\n      0x01\n      0x00\n      swap1\n      sload\n      swap1\n      0x0100\n      exp\n      swap1\n      div\n      0xffffffffffffffffffffffffffffffffffffffff\n      and\n        /* \"contracts/Coin2.sol\":870:891  player2 != address(0) */\n      0xffffffffffffffffffffffffffffffffffffffff\n      and\n      eq\n      iszero\n        /* \"contracts/Coin2.sol\":862:892  require(player2 != address(0)) */\n      tag_79\n      jumpi\n      0x00\n      dup1\n      revert\n    tag_79:\n        /* \"contracts/Coin2.sol\":912:920  revealed */\n      0x05\n      0x02\n      swap1\n      sload\n      swap1\n      0x0100\n      exp\n      swap1\n      div\n      0xff\n      and\n        /* \"contracts/Coin2.sol\":911:920  !revealed */\n      iszero\n        /* \"contracts/Coin2.sol\":903:921  require(!revealed) */\n      tag_80\n      jumpi\n      0x00\n      dup1\n      revert\n    tag_80:\n        /* \"contracts/Coin2.sol\":986:1003  player1Commitment */\n      sload(0x02)\n        /* \"contracts/Coin2.sol\":967:973  choice */\n      dup3\n        /* \"contracts/Coin2.sol\":975:980  nonce */\n      dup3\n        /* \"contracts/Coin2.sol\":950:981  abi.encodePacked(choice, nonce) */\n      add(0x20, mload(0x40))\n      tag_81\n      swap3\n      swap2\n      swap1\n      tag_67\n      jump\t// in\n    tag_81:\n      mload(0x40)\n      0x20\n      dup2\n      dup4\n      sub\n      sub\n      dup2\n      mstore\n      swap1\n      0x40\n      mstore\n        /* \"contracts/Coin2.sol\":940:982  keccak256(abi.encodePacked(choice, nonce)) */\n      dup1\n      mload\n      swap1\n      0x20\n      add\n      keccak256\n        /* \"contracts/Coin2.sol\":940:1003  keccak256(abi.encodePacked(choice, nonce)) == player1Commitment */\n      eq\n        /* \"contracts/Coin2.sol\":932:1004  require(keccak256(abi.encodePacked(choice, nonce)) == player1Commitment) */\n      tag_82\n      jumpi\n      0x00\n      dup1\n      revert\n    tag_82:\n        /* \"contracts/Coin2.sol\":1033:1039  choice */\n      dup2\n        /* \"contracts/Coin2.sol\":1017:1030  player1Choice */\n      0x05\n      0x00\n        /* \"contracts/Coin2.sol\":1017:1039  player1Choice = choice */\n      0x0100\n      exp\n      dup2\n      sload\n      dup2\n      0xff\n      mul\n      not\n      and\n      swap1\n      dup4\n      iszero\n      iszero\n      mul\n      or\n      swap1\n      sstore\n      pop\n        /* \"contracts/Coin2.sol\":1061:1065  true */\n      0x01\n        /* \"contracts/Coin2.sol\":1050:1058  revealed */\n      0x05\n      0x02\n        /* \"contracts/Coin2.sol\":1050:1065  revealed = true */\n      0x0100\n      exp\n      dup2\n      sload\n      dup2\n      0xff\n      mul\n      not\n      and\n      swap1\n      dup4\n      iszero\n      iszero\n      mul\n      or\n      swap1\n      sstore\n      pop\n        /* \"contracts/Coin2.sol\":1076:1083  player1 */\n      0x00\n      dup1\n      sload\n      swap1\n      0x0100\n      exp\n      swap1\n      div\n      0xffffffffffffffffffffffffffffffffffffffff\n      and\n        /* \"contracts/Coin2.sol\":1076:1092  player1.transfer */\n      0xffffffffffffffffffffffffffffffffffffffff\n      and\n        /* \"contracts/Coin2.sol\":1076:1119  player1.transfer(address(this).balance / 4) */\n      0x08fc\n        /* \"contracts/Coin2.sol\":1117:1118  4 */\n      0x04\n        /* \"contracts/Coin2.sol\":1093:1114  address(this).balance */\n      selfbalance\n        /* \"contracts/Coin2.sol\":1093:1118  address(this).balance / 4 */\n      tag_83\n      swap2\n      swap1\n      tag_84\n      jump\t// in\n    tag_83:\n        /* \"contracts/Coin2.sol\":1076:1119  player1.transfer(address(this).balance / 4) */\n      swap1\n      dup2\n      iszero\n      mul\n      swap1\n      mload(0x40)\n      0x00\n      mload(0x40)\n      dup1\n      dup4\n      sub\n      dup2\n      dup6\n      dup9\n      dup9\n      call\n      swap4\n      pop\n      pop\n      pop\n      pop\n      iszero\n      dup1\n      iszero\n      tag_86\n      jumpi\n      returndatasize\n      0x00\n      dup1\n      returndatacopy\n      revert(0x00, returndatasize)\n    tag_86:\n      pop\n        /* \"contracts/Coin2.sol\":799:1127  function Reveal1(bool choice, uint256 nonce) public {\r... */\n      pop\n      pop\n      jump\t// out\n        /* \"contracts/Coin2.sol\":243:267  uint256 public betAmount */\n    tag_48:\n      sload(0x04)\n      dup2\n      jump\t// out\n        /* \"contracts/Coin2.sol\":87:117  address payable public player1 */\n    tag_53:\n      0x00\n      dup1\n      sload\n      swap1\n      0x0100\n      exp\n      swap1\n      div\n      0xffffffffffffffffffffffffffffffffffffffff\n      and\n      dup2\n      jump\t// out\n        /* \"contracts/Coin2.sol\":276:301  bool public player1Choice */\n    tag_57:\n      0x05\n      0x00\n      swap1\n      sload\n      swap1\n      0x0100\n      exp\n      swap1\n      div\n      0xff\n      and\n      dup2\n      jump\t// out\n        /* \"contracts/Coin2.sol\":163:195  bytes32 public player1Commitment */\n    tag_61:\n      sload(0x02)\n      dup2\n      jump\t// out\n        /* \"#utility.yul\":7:140   */\n    tag_88:\n        /* \"#utility.yul\":50:55   */\n      0x00\n        /* \"#utility.yul\":88:94   */\n      dup2\n        /* \"#utility.yul\":75:95   */\n      calldataload\n        /* \"#utility.yul\":66:95   */\n      swap1\n      pop\n        /* \"#utility.yul\":104:134   */\n      tag_90\n        /* \"#utility.yul\":128:133   */\n      dup2\n        /* \"#utility.yul\":104:134   */\n      tag_91\n      jump\t// in\n    tag_90:\n        /* \"#utility.yul\":7:140   */\n      swap3\n      swap2\n      pop\n      pop\n      jump\t// out\n        /* \"#utility.yul\":146:285   */\n    tag_92:\n        /* \"#utility.yul\":192:197   */\n      0x00\n        /* \"#utility.yul\":230:236   */\n      dup2\n        /* \"#utility.yul\":217:237   */\n      calldataload\n        /* \"#utility.yul\":208:237   */\n      swap1\n      pop\n        /* \"#utility.yul\":246:279   */\n      tag_94\n        /* \"#utility.yul\":273:278   */\n      dup2\n        /* \"#utility.yul\":246:279   */\n      tag_95\n      jump\t// in\n    tag_94:\n        /* \"#utility.yul\":146:285   */\n      swap3\n      swap2\n      pop\n      pop\n      jump\t// out\n        /* \"#utility.yul\":291:430   */\n    tag_96:\n        /* \"#utility.yul\":337:342   */\n      0x00\n        /* \"#utility.yul\":375:381   */\n      dup2\n        /* \"#utility.yul\":362:382   */\n      calldataload\n        /* \"#utility.yul\":353:382   */\n      swap1\n      pop\n        /* \"#utility.yul\":391:424   */\n      tag_98\n        /* \"#utility.yul\":418:423   */\n      dup2\n        /* \"#utility.yul\":391:424   */\n      tag_99\n      jump\t// in\n    tag_98:\n        /* \"#utility.yul\":291:430   */\n      swap3\n      swap2\n      pop\n      pop\n      jump\t// out\n        /* \"#utility.yul\":436:904   */\n    tag_22:\n        /* \"#utility.yul\":501:507   */\n      0x00\n        /* \"#utility.yul\":509:515   */\n      dup1\n        /* \"#utility.yul\":558:560   */\n      0x40\n        /* \"#utility.yul\":546:555   */\n      dup4\n        /* \"#utility.yul\":537:544   */\n      dup6\n        /* \"#utility.yul\":533:556   */\n      sub\n        /* \"#utility.yul\":529:561   */\n      slt\n        /* \"#utility.yul\":526:645   */\n      iszero\n      tag_101\n      jumpi\n        /* \"#utility.yul\":564:643   */\n      tag_102\n      tag_103\n      jump\t// in\n    tag_102:\n        /* \"#utility.yul\":526:645   */\n    tag_101:\n        /* \"#utility.yul\":684:685   */\n      0x00\n        /* \"#utility.yul\":709:759   */\n      tag_104\n        /* \"#utility.yul\":751:758   */\n      dup6\n        /* \"#utility.yul\":742:748   */\n      dup3\n        /* \"#utility.yul\":731:740   */\n      dup7\n        /* \"#utility.yul\":727:749   */\n      add\n        /* \"#utility.yul\":709:759   */\n      tag_88\n      jump\t// in\n    tag_104:\n        /* \"#utility.yul\":699:759   */\n      swap3\n      pop\n        /* \"#utility.yul\":655:769   */\n      pop\n        /* \"#utility.yul\":808:810   */\n      0x20\n        /* \"#utility.yul\":834:887   */\n      tag_105\n        /* \"#utility.yul\":879:886   */\n      dup6\n        /* \"#utility.yul\":870:876   */\n      dup3\n        /* \"#utility.yul\":859:868   */\n      dup7\n        /* \"#utility.yul\":855:877   */\n      add\n        /* \"#utility.yul\":834:887   */\n      tag_96\n      jump\t// in\n    tag_105:\n        /* \"#utility.yul\":824:887   */\n      swap2\n      pop\n        /* \"#utility.yul\":779:897   */\n      pop\n        /* \"#utility.yul\":436:904   */\n      swap3\n      pop\n      swap3\n      swap1\n      pop\n      jump\t// out\n        /* \"#utility.yul\":910:1239   */\n    tag_40:\n        /* \"#utility.yul\":969:975   */\n      0x00\n        /* \"#utility.yul\":1018:1020   */\n      0x20\n        /* \"#utility.yul\":1006:1015   */\n      dup3\n        /* \"#utility.yul\":997:1004   */\n      dup5\n        /* \"#utility.yul\":993:1016   */\n      sub\n        /* \"#utility.yul\":989:1021   */\n      slt\n        /* \"#utility.yul\":986:1105   */\n      iszero\n      tag_107\n      jumpi\n        /* \"#utility.yul\":1024:1103   */\n      tag_108\n      tag_103\n      jump\t// in\n    tag_108:\n        /* \"#utility.yul\":986:1105   */\n    tag_107:\n        /* \"#utility.yul\":1144:1145   */\n      0x00\n        /* \"#utility.yul\":1169:1222   */\n      tag_109\n        /* \"#utility.yul\":1214:1221   */\n      dup5\n        /* \"#utility.yul\":1205:1211   */\n      dup3\n        /* \"#utility.yul\":1194:1203   */\n      dup6\n        /* \"#utility.yul\":1190:1212   */\n      add\n        /* \"#utility.yul\":1169:1222   */\n      tag_92\n      jump\t// in\n    tag_109:\n        /* \"#utility.yul\":1159:1222   */\n      swap2\n      pop\n        /* \"#utility.yul\":1115:1232   */\n      pop\n        /* \"#utility.yul\":910:1239   */\n      swap3\n      swap2\n      pop\n      pop\n      jump\t// out\n        /* \"#utility.yul\":1245:1387   */\n    tag_110:\n        /* \"#utility.yul\":1348:1380   */\n      tag_112\n        /* \"#utility.yul\":1374:1379   */\n      dup2\n        /* \"#utility.yul\":1348:1380   */\n      tag_113\n      jump\t// in\n    tag_112:\n        /* \"#utility.yul\":1343:1346   */\n      dup3\n        /* \"#utility.yul\":1336:1381   */\n      mstore\n        /* \"#utility.yul\":1245:1387   */\n      pop\n      pop\n      jump\t// out\n        /* \"#utility.yul\":1393:1502   */\n    tag_114:\n        /* \"#utility.yul\":1474:1495   */\n      tag_116\n        /* \"#utility.yul\":1489:1494   */\n      dup2\n        /* \"#utility.yul\":1474:1495   */\n      tag_117\n      jump\t// in\n    tag_116:\n        /* \"#utility.yul\":1469:1472   */\n      dup3\n        /* \"#utility.yul\":1462:1496   */\n      mstore\n        /* \"#utility.yul\":1393:1502   */\n      pop\n      pop\n      jump\t// out\n        /* \"#utility.yul\":1508:1653   */\n    tag_118:\n        /* \"#utility.yul\":1607:1646   */\n      tag_120\n        /* \"#utility.yul\":1624:1645   */\n      tag_121\n        /* \"#utility.yul\":1639:1644   */\n      dup3\n        /* \"#utility.yul\":1624:1645   */\n      tag_117\n      jump\t// in\n    tag_121:\n        /* \"#utility.yul\":1607:1646   */\n      tag_122\n      jump\t// in\n    tag_120:\n        /* \"#utility.yul\":1602:1605   */\n      dup3\n        /* \"#utility.yul\":1595:1647   */\n      mstore\n        /* \"#utility.yul\":1508:1653   */\n      pop\n      pop\n      jump\t// out\n        /* \"#utility.yul\":1659:1777   */\n    tag_123:\n        /* \"#utility.yul\":1746:1770   */\n      tag_125\n        /* \"#utility.yul\":1764:1769   */\n      dup2\n        /* \"#utility.yul\":1746:1770   */\n      tag_126\n      jump\t// in\n    tag_125:\n        /* \"#utility.yul\":1741:1744   */\n      dup3\n        /* \"#utility.yul\":1734:1771   */\n      mstore\n        /* \"#utility.yul\":1659:1777   */\n      pop\n      pop\n      jump\t// out\n        /* \"#utility.yul\":1783:1901   */\n    tag_127:\n        /* \"#utility.yul\":1870:1894   */\n      tag_129\n        /* \"#utility.yul\":1888:1893   */\n      dup2\n        /* \"#utility.yul\":1870:1894   */\n      tag_130\n      jump\t// in\n    tag_129:\n        /* \"#utility.yul\":1865:1868   */\n      dup3\n        /* \"#utility.yul\":1858:1895   */\n      mstore\n        /* \"#utility.yul\":1783:1901   */\n      pop\n      pop\n      jump\t// out\n        /* \"#utility.yul\":1907:2064   */\n    tag_131:\n        /* \"#utility.yul\":2012:2057   */\n      tag_133\n        /* \"#utility.yul\":2032:2056   */\n      tag_134\n        /* \"#utility.yul\":2050:2055   */\n      dup3\n        /* \"#utility.yul\":2032:2056   */\n      tag_130\n      jump\t// in\n    tag_134:\n        /* \"#utility.yul\":2012:2057   */\n      tag_135\n      jump\t// in\n    tag_133:\n        /* \"#utility.yul\":2007:2010   */\n      dup3\n        /* \"#utility.yul\":2000:2058   */\n      mstore\n        /* \"#utility.yul\":1907:2064   */\n      pop\n      pop\n      jump\t// out\n        /* \"#utility.yul\":2070:2454   */\n    tag_67:\n        /* \"#utility.yul\":2204:2207   */\n      0x00\n        /* \"#utility.yul\":2219:2288   */\n      tag_137\n        /* \"#utility.yul\":2284:2287   */\n      dup3\n        /* \"#utility.yul\":2275:2281   */\n      dup6\n        /* \"#utility.yul\":2219:2288   */\n      tag_118\n      jump\t// in\n    tag_137:\n        /* \"#utility.yul\":2313:2314   */\n      0x01\n        /* \"#utility.yul\":2308:2311   */\n      dup3\n        /* \"#utility.yul\":2304:2315   */\n      add\n        /* \"#utility.yul\":2297:2315   */\n      swap2\n      pop\n        /* \"#utility.yul\":2325:2400   */\n      tag_138\n        /* \"#utility.yul\":2396:2399   */\n      dup3\n        /* \"#utility.yul\":2387:2393   */\n      dup5\n        /* \"#utility.yul\":2325:2400   */\n      tag_131\n      jump\t// in\n    tag_138:\n        /* \"#utility.yul\":2425:2427   */\n      0x20\n        /* \"#utility.yul\":2420:2423   */\n      dup3\n        /* \"#utility.yul\":2416:2428   */\n      add\n        /* \"#utility.yul\":2409:2428   */\n      swap2\n      pop\n        /* \"#utility.yul\":2445:2448   */\n      dup2\n        /* \"#utility.yul\":2438:2448   */\n      swap1\n      pop\n        /* \"#utility.yul\":2070:2454   */\n      swap4\n      swap3\n      pop\n      pop\n      pop\n      jump\t// out\n        /* \"#utility.yul\":2460:2714   */\n    tag_32:\n        /* \"#utility.yul\":2569:2573   */\n      0x00\n        /* \"#utility.yul\":2607:2609   */\n      0x20\n        /* \"#utility.yul\":2596:2605   */\n      dup3\n        /* \"#utility.yul\":2592:2610   */\n      add\n        /* \"#utility.yul\":2584:2610   */\n      swap1\n      pop\n        /* \"#utility.yul\":2620:2707   */\n      tag_140\n        /* \"#utility.yul\":2704:2705   */\n      0x00\n        /* \"#utility.yul\":2693:2702   */\n      dup4\n        /* \"#utility.yul\":2689:2706   */\n      add\n        /* \"#utility.yul\":2680:2686   */\n      dup5\n        /* \"#utility.yul\":2620:2707   */\n      tag_110\n      jump\t// in\n    tag_140:\n        /* \"#utility.yul\":2460:2714   */\n      swap3\n      swap2\n      pop\n      pop\n      jump\t// out\n        /* \"#utility.yul\":2720:2930   */\n    tag_18:\n        /* \"#utility.yul\":2807:2811   */\n      0x00\n        /* \"#utility.yul\":2845:2847   */\n      0x20\n        /* \"#utility.yul\":2834:2843   */\n      dup3\n        /* \"#utility.yul\":2830:2848   */\n      add\n        /* \"#utility.yul\":2822:2848   */\n      swap1\n      pop\n        /* \"#utility.yul\":2858:2923   */\n      tag_142\n        /* \"#utility.yul\":2920:2921   */\n      0x00\n        /* \"#utility.yul\":2909:2918   */\n      dup4\n        /* \"#utility.yul\":2905:2922   */\n      add\n        /* \"#utility.yul\":2896:2902   */\n      dup5\n        /* \"#utility.yul\":2858:2923   */\n      tag_114\n      jump\t// in\n    tag_142:\n        /* \"#utility.yul\":2720:2930   */\n      swap3\n      swap2\n      pop\n      pop\n      jump\t// out\n        /* \"#utility.yul\":2936:3158   */\n    tag_37:\n        /* \"#utility.yul\":3029:3033   */\n      0x00\n        /* \"#utility.yul\":3067:3069   */\n      0x20\n        /* \"#utility.yul\":3056:3065   */\n      dup3\n        /* \"#utility.yul\":3052:3070   */\n      add\n        /* \"#utility.yul\":3044:3070   */\n      swap1\n      pop\n        /* \"#utility.yul\":3080:3151   */\n      tag_144\n        /* \"#utility.yul\":3148:3149   */\n      0x00\n        /* \"#utility.yul\":3137:3146   */\n      dup4\n        /* \"#utility.yul\":3133:3150   */\n      add\n        /* \"#utility.yul\":3124:3130   */\n      dup5\n        /* \"#utility.yul\":3080:3151   */\n      tag_123\n      jump\t// in\n    tag_144:\n        /* \"#utility.yul\":2936:3158   */\n      swap3\n      swap2\n      pop\n      pop\n      jump\t// out\n        /* \"#utility.yul\":3164:3386   */\n    tag_50:\n        /* \"#utility.yul\":3257:3261   */\n      0x00\n        /* \"#utility.yul\":3295:3297   */\n      0x20\n        /* \"#utility.yul\":3284:3293   */\n      dup3\n        /* \"#utility.yul\":3280:3298   */\n      add\n        /* \"#utility.yul\":3272:3298   */\n      swap1\n      pop\n        /* \"#utility.yul\":3308:3379   */\n      tag_146\n        /* \"#utility.yul\":3376:3377   */\n      0x00\n        /* \"#utility.yul\":3365:3374   */\n      dup4\n        /* \"#utility.yul\":3361:3378   */\n      add\n        /* \"#utility.yul\":3352:3358   */\n      dup5\n        /* \"#utility.yul\":3308:3379   */\n      tag_127\n      jump\t// in\n    tag_146:\n        /* \"#utility.yul\":3164:3386   */\n      swap3\n      swap2\n      pop\n      pop\n      jump\t// out\n        /* \"#utility.yul\":3473:3658   */\n    tag_84:\n        /* \"#utility.yul\":3513:3514   */\n      0x00\n        /* \"#utility.yul\":3530:3550   */\n      tag_150\n        /* \"#utility.yul\":3548:3549   */\n      dup3\n        /* \"#utility.yul\":3530:3550   */\n      tag_130\n      jump\t// in\n    tag_150:\n        /* \"#utility.yul\":3525:3550   */\n      swap2\n      pop\n        /* \"#utility.yul\":3564:3584   */\n      tag_151\n        /* \"#utility.yul\":3582:3583   */\n      dup4\n        /* \"#utility.yul\":3564:3584   */\n      tag_130\n      jump\t// in\n    tag_151:\n        /* \"#utility.yul\":3559:3584   */\n      swap3\n      pop\n        /* \"#utility.yul\":3603:3604   */\n      dup3\n        /* \"#utility.yul\":3593:3628   */\n      tag_152\n      jumpi\n        /* \"#utility.yul\":3608:3626   */\n      tag_153\n      tag_154\n      jump\t// in\n    tag_153:\n        /* \"#utility.yul\":3593:3628   */\n    tag_152:\n        /* \"#utility.yul\":3650:3651   */\n      dup3\n        /* \"#utility.yul\":3647:3648   */\n      dup3\n        /* \"#utility.yul\":3643:3652   */\n      div\n        /* \"#utility.yul\":3638:3652   */\n      swap1\n      pop\n        /* \"#utility.yul\":3473:3658   */\n      swap3\n      swap2\n      pop\n      pop\n      jump\t// out\n        /* \"#utility.yul\":3664:3768   */\n    tag_113:\n        /* \"#utility.yul\":3709:3716   */\n      0x00\n        /* \"#utility.yul\":3738:3762   */\n      tag_156\n        /* \"#utility.yul\":3756:3761   */\n      dup3\n        /* \"#utility.yul\":3738:3762   */\n      tag_157\n      jump\t// in\n    tag_156:\n        /* \"#utility.yul\":3727:3762   */\n      swap1\n      pop\n        /* \"#utility.yul\":3664:3768   */\n      swap2\n      swap1\n      pop\n      jump\t// out\n        /* \"#utility.yul\":3774:3864   */\n    tag_117:\n        /* \"#utility.yul\":3808:3815   */\n      0x00\n        /* \"#utility.yul\":3851:3856   */\n      dup2\n        /* \"#utility.yul\":3844:3857   */\n      iszero\n        /* \"#utility.yul\":3837:3858   */\n      iszero\n        /* \"#utility.yul\":3826:3858   */\n      swap1\n      pop\n        /* \"#utility.yul\":3774:3864   */\n      swap2\n      swap1\n      pop\n      jump\t// out\n        /* \"#utility.yul\":3870:3947   */\n    tag_126:\n        /* \"#utility.yul\":3907:3914   */\n      0x00\n        /* \"#utility.yul\":3936:3941   */\n      dup2\n        /* \"#utility.yul\":3925:3941   */\n      swap1\n      pop\n        /* \"#utility.yul\":3870:3947   */\n      swap2\n      swap1\n      pop\n      jump\t// out\n        /* \"#utility.yul\":3953:4079   */\n    tag_157:\n        /* \"#utility.yul\":3990:3997   */\n      0x00\n        /* \"#utility.yul\":4030:4072   */\n      0xffffffffffffffffffffffffffffffffffffffff\n        /* \"#utility.yul\":4023:4028   */\n      dup3\n        /* \"#utility.yul\":4019:4073   */\n      and\n        /* \"#utility.yul\":4008:4073   */\n      swap1\n      pop\n        /* \"#utility.yul\":3953:4079   */\n      swap2\n      swap1\n      pop\n      jump\t// out\n        /* \"#utility.yul\":4085:4162   */\n    tag_130:\n        /* \"#utility.yul\":4122:4129   */\n      0x00\n        /* \"#utility.yul\":4151:4156   */\n      dup2\n        /* \"#utility.yul\":4140:4156   */\n      swap1\n      pop\n        /* \"#utility.yul\":4085:4162   */\n      swap2\n      swap1\n      pop\n      jump\t// out\n        /* \"#utility.yul\":4168:4263   */\n    tag_122:\n        /* \"#utility.yul\":4204:4211   */\n      0x00\n        /* \"#utility.yul\":4233:4257   */\n      tag_163\n        /* \"#utility.yul\":4251:4256   */\n      dup3\n        /* \"#utility.yul\":4233:4257   */\n      tag_164\n      jump\t// in\n    tag_163:\n        /* \"#utility.yul\":4222:4257   */\n      swap1\n      pop\n        /* \"#utility.yul\":4168:4263   */\n      swap2\n      swap1\n      pop\n      jump\t// out\n        /* \"#utility.yul\":4269:4348   */\n    tag_135:\n        /* \"#utility.yul\":4308:4315   */\n      0x00\n        /* \"#utility.yul\":4337:4342   */\n      dup2\n        /* \"#utility.yul\":4326:4342   */\n      swap1\n      pop\n        /* \"#utility.yul\":4269:4348   */\n      swap2\n      swap1\n      pop\n      jump\t// out\n        /* \"#utility.yul\":4354:4447   */\n    tag_164:\n        /* \"#utility.yul\":4391:4398   */\n      0x00\n        /* \"#utility.yul\":4420:4441   */\n      tag_167\n        /* \"#utility.yul\":4435:4440   */\n      dup3\n        /* \"#utility.yul\":4420:4441   */\n      tag_168\n      jump\t// in\n    tag_167:\n        /* \"#utility.yul\":4409:4441   */\n      swap1\n      pop\n        /* \"#utility.yul\":4354:4447   */\n      swap2\n      swap1\n      pop\n      jump\t// out\n        /* \"#utility.yul\":4639:4819   */\n    tag_154:\n        /* \"#utility.yul\":4687:4764   */\n      0x4e487b7100000000000000000000000000000000000000000000000000000000\n        /* \"#utility.yul\":4684:4685   */\n      0x00\n        /* \"#utility.yul\":4677:4765   */\n      mstore\n        /* \"#utility.yul\":4784:4788   */\n      0x12\n        /* \"#utility.yul\":4781:4782   */\n      0x04\n        /* \"#utility.yul\":4774:4789   */\n      mstore\n        /* \"#utility.yul\":4808:4812   */\n      0x24\n        /* \"#utility.yul\":4805:4806   */\n      0x00\n        /* \"#utility.yul\":4798:4813   */\n      revert\n        /* \"#utility.yul\":4948:5065   */\n    tag_103:\n        /* \"#utility.yul\":5057:5058   */\n      0x00\n        /* \"#utility.yul\":5054:5055   */\n      dup1\n        /* \"#utility.yul\":5047:5059   */\n      revert\n        /* \"#utility.yul\":5071:5167   */\n    tag_168:\n        /* \"#utility.yul\":5105:5113   */\n      0x00\n        /* \"#utility.yul\":5154:5159   */\n      dup2\n        /* \"#utility.yul\":5149:5152   */\n      0xf8\n        /* \"#utility.yul\":5145:5160   */\n      shl\n        /* \"#utility.yul\":5124:5160   */\n      swap1\n      pop\n        /* \"#utility.yul\":5071:5167   */\n      swap2\n      swap1\n      pop\n      jump\t// out\n        /* \"#utility.yul\":5173:5289   */\n    tag_91:\n        /* \"#utility.yul\":5243:5264   */\n      tag_177\n        /* \"#utility.yul\":5258:5263   */\n      dup2\n        /* \"#utility.yul\":5243:5264   */\n      tag_117\n      jump\t// in\n    tag_177:\n        /* \"#utility.yul\":5236:5241   */\n      dup2\n        /* \"#utility.yul\":5233:5265   */\n      eq\n        /* \"#utility.yul\":5223:5283   */\n      tag_178\n      jumpi\n        /* \"#utility.yul\":5279:5280   */\n      0x00\n        /* \"#utility.yul\":5276:5277   */\n      dup1\n        /* \"#utility.yul\":5269:5281   */\n      revert\n        /* \"#utility.yul\":5223:5283   */\n    tag_178:\n        /* \"#utility.yul\":5173:5289   */\n      pop\n      jump\t// out\n        /* \"#utility.yul\":5295:5417   */\n    tag_95:\n        /* \"#utility.yul\":5368:5392   */\n      tag_180\n        /* \"#utility.yul\":5386:5391   */\n      dup2\n        /* \"#utility.yul\":5368:5392   */\n      tag_126\n      jump\t// in\n    tag_180:\n        /* \"#utility.yul\":5361:5366   */\n      dup2\n        /* \"#utility.yul\":5358:5393   */\n      eq\n        /* \"#utility.yul\":5348:5411   */\n      tag_181\n      jumpi\n        /* \"#utility.yul\":5407:5408   */\n      0x00\n        /* \"#utility.yul\":5404:5405   */\n      dup1\n        /* \"#utility.yul\":5397:5409   */\n      revert\n        /* \"#utility.yul\":5348:5411   */\n    tag_181:\n        /* \"#utility.yul\":5295:5417   */\n      pop\n      jump\t// out\n        /* \"#utility.yul\":5423:5545   */\n    tag_99:\n        /* \"#utility.yul\":5496:5520   */\n      tag_183\n        /* \"#utility.yul\":5514:5519   */\n      dup2\n        /* \"#utility.yul\":5496:5520   */\n      tag_130\n      jump\t// in\n    tag_183:\n        /* \"#utility.yul\":5489:5494   */\n      dup2\n        /* \"#utility.yul\":5486:5521   */\n      eq\n        /* \"#utility.yul\":5476:5539   */\n      tag_184\n      jumpi\n        /* \"#utility.yul\":5535:5536   */\n      0x00\n        /* \"#utility.yul\":5532:5533   */\n      dup1\n        /* \"#utility.yul\":5525:5537   */\n      revert\n        /* \"#utility.yul\":5476:5539   */\n    tag_184:\n        /* \"#utility.yul\":5423:5545   */\n      pop\n      jump\t// out\n\n    auxdata: 0xa2646970667358221220b027e221b8522341af331c437cfb9d68e305ce49c8009f82009c6601e291fd1464736f6c63430008070033\n}\n",
				"bytecode": {
					"linkReferences": {},
					"object": "6080604052604051610ae8380380610ae8833981810160405281019061002591906100a9565b336000806101000a81548173ffffffffffffffffffffffffffffffffffffffff021916908373ffffffffffffffffffffffffffffffffffffffff16021790555080600281905550346004819055506000600560026101000a81548160ff021916908315150217905550506100fc565b6000815190506100a3816100e5565b92915050565b6000602082840312156100bf576100be6100e0565b5b60006100cd84828501610094565b91505092915050565b6000819050919050565b600080fd5b6100ee816100d6565b81146100f957600080fd5b50565b6109dd8061010b6000396000f3fe60806040526004361061009c5760003560e01c8063b422de9d11610064578063b422de9d14610176578063cf7c370814610192578063d24257c0146101bb578063d30895e4146101e6578063d8b1f21914610211578063eb13175d1461023c5761009c565b80630ce6e680146100a15780632c0f9aaa146100cc57806351830227146100f557806359a5f12d14610120578063603f50881461014b575b600080fd5b3480156100ad57600080fd5b506100b6610267565b6040516100c3919061081f565b60405180910390f35b3480156100d857600080fd5b506100f360048036038101906100ee9190610701565b61027a565b005b34801561010157600080fd5b5061010a610434565b604051610117919061081f565b60405180910390f35b34801561012c57600080fd5b50610135610447565b6040516101429190610804565b60405180910390f35b34801561015757600080fd5b5061016061046d565b60405161016d919061083a565b60405180910390f35b610190600480360381019061018b9190610741565b610473565b005b34801561019e57600080fd5b506101b960048036038101906101b49190610701565b610527565b005b3480156101c757600080fd5b506101d061067f565b6040516101dd9190610855565b60405180910390f35b3480156101f257600080fd5b506101fb610685565b6040516102089190610804565b60405180910390f35b34801561021d57600080fd5b506102266106a9565b604051610233919061081f565b60405180910390f35b34801561024857600080fd5b506102516106bc565b60405161025e919061083a565b60405180910390f35b600560019054906101000a900460ff1681565b600073ffffffffffffffffffffffffffffffffffffffff16600160009054906101000a900473ffffffffffffffffffffffffffffffffffffffff1673ffffffffffffffffffffffffffffffffffffffff1614156102d657600080fd5b600560029054906101000a900460ff166102ef57600080fd5b60035482826040516020016103059291906107d8565b604051602081830303815290604052805190602001201461032557600080fd5b81600560016101000a81548160ff021916908315150217905550811515600560019054906101000a900460ff16151514156103c857600160009054906101000a900473ffffffffffffffffffffffffffffffffffffffff1673ffffffffffffffffffffffffffffffffffffffff166108fc479081150290604051600060405180830381858888f193505050501580156103c2573d6000803e3d6000fd5b50610430565b60008054906101000a900473ffffffffffffffffffffffffffffffffffffffff1673ffffffffffffffffffffffffffffffffffffffff166108fc479081150290604051600060405180830381858888f1935050505015801561042e573d6000803e3d6000fd5b505b5050565b600560029054906101000a900460ff1681565b600160009054906101000a900473ffffffffffffffffffffffffffffffffffffffff1681565b60035481565b600073ffffffffffffffffffffffffffffffffffffffff16600160009054906101000a900473ffffffffffffffffffffffffffffffffffffffff1673ffffffffffffffffffffffffffffffffffffffff16146104ce57600080fd5b60045434146104dc57600080fd5b33600160006101000a81548173ffffffffffffffffffffffffffffffffffffffff021916908373ffffffffffffffffffffffffffffffffffffffff1602179055508060038190555050565b600073ffffffffffffffffffffffffffffffffffffffff16600160009054906101000a900473ffffffffffffffffffffffffffffffffffffffff1673ffffffffffffffffffffffffffffffffffffffff16141561058357600080fd5b600560029054906101000a900460ff161561059d57600080fd5b60025482826040516020016105b39291906107d8565b60405160208183030381529060405280519060200120146105d357600080fd5b81600560006101000a81548160ff0219169083151502179055506001600560026101000a81548160ff02191690831515021790555060008054906101000a900473ffffffffffffffffffffffffffffffffffffffff1673ffffffffffffffffffffffffffffffffffffffff166108fc60044761064f9190610870565b9081150290604051600060405180830381858888f1935050505015801561067a573d6000803e3d6000fd5b505050565b60045481565b60008054906101000a900473ffffffffffffffffffffffffffffffffffffffff1681565b600560009054906101000a900460ff1681565b60025481565b6000813590506106d181610962565b92915050565b6000813590506106e681610979565b92915050565b6000813590506106fb81610990565b92915050565b6000806040838503121561071857610717610950565b5b6000610726858286016106c2565b9250506020610737858286016106ec565b9150509250929050565b60006020828403121561075757610756610950565b5b6000610765848285016106d7565b91505092915050565b610777816108a1565b82525050565b610786816108b3565b82525050565b61079d610798826108b3565b6108f3565b82525050565b6107ac816108bf565b82525050565b6107bb816108e9565b82525050565b6107d26107cd826108e9565b610905565b82525050565b60006107e4828561078c565b6001820191506107f482846107c1565b6020820191508190509392505050565b6000602082019050610819600083018461076e565b92915050565b6000602082019050610834600083018461077d565b92915050565b600060208201905061084f60008301846107a3565b92915050565b600060208201905061086a60008301846107b2565b92915050565b600061087b826108e9565b9150610886836108e9565b92508261089657610895610921565b5b828204905092915050565b60006108ac826108c9565b9050919050565b60008115159050919050565b6000819050919050565b600073ffffffffffffffffffffffffffffffffffffffff82169050919050565b6000819050919050565b60006108fe8261090f565b9050919050565b6000819050919050565b600061091a82610955565b9050919050565b7f4e487b7100000000000000000000000000000000000000000000000000000000600052601260045260246000fd5b600080fd5b60008160f81b9050919050565b61096b816108b3565b811461097657600080fd5b50565b610982816108bf565b811461098d57600080fd5b50565b610999816108e9565b81146109a457600080fd5b5056fea2646970667358221220b027e221b8522341af331c437cfb9d68e305ce49c8009f82009c6601e291fd1464736f6c63430008070033",
					"opcodes": "PUSH1 0x80 PUSH1 0x40 MSTORE PUSH1 0x40 MLOAD PUSH2 0xAE8 CODESIZE SUB DUP1 PUSH2 0xAE8 DUP4 CODECOPY DUP2 DUP2 ADD PUSH1 0x40 MSTORE DUP2 ADD SWAP1 PUSH2 0x25 SWAP2 SWAP1 PUSH2 0xA9 JUMP JUMPDEST CALLER PUSH1 0x0 DUP1 PUSH2 0x100 EXP DUP2 SLOAD DUP2 PUSH20 0xFFFFFFFFFFFFFFFFFFFFFFFFFFFFFFFFFFFFFFFF MUL NOT AND SWAP1 DUP4 PUSH20 0xFFFFFFFFFFFFFFFFFFFFFFFFFFFFFFFFFFFFFFFF AND MUL OR SWAP1 SSTORE POP DUP1 PUSH1 0x2 DUP2 SWAP1 SSTORE POP CALLVALUE PUSH1 0x4 DUP2 SWAP1 SSTORE POP PUSH1 0x0 PUSH1 0x5 PUSH1 0x2 PUSH2 0x100 EXP DUP2 SLOAD DUP2 PUSH1 0xFF MUL NOT AND SWAP1 DUP4 ISZERO ISZERO MUL OR SWAP1 SSTORE POP POP PUSH2 0xFC JUMP JUMPDEST PUSH1 0x0 DUP2 MLOAD SWAP1 POP PUSH2 0xA3 DUP2 PUSH2 0xE5 JUMP JUMPDEST SWAP3 SWAP2 POP POP JUMP JUMPDEST PUSH1 0x0 PUSH1 0x20 DUP3 DUP5 SUB SLT ISZERO PUSH2 0xBF JUMPI PUSH2 0xBE PUSH2 0xE0 JUMP JUMPDEST JUMPDEST PUSH1 0x0 PUSH2 0xCD DUP5 DUP3 DUP6 ADD PUSH2 0x94 JUMP JUMPDEST SWAP2 POP POP SWAP3 SWAP2 POP POP JUMP JUMPDEST PUSH1 0x0 DUP2 SWAP1 POP SWAP2 SWAP1 POP JUMP JUMPDEST PUSH1 0x0 DUP1 REVERT JUMPDEST PUSH2 0xEE DUP2 PUSH2 0xD6 JUMP JUMPDEST DUP2 EQ PUSH2 0xF9 JUMPI PUSH1 0x0 DUP1 REVERT JUMPDEST POP JUMP JUMPDEST PUSH2 0x9DD DUP1 PUSH2 0x10B PUSH1 0x0 CODECOPY PUSH1 0x0 RETURN INVALID PUSH1 0x80 PUSH1 0x40 MSTORE PUSH1 0x4 CALLDATASIZE LT PUSH2 0x9C JUMPI PUSH1 0x0 CALLDATALOAD PUSH1 0xE0 SHR DUP1 PUSH4 0xB422DE9D GT PUSH2 0x64 JUMPI DUP1 PUSH4 0xB422DE9D EQ PUSH2 0x176 JUMPI DUP1 PUSH4 0xCF7C3708 EQ PUSH2 0x192 JUMPI DUP1 PUSH4 0xD24257C0 EQ PUSH2 0x1BB JUMPI DUP1 PUSH4 0xD30895E4 EQ PUSH2 0x1E6 JUMPI DUP1 PUSH4 0xD8B1F219 EQ PUSH2 0x211 JUMPI DUP1 PUSH4 0xEB13175D EQ PUSH2 0x23C JUMPI PUSH2 0x9C JUMP JUMPDEST DUP1 PUSH4 0xCE6E680 EQ PUSH2 0xA1 JUMPI DUP1 PUSH4 0x2C0F9AAA EQ PUSH2 0xCC JUMPI DUP1 PUSH4 0x51830227 EQ PUSH2 0xF5 JUMPI DUP1 PUSH4 0x59A5F12D EQ PUSH2 0x120 JUMPI DUP1 PUSH4 0x603F5088 EQ PUSH2 0x14B JUMPI JUMPDEST PUSH1 0x0 DUP1 REVERT JUMPDEST CALLVALUE DUP1 ISZERO PUSH2 0xAD JUMPI PUSH1 0x0 DUP1 REVERT JUMPDEST POP PUSH2 0xB6 PUSH2 0x267 JUMP JUMPDEST PUSH1 0x40 MLOAD PUSH2 0xC3 SWAP2 SWAP1 PUSH2 0x81F JUMP JUMPDEST PUSH1 0x40 MLOAD DUP1 SWAP2 SUB SWAP1 RETURN JUMPDEST CALLVALUE DUP1 ISZERO PUSH2 0xD8 JUMPI PUSH1 0x0 DUP1 REVERT JUMPDEST POP PUSH2 0xF3 PUSH1 0x4 DUP1 CALLDATASIZE SUB DUP2 ADD SWAP1 PUSH2 0xEE SWAP2 SWAP1 PUSH2 0x701 JUMP JUMPDEST PUSH2 0x27A JUMP JUMPDEST STOP JUMPDEST CALLVALUE DUP1 ISZERO PUSH2 0x101 JUMPI PUSH1 0x0 DUP1 REVERT JUMPDEST POP PUSH2 0x10A PUSH2 0x434 JUMP JUMPDEST PUSH1 0x40 MLOAD PUSH2 0x117 SWAP2 SWAP1 PUSH2 0x81F JUMP JUMPDEST PUSH1 0x40 MLOAD DUP1 SWAP2 SUB SWAP1 RETURN JUMPDEST CALLVALUE DUP1 ISZERO PUSH2 0x12C JUMPI PUSH1 0x0 DUP1 REVERT JUMPDEST POP PUSH2 0x135 PUSH2 0x447 JUMP JUMPDEST PUSH1 0x40 MLOAD PUSH2 0x142 SWAP2 SWAP1 PUSH2 0x804 JUMP JUMPDEST PUSH1 0x40 MLOAD DUP1 SWAP2 SUB SWAP1 RETURN JUMPDEST CALLVALUE DUP1 ISZERO PUSH2 0x157 JUMPI PUSH1 0x0 DUP1 REVERT JUMPDEST POP PUSH2 0x160 PUSH2 0x46D JUMP JUMPDEST PUSH1 0x40 MLOAD PUSH2 0x16D SWAP2 SWAP1 PUSH2 0x83A JUMP JUMPDEST PUSH1 0x40 MLOAD DUP1 SWAP2 SUB SWAP1 RETURN JUMPDEST PUSH2 0x190 PUSH1 0x4 DUP1 CALLDATASIZE SUB DUP2 ADD SWAP1 PUSH2 0x18B SWAP2 SWAP1 PUSH2 0x741 JUMP JUMPDEST PUSH2 0x473 JUMP JUMPDEST STOP JUMPDEST CALLVALUE DUP1 ISZERO PUSH2 0x19E JUMPI PUSH1 0x0 DUP1 REVERT JUMPDEST POP PUSH2 0x1B9 PUSH1 0x4 DUP1 CALLDATASIZE SUB DUP2 ADD SWAP1 PUSH2 0x1B4 SWAP2 SWAP1 PUSH2 0x701 JUMP JUMPDEST PUSH2 0x527 JUMP JUMPDEST STOP JUMPDEST CALLVALUE DUP1 ISZERO PUSH2 0x1C7 JUMPI PUSH1 0x0 DUP1 REVERT JUMPDEST POP PUSH2 0x1D0 PUSH2 0x67F JUMP JUMPDEST PUSH1 0x40 MLOAD PUSH2 0x1DD SWAP2 SWAP1 PUSH2 0x855 JUMP JUMPDEST PUSH1 0x40 MLOAD DUP1 SWAP2 SUB SWAP1 RETURN JUMPDEST CALLVALUE DUP1 ISZERO PUSH2 0x1F2 JUMPI PUSH1 0x0 DUP1 REVERT JUMPDEST POP PUSH2 0x1FB PUSH2 0x685 JUMP JUMPDEST PUSH1 0x40 MLOAD PUSH2 0x208 SWAP2 SWAP1 PUSH2 0x804 JUMP JUMPDEST PUSH1 0x40 MLOAD DUP1 SWAP2 SUB SWAP1 RETURN JUMPDEST CALLVALUE DUP1 ISZERO PUSH2 0x21D JUMPI PUSH1 0x0 DUP1 REVERT JUMPDEST POP PUSH2 0x226 PUSH2 0x6A9 JUMP JUMPDEST PUSH1 0x40 MLOAD PUSH2 0x233 SWAP2 SWAP1 PUSH2 0x81F JUMP JUMPDEST PUSH1 0x40 MLOAD DUP1 SWAP2 SUB SWAP1 RETURN JUMPDEST CALLVALUE DUP1 ISZERO PUSH2 0x248 JUMPI PUSH1 0x0 DUP1 REVERT JUMPDEST POP PUSH2 0x251 PUSH2 0x6BC JUMP JUMPDEST PUSH1 0x40 MLOAD PUSH2 0x25E SWAP2 SWAP1 PUSH2 0x83A JUMP JUMPDEST PUSH1 0x40 MLOAD DUP1 SWAP2 SUB SWAP1 RETURN JUMPDEST PUSH1 0x5 PUSH1 0x1 SWAP1 SLOAD SWAP1 PUSH2 0x100 EXP SWAP1 DIV PUSH1 0xFF AND DUP2 JUMP JUMPDEST PUSH1 0x0 PUSH20 0xFFFFFFFFFFFFFFFFFFFFFFFFFFFFFFFFFFFFFFFF AND PUSH1 0x1 PUSH1 0x0 SWAP1 SLOAD SWAP1 PUSH2 0x100 EXP SWAP1 DIV PUSH20 0xFFFFFFFFFFFFFFFFFFFFFFFFFFFFFFFFFFFFFFFF AND PUSH20 0xFFFFFFFFFFFFFFFFFFFFFFFFFFFFFFFFFFFFFFFF AND EQ ISZERO PUSH2 0x2D6 JUMPI PUSH1 0x0 DUP1 REVERT JUMPDEST PUSH1 0x5 PUSH1 0x2 SWAP1 SLOAD SWAP1 PUSH2 0x100 EXP SWAP1 DIV PUSH1 0xFF AND PUSH2 0x2EF JUMPI PUSH1 0x0 DUP1 REVERT JUMPDEST PUSH1 0x3 SLOAD DUP3 DUP3 PUSH1 0x40 MLOAD PUSH1 0x20 ADD PUSH2 0x305 SWAP3 SWAP2 SWAP1 PUSH2 0x7D8 JUMP JUMPDEST PUSH1 0x40 MLOAD PUSH1 0x20 DUP2 DUP4 SUB SUB DUP2 MSTORE SWAP1 PUSH1 0x40 MSTORE DUP1 MLOAD SWAP1 PUSH1 0x20 ADD KECCAK256 EQ PUSH2 0x325 JUMPI PUSH1 0x0 DUP1 REVERT JUMPDEST DUP2 PUSH1 0x5 PUSH1 0x1 PUSH2 0x100 EXP DUP2 SLOAD DUP2 PUSH1 0xFF MUL NOT AND SWAP1 DUP4 ISZERO ISZERO MUL OR SWAP1 SSTORE POP DUP2 ISZERO ISZERO PUSH1 0x5 PUSH1 0x1 SWAP1 SLOAD SWAP1 PUSH2 0x100 EXP SWAP1 DIV PUSH1 0xFF AND ISZERO ISZERO EQ ISZERO PUSH2 0x3C8 JUMPI PUSH1 0x1 PUSH1 0x0 SWAP1 SLOAD SWAP1 PUSH2 0x100 EXP SWAP1 DIV PUSH20 0xFFFFFFFFFFFFFFFFFFFFFFFFFFFFFFFFFFFFFFFF AND PUSH20 0xFFFFFFFFFFFFFFFFFFFFFFFFFFFFFFFFFFFFFFFF AND PUSH2 0x8FC SELFBALANCE SWAP1 DUP2 ISZERO MUL SWAP1 PUSH1 0x40 MLOAD PUSH1 0x0 PUSH1 0x40 MLOAD DUP1 DUP4 SUB DUP2 DUP6 DUP9 DUP9 CALL SWAP4 POP POP POP POP ISZERO DUP1 ISZERO PUSH2 0x3C2 JUMPI RETURNDATASIZE PUSH1 0x0 DUP1 RETURNDATACOPY RETURNDATASIZE PUSH1 0x0 REVERT JUMPDEST POP PUSH2 0x430 JUMP JUMPDEST PUSH1 0x0 DUP1 SLOAD SWAP1 PUSH2 0x100 EXP SWAP1 DIV PUSH20 0xFFFFFFFFFFFFFFFFFFFFFFFFFFFFFFFFFFFFFFFF AND PUSH20 0xFFFFFFFFFFFFFFFFFFFFFFFFFFFFFFFFFFFFFFFF AND PUSH2 0x8FC SELFBALANCE SWAP1 DUP2 ISZERO MUL SWAP1 PUSH1 0x40 MLOAD PUSH1 0x0 PUSH1 0x40 MLOAD DUP1 DUP4 SUB DUP2 DUP6 DUP9 DUP9 CALL SWAP4 POP POP POP POP ISZERO DUP1 ISZERO PUSH2 0x42E JUMPI RETURNDATASIZE PUSH1 0x0 DUP1 RETURNDATACOPY RETURNDATASIZE PUSH1 0x0 REVERT JUMPDEST POP JUMPDEST POP POP JUMP JUMPDEST PUSH1 0x5 PUSH1 0x2 SWAP1 SLOAD SWAP1 PUSH2 0x100 EXP SWAP1 DIV PUSH1 0xFF AND DUP2 JUMP JUMPDEST PUSH1 0x1 PUSH1 0x0 SWAP1 SLOAD SWAP1 PUSH2 0x100 EXP SWAP1 DIV PUSH20 0xFFFFFFFFFFFFFFFFFFFFFFFFFFFFFFFFFFFFFFFF AND DUP2 JUMP JUMPDEST PUSH1 0x3 SLOAD DUP2 JUMP JUMPDEST PUSH1 0x0 PUSH20 0xFFFFFFFFFFFFFFFFFFFFFFFFFFFFFFFFFFFFFFFF AND PUSH1 0x1 PUSH1 0x0 SWAP1 SLOAD SWAP1 PUSH2 0x100 EXP SWAP1 DIV PUSH20 0xFFFFFFFFFFFFFFFFFFFFFFFFFFFFFFFFFFFFFFFF AND PUSH20 0xFFFFFFFFFFFFFFFFFFFFFFFFFFFFFFFFFFFFFFFF AND EQ PUSH2 0x4CE JUMPI PUSH1 0x0 DUP1 REVERT JUMPDEST PUSH1 0x4 SLOAD CALLVALUE EQ PUSH2 0x4DC JUMPI PUSH1 0x0 DUP1 REVERT JUMPDEST CALLER PUSH1 0x1 PUSH1 0x0 PUSH2 0x100 EXP DUP2 SLOAD DUP2 PUSH20 0xFFFFFFFFFFFFFFFFFFFFFFFFFFFFFFFFFFFFFFFF MUL NOT AND SWAP1 DUP4 PUSH20 0xFFFFFFFFFFFFFFFFFFFFFFFFFFFFFFFFFFFFFFFF AND MUL OR SWAP1 SSTORE POP DUP1 PUSH1 0x3 DUP2 SWAP1 SSTORE POP POP JUMP JUMPDEST PUSH1 0x0 PUSH20 0xFFFFFFFFFFFFFFFFFFFFFFFFFFFFFFFFFFFFFFFF AND PUSH1 0x1 PUSH1 0x0 SWAP1 SLOAD SWAP1 PUSH2 0x100 EXP SWAP1 DIV PUSH20 0xFFFFFFFFFFFFFFFFFFFFFFFFFFFFFFFFFFFFFFFF AND PUSH20 0xFFFFFFFFFFFFFFFFFFFFFFFFFFFFFFFFFFFFFFFF AND EQ ISZERO PUSH2 0x583 JUMPI PUSH1 0x0 DUP1 REVERT JUMPDEST PUSH1 0x5 PUSH1 0x2 SWAP1 SLOAD SWAP1 PUSH2 0x100 EXP SWAP1 DIV PUSH1 0xFF AND ISZERO PUSH2 0x59D JUMPI PUSH1 0x0 DUP1 REVERT JUMPDEST PUSH1 0x2 SLOAD DUP3 DUP3 PUSH1 0x40 MLOAD PUSH1 0x20 ADD PUSH2 0x5B3 SWAP3 SWAP2 SWAP1 PUSH2 0x7D8 JUMP JUMPDEST PUSH1 0x40 MLOAD PUSH1 0x20 DUP2 DUP4 SUB SUB DUP2 MSTORE SWAP1 PUSH1 0x40 MSTORE DUP1 MLOAD SWAP1 PUSH1 0x20 ADD KECCAK256 EQ PUSH2 0x5D3 JUMPI PUSH1 0x0 DUP1 REVERT JUMPDEST DUP2 PUSH1 0x5 PUSH1 0x0 PUSH2 0x100 EXP DUP2 SLOAD DUP2 PUSH1 0xFF MUL NOT AND SWAP1 DUP4 ISZERO ISZERO MUL OR SWAP1 SSTORE POP PUSH1 0x1 PUSH1 0x5 PUSH1 0x2 PUSH2 0x100 EXP DUP2 SLOAD DUP2 PUSH1 0xFF MUL NOT AND SWAP1 DUP4 ISZERO ISZERO MUL OR SWAP1 SSTORE POP PUSH1 0x0 DUP1 SLOAD SWAP1 PUSH2 0x100 EXP SWAP1 DIV PUSH20 0xFFFFFFFFFFFFFFFFFFFFFFFFFFFFFFFFFFFFFFFF AND PUSH20 0xFFFFFFFFFFFFFFFFFFFFFFFFFFFFFFFFFFFFFFFF AND PUSH2 0x8FC PUSH1 0x4 SELFBALANCE PUSH2 0x64F SWAP2 SWAP1 PUSH2 0x870 JUMP JUMPDEST SWAP1 DUP2 ISZERO MUL SWAP1 PUSH1 0x40 MLOAD PUSH1 0x0 PUSH1 0x40 MLOAD DUP1 DUP4 SUB DUP2 DUP6 DUP9 DUP9 CALL SWAP4 POP POP POP POP ISZERO DUP1 ISZERO PUSH2 0x67A JUMPI RETURNDATASIZE PUSH1 0x0 DUP1 RETURNDATACOPY RETURNDATASIZE PUSH1 0x0 REVERT JUMPDEST POP POP POP JUMP JUMPDEST PUSH1 0x4 SLOAD DUP2 JUMP JUMPDEST PUSH1 0x0 DUP1 SLOAD SWAP1 PUSH2 0x100 EXP SWAP1 DIV PUSH20 0xFFFFFFFFFFFFFFFFFFFFFFFFFFFFFFFFFFFFFFFF AND DUP2 JUMP JUMPDEST PUSH1 0x5 PUSH1 0x0 SWAP1 SLOAD SWAP1 PUSH2 0x100 EXP SWAP1 DIV PUSH1 0xFF AND DUP2 JUMP JUMPDEST PUSH1 0x2 SLOAD DUP2 JUMP JUMPDEST PUSH1 0x0 DUP2 CALLDATALOAD SWAP1 POP PUSH2 0x6D1 DUP2 PUSH2 0x962 JUMP JUMPDEST SWAP3 SWAP2 POP POP JUMP JUMPDEST PUSH1 0x0 DUP2 CALLDATALOAD SWAP1 POP PUSH2 0x6E6 DUP2 PUSH2 0x979 JUMP JUMPDEST SWAP3 SWAP2 POP POP JUMP JUMPDEST PUSH1 0x0 DUP2 CALLDATALOAD SWAP1 POP PUSH2 0x6FB DUP2 PUSH2 0x990 JUMP JUMPDEST SWAP3 SWAP2 POP POP JUMP JUMPDEST PUSH1 0x0 DUP1 PUSH1 0x40 DUP4 DUP6 SUB SLT ISZERO PUSH2 0x718 JUMPI PUSH2 0x717 PUSH2 0x950 JUMP JUMPDEST JUMPDEST PUSH1 0x0 PUSH2 0x726 DUP6 DUP3 DUP7 ADD PUSH2 0x6C2 JUMP JUMPDEST SWAP3 POP POP PUSH1 0x20 PUSH2 0x737 DUP6 DUP3 DUP7 ADD PUSH2 0x6EC JUMP JUMPDEST SWAP2 POP POP SWAP3 POP SWAP3 SWAP1 POP JUMP JUMPDEST PUSH1 0x0 PUSH1 0x20 DUP3 DUP5 SUB SLT ISZERO PUSH2 0x757 JUMPI PUSH2 0x756 PUSH2 0x950 JUMP JUMPDEST JUMPDEST PUSH1 0x0 PUSH2 0x765 DUP5 DUP3 DUP6 ADD PUSH2 0x6D7 JUMP JUMPDEST SWAP2 POP POP SWAP3 SWAP2 POP POP JUMP JUMPDEST PUSH2 0x777 DUP2 PUSH2 0x8A1 JUMP JUMPDEST DUP3 MSTORE POP POP JUMP JUMPDEST PUSH2 0x786 DUP2 PUSH2 0x8B3 JUMP JUMPDEST DUP3 MSTORE POP POP JUMP JUMPDEST PUSH2 0x79D PUSH2 0x798 DUP3 PUSH2 0x8B3 JUMP JUMPDEST PUSH2 0x8F3 JUMP JUMPDEST DUP3 MSTORE POP POP JUMP JUMPDEST PUSH2 0x7AC DUP2 PUSH2 0x8BF JUMP JUMPDEST DUP3 MSTORE POP POP JUMP JUMPDEST PUSH2 0x7BB DUP2 PUSH2 0x8E9 JUMP JUMPDEST DUP3 MSTORE POP POP JUMP JUMPDEST PUSH2 0x7D2 PUSH2 0x7CD DUP3 PUSH2 0x8E9 JUMP JUMPDEST PUSH2 0x905 JUMP JUMPDEST DUP3 MSTORE POP POP JUMP JUMPDEST PUSH1 0x0 PUSH2 0x7E4 DUP3 DUP6 PUSH2 0x78C JUMP JUMPDEST PUSH1 0x1 DUP3 ADD SWAP2 POP PUSH2 0x7F4 DUP3 DUP5 PUSH2 0x7C1 JUMP JUMPDEST PUSH1 0x20 DUP3 ADD SWAP2 POP DUP2 SWAP1 POP SWAP4 SWAP3 POP POP POP JUMP JUMPDEST PUSH1 0x0 PUSH1 0x20 DUP3 ADD SWAP1 POP PUSH2 0x819 PUSH1 0x0 DUP4 ADD DUP5 PUSH2 0x76E JUMP JUMPDEST SWAP3 SWAP2 POP POP JUMP JUMPDEST PUSH1 0x0 PUSH1 0x20 DUP3 ADD SWAP1 POP PUSH2 0x834 PUSH1 0x0 DUP4 ADD DUP5 PUSH2 0x77D JUMP JUMPDEST SWAP3 SWAP2 POP POP JUMP JUMPDEST PUSH1 0x0 PUSH1 0x20 DUP3 ADD SWAP1 POP PUSH2 0x84F PUSH1 0x0 DUP4 ADD DUP5 PUSH2 0x7A3 JUMP JUMPDEST SWAP3 SWAP2 POP POP JUMP JUMPDEST PUSH1 0x0 PUSH1 0x20 DUP3 ADD SWAP1 POP PUSH2 0x86A PUSH1 0x0 DUP4 ADD DUP5 PUSH2 0x7B2 JUMP JUMPDEST SWAP3 SWAP2 POP POP JUMP JUMPDEST PUSH1 0x0 PUSH2 0x87B DUP3 PUSH2 0x8E9 JUMP JUMPDEST SWAP2 POP PUSH2 0x886 DUP4 PUSH2 0x8E9 JUMP JUMPDEST SWAP3 POP DUP3 PUSH2 0x896 JUMPI PUSH2 0x895 PUSH2 0x921 JUMP JUMPDEST JUMPDEST DUP3 DUP3 DIV SWAP1 POP SWAP3 SWAP2 POP POP JUMP JUMPDEST PUSH1 0x0 PUSH2 0x8AC DUP3 PUSH2 0x8C9 JUMP JUMPDEST SWAP1 POP SWAP2 SWAP1 POP JUMP JUMPDEST PUSH1 0x0 DUP2 ISZERO ISZERO SWAP1 POP SWAP2 SWAP1 POP JUMP JUMPDEST PUSH1 0x0 DUP2 SWAP1 POP SWAP2 SWAP1 POP JUMP JUMPDEST PUSH1 0x0 PUSH20 0xFFFFFFFFFFFFFFFFFFFFFFFFFFFFFFFFFFFFFFFF DUP3 AND SWAP1 POP SWAP2 SWAP1 POP JUMP JUMPDEST PUSH1 0x0 DUP2 SWAP1 POP SWAP2 SWAP1 POP JUMP JUMPDEST PUSH1 0x0 PUSH2 0x8FE DUP3 PUSH2 0x90F JUMP JUMPDEST SWAP1 POP SWAP2 SWAP1 POP JUMP JUMPDEST PUSH1 0x0 DUP2 SWAP1 POP SWAP2 SWAP1 POP JUMP JUMPDEST PUSH1 0x0 PUSH2 0x91A DUP3 PUSH2 0x955 JUMP JUMPDEST SWAP1 POP SWAP2 SWAP1 POP JUMP JUMPDEST PUSH32 0x4E487B7100000000000000000000000000000000000000000000000000000000 PUSH1 0x0 MSTORE PUSH1 0x12 PUSH1 0x4 MSTORE PUSH1 0x24 PUSH1 0x0 REVERT JUMPDEST PUSH1 0x0 DUP1 REVERT JUMPDEST PUSH1 0x0 DUP2 PUSH1 0xF8 SHL SWAP1 POP SWAP2 SWAP1 POP JUMP JUMPDEST PUSH2 0x96B DUP2 PUSH2 0x8B3 JUMP JUMPDEST DUP2 EQ PUSH2 0x976 JUMPI PUSH1 0x0 DUP1 REVERT JUMPDEST POP JUMP JUMPDEST PUSH2 0x982 DUP2 PUSH2 0x8BF JUMP JUMPDEST DUP2 EQ PUSH2 0x98D JUMPI PUSH1 0x0 DUP1 REVERT JUMPDEST POP JUMP JUMPDEST PUSH2 0x999 DUP2 PUSH2 0x8E9 JUMP JUMPDEST DUP2 EQ PUSH2 0x9A4 JUMPI PUSH1 0x0 DUP1 REVERT JUMPDEST POP JUMP INVALID LOG2 PUSH5 0x6970667358 0x22 SLT KECCAK256 0xB0 0x27 0xE2 0x21 0xB8 MSTORE 0x23 COINBASE 0xAF CALLER SHR NUMBER PUSH29 0xFB9D68E305CE49C8009F82009C6601E291FD1464736F6C634300080700 CALLER "
				},
				"gasEstimates": {
					"creation": {
						"codeDepositCost": "505000",
						"executionCost": "infinite",
						"totalCost": "infinite"
					},
					"external": {
						"Reveal1(bool,uint256)": "infinite",
						"Reveal2(bool,uint256)": "infinite",
						"TakeBet(bytes32)": "51055",
						"betAmount()": "2473",
						"player1()": "2577",
						"player1Choice()": "2559",
						"player1Commitment()": "2539",
						"player2()": "2581",
						"player2Choice()": "2522",
						"player2Commitment()": "2518",
						"revealed()": "2566"
					}
				},
				"methodIdentifiers": {
					"Reveal1(bool,uint256)": "cf7c3708",
					"Reveal2(bool,uint256)": "2c0f9aaa",
					"TakeBet(bytes32)": "b422de9d",
					"betAmount()": "d24257c0",
					"player1()": "d30895e4",
					"player1Choice()": "d8b1f219",
					"player1Commitment()": "eb13175d",
					"player2()": "59a5f12d",
					"player2Choice()": "0ce6e680",
					"player2Commitment()": "603f5088",
					"revealed()": "51830227"
				}
			},
			"storageLayout": {
				"storage": [
					{
						"astId": 3,
						"contract": "contracts/Coin2.sol:CoinFlip",
						"label": "player1",
						"offset": 0,
						"slot": "0",
						"type": "t_address_payable"
					},
					{
						"astId": 5,
						"contract": "contracts/Coin2.sol:CoinFlip",
						"label": "player2",
						"offset": 0,
						"slot": "1",
						"type": "t_address_payable"
					},
					{
						"astId": 7,
						"contract": "contracts/Coin2.sol:CoinFlip",
						"label": "player1Commitment",
						"offset": 0,
						"slot": "2",
						"type": "t_bytes32"
					},
					{
						"astId": 9,
						"contract": "contracts/Coin2.sol:CoinFlip",
						"label": "player2Commitment",
						"offset": 0,
						"slot": "3",
						"type": "t_bytes32"
					},
					{
						"astId": 11,
						"contract": "contracts/Coin2.sol:CoinFlip",
						"label": "betAmount",
						"offset": 0,
						"slot": "4",
						"type": "t_uint256"
					},
					{
						"astId": 13,
						"contract": "contracts/Coin2.sol:CoinFlip",
						"label": "player1Choice",
						"offset": 0,
						"slot": "5",
						"type": "t_bool"
					},
					{
						"astId": 15,
						"contract": "contracts/Coin2.sol:CoinFlip",
						"label": "player2Choice",
						"offset": 1,
						"slot": "5",
						"type": "t_bool"
					},
					{
						"astId": 17,
						"contract": "contracts/Coin2.sol:CoinFlip",
						"label": "revealed",
						"offset": 2,
						"slot": "5",
						"type": "t_bool"
					}
				],
				"types": {
					"t_address_payable": {
						"encoding": "inplace",
						"label": "address payable",
						"numberOfBytes": "20"
					},
					"t_bool": {
						"encoding": "inplace",
						"label": "bool",
						"numberOfBytes": "1"
					},
					"t_bytes32": {
						"encoding": "inplace",
						"label": "bytes32",
						"numberOfBytes": "32"
					},
					"t_uint256": {
						"encoding": "inplace",
						"label": "uint256",
						"numberOfBytes": "32"
					}
				}
			},
			"userdoc": {
				"kind": "user",
				"methods": {},
				"version": 1
			}
		}
	}
}