{
	"contracts/Coin.sol": {
		"CoinFlip": {
			"abi": [
				{
					"inputs": [
						{
							"internalType": "bool",
							"name": "choice",
							"type": "bool"
						}
					],
					"stateMutability": "payable",
					"type": "constructor"
				},
				{
					"inputs": [
						{
							"internalType": "bool",
							"name": "choice",
							"type": "bool"
						}
					],
					"name": "TakeBet",
					"outputs": [],
					"stateMutability": "payable",
					"type": "function"
				},
				{
					"inputs": [],
					"name": "betAmount",
					"outputs": [
						{
							"internalType": "uint256",
							"name": "",
							"type": "uint256"
						}
					],
					"stateMutability": "view",
					"type": "function"
				},
				{
					"inputs": [],
					"name": "player1",
					"outputs": [
						{
							"internalType": "address payable",
							"name": "",
							"type": "address"
						}
					],
					"stateMutability": "view",
					"type": "function"
				}
			],
			"devdoc": {
				"kind": "dev",
				"methods": {},
				"version": 1
			},
			"evm": {
				"assembly": "    /* \"contracts/Coin.sol\":62:628  contract CoinFlip {\r... */\n  mstore(0x40, 0x80)\n    /* \"contracts/Coin.sol\":191:334  constructor(bool choice) payable {\r... */\n  mload(0x40)\n  sub(codesize, bytecodeSize)\n  dup1\n  bytecodeSize\n  dup4\n  codecopy\n  dup2\n  dup2\n  add\n  0x40\n  mstore\n  dup2\n  add\n  swap1\n  tag_1\n  swap2\n  swap1\n  tag_2\n  jump\t// in\ntag_1:\n    /* \"contracts/Coin.sol\":253:263  msg.sender */\n  caller\n    /* \"contracts/Coin.sol\":235:242  player1 */\n  0x00\n  dup1\n    /* \"contracts/Coin.sol\":235:264  player1 = payable(msg.sender) */\n  0x0100\n  exp\n  dup2\n  sload\n  dup2\n  0xffffffffffffffffffffffffffffffffffffffff\n  mul\n  not\n  and\n  swap1\n  dup4\n  0xffffffffffffffffffffffffffffffffffffffff\n  and\n  mul\n  or\n  swap1\n  sstore\n  pop\n    /* \"contracts/Coin.sol\":288:294  choice */\n  dup1\n    /* \"contracts/Coin.sol\":275:285  player1bit */\n  0x00\n  0x14\n    /* \"contracts/Coin.sol\":275:294  player1bit = choice */\n  0x0100\n  exp\n  dup2\n  sload\n  dup2\n  0xff\n  mul\n  not\n  and\n  swap1\n  dup4\n  iszero\n  iszero\n  mul\n  or\n  swap1\n  sstore\n  pop\n    /* \"contracts/Coin.sol\":317:326  msg.value */\n  callvalue\n    /* \"contracts/Coin.sol\":305:314  betAmount */\n  0x01\n    /* \"contracts/Coin.sol\":305:326  betAmount = msg.value */\n  dup2\n  swap1\n  sstore\n  pop\n    /* \"contracts/Coin.sol\":191:334  constructor(bool choice) payable {\r... */\n  pop\n    /* \"contracts/Coin.sol\":62:628  contract CoinFlip {\r... */\n  jump(tag_5)\n    /* \"#utility.yul\":7:144   */\ntag_7:\n    /* \"#utility.yul\":61:66   */\n  0x00\n    /* \"#utility.yul\":92:98   */\n  dup2\n    /* \"#utility.yul\":86:99   */\n  mload\n    /* \"#utility.yul\":77:99   */\n  swap1\n  pop\n    /* \"#utility.yul\":108:138   */\n  tag_9\n    /* \"#utility.yul\":132:137   */\n  dup2\n    /* \"#utility.yul\":108:138   */\n  tag_10\n  jump\t// in\ntag_9:\n    /* \"#utility.yul\":7:144   */\n  swap3\n  swap2\n  pop\n  pop\n  jump\t// out\n    /* \"#utility.yul\":150:495   */\ntag_2:\n    /* \"#utility.yul\":217:223   */\n  0x00\n    /* \"#utility.yul\":266:268   */\n  0x20\n    /* \"#utility.yul\":254:263   */\n  dup3\n    /* \"#utility.yul\":245:252   */\n  dup5\n    /* \"#utility.yul\":241:264   */\n  sub\n    /* \"#utility.yul\":237:269   */\n  slt\n    /* \"#utility.yul\":234:353   */\n  iszero\n  tag_12\n  jumpi\n    /* \"#utility.yul\":272:351   */\n  tag_13\n  tag_14\n  jump\t// in\ntag_13:\n    /* \"#utility.yul\":234:353   */\ntag_12:\n    /* \"#utility.yul\":392:393   */\n  0x00\n    /* \"#utility.yul\":417:478   */\n  tag_15\n    /* \"#utility.yul\":470:477   */\n  dup5\n    /* \"#utility.yul\":461:467   */\n  dup3\n    /* \"#utility.yul\":450:459   */\n  dup6\n    /* \"#utility.yul\":446:468   */\n  add\n    /* \"#utility.yul\":417:478   */\n  tag_7\n  jump\t// in\ntag_15:\n    /* \"#utility.yul\":407:478   */\n  swap2\n  pop\n    /* \"#utility.yul\":363:488   */\n  pop\n    /* \"#utility.yul\":150:495   */\n  swap3\n  swap2\n  pop\n  pop\n  jump\t// out\n    /* \"#utility.yul\":582:672   */\ntag_18:\n    /* \"#utility.yul\":616:623   */\n  0x00\n    /* \"#utility.yul\":659:664   */\n  dup2\n    /* \"#utility.yul\":652:665   */\n  iszero\n    /* \"#utility.yul\":645:666   */\n  iszero\n    /* \"#utility.yul\":634:666   */\n  swap1\n  pop\n    /* \"#utility.yul\":582:672   */\n  swap2\n  swap1\n  pop\n  jump\t// out\n    /* \"#utility.yul\":801:918   */\ntag_14:\n    /* \"#utility.yul\":910:911   */\n  0x00\n    /* \"#utility.yul\":907:908   */\n  dup1\n    /* \"#utility.yul\":900:912   */\n  revert\n    /* \"#utility.yul\":924:1040   */\ntag_10:\n    /* \"#utility.yul\":994:1015   */\n  tag_24\n    /* \"#utility.yul\":1009:1014   */\n  dup2\n    /* \"#utility.yul\":994:1015   */\n  tag_18\n  jump\t// in\ntag_24:\n    /* \"#utility.yul\":987:992   */\n  dup2\n    /* \"#utility.yul\":984:1016   */\n  eq\n    /* \"#utility.yul\":974:1034   */\n  tag_25\n  jumpi\n    /* \"#utility.yul\":1030:1031   */\n  0x00\n    /* \"#utility.yul\":1027:1028   */\n  dup1\n    /* \"#utility.yul\":1020:1032   */\n  revert\n    /* \"#utility.yul\":974:1034   */\ntag_25:\n    /* \"#utility.yul\":924:1040   */\n  pop\n  jump\t// out\n    /* \"contracts/Coin.sol\":62:628  contract CoinFlip {\r... */\ntag_5:\n  dataSize(sub_0)\n  dup1\n  dataOffset(sub_0)\n  0x00\n  codecopy\n  0x00\n  return\nstop\n\nsub_0: assembly {\n        /* \"contracts/Coin.sol\":62:628  contract CoinFlip {\r... */\n      mstore(0x40, 0x80)\n      jumpi(tag_1, lt(calldatasize, 0x04))\n      shr(0xe0, calldataload(0x00))\n      dup1\n      0xd24257c0\n      eq\n      tag_2\n      jumpi\n      dup1\n      0xd30895e4\n      eq\n      tag_3\n      jumpi\n      dup1\n      0xde32e357\n      eq\n      tag_4\n      jumpi\n    tag_1:\n      0x00\n      dup1\n      revert\n        /* \"contracts/Coin.sol\":156:180  uint256 public betAmount */\n    tag_2:\n      callvalue\n      dup1\n      iszero\n      tag_5\n      jumpi\n      0x00\n      dup1\n      revert\n    tag_5:\n      pop\n      tag_6\n      tag_7\n      jump\t// in\n    tag_6:\n      mload(0x40)\n      tag_8\n      swap2\n      swap1\n      tag_9\n      jump\t// in\n    tag_8:\n      mload(0x40)\n      dup1\n      swap2\n      sub\n      swap1\n      return\n        /* \"contracts/Coin.sol\":87:117  address payable public player1 */\n    tag_3:\n      callvalue\n      dup1\n      iszero\n      tag_10\n      jumpi\n      0x00\n      dup1\n      revert\n    tag_10:\n      pop\n      tag_11\n      tag_12\n      jump\t// in\n    tag_11:\n      mload(0x40)\n      tag_13\n      swap2\n      swap1\n      tag_14\n      jump\t// in\n    tag_13:\n      mload(0x40)\n      dup1\n      swap2\n      sub\n      swap1\n      return\n        /* \"contracts/Coin.sol\":342:625  function TakeBet(bool choice) public payable {\r... */\n    tag_4:\n      tag_15\n      0x04\n      dup1\n      calldatasize\n      sub\n      dup2\n      add\n      swap1\n      tag_16\n      swap2\n      swap1\n      tag_17\n      jump\t// in\n    tag_16:\n      tag_18\n      jump\t// in\n    tag_15:\n      stop\n        /* \"contracts/Coin.sol\":156:180  uint256 public betAmount */\n    tag_7:\n      sload(0x01)\n      dup2\n      jump\t// out\n        /* \"contracts/Coin.sol\":87:117  address payable public player1 */\n    tag_12:\n      0x00\n      dup1\n      sload\n      swap1\n      0x0100\n      exp\n      swap1\n      div\n      0xffffffffffffffffffffffffffffffffffffffff\n      and\n      dup2\n      jump\t// out\n        /* \"contracts/Coin.sol\":342:625  function TakeBet(bool choice) public payable {\r... */\n    tag_18:\n        /* \"contracts/Coin.sol\":419:428  betAmount */\n      sload(0x01)\n        /* \"contracts/Coin.sol\":406:415  msg.value */\n      callvalue\n        /* \"contracts/Coin.sol\":406:428  msg.value == betAmount */\n      eq\n        /* \"contracts/Coin.sol\":398:429  require(msg.value == betAmount) */\n      tag_20\n      jumpi\n      0x00\n      dup1\n      revert\n    tag_20:\n        /* \"contracts/Coin.sol\":460:466  choice */\n      dup1\n        /* \"contracts/Coin.sol\":446:466  player1bit == choice */\n      iszero\n      iszero\n        /* \"contracts/Coin.sol\":446:456  player1bit */\n      0x00\n      0x14\n      swap1\n      sload\n      swap1\n      0x0100\n      exp\n      swap1\n      div\n      0xff\n      and\n        /* \"contracts/Coin.sol\":446:466  player1bit == choice */\n      iszero\n      iszero\n      eq\n        /* \"contracts/Coin.sol\":442:618  if (player1bit == choice) {\r... */\n      iszero\n      tag_21\n      jumpi\n        /* \"contracts/Coin.sol\":491:501  msg.sender */\n      caller\n        /* \"contracts/Coin.sol\":483:511  payable(msg.sender).transfer */\n      0xffffffffffffffffffffffffffffffffffffffff\n      and\n        /* \"contracts/Coin.sol\":483:534  payable(msg.sender).transfer(address(this).balance) */\n      0x08fc\n        /* \"contracts/Coin.sol\":512:533  address(this).balance */\n      selfbalance\n        /* \"contracts/Coin.sol\":483:534  payable(msg.sender).transfer(address(this).balance) */\n      swap1\n      dup2\n      iszero\n      mul\n      swap1\n      mload(0x40)\n      0x00\n      mload(0x40)\n      dup1\n      dup4\n      sub\n      dup2\n      dup6\n      dup9\n      dup9\n      call\n      swap4\n      pop\n      pop\n      pop\n      pop\n      iszero\n      dup1\n      iszero\n      tag_23\n      jumpi\n      returndatasize\n      0x00\n      dup1\n      returndatacopy\n      revert(0x00, returndatasize)\n    tag_23:\n      pop\n        /* \"contracts/Coin.sol\":442:618  if (player1bit == choice) {\r... */\n      jump(tag_24)\n    tag_21:\n        /* \"contracts/Coin.sol\":567:574  player1 */\n      0x00\n      dup1\n      sload\n      swap1\n      0x0100\n      exp\n      swap1\n      div\n      0xffffffffffffffffffffffffffffffffffffffff\n      and\n        /* \"contracts/Coin.sol\":567:583  player1.transfer */\n      0xffffffffffffffffffffffffffffffffffffffff\n      and\n        /* \"contracts/Coin.sol\":567:606  player1.transfer(address(this).balance) */\n      0x08fc\n        /* \"contracts/Coin.sol\":584:605  address(this).balance */\n      selfbalance\n        /* \"contracts/Coin.sol\":567:606  player1.transfer(address(this).balance) */\n      swap1\n      dup2\n      iszero\n      mul\n      swap1\n      mload(0x40)\n      0x00\n      mload(0x40)\n      dup1\n      dup4\n      sub\n      dup2\n      dup6\n      dup9\n      dup9\n      call\n      swap4\n      pop\n      pop\n      pop\n      pop\n      iszero\n      dup1\n      iszero\n      tag_26\n      jumpi\n      returndatasize\n      0x00\n      dup1\n      returndatacopy\n      revert(0x00, returndatasize)\n    tag_26:\n      pop\n        /* \"contracts/Coin.sol\":442:618  if (player1bit == choice) {\r... */\n    tag_24:\n        /* \"contracts/Coin.sol\":342:625  function TakeBet(bool choice) public payable {\r... */\n      pop\n      jump\t// out\n        /* \"#utility.yul\":7:140   */\n    tag_28:\n        /* \"#utility.yul\":50:55   */\n      0x00\n        /* \"#utility.yul\":88:94   */\n      dup2\n        /* \"#utility.yul\":75:95   */\n      calldataload\n        /* \"#utility.yul\":66:95   */\n      swap1\n      pop\n        /* \"#utility.yul\":104:134   */\n      tag_30\n        /* \"#utility.yul\":128:133   */\n      dup2\n        /* \"#utility.yul\":104:134   */\n      tag_31\n      jump\t// in\n    tag_30:\n        /* \"#utility.yul\":7:140   */\n      swap3\n      swap2\n      pop\n      pop\n      jump\t// out\n        /* \"#utility.yul\":146:469   */\n    tag_17:\n        /* \"#utility.yul\":202:208   */\n      0x00\n        /* \"#utility.yul\":251:253   */\n      0x20\n        /* \"#utility.yul\":239:248   */\n      dup3\n        /* \"#utility.yul\":230:237   */\n      dup5\n        /* \"#utility.yul\":226:249   */\n      sub\n        /* \"#utility.yul\":222:254   */\n      slt\n        /* \"#utility.yul\":219:338   */\n      iszero\n      tag_33\n      jumpi\n        /* \"#utility.yul\":257:336   */\n      tag_34\n      tag_35\n      jump\t// in\n    tag_34:\n        /* \"#utility.yul\":219:338   */\n    tag_33:\n        /* \"#utility.yul\":377:378   */\n      0x00\n        /* \"#utility.yul\":402:452   */\n      tag_36\n        /* \"#utility.yul\":444:451   */\n      dup5\n        /* \"#utility.yul\":435:441   */\n      dup3\n        /* \"#utility.yul\":424:433   */\n      dup6\n        /* \"#utility.yul\":420:442   */\n      add\n        /* \"#utility.yul\":402:452   */\n      tag_28\n      jump\t// in\n    tag_36:\n        /* \"#utility.yul\":392:452   */\n      swap2\n      pop\n        /* \"#utility.yul\":348:462   */\n      pop\n        /* \"#utility.yul\":146:469   */\n      swap3\n      swap2\n      pop\n      pop\n      jump\t// out\n        /* \"#utility.yul\":475:617   */\n    tag_37:\n        /* \"#utility.yul\":578:610   */\n      tag_39\n        /* \"#utility.yul\":604:609   */\n      dup2\n        /* \"#utility.yul\":578:610   */\n      tag_40\n      jump\t// in\n    tag_39:\n        /* \"#utility.yul\":573:576   */\n      dup3\n        /* \"#utility.yul\":566:611   */\n      mstore\n        /* \"#utility.yul\":475:617   */\n      pop\n      pop\n      jump\t// out\n        /* \"#utility.yul\":623:741   */\n    tag_41:\n        /* \"#utility.yul\":710:734   */\n      tag_43\n        /* \"#utility.yul\":728:733   */\n      dup2\n        /* \"#utility.yul\":710:734   */\n      tag_44\n      jump\t// in\n    tag_43:\n        /* \"#utility.yul\":705:708   */\n      dup3\n        /* \"#utility.yul\":698:735   */\n      mstore\n        /* \"#utility.yul\":623:741   */\n      pop\n      pop\n      jump\t// out\n        /* \"#utility.yul\":747:1001   */\n    tag_14:\n        /* \"#utility.yul\":856:860   */\n      0x00\n        /* \"#utility.yul\":894:896   */\n      0x20\n        /* \"#utility.yul\":883:892   */\n      dup3\n        /* \"#utility.yul\":879:897   */\n      add\n        /* \"#utility.yul\":871:897   */\n      swap1\n      pop\n        /* \"#utility.yul\":907:994   */\n      tag_46\n        /* \"#utility.yul\":991:992   */\n      0x00\n        /* \"#utility.yul\":980:989   */\n      dup4\n        /* \"#utility.yul\":976:993   */\n      add\n        /* \"#utility.yul\":967:973   */\n      dup5\n        /* \"#utility.yul\":907:994   */\n      tag_37\n      jump\t// in\n    tag_46:\n        /* \"#utility.yul\":747:1001   */\n      swap3\n      swap2\n      pop\n      pop\n      jump\t// out\n        /* \"#utility.yul\":1007:1229   */\n    tag_9:\n        /* \"#utility.yul\":1100:1104   */\n      0x00\n        /* \"#utility.yul\":1138:1140   */\n      0x20\n        /* \"#utility.yul\":1127:1136   */\n      dup3\n        /* \"#utility.yul\":1123:1141   */\n      add\n        /* \"#utility.yul\":1115:1141   */\n      swap1\n      pop\n        /* \"#utility.yul\":1151:1222   */\n      tag_48\n        /* \"#utility.yul\":1219:1220   */\n      0x00\n        /* \"#utility.yul\":1208:1217   */\n      dup4\n        /* \"#utility.yul\":1204:1221   */\n      add\n        /* \"#utility.yul\":1195:1201   */\n      dup5\n        /* \"#utility.yul\":1151:1222   */\n      tag_41\n      jump\t// in\n    tag_48:\n        /* \"#utility.yul\":1007:1229   */\n      swap3\n      swap2\n      pop\n      pop\n      jump\t// out\n        /* \"#utility.yul\":1316:1420   */\n    tag_40:\n        /* \"#utility.yul\":1361:1368   */\n      0x00\n        /* \"#utility.yul\":1390:1414   */\n      tag_52\n        /* \"#utility.yul\":1408:1413   */\n      dup3\n        /* \"#utility.yul\":1390:1414   */\n      tag_53\n      jump\t// in\n    tag_52:\n        /* \"#utility.yul\":1379:1414   */\n      swap1\n      pop\n        /* \"#utility.yul\":1316:1420   */\n      swap2\n      swap1\n      pop\n      jump\t// out\n        /* \"#utility.yul\":1426:1516   */\n    tag_54:\n        /* \"#utility.yul\":1460:1467   */\n      0x00\n        /* \"#utility.yul\":1503:1508   */\n      dup2\n        /* \"#utility.yul\":1496:1509   */\n      iszero\n        /* \"#utility.yul\":1489:1510   */\n      iszero\n        /* \"#utility.yul\":1478:1510   */\n      swap1\n      pop\n        /* \"#utility.yul\":1426:1516   */\n      swap2\n      swap1\n      pop\n      jump\t// out\n        /* \"#utility.yul\":1522:1648   */\n    tag_53:\n        /* \"#utility.yul\":1559:1566   */\n      0x00\n        /* \"#utility.yul\":1599:1641   */\n      0xffffffffffffffffffffffffffffffffffffffff\n        /* \"#utility.yul\":1592:1597   */\n      dup3\n        /* \"#utility.yul\":1588:1642   */\n      and\n        /* \"#utility.yul\":1577:1642   */\n      swap1\n      pop\n        /* \"#utility.yul\":1522:1648   */\n      swap2\n      swap1\n      pop\n      jump\t// out\n        /* \"#utility.yul\":1654:1731   */\n    tag_44:\n        /* \"#utility.yul\":1691:1698   */\n      0x00\n        /* \"#utility.yul\":1720:1725   */\n      dup2\n        /* \"#utility.yul\":1709:1725   */\n      swap1\n      pop\n        /* \"#utility.yul\":1654:1731   */\n      swap2\n      swap1\n      pop\n      jump\t// out\n        /* \"#utility.yul\":1860:1977   */\n    tag_35:\n        /* \"#utility.yul\":1969:1970   */\n      0x00\n        /* \"#utility.yul\":1966:1967   */\n      dup1\n        /* \"#utility.yul\":1959:1971   */\n      revert\n        /* \"#utility.yul\":1983:2099   */\n    tag_31:\n        /* \"#utility.yul\":2053:2074   */\n      tag_62\n        /* \"#utility.yul\":2068:2073   */\n      dup2\n        /* \"#utility.yul\":2053:2074   */\n      tag_54\n      jump\t// in\n    tag_62:\n        /* \"#utility.yul\":2046:2051   */\n      dup2\n        /* \"#utility.yul\":2043:2075   */\n      eq\n        /* \"#utility.yul\":2033:2093   */\n      tag_63\n      jumpi\n        /* \"#utility.yul\":2089:2090   */\n      0x00\n        /* \"#utility.yul\":2086:2087   */\n      dup1\n        /* \"#utility.yul\":2079:2091   */\n      revert\n        /* \"#utility.yul\":2033:2093   */\n    tag_63:\n        /* \"#utility.yul\":1983:2099   */\n      pop\n      jump\t// out\n\n    auxdata: 0xa2646970667358221220a98958f40d8d9b71a6acfca05e205eb422a55bbf98ad8b553177ea3e10d3a1c564736f6c63430008070033\n}\n",
				"bytecode": {
					"linkReferences": {},
					"object": "60806040526040516103ea3803806103ea833981810160405281019061002591906100a1565b336000806101000a81548173ffffffffffffffffffffffffffffffffffffffff021916908373ffffffffffffffffffffffffffffffffffffffff16021790555080600060146101000a81548160ff02191690831515021790555034600181905550506100f6565b60008151905061009b816100df565b92915050565b6000602082840312156100b7576100b66100da565b5b60006100c58482850161008c565b91505092915050565b60008115159050919050565b600080fd5b6100e8816100ce565b81146100f357600080fd5b50565b6102e5806101056000396000f3fe6080604052600436106100345760003560e01c8063d24257c014610039578063d30895e414610064578063de32e3571461008f575b600080fd5b34801561004557600080fd5b5061004e6100ab565b60405161005b9190610230565b60405180910390f35b34801561007057600080fd5b506100796100b1565b6040516100869190610215565b60405180910390f35b6100a960048036038101906100a491906101ca565b6100d5565b005b60015481565b60008054906101000a900473ffffffffffffffffffffffffffffffffffffffff1681565b60015434146100e357600080fd5b801515600060149054906101000a900460ff161515141561014a573373ffffffffffffffffffffffffffffffffffffffff166108fc479081150290604051600060405180830381858888f19350505050158015610144573d6000803e3d6000fd5b506101b2565b60008054906101000a900473ffffffffffffffffffffffffffffffffffffffff1673ffffffffffffffffffffffffffffffffffffffff166108fc479081150290604051600060405180830381858888f193505050501580156101b0573d6000803e3d6000fd5b505b50565b6000813590506101c481610298565b92915050565b6000602082840312156101e0576101df610293565b5b60006101ee848285016101b5565b91505092915050565b6102008161024b565b82525050565b61020f81610289565b82525050565b600060208201905061022a60008301846101f7565b92915050565b60006020820190506102456000830184610206565b92915050565b600061025682610269565b9050919050565b60008115159050919050565b600073ffffffffffffffffffffffffffffffffffffffff82169050919050565b6000819050919050565b600080fd5b6102a18161025d565b81146102ac57600080fd5b5056fea2646970667358221220a98958f40d8d9b71a6acfca05e205eb422a55bbf98ad8b553177ea3e10d3a1c564736f6c63430008070033",
					"opcodes": "PUSH1 0x80 PUSH1 0x40 MSTORE PUSH1 0x40 MLOAD PUSH2 0x3EA CODESIZE SUB DUP1 PUSH2 0x3EA DUP4 CODECOPY DUP2 DUP2 ADD PUSH1 0x40 MSTORE DUP2 ADD SWAP1 PUSH2 0x25 SWAP2 SWAP1 PUSH2 0xA1 JUMP JUMPDEST CALLER PUSH1 0x0 DUP1 PUSH2 0x100 EXP DUP2 SLOAD DUP2 PUSH20 0xFFFFFFFFFFFFFFFFFFFFFFFFFFFFFFFFFFFFFFFF MUL NOT AND SWAP1 DUP4 PUSH20 0xFFFFFFFFFFFFFFFFFFFFFFFFFFFFFFFFFFFFFFFF AND MUL OR SWAP1 SSTORE POP DUP1 PUSH1 0x0 PUSH1 0x14 PUSH2 0x100 EXP DUP2 SLOAD DUP2 PUSH1 0xFF MUL NOT AND SWAP1 DUP4 ISZERO ISZERO MUL OR SWAP1 SSTORE POP CALLVALUE PUSH1 0x1 DUP2 SWAP1 SSTORE POP POP PUSH2 0xF6 JUMP JUMPDEST PUSH1 0x0 DUP2 MLOAD SWAP1 POP PUSH2 0x9B DUP2 PUSH2 0xDF JUMP JUMPDEST SWAP3 SWAP2 POP POP JUMP JUMPDEST PUSH1 0x0 PUSH1 0x20 DUP3 DUP5 SUB SLT ISZERO PUSH2 0xB7 JUMPI PUSH2 0xB6 PUSH2 0xDA JUMP JUMPDEST JUMPDEST PUSH1 0x0 PUSH2 0xC5 DUP5 DUP3 DUP6 ADD PUSH2 0x8C JUMP JUMPDEST SWAP2 POP POP SWAP3 SWAP2 POP POP JUMP JUMPDEST PUSH1 0x0 DUP2 ISZERO ISZERO SWAP1 POP SWAP2 SWAP1 POP JUMP JUMPDEST PUSH1 0x0 DUP1 REVERT JUMPDEST PUSH2 0xE8 DUP2 PUSH2 0xCE JUMP JUMPDEST DUP2 EQ PUSH2 0xF3 JUMPI PUSH1 0x0 DUP1 REVERT JUMPDEST POP JUMP JUMPDEST PUSH2 0x2E5 DUP1 PUSH2 0x105 PUSH1 0x0 CODECOPY PUSH1 0x0 RETURN INVALID PUSH1 0x80 PUSH1 0x40 MSTORE PUSH1 0x4 CALLDATASIZE LT PUSH2 0x34 JUMPI PUSH1 0x0 CALLDATALOAD PUSH1 0xE0 SHR DUP1 PUSH4 0xD24257C0 EQ PUSH2 0x39 JUMPI DUP1 PUSH4 0xD30895E4 EQ PUSH2 0x64 JUMPI DUP1 PUSH4 0xDE32E357 EQ PUSH2 0x8F JUMPI JUMPDEST PUSH1 0x0 DUP1 REVERT JUMPDEST CALLVALUE DUP1 ISZERO PUSH2 0x45 JUMPI PUSH1 0x0 DUP1 REVERT JUMPDEST POP PUSH2 0x4E PUSH2 0xAB JUMP JUMPDEST PUSH1 0x40 MLOAD PUSH2 0x5B SWAP2 SWAP1 PUSH2 0x230 JUMP JUMPDEST PUSH1 0x40 MLOAD DUP1 SWAP2 SUB SWAP1 RETURN JUMPDEST CALLVALUE DUP1 ISZERO PUSH2 0x70 JUMPI PUSH1 0x0 DUP1 REVERT JUMPDEST POP PUSH2 0x79 PUSH2 0xB1 JUMP JUMPDEST PUSH1 0x40 MLOAD PUSH2 0x86 SWAP2 SWAP1 PUSH2 0x215 JUMP JUMPDEST PUSH1 0x40 MLOAD DUP1 SWAP2 SUB SWAP1 RETURN JUMPDEST PUSH2 0xA9 PUSH1 0x4 DUP1 CALLDATASIZE SUB DUP2 ADD SWAP1 PUSH2 0xA4 SWAP2 SWAP1 PUSH2 0x1CA JUMP JUMPDEST PUSH2 0xD5 JUMP JUMPDEST STOP JUMPDEST PUSH1 0x1 SLOAD DUP2 JUMP JUMPDEST PUSH1 0x0 DUP1 SLOAD SWAP1 PUSH2 0x100 EXP SWAP1 DIV PUSH20 0xFFFFFFFFFFFFFFFFFFFFFFFFFFFFFFFFFFFFFFFF AND DUP2 JUMP JUMPDEST PUSH1 0x1 SLOAD CALLVALUE EQ PUSH2 0xE3 JUMPI PUSH1 0x0 DUP1 REVERT JUMPDEST DUP1 ISZERO ISZERO PUSH1 0x0 PUSH1 0x14 SWAP1 SLOAD SWAP1 PUSH2 0x100 EXP SWAP1 DIV PUSH1 0xFF AND ISZERO ISZERO EQ ISZERO PUSH2 0x14A JUMPI CALLER PUSH20 0xFFFFFFFFFFFFFFFFFFFFFFFFFFFFFFFFFFFFFFFF AND PUSH2 0x8FC SELFBALANCE SWAP1 DUP2 ISZERO MUL SWAP1 PUSH1 0x40 MLOAD PUSH1 0x0 PUSH1 0x40 MLOAD DUP1 DUP4 SUB DUP2 DUP6 DUP9 DUP9 CALL SWAP4 POP POP POP POP ISZERO DUP1 ISZERO PUSH2 0x144 JUMPI RETURNDATASIZE PUSH1 0x0 DUP1 RETURNDATACOPY RETURNDATASIZE PUSH1 0x0 REVERT JUMPDEST POP PUSH2 0x1B2 JUMP JUMPDEST PUSH1 0x0 DUP1 SLOAD SWAP1 PUSH2 0x100 EXP SWAP1 DIV PUSH20 0xFFFFFFFFFFFFFFFFFFFFFFFFFFFFFFFFFFFFFFFF AND PUSH20 0xFFFFFFFFFFFFFFFFFFFFFFFFFFFFFFFFFFFFFFFF AND PUSH2 0x8FC SELFBALANCE SWAP1 DUP2 ISZERO MUL SWAP1 PUSH1 0x40 MLOAD PUSH1 0x0 PUSH1 0x40 MLOAD DUP1 DUP4 SUB DUP2 DUP6 DUP9 DUP9 CALL SWAP4 POP POP POP POP ISZERO DUP1 ISZERO PUSH2 0x1B0 JUMPI RETURNDATASIZE PUSH1 0x0 DUP1 RETURNDATACOPY RETURNDATASIZE PUSH1 0x0 REVERT JUMPDEST POP JUMPDEST POP JUMP JUMPDEST PUSH1 0x0 DUP2 CALLDATALOAD SWAP1 POP PUSH2 0x1C4 DUP2 PUSH2 0x298 JUMP JUMPDEST SWAP3 SWAP2 POP POP JUMP JUMPDEST PUSH1 0x0 PUSH1 0x20 DUP3 DUP5 SUB SLT ISZERO PUSH2 0x1E0 JUMPI PUSH2 0x1DF PUSH2 0x293 JUMP JUMPDEST JUMPDEST PUSH1 0x0 PUSH2 0x1EE DUP5 DUP3 DUP6 ADD PUSH2 0x1B5 JUMP JUMPDEST SWAP2 POP POP SWAP3 SWAP2 POP POP JUMP JUMPDEST PUSH2 0x200 DUP2 PUSH2 0x24B JUMP JUMPDEST DUP3 MSTORE POP POP JUMP JUMPDEST PUSH2 0x20F DUP2 PUSH2 0x289 JUMP JUMPDEST DUP3 MSTORE POP POP JUMP JUMPDEST PUSH1 0x0 PUSH1 0x20 DUP3 ADD SWAP1 POP PUSH2 0x22A PUSH1 0x0 DUP4 ADD DUP5 PUSH2 0x1F7 JUMP JUMPDEST SWAP3 SWAP2 POP POP JUMP JUMPDEST PUSH1 0x0 PUSH1 0x20 DUP3 ADD SWAP1 POP PUSH2 0x245 PUSH1 0x0 DUP4 ADD DUP5 PUSH2 0x206 JUMP JUMPDEST SWAP3 SWAP2 POP POP JUMP JUMPDEST PUSH1 0x0 PUSH2 0x256 DUP3 PUSH2 0x269 JUMP JUMPDEST SWAP1 POP SWAP2 SWAP1 POP JUMP JUMPDEST PUSH1 0x0 DUP2 ISZERO ISZERO SWAP1 POP SWAP2 SWAP1 POP JUMP JUMPDEST PUSH1 0x0 PUSH20 0xFFFFFFFFFFFFFFFFFFFFFFFFFFFFFFFFFFFFFFFF DUP3 AND SWAP1 POP SWAP2 SWAP1 POP JUMP JUMPDEST PUSH1 0x0 DUP2 SWAP1 POP SWAP2 SWAP1 POP JUMP JUMPDEST PUSH1 0x0 DUP1 REVERT JUMPDEST PUSH2 0x2A1 DUP2 PUSH2 0x25D JUMP JUMPDEST DUP2 EQ PUSH2 0x2AC JUMPI PUSH1 0x0 DUP1 REVERT JUMPDEST POP JUMP INVALID LOG2 PUSH5 0x6970667358 0x22 SLT KECCAK256 0xA9 DUP10 PC DELEGATECALL 0xD DUP14 SWAP12 PUSH18 0xA6ACFCA05E205EB422A55BBF98AD8B553177 0xEA RETURNDATACOPY LT 0xD3 LOG1 0xC5 PUSH5 0x736F6C6343 STOP ADDMOD SMOD STOP CALLER "
				},
				"gasEstimates": {
					"creation": {
						"codeDepositCost": "148200",
						"executionCost": "infinite",
						"totalCost": "infinite"
					},
					"external": {
						"TakeBet(bool)": "infinite",
						"betAmount()": "2407",
						"player1()": "2511"
					}
				},
				"methodIdentifiers": {
					"TakeBet(bool)": "de32e357",
					"betAmount()": "d24257c0",
					"player1()": "d30895e4"
				}
			},
			"storageLayout": {
				"storage": [
					{
						"astId": 3,
						"contract": "contracts/Coin.sol:CoinFlip",
						"label": "player1",
						"offset": 0,
						"slot": "0",
						"type": "t_address_payable"
					},
					{
						"astId": 5,
						"contract": "contracts/Coin.sol:CoinFlip",
						"label": "player1bit",
						"offset": 20,
						"slot": "0",
						"type": "t_bool"
					},
					{
						"astId": 7,
						"contract": "contracts/Coin.sol:CoinFlip",
						"label": "betAmount",
						"offset": 0,
						"slot": "1",
						"type": "t_uint256"
					}
				],
				"types": {
					"t_address_payable": {
						"encoding": "inplace",
						"label": "address payable",
						"numberOfBytes": "20"
					},
					"t_bool": {
						"encoding": "inplace",
						"label": "bool",
						"numberOfBytes": "1"
					},
					"t_uint256": {
						"encoding": "inplace",
						"label": "uint256",
						"numberOfBytes": "32"
					}
				}
			},
			"userdoc": {
				"kind": "user",
				"methods": {},
				"version": 1
			}
		}
	}
}