{
	"contracts/Coin2.sol": {
		"CoinFlip": {
			"abi": [
				{
					"inputs": [
						{
							"internalType": "bytes32",
							"name": "commitment",
							"type": "bytes32"
						}
					],
					"stateMutability": "payable",
					"type": "constructor"
				},
				{
					"inputs": [
						{
							"internalType": "uint256",
							"name": "nonce",
							"type": "uint256"
						}
					],
					"name": "Reveal",
					"outputs": [],
					"stateMutability": "nonpayable",
					"type": "function"
				},
				{
					"inputs": [
						{
							"internalType": "bool",
							"name": "choice",
							"type": "bool"
						}
					],
					"name": "TakeBet",
					"outputs": [],
					"stateMutability": "payable",
					"type": "function"
				},
				{
					"inputs": [],
					"name": "betAmount",
					"outputs": [
						{
							"internalType": "uint256",
							"name": "",
							"type": "uint256"
						}
					],
					"stateMutability": "view",
					"type": "function"
				},
				{
					"inputs": [],
					"name": "earnestAmount",
					"outputs": [
						{
							"internalType": "uint256",
							"name": "",
							"type": "uint256"
						}
					],
					"stateMutability": "view",
					"type": "function"
				},
				{
					"inputs": [],
					"name": "player1",
					"outputs": [
						{
							"internalType": "address payable",
							"name": "",
							"type": "address"
						}
					],
					"stateMutability": "view",
					"type": "function"
				},
				{
					"inputs": [],
					"name": "player1Commitment",
					"outputs": [
						{
							"internalType": "bytes32",
							"name": "",
							"type": "bytes32"
						}
					],
					"stateMutability": "view",
					"type": "function"
				},
				{
					"inputs": [],
					"name": "player2",
					"outputs": [
						{
							"internalType": "address payable",
							"name": "",
							"type": "address"
						}
					],
					"stateMutability": "view",
					"type": "function"
				},
				{
					"inputs": [],
					"name": "player2Choice",
					"outputs": [
						{
							"internalType": "bool",
							"name": "",
							"type": "bool"
						}
					],
					"stateMutability": "view",
					"type": "function"
				},
				{
					"inputs": [],
					"name": "player2Commitment",
					"outputs": [
						{
							"internalType": "bytes32",
							"name": "",
							"type": "bytes32"
						}
					],
					"stateMutability": "view",
					"type": "function"
				}
			],
			"devdoc": {
				"kind": "dev",
				"methods": {},
				"version": 1
			},
			"evm": {
				"assembly": "    /* \"contracts/Coin2.sol\":62:1354  contract CoinFlip {\r... */\n  mstore(0x40, 0x80)\n    /* \"contracts/Coin2.sol\":345:558  constructor(bytes32 commitment) payable {\r... */\n  mload(0x40)\n  sub(codesize, bytecodeSize)\n  dup1\n  bytecodeSize\n  dup4\n  codecopy\n  dup2\n  dup2\n  add\n  0x40\n  mstore\n  dup2\n  add\n  swap1\n  tag_1\n  swap2\n  swap1\n  tag_2\n  jump\t// in\ntag_1:\n    /* \"contracts/Coin2.sol\":414:424  msg.sender */\n  caller\n    /* \"contracts/Coin2.sol\":396:403  player1 */\n  0x00\n  dup1\n    /* \"contracts/Coin2.sol\":396:425  player1 = payable(msg.sender) */\n  0x0100\n  exp\n  dup2\n  sload\n  dup2\n  0xffffffffffffffffffffffffffffffffffffffff\n  mul\n  not\n  and\n  swap1\n  dup4\n  0xffffffffffffffffffffffffffffffffffffffff\n  and\n  mul\n  or\n  swap1\n  sstore\n  pop\n    /* \"contracts/Coin2.sol\":456:466  commitment */\n  dup1\n    /* \"contracts/Coin2.sol\":436:453  player1Commitment */\n  0x02\n    /* \"contracts/Coin2.sol\":436:466  player1Commitment = commitment */\n  dup2\n  swap1\n  sstore\n  pop\n    /* \"contracts/Coin2.sol\":501:502  2 */\n  0x02\n    /* \"contracts/Coin2.sol\":489:498  msg.value */\n  callvalue\n    /* \"contracts/Coin2.sol\":489:502  msg.value / 2 */\n  tag_5\n  swap2\n  swap1\n  tag_6\n  jump\t// in\ntag_5:\n    /* \"contracts/Coin2.sol\":477:486  betAmount */\n  0x04\n    /* \"contracts/Coin2.sol\":477:502  betAmount = msg.value / 2 */\n  dup2\n  swap1\n  sstore\n  pop\n    /* \"contracts/Coin2.sol\":541:550  betAmount */\n  sload(0x04)\n    /* \"contracts/Coin2.sol\":529:538  msg.value */\n  callvalue\n    /* \"contracts/Coin2.sol\":529:550  msg.value - betAmount */\n  tag_7\n  swap2\n  swap1\n  tag_8\n  jump\t// in\ntag_7:\n    /* \"contracts/Coin2.sol\":513:526  earnestAmount */\n  0x05\n    /* \"contracts/Coin2.sol\":513:550  earnestAmount = msg.value - betAmount */\n  dup2\n  swap1\n  sstore\n  pop\n    /* \"contracts/Coin2.sol\":345:558  constructor(bytes32 commitment) payable {\r... */\n  pop\n    /* \"contracts/Coin2.sol\":62:1354  contract CoinFlip {\r... */\n  jump(tag_9)\n    /* \"#utility.yul\":7:150   */\ntag_11:\n    /* \"#utility.yul\":64:69   */\n  0x00\n    /* \"#utility.yul\":95:101   */\n  dup2\n    /* \"#utility.yul\":89:102   */\n  mload\n    /* \"#utility.yul\":80:102   */\n  swap1\n  pop\n    /* \"#utility.yul\":111:144   */\n  tag_13\n    /* \"#utility.yul\":138:143   */\n  dup2\n    /* \"#utility.yul\":111:144   */\n  tag_14\n  jump\t// in\ntag_13:\n    /* \"#utility.yul\":7:150   */\n  swap3\n  swap2\n  pop\n  pop\n  jump\t// out\n    /* \"#utility.yul\":156:507   */\ntag_2:\n    /* \"#utility.yul\":226:232   */\n  0x00\n    /* \"#utility.yul\":275:277   */\n  0x20\n    /* \"#utility.yul\":263:272   */\n  dup3\n    /* \"#utility.yul\":254:261   */\n  dup5\n    /* \"#utility.yul\":250:273   */\n  sub\n    /* \"#utility.yul\":246:278   */\n  slt\n    /* \"#utility.yul\":243:362   */\n  iszero\n  tag_16\n  jumpi\n    /* \"#utility.yul\":281:360   */\n  tag_17\n  tag_18\n  jump\t// in\ntag_17:\n    /* \"#utility.yul\":243:362   */\ntag_16:\n    /* \"#utility.yul\":401:402   */\n  0x00\n    /* \"#utility.yul\":426:490   */\n  tag_19\n    /* \"#utility.yul\":482:489   */\n  dup5\n    /* \"#utility.yul\":473:479   */\n  dup3\n    /* \"#utility.yul\":462:471   */\n  dup6\n    /* \"#utility.yul\":458:480   */\n  add\n    /* \"#utility.yul\":426:490   */\n  tag_11\n  jump\t// in\ntag_19:\n    /* \"#utility.yul\":416:490   */\n  swap2\n  pop\n    /* \"#utility.yul\":372:500   */\n  pop\n    /* \"#utility.yul\":156:507   */\n  swap3\n  swap2\n  pop\n  pop\n  jump\t// out\n    /* \"#utility.yul\":594:779   */\ntag_6:\n    /* \"#utility.yul\":634:635   */\n  0x00\n    /* \"#utility.yul\":651:671   */\n  tag_23\n    /* \"#utility.yul\":669:670   */\n  dup3\n    /* \"#utility.yul\":651:671   */\n  tag_24\n  jump\t// in\ntag_23:\n    /* \"#utility.yul\":646:671   */\n  swap2\n  pop\n    /* \"#utility.yul\":685:705   */\n  tag_25\n    /* \"#utility.yul\":703:704   */\n  dup4\n    /* \"#utility.yul\":685:705   */\n  tag_24\n  jump\t// in\ntag_25:\n    /* \"#utility.yul\":680:705   */\n  swap3\n  pop\n    /* \"#utility.yul\":724:725   */\n  dup3\n    /* \"#utility.yul\":714:749   */\n  tag_26\n  jumpi\n    /* \"#utility.yul\":729:747   */\n  tag_27\n  tag_28\n  jump\t// in\ntag_27:\n    /* \"#utility.yul\":714:749   */\ntag_26:\n    /* \"#utility.yul\":771:772   */\n  dup3\n    /* \"#utility.yul\":768:769   */\n  dup3\n    /* \"#utility.yul\":764:773   */\n  div\n    /* \"#utility.yul\":759:773   */\n  swap1\n  pop\n    /* \"#utility.yul\":594:779   */\n  swap3\n  swap2\n  pop\n  pop\n  jump\t// out\n    /* \"#utility.yul\":785:976   */\ntag_8:\n    /* \"#utility.yul\":825:829   */\n  0x00\n    /* \"#utility.yul\":845:865   */\n  tag_30\n    /* \"#utility.yul\":863:864   */\n  dup3\n    /* \"#utility.yul\":845:865   */\n  tag_24\n  jump\t// in\ntag_30:\n    /* \"#utility.yul\":840:865   */\n  swap2\n  pop\n    /* \"#utility.yul\":879:899   */\n  tag_31\n    /* \"#utility.yul\":897:898   */\n  dup4\n    /* \"#utility.yul\":879:899   */\n  tag_24\n  jump\t// in\ntag_31:\n    /* \"#utility.yul\":874:899   */\n  swap3\n  pop\n    /* \"#utility.yul\":918:919   */\n  dup3\n    /* \"#utility.yul\":915:916   */\n  dup3\n    /* \"#utility.yul\":912:920   */\n  lt\n    /* \"#utility.yul\":909:943   */\n  iszero\n  tag_32\n  jumpi\n    /* \"#utility.yul\":923:941   */\n  tag_33\n  tag_34\n  jump\t// in\ntag_33:\n    /* \"#utility.yul\":909:943   */\ntag_32:\n    /* \"#utility.yul\":968:969   */\n  dup3\n    /* \"#utility.yul\":965:966   */\n  dup3\n    /* \"#utility.yul\":961:970   */\n  sub\n    /* \"#utility.yul\":953:970   */\n  swap1\n  pop\n    /* \"#utility.yul\":785:976   */\n  swap3\n  swap2\n  pop\n  pop\n  jump\t// out\n    /* \"#utility.yul\":982:1059   */\ntag_35:\n    /* \"#utility.yul\":1019:1026   */\n  0x00\n    /* \"#utility.yul\":1048:1053   */\n  dup2\n    /* \"#utility.yul\":1037:1053   */\n  swap1\n  pop\n    /* \"#utility.yul\":982:1059   */\n  swap2\n  swap1\n  pop\n  jump\t// out\n    /* \"#utility.yul\":1065:1142   */\ntag_24:\n    /* \"#utility.yul\":1102:1109   */\n  0x00\n    /* \"#utility.yul\":1131:1136   */\n  dup2\n    /* \"#utility.yul\":1120:1136   */\n  swap1\n  pop\n    /* \"#utility.yul\":1065:1142   */\n  swap2\n  swap1\n  pop\n  jump\t// out\n    /* \"#utility.yul\":1148:1328   */\ntag_34:\n    /* \"#utility.yul\":1196:1273   */\n  0x4e487b7100000000000000000000000000000000000000000000000000000000\n    /* \"#utility.yul\":1193:1194   */\n  0x00\n    /* \"#utility.yul\":1186:1274   */\n  mstore\n    /* \"#utility.yul\":1293:1297   */\n  0x11\n    /* \"#utility.yul\":1290:1291   */\n  0x04\n    /* \"#utility.yul\":1283:1298   */\n  mstore\n    /* \"#utility.yul\":1317:1321   */\n  0x24\n    /* \"#utility.yul\":1314:1315   */\n  0x00\n    /* \"#utility.yul\":1307:1322   */\n  revert\n    /* \"#utility.yul\":1334:1514   */\ntag_28:\n    /* \"#utility.yul\":1382:1459   */\n  0x4e487b7100000000000000000000000000000000000000000000000000000000\n    /* \"#utility.yul\":1379:1380   */\n  0x00\n    /* \"#utility.yul\":1372:1460   */\n  mstore\n    /* \"#utility.yul\":1479:1483   */\n  0x12\n    /* \"#utility.yul\":1476:1477   */\n  0x04\n    /* \"#utility.yul\":1469:1484   */\n  mstore\n    /* \"#utility.yul\":1503:1507   */\n  0x24\n    /* \"#utility.yul\":1500:1501   */\n  0x00\n    /* \"#utility.yul\":1493:1508   */\n  revert\n    /* \"#utility.yul\":1643:1760   */\ntag_18:\n    /* \"#utility.yul\":1752:1753   */\n  0x00\n    /* \"#utility.yul\":1749:1750   */\n  dup1\n    /* \"#utility.yul\":1742:1754   */\n  revert\n    /* \"#utility.yul\":1766:1888   */\ntag_14:\n    /* \"#utility.yul\":1839:1863   */\n  tag_44\n    /* \"#utility.yul\":1857:1862   */\n  dup2\n    /* \"#utility.yul\":1839:1863   */\n  tag_35\n  jump\t// in\ntag_44:\n    /* \"#utility.yul\":1832:1837   */\n  dup2\n    /* \"#utility.yul\":1829:1864   */\n  eq\n    /* \"#utility.yul\":1819:1882   */\n  tag_45\n  jumpi\n    /* \"#utility.yul\":1878:1879   */\n  0x00\n    /* \"#utility.yul\":1875:1876   */\n  dup1\n    /* \"#utility.yul\":1868:1880   */\n  revert\n    /* \"#utility.yul\":1819:1882   */\ntag_45:\n    /* \"#utility.yul\":1766:1888   */\n  pop\n  jump\t// out\n    /* \"contracts/Coin2.sol\":62:1354  contract CoinFlip {\r... */\ntag_9:\n  dataSize(sub_0)\n  dup1\n  dataOffset(sub_0)\n  0x00\n  codecopy\n  0x00\n  return\nstop\n\nsub_0: assembly {\n        /* \"contracts/Coin2.sol\":62:1354  contract CoinFlip {\r... */\n      mstore(0x40, 0x80)\n      jumpi(tag_1, lt(calldatasize, 0x04))\n      shr(0xe0, calldataload(0x00))\n      dup1\n      0x603f5088\n      gt\n      tag_11\n      jumpi\n      dup1\n      0x603f5088\n      eq\n      tag_6\n      jumpi\n      dup1\n      0xd24257c0\n      eq\n      tag_7\n      jumpi\n      dup1\n      0xd30895e4\n      eq\n      tag_8\n      jumpi\n      dup1\n      0xde32e357\n      eq\n      tag_9\n      jumpi\n      dup1\n      0xeb13175d\n      eq\n      tag_10\n      jumpi\n      jump(tag_1)\n    tag_11:\n      dup1\n      0x0ce6e680\n      eq\n      tag_2\n      jumpi\n      dup1\n      0x1747b48b\n      eq\n      tag_3\n      jumpi\n      dup1\n      0x1b99b468\n      eq\n      tag_4\n      jumpi\n      dup1\n      0x59a5f12d\n      eq\n      tag_5\n      jumpi\n    tag_1:\n      0x00\n      dup1\n      revert\n        /* \"contracts/Coin2.sol\":311:336  bool public player2Choice */\n    tag_2:\n      callvalue\n      dup1\n      iszero\n      tag_12\n      jumpi\n      0x00\n      dup1\n      revert\n    tag_12:\n      pop\n      tag_13\n      tag_14\n      jump\t// in\n    tag_13:\n      mload(0x40)\n      tag_15\n      swap2\n      swap1\n      tag_16\n      jump\t// in\n    tag_15:\n      mload(0x40)\n      dup1\n      swap2\n      sub\n      swap1\n      return\n        /* \"contracts/Coin2.sol\":785:1351  function Reveal(uint256 nonce) public {\r... */\n    tag_3:\n      callvalue\n      dup1\n      iszero\n      tag_17\n      jumpi\n      0x00\n      dup1\n      revert\n    tag_17:\n      pop\n      tag_18\n      0x04\n      dup1\n      calldatasize\n      sub\n      dup2\n      add\n      swap1\n      tag_19\n      swap2\n      swap1\n      tag_20\n      jump\t// in\n    tag_19:\n      tag_21\n      jump\t// in\n    tag_18:\n      stop\n        /* \"contracts/Coin2.sol\":274:302  uint256 public earnestAmount */\n    tag_4:\n      callvalue\n      dup1\n      iszero\n      tag_22\n      jumpi\n      0x00\n      dup1\n      revert\n    tag_22:\n      pop\n      tag_23\n      tag_24\n      jump\t// in\n    tag_23:\n      mload(0x40)\n      tag_25\n      swap2\n      swap1\n      tag_26\n      jump\t// in\n    tag_25:\n      mload(0x40)\n      dup1\n      swap2\n      sub\n      swap1\n      return\n        /* \"contracts/Coin2.sol\":124:154  address payable public player2 */\n    tag_5:\n      callvalue\n      dup1\n      iszero\n      tag_27\n      jumpi\n      0x00\n      dup1\n      revert\n    tag_27:\n      pop\n      tag_28\n      tag_29\n      jump\t// in\n    tag_28:\n      mload(0x40)\n      tag_30\n      swap2\n      swap1\n      tag_31\n      jump\t// in\n    tag_30:\n      mload(0x40)\n      dup1\n      swap2\n      sub\n      swap1\n      return\n        /* \"contracts/Coin2.sol\":202:234  bytes32 public player2Commitment */\n    tag_6:\n      callvalue\n      dup1\n      iszero\n      tag_32\n      jumpi\n      0x00\n      dup1\n      revert\n    tag_32:\n      pop\n      tag_33\n      tag_34\n      jump\t// in\n    tag_33:\n      mload(0x40)\n      tag_35\n      swap2\n      swap1\n      tag_36\n      jump\t// in\n    tag_35:\n      mload(0x40)\n      dup1\n      swap2\n      sub\n      swap1\n      return\n        /* \"contracts/Coin2.sol\":243:267  uint256 public betAmount */\n    tag_7:\n      callvalue\n      dup1\n      iszero\n      tag_37\n      jumpi\n      0x00\n      dup1\n      revert\n    tag_37:\n      pop\n      tag_38\n      tag_39\n      jump\t// in\n    tag_38:\n      mload(0x40)\n      tag_40\n      swap2\n      swap1\n      tag_26\n      jump\t// in\n    tag_40:\n      mload(0x40)\n      dup1\n      swap2\n      sub\n      swap1\n      return\n        /* \"contracts/Coin2.sol\":87:117  address payable public player1 */\n    tag_8:\n      callvalue\n      dup1\n      iszero\n      tag_41\n      jumpi\n      0x00\n      dup1\n      revert\n    tag_41:\n      pop\n      tag_42\n      tag_43\n      jump\t// in\n    tag_42:\n      mload(0x40)\n      tag_44\n      swap2\n      swap1\n      tag_31\n      jump\t// in\n    tag_44:\n      mload(0x40)\n      dup1\n      swap2\n      sub\n      swap1\n      return\n        /* \"contracts/Coin2.sol\":566:777  function TakeBet(bool choice) public payable {\r... */\n    tag_9:\n      tag_45\n      0x04\n      dup1\n      calldatasize\n      sub\n      dup2\n      add\n      swap1\n      tag_46\n      swap2\n      swap1\n      tag_47\n      jump\t// in\n    tag_46:\n      tag_48\n      jump\t// in\n    tag_45:\n      stop\n        /* \"contracts/Coin2.sol\":163:195  bytes32 public player1Commitment */\n    tag_10:\n      callvalue\n      dup1\n      iszero\n      tag_49\n      jumpi\n      0x00\n      dup1\n      revert\n    tag_49:\n      pop\n      tag_50\n      tag_51\n      jump\t// in\n    tag_50:\n      mload(0x40)\n      tag_52\n      swap2\n      swap1\n      tag_36\n      jump\t// in\n    tag_52:\n      mload(0x40)\n      dup1\n      swap2\n      sub\n      swap1\n      return\n        /* \"contracts/Coin2.sol\":311:336  bool public player2Choice */\n    tag_14:\n      0x06\n      0x00\n      swap1\n      sload\n      swap1\n      0x0100\n      exp\n      swap1\n      div\n      0xff\n      and\n      dup2\n      jump\t// out\n        /* \"contracts/Coin2.sol\":785:1351  function Reveal(uint256 nonce) public {\r... */\n    tag_21:\n        /* \"contracts/Coin2.sol\":861:862  0 */\n      0x00\n        /* \"contracts/Coin2.sol\":842:863  player2 != address(0) */\n      0xffffffffffffffffffffffffffffffffffffffff\n      and\n        /* \"contracts/Coin2.sol\":842:849  player2 */\n      0x01\n      0x00\n      swap1\n      sload\n      swap1\n      0x0100\n      exp\n      swap1\n      div\n      0xffffffffffffffffffffffffffffffffffffffff\n      and\n        /* \"contracts/Coin2.sol\":842:863  player2 != address(0) */\n      0xffffffffffffffffffffffffffffffffffffffff\n      and\n      eq\n      iszero\n        /* \"contracts/Coin2.sol\":834:864  require(player2 != address(0)) */\n      tag_54\n      jumpi\n      0x00\n      dup1\n      revert\n    tag_54:\n        /* \"contracts/Coin2.sol\":950:967  player1Commitment */\n      sload(0x02)\n        /* \"contracts/Coin2.sol\":924:937  player2Choice */\n      0x06\n      0x00\n      swap1\n      sload\n      swap1\n      0x0100\n      exp\n      swap1\n      div\n      0xff\n      and\n        /* \"contracts/Coin2.sol\":939:944  nonce */\n      dup3\n        /* \"contracts/Coin2.sol\":907:945  abi.encodePacked(player2Choice, nonce) */\n      add(0x20, mload(0x40))\n      tag_55\n      swap3\n      swap2\n      swap1\n      tag_56\n      jump\t// in\n    tag_55:\n      mload(0x40)\n      0x20\n      dup2\n      dup4\n      sub\n      sub\n      dup2\n      mstore\n      swap1\n      0x40\n      mstore\n        /* \"contracts/Coin2.sol\":897:946  keccak256(abi.encodePacked(player2Choice, nonce)) */\n      dup1\n      mload\n      swap1\n      0x20\n      add\n      keccak256\n        /* \"contracts/Coin2.sol\":897:967  keccak256(abi.encodePacked(player2Choice, nonce)) == player1Commitment */\n      eq\n        /* \"contracts/Coin2.sol\":897:1056  keccak256(abi.encodePacked(player2Choice, nonce)) == player1Commitment || \r... */\n      dup1\n      tag_57\n      jumpi\n      pop\n        /* \"contracts/Coin2.sol\":1039:1056  player1Commitment */\n      sload(0x02)\n        /* \"contracts/Coin2.sol\":1013:1026  player2Choice */\n      0x06\n      0x00\n      swap1\n      sload\n      swap1\n      0x0100\n      exp\n      swap1\n      div\n      0xff\n      and\n        /* \"contracts/Coin2.sol\":1012:1026  !player2Choice */\n      iszero\n        /* \"contracts/Coin2.sol\":1028:1033  nonce */\n      dup3\n        /* \"contracts/Coin2.sol\":995:1034  abi.encodePacked(!player2Choice, nonce) */\n      add(0x20, mload(0x40))\n      tag_58\n      swap3\n      swap2\n      swap1\n      tag_56\n      jump\t// in\n    tag_58:\n      mload(0x40)\n      0x20\n      dup2\n      dup4\n      sub\n      sub\n      dup2\n      mstore\n      swap1\n      0x40\n      mstore\n        /* \"contracts/Coin2.sol\":985:1035  keccak256(abi.encodePacked(!player2Choice, nonce)) */\n      dup1\n      mload\n      swap1\n      0x20\n      add\n      keccak256\n        /* \"contracts/Coin2.sol\":985:1056  keccak256(abi.encodePacked(!player2Choice, nonce)) == player1Commitment */\n      eq\n        /* \"contracts/Coin2.sol\":897:1056  keccak256(abi.encodePacked(player2Choice, nonce)) == player1Commitment || \r... */\n    tag_57:\n        /* \"contracts/Coin2.sol\":875:1071  require(\r... */\n      tag_59\n      jumpi\n      0x00\n      dup1\n      revert\n    tag_59:\n        /* \"contracts/Coin2.sol\":1141:1158  player1Commitment */\n      sload(0x02)\n        /* \"contracts/Coin2.sol\":1115:1128  player2Choice */\n      0x06\n      0x00\n      swap1\n      sload\n      swap1\n      0x0100\n      exp\n      swap1\n      div\n      0xff\n      and\n        /* \"contracts/Coin2.sol\":1130:1135  nonce */\n      dup3\n        /* \"contracts/Coin2.sol\":1098:1136  abi.encodePacked(player2Choice, nonce) */\n      add(0x20, mload(0x40))\n      tag_60\n      swap3\n      swap2\n      swap1\n      tag_56\n      jump\t// in\n    tag_60:\n      mload(0x40)\n      0x20\n      dup2\n      dup4\n      sub\n      sub\n      dup2\n      mstore\n      swap1\n      0x40\n      mstore\n        /* \"contracts/Coin2.sol\":1088:1137  keccak256(abi.encodePacked(player2Choice, nonce)) */\n      dup1\n      mload\n      swap1\n      0x20\n      add\n      keccak256\n        /* \"contracts/Coin2.sol\":1088:1158  keccak256(abi.encodePacked(player2Choice, nonce)) == player1Commitment */\n      eq\n        /* \"contracts/Coin2.sol\":1084:1344  if (keccak256(abi.encodePacked(player2Choice, nonce)) == player1Commitment) {\r... */\n      iszero\n      tag_61\n      jumpi\n        /* \"contracts/Coin2.sol\":1175:1182  player1 */\n      0x00\n      dup1\n      sload\n      swap1\n      0x0100\n      exp\n      swap1\n      div\n      0xffffffffffffffffffffffffffffffffffffffff\n      and\n        /* \"contracts/Coin2.sol\":1175:1191  player1.transfer */\n      0xffffffffffffffffffffffffffffffffffffffff\n      and\n        /* \"contracts/Coin2.sol\":1175:1206  player1.transfer(earnestAmount) */\n      0x08fc\n        /* \"contracts/Coin2.sol\":1192:1205  earnestAmount */\n      sload(0x05)\n        /* \"contracts/Coin2.sol\":1175:1206  player1.transfer(earnestAmount) */\n      swap1\n      dup2\n      iszero\n      mul\n      swap1\n      mload(0x40)\n      0x00\n      mload(0x40)\n      dup1\n      dup4\n      sub\n      dup2\n      dup6\n      dup9\n      dup9\n      call\n      swap4\n      pop\n      pop\n      pop\n      pop\n      iszero\n      dup1\n      iszero\n      tag_63\n      jumpi\n      returndatasize\n      0x00\n      dup1\n      returndatacopy\n      revert(0x00, returndatasize)\n    tag_63:\n      pop\n        /* \"contracts/Coin2.sol\":1221:1228  player2 */\n      0x01\n      0x00\n      swap1\n      sload\n      swap1\n      0x0100\n      exp\n      swap1\n      div\n      0xffffffffffffffffffffffffffffffffffffffff\n      and\n        /* \"contracts/Coin2.sol\":1221:1237  player2.transfer */\n      0xffffffffffffffffffffffffffffffffffffffff\n      and\n        /* \"contracts/Coin2.sol\":1221:1260  player2.transfer(address(this).balance) */\n      0x08fc\n        /* \"contracts/Coin2.sol\":1238:1259  address(this).balance */\n      selfbalance\n        /* \"contracts/Coin2.sol\":1221:1260  player2.transfer(address(this).balance) */\n      swap1\n      dup2\n      iszero\n      mul\n      swap1\n      mload(0x40)\n      0x00\n      mload(0x40)\n      dup1\n      dup4\n      sub\n      dup2\n      dup6\n      dup9\n      dup9\n      call\n      swap4\n      pop\n      pop\n      pop\n      pop\n      iszero\n      dup1\n      iszero\n      tag_65\n      jumpi\n      returndatasize\n      0x00\n      dup1\n      returndatacopy\n      revert(0x00, returndatasize)\n    tag_65:\n      pop\n        /* \"contracts/Coin2.sol\":1084:1344  if (keccak256(abi.encodePacked(player2Choice, nonce)) == player1Commitment) {\r... */\n      jump(tag_66)\n    tag_61:\n        /* \"contracts/Coin2.sol\":1293:1300  player1 */\n      0x00\n      dup1\n      sload\n      swap1\n      0x0100\n      exp\n      swap1\n      div\n      0xffffffffffffffffffffffffffffffffffffffff\n      and\n        /* \"contracts/Coin2.sol\":1293:1309  player1.transfer */\n      0xffffffffffffffffffffffffffffffffffffffff\n      and\n        /* \"contracts/Coin2.sol\":1293:1332  player1.transfer(address(this).balance) */\n      0x08fc\n        /* \"contracts/Coin2.sol\":1310:1331  address(this).balance */\n      selfbalance\n        /* \"contracts/Coin2.sol\":1293:1332  player1.transfer(address(this).balance) */\n      swap1\n      dup2\n      iszero\n      mul\n      swap1\n      mload(0x40)\n      0x00\n      mload(0x40)\n      dup1\n      dup4\n      sub\n      dup2\n      dup6\n      dup9\n      dup9\n      call\n      swap4\n      pop\n      pop\n      pop\n      pop\n      iszero\n      dup1\n      iszero\n      tag_68\n      jumpi\n      returndatasize\n      0x00\n      dup1\n      returndatacopy\n      revert(0x00, returndatasize)\n    tag_68:\n      pop\n        /* \"contracts/Coin2.sol\":1084:1344  if (keccak256(abi.encodePacked(player2Choice, nonce)) == player1Commitment) {\r... */\n    tag_66:\n        /* \"contracts/Coin2.sol\":785:1351  function Reveal(uint256 nonce) public {\r... */\n      pop\n      jump\t// out\n        /* \"contracts/Coin2.sol\":274:302  uint256 public earnestAmount */\n    tag_24:\n      sload(0x05)\n      dup2\n      jump\t// out\n        /* \"contracts/Coin2.sol\":124:154  address payable public player2 */\n    tag_29:\n      0x01\n      0x00\n      swap1\n      sload\n      swap1\n      0x0100\n      exp\n      swap1\n      div\n      0xffffffffffffffffffffffffffffffffffffffff\n      and\n      dup2\n      jump\t// out\n        /* \"contracts/Coin2.sol\":202:234  bytes32 public player2Commitment */\n    tag_34:\n      sload(0x03)\n      dup2\n      jump\t// out\n        /* \"contracts/Coin2.sol\":243:267  uint256 public betAmount */\n    tag_39:\n      sload(0x04)\n      dup2\n      jump\t// out\n        /* \"contracts/Coin2.sol\":87:117  address payable public player1 */\n    tag_43:\n      0x00\n      dup1\n      sload\n      swap1\n      0x0100\n      exp\n      swap1\n      div\n      0xffffffffffffffffffffffffffffffffffffffff\n      and\n      dup2\n      jump\t// out\n        /* \"contracts/Coin2.sol\":566:777  function TakeBet(bool choice) public payable {\r... */\n    tag_48:\n        /* \"contracts/Coin2.sol\":649:650  0 */\n      0x00\n        /* \"contracts/Coin2.sol\":630:651  player2 == address(0) */\n      0xffffffffffffffffffffffffffffffffffffffff\n      and\n        /* \"contracts/Coin2.sol\":630:637  player2 */\n      0x01\n      0x00\n      swap1\n      sload\n      swap1\n      0x0100\n      exp\n      swap1\n      div\n      0xffffffffffffffffffffffffffffffffffffffff\n      and\n        /* \"contracts/Coin2.sol\":630:651  player2 == address(0) */\n      0xffffffffffffffffffffffffffffffffffffffff\n      and\n      eq\n        /* \"contracts/Coin2.sol\":622:652  require(player2 == address(0)) */\n      tag_70\n      jumpi\n      0x00\n      dup1\n      revert\n    tag_70:\n        /* \"contracts/Coin2.sol\":684:693  betAmount */\n      sload(0x04)\n        /* \"contracts/Coin2.sol\":671:680  msg.value */\n      callvalue\n        /* \"contracts/Coin2.sol\":671:693  msg.value == betAmount */\n      eq\n        /* \"contracts/Coin2.sol\":663:694  require(msg.value == betAmount) */\n      tag_71\n      jumpi\n      0x00\n      dup1\n      revert\n    tag_71:\n        /* \"contracts/Coin2.sol\":725:735  msg.sender */\n      caller\n        /* \"contracts/Coin2.sol\":707:714  player2 */\n      0x01\n      0x00\n        /* \"contracts/Coin2.sol\":707:736  player2 = payable(msg.sender) */\n      0x0100\n      exp\n      dup2\n      sload\n      dup2\n      0xffffffffffffffffffffffffffffffffffffffff\n      mul\n      not\n      and\n      swap1\n      dup4\n      0xffffffffffffffffffffffffffffffffffffffff\n      and\n      mul\n      or\n      swap1\n      sstore\n      pop\n        /* \"contracts/Coin2.sol\":763:769  choice */\n      dup1\n        /* \"contracts/Coin2.sol\":747:760  player2Choice */\n      0x06\n      0x00\n        /* \"contracts/Coin2.sol\":747:769  player2Choice = choice */\n      0x0100\n      exp\n      dup2\n      sload\n      dup2\n      0xff\n      mul\n      not\n      and\n      swap1\n      dup4\n      iszero\n      iszero\n      mul\n      or\n      swap1\n      sstore\n      pop\n        /* \"contracts/Coin2.sol\":566:777  function TakeBet(bool choice) public payable {\r... */\n      pop\n      jump\t// out\n        /* \"contracts/Coin2.sol\":163:195  bytes32 public player1Commitment */\n    tag_51:\n      sload(0x02)\n      dup2\n      jump\t// out\n        /* \"#utility.yul\":7:140   */\n    tag_73:\n        /* \"#utility.yul\":50:55   */\n      0x00\n        /* \"#utility.yul\":88:94   */\n      dup2\n        /* \"#utility.yul\":75:95   */\n      calldataload\n        /* \"#utility.yul\":66:95   */\n      swap1\n      pop\n        /* \"#utility.yul\":104:134   */\n      tag_75\n        /* \"#utility.yul\":128:133   */\n      dup2\n        /* \"#utility.yul\":104:134   */\n      tag_76\n      jump\t// in\n    tag_75:\n        /* \"#utility.yul\":7:140   */\n      swap3\n      swap2\n      pop\n      pop\n      jump\t// out\n        /* \"#utility.yul\":146:285   */\n    tag_77:\n        /* \"#utility.yul\":192:197   */\n      0x00\n        /* \"#utility.yul\":230:236   */\n      dup2\n        /* \"#utility.yul\":217:237   */\n      calldataload\n        /* \"#utility.yul\":208:237   */\n      swap1\n      pop\n        /* \"#utility.yul\":246:279   */\n      tag_79\n        /* \"#utility.yul\":273:278   */\n      dup2\n        /* \"#utility.yul\":246:279   */\n      tag_80\n      jump\t// in\n    tag_79:\n        /* \"#utility.yul\":146:285   */\n      swap3\n      swap2\n      pop\n      pop\n      jump\t// out\n        /* \"#utility.yul\":291:614   */\n    tag_47:\n        /* \"#utility.yul\":347:353   */\n      0x00\n        /* \"#utility.yul\":396:398   */\n      0x20\n        /* \"#utility.yul\":384:393   */\n      dup3\n        /* \"#utility.yul\":375:382   */\n      dup5\n        /* \"#utility.yul\":371:394   */\n      sub\n        /* \"#utility.yul\":367:399   */\n      slt\n        /* \"#utility.yul\":364:483   */\n      iszero\n      tag_82\n      jumpi\n        /* \"#utility.yul\":402:481   */\n      tag_83\n      tag_84\n      jump\t// in\n    tag_83:\n        /* \"#utility.yul\":364:483   */\n    tag_82:\n        /* \"#utility.yul\":522:523   */\n      0x00\n        /* \"#utility.yul\":547:597   */\n      tag_85\n        /* \"#utility.yul\":589:596   */\n      dup5\n        /* \"#utility.yul\":580:586   */\n      dup3\n        /* \"#utility.yul\":569:578   */\n      dup6\n        /* \"#utility.yul\":565:587   */\n      add\n        /* \"#utility.yul\":547:597   */\n      tag_73\n      jump\t// in\n    tag_85:\n        /* \"#utility.yul\":537:597   */\n      swap2\n      pop\n        /* \"#utility.yul\":493:607   */\n      pop\n        /* \"#utility.yul\":291:614   */\n      swap3\n      swap2\n      pop\n      pop\n      jump\t// out\n        /* \"#utility.yul\":620:949   */\n    tag_20:\n        /* \"#utility.yul\":679:685   */\n      0x00\n        /* \"#utility.yul\":728:730   */\n      0x20\n        /* \"#utility.yul\":716:725   */\n      dup3\n        /* \"#utility.yul\":707:714   */\n      dup5\n        /* \"#utility.yul\":703:726   */\n      sub\n        /* \"#utility.yul\":699:731   */\n      slt\n        /* \"#utility.yul\":696:815   */\n      iszero\n      tag_87\n      jumpi\n        /* \"#utility.yul\":734:813   */\n      tag_88\n      tag_84\n      jump\t// in\n    tag_88:\n        /* \"#utility.yul\":696:815   */\n    tag_87:\n        /* \"#utility.yul\":854:855   */\n      0x00\n        /* \"#utility.yul\":879:932   */\n      tag_89\n        /* \"#utility.yul\":924:931   */\n      dup5\n        /* \"#utility.yul\":915:921   */\n      dup3\n        /* \"#utility.yul\":904:913   */\n      dup6\n        /* \"#utility.yul\":900:922   */\n      add\n        /* \"#utility.yul\":879:932   */\n      tag_77\n      jump\t// in\n    tag_89:\n        /* \"#utility.yul\":869:932   */\n      swap2\n      pop\n        /* \"#utility.yul\":825:942   */\n      pop\n        /* \"#utility.yul\":620:949   */\n      swap3\n      swap2\n      pop\n      pop\n      jump\t// out\n        /* \"#utility.yul\":955:1097   */\n    tag_90:\n        /* \"#utility.yul\":1058:1090   */\n      tag_92\n        /* \"#utility.yul\":1084:1089   */\n      dup2\n        /* \"#utility.yul\":1058:1090   */\n      tag_93\n      jump\t// in\n    tag_92:\n        /* \"#utility.yul\":1053:1056   */\n      dup3\n        /* \"#utility.yul\":1046:1091   */\n      mstore\n        /* \"#utility.yul\":955:1097   */\n      pop\n      pop\n      jump\t// out\n        /* \"#utility.yul\":1103:1212   */\n    tag_94:\n        /* \"#utility.yul\":1184:1205   */\n      tag_96\n        /* \"#utility.yul\":1199:1204   */\n      dup2\n        /* \"#utility.yul\":1184:1205   */\n      tag_97\n      jump\t// in\n    tag_96:\n        /* \"#utility.yul\":1179:1182   */\n      dup3\n        /* \"#utility.yul\":1172:1206   */\n      mstore\n        /* \"#utility.yul\":1103:1212   */\n      pop\n      pop\n      jump\t// out\n        /* \"#utility.yul\":1218:1363   */\n    tag_98:\n        /* \"#utility.yul\":1317:1356   */\n      tag_100\n        /* \"#utility.yul\":1334:1355   */\n      tag_101\n        /* \"#utility.yul\":1349:1354   */\n      dup3\n        /* \"#utility.yul\":1334:1355   */\n      tag_97\n      jump\t// in\n    tag_101:\n        /* \"#utility.yul\":1317:1356   */\n      tag_102\n      jump\t// in\n    tag_100:\n        /* \"#utility.yul\":1312:1315   */\n      dup3\n        /* \"#utility.yul\":1305:1357   */\n      mstore\n        /* \"#utility.yul\":1218:1363   */\n      pop\n      pop\n      jump\t// out\n        /* \"#utility.yul\":1369:1487   */\n    tag_103:\n        /* \"#utility.yul\":1456:1480   */\n      tag_105\n        /* \"#utility.yul\":1474:1479   */\n      dup2\n        /* \"#utility.yul\":1456:1480   */\n      tag_106\n      jump\t// in\n    tag_105:\n        /* \"#utility.yul\":1451:1454   */\n      dup3\n        /* \"#utility.yul\":1444:1481   */\n      mstore\n        /* \"#utility.yul\":1369:1487   */\n      pop\n      pop\n      jump\t// out\n        /* \"#utility.yul\":1493:1611   */\n    tag_107:\n        /* \"#utility.yul\":1580:1604   */\n      tag_109\n        /* \"#utility.yul\":1598:1603   */\n      dup2\n        /* \"#utility.yul\":1580:1604   */\n      tag_110\n      jump\t// in\n    tag_109:\n        /* \"#utility.yul\":1575:1578   */\n      dup3\n        /* \"#utility.yul\":1568:1605   */\n      mstore\n        /* \"#utility.yul\":1493:1611   */\n      pop\n      pop\n      jump\t// out\n        /* \"#utility.yul\":1617:1774   */\n    tag_111:\n        /* \"#utility.yul\":1722:1767   */\n      tag_113\n        /* \"#utility.yul\":1742:1766   */\n      tag_114\n        /* \"#utility.yul\":1760:1765   */\n      dup3\n        /* \"#utility.yul\":1742:1766   */\n      tag_110\n      jump\t// in\n    tag_114:\n        /* \"#utility.yul\":1722:1767   */\n      tag_115\n      jump\t// in\n    tag_113:\n        /* \"#utility.yul\":1717:1720   */\n      dup3\n        /* \"#utility.yul\":1710:1768   */\n      mstore\n        /* \"#utility.yul\":1617:1774   */\n      pop\n      pop\n      jump\t// out\n        /* \"#utility.yul\":1780:2164   */\n    tag_56:\n        /* \"#utility.yul\":1914:1917   */\n      0x00\n        /* \"#utility.yul\":1929:1998   */\n      tag_117\n        /* \"#utility.yul\":1994:1997   */\n      dup3\n        /* \"#utility.yul\":1985:1991   */\n      dup6\n        /* \"#utility.yul\":1929:1998   */\n      tag_98\n      jump\t// in\n    tag_117:\n        /* \"#utility.yul\":2023:2024   */\n      0x01\n        /* \"#utility.yul\":2018:2021   */\n      dup3\n        /* \"#utility.yul\":2014:2025   */\n      add\n        /* \"#utility.yul\":2007:2025   */\n      swap2\n      pop\n        /* \"#utility.yul\":2035:2110   */\n      tag_118\n        /* \"#utility.yul\":2106:2109   */\n      dup3\n        /* \"#utility.yul\":2097:2103   */\n      dup5\n        /* \"#utility.yul\":2035:2110   */\n      tag_111\n      jump\t// in\n    tag_118:\n        /* \"#utility.yul\":2135:2137   */\n      0x20\n        /* \"#utility.yul\":2130:2133   */\n      dup3\n        /* \"#utility.yul\":2126:2138   */\n      add\n        /* \"#utility.yul\":2119:2138   */\n      swap2\n      pop\n        /* \"#utility.yul\":2155:2158   */\n      dup2\n        /* \"#utility.yul\":2148:2158   */\n      swap1\n      pop\n        /* \"#utility.yul\":1780:2164   */\n      swap4\n      swap3\n      pop\n      pop\n      pop\n      jump\t// out\n        /* \"#utility.yul\":2170:2424   */\n    tag_31:\n        /* \"#utility.yul\":2279:2283   */\n      0x00\n        /* \"#utility.yul\":2317:2319   */\n      0x20\n        /* \"#utility.yul\":2306:2315   */\n      dup3\n        /* \"#utility.yul\":2302:2320   */\n      add\n        /* \"#utility.yul\":2294:2320   */\n      swap1\n      pop\n        /* \"#utility.yul\":2330:2417   */\n      tag_120\n        /* \"#utility.yul\":2414:2415   */\n      0x00\n        /* \"#utility.yul\":2403:2412   */\n      dup4\n        /* \"#utility.yul\":2399:2416   */\n      add\n        /* \"#utility.yul\":2390:2396   */\n      dup5\n        /* \"#utility.yul\":2330:2417   */\n      tag_90\n      jump\t// in\n    tag_120:\n        /* \"#utility.yul\":2170:2424   */\n      swap3\n      swap2\n      pop\n      pop\n      jump\t// out\n        /* \"#utility.yul\":2430:2640   */\n    tag_16:\n        /* \"#utility.yul\":2517:2521   */\n      0x00\n        /* \"#utility.yul\":2555:2557   */\n      0x20\n        /* \"#utility.yul\":2544:2553   */\n      dup3\n        /* \"#utility.yul\":2540:2558   */\n      add\n        /* \"#utility.yul\":2532:2558   */\n      swap1\n      pop\n        /* \"#utility.yul\":2568:2633   */\n      tag_122\n        /* \"#utility.yul\":2630:2631   */\n      0x00\n        /* \"#utility.yul\":2619:2628   */\n      dup4\n        /* \"#utility.yul\":2615:2632   */\n      add\n        /* \"#utility.yul\":2606:2612   */\n      dup5\n        /* \"#utility.yul\":2568:2633   */\n      tag_94\n      jump\t// in\n    tag_122:\n        /* \"#utility.yul\":2430:2640   */\n      swap3\n      swap2\n      pop\n      pop\n      jump\t// out\n        /* \"#utility.yul\":2646:2868   */\n    tag_36:\n        /* \"#utility.yul\":2739:2743   */\n      0x00\n        /* \"#utility.yul\":2777:2779   */\n      0x20\n        /* \"#utility.yul\":2766:2775   */\n      dup3\n        /* \"#utility.yul\":2762:2780   */\n      add\n        /* \"#utility.yul\":2754:2780   */\n      swap1\n      pop\n        /* \"#utility.yul\":2790:2861   */\n      tag_124\n        /* \"#utility.yul\":2858:2859   */\n      0x00\n        /* \"#utility.yul\":2847:2856   */\n      dup4\n        /* \"#utility.yul\":2843:2860   */\n      add\n        /* \"#utility.yul\":2834:2840   */\n      dup5\n        /* \"#utility.yul\":2790:2861   */\n      tag_103\n      jump\t// in\n    tag_124:\n        /* \"#utility.yul\":2646:2868   */\n      swap3\n      swap2\n      pop\n      pop\n      jump\t// out\n        /* \"#utility.yul\":2874:3096   */\n    tag_26:\n        /* \"#utility.yul\":2967:2971   */\n      0x00\n        /* \"#utility.yul\":3005:3007   */\n      0x20\n        /* \"#utility.yul\":2994:3003   */\n      dup3\n        /* \"#utility.yul\":2990:3008   */\n      add\n        /* \"#utility.yul\":2982:3008   */\n      swap1\n      pop\n        /* \"#utility.yul\":3018:3089   */\n      tag_126\n        /* \"#utility.yul\":3086:3087   */\n      0x00\n        /* \"#utility.yul\":3075:3084   */\n      dup4\n        /* \"#utility.yul\":3071:3088   */\n      add\n        /* \"#utility.yul\":3062:3068   */\n      dup5\n        /* \"#utility.yul\":3018:3089   */\n      tag_107\n      jump\t// in\n    tag_126:\n        /* \"#utility.yul\":2874:3096   */\n      swap3\n      swap2\n      pop\n      pop\n      jump\t// out\n        /* \"#utility.yul\":3183:3287   */\n    tag_93:\n        /* \"#utility.yul\":3228:3235   */\n      0x00\n        /* \"#utility.yul\":3257:3281   */\n      tag_130\n        /* \"#utility.yul\":3275:3280   */\n      dup3\n        /* \"#utility.yul\":3257:3281   */\n      tag_131\n      jump\t// in\n    tag_130:\n        /* \"#utility.yul\":3246:3281   */\n      swap1\n      pop\n        /* \"#utility.yul\":3183:3287   */\n      swap2\n      swap1\n      pop\n      jump\t// out\n        /* \"#utility.yul\":3293:3383   */\n    tag_97:\n        /* \"#utility.yul\":3327:3334   */\n      0x00\n        /* \"#utility.yul\":3370:3375   */\n      dup2\n        /* \"#utility.yul\":3363:3376   */\n      iszero\n        /* \"#utility.yul\":3356:3377   */\n      iszero\n        /* \"#utility.yul\":3345:3377   */\n      swap1\n      pop\n        /* \"#utility.yul\":3293:3383   */\n      swap2\n      swap1\n      pop\n      jump\t// out\n        /* \"#utility.yul\":3389:3466   */\n    tag_106:\n        /* \"#utility.yul\":3426:3433   */\n      0x00\n        /* \"#utility.yul\":3455:3460   */\n      dup2\n        /* \"#utility.yul\":3444:3460   */\n      swap1\n      pop\n        /* \"#utility.yul\":3389:3466   */\n      swap2\n      swap1\n      pop\n      jump\t// out\n        /* \"#utility.yul\":3472:3598   */\n    tag_131:\n        /* \"#utility.yul\":3509:3516   */\n      0x00\n        /* \"#utility.yul\":3549:3591   */\n      0xffffffffffffffffffffffffffffffffffffffff\n        /* \"#utility.yul\":3542:3547   */\n      dup3\n        /* \"#utility.yul\":3538:3592   */\n      and\n        /* \"#utility.yul\":3527:3592   */\n      swap1\n      pop\n        /* \"#utility.yul\":3472:3598   */\n      swap2\n      swap1\n      pop\n      jump\t// out\n        /* \"#utility.yul\":3604:3681   */\n    tag_110:\n        /* \"#utility.yul\":3641:3648   */\n      0x00\n        /* \"#utility.yul\":3670:3675   */\n      dup2\n        /* \"#utility.yul\":3659:3675   */\n      swap1\n      pop\n        /* \"#utility.yul\":3604:3681   */\n      swap2\n      swap1\n      pop\n      jump\t// out\n        /* \"#utility.yul\":3687:3782   */\n    tag_102:\n        /* \"#utility.yul\":3723:3730   */\n      0x00\n        /* \"#utility.yul\":3752:3776   */\n      tag_137\n        /* \"#utility.yul\":3770:3775   */\n      dup3\n        /* \"#utility.yul\":3752:3776   */\n      tag_138\n      jump\t// in\n    tag_137:\n        /* \"#utility.yul\":3741:3776   */\n      swap1\n      pop\n        /* \"#utility.yul\":3687:3782   */\n      swap2\n      swap1\n      pop\n      jump\t// out\n        /* \"#utility.yul\":3788:3867   */\n    tag_115:\n        /* \"#utility.yul\":3827:3834   */\n      0x00\n        /* \"#utility.yul\":3856:3861   */\n      dup2\n        /* \"#utility.yul\":3845:3861   */\n      swap1\n      pop\n        /* \"#utility.yul\":3788:3867   */\n      swap2\n      swap1\n      pop\n      jump\t// out\n        /* \"#utility.yul\":3873:3966   */\n    tag_138:\n        /* \"#utility.yul\":3910:3917   */\n      0x00\n        /* \"#utility.yul\":3939:3960   */\n      tag_141\n        /* \"#utility.yul\":3954:3959   */\n      dup3\n        /* \"#utility.yul\":3939:3960   */\n      tag_142\n      jump\t// in\n    tag_141:\n        /* \"#utility.yul\":3928:3960   */\n      swap1\n      pop\n        /* \"#utility.yul\":3873:3966   */\n      swap2\n      swap1\n      pop\n      jump\t// out\n        /* \"#utility.yul\":4095:4212   */\n    tag_84:\n        /* \"#utility.yul\":4204:4205   */\n      0x00\n        /* \"#utility.yul\":4201:4202   */\n      dup1\n        /* \"#utility.yul\":4194:4206   */\n      revert\n        /* \"#utility.yul\":4218:4314   */\n    tag_142:\n        /* \"#utility.yul\":4252:4260   */\n      0x00\n        /* \"#utility.yul\":4301:4306   */\n      dup2\n        /* \"#utility.yul\":4296:4299   */\n      0xf8\n        /* \"#utility.yul\":4292:4307   */\n      shl\n        /* \"#utility.yul\":4271:4307   */\n      swap1\n      pop\n        /* \"#utility.yul\":4218:4314   */\n      swap2\n      swap1\n      pop\n      jump\t// out\n        /* \"#utility.yul\":4320:4436   */\n    tag_76:\n        /* \"#utility.yul\":4390:4411   */\n      tag_148\n        /* \"#utility.yul\":4405:4410   */\n      dup2\n        /* \"#utility.yul\":4390:4411   */\n      tag_97\n      jump\t// in\n    tag_148:\n        /* \"#utility.yul\":4383:4388   */\n      dup2\n        /* \"#utility.yul\":4380:4412   */\n      eq\n        /* \"#utility.yul\":4370:4430   */\n      tag_149\n      jumpi\n        /* \"#utility.yul\":4426:4427   */\n      0x00\n        /* \"#utility.yul\":4423:4424   */\n      dup1\n        /* \"#utility.yul\":4416:4428   */\n      revert\n        /* \"#utility.yul\":4370:4430   */\n    tag_149:\n        /* \"#utility.yul\":4320:4436   */\n      pop\n      jump\t// out\n        /* \"#utility.yul\":4442:4564   */\n    tag_80:\n        /* \"#utility.yul\":4515:4539   */\n      tag_151\n        /* \"#utility.yul\":4533:4538   */\n      dup2\n        /* \"#utility.yul\":4515:4539   */\n      tag_110\n      jump\t// in\n    tag_151:\n        /* \"#utility.yul\":4508:4513   */\n      dup2\n        /* \"#utility.yul\":4505:4540   */\n      eq\n        /* \"#utility.yul\":4495:4558   */\n      tag_152\n      jumpi\n        /* \"#utility.yul\":4554:4555   */\n      0x00\n        /* \"#utility.yul\":4551:4552   */\n      dup1\n        /* \"#utility.yul\":4544:4556   */\n      revert\n        /* \"#utility.yul\":4495:4558   */\n    tag_152:\n        /* \"#utility.yul\":4442:4564   */\n      pop\n      jump\t// out\n\n    auxdata: 0xa26469706673582212207cf7c1b4cd1f98889bc14e6791b790349a10fc1cc37a69bca493c422a1767e6464736f6c63430008070033\n}\n",
				"bytecode": {
					"linkReferences": {},
					"object": "6080604052604051620009fd380380620009fd833981810160405281019061002791906100b0565b336000806101000a81548173ffffffffffffffffffffffffffffffffffffffff021916908373ffffffffffffffffffffffffffffffffffffffff1602179055508060028190555060023461007b91906100dd565b6004819055506004543461008f919061010e565b600581905550506101d0565b6000815190506100aa816101b9565b92915050565b6000602082840312156100c6576100c56101b4565b5b60006100d48482850161009b565b91505092915050565b60006100e88261014c565b91506100f38361014c565b92508261010357610102610185565b5b828204905092915050565b60006101198261014c565b91506101248361014c565b92508282101561013757610136610156565b5b828203905092915050565b6000819050919050565b6000819050919050565b7f4e487b7100000000000000000000000000000000000000000000000000000000600052601160045260246000fd5b7f4e487b7100000000000000000000000000000000000000000000000000000000600052601260045260246000fd5b600080fd5b6101c281610142565b81146101cd57600080fd5b50565b61081d80620001e06000396000f3fe6080604052600436106100865760003560e01c8063603f508811610059578063603f508814610135578063d24257c014610160578063d30895e41461018b578063de32e357146101b6578063eb13175d146101d257610086565b80630ce6e6801461008b5780631747b48b146100b65780631b99b468146100df57806359a5f12d1461010a575b600080fd5b34801561009757600080fd5b506100a06101fd565b6040516100ad91906106d6565b60405180910390f35b3480156100c257600080fd5b506100dd60048036038101906100d891906105f8565b610210565b005b3480156100eb57600080fd5b506100f4610478565b604051610101919061070c565b60405180910390f35b34801561011657600080fd5b5061011f61047e565b60405161012c91906106bb565b60405180910390f35b34801561014157600080fd5b5061014a6104a4565b60405161015791906106f1565b60405180910390f35b34801561016c57600080fd5b506101756104aa565b604051610182919061070c565b60405180910390f35b34801561019757600080fd5b506101a06104b0565b6040516101ad91906106bb565b60405180910390f35b6101d060048036038101906101cb91906105cb565b6104d4565b005b3480156101de57600080fd5b506101e761059b565b6040516101f491906106f1565b60405180910390f35b600660009054906101000a900460ff1681565b600073ffffffffffffffffffffffffffffffffffffffff16600160009054906101000a900473ffffffffffffffffffffffffffffffffffffffff1673ffffffffffffffffffffffffffffffffffffffff16141561026c57600080fd5b600254600660009054906101000a900460ff168260405160200161029192919061068f565b6040516020818303038152906040528051906020012014806102ec5750600254600660009054906101000a900460ff1615826040516020016102d492919061068f565b60405160208183030381529060405280519060200120145b6102f557600080fd5b600254600660009054906101000a900460ff168260405160200161031a92919061068f565b60405160208183030381529060405280519060200120141561040d5760008054906101000a900473ffffffffffffffffffffffffffffffffffffffff1673ffffffffffffffffffffffffffffffffffffffff166108fc6005549081150290604051600060405180830381858888f1935050505015801561039e573d6000803e3d6000fd5b50600160009054906101000a900473ffffffffffffffffffffffffffffffffffffffff1673ffffffffffffffffffffffffffffffffffffffff166108fc479081150290604051600060405180830381858888f19350505050158015610407573d6000803e3d6000fd5b50610475565b60008054906101000a900473ffffffffffffffffffffffffffffffffffffffff1673ffffffffffffffffffffffffffffffffffffffff166108fc479081150290604051600060405180830381858888f19350505050158015610473573d6000803e3d6000fd5b505b50565b60055481565b600160009054906101000a900473ffffffffffffffffffffffffffffffffffffffff1681565b60035481565b60045481565b60008054906101000a900473ffffffffffffffffffffffffffffffffffffffff1681565b600073ffffffffffffffffffffffffffffffffffffffff16600160009054906101000a900473ffffffffffffffffffffffffffffffffffffffff1673ffffffffffffffffffffffffffffffffffffffff161461052f57600080fd5b600454341461053d57600080fd5b33600160006101000a81548173ffffffffffffffffffffffffffffffffffffffff021916908373ffffffffffffffffffffffffffffffffffffffff16021790555080600660006101000a81548160ff02191690831515021790555050565b60025481565b6000813590506105b0816107b9565b92915050565b6000813590506105c5816107d0565b92915050565b6000602082840312156105e1576105e06107a7565b5b60006105ef848285016105a1565b91505092915050565b60006020828403121561060e5761060d6107a7565b5b600061061c848285016105b6565b91505092915050565b61062e81610727565b82525050565b61063d81610739565b82525050565b61065461064f82610739565b610779565b82525050565b61066381610745565b82525050565b6106728161076f565b82525050565b6106896106848261076f565b61078b565b82525050565b600061069b8285610643565b6001820191506106ab8284610678565b6020820191508190509392505050565b60006020820190506106d06000830184610625565b92915050565b60006020820190506106eb6000830184610634565b92915050565b6000602082019050610706600083018461065a565b92915050565b60006020820190506107216000830184610669565b92915050565b60006107328261074f565b9050919050565b60008115159050919050565b6000819050919050565b600073ffffffffffffffffffffffffffffffffffffffff82169050919050565b6000819050919050565b600061078482610795565b9050919050565b6000819050919050565b60006107a0826107ac565b9050919050565b600080fd5b60008160f81b9050919050565b6107c281610739565b81146107cd57600080fd5b50565b6107d98161076f565b81146107e457600080fd5b5056fea26469706673582212207cf7c1b4cd1f98889bc14e6791b790349a10fc1cc37a69bca493c422a1767e6464736f6c63430008070033",
					"opcodes": "PUSH1 0x80 PUSH1 0x40 MSTORE PUSH1 0x40 MLOAD PUSH3 0x9FD CODESIZE SUB DUP1 PUSH3 0x9FD DUP4 CODECOPY DUP2 DUP2 ADD PUSH1 0x40 MSTORE DUP2 ADD SWAP1 PUSH2 0x27 SWAP2 SWAP1 PUSH2 0xB0 JUMP JUMPDEST CALLER PUSH1 0x0 DUP1 PUSH2 0x100 EXP DUP2 SLOAD DUP2 PUSH20 0xFFFFFFFFFFFFFFFFFFFFFFFFFFFFFFFFFFFFFFFF MUL NOT AND SWAP1 DUP4 PUSH20 0xFFFFFFFFFFFFFFFFFFFFFFFFFFFFFFFFFFFFFFFF AND MUL OR SWAP1 SSTORE POP DUP1 PUSH1 0x2 DUP2 SWAP1 SSTORE POP PUSH1 0x2 CALLVALUE PUSH2 0x7B SWAP2 SWAP1 PUSH2 0xDD JUMP JUMPDEST PUSH1 0x4 DUP2 SWAP1 SSTORE POP PUSH1 0x4 SLOAD CALLVALUE PUSH2 0x8F SWAP2 SWAP1 PUSH2 0x10E JUMP JUMPDEST PUSH1 0x5 DUP2 SWAP1 SSTORE POP POP PUSH2 0x1D0 JUMP JUMPDEST PUSH1 0x0 DUP2 MLOAD SWAP1 POP PUSH2 0xAA DUP2 PUSH2 0x1B9 JUMP JUMPDEST SWAP3 SWAP2 POP POP JUMP JUMPDEST PUSH1 0x0 PUSH1 0x20 DUP3 DUP5 SUB SLT ISZERO PUSH2 0xC6 JUMPI PUSH2 0xC5 PUSH2 0x1B4 JUMP JUMPDEST JUMPDEST PUSH1 0x0 PUSH2 0xD4 DUP5 DUP3 DUP6 ADD PUSH2 0x9B JUMP JUMPDEST SWAP2 POP POP SWAP3 SWAP2 POP POP JUMP JUMPDEST PUSH1 0x0 PUSH2 0xE8 DUP3 PUSH2 0x14C JUMP JUMPDEST SWAP2 POP PUSH2 0xF3 DUP4 PUSH2 0x14C JUMP JUMPDEST SWAP3 POP DUP3 PUSH2 0x103 JUMPI PUSH2 0x102 PUSH2 0x185 JUMP JUMPDEST JUMPDEST DUP3 DUP3 DIV SWAP1 POP SWAP3 SWAP2 POP POP JUMP JUMPDEST PUSH1 0x0 PUSH2 0x119 DUP3 PUSH2 0x14C JUMP JUMPDEST SWAP2 POP PUSH2 0x124 DUP4 PUSH2 0x14C JUMP JUMPDEST SWAP3 POP DUP3 DUP3 LT ISZERO PUSH2 0x137 JUMPI PUSH2 0x136 PUSH2 0x156 JUMP JUMPDEST JUMPDEST DUP3 DUP3 SUB SWAP1 POP SWAP3 SWAP2 POP POP JUMP JUMPDEST PUSH1 0x0 DUP2 SWAP1 POP SWAP2 SWAP1 POP JUMP JUMPDEST PUSH1 0x0 DUP2 SWAP1 POP SWAP2 SWAP1 POP JUMP JUMPDEST PUSH32 0x4E487B7100000000000000000000000000000000000000000000000000000000 PUSH1 0x0 MSTORE PUSH1 0x11 PUSH1 0x4 MSTORE PUSH1 0x24 PUSH1 0x0 REVERT JUMPDEST PUSH32 0x4E487B7100000000000000000000000000000000000000000000000000000000 PUSH1 0x0 MSTORE PUSH1 0x12 PUSH1 0x4 MSTORE PUSH1 0x24 PUSH1 0x0 REVERT JUMPDEST PUSH1 0x0 DUP1 REVERT JUMPDEST PUSH2 0x1C2 DUP2 PUSH2 0x142 JUMP JUMPDEST DUP2 EQ PUSH2 0x1CD JUMPI PUSH1 0x0 DUP1 REVERT JUMPDEST POP JUMP JUMPDEST PUSH2 0x81D DUP1 PUSH3 0x1E0 PUSH1 0x0 CODECOPY PUSH1 0x0 RETURN INVALID PUSH1 0x80 PUSH1 0x40 MSTORE PUSH1 0x4 CALLDATASIZE LT PUSH2 0x86 JUMPI PUSH1 0x0 CALLDATALOAD PUSH1 0xE0 SHR DUP1 PUSH4 0x603F5088 GT PUSH2 0x59 JUMPI DUP1 PUSH4 0x603F5088 EQ PUSH2 0x135 JUMPI DUP1 PUSH4 0xD24257C0 EQ PUSH2 0x160 JUMPI DUP1 PUSH4 0xD30895E4 EQ PUSH2 0x18B JUMPI DUP1 PUSH4 0xDE32E357 EQ PUSH2 0x1B6 JUMPI DUP1 PUSH4 0xEB13175D EQ PUSH2 0x1D2 JUMPI PUSH2 0x86 JUMP JUMPDEST DUP1 PUSH4 0xCE6E680 EQ PUSH2 0x8B JUMPI DUP1 PUSH4 0x1747B48B EQ PUSH2 0xB6 JUMPI DUP1 PUSH4 0x1B99B468 EQ PUSH2 0xDF JUMPI DUP1 PUSH4 0x59A5F12D EQ PUSH2 0x10A JUMPI JUMPDEST PUSH1 0x0 DUP1 REVERT JUMPDEST CALLVALUE DUP1 ISZERO PUSH2 0x97 JUMPI PUSH1 0x0 DUP1 REVERT JUMPDEST POP PUSH2 0xA0 PUSH2 0x1FD JUMP JUMPDEST PUSH1 0x40 MLOAD PUSH2 0xAD SWAP2 SWAP1 PUSH2 0x6D6 JUMP JUMPDEST PUSH1 0x40 MLOAD DUP1 SWAP2 SUB SWAP1 RETURN JUMPDEST CALLVALUE DUP1 ISZERO PUSH2 0xC2 JUMPI PUSH1 0x0 DUP1 REVERT JUMPDEST POP PUSH2 0xDD PUSH1 0x4 DUP1 CALLDATASIZE SUB DUP2 ADD SWAP1 PUSH2 0xD8 SWAP2 SWAP1 PUSH2 0x5F8 JUMP JUMPDEST PUSH2 0x210 JUMP JUMPDEST STOP JUMPDEST CALLVALUE DUP1 ISZERO PUSH2 0xEB JUMPI PUSH1 0x0 DUP1 REVERT JUMPDEST POP PUSH2 0xF4 PUSH2 0x478 JUMP JUMPDEST PUSH1 0x40 MLOAD PUSH2 0x101 SWAP2 SWAP1 PUSH2 0x70C JUMP JUMPDEST PUSH1 0x40 MLOAD DUP1 SWAP2 SUB SWAP1 RETURN JUMPDEST CALLVALUE DUP1 ISZERO PUSH2 0x116 JUMPI PUSH1 0x0 DUP1 REVERT JUMPDEST POP PUSH2 0x11F PUSH2 0x47E JUMP JUMPDEST PUSH1 0x40 MLOAD PUSH2 0x12C SWAP2 SWAP1 PUSH2 0x6BB JUMP JUMPDEST PUSH1 0x40 MLOAD DUP1 SWAP2 SUB SWAP1 RETURN JUMPDEST CALLVALUE DUP1 ISZERO PUSH2 0x141 JUMPI PUSH1 0x0 DUP1 REVERT JUMPDEST POP PUSH2 0x14A PUSH2 0x4A4 JUMP JUMPDEST PUSH1 0x40 MLOAD PUSH2 0x157 SWAP2 SWAP1 PUSH2 0x6F1 JUMP JUMPDEST PUSH1 0x40 MLOAD DUP1 SWAP2 SUB SWAP1 RETURN JUMPDEST CALLVALUE DUP1 ISZERO PUSH2 0x16C JUMPI PUSH1 0x0 DUP1 REVERT JUMPDEST POP PUSH2 0x175 PUSH2 0x4AA JUMP JUMPDEST PUSH1 0x40 MLOAD PUSH2 0x182 SWAP2 SWAP1 PUSH2 0x70C JUMP JUMPDEST PUSH1 0x40 MLOAD DUP1 SWAP2 SUB SWAP1 RETURN JUMPDEST CALLVALUE DUP1 ISZERO PUSH2 0x197 JUMPI PUSH1 0x0 DUP1 REVERT JUMPDEST POP PUSH2 0x1A0 PUSH2 0x4B0 JUMP JUMPDEST PUSH1 0x40 MLOAD PUSH2 0x1AD SWAP2 SWAP1 PUSH2 0x6BB JUMP JUMPDEST PUSH1 0x40 MLOAD DUP1 SWAP2 SUB SWAP1 RETURN JUMPDEST PUSH2 0x1D0 PUSH1 0x4 DUP1 CALLDATASIZE SUB DUP2 ADD SWAP1 PUSH2 0x1CB SWAP2 SWAP1 PUSH2 0x5CB JUMP JUMPDEST PUSH2 0x4D4 JUMP JUMPDEST STOP JUMPDEST CALLVALUE DUP1 ISZERO PUSH2 0x1DE JUMPI PUSH1 0x0 DUP1 REVERT JUMPDEST POP PUSH2 0x1E7 PUSH2 0x59B JUMP JUMPDEST PUSH1 0x40 MLOAD PUSH2 0x1F4 SWAP2 SWAP1 PUSH2 0x6F1 JUMP JUMPDEST PUSH1 0x40 MLOAD DUP1 SWAP2 SUB SWAP1 RETURN JUMPDEST PUSH1 0x6 PUSH1 0x0 SWAP1 SLOAD SWAP1 PUSH2 0x100 EXP SWAP1 DIV PUSH1 0xFF AND DUP2 JUMP JUMPDEST PUSH1 0x0 PUSH20 0xFFFFFFFFFFFFFFFFFFFFFFFFFFFFFFFFFFFFFFFF AND PUSH1 0x1 PUSH1 0x0 SWAP1 SLOAD SWAP1 PUSH2 0x100 EXP SWAP1 DIV PUSH20 0xFFFFFFFFFFFFFFFFFFFFFFFFFFFFFFFFFFFFFFFF AND PUSH20 0xFFFFFFFFFFFFFFFFFFFFFFFFFFFFFFFFFFFFFFFF AND EQ ISZERO PUSH2 0x26C JUMPI PUSH1 0x0 DUP1 REVERT JUMPDEST PUSH1 0x2 SLOAD PUSH1 0x6 PUSH1 0x0 SWAP1 SLOAD SWAP1 PUSH2 0x100 EXP SWAP1 DIV PUSH1 0xFF AND DUP3 PUSH1 0x40 MLOAD PUSH1 0x20 ADD PUSH2 0x291 SWAP3 SWAP2 SWAP1 PUSH2 0x68F JUMP JUMPDEST PUSH1 0x40 MLOAD PUSH1 0x20 DUP2 DUP4 SUB SUB DUP2 MSTORE SWAP1 PUSH1 0x40 MSTORE DUP1 MLOAD SWAP1 PUSH1 0x20 ADD KECCAK256 EQ DUP1 PUSH2 0x2EC JUMPI POP PUSH1 0x2 SLOAD PUSH1 0x6 PUSH1 0x0 SWAP1 SLOAD SWAP1 PUSH2 0x100 EXP SWAP1 DIV PUSH1 0xFF AND ISZERO DUP3 PUSH1 0x40 MLOAD PUSH1 0x20 ADD PUSH2 0x2D4 SWAP3 SWAP2 SWAP1 PUSH2 0x68F JUMP JUMPDEST PUSH1 0x40 MLOAD PUSH1 0x20 DUP2 DUP4 SUB SUB DUP2 MSTORE SWAP1 PUSH1 0x40 MSTORE DUP1 MLOAD SWAP1 PUSH1 0x20 ADD KECCAK256 EQ JUMPDEST PUSH2 0x2F5 JUMPI PUSH1 0x0 DUP1 REVERT JUMPDEST PUSH1 0x2 SLOAD PUSH1 0x6 PUSH1 0x0 SWAP1 SLOAD SWAP1 PUSH2 0x100 EXP SWAP1 DIV PUSH1 0xFF AND DUP3 PUSH1 0x40 MLOAD PUSH1 0x20 ADD PUSH2 0x31A SWAP3 SWAP2 SWAP1 PUSH2 0x68F JUMP JUMPDEST PUSH1 0x40 MLOAD PUSH1 0x20 DUP2 DUP4 SUB SUB DUP2 MSTORE SWAP1 PUSH1 0x40 MSTORE DUP1 MLOAD SWAP1 PUSH1 0x20 ADD KECCAK256 EQ ISZERO PUSH2 0x40D JUMPI PUSH1 0x0 DUP1 SLOAD SWAP1 PUSH2 0x100 EXP SWAP1 DIV PUSH20 0xFFFFFFFFFFFFFFFFFFFFFFFFFFFFFFFFFFFFFFFF AND PUSH20 0xFFFFFFFFFFFFFFFFFFFFFFFFFFFFFFFFFFFFFFFF AND PUSH2 0x8FC PUSH1 0x5 SLOAD SWAP1 DUP2 ISZERO MUL SWAP1 PUSH1 0x40 MLOAD PUSH1 0x0 PUSH1 0x40 MLOAD DUP1 DUP4 SUB DUP2 DUP6 DUP9 DUP9 CALL SWAP4 POP POP POP POP ISZERO DUP1 ISZERO PUSH2 0x39E JUMPI RETURNDATASIZE PUSH1 0x0 DUP1 RETURNDATACOPY RETURNDATASIZE PUSH1 0x0 REVERT JUMPDEST POP PUSH1 0x1 PUSH1 0x0 SWAP1 SLOAD SWAP1 PUSH2 0x100 EXP SWAP1 DIV PUSH20 0xFFFFFFFFFFFFFFFFFFFFFFFFFFFFFFFFFFFFFFFF AND PUSH20 0xFFFFFFFFFFFFFFFFFFFFFFFFFFFFFFFFFFFFFFFF AND PUSH2 0x8FC SELFBALANCE SWAP1 DUP2 ISZERO MUL SWAP1 PUSH1 0x40 MLOAD PUSH1 0x0 PUSH1 0x40 MLOAD DUP1 DUP4 SUB DUP2 DUP6 DUP9 DUP9 CALL SWAP4 POP POP POP POP ISZERO DUP1 ISZERO PUSH2 0x407 JUMPI RETURNDATASIZE PUSH1 0x0 DUP1 RETURNDATACOPY RETURNDATASIZE PUSH1 0x0 REVERT JUMPDEST POP PUSH2 0x475 JUMP JUMPDEST PUSH1 0x0 DUP1 SLOAD SWAP1 PUSH2 0x100 EXP SWAP1 DIV PUSH20 0xFFFFFFFFFFFFFFFFFFFFFFFFFFFFFFFFFFFFFFFF AND PUSH20 0xFFFFFFFFFFFFFFFFFFFFFFFFFFFFFFFFFFFFFFFF AND PUSH2 0x8FC SELFBALANCE SWAP1 DUP2 ISZERO MUL SWAP1 PUSH1 0x40 MLOAD PUSH1 0x0 PUSH1 0x40 MLOAD DUP1 DUP4 SUB DUP2 DUP6 DUP9 DUP9 CALL SWAP4 POP POP POP POP ISZERO DUP1 ISZERO PUSH2 0x473 JUMPI RETURNDATASIZE PUSH1 0x0 DUP1 RETURNDATACOPY RETURNDATASIZE PUSH1 0x0 REVERT JUMPDEST POP JUMPDEST POP JUMP JUMPDEST PUSH1 0x5 SLOAD DUP2 JUMP JUMPDEST PUSH1 0x1 PUSH1 0x0 SWAP1 SLOAD SWAP1 PUSH2 0x100 EXP SWAP1 DIV PUSH20 0xFFFFFFFFFFFFFFFFFFFFFFFFFFFFFFFFFFFFFFFF AND DUP2 JUMP JUMPDEST PUSH1 0x3 SLOAD DUP2 JUMP JUMPDEST PUSH1 0x4 SLOAD DUP2 JUMP JUMPDEST PUSH1 0x0 DUP1 SLOAD SWAP1 PUSH2 0x100 EXP SWAP1 DIV PUSH20 0xFFFFFFFFFFFFFFFFFFFFFFFFFFFFFFFFFFFFFFFF AND DUP2 JUMP JUMPDEST PUSH1 0x0 PUSH20 0xFFFFFFFFFFFFFFFFFFFFFFFFFFFFFFFFFFFFFFFF AND PUSH1 0x1 PUSH1 0x0 SWAP1 SLOAD SWAP1 PUSH2 0x100 EXP SWAP1 DIV PUSH20 0xFFFFFFFFFFFFFFFFFFFFFFFFFFFFFFFFFFFFFFFF AND PUSH20 0xFFFFFFFFFFFFFFFFFFFFFFFFFFFFFFFFFFFFFFFF AND EQ PUSH2 0x52F JUMPI PUSH1 0x0 DUP1 REVERT JUMPDEST PUSH1 0x4 SLOAD CALLVALUE EQ PUSH2 0x53D JUMPI PUSH1 0x0 DUP1 REVERT JUMPDEST CALLER PUSH1 0x1 PUSH1 0x0 PUSH2 0x100 EXP DUP2 SLOAD DUP2 PUSH20 0xFFFFFFFFFFFFFFFFFFFFFFFFFFFFFFFFFFFFFFFF MUL NOT AND SWAP1 DUP4 PUSH20 0xFFFFFFFFFFFFFFFFFFFFFFFFFFFFFFFFFFFFFFFF AND MUL OR SWAP1 SSTORE POP DUP1 PUSH1 0x6 PUSH1 0x0 PUSH2 0x100 EXP DUP2 SLOAD DUP2 PUSH1 0xFF MUL NOT AND SWAP1 DUP4 ISZERO ISZERO MUL OR SWAP1 SSTORE POP POP JUMP JUMPDEST PUSH1 0x2 SLOAD DUP2 JUMP JUMPDEST PUSH1 0x0 DUP2 CALLDATALOAD SWAP1 POP PUSH2 0x5B0 DUP2 PUSH2 0x7B9 JUMP JUMPDEST SWAP3 SWAP2 POP POP JUMP JUMPDEST PUSH1 0x0 DUP2 CALLDATALOAD SWAP1 POP PUSH2 0x5C5 DUP2 PUSH2 0x7D0 JUMP JUMPDEST SWAP3 SWAP2 POP POP JUMP JUMPDEST PUSH1 0x0 PUSH1 0x20 DUP3 DUP5 SUB SLT ISZERO PUSH2 0x5E1 JUMPI PUSH2 0x5E0 PUSH2 0x7A7 JUMP JUMPDEST JUMPDEST PUSH1 0x0 PUSH2 0x5EF DUP5 DUP3 DUP6 ADD PUSH2 0x5A1 JUMP JUMPDEST SWAP2 POP POP SWAP3 SWAP2 POP POP JUMP JUMPDEST PUSH1 0x0 PUSH1 0x20 DUP3 DUP5 SUB SLT ISZERO PUSH2 0x60E JUMPI PUSH2 0x60D PUSH2 0x7A7 JUMP JUMPDEST JUMPDEST PUSH1 0x0 PUSH2 0x61C DUP5 DUP3 DUP6 ADD PUSH2 0x5B6 JUMP JUMPDEST SWAP2 POP POP SWAP3 SWAP2 POP POP JUMP JUMPDEST PUSH2 0x62E DUP2 PUSH2 0x727 JUMP JUMPDEST DUP3 MSTORE POP POP JUMP JUMPDEST PUSH2 0x63D DUP2 PUSH2 0x739 JUMP JUMPDEST DUP3 MSTORE POP POP JUMP JUMPDEST PUSH2 0x654 PUSH2 0x64F DUP3 PUSH2 0x739 JUMP JUMPDEST PUSH2 0x779 JUMP JUMPDEST DUP3 MSTORE POP POP JUMP JUMPDEST PUSH2 0x663 DUP2 PUSH2 0x745 JUMP JUMPDEST DUP3 MSTORE POP POP JUMP JUMPDEST PUSH2 0x672 DUP2 PUSH2 0x76F JUMP JUMPDEST DUP3 MSTORE POP POP JUMP JUMPDEST PUSH2 0x689 PUSH2 0x684 DUP3 PUSH2 0x76F JUMP JUMPDEST PUSH2 0x78B JUMP JUMPDEST DUP3 MSTORE POP POP JUMP JUMPDEST PUSH1 0x0 PUSH2 0x69B DUP3 DUP6 PUSH2 0x643 JUMP JUMPDEST PUSH1 0x1 DUP3 ADD SWAP2 POP PUSH2 0x6AB DUP3 DUP5 PUSH2 0x678 JUMP JUMPDEST PUSH1 0x20 DUP3 ADD SWAP2 POP DUP2 SWAP1 POP SWAP4 SWAP3 POP POP POP JUMP JUMPDEST PUSH1 0x0 PUSH1 0x20 DUP3 ADD SWAP1 POP PUSH2 0x6D0 PUSH1 0x0 DUP4 ADD DUP5 PUSH2 0x625 JUMP JUMPDEST SWAP3 SWAP2 POP POP JUMP JUMPDEST PUSH1 0x0 PUSH1 0x20 DUP3 ADD SWAP1 POP PUSH2 0x6EB PUSH1 0x0 DUP4 ADD DUP5 PUSH2 0x634 JUMP JUMPDEST SWAP3 SWAP2 POP POP JUMP JUMPDEST PUSH1 0x0 PUSH1 0x20 DUP3 ADD SWAP1 POP PUSH2 0x706 PUSH1 0x0 DUP4 ADD DUP5 PUSH2 0x65A JUMP JUMPDEST SWAP3 SWAP2 POP POP JUMP JUMPDEST PUSH1 0x0 PUSH1 0x20 DUP3 ADD SWAP1 POP PUSH2 0x721 PUSH1 0x0 DUP4 ADD DUP5 PUSH2 0x669 JUMP JUMPDEST SWAP3 SWAP2 POP POP JUMP JUMPDEST PUSH1 0x0 PUSH2 0x732 DUP3 PUSH2 0x74F JUMP JUMPDEST SWAP1 POP SWAP2 SWAP1 POP JUMP JUMPDEST PUSH1 0x0 DUP2 ISZERO ISZERO SWAP1 POP SWAP2 SWAP1 POP JUMP JUMPDEST PUSH1 0x0 DUP2 SWAP1 POP SWAP2 SWAP1 POP JUMP JUMPDEST PUSH1 0x0 PUSH20 0xFFFFFFFFFFFFFFFFFFFFFFFFFFFFFFFFFFFFFFFF DUP3 AND SWAP1 POP SWAP2 SWAP1 POP JUMP JUMPDEST PUSH1 0x0 DUP2 SWAP1 POP SWAP2 SWAP1 POP JUMP JUMPDEST PUSH1 0x0 PUSH2 0x784 DUP3 PUSH2 0x795 JUMP JUMPDEST SWAP1 POP SWAP2 SWAP1 POP JUMP JUMPDEST PUSH1 0x0 DUP2 SWAP1 POP SWAP2 SWAP1 POP JUMP JUMPDEST PUSH1 0x0 PUSH2 0x7A0 DUP3 PUSH2 0x7AC JUMP JUMPDEST SWAP1 POP SWAP2 SWAP1 POP JUMP JUMPDEST PUSH1 0x0 DUP1 REVERT JUMPDEST PUSH1 0x0 DUP2 PUSH1 0xF8 SHL SWAP1 POP SWAP2 SWAP1 POP JUMP JUMPDEST PUSH2 0x7C2 DUP2 PUSH2 0x739 JUMP JUMPDEST DUP2 EQ PUSH2 0x7CD JUMPI PUSH1 0x0 DUP1 REVERT JUMPDEST POP JUMP JUMPDEST PUSH2 0x7D9 DUP2 PUSH2 0x76F JUMP JUMPDEST DUP2 EQ PUSH2 0x7E4 JUMPI PUSH1 0x0 DUP1 REVERT JUMPDEST POP JUMP INVALID LOG2 PUSH5 0x6970667358 0x22 SLT KECCAK256 PUSH29 0xF7C1B4CD1F98889BC14E6791B790349A10FC1CC37A69BCA493C422A176 PUSH31 0x6464736F6C6343000807003300000000000000000000000000000000000000 "
				},
				"gasEstimates": {
					"creation": {
						"codeDepositCost": "415400",
						"executionCost": "infinite",
						"totalCost": "infinite"
					},
					"external": {
						"Reveal(uint256)": "infinite",
						"TakeBet(bool)": "53280",
						"betAmount()": "2451",
						"earnestAmount()": "2474",
						"player1()": "2555",
						"player1Commitment()": "2517",
						"player2()": "2581",
						"player2Choice()": "2472",
						"player2Commitment()": "2429"
					}
				},
				"methodIdentifiers": {
					"Reveal(uint256)": "1747b48b",
					"TakeBet(bool)": "de32e357",
					"betAmount()": "d24257c0",
					"earnestAmount()": "1b99b468",
					"player1()": "d30895e4",
					"player1Commitment()": "eb13175d",
					"player2()": "59a5f12d",
					"player2Choice()": "0ce6e680",
					"player2Commitment()": "603f5088"
				}
			},
			"storageLayout": {
				"storage": [
					{
						"astId": 3,
						"contract": "contracts/Coin2.sol:CoinFlip",
						"label": "player1",
						"offset": 0,
						"slot": "0",
						"type": "t_address_payable"
					},
					{
						"astId": 5,
						"contract": "contracts/Coin2.sol:CoinFlip",
						"label": "player2",
						"offset": 0,
						"slot": "1",
						"type": "t_address_payable"
					},
					{
						"astId": 7,
						"contract": "contracts/Coin2.sol:CoinFlip",
						"label": "player1Commitment",
						"offset": 0,
						"slot": "2",
						"type": "t_bytes32"
					},
					{
						"astId": 9,
						"contract": "contracts/Coin2.sol:CoinFlip",
						"label": "player2Commitment",
						"offset": 0,
						"slot": "3",
						"type": "t_bytes32"
					},
					{
						"astId": 11,
						"contract": "contracts/Coin2.sol:CoinFlip",
						"label": "betAmount",
						"offset": 0,
						"slot": "4",
						"type": "t_uint256"
					},
					{
						"astId": 13,
						"contract": "contracts/Coin2.sol:CoinFlip",
						"label": "earnestAmount",
						"offset": 0,
						"slot": "5",
						"type": "t_uint256"
					},
					{
						"astId": 15,
						"contract": "contracts/Coin2.sol:CoinFlip",
						"label": "player2Choice",
						"offset": 0,
						"slot": "6",
						"type": "t_bool"
					}
				],
				"types": {
					"t_address_payable": {
						"encoding": "inplace",
						"label": "address payable",
						"numberOfBytes": "20"
					},
					"t_bool": {
						"encoding": "inplace",
						"label": "bool",
						"numberOfBytes": "1"
					},
					"t_bytes32": {
						"encoding": "inplace",
						"label": "bytes32",
						"numberOfBytes": "32"
					},
					"t_uint256": {
						"encoding": "inplace",
						"label": "uint256",
						"numberOfBytes": "32"
					}
				}
			},
			"userdoc": {
				"kind": "user",
				"methods": {},
				"version": 1
			}
		}
	}
}