{
	"contracts/FundMe.sol": {
		"FundMe": {
			"abi": [
				{
					"inputs": [
						{
							"internalType": "address",
							"name": "",
							"type": "address"
						}
					],
					"name": "addrToAmtFunded",
					"outputs": [
						{
							"internalType": "uint256",
							"name": "",
							"type": "uint256"
						}
					],
					"stateMutability": "view",
					"type": "function"
				},
				{
					"inputs": [],
					"name": "fund",
					"outputs": [],
					"stateMutability": "payable",
					"type": "function"
				},
				{
					"inputs": [
						{
							"internalType": "uint256",
							"name": "ethAmt",
							"type": "uint256"
						}
					],
					"name": "getConvRate",
					"outputs": [
						{
							"internalType": "uint256",
							"name": "",
							"type": "uint256"
						}
					],
					"stateMutability": "view",
					"type": "function"
				},
				{
					"inputs": [],
					"name": "getPrice",
					"outputs": [
						{
							"internalType": "uint256",
							"name": "",
							"type": "uint256"
						}
					],
					"stateMutability": "view",
					"type": "function"
				},
				{
					"inputs": [],
					"name": "getVer",
					"outputs": [
						{
							"internalType": "uint256",
							"name": "",
							"type": "uint256"
						}
					],
					"stateMutability": "view",
					"type": "function"
				}
			],
			"devdoc": {
				"kind": "dev",
				"methods": {},
				"version": 1
			},
			"evm": {
				"assembly": "    /* \"contracts/FundMe.sol\":491:1376  contract FundMe {\r... */\n  mstore(0x40, 0x80)\n    /* \"contracts/FundMe.sol\":547:589  0xD4a33860578De61DBAbDc8BFdb98FD742fA7028e */\n  0xd4a33860578de61dbabdc8bfdb98fd742fa7028e\n    /* \"contracts/FundMe.sol\":514:589  address GOERLI_TESTNET_ETH_USD = 0xD4a33860578De61DBAbDc8BFdb98FD742fA7028e */\n  0x00\n  dup1\n  0x0100\n  exp\n  dup2\n  sload\n  dup2\n  0xffffffffffffffffffffffffffffffffffffffff\n  mul\n  not\n  and\n  swap1\n  dup4\n  0xffffffffffffffffffffffffffffffffffffffff\n  and\n  mul\n  or\n  swap1\n  sstore\n  pop\n    /* \"contracts/FundMe.sol\":491:1376  contract FundMe {\r... */\n  callvalue\n  dup1\n  iszero\n  tag_1\n  jumpi\n  0x00\n  dup1\n  revert\ntag_1:\n  pop\n  dataSize(sub_0)\n  dup1\n  dataOffset(sub_0)\n  0x00\n  codecopy\n  0x00\n  return\nstop\n\nsub_0: assembly {\n        /* \"contracts/FundMe.sol\":491:1376  contract FundMe {\r... */\n      mstore(0x40, 0x80)\n      jumpi(tag_1, lt(calldatasize, 0x04))\n      shr(0xe0, calldataload(0x00))\n      dup1\n      0x0504b2cd\n      eq\n      tag_2\n      jumpi\n      dup1\n      0x8793ad55\n      eq\n      tag_3\n      jumpi\n      dup1\n      0x98d5fdca\n      eq\n      tag_4\n      jumpi\n      dup1\n      0xb062654f\n      eq\n      tag_5\n      jumpi\n      dup1\n      0xb60d4288\n      eq\n      tag_6\n      jumpi\n    tag_1:\n      0x00\n      dup1\n      revert\n        /* \"contracts/FundMe.sol\":596:643  mapping(address => uint) public addrToAmtFunded */\n    tag_2:\n      callvalue\n      dup1\n      iszero\n      tag_7\n      jumpi\n      0x00\n      dup1\n      revert\n    tag_7:\n      pop\n      tag_8\n      0x04\n      dup1\n      calldatasize\n      sub\n      dup2\n      add\n      swap1\n      tag_9\n      swap2\n      swap1\n      tag_10\n      jump\t// in\n    tag_9:\n      tag_11\n      jump\t// in\n    tag_8:\n      mload(0x40)\n      tag_12\n      swap2\n      swap1\n      tag_13\n      jump\t// in\n    tag_12:\n      mload(0x40)\n      dup1\n      swap2\n      sub\n      swap1\n      return\n        /* \"contracts/FundMe.sol\":750:929  function getVer() public view returns(uint) {\r... */\n    tag_3:\n      callvalue\n      dup1\n      iszero\n      tag_14\n      jumpi\n      0x00\n      dup1\n      revert\n    tag_14:\n      pop\n      tag_15\n      tag_16\n      jump\t// in\n    tag_15:\n      mload(0x40)\n      tag_17\n      swap2\n      swap1\n      tag_13\n      jump\t// in\n    tag_17:\n      mload(0x40)\n      dup1\n      swap2\n      sub\n      swap1\n      return\n        /* \"contracts/FundMe.sol\":937:1180  function getPrice() public view returns(uint) {\r... */\n    tag_4:\n      callvalue\n      dup1\n      iszero\n      tag_18\n      jumpi\n      0x00\n      dup1\n      revert\n    tag_18:\n      pop\n      tag_19\n      tag_20\n      jump\t// in\n    tag_19:\n      mload(0x40)\n      tag_21\n      swap2\n      swap1\n      tag_13\n      jump\t// in\n    tag_21:\n      mload(0x40)\n      dup1\n      swap2\n      sub\n      swap1\n      return\n        /* \"contracts/FundMe.sol\":1188:1371  function getConvRate(uint ethAmt) public view returns(uint) {\r... */\n    tag_5:\n      callvalue\n      dup1\n      iszero\n      tag_22\n      jumpi\n      0x00\n      dup1\n      revert\n    tag_22:\n      pop\n      tag_23\n      0x04\n      dup1\n      calldatasize\n      sub\n      dup2\n      add\n      swap1\n      tag_24\n      swap2\n      swap1\n      tag_25\n      jump\t// in\n    tag_24:\n      tag_26\n      jump\t// in\n    tag_23:\n      mload(0x40)\n      tag_27\n      swap2\n      swap1\n      tag_13\n      jump\t// in\n    tag_27:\n      mload(0x40)\n      dup1\n      swap2\n      sub\n      swap1\n      return\n        /* \"contracts/FundMe.sol\":652:742  function fund() public payable {\r... */\n    tag_6:\n      tag_28\n      tag_29\n      jump\t// in\n    tag_28:\n      stop\n        /* \"contracts/FundMe.sol\":596:643  mapping(address => uint) public addrToAmtFunded */\n    tag_11:\n      mstore(0x20, 0x01)\n      dup1\n      0x00\n      mstore\n      keccak256(0x00, 0x40)\n      0x00\n      swap2\n      pop\n      swap1\n      pop\n      sload\n      dup2\n      jump\t// out\n        /* \"contracts/FundMe.sol\":750:929  function getVer() public view returns(uint) {\r... */\n    tag_16:\n        /* \"contracts/FundMe.sol\":788:792  uint */\n      0x00\n        /* \"contracts/FundMe.sol\":805:836  AggregatorV3Interface priceFeed */\n      dup1\n        /* \"contracts/FundMe.sol\":861:883  GOERLI_TESTNET_ETH_USD */\n      0x00\n      dup1\n      sload\n      swap1\n      0x0100\n      exp\n      swap1\n      div\n      0xffffffffffffffffffffffffffffffffffffffff\n      and\n        /* \"contracts/FundMe.sol\":805:884  AggregatorV3Interface priceFeed = AggregatorV3Interface(GOERLI_TESTNET_ETH_USD) */\n      swap1\n      pop\n        /* \"contracts/FundMe.sol\":902:911  priceFeed */\n      dup1\n        /* \"contracts/FundMe.sol\":902:919  priceFeed.version */\n      0xffffffffffffffffffffffffffffffffffffffff\n      and\n      0x54fd4d50\n        /* \"contracts/FundMe.sol\":902:921  priceFeed.version() */\n      mload(0x40)\n      dup2\n      0xffffffff\n      and\n      0xe0\n      shl\n      dup2\n      mstore\n      0x04\n      add\n      0x20\n      mload(0x40)\n      dup1\n      dup4\n      sub\n      dup2\n      dup7\n      dup1\n      extcodesize\n      iszero\n      dup1\n      iszero\n      tag_31\n      jumpi\n      0x00\n      dup1\n      revert\n    tag_31:\n      pop\n      gas\n      staticcall\n      iszero\n      dup1\n      iszero\n      tag_33\n      jumpi\n      returndatasize\n      0x00\n      dup1\n      returndatacopy\n      revert(0x00, returndatasize)\n    tag_33:\n      pop\n      pop\n      pop\n      pop\n      mload(0x40)\n      returndatasize\n      not(0x1f)\n      0x1f\n      dup3\n      add\n      and\n      dup3\n      add\n      dup1\n      0x40\n      mstore\n      pop\n      dup2\n      add\n      swap1\n      tag_34\n      swap2\n      swap1\n      tag_35\n      jump\t// in\n    tag_34:\n        /* \"contracts/FundMe.sol\":895:921  return priceFeed.version() */\n      swap2\n      pop\n      pop\n        /* \"contracts/FundMe.sol\":750:929  function getVer() public view returns(uint) {\r... */\n      swap1\n      jump\t// out\n        /* \"contracts/FundMe.sol\":937:1180  function getPrice() public view returns(uint) {\r... */\n    tag_20:\n        /* \"contracts/FundMe.sol\":977:981  uint */\n      0x00\n        /* \"contracts/FundMe.sol\":994:1025  AggregatorV3Interface priceFeed */\n      dup1\n        /* \"contracts/FundMe.sol\":1050:1072  GOERLI_TESTNET_ETH_USD */\n      0x00\n      dup1\n      sload\n      swap1\n      0x0100\n      exp\n      swap1\n      div\n      0xffffffffffffffffffffffffffffffffffffffff\n      and\n        /* \"contracts/FundMe.sol\":994:1073  AggregatorV3Interface priceFeed = AggregatorV3Interface(GOERLI_TESTNET_ETH_USD) */\n      swap1\n      pop\n        /* \"contracts/FundMe.sol\":1086:1099  int256 answer */\n      0x00\n        /* \"contracts/FundMe.sol\":1106:1115  priceFeed */\n      dup2\n        /* \"contracts/FundMe.sol\":1106:1131  priceFeed.latestRoundData */\n      0xffffffffffffffffffffffffffffffffffffffff\n      and\n      0xfeaf968c\n        /* \"contracts/FundMe.sol\":1106:1133  priceFeed.latestRoundData() */\n      mload(0x40)\n      dup2\n      0xffffffff\n      and\n      0xe0\n      shl\n      dup2\n      mstore\n      0x04\n      add\n      0xa0\n      mload(0x40)\n      dup1\n      dup4\n      sub\n      dup2\n      dup7\n      dup1\n      extcodesize\n      iszero\n      dup1\n      iszero\n      tag_37\n      jumpi\n      0x00\n      dup1\n      revert\n    tag_37:\n      pop\n      gas\n      staticcall\n      iszero\n      dup1\n      iszero\n      tag_39\n      jumpi\n      returndatasize\n      0x00\n      dup1\n      returndatacopy\n      revert(0x00, returndatasize)\n    tag_39:\n      pop\n      pop\n      pop\n      pop\n      mload(0x40)\n      returndatasize\n      not(0x1f)\n      0x1f\n      dup3\n      add\n      and\n      dup3\n      add\n      dup1\n      0x40\n      mstore\n      pop\n      dup2\n      add\n      swap1\n      tag_40\n      swap2\n      swap1\n      tag_41\n      jump\t// in\n    tag_40:\n        /* \"contracts/FundMe.sol\":1084:1133  (,int256 answer,,,) = priceFeed.latestRoundData() */\n      pop\n      pop\n      pop\n      swap2\n      pop\n      pop\n        /* \"contracts/FundMe.sol\":1166:1171  10**8 */\n      0x05f5e100\n        /* \"contracts/FundMe.sol\":1157:1163  answer */\n      dup2\n        /* \"contracts/FundMe.sol\":1157:1171  answer / 10**8 */\n      tag_42\n      swap2\n      swap1\n      tag_43\n      jump\t// in\n    tag_42:\n        /* \"contracts/FundMe.sol\":1144:1172  return uint (answer / 10**8) */\n      swap3\n      pop\n      pop\n      pop\n        /* \"contracts/FundMe.sol\":937:1180  function getPrice() public view returns(uint) {\r... */\n      swap1\n      jump\t// out\n        /* \"contracts/FundMe.sol\":1188:1371  function getConvRate(uint ethAmt) public view returns(uint) {\r... */\n    tag_26:\n        /* \"contracts/FundMe.sol\":1242:1246  uint */\n      0x00\n        /* \"contracts/FundMe.sol\":1259:1272  uint ethPrice */\n      dup1\n        /* \"contracts/FundMe.sol\":1275:1285  getPrice() */\n      tag_45\n        /* \"contracts/FundMe.sol\":1275:1283  getPrice */\n      tag_20\n        /* \"contracts/FundMe.sol\":1275:1285  getPrice() */\n      jump\t// in\n    tag_45:\n        /* \"contracts/FundMe.sol\":1259:1285  uint ethPrice = getPrice() */\n      swap1\n      pop\n        /* \"contracts/FundMe.sol\":1296:1312  uint ethAmtInUsd */\n      0x00\n        /* \"contracts/FundMe.sol\":1327:1333  ethAmt */\n      dup4\n        /* \"contracts/FundMe.sol\":1316:1324  ethPrice */\n      dup3\n        /* \"contracts/FundMe.sol\":1316:1333  ethPrice * ethAmt */\n      tag_46\n      swap2\n      swap1\n      tag_47\n      jump\t// in\n    tag_46:\n        /* \"contracts/FundMe.sol\":1296:1334  uint ethAmtInUsd = (ethPrice * ethAmt) */\n      swap1\n      pop\n        /* \"contracts/FundMe.sol\":1352:1363  ethAmtInUsd */\n      dup1\n        /* \"contracts/FundMe.sol\":1345:1363  return ethAmtInUsd */\n      swap3\n      pop\n      pop\n      pop\n        /* \"contracts/FundMe.sol\":1188:1371  function getConvRate(uint ethAmt) public view returns(uint) {\r... */\n      swap2\n      swap1\n      pop\n      jump\t// out\n        /* \"contracts/FundMe.sol\":652:742  function fund() public payable {\r... */\n    tag_29:\n        /* \"contracts/FundMe.sol\":725:734  msg.value */\n      callvalue\n        /* \"contracts/FundMe.sol\":694:709  addrToAmtFunded */\n      0x01\n        /* \"contracts/FundMe.sol\":694:721  addrToAmtFunded[msg.sender] */\n      0x00\n        /* \"contracts/FundMe.sol\":710:720  msg.sender */\n      caller\n        /* \"contracts/FundMe.sol\":694:721  addrToAmtFunded[msg.sender] */\n      0xffffffffffffffffffffffffffffffffffffffff\n      and\n      0xffffffffffffffffffffffffffffffffffffffff\n      and\n      dup2\n      mstore\n      0x20\n      add\n      swap1\n      dup2\n      mstore\n      0x20\n      add\n      0x00\n      keccak256\n      0x00\n        /* \"contracts/FundMe.sol\":694:734  addrToAmtFunded[msg.sender] += msg.value */\n      dup3\n      dup3\n      sload\n      tag_49\n      swap2\n      swap1\n      tag_50\n      jump\t// in\n    tag_49:\n      swap3\n      pop\n      pop\n      dup2\n      swap1\n      sstore\n      pop\n        /* \"contracts/FundMe.sol\":652:742  function fund() public payable {\r... */\n      jump\t// out\n        /* \"#utility.yul\":7:146   */\n    tag_52:\n      0x00\n        /* \"#utility.yul\":91:97   */\n      dup2\n        /* \"#utility.yul\":78:98   */\n      calldataload\n        /* \"#utility.yul\":69:98   */\n      swap1\n      pop\n        /* \"#utility.yul\":107:140   */\n      tag_54\n        /* \"#utility.yul\":134:139   */\n      dup2\n        /* \"#utility.yul\":107:140   */\n      tag_55\n      jump\t// in\n    tag_54:\n        /* \"#utility.yul\":59:146   */\n      swap3\n      swap2\n      pop\n      pop\n      jump\t// out\n        /* \"#utility.yul\":152:293   */\n    tag_56:\n      0x00\n        /* \"#utility.yul\":239:245   */\n      dup2\n        /* \"#utility.yul\":233:246   */\n      mload\n        /* \"#utility.yul\":224:246   */\n      swap1\n      pop\n        /* \"#utility.yul\":255:287   */\n      tag_58\n        /* \"#utility.yul\":281:286   */\n      dup2\n        /* \"#utility.yul\":255:287   */\n      tag_59\n      jump\t// in\n    tag_58:\n        /* \"#utility.yul\":214:293   */\n      swap3\n      swap2\n      pop\n      pop\n      jump\t// out\n        /* \"#utility.yul\":299:438   */\n    tag_60:\n      0x00\n        /* \"#utility.yul\":383:389   */\n      dup2\n        /* \"#utility.yul\":370:390   */\n      calldataload\n        /* \"#utility.yul\":361:390   */\n      swap1\n      pop\n        /* \"#utility.yul\":399:432   */\n      tag_62\n        /* \"#utility.yul\":426:431   */\n      dup2\n        /* \"#utility.yul\":399:432   */\n      tag_63\n      jump\t// in\n    tag_62:\n        /* \"#utility.yul\":351:438   */\n      swap3\n      swap2\n      pop\n      pop\n      jump\t// out\n        /* \"#utility.yul\":444:587   */\n    tag_64:\n      0x00\n        /* \"#utility.yul\":532:538   */\n      dup2\n        /* \"#utility.yul\":526:539   */\n      mload\n        /* \"#utility.yul\":517:539   */\n      swap1\n      pop\n        /* \"#utility.yul\":548:581   */\n      tag_66\n        /* \"#utility.yul\":575:580   */\n      dup2\n        /* \"#utility.yul\":548:581   */\n      tag_63\n      jump\t// in\n    tag_66:\n        /* \"#utility.yul\":507:587   */\n      swap3\n      swap2\n      pop\n      pop\n      jump\t// out\n        /* \"#utility.yul\":593:734   */\n    tag_67:\n      0x00\n        /* \"#utility.yul\":680:686   */\n      dup2\n        /* \"#utility.yul\":674:687   */\n      mload\n        /* \"#utility.yul\":665:687   */\n      swap1\n      pop\n        /* \"#utility.yul\":696:728   */\n      tag_69\n        /* \"#utility.yul\":722:727   */\n      dup2\n        /* \"#utility.yul\":696:728   */\n      tag_70\n      jump\t// in\n    tag_69:\n        /* \"#utility.yul\":655:734   */\n      swap3\n      swap2\n      pop\n      pop\n      jump\t// out\n        /* \"#utility.yul\":740:1002   */\n    tag_10:\n      0x00\n        /* \"#utility.yul\":848:850   */\n      0x20\n        /* \"#utility.yul\":836:845   */\n      dup3\n        /* \"#utility.yul\":827:834   */\n      dup5\n        /* \"#utility.yul\":823:846   */\n      sub\n        /* \"#utility.yul\":819:851   */\n      slt\n        /* \"#utility.yul\":816:818   */\n      iszero\n      tag_72\n      jumpi\n        /* \"#utility.yul\":864:865   */\n      0x00\n        /* \"#utility.yul\":861:862   */\n      dup1\n        /* \"#utility.yul\":854:866   */\n      revert\n        /* \"#utility.yul\":816:818   */\n    tag_72:\n        /* \"#utility.yul\":907:908   */\n      0x00\n        /* \"#utility.yul\":932:985   */\n      tag_73\n        /* \"#utility.yul\":977:984   */\n      dup5\n        /* \"#utility.yul\":968:974   */\n      dup3\n        /* \"#utility.yul\":957:966   */\n      dup6\n        /* \"#utility.yul\":953:975   */\n      add\n        /* \"#utility.yul\":932:985   */\n      tag_52\n      jump\t// in\n    tag_73:\n        /* \"#utility.yul\":922:985   */\n      swap2\n      pop\n        /* \"#utility.yul\":878:995   */\n      pop\n        /* \"#utility.yul\":806:1002   */\n      swap3\n      swap2\n      pop\n      pop\n      jump\t// out\n        /* \"#utility.yul\":1008:1270   */\n    tag_25:\n      0x00\n        /* \"#utility.yul\":1116:1118   */\n      0x20\n        /* \"#utility.yul\":1104:1113   */\n      dup3\n        /* \"#utility.yul\":1095:1102   */\n      dup5\n        /* \"#utility.yul\":1091:1114   */\n      sub\n        /* \"#utility.yul\":1087:1119   */\n      slt\n        /* \"#utility.yul\":1084:1086   */\n      iszero\n      tag_75\n      jumpi\n        /* \"#utility.yul\":1132:1133   */\n      0x00\n        /* \"#utility.yul\":1129:1130   */\n      dup1\n        /* \"#utility.yul\":1122:1134   */\n      revert\n        /* \"#utility.yul\":1084:1086   */\n    tag_75:\n        /* \"#utility.yul\":1175:1176   */\n      0x00\n        /* \"#utility.yul\":1200:1253   */\n      tag_76\n        /* \"#utility.yul\":1245:1252   */\n      dup5\n        /* \"#utility.yul\":1236:1242   */\n      dup3\n        /* \"#utility.yul\":1225:1234   */\n      dup6\n        /* \"#utility.yul\":1221:1243   */\n      add\n        /* \"#utility.yul\":1200:1253   */\n      tag_60\n      jump\t// in\n    tag_76:\n        /* \"#utility.yul\":1190:1253   */\n      swap2\n      pop\n        /* \"#utility.yul\":1146:1263   */\n      pop\n        /* \"#utility.yul\":1074:1270   */\n      swap3\n      swap2\n      pop\n      pop\n      jump\t// out\n        /* \"#utility.yul\":1276:1560   */\n    tag_35:\n      0x00\n        /* \"#utility.yul\":1395:1397   */\n      0x20\n        /* \"#utility.yul\":1383:1392   */\n      dup3\n        /* \"#utility.yul\":1374:1381   */\n      dup5\n        /* \"#utility.yul\":1370:1393   */\n      sub\n        /* \"#utility.yul\":1366:1398   */\n      slt\n        /* \"#utility.yul\":1363:1365   */\n      iszero\n      tag_78\n      jumpi\n        /* \"#utility.yul\":1411:1412   */\n      0x00\n        /* \"#utility.yul\":1408:1409   */\n      dup1\n        /* \"#utility.yul\":1401:1413   */\n      revert\n        /* \"#utility.yul\":1363:1365   */\n    tag_78:\n        /* \"#utility.yul\":1454:1455   */\n      0x00\n        /* \"#utility.yul\":1479:1543   */\n      tag_79\n        /* \"#utility.yul\":1535:1542   */\n      dup5\n        /* \"#utility.yul\":1526:1532   */\n      dup3\n        /* \"#utility.yul\":1515:1524   */\n      dup6\n        /* \"#utility.yul\":1511:1533   */\n      add\n        /* \"#utility.yul\":1479:1543   */\n      tag_64\n      jump\t// in\n    tag_79:\n        /* \"#utility.yul\":1469:1543   */\n      swap2\n      pop\n        /* \"#utility.yul\":1425:1553   */\n      pop\n        /* \"#utility.yul\":1353:1560   */\n      swap3\n      swap2\n      pop\n      pop\n      jump\t// out\n        /* \"#utility.yul\":1566:2470   */\n    tag_41:\n      0x00\n      dup1\n      0x00\n      dup1\n      0x00\n        /* \"#utility.yul\":1750:1753   */\n      0xa0\n        /* \"#utility.yul\":1738:1747   */\n      dup7\n        /* \"#utility.yul\":1729:1736   */\n      dup9\n        /* \"#utility.yul\":1725:1748   */\n      sub\n        /* \"#utility.yul\":1721:1754   */\n      slt\n        /* \"#utility.yul\":1718:1720   */\n      iszero\n      tag_81\n      jumpi\n        /* \"#utility.yul\":1767:1768   */\n      0x00\n        /* \"#utility.yul\":1764:1765   */\n      dup1\n        /* \"#utility.yul\":1757:1769   */\n      revert\n        /* \"#utility.yul\":1718:1720   */\n    tag_81:\n        /* \"#utility.yul\":1810:1811   */\n      0x00\n        /* \"#utility.yul\":1835:1898   */\n      tag_82\n        /* \"#utility.yul\":1890:1897   */\n      dup9\n        /* \"#utility.yul\":1881:1887   */\n      dup3\n        /* \"#utility.yul\":1870:1879   */\n      dup10\n        /* \"#utility.yul\":1866:1888   */\n      add\n        /* \"#utility.yul\":1835:1898   */\n      tag_67\n      jump\t// in\n    tag_82:\n        /* \"#utility.yul\":1825:1898   */\n      swap6\n      pop\n        /* \"#utility.yul\":1781:1908   */\n      pop\n        /* \"#utility.yul\":1947:1949   */\n      0x20\n        /* \"#utility.yul\":1973:2036   */\n      tag_83\n        /* \"#utility.yul\":2028:2035   */\n      dup9\n        /* \"#utility.yul\":2019:2025   */\n      dup3\n        /* \"#utility.yul\":2008:2017   */\n      dup10\n        /* \"#utility.yul\":2004:2026   */\n      add\n        /* \"#utility.yul\":1973:2036   */\n      tag_56\n      jump\t// in\n    tag_83:\n        /* \"#utility.yul\":1963:2036   */\n      swap5\n      pop\n        /* \"#utility.yul\":1918:2046   */\n      pop\n        /* \"#utility.yul\":2085:2087   */\n      0x40\n        /* \"#utility.yul\":2111:2175   */\n      tag_84\n        /* \"#utility.yul\":2167:2174   */\n      dup9\n        /* \"#utility.yul\":2158:2164   */\n      dup3\n        /* \"#utility.yul\":2147:2156   */\n      dup10\n        /* \"#utility.yul\":2143:2165   */\n      add\n        /* \"#utility.yul\":2111:2175   */\n      tag_64\n      jump\t// in\n    tag_84:\n        /* \"#utility.yul\":2101:2175   */\n      swap4\n      pop\n        /* \"#utility.yul\":2056:2185   */\n      pop\n        /* \"#utility.yul\":2224:2226   */\n      0x60\n        /* \"#utility.yul\":2250:2314   */\n      tag_85\n        /* \"#utility.yul\":2306:2313   */\n      dup9\n        /* \"#utility.yul\":2297:2303   */\n      dup3\n        /* \"#utility.yul\":2286:2295   */\n      dup10\n        /* \"#utility.yul\":2282:2304   */\n      add\n        /* \"#utility.yul\":2250:2314   */\n      tag_64\n      jump\t// in\n    tag_85:\n        /* \"#utility.yul\":2240:2314   */\n      swap3\n      pop\n        /* \"#utility.yul\":2195:2324   */\n      pop\n        /* \"#utility.yul\":2363:2366   */\n      0x80\n        /* \"#utility.yul\":2390:2453   */\n      tag_86\n        /* \"#utility.yul\":2445:2452   */\n      dup9\n        /* \"#utility.yul\":2436:2442   */\n      dup3\n        /* \"#utility.yul\":2425:2434   */\n      dup10\n        /* \"#utility.yul\":2421:2443   */\n      add\n        /* \"#utility.yul\":2390:2453   */\n      tag_67\n      jump\t// in\n    tag_86:\n        /* \"#utility.yul\":2380:2453   */\n      swap2\n      pop\n        /* \"#utility.yul\":2334:2463   */\n      pop\n        /* \"#utility.yul\":1708:2470   */\n      swap3\n      swap6\n      pop\n      swap3\n      swap6\n      swap1\n      swap4\n      pop\n      jump\t// out\n        /* \"#utility.yul\":2476:2594   */\n    tag_87:\n        /* \"#utility.yul\":2563:2587   */\n      tag_89\n        /* \"#utility.yul\":2581:2586   */\n      dup2\n        /* \"#utility.yul\":2563:2587   */\n      tag_90\n      jump\t// in\n    tag_89:\n        /* \"#utility.yul\":2558:2561   */\n      dup3\n        /* \"#utility.yul\":2551:2588   */\n      mstore\n        /* \"#utility.yul\":2541:2594   */\n      pop\n      pop\n      jump\t// out\n        /* \"#utility.yul\":2600:2822   */\n    tag_13:\n      0x00\n        /* \"#utility.yul\":2731:2733   */\n      0x20\n        /* \"#utility.yul\":2720:2729   */\n      dup3\n        /* \"#utility.yul\":2716:2734   */\n      add\n        /* \"#utility.yul\":2708:2734   */\n      swap1\n      pop\n        /* \"#utility.yul\":2744:2815   */\n      tag_92\n        /* \"#utility.yul\":2812:2813   */\n      0x00\n        /* \"#utility.yul\":2801:2810   */\n      dup4\n        /* \"#utility.yul\":2797:2814   */\n      add\n        /* \"#utility.yul\":2788:2794   */\n      dup5\n        /* \"#utility.yul\":2744:2815   */\n      tag_87\n      jump\t// in\n    tag_92:\n        /* \"#utility.yul\":2698:2822   */\n      swap3\n      swap2\n      pop\n      pop\n      jump\t// out\n        /* \"#utility.yul\":2828:3133   */\n    tag_50:\n      0x00\n        /* \"#utility.yul\":2887:2907   */\n      tag_94\n        /* \"#utility.yul\":2905:2906   */\n      dup3\n        /* \"#utility.yul\":2887:2907   */\n      tag_90\n      jump\t// in\n    tag_94:\n        /* \"#utility.yul\":2882:2907   */\n      swap2\n      pop\n        /* \"#utility.yul\":2921:2941   */\n      tag_95\n        /* \"#utility.yul\":2939:2940   */\n      dup4\n        /* \"#utility.yul\":2921:2941   */\n      tag_90\n      jump\t// in\n    tag_95:\n        /* \"#utility.yul\":2916:2941   */\n      swap3\n      pop\n        /* \"#utility.yul\":3075:3076   */\n      dup3\n        /* \"#utility.yul\":3007:3073   */\n      0xffffffffffffffffffffffffffffffffffffffffffffffffffffffffffffffff\n        /* \"#utility.yul\":3003:3077   */\n      sub\n        /* \"#utility.yul\":3000:3001   */\n      dup3\n        /* \"#utility.yul\":2997:3078   */\n      gt\n        /* \"#utility.yul\":2994:2996   */\n      iszero\n      tag_96\n      jumpi\n        /* \"#utility.yul\":3081:3099   */\n      tag_97\n      tag_98\n      jump\t// in\n    tag_97:\n        /* \"#utility.yul\":2994:2996   */\n    tag_96:\n        /* \"#utility.yul\":3125:3126   */\n      dup3\n        /* \"#utility.yul\":3122:3123   */\n      dup3\n        /* \"#utility.yul\":3118:3127   */\n      add\n        /* \"#utility.yul\":3111:3127   */\n      swap1\n      pop\n        /* \"#utility.yul\":2872:3133   */\n      swap3\n      swap2\n      pop\n      pop\n      jump\t// out\n        /* \"#utility.yul\":3139:3524   */\n    tag_43:\n      0x00\n        /* \"#utility.yul\":3195:3214   */\n      tag_100\n        /* \"#utility.yul\":3212:3213   */\n      dup3\n        /* \"#utility.yul\":3195:3214   */\n      tag_101\n      jump\t// in\n    tag_100:\n        /* \"#utility.yul\":3190:3214   */\n      swap2\n      pop\n        /* \"#utility.yul\":3228:3247   */\n      tag_102\n        /* \"#utility.yul\":3245:3246   */\n      dup4\n        /* \"#utility.yul\":3228:3247   */\n      tag_101\n      jump\t// in\n    tag_102:\n        /* \"#utility.yul\":3223:3247   */\n      swap3\n      pop\n        /* \"#utility.yul\":3266:3267   */\n      dup3\n        /* \"#utility.yul\":3256:3258   */\n      tag_103\n      jumpi\n        /* \"#utility.yul\":3271:3289   */\n      tag_104\n      tag_105\n      jump\t// in\n    tag_104:\n        /* \"#utility.yul\":3256:3258   */\n    tag_103:\n        /* \"#utility.yul\":3457:3458   */\n      0x01\n        /* \"#utility.yul\":3454:3455   */\n      0x00\n        /* \"#utility.yul\":3450:3459   */\n      sub\n        /* \"#utility.yul\":3447:3448   */\n      dup4\n        /* \"#utility.yul\":3444:3460   */\n      eq\n        /* \"#utility.yul\":3363:3429   */\n      0x8000000000000000000000000000000000000000000000000000000000000000\n        /* \"#utility.yul\":3360:3361   */\n      dup4\n        /* \"#utility.yul\":3357:3430   */\n      eq\n        /* \"#utility.yul\":3340:3470   */\n      and\n        /* \"#utility.yul\":3337:3339   */\n      iszero\n      tag_106\n      jumpi\n        /* \"#utility.yul\":3473:3491   */\n      tag_107\n      tag_98\n      jump\t// in\n    tag_107:\n        /* \"#utility.yul\":3337:3339   */\n    tag_106:\n        /* \"#utility.yul\":3516:3517   */\n      dup3\n        /* \"#utility.yul\":3513:3514   */\n      dup3\n        /* \"#utility.yul\":3508:3518   */\n      sdiv\n        /* \"#utility.yul\":3503:3518   */\n      swap1\n      pop\n        /* \"#utility.yul\":3180:3524   */\n      swap3\n      swap2\n      pop\n      pop\n      jump\t// out\n        /* \"#utility.yul\":3530:3878   */\n    tag_47:\n      0x00\n        /* \"#utility.yul\":3593:3613   */\n      tag_109\n        /* \"#utility.yul\":3611:3612   */\n      dup3\n        /* \"#utility.yul\":3593:3613   */\n      tag_90\n      jump\t// in\n    tag_109:\n        /* \"#utility.yul\":3588:3613   */\n      swap2\n      pop\n        /* \"#utility.yul\":3627:3647   */\n      tag_110\n        /* \"#utility.yul\":3645:3646   */\n      dup4\n        /* \"#utility.yul\":3627:3647   */\n      tag_90\n      jump\t// in\n    tag_110:\n        /* \"#utility.yul\":3622:3647   */\n      swap3\n      pop\n        /* \"#utility.yul\":3815:3816   */\n      dup2\n        /* \"#utility.yul\":3747:3813   */\n      0xffffffffffffffffffffffffffffffffffffffffffffffffffffffffffffffff\n        /* \"#utility.yul\":3743:3817   */\n      div\n        /* \"#utility.yul\":3740:3741   */\n      dup4\n        /* \"#utility.yul\":3737:3818   */\n      gt\n        /* \"#utility.yul\":3732:3733   */\n      dup3\n        /* \"#utility.yul\":3725:3734   */\n      iszero\n        /* \"#utility.yul\":3718:3735   */\n      iszero\n        /* \"#utility.yul\":3714:3819   */\n      and\n        /* \"#utility.yul\":3711:3713   */\n      iszero\n      tag_111\n      jumpi\n        /* \"#utility.yul\":3822:3840   */\n      tag_112\n      tag_98\n      jump\t// in\n    tag_112:\n        /* \"#utility.yul\":3711:3713   */\n    tag_111:\n        /* \"#utility.yul\":3870:3871   */\n      dup3\n        /* \"#utility.yul\":3867:3868   */\n      dup3\n        /* \"#utility.yul\":3863:3872   */\n      mul\n        /* \"#utility.yul\":3852:3872   */\n      swap1\n      pop\n        /* \"#utility.yul\":3578:3878   */\n      swap3\n      swap2\n      pop\n      pop\n      jump\t// out\n        /* \"#utility.yul\":3884:3980   */\n    tag_113:\n      0x00\n        /* \"#utility.yul\":3950:3974   */\n      tag_115\n        /* \"#utility.yul\":3968:3973   */\n      dup3\n        /* \"#utility.yul\":3950:3974   */\n      tag_116\n      jump\t// in\n    tag_115:\n        /* \"#utility.yul\":3939:3974   */\n      swap1\n      pop\n        /* \"#utility.yul\":3929:3980   */\n      swap2\n      swap1\n      pop\n      jump\t// out\n        /* \"#utility.yul\":3986:4062   */\n    tag_101:\n      0x00\n        /* \"#utility.yul\":4051:4056   */\n      dup2\n        /* \"#utility.yul\":4040:4056   */\n      swap1\n      pop\n        /* \"#utility.yul\":4030:4062   */\n      swap2\n      swap1\n      pop\n      jump\t// out\n        /* \"#utility.yul\":4068:4194   */\n    tag_116:\n      0x00\n        /* \"#utility.yul\":4145:4187   */\n      0xffffffffffffffffffffffffffffffffffffffff\n        /* \"#utility.yul\":4138:4143   */\n      dup3\n        /* \"#utility.yul\":4134:4188   */\n      and\n        /* \"#utility.yul\":4123:4188   */\n      swap1\n      pop\n        /* \"#utility.yul\":4113:4194   */\n      swap2\n      swap1\n      pop\n      jump\t// out\n        /* \"#utility.yul\":4200:4277   */\n    tag_90:\n      0x00\n        /* \"#utility.yul\":4266:4271   */\n      dup2\n        /* \"#utility.yul\":4255:4271   */\n      swap1\n      pop\n        /* \"#utility.yul\":4245:4277   */\n      swap2\n      swap1\n      pop\n      jump\t// out\n        /* \"#utility.yul\":4283:4388   */\n    tag_120:\n      0x00\n        /* \"#utility.yul\":4359:4381   */\n      0xffffffffffffffffffff\n        /* \"#utility.yul\":4352:4357   */\n      dup3\n        /* \"#utility.yul\":4348:4382   */\n      and\n        /* \"#utility.yul\":4337:4382   */\n      swap1\n      pop\n        /* \"#utility.yul\":4327:4388   */\n      swap2\n      swap1\n      pop\n      jump\t// out\n        /* \"#utility.yul\":4394:4574   */\n    tag_98:\n        /* \"#utility.yul\":4442:4519   */\n      0x4e487b7100000000000000000000000000000000000000000000000000000000\n        /* \"#utility.yul\":4439:4440   */\n      0x00\n        /* \"#utility.yul\":4432:4520   */\n      mstore\n        /* \"#utility.yul\":4539:4543   */\n      0x11\n        /* \"#utility.yul\":4536:4537   */\n      0x04\n        /* \"#utility.yul\":4529:4544   */\n      mstore\n        /* \"#utility.yul\":4563:4567   */\n      0x24\n        /* \"#utility.yul\":4560:4561   */\n      0x00\n        /* \"#utility.yul\":4553:4568   */\n      revert\n        /* \"#utility.yul\":4580:4760   */\n    tag_105:\n        /* \"#utility.yul\":4628:4705   */\n      0x4e487b7100000000000000000000000000000000000000000000000000000000\n        /* \"#utility.yul\":4625:4626   */\n      0x00\n        /* \"#utility.yul\":4618:4706   */\n      mstore\n        /* \"#utility.yul\":4725:4729   */\n      0x12\n        /* \"#utility.yul\":4722:4723   */\n      0x04\n        /* \"#utility.yul\":4715:4730   */\n      mstore\n        /* \"#utility.yul\":4749:4753   */\n      0x24\n        /* \"#utility.yul\":4746:4747   */\n      0x00\n        /* \"#utility.yul\":4739:4754   */\n      revert\n        /* \"#utility.yul\":4766:4888   */\n    tag_55:\n        /* \"#utility.yul\":4839:4863   */\n      tag_125\n        /* \"#utility.yul\":4857:4862   */\n      dup2\n        /* \"#utility.yul\":4839:4863   */\n      tag_113\n      jump\t// in\n    tag_125:\n        /* \"#utility.yul\":4832:4837   */\n      dup2\n        /* \"#utility.yul\":4829:4864   */\n      eq\n        /* \"#utility.yul\":4819:4821   */\n      tag_126\n      jumpi\n        /* \"#utility.yul\":4878:4879   */\n      0x00\n        /* \"#utility.yul\":4875:4876   */\n      dup1\n        /* \"#utility.yul\":4868:4880   */\n      revert\n        /* \"#utility.yul\":4819:4821   */\n    tag_126:\n        /* \"#utility.yul\":4809:4888   */\n      pop\n      jump\t// out\n        /* \"#utility.yul\":4894:5014   */\n    tag_59:\n        /* \"#utility.yul\":4966:4989   */\n      tag_128\n        /* \"#utility.yul\":4983:4988   */\n      dup2\n        /* \"#utility.yul\":4966:4989   */\n      tag_101\n      jump\t// in\n    tag_128:\n        /* \"#utility.yul\":4959:4964   */\n      dup2\n        /* \"#utility.yul\":4956:4990   */\n      eq\n        /* \"#utility.yul\":4946:4948   */\n      tag_129\n      jumpi\n        /* \"#utility.yul\":5004:5005   */\n      0x00\n        /* \"#utility.yul\":5001:5002   */\n      dup1\n        /* \"#utility.yul\":4994:5006   */\n      revert\n        /* \"#utility.yul\":4946:4948   */\n    tag_129:\n        /* \"#utility.yul\":4936:5014   */\n      pop\n      jump\t// out\n        /* \"#utility.yul\":5020:5142   */\n    tag_63:\n        /* \"#utility.yul\":5093:5117   */\n      tag_131\n        /* \"#utility.yul\":5111:5116   */\n      dup2\n        /* \"#utility.yul\":5093:5117   */\n      tag_90\n      jump\t// in\n    tag_131:\n        /* \"#utility.yul\":5086:5091   */\n      dup2\n        /* \"#utility.yul\":5083:5118   */\n      eq\n        /* \"#utility.yul\":5073:5075   */\n      tag_132\n      jumpi\n        /* \"#utility.yul\":5132:5133   */\n      0x00\n        /* \"#utility.yul\":5129:5130   */\n      dup1\n        /* \"#utility.yul\":5122:5134   */\n      revert\n        /* \"#utility.yul\":5073:5075   */\n    tag_132:\n        /* \"#utility.yul\":5063:5142   */\n      pop\n      jump\t// out\n        /* \"#utility.yul\":5148:5268   */\n    tag_70:\n        /* \"#utility.yul\":5220:5243   */\n      tag_134\n        /* \"#utility.yul\":5237:5242   */\n      dup2\n        /* \"#utility.yul\":5220:5243   */\n      tag_120\n      jump\t// in\n    tag_134:\n        /* \"#utility.yul\":5213:5218   */\n      dup2\n        /* \"#utility.yul\":5210:5244   */\n      eq\n        /* \"#utility.yul\":5200:5202   */\n      tag_135\n      jumpi\n        /* \"#utility.yul\":5258:5259   */\n      0x00\n        /* \"#utility.yul\":5255:5256   */\n      dup1\n        /* \"#utility.yul\":5248:5260   */\n      revert\n        /* \"#utility.yul\":5200:5202   */\n    tag_135:\n        /* \"#utility.yul\":5190:5268   */\n      pop\n      jump\t// out\n\n    auxdata: 0xa2646970667358221220a75534b20d6dffe656591bdd7b1e5c068d5b1a36f962294efba107c6911b677964736f6c63430008000033\n}\n",
				"bytecode": {
					"linkReferences": {},
					"object": "608060405273d4a33860578de61dbabdc8bfdb98fd742fa7028e6000806101000a81548173ffffffffffffffffffffffffffffffffffffffff021916908373ffffffffffffffffffffffffffffffffffffffff16021790555034801561006457600080fd5b50610718806100746000396000f3fe60806040526004361061004a5760003560e01c80630504b2cd1461004f5780638793ad551461008c57806398d5fdca146100b7578063b062654f146100e2578063b60d42881461011f575b600080fd5b34801561005b57600080fd5b5061007660048036038101906100719190610396565b610129565b6040516100839190610497565b60405180910390f35b34801561009857600080fd5b506100a1610141565b6040516100ae9190610497565b60405180910390f35b3480156100c357600080fd5b506100cc6101eb565b6040516100d99190610497565b60405180910390f35b3480156100ee57600080fd5b50610109600480360381019061010491906103bf565b6102ae565b6040516101169190610497565b60405180910390f35b6101276102d5565b005b60016020528060005260406000206000915090505481565b60008060008054906101000a900473ffffffffffffffffffffffffffffffffffffffff1690508073ffffffffffffffffffffffffffffffffffffffff166354fd4d506040518163ffffffff1660e01b815260040160206040518083038186803b1580156101ad57600080fd5b505afa1580156101c1573d6000803e3d6000fd5b505050506040513d601f19601f820116820180604052508101906101e591906103e8565b91505090565b60008060008054906101000a900473ffffffffffffffffffffffffffffffffffffffff16905060008173ffffffffffffffffffffffffffffffffffffffff1663feaf968c6040518163ffffffff1660e01b815260040160a06040518083038186803b15801561025957600080fd5b505afa15801561026d573d6000803e3d6000fd5b505050506040513d601f19601f820116820180604052508101906102919190610411565b5050509150506305f5e100816102a79190610508565b9250505090565b6000806102b96101eb565b9050600083826102c99190610572565b90508092505050919050565b34600160003373ffffffffffffffffffffffffffffffffffffffff1673ffffffffffffffffffffffffffffffffffffffff168152602001908152602001600020600082825461032491906104b2565b92505081905550565b60008135905061033c81610686565b92915050565b6000815190506103518161069d565b92915050565b600081359050610366816106b4565b92915050565b60008151905061037b816106b4565b92915050565b600081519050610390816106cb565b92915050565b6000602082840312156103a857600080fd5b60006103b68482850161032d565b91505092915050565b6000602082840312156103d157600080fd5b60006103df84828501610357565b91505092915050565b6000602082840312156103fa57600080fd5b60006104088482850161036c565b91505092915050565b600080600080600060a0868803121561042957600080fd5b600061043788828901610381565b955050602061044888828901610342565b94505060406104598882890161036c565b935050606061046a8882890161036c565b925050608061047b88828901610381565b9150509295509295909350565b61049181610608565b82525050565b60006020820190506104ac6000830184610488565b92915050565b60006104bd82610608565b91506104c883610608565b9250827fffffffffffffffffffffffffffffffffffffffffffffffffffffffffffffffff038211156104fd576104fc610628565b5b828201905092915050565b6000610513826105de565b915061051e836105de565b92508261052e5761052d610657565b5b600160000383147f80000000000000000000000000000000000000000000000000000000000000008314161561056757610566610628565b5b828205905092915050565b600061057d82610608565b915061058883610608565b9250817fffffffffffffffffffffffffffffffffffffffffffffffffffffffffffffffff04831182151516156105c1576105c0610628565b5b828202905092915050565b60006105d7826105e8565b9050919050565b6000819050919050565b600073ffffffffffffffffffffffffffffffffffffffff82169050919050565b6000819050919050565b600069ffffffffffffffffffff82169050919050565b7f4e487b7100000000000000000000000000000000000000000000000000000000600052601160045260246000fd5b7f4e487b7100000000000000000000000000000000000000000000000000000000600052601260045260246000fd5b61068f816105cc565b811461069a57600080fd5b50565b6106a6816105de565b81146106b157600080fd5b50565b6106bd81610608565b81146106c857600080fd5b50565b6106d481610612565b81146106df57600080fd5b5056fea2646970667358221220a75534b20d6dffe656591bdd7b1e5c068d5b1a36f962294efba107c6911b677964736f6c63430008000033",
					"opcodes": "PUSH1 0x80 PUSH1 0x40 MSTORE PUSH20 0xD4A33860578DE61DBABDC8BFDB98FD742FA7028E PUSH1 0x0 DUP1 PUSH2 0x100 EXP DUP2 SLOAD DUP2 PUSH20 0xFFFFFFFFFFFFFFFFFFFFFFFFFFFFFFFFFFFFFFFF MUL NOT AND SWAP1 DUP4 PUSH20 0xFFFFFFFFFFFFFFFFFFFFFFFFFFFFFFFFFFFFFFFF AND MUL OR SWAP1 SSTORE POP CALLVALUE DUP1 ISZERO PUSH2 0x64 JUMPI PUSH1 0x0 DUP1 REVERT JUMPDEST POP PUSH2 0x718 DUP1 PUSH2 0x74 PUSH1 0x0 CODECOPY PUSH1 0x0 RETURN INVALID PUSH1 0x80 PUSH1 0x40 MSTORE PUSH1 0x4 CALLDATASIZE LT PUSH2 0x4A JUMPI PUSH1 0x0 CALLDATALOAD PUSH1 0xE0 SHR DUP1 PUSH4 0x504B2CD EQ PUSH2 0x4F JUMPI DUP1 PUSH4 0x8793AD55 EQ PUSH2 0x8C JUMPI DUP1 PUSH4 0x98D5FDCA EQ PUSH2 0xB7 JUMPI DUP1 PUSH4 0xB062654F EQ PUSH2 0xE2 JUMPI DUP1 PUSH4 0xB60D4288 EQ PUSH2 0x11F JUMPI JUMPDEST PUSH1 0x0 DUP1 REVERT JUMPDEST CALLVALUE DUP1 ISZERO PUSH2 0x5B JUMPI PUSH1 0x0 DUP1 REVERT JUMPDEST POP PUSH2 0x76 PUSH1 0x4 DUP1 CALLDATASIZE SUB DUP2 ADD SWAP1 PUSH2 0x71 SWAP2 SWAP1 PUSH2 0x396 JUMP JUMPDEST PUSH2 0x129 JUMP JUMPDEST PUSH1 0x40 MLOAD PUSH2 0x83 SWAP2 SWAP1 PUSH2 0x497 JUMP JUMPDEST PUSH1 0x40 MLOAD DUP1 SWAP2 SUB SWAP1 RETURN JUMPDEST CALLVALUE DUP1 ISZERO PUSH2 0x98 JUMPI PUSH1 0x0 DUP1 REVERT JUMPDEST POP PUSH2 0xA1 PUSH2 0x141 JUMP JUMPDEST PUSH1 0x40 MLOAD PUSH2 0xAE SWAP2 SWAP1 PUSH2 0x497 JUMP JUMPDEST PUSH1 0x40 MLOAD DUP1 SWAP2 SUB SWAP1 RETURN JUMPDEST CALLVALUE DUP1 ISZERO PUSH2 0xC3 JUMPI PUSH1 0x0 DUP1 REVERT JUMPDEST POP PUSH2 0xCC PUSH2 0x1EB JUMP JUMPDEST PUSH1 0x40 MLOAD PUSH2 0xD9 SWAP2 SWAP1 PUSH2 0x497 JUMP JUMPDEST PUSH1 0x40 MLOAD DUP1 SWAP2 SUB SWAP1 RETURN JUMPDEST CALLVALUE DUP1 ISZERO PUSH2 0xEE JUMPI PUSH1 0x0 DUP1 REVERT JUMPDEST POP PUSH2 0x109 PUSH1 0x4 DUP1 CALLDATASIZE SUB DUP2 ADD SWAP1 PUSH2 0x104 SWAP2 SWAP1 PUSH2 0x3BF JUMP JUMPDEST PUSH2 0x2AE JUMP JUMPDEST PUSH1 0x40 MLOAD PUSH2 0x116 SWAP2 SWAP1 PUSH2 0x497 JUMP JUMPDEST PUSH1 0x40 MLOAD DUP1 SWAP2 SUB SWAP1 RETURN JUMPDEST PUSH2 0x127 PUSH2 0x2D5 JUMP JUMPDEST STOP JUMPDEST PUSH1 0x1 PUSH1 0x20 MSTORE DUP1 PUSH1 0x0 MSTORE PUSH1 0x40 PUSH1 0x0 KECCAK256 PUSH1 0x0 SWAP2 POP SWAP1 POP SLOAD DUP2 JUMP JUMPDEST PUSH1 0x0 DUP1 PUSH1 0x0 DUP1 SLOAD SWAP1 PUSH2 0x100 EXP SWAP1 DIV PUSH20 0xFFFFFFFFFFFFFFFFFFFFFFFFFFFFFFFFFFFFFFFF AND SWAP1 POP DUP1 PUSH20 0xFFFFFFFFFFFFFFFFFFFFFFFFFFFFFFFFFFFFFFFF AND PUSH4 0x54FD4D50 PUSH1 0x40 MLOAD DUP2 PUSH4 0xFFFFFFFF AND PUSH1 0xE0 SHL DUP2 MSTORE PUSH1 0x4 ADD PUSH1 0x20 PUSH1 0x40 MLOAD DUP1 DUP4 SUB DUP2 DUP7 DUP1 EXTCODESIZE ISZERO DUP1 ISZERO PUSH2 0x1AD JUMPI PUSH1 0x0 DUP1 REVERT JUMPDEST POP GAS STATICCALL ISZERO DUP1 ISZERO PUSH2 0x1C1 JUMPI RETURNDATASIZE PUSH1 0x0 DUP1 RETURNDATACOPY RETURNDATASIZE PUSH1 0x0 REVERT JUMPDEST POP POP POP POP PUSH1 0x40 MLOAD RETURNDATASIZE PUSH1 0x1F NOT PUSH1 0x1F DUP3 ADD AND DUP3 ADD DUP1 PUSH1 0x40 MSTORE POP DUP2 ADD SWAP1 PUSH2 0x1E5 SWAP2 SWAP1 PUSH2 0x3E8 JUMP JUMPDEST SWAP2 POP POP SWAP1 JUMP JUMPDEST PUSH1 0x0 DUP1 PUSH1 0x0 DUP1 SLOAD SWAP1 PUSH2 0x100 EXP SWAP1 DIV PUSH20 0xFFFFFFFFFFFFFFFFFFFFFFFFFFFFFFFFFFFFFFFF AND SWAP1 POP PUSH1 0x0 DUP2 PUSH20 0xFFFFFFFFFFFFFFFFFFFFFFFFFFFFFFFFFFFFFFFF AND PUSH4 0xFEAF968C PUSH1 0x40 MLOAD DUP2 PUSH4 0xFFFFFFFF AND PUSH1 0xE0 SHL DUP2 MSTORE PUSH1 0x4 ADD PUSH1 0xA0 PUSH1 0x40 MLOAD DUP1 DUP4 SUB DUP2 DUP7 DUP1 EXTCODESIZE ISZERO DUP1 ISZERO PUSH2 0x259 JUMPI PUSH1 0x0 DUP1 REVERT JUMPDEST POP GAS STATICCALL ISZERO DUP1 ISZERO PUSH2 0x26D JUMPI RETURNDATASIZE PUSH1 0x0 DUP1 RETURNDATACOPY RETURNDATASIZE PUSH1 0x0 REVERT JUMPDEST POP POP POP POP PUSH1 0x40 MLOAD RETURNDATASIZE PUSH1 0x1F NOT PUSH1 0x1F DUP3 ADD AND DUP3 ADD DUP1 PUSH1 0x40 MSTORE POP DUP2 ADD SWAP1 PUSH2 0x291 SWAP2 SWAP1 PUSH2 0x411 JUMP JUMPDEST POP POP POP SWAP2 POP POP PUSH4 0x5F5E100 DUP2 PUSH2 0x2A7 SWAP2 SWAP1 PUSH2 0x508 JUMP JUMPDEST SWAP3 POP POP POP SWAP1 JUMP JUMPDEST PUSH1 0x0 DUP1 PUSH2 0x2B9 PUSH2 0x1EB JUMP JUMPDEST SWAP1 POP PUSH1 0x0 DUP4 DUP3 PUSH2 0x2C9 SWAP2 SWAP1 PUSH2 0x572 JUMP JUMPDEST SWAP1 POP DUP1 SWAP3 POP POP POP SWAP2 SWAP1 POP JUMP JUMPDEST CALLVALUE PUSH1 0x1 PUSH1 0x0 CALLER PUSH20 0xFFFFFFFFFFFFFFFFFFFFFFFFFFFFFFFFFFFFFFFF AND PUSH20 0xFFFFFFFFFFFFFFFFFFFFFFFFFFFFFFFFFFFFFFFF AND DUP2 MSTORE PUSH1 0x20 ADD SWAP1 DUP2 MSTORE PUSH1 0x20 ADD PUSH1 0x0 KECCAK256 PUSH1 0x0 DUP3 DUP3 SLOAD PUSH2 0x324 SWAP2 SWAP1 PUSH2 0x4B2 JUMP JUMPDEST SWAP3 POP POP DUP2 SWAP1 SSTORE POP JUMP JUMPDEST PUSH1 0x0 DUP2 CALLDATALOAD SWAP1 POP PUSH2 0x33C DUP2 PUSH2 0x686 JUMP JUMPDEST SWAP3 SWAP2 POP POP JUMP JUMPDEST PUSH1 0x0 DUP2 MLOAD SWAP1 POP PUSH2 0x351 DUP2 PUSH2 0x69D JUMP JUMPDEST SWAP3 SWAP2 POP POP JUMP JUMPDEST PUSH1 0x0 DUP2 CALLDATALOAD SWAP1 POP PUSH2 0x366 DUP2 PUSH2 0x6B4 JUMP JUMPDEST SWAP3 SWAP2 POP POP JUMP JUMPDEST PUSH1 0x0 DUP2 MLOAD SWAP1 POP PUSH2 0x37B DUP2 PUSH2 0x6B4 JUMP JUMPDEST SWAP3 SWAP2 POP POP JUMP JUMPDEST PUSH1 0x0 DUP2 MLOAD SWAP1 POP PUSH2 0x390 DUP2 PUSH2 0x6CB JUMP JUMPDEST SWAP3 SWAP2 POP POP JUMP JUMPDEST PUSH1 0x0 PUSH1 0x20 DUP3 DUP5 SUB SLT ISZERO PUSH2 0x3A8 JUMPI PUSH1 0x0 DUP1 REVERT JUMPDEST PUSH1 0x0 PUSH2 0x3B6 DUP5 DUP3 DUP6 ADD PUSH2 0x32D JUMP JUMPDEST SWAP2 POP POP SWAP3 SWAP2 POP POP JUMP JUMPDEST PUSH1 0x0 PUSH1 0x20 DUP3 DUP5 SUB SLT ISZERO PUSH2 0x3D1 JUMPI PUSH1 0x0 DUP1 REVERT JUMPDEST PUSH1 0x0 PUSH2 0x3DF DUP5 DUP3 DUP6 ADD PUSH2 0x357 JUMP JUMPDEST SWAP2 POP POP SWAP3 SWAP2 POP POP JUMP JUMPDEST PUSH1 0x0 PUSH1 0x20 DUP3 DUP5 SUB SLT ISZERO PUSH2 0x3FA JUMPI PUSH1 0x0 DUP1 REVERT JUMPDEST PUSH1 0x0 PUSH2 0x408 DUP5 DUP3 DUP6 ADD PUSH2 0x36C JUMP JUMPDEST SWAP2 POP POP SWAP3 SWAP2 POP POP JUMP JUMPDEST PUSH1 0x0 DUP1 PUSH1 0x0 DUP1 PUSH1 0x0 PUSH1 0xA0 DUP7 DUP9 SUB SLT ISZERO PUSH2 0x429 JUMPI PUSH1 0x0 DUP1 REVERT JUMPDEST PUSH1 0x0 PUSH2 0x437 DUP9 DUP3 DUP10 ADD PUSH2 0x381 JUMP JUMPDEST SWAP6 POP POP PUSH1 0x20 PUSH2 0x448 DUP9 DUP3 DUP10 ADD PUSH2 0x342 JUMP JUMPDEST SWAP5 POP POP PUSH1 0x40 PUSH2 0x459 DUP9 DUP3 DUP10 ADD PUSH2 0x36C JUMP JUMPDEST SWAP4 POP POP PUSH1 0x60 PUSH2 0x46A DUP9 DUP3 DUP10 ADD PUSH2 0x36C JUMP JUMPDEST SWAP3 POP POP PUSH1 0x80 PUSH2 0x47B DUP9 DUP3 DUP10 ADD PUSH2 0x381 JUMP JUMPDEST SWAP2 POP POP SWAP3 SWAP6 POP SWAP3 SWAP6 SWAP1 SWAP4 POP JUMP JUMPDEST PUSH2 0x491 DUP2 PUSH2 0x608 JUMP JUMPDEST DUP3 MSTORE POP POP JUMP JUMPDEST PUSH1 0x0 PUSH1 0x20 DUP3 ADD SWAP1 POP PUSH2 0x4AC PUSH1 0x0 DUP4 ADD DUP5 PUSH2 0x488 JUMP JUMPDEST SWAP3 SWAP2 POP POP JUMP JUMPDEST PUSH1 0x0 PUSH2 0x4BD DUP3 PUSH2 0x608 JUMP JUMPDEST SWAP2 POP PUSH2 0x4C8 DUP4 PUSH2 0x608 JUMP JUMPDEST SWAP3 POP DUP3 PUSH32 0xFFFFFFFFFFFFFFFFFFFFFFFFFFFFFFFFFFFFFFFFFFFFFFFFFFFFFFFFFFFFFFFF SUB DUP3 GT ISZERO PUSH2 0x4FD JUMPI PUSH2 0x4FC PUSH2 0x628 JUMP JUMPDEST JUMPDEST DUP3 DUP3 ADD SWAP1 POP SWAP3 SWAP2 POP POP JUMP JUMPDEST PUSH1 0x0 PUSH2 0x513 DUP3 PUSH2 0x5DE JUMP JUMPDEST SWAP2 POP PUSH2 0x51E DUP4 PUSH2 0x5DE JUMP JUMPDEST SWAP3 POP DUP3 PUSH2 0x52E JUMPI PUSH2 0x52D PUSH2 0x657 JUMP JUMPDEST JUMPDEST PUSH1 0x1 PUSH1 0x0 SUB DUP4 EQ PUSH32 0x8000000000000000000000000000000000000000000000000000000000000000 DUP4 EQ AND ISZERO PUSH2 0x567 JUMPI PUSH2 0x566 PUSH2 0x628 JUMP JUMPDEST JUMPDEST DUP3 DUP3 SDIV SWAP1 POP SWAP3 SWAP2 POP POP JUMP JUMPDEST PUSH1 0x0 PUSH2 0x57D DUP3 PUSH2 0x608 JUMP JUMPDEST SWAP2 POP PUSH2 0x588 DUP4 PUSH2 0x608 JUMP JUMPDEST SWAP3 POP DUP2 PUSH32 0xFFFFFFFFFFFFFFFFFFFFFFFFFFFFFFFFFFFFFFFFFFFFFFFFFFFFFFFFFFFFFFFF DIV DUP4 GT DUP3 ISZERO ISZERO AND ISZERO PUSH2 0x5C1 JUMPI PUSH2 0x5C0 PUSH2 0x628 JUMP JUMPDEST JUMPDEST DUP3 DUP3 MUL SWAP1 POP SWAP3 SWAP2 POP POP JUMP JUMPDEST PUSH1 0x0 PUSH2 0x5D7 DUP3 PUSH2 0x5E8 JUMP JUMPDEST SWAP1 POP SWAP2 SWAP1 POP JUMP JUMPDEST PUSH1 0x0 DUP2 SWAP1 POP SWAP2 SWAP1 POP JUMP JUMPDEST PUSH1 0x0 PUSH20 0xFFFFFFFFFFFFFFFFFFFFFFFFFFFFFFFFFFFFFFFF DUP3 AND SWAP1 POP SWAP2 SWAP1 POP JUMP JUMPDEST PUSH1 0x0 DUP2 SWAP1 POP SWAP2 SWAP1 POP JUMP JUMPDEST PUSH1 0x0 PUSH10 0xFFFFFFFFFFFFFFFFFFFF DUP3 AND SWAP1 POP SWAP2 SWAP1 POP JUMP JUMPDEST PUSH32 0x4E487B7100000000000000000000000000000000000000000000000000000000 PUSH1 0x0 MSTORE PUSH1 0x11 PUSH1 0x4 MSTORE PUSH1 0x24 PUSH1 0x0 REVERT JUMPDEST PUSH32 0x4E487B7100000000000000000000000000000000000000000000000000000000 PUSH1 0x0 MSTORE PUSH1 0x12 PUSH1 0x4 MSTORE PUSH1 0x24 PUSH1 0x0 REVERT JUMPDEST PUSH2 0x68F DUP2 PUSH2 0x5CC JUMP JUMPDEST DUP2 EQ PUSH2 0x69A JUMPI PUSH1 0x0 DUP1 REVERT JUMPDEST POP JUMP JUMPDEST PUSH2 0x6A6 DUP2 PUSH2 0x5DE JUMP JUMPDEST DUP2 EQ PUSH2 0x6B1 JUMPI PUSH1 0x0 DUP1 REVERT JUMPDEST POP JUMP JUMPDEST PUSH2 0x6BD DUP2 PUSH2 0x608 JUMP JUMPDEST DUP2 EQ PUSH2 0x6C8 JUMPI PUSH1 0x0 DUP1 REVERT JUMPDEST POP JUMP JUMPDEST PUSH2 0x6D4 DUP2 PUSH2 0x612 JUMP JUMPDEST DUP2 EQ PUSH2 0x6DF JUMPI PUSH1 0x0 DUP1 REVERT JUMPDEST POP JUMP INVALID LOG2 PUSH5 0x6970667358 0x22 SLT KECCAK256 0xA7 SSTORE CALLVALUE 0xB2 0xD PUSH14 0xFFE656591BDD7B1E5C068D5B1A36 0xF9 PUSH3 0x294EFB LOG1 SMOD 0xC6 SWAP2 SHL PUSH8 0x7964736F6C634300 ADDMOD STOP STOP CALLER "
				},
				"gasEstimates": {
					"creation": {
						"codeDepositCost": "363200",
						"executionCost": "21266",
						"totalCost": "384466"
					},
					"external": {
						"addrToAmtFunded(address)": "1492",
						"fund()": "infinite",
						"getConvRate(uint256)": "infinite",
						"getPrice()": "infinite",
						"getVer()": "infinite"
					}
				},
				"methodIdentifiers": {
					"addrToAmtFunded(address)": "0504b2cd",
					"fund()": "b60d4288",
					"getConvRate(uint256)": "b062654f",
					"getPrice()": "98d5fdca",
					"getVer()": "8793ad55"
				}
			},
			"storageLayout": {
				"storage": [
					{
						"astId": 51,
						"contract": "contracts/FundMe.sol:FundMe",
						"label": "GOERLI_TESTNET_ETH_USD",
						"offset": 0,
						"slot": "0",
						"type": "t_address"
					},
					{
						"astId": 55,
						"contract": "contracts/FundMe.sol:FundMe",
						"label": "addrToAmtFunded",
						"offset": 0,
						"slot": "1",
						"type": "t_mapping(t_address,t_uint256)"
					}
				],
				"types": {
					"t_address": {
						"encoding": "inplace",
						"label": "address",
						"numberOfBytes": "20"
					},
					"t_mapping(t_address,t_uint256)": {
						"encoding": "mapping",
						"key": "t_address",
						"label": "mapping(address => uint256)",
						"numberOfBytes": "32",
						"value": "t_uint256"
					},
					"t_uint256": {
						"encoding": "inplace",
						"label": "uint256",
						"numberOfBytes": "32"
					}
				}
			},
			"userdoc": {
				"kind": "user",
				"methods": {},
				"version": 1
			}
		}
	}
}