{
	"contracts/PayMe.sol": {
		"PayMe": {
			"abi": [
				{
					"inputs": [],
					"stateMutability": "nonpayable",
					"type": "constructor"
				},
				{
					"inputs": [
						{
							"internalType": "address",
							"name": "",
							"type": "address"
						}
					],
					"name": "addrToAmtSpent",
					"outputs": [
						{
							"internalType": "uint256",
							"name": "",
							"type": "uint256"
						}
					],
					"stateMutability": "view",
					"type": "function"
				},
				{
					"inputs": [
						{
							"internalType": "uint256",
							"name": "",
							"type": "uint256"
						}
					],
					"name": "buyers",
					"outputs": [
						{
							"internalType": "address",
							"name": "",
							"type": "address"
						}
					],
					"stateMutability": "view",
					"type": "function"
				},
				{
					"inputs": [
						{
							"internalType": "uint256",
							"name": "ethAmt",
							"type": "uint256"
						}
					],
					"name": "ethToUSD",
					"outputs": [
						{
							"internalType": "uint256",
							"name": "",
							"type": "uint256"
						}
					],
					"stateMutability": "view",
					"type": "function"
				},
				{
					"inputs": [],
					"name": "getRate",
					"outputs": [
						{
							"internalType": "uint256",
							"name": "",
							"type": "uint256"
						}
					],
					"stateMutability": "view",
					"type": "function"
				},
				{
					"inputs": [],
					"name": "getVer",
					"outputs": [
						{
							"internalType": "uint256",
							"name": "",
							"type": "uint256"
						}
					],
					"stateMutability": "view",
					"type": "function"
				},
				{
					"inputs": [],
					"name": "owner",
					"outputs": [
						{
							"internalType": "address",
							"name": "",
							"type": "address"
						}
					],
					"stateMutability": "view",
					"type": "function"
				},
				{
					"inputs": [
						{
							"internalType": "uint256",
							"name": "amountUSD",
							"type": "uint256"
						}
					],
					"name": "pay",
					"outputs": [],
					"stateMutability": "payable",
					"type": "function"
				},
				{
					"inputs": [],
					"name": "withdraw",
					"outputs": [],
					"stateMutability": "payable",
					"type": "function"
				}
			],
			"devdoc": {
				"kind": "dev",
				"methods": {},
				"version": 1
			},
			"evm": {
				"assembly": "    /* \"contracts/PayMe.sol\":491:2344  contract PayMe {\r... */\n  mstore(0x40, 0x80)\n    /* \"contracts/PayMe.sol\":546:588  0xD4a33860578De61DBAbDc8BFdb98FD742fA7028e */\n  0xd4a33860578de61dbabdc8bfdb98fd742fa7028e\n    /* \"contracts/PayMe.sol\":513:588  address GOERLI_TESTNET_ETH_USD = 0xD4a33860578De61DBAbDc8BFdb98FD742fA7028e */\n  0x00\n  dup1\n  0x0100\n  exp\n  dup2\n  sload\n  dup2\n  0xffffffffffffffffffffffffffffffffffffffff\n  mul\n  not\n  and\n  swap1\n  dup4\n  0xffffffffffffffffffffffffffffffffffffffff\n  and\n  mul\n  or\n  swap1\n  sstore\n  pop\n    /* \"contracts/PayMe.sol\":709:760  constructor() {\r... */\n  callvalue\n  dup1\n  iszero\n  tag_1\n  jumpi\n  0x00\n  dup1\n  revert\ntag_1:\n  pop\n    /* \"contracts/PayMe.sol\":742:752  msg.sender */\n  caller\n    /* \"contracts/PayMe.sol\":734:739  owner */\n  0x01\n  0x00\n    /* \"contracts/PayMe.sol\":734:752  owner = msg.sender */\n  0x0100\n  exp\n  dup2\n  sload\n  dup2\n  0xffffffffffffffffffffffffffffffffffffffff\n  mul\n  not\n  and\n  swap1\n  dup4\n  0xffffffffffffffffffffffffffffffffffffffff\n  and\n  mul\n  or\n  swap1\n  sstore\n  pop\n    /* \"contracts/PayMe.sol\":491:2344  contract PayMe {\r... */\n  dataSize(sub_0)\n  dup1\n  dataOffset(sub_0)\n  0x00\n  codecopy\n  0x00\n  return\nstop\n\nsub_0: assembly {\n        /* \"contracts/PayMe.sol\":491:2344  contract PayMe {\r... */\n      mstore(0x40, 0x80)\n      jumpi(tag_1, lt(calldatasize, 0x04))\n      shr(0xe0, calldataload(0x00))\n      dup1\n      0x8da5cb5b\n      gt\n      tag_10\n      jumpi\n      dup1\n      0x8da5cb5b\n      eq\n      tag_6\n      jumpi\n      dup1\n      0xa90cecbf\n      eq\n      tag_7\n      jumpi\n      dup1\n      0xc290d691\n      eq\n      tag_8\n      jumpi\n      dup1\n      0xf2aa8218\n      eq\n      tag_9\n      jumpi\n      jump(tag_1)\n    tag_10:\n      dup1\n      0x196e609d\n      eq\n      tag_2\n      jumpi\n      dup1\n      0x3ccfd60b\n      eq\n      tag_3\n      jumpi\n      dup1\n      0x679aefce\n      eq\n      tag_4\n      jumpi\n      dup1\n      0x8793ad55\n      eq\n      tag_5\n      jumpi\n    tag_1:\n      0x00\n      dup1\n      revert\n        /* \"contracts/PayMe.sol\":1704:1927  function ethToUSD(uint ethAmt) \r... */\n    tag_2:\n      callvalue\n      dup1\n      iszero\n      tag_11\n      jumpi\n      0x00\n      dup1\n      revert\n    tag_11:\n      pop\n      tag_12\n      0x04\n      dup1\n      calldatasize\n      sub\n      dup2\n      add\n      swap1\n      tag_13\n      swap2\n      swap1\n      tag_14\n      jump\t// in\n    tag_13:\n      tag_15\n      jump\t// in\n    tag_12:\n      mload(0x40)\n      tag_16\n      swap2\n      swap1\n      tag_17\n      jump\t// in\n    tag_16:\n      mload(0x40)\n      dup1\n      swap2\n      sub\n      swap1\n      return\n        /* \"contracts/PayMe.sol\":2056:2339  function withdraw() \r... */\n    tag_3:\n      tag_18\n      tag_19\n      jump\t// in\n    tag_18:\n      stop\n        /* \"contracts/PayMe.sol\":1397:1666  function getRate() \r... */\n    tag_4:\n      callvalue\n      dup1\n      iszero\n      tag_20\n      jumpi\n      0x00\n      dup1\n      revert\n    tag_20:\n      pop\n      tag_21\n      tag_22\n      jump\t// in\n    tag_21:\n      mload(0x40)\n      tag_23\n      swap2\n      swap1\n      tag_17\n      jump\t// in\n    tag_23:\n      mload(0x40)\n      dup1\n      swap2\n      sub\n      swap1\n      return\n        /* \"contracts/PayMe.sol\":1175:1389  function getVer()\r... */\n    tag_5:\n      callvalue\n      dup1\n      iszero\n      tag_24\n      jumpi\n      0x00\n      dup1\n      revert\n    tag_24:\n      pop\n      tag_25\n      tag_26\n      jump\t// in\n    tag_25:\n      mload(0x40)\n      tag_27\n      swap2\n      swap1\n      tag_17\n      jump\t// in\n    tag_27:\n      mload(0x40)\n      dup1\n      swap2\n      sub\n      swap1\n      return\n        /* \"contracts/PayMe.sol\":597:617  address public owner */\n    tag_6:\n      callvalue\n      dup1\n      iszero\n      tag_28\n      jumpi\n      0x00\n      dup1\n      revert\n    tag_28:\n      pop\n      tag_29\n      tag_30\n      jump\t// in\n    tag_29:\n      mload(0x40)\n      tag_31\n      swap2\n      swap1\n      tag_32\n      jump\t// in\n    tag_31:\n      mload(0x40)\n      dup1\n      swap2\n      sub\n      swap1\n      return\n        /* \"contracts/PayMe.sol\":624:670  mapping(address => uint) public addrToAmtSpent */\n    tag_7:\n      callvalue\n      dup1\n      iszero\n      tag_33\n      jumpi\n      0x00\n      dup1\n      revert\n    tag_33:\n      pop\n      tag_34\n      0x04\n      dup1\n      calldatasize\n      sub\n      dup2\n      add\n      swap1\n      tag_35\n      swap2\n      swap1\n      tag_36\n      jump\t// in\n    tag_35:\n      tag_37\n      jump\t// in\n    tag_34:\n      mload(0x40)\n      tag_38\n      swap2\n      swap1\n      tag_17\n      jump\t// in\n    tag_38:\n      mload(0x40)\n      dup1\n      swap2\n      sub\n      swap1\n      return\n        /* \"contracts/PayMe.sol\":768:1167  function pay(uint amountUSD) \r... */\n    tag_8:\n      tag_39\n      0x04\n      dup1\n      calldatasize\n      sub\n      dup2\n      add\n      swap1\n      tag_40\n      swap2\n      swap1\n      tag_14\n      jump\t// in\n    tag_40:\n      tag_41\n      jump\t// in\n    tag_39:\n      stop\n        /* \"contracts/PayMe.sol\":677:700  address[] public buyers */\n    tag_9:\n      callvalue\n      dup1\n      iszero\n      tag_42\n      jumpi\n      0x00\n      dup1\n      revert\n    tag_42:\n      pop\n      tag_43\n      0x04\n      dup1\n      calldatasize\n      sub\n      dup2\n      add\n      swap1\n      tag_44\n      swap2\n      swap1\n      tag_14\n      jump\t// in\n    tag_44:\n      tag_45\n      jump\t// in\n    tag_43:\n      mload(0x40)\n      tag_46\n      swap2\n      swap1\n      tag_32\n      jump\t// in\n    tag_46:\n      mload(0x40)\n      dup1\n      swap2\n      sub\n      swap1\n      return\n        /* \"contracts/PayMe.sol\":1704:1927  function ethToUSD(uint ethAmt) \r... */\n    tag_15:\n        /* \"contracts/PayMe.sol\":1785:1789  uint */\n      0x00\n        /* \"contracts/PayMe.sol\":1808:1821  uint ethPrice */\n      dup1\n        /* \"contracts/PayMe.sol\":1824:1833  getRate() */\n      tag_48\n        /* \"contracts/PayMe.sol\":1824:1831  getRate */\n      tag_22\n        /* \"contracts/PayMe.sol\":1824:1833  getRate() */\n      jump\t// in\n    tag_48:\n        /* \"contracts/PayMe.sol\":1808:1833  uint ethPrice = getRate() */\n      swap1\n      pop\n        /* \"contracts/PayMe.sol\":1844:1860  uint ethAmtInUsd */\n      0x00\n        /* \"contracts/PayMe.sol\":1885:1890  10**8 */\n      0x05f5e100\n        /* \"contracts/PayMe.sol\":1875:1881  ethAmt */\n      dup5\n        /* \"contracts/PayMe.sol\":1864:1872  ethPrice */\n      dup4\n        /* \"contracts/PayMe.sol\":1864:1881  ethPrice * ethAmt */\n      tag_49\n      swap2\n      swap1\n      tag_50\n      jump\t// in\n    tag_49:\n        /* \"contracts/PayMe.sol\":1863:1890  (ethPrice * ethAmt) / 10**8 */\n      tag_51\n      swap2\n      swap1\n      tag_52\n      jump\t// in\n    tag_51:\n        /* \"contracts/PayMe.sol\":1844:1890  uint ethAmtInUsd = (ethPrice * ethAmt) / 10**8 */\n      swap1\n      pop\n        /* \"contracts/PayMe.sol\":1908:1919  ethAmtInUsd */\n      dup1\n        /* \"contracts/PayMe.sol\":1901:1919  return ethAmtInUsd */\n      swap3\n      pop\n      pop\n      pop\n        /* \"contracts/PayMe.sol\":1704:1927  function ethToUSD(uint ethAmt) \r... */\n      swap2\n      swap1\n      pop\n      jump\t// out\n        /* \"contracts/PayMe.sol\":2056:2339  function withdraw() \r... */\n    tag_19:\n        /* \"contracts/PayMe.sol\":1988:1993  owner */\n      0x01\n      0x00\n      swap1\n      sload\n      swap1\n      0x0100\n      exp\n      swap1\n      div\n      0xffffffffffffffffffffffffffffffffffffffff\n      and\n        /* \"contracts/PayMe.sol\":1974:1993  msg.sender == owner */\n      0xffffffffffffffffffffffffffffffffffffffff\n      and\n        /* \"contracts/PayMe.sol\":1974:1984  msg.sender */\n      caller\n        /* \"contracts/PayMe.sol\":1974:1993  msg.sender == owner */\n      0xffffffffffffffffffffffffffffffffffffffff\n      and\n      eq\n        /* \"contracts/PayMe.sol\":1966:2030  require(msg.sender == owner, \"Only the owner can withdraw ETHs\") */\n      tag_54\n      jumpi\n      mload(0x40)\n      0x08c379a000000000000000000000000000000000000000000000000000000000\n      dup2\n      mstore\n      0x04\n      add\n      tag_55\n      swap1\n      tag_56\n      jump\t// in\n    tag_55:\n      mload(0x40)\n      dup1\n      swap2\n      sub\n      swap1\n      revert\n    tag_54:\n        /* \"contracts/PayMe.sol\":2147:2157  msg.sender */\n      caller\n        /* \"contracts/PayMe.sol\":2139:2167  payable(msg.sender).transfer */\n      0xffffffffffffffffffffffffffffffffffffffff\n      and\n        /* \"contracts/PayMe.sol\":2139:2190  payable(msg.sender).transfer(address(this).balance) */\n      0x08fc\n        /* \"contracts/PayMe.sol\":2168:2189  address(this).balance */\n      selfbalance\n        /* \"contracts/PayMe.sol\":2139:2190  payable(msg.sender).transfer(address(this).balance) */\n      swap1\n      dup2\n      iszero\n      mul\n      swap1\n      mload(0x40)\n      0x00\n      mload(0x40)\n      dup1\n      dup4\n      sub\n      dup2\n      dup6\n      dup9\n      dup9\n      call\n      swap4\n      pop\n      pop\n      pop\n      pop\n      iszero\n      dup1\n      iszero\n      tag_59\n      jumpi\n      returndatasize\n      0x00\n      dup1\n      returndatacopy\n      revert(0x00, returndatasize)\n    tag_59:\n      pop\n        /* \"contracts/PayMe.sol\":2206:2212  uint i */\n      0x00\n        /* \"contracts/PayMe.sol\":2201:2296  for (uint i=0; i < buyers.length; i++) {\r... */\n    tag_60:\n        /* \"contracts/PayMe.sol\":2220:2226  buyers */\n      0x03\n        /* \"contracts/PayMe.sol\":2220:2233  buyers.length */\n      dup1\n      sload\n      swap1\n      pop\n        /* \"contracts/PayMe.sol\":2216:2217  i */\n      dup2\n        /* \"contracts/PayMe.sol\":2216:2233  i < buyers.length */\n      lt\n        /* \"contracts/PayMe.sol\":2201:2296  for (uint i=0; i < buyers.length; i++) {\r... */\n      iszero\n      tag_61\n      jumpi\n        /* \"contracts/PayMe.sol\":2283:2284  0 */\n      0x00\n        /* \"contracts/PayMe.sol\":2255:2269  addrToAmtSpent */\n      0x02\n        /* \"contracts/PayMe.sol\":2255:2280  addrToAmtSpent[buyers[i]] */\n      0x00\n        /* \"contracts/PayMe.sol\":2270:2276  buyers */\n      0x03\n        /* \"contracts/PayMe.sol\":2277:2278  i */\n      dup5\n        /* \"contracts/PayMe.sol\":2270:2279  buyers[i] */\n      dup2\n      sload\n      dup2\n      lt\n      tag_63\n      jumpi\n      tag_64\n      tag_65\n      jump\t// in\n    tag_64:\n    tag_63:\n      swap1\n      0x00\n      mstore\n      keccak256(0x00, 0x20)\n      add\n      0x00\n      swap1\n      sload\n      swap1\n      0x0100\n      exp\n      swap1\n      div\n      0xffffffffffffffffffffffffffffffffffffffff\n      and\n        /* \"contracts/PayMe.sol\":2255:2280  addrToAmtSpent[buyers[i]] */\n      0xffffffffffffffffffffffffffffffffffffffff\n      and\n      0xffffffffffffffffffffffffffffffffffffffff\n      and\n      dup2\n      mstore\n      0x20\n      add\n      swap1\n      dup2\n      mstore\n      0x20\n      add\n      0x00\n      keccak256\n        /* \"contracts/PayMe.sol\":2255:2284  addrToAmtSpent[buyers[i]] = 0 */\n      dup2\n      swap1\n      sstore\n      pop\n        /* \"contracts/PayMe.sol\":2235:2238  i++ */\n      dup1\n      dup1\n      tag_67\n      swap1\n      tag_68\n      jump\t// in\n    tag_67:\n      swap2\n      pop\n      pop\n        /* \"contracts/PayMe.sol\":2201:2296  for (uint i=0; i < buyers.length; i++) {\r... */\n      jump(tag_60)\n    tag_61:\n      pop\n        /* \"contracts/PayMe.sol\":2329:2330  0 */\n      0x00\n        /* \"contracts/PayMe.sol\":2315:2331  new address[](0) */\n      0xffffffffffffffff\n      dup2\n      gt\n      iszero\n      tag_69\n      jumpi\n      tag_70\n      tag_71\n      jump\t// in\n    tag_70:\n    tag_69:\n      mload(0x40)\n      swap1\n      dup1\n      dup3\n      mstore\n      dup1\n      0x20\n      mul\n      0x20\n      add\n      dup3\n      add\n      0x40\n      mstore\n      dup1\n      iszero\n      tag_72\n      jumpi\n      dup2\n      0x20\n      add\n      0x20\n      dup3\n      mul\n      dup1\n      calldatasize\n      dup4\n      calldatacopy\n      dup1\n      dup3\n      add\n      swap2\n      pop\n      pop\n      swap1\n      pop\n    tag_72:\n      pop\n        /* \"contracts/PayMe.sol\":2306:2312  buyers */\n      0x03\n        /* \"contracts/PayMe.sol\":2306:2331  buyers = new address[](0) */\n      swap1\n      dup1\n      mload\n      swap1\n      0x20\n      add\n      swap1\n      tag_73\n      swap3\n      swap2\n      swap1\n      tag_74\n      jump\t// in\n    tag_73:\n      pop\n        /* \"contracts/PayMe.sol\":2056:2339  function withdraw() \r... */\n      jump\t// out\n        /* \"contracts/PayMe.sol\":1397:1666  function getRate() \r... */\n    tag_22:\n        /* \"contracts/PayMe.sol\":1466:1470  uint */\n      0x00\n        /* \"contracts/PayMe.sol\":1489:1520  AggregatorV3Interface priceFeed */\n      dup1\n        /* \"contracts/PayMe.sol\":1545:1567  GOERLI_TESTNET_ETH_USD */\n      0x00\n      dup1\n      sload\n      swap1\n      0x0100\n      exp\n      swap1\n      div\n      0xffffffffffffffffffffffffffffffffffffffff\n      and\n        /* \"contracts/PayMe.sol\":1489:1568  AggregatorV3Interface priceFeed = AggregatorV3Interface(GOERLI_TESTNET_ETH_USD) */\n      swap1\n      pop\n        /* \"contracts/PayMe.sol\":1581:1594  int256 answer */\n      0x00\n        /* \"contracts/PayMe.sol\":1601:1610  priceFeed */\n      dup2\n        /* \"contracts/PayMe.sol\":1601:1626  priceFeed.latestRoundData */\n      0xffffffffffffffffffffffffffffffffffffffff\n      and\n      0xfeaf968c\n        /* \"contracts/PayMe.sol\":1601:1628  priceFeed.latestRoundData() */\n      mload(0x40)\n      dup2\n      0xffffffff\n      and\n      0xe0\n      shl\n      dup2\n      mstore\n      0x04\n      add\n      0xa0\n      mload(0x40)\n      dup1\n      dup4\n      sub\n      dup2\n      dup7\n      dup1\n      extcodesize\n      iszero\n      dup1\n      iszero\n      tag_76\n      jumpi\n      0x00\n      dup1\n      revert\n    tag_76:\n      pop\n      gas\n      staticcall\n      iszero\n      dup1\n      iszero\n      tag_78\n      jumpi\n      returndatasize\n      0x00\n      dup1\n      returndatacopy\n      revert(0x00, returndatasize)\n    tag_78:\n      pop\n      pop\n      pop\n      pop\n      mload(0x40)\n      returndatasize\n      not(0x1f)\n      0x1f\n      dup3\n      add\n      and\n      dup3\n      add\n      dup1\n      0x40\n      mstore\n      pop\n      dup2\n      add\n      swap1\n      tag_79\n      swap2\n      swap1\n      tag_80\n      jump\t// in\n    tag_79:\n        /* \"contracts/PayMe.sol\":1579:1628  (,int256 answer,,,) = priceFeed.latestRoundData() */\n      pop\n      pop\n      pop\n      swap2\n      pop\n      pop\n        /* \"contracts/PayMe.sol\":1651:1657  answer */\n      dup1\n        /* \"contracts/PayMe.sol\":1639:1658  return uint(answer) */\n      swap3\n      pop\n      pop\n      pop\n        /* \"contracts/PayMe.sol\":1397:1666  function getRate() \r... */\n      swap1\n      jump\t// out\n        /* \"contracts/PayMe.sol\":1175:1389  function getVer()\r... */\n    tag_26:\n        /* \"contracts/PayMe.sol\":1242:1246  uint */\n      0x00\n        /* \"contracts/PayMe.sol\":1265:1296  AggregatorV3Interface priceFeed */\n      dup1\n        /* \"contracts/PayMe.sol\":1321:1343  GOERLI_TESTNET_ETH_USD */\n      0x00\n      dup1\n      sload\n      swap1\n      0x0100\n      exp\n      swap1\n      div\n      0xffffffffffffffffffffffffffffffffffffffff\n      and\n        /* \"contracts/PayMe.sol\":1265:1344  AggregatorV3Interface priceFeed = AggregatorV3Interface(GOERLI_TESTNET_ETH_USD) */\n      swap1\n      pop\n        /* \"contracts/PayMe.sol\":1362:1371  priceFeed */\n      dup1\n        /* \"contracts/PayMe.sol\":1362:1379  priceFeed.version */\n      0xffffffffffffffffffffffffffffffffffffffff\n      and\n      0x54fd4d50\n        /* \"contracts/PayMe.sol\":1362:1381  priceFeed.version() */\n      mload(0x40)\n      dup2\n      0xffffffff\n      and\n      0xe0\n      shl\n      dup2\n      mstore\n      0x04\n      add\n      0x20\n      mload(0x40)\n      dup1\n      dup4\n      sub\n      dup2\n      dup7\n      dup1\n      extcodesize\n      iszero\n      dup1\n      iszero\n      tag_82\n      jumpi\n      0x00\n      dup1\n      revert\n    tag_82:\n      pop\n      gas\n      staticcall\n      iszero\n      dup1\n      iszero\n      tag_84\n      jumpi\n      returndatasize\n      0x00\n      dup1\n      returndatacopy\n      revert(0x00, returndatasize)\n    tag_84:\n      pop\n      pop\n      pop\n      pop\n      mload(0x40)\n      returndatasize\n      not(0x1f)\n      0x1f\n      dup3\n      add\n      and\n      dup3\n      add\n      dup1\n      0x40\n      mstore\n      pop\n      dup2\n      add\n      swap1\n      tag_85\n      swap2\n      swap1\n      tag_86\n      jump\t// in\n    tag_85:\n        /* \"contracts/PayMe.sol\":1355:1381  return priceFeed.version() */\n      swap2\n      pop\n      pop\n        /* \"contracts/PayMe.sol\":1175:1389  function getVer()\r... */\n      swap1\n      jump\t// out\n        /* \"contracts/PayMe.sol\":597:617  address public owner */\n    tag_30:\n      0x01\n      0x00\n      swap1\n      sload\n      swap1\n      0x0100\n      exp\n      swap1\n      div\n      0xffffffffffffffffffffffffffffffffffffffff\n      and\n      dup2\n      jump\t// out\n        /* \"contracts/PayMe.sol\":624:670  mapping(address => uint) public addrToAmtSpent */\n    tag_37:\n      mstore(0x20, 0x02)\n      dup1\n      0x00\n      mstore\n      keccak256(0x00, 0x40)\n      0x00\n      swap2\n      pop\n      swap1\n      pop\n      sload\n      dup2\n      jump\t// out\n        /* \"contracts/PayMe.sol\":768:1167  function pay(uint amountUSD) \r... */\n    tag_41:\n        /* \"contracts/PayMe.sol\":867:884  uint amountUSD18d */\n      0x00\n        /* \"contracts/PayMe.sol\":899:905  10**18 */\n      0x0de0b6b3a7640000\n        /* \"contracts/PayMe.sol\":887:896  amountUSD */\n      dup3\n        /* \"contracts/PayMe.sol\":887:905  amountUSD * 10**18 */\n      tag_88\n      swap2\n      swap1\n      tag_50\n      jump\t// in\n    tag_88:\n        /* \"contracts/PayMe.sol\":867:905  uint amountUSD18d = amountUSD * 10**18 */\n      swap1\n      pop\n        /* \"contracts/PayMe.sol\":967:979  amountUSD18d */\n      dup1\n        /* \"contracts/PayMe.sol\":944:963  ethToUSD(msg.value) */\n      tag_89\n        /* \"contracts/PayMe.sol\":953:962  msg.value */\n      callvalue\n        /* \"contracts/PayMe.sol\":944:952  ethToUSD */\n      tag_15\n        /* \"contracts/PayMe.sol\":944:963  ethToUSD(msg.value) */\n      jump\t// in\n    tag_89:\n        /* \"contracts/PayMe.sol\":944:979  ethToUSD(msg.value) >= amountUSD18d */\n      lt\n      iszero\n        /* \"contracts/PayMe.sol\":936:1002  require(ethToUSD(msg.value) >= amountUSD18d, \"Not enough balance\") */\n      tag_90\n      jumpi\n      mload(0x40)\n      0x08c379a000000000000000000000000000000000000000000000000000000000\n      dup2\n      mstore\n      0x04\n      add\n      tag_91\n      swap1\n      tag_92\n      jump\t// in\n    tag_91:\n      mload(0x40)\n      dup1\n      swap2\n      sub\n      swap1\n      revert\n    tag_90:\n        /* \"contracts/PayMe.sol\":1057:1058  0 */\n      0x00\n        /* \"contracts/PayMe.sol\":1027:1041  addrToAmtSpent */\n      0x02\n        /* \"contracts/PayMe.sol\":1027:1053  addrToAmtSpent[msg.sender] */\n      0x00\n        /* \"contracts/PayMe.sol\":1042:1052  msg.sender */\n      caller\n        /* \"contracts/PayMe.sol\":1027:1053  addrToAmtSpent[msg.sender] */\n      0xffffffffffffffffffffffffffffffffffffffff\n      and\n      0xffffffffffffffffffffffffffffffffffffffff\n      and\n      dup2\n      mstore\n      0x20\n      add\n      swap1\n      dup2\n      mstore\n      0x20\n      add\n      0x00\n      keccak256\n      sload\n        /* \"contracts/PayMe.sol\":1027:1058  addrToAmtSpent[msg.sender] == 0 */\n      eq\n        /* \"contracts/PayMe.sol\":1023:1110  if (addrToAmtSpent[msg.sender] == 0) {\r... */\n      iszero\n      tag_93\n      jumpi\n        /* \"contracts/PayMe.sol\":1075:1081  buyers */\n      0x03\n        /* \"contracts/PayMe.sol\":1087:1097  msg.sender */\n      caller\n        /* \"contracts/PayMe.sol\":1075:1098  buyers.push(msg.sender) */\n      swap1\n      dup1\n      0x01\n      dup2\n      sload\n      add\n      dup1\n      dup3\n      sstore\n      dup1\n      swap2\n      pop\n      pop\n      0x01\n      swap1\n      sub\n      swap1\n      0x00\n      mstore\n      keccak256(0x00, 0x20)\n      add\n      0x00\n      swap1\n      swap2\n      swap1\n      swap2\n      swap1\n      swap2\n      0x0100\n      exp\n      dup2\n      sload\n      dup2\n      0xffffffffffffffffffffffffffffffffffffffff\n      mul\n      not\n      and\n      swap1\n      dup4\n      0xffffffffffffffffffffffffffffffffffffffff\n      and\n      mul\n      or\n      swap1\n      sstore\n      pop\n        /* \"contracts/PayMe.sol\":1023:1110  if (addrToAmtSpent[msg.sender] == 0) {\r... */\n    tag_93:\n        /* \"contracts/PayMe.sol\":1150:1159  msg.value */\n      callvalue\n        /* \"contracts/PayMe.sol\":1120:1134  addrToAmtSpent */\n      0x02\n        /* \"contracts/PayMe.sol\":1120:1146  addrToAmtSpent[msg.sender] */\n      0x00\n        /* \"contracts/PayMe.sol\":1135:1145  msg.sender */\n      caller\n        /* \"contracts/PayMe.sol\":1120:1146  addrToAmtSpent[msg.sender] */\n      0xffffffffffffffffffffffffffffffffffffffff\n      and\n      0xffffffffffffffffffffffffffffffffffffffff\n      and\n      dup2\n      mstore\n      0x20\n      add\n      swap1\n      dup2\n      mstore\n      0x20\n      add\n      0x00\n      keccak256\n      0x00\n        /* \"contracts/PayMe.sol\":1120:1159  addrToAmtSpent[msg.sender] += msg.value */\n      dup3\n      dup3\n      sload\n      tag_95\n      swap2\n      swap1\n      tag_96\n      jump\t// in\n    tag_95:\n      swap3\n      pop\n      pop\n      dup2\n      swap1\n      sstore\n      pop\n        /* \"contracts/PayMe.sol\":838:1167  {\r... */\n      pop\n        /* \"contracts/PayMe.sol\":768:1167  function pay(uint amountUSD) \r... */\n      pop\n      jump\t// out\n        /* \"contracts/PayMe.sol\":677:700  address[] public buyers */\n    tag_45:\n      0x03\n      dup2\n      dup2\n      sload\n      dup2\n      lt\n      tag_97\n      jumpi\n      0x00\n      dup1\n      revert\n    tag_97:\n      swap1\n      0x00\n      mstore\n      keccak256(0x00, 0x20)\n      add\n      0x00\n      swap2\n      pop\n      sload\n      swap1\n      0x0100\n      exp\n      swap1\n      div\n      0xffffffffffffffffffffffffffffffffffffffff\n      and\n      dup2\n      jump\t// out\n    tag_74:\n      dup3\n      dup1\n      sload\n      dup3\n      dup3\n      sstore\n      swap1\n      0x00\n      mstore\n      keccak256(0x00, 0x20)\n      swap1\n      dup2\n      add\n      swap3\n      dup3\n      iszero\n      tag_99\n      jumpi\n      swap2\n      0x20\n      mul\n      dup3\n      add\n    tag_100:\n      dup3\n      dup2\n      gt\n      iszero\n      tag_101\n      jumpi\n      dup3\n      mload\n      dup3\n      exp(0x0100, 0x00)\n      dup2\n      sload\n      dup2\n      0xffffffffffffffffffffffffffffffffffffffff\n      mul\n      not\n      and\n      swap1\n      dup4\n      0xffffffffffffffffffffffffffffffffffffffff\n      and\n      mul\n      or\n      swap1\n      sstore\n      pop\n      swap2\n      0x20\n      add\n      swap2\n      swap1\n      0x01\n      add\n      swap1\n      jump(tag_100)\n    tag_101:\n    tag_99:\n      pop\n      swap1\n      pop\n      tag_102\n      swap2\n      swap1\n      tag_103\n      jump\t// in\n    tag_102:\n      pop\n      swap1\n      jump\t// out\n    tag_103:\n    tag_104:\n      dup1\n      dup3\n      gt\n      iszero\n      tag_105\n      jumpi\n      0x00\n      dup2\n      0x00\n      swap1\n      sstore\n      pop\n      0x01\n      add\n      jump(tag_104)\n    tag_105:\n      pop\n      swap1\n      jump\t// out\n        /* \"#utility.yul\":7:146   */\n    tag_107:\n        /* \"#utility.yul\":53:58   */\n      0x00\n        /* \"#utility.yul\":91:97   */\n      dup2\n        /* \"#utility.yul\":78:98   */\n      calldataload\n        /* \"#utility.yul\":69:98   */\n      swap1\n      pop\n        /* \"#utility.yul\":107:140   */\n      tag_109\n        /* \"#utility.yul\":134:139   */\n      dup2\n        /* \"#utility.yul\":107:140   */\n      tag_110\n      jump\t// in\n    tag_109:\n        /* \"#utility.yul\":7:146   */\n      swap3\n      swap2\n      pop\n      pop\n      jump\t// out\n        /* \"#utility.yul\":152:293   */\n    tag_111:\n        /* \"#utility.yul\":208:213   */\n      0x00\n        /* \"#utility.yul\":239:245   */\n      dup2\n        /* \"#utility.yul\":233:246   */\n      mload\n        /* \"#utility.yul\":224:246   */\n      swap1\n      pop\n        /* \"#utility.yul\":255:287   */\n      tag_113\n        /* \"#utility.yul\":281:286   */\n      dup2\n        /* \"#utility.yul\":255:287   */\n      tag_114\n      jump\t// in\n    tag_113:\n        /* \"#utility.yul\":152:293   */\n      swap3\n      swap2\n      pop\n      pop\n      jump\t// out\n        /* \"#utility.yul\":299:438   */\n    tag_115:\n        /* \"#utility.yul\":345:350   */\n      0x00\n        /* \"#utility.yul\":383:389   */\n      dup2\n        /* \"#utility.yul\":370:390   */\n      calldataload\n        /* \"#utility.yul\":361:390   */\n      swap1\n      pop\n        /* \"#utility.yul\":399:432   */\n      tag_117\n        /* \"#utility.yul\":426:431   */\n      dup2\n        /* \"#utility.yul\":399:432   */\n      tag_118\n      jump\t// in\n    tag_117:\n        /* \"#utility.yul\":299:438   */\n      swap3\n      swap2\n      pop\n      pop\n      jump\t// out\n        /* \"#utility.yul\":444:587   */\n    tag_119:\n        /* \"#utility.yul\":501:506   */\n      0x00\n        /* \"#utility.yul\":532:538   */\n      dup2\n        /* \"#utility.yul\":526:539   */\n      mload\n        /* \"#utility.yul\":517:539   */\n      swap1\n      pop\n        /* \"#utility.yul\":548:581   */\n      tag_121\n        /* \"#utility.yul\":575:580   */\n      dup2\n        /* \"#utility.yul\":548:581   */\n      tag_118\n      jump\t// in\n    tag_121:\n        /* \"#utility.yul\":444:587   */\n      swap3\n      swap2\n      pop\n      pop\n      jump\t// out\n        /* \"#utility.yul\":593:734   */\n    tag_122:\n        /* \"#utility.yul\":649:654   */\n      0x00\n        /* \"#utility.yul\":680:686   */\n      dup2\n        /* \"#utility.yul\":674:687   */\n      mload\n        /* \"#utility.yul\":665:687   */\n      swap1\n      pop\n        /* \"#utility.yul\":696:728   */\n      tag_124\n        /* \"#utility.yul\":722:727   */\n      dup2\n        /* \"#utility.yul\":696:728   */\n      tag_125\n      jump\t// in\n    tag_124:\n        /* \"#utility.yul\":593:734   */\n      swap3\n      swap2\n      pop\n      pop\n      jump\t// out\n        /* \"#utility.yul\":740:1069   */\n    tag_36:\n        /* \"#utility.yul\":799:805   */\n      0x00\n        /* \"#utility.yul\":848:850   */\n      0x20\n        /* \"#utility.yul\":836:845   */\n      dup3\n        /* \"#utility.yul\":827:834   */\n      dup5\n        /* \"#utility.yul\":823:846   */\n      sub\n        /* \"#utility.yul\":819:851   */\n      slt\n        /* \"#utility.yul\":816:935   */\n      iszero\n      tag_127\n      jumpi\n        /* \"#utility.yul\":854:933   */\n      tag_128\n      tag_129\n      jump\t// in\n    tag_128:\n        /* \"#utility.yul\":816:935   */\n    tag_127:\n        /* \"#utility.yul\":974:975   */\n      0x00\n        /* \"#utility.yul\":999:1052   */\n      tag_130\n        /* \"#utility.yul\":1044:1051   */\n      dup5\n        /* \"#utility.yul\":1035:1041   */\n      dup3\n        /* \"#utility.yul\":1024:1033   */\n      dup6\n        /* \"#utility.yul\":1020:1042   */\n      add\n        /* \"#utility.yul\":999:1052   */\n      tag_107\n      jump\t// in\n    tag_130:\n        /* \"#utility.yul\":989:1052   */\n      swap2\n      pop\n        /* \"#utility.yul\":945:1062   */\n      pop\n        /* \"#utility.yul\":740:1069   */\n      swap3\n      swap2\n      pop\n      pop\n      jump\t// out\n        /* \"#utility.yul\":1075:1404   */\n    tag_14:\n        /* \"#utility.yul\":1134:1140   */\n      0x00\n        /* \"#utility.yul\":1183:1185   */\n      0x20\n        /* \"#utility.yul\":1171:1180   */\n      dup3\n        /* \"#utility.yul\":1162:1169   */\n      dup5\n        /* \"#utility.yul\":1158:1181   */\n      sub\n        /* \"#utility.yul\":1154:1186   */\n      slt\n        /* \"#utility.yul\":1151:1270   */\n      iszero\n      tag_132\n      jumpi\n        /* \"#utility.yul\":1189:1268   */\n      tag_133\n      tag_129\n      jump\t// in\n    tag_133:\n        /* \"#utility.yul\":1151:1270   */\n    tag_132:\n        /* \"#utility.yul\":1309:1310   */\n      0x00\n        /* \"#utility.yul\":1334:1387   */\n      tag_134\n        /* \"#utility.yul\":1379:1386   */\n      dup5\n        /* \"#utility.yul\":1370:1376   */\n      dup3\n        /* \"#utility.yul\":1359:1368   */\n      dup6\n        /* \"#utility.yul\":1355:1377   */\n      add\n        /* \"#utility.yul\":1334:1387   */\n      tag_115\n      jump\t// in\n    tag_134:\n        /* \"#utility.yul\":1324:1387   */\n      swap2\n      pop\n        /* \"#utility.yul\":1280:1397   */\n      pop\n        /* \"#utility.yul\":1075:1404   */\n      swap3\n      swap2\n      pop\n      pop\n      jump\t// out\n        /* \"#utility.yul\":1410:1761   */\n    tag_86:\n        /* \"#utility.yul\":1480:1486   */\n      0x00\n        /* \"#utility.yul\":1529:1531   */\n      0x20\n        /* \"#utility.yul\":1517:1526   */\n      dup3\n        /* \"#utility.yul\":1508:1515   */\n      dup5\n        /* \"#utility.yul\":1504:1527   */\n      sub\n        /* \"#utility.yul\":1500:1532   */\n      slt\n        /* \"#utility.yul\":1497:1616   */\n      iszero\n      tag_136\n      jumpi\n        /* \"#utility.yul\":1535:1614   */\n      tag_137\n      tag_129\n      jump\t// in\n    tag_137:\n        /* \"#utility.yul\":1497:1616   */\n    tag_136:\n        /* \"#utility.yul\":1655:1656   */\n      0x00\n        /* \"#utility.yul\":1680:1744   */\n      tag_138\n        /* \"#utility.yul\":1736:1743   */\n      dup5\n        /* \"#utility.yul\":1727:1733   */\n      dup3\n        /* \"#utility.yul\":1716:1725   */\n      dup6\n        /* \"#utility.yul\":1712:1734   */\n      add\n        /* \"#utility.yul\":1680:1744   */\n      tag_119\n      jump\t// in\n    tag_138:\n        /* \"#utility.yul\":1670:1744   */\n      swap2\n      pop\n        /* \"#utility.yul\":1626:1754   */\n      pop\n        /* \"#utility.yul\":1410:1761   */\n      swap3\n      swap2\n      pop\n      pop\n      jump\t// out\n        /* \"#utility.yul\":1767:2738   */\n    tag_80:\n        /* \"#utility.yul\":1870:1876   */\n      0x00\n        /* \"#utility.yul\":1878:1884   */\n      dup1\n        /* \"#utility.yul\":1886:1892   */\n      0x00\n        /* \"#utility.yul\":1894:1900   */\n      dup1\n        /* \"#utility.yul\":1902:1908   */\n      0x00\n        /* \"#utility.yul\":1951:1954   */\n      0xa0\n        /* \"#utility.yul\":1939:1948   */\n      dup7\n        /* \"#utility.yul\":1930:1937   */\n      dup9\n        /* \"#utility.yul\":1926:1949   */\n      sub\n        /* \"#utility.yul\":1922:1955   */\n      slt\n        /* \"#utility.yul\":1919:2039   */\n      iszero\n      tag_140\n      jumpi\n        /* \"#utility.yul\":1958:2037   */\n      tag_141\n      tag_129\n      jump\t// in\n    tag_141:\n        /* \"#utility.yul\":1919:2039   */\n    tag_140:\n        /* \"#utility.yul\":2078:2079   */\n      0x00\n        /* \"#utility.yul\":2103:2166   */\n      tag_142\n        /* \"#utility.yul\":2158:2165   */\n      dup9\n        /* \"#utility.yul\":2149:2155   */\n      dup3\n        /* \"#utility.yul\":2138:2147   */\n      dup10\n        /* \"#utility.yul\":2134:2156   */\n      add\n        /* \"#utility.yul\":2103:2166   */\n      tag_122\n      jump\t// in\n    tag_142:\n        /* \"#utility.yul\":2093:2166   */\n      swap6\n      pop\n        /* \"#utility.yul\":2049:2176   */\n      pop\n        /* \"#utility.yul\":2215:2217   */\n      0x20\n        /* \"#utility.yul\":2241:2304   */\n      tag_143\n        /* \"#utility.yul\":2296:2303   */\n      dup9\n        /* \"#utility.yul\":2287:2293   */\n      dup3\n        /* \"#utility.yul\":2276:2285   */\n      dup10\n        /* \"#utility.yul\":2272:2294   */\n      add\n        /* \"#utility.yul\":2241:2304   */\n      tag_111\n      jump\t// in\n    tag_143:\n        /* \"#utility.yul\":2231:2304   */\n      swap5\n      pop\n        /* \"#utility.yul\":2186:2314   */\n      pop\n        /* \"#utility.yul\":2353:2355   */\n      0x40\n        /* \"#utility.yul\":2379:2443   */\n      tag_144\n        /* \"#utility.yul\":2435:2442   */\n      dup9\n        /* \"#utility.yul\":2426:2432   */\n      dup3\n        /* \"#utility.yul\":2415:2424   */\n      dup10\n        /* \"#utility.yul\":2411:2433   */\n      add\n        /* \"#utility.yul\":2379:2443   */\n      tag_119\n      jump\t// in\n    tag_144:\n        /* \"#utility.yul\":2369:2443   */\n      swap4\n      pop\n        /* \"#utility.yul\":2324:2453   */\n      pop\n        /* \"#utility.yul\":2492:2494   */\n      0x60\n        /* \"#utility.yul\":2518:2582   */\n      tag_145\n        /* \"#utility.yul\":2574:2581   */\n      dup9\n        /* \"#utility.yul\":2565:2571   */\n      dup3\n        /* \"#utility.yul\":2554:2563   */\n      dup10\n        /* \"#utility.yul\":2550:2572   */\n      add\n        /* \"#utility.yul\":2518:2582   */\n      tag_119\n      jump\t// in\n    tag_145:\n        /* \"#utility.yul\":2508:2582   */\n      swap3\n      pop\n        /* \"#utility.yul\":2463:2592   */\n      pop\n        /* \"#utility.yul\":2631:2634   */\n      0x80\n        /* \"#utility.yul\":2658:2721   */\n      tag_146\n        /* \"#utility.yul\":2713:2720   */\n      dup9\n        /* \"#utility.yul\":2704:2710   */\n      dup3\n        /* \"#utility.yul\":2693:2702   */\n      dup10\n        /* \"#utility.yul\":2689:2711   */\n      add\n        /* \"#utility.yul\":2658:2721   */\n      tag_122\n      jump\t// in\n    tag_146:\n        /* \"#utility.yul\":2648:2721   */\n      swap2\n      pop\n        /* \"#utility.yul\":2602:2731   */\n      pop\n        /* \"#utility.yul\":1767:2738   */\n      swap3\n      swap6\n      pop\n      swap3\n      swap6\n      swap1\n      swap4\n      pop\n      jump\t// out\n        /* \"#utility.yul\":2744:2862   */\n    tag_147:\n        /* \"#utility.yul\":2831:2855   */\n      tag_149\n        /* \"#utility.yul\":2849:2854   */\n      dup2\n        /* \"#utility.yul\":2831:2855   */\n      tag_150\n      jump\t// in\n    tag_149:\n        /* \"#utility.yul\":2826:2829   */\n      dup3\n        /* \"#utility.yul\":2819:2856   */\n      mstore\n        /* \"#utility.yul\":2744:2862   */\n      pop\n      pop\n      jump\t// out\n        /* \"#utility.yul\":2868:3234   */\n    tag_151:\n        /* \"#utility.yul\":3010:3013   */\n      0x00\n        /* \"#utility.yul\":3031:3098   */\n      tag_153\n        /* \"#utility.yul\":3095:3097   */\n      0x20\n        /* \"#utility.yul\":3090:3093   */\n      dup4\n        /* \"#utility.yul\":3031:3098   */\n      tag_154\n      jump\t// in\n    tag_153:\n        /* \"#utility.yul\":3024:3098   */\n      swap2\n      pop\n        /* \"#utility.yul\":3107:3200   */\n      tag_155\n        /* \"#utility.yul\":3196:3199   */\n      dup3\n        /* \"#utility.yul\":3107:3200   */\n      tag_156\n      jump\t// in\n    tag_155:\n        /* \"#utility.yul\":3225:3227   */\n      0x20\n        /* \"#utility.yul\":3220:3223   */\n      dup3\n        /* \"#utility.yul\":3216:3228   */\n      add\n        /* \"#utility.yul\":3209:3228   */\n      swap1\n      pop\n        /* \"#utility.yul\":2868:3234   */\n      swap2\n      swap1\n      pop\n      jump\t// out\n        /* \"#utility.yul\":3240:3606   */\n    tag_157:\n        /* \"#utility.yul\":3382:3385   */\n      0x00\n        /* \"#utility.yul\":3403:3470   */\n      tag_159\n        /* \"#utility.yul\":3467:3469   */\n      0x12\n        /* \"#utility.yul\":3462:3465   */\n      dup4\n        /* \"#utility.yul\":3403:3470   */\n      tag_154\n      jump\t// in\n    tag_159:\n        /* \"#utility.yul\":3396:3470   */\n      swap2\n      pop\n        /* \"#utility.yul\":3479:3572   */\n      tag_160\n        /* \"#utility.yul\":3568:3571   */\n      dup3\n        /* \"#utility.yul\":3479:3572   */\n      tag_161\n      jump\t// in\n    tag_160:\n        /* \"#utility.yul\":3597:3599   */\n      0x20\n        /* \"#utility.yul\":3592:3595   */\n      dup3\n        /* \"#utility.yul\":3588:3600   */\n      add\n        /* \"#utility.yul\":3581:3600   */\n      swap1\n      pop\n        /* \"#utility.yul\":3240:3606   */\n      swap2\n      swap1\n      pop\n      jump\t// out\n        /* \"#utility.yul\":3612:3730   */\n    tag_162:\n        /* \"#utility.yul\":3699:3723   */\n      tag_164\n        /* \"#utility.yul\":3717:3722   */\n      dup2\n        /* \"#utility.yul\":3699:3723   */\n      tag_165\n      jump\t// in\n    tag_164:\n        /* \"#utility.yul\":3694:3697   */\n      dup3\n        /* \"#utility.yul\":3687:3724   */\n      mstore\n        /* \"#utility.yul\":3612:3730   */\n      pop\n      pop\n      jump\t// out\n        /* \"#utility.yul\":3736:3958   */\n    tag_32:\n        /* \"#utility.yul\":3829:3833   */\n      0x00\n        /* \"#utility.yul\":3867:3869   */\n      0x20\n        /* \"#utility.yul\":3856:3865   */\n      dup3\n        /* \"#utility.yul\":3852:3870   */\n      add\n        /* \"#utility.yul\":3844:3870   */\n      swap1\n      pop\n        /* \"#utility.yul\":3880:3951   */\n      tag_167\n        /* \"#utility.yul\":3948:3949   */\n      0x00\n        /* \"#utility.yul\":3937:3946   */\n      dup4\n        /* \"#utility.yul\":3933:3950   */\n      add\n        /* \"#utility.yul\":3924:3930   */\n      dup5\n        /* \"#utility.yul\":3880:3951   */\n      tag_147\n      jump\t// in\n    tag_167:\n        /* \"#utility.yul\":3736:3958   */\n      swap3\n      swap2\n      pop\n      pop\n      jump\t// out\n        /* \"#utility.yul\":3964:4383   */\n    tag_56:\n        /* \"#utility.yul\":4130:4134   */\n      0x00\n        /* \"#utility.yul\":4168:4170   */\n      0x20\n        /* \"#utility.yul\":4157:4166   */\n      dup3\n        /* \"#utility.yul\":4153:4171   */\n      add\n        /* \"#utility.yul\":4145:4171   */\n      swap1\n      pop\n        /* \"#utility.yul\":4217:4226   */\n      dup2\n        /* \"#utility.yul\":4211:4215   */\n      dup2\n        /* \"#utility.yul\":4207:4227   */\n      sub\n        /* \"#utility.yul\":4203:4204   */\n      0x00\n        /* \"#utility.yul\":4192:4201   */\n      dup4\n        /* \"#utility.yul\":4188:4205   */\n      add\n        /* \"#utility.yul\":4181:4228   */\n      mstore\n        /* \"#utility.yul\":4245:4376   */\n      tag_169\n        /* \"#utility.yul\":4371:4375   */\n      dup2\n        /* \"#utility.yul\":4245:4376   */\n      tag_151\n      jump\t// in\n    tag_169:\n        /* \"#utility.yul\":4237:4376   */\n      swap1\n      pop\n        /* \"#utility.yul\":3964:4383   */\n      swap2\n      swap1\n      pop\n      jump\t// out\n        /* \"#utility.yul\":4389:4808   */\n    tag_92:\n        /* \"#utility.yul\":4555:4559   */\n      0x00\n        /* \"#utility.yul\":4593:4595   */\n      0x20\n        /* \"#utility.yul\":4582:4591   */\n      dup3\n        /* \"#utility.yul\":4578:4596   */\n      add\n        /* \"#utility.yul\":4570:4596   */\n      swap1\n      pop\n        /* \"#utility.yul\":4642:4651   */\n      dup2\n        /* \"#utility.yul\":4636:4640   */\n      dup2\n        /* \"#utility.yul\":4632:4652   */\n      sub\n        /* \"#utility.yul\":4628:4629   */\n      0x00\n        /* \"#utility.yul\":4617:4626   */\n      dup4\n        /* \"#utility.yul\":4613:4630   */\n      add\n        /* \"#utility.yul\":4606:4653   */\n      mstore\n        /* \"#utility.yul\":4670:4801   */\n      tag_171\n        /* \"#utility.yul\":4796:4800   */\n      dup2\n        /* \"#utility.yul\":4670:4801   */\n      tag_157\n      jump\t// in\n    tag_171:\n        /* \"#utility.yul\":4662:4801   */\n      swap1\n      pop\n        /* \"#utility.yul\":4389:4808   */\n      swap2\n      swap1\n      pop\n      jump\t// out\n        /* \"#utility.yul\":4814:5036   */\n    tag_17:\n        /* \"#utility.yul\":4907:4911   */\n      0x00\n        /* \"#utility.yul\":4945:4947   */\n      0x20\n        /* \"#utility.yul\":4934:4943   */\n      dup3\n        /* \"#utility.yul\":4930:4948   */\n      add\n        /* \"#utility.yul\":4922:4948   */\n      swap1\n      pop\n        /* \"#utility.yul\":4958:5029   */\n      tag_173\n        /* \"#utility.yul\":5026:5027   */\n      0x00\n        /* \"#utility.yul\":5015:5024   */\n      dup4\n        /* \"#utility.yul\":5011:5028   */\n      add\n        /* \"#utility.yul\":5002:5008   */\n      dup5\n        /* \"#utility.yul\":4958:5029   */\n      tag_162\n      jump\t// in\n    tag_173:\n        /* \"#utility.yul\":4814:5036   */\n      swap3\n      swap2\n      pop\n      pop\n      jump\t// out\n        /* \"#utility.yul\":5123:5292   */\n    tag_154:\n        /* \"#utility.yul\":5207:5218   */\n      0x00\n        /* \"#utility.yul\":5241:5247   */\n      dup3\n        /* \"#utility.yul\":5236:5239   */\n      dup3\n        /* \"#utility.yul\":5229:5248   */\n      mstore\n        /* \"#utility.yul\":5281:5285   */\n      0x20\n        /* \"#utility.yul\":5276:5279   */\n      dup3\n        /* \"#utility.yul\":5272:5286   */\n      add\n        /* \"#utility.yul\":5257:5286   */\n      swap1\n      pop\n        /* \"#utility.yul\":5123:5292   */\n      swap3\n      swap2\n      pop\n      pop\n      jump\t// out\n        /* \"#utility.yul\":5298:5603   */\n    tag_96:\n        /* \"#utility.yul\":5338:5341   */\n      0x00\n        /* \"#utility.yul\":5357:5377   */\n      tag_178\n        /* \"#utility.yul\":5375:5376   */\n      dup3\n        /* \"#utility.yul\":5357:5377   */\n      tag_165\n      jump\t// in\n    tag_178:\n        /* \"#utility.yul\":5352:5377   */\n      swap2\n      pop\n        /* \"#utility.yul\":5391:5411   */\n      tag_179\n        /* \"#utility.yul\":5409:5410   */\n      dup4\n        /* \"#utility.yul\":5391:5411   */\n      tag_165\n      jump\t// in\n    tag_179:\n        /* \"#utility.yul\":5386:5411   */\n      swap3\n      pop\n        /* \"#utility.yul\":5545:5546   */\n      dup3\n        /* \"#utility.yul\":5477:5543   */\n      0xffffffffffffffffffffffffffffffffffffffffffffffffffffffffffffffff\n        /* \"#utility.yul\":5473:5547   */\n      sub\n        /* \"#utility.yul\":5470:5471   */\n      dup3\n        /* \"#utility.yul\":5467:5548   */\n      gt\n        /* \"#utility.yul\":5464:5571   */\n      iszero\n      tag_180\n      jumpi\n        /* \"#utility.yul\":5551:5569   */\n      tag_181\n      tag_182\n      jump\t// in\n    tag_181:\n        /* \"#utility.yul\":5464:5571   */\n    tag_180:\n        /* \"#utility.yul\":5595:5596   */\n      dup3\n        /* \"#utility.yul\":5592:5593   */\n      dup3\n        /* \"#utility.yul\":5588:5597   */\n      add\n        /* \"#utility.yul\":5581:5597   */\n      swap1\n      pop\n        /* \"#utility.yul\":5298:5603   */\n      swap3\n      swap2\n      pop\n      pop\n      jump\t// out\n        /* \"#utility.yul\":5609:5794   */\n    tag_52:\n        /* \"#utility.yul\":5649:5650   */\n      0x00\n        /* \"#utility.yul\":5666:5686   */\n      tag_184\n        /* \"#utility.yul\":5684:5685   */\n      dup3\n        /* \"#utility.yul\":5666:5686   */\n      tag_165\n      jump\t// in\n    tag_184:\n        /* \"#utility.yul\":5661:5686   */\n      swap2\n      pop\n        /* \"#utility.yul\":5700:5720   */\n      tag_185\n        /* \"#utility.yul\":5718:5719   */\n      dup4\n        /* \"#utility.yul\":5700:5720   */\n      tag_165\n      jump\t// in\n    tag_185:\n        /* \"#utility.yul\":5695:5720   */\n      swap3\n      pop\n        /* \"#utility.yul\":5739:5740   */\n      dup3\n        /* \"#utility.yul\":5729:5764   */\n      tag_186\n      jumpi\n        /* \"#utility.yul\":5744:5762   */\n      tag_187\n      tag_188\n      jump\t// in\n    tag_187:\n        /* \"#utility.yul\":5729:5764   */\n    tag_186:\n        /* \"#utility.yul\":5786:5787   */\n      dup3\n        /* \"#utility.yul\":5783:5784   */\n      dup3\n        /* \"#utility.yul\":5779:5788   */\n      div\n        /* \"#utility.yul\":5774:5788   */\n      swap1\n      pop\n        /* \"#utility.yul\":5609:5794   */\n      swap3\n      swap2\n      pop\n      pop\n      jump\t// out\n        /* \"#utility.yul\":5800:6148   */\n    tag_50:\n        /* \"#utility.yul\":5840:5847   */\n      0x00\n        /* \"#utility.yul\":5863:5883   */\n      tag_190\n        /* \"#utility.yul\":5881:5882   */\n      dup3\n        /* \"#utility.yul\":5863:5883   */\n      tag_165\n      jump\t// in\n    tag_190:\n        /* \"#utility.yul\":5858:5883   */\n      swap2\n      pop\n        /* \"#utility.yul\":5897:5917   */\n      tag_191\n        /* \"#utility.yul\":5915:5916   */\n      dup4\n        /* \"#utility.yul\":5897:5917   */\n      tag_165\n      jump\t// in\n    tag_191:\n        /* \"#utility.yul\":5892:5917   */\n      swap3\n      pop\n        /* \"#utility.yul\":6085:6086   */\n      dup2\n        /* \"#utility.yul\":6017:6083   */\n      0xffffffffffffffffffffffffffffffffffffffffffffffffffffffffffffffff\n        /* \"#utility.yul\":6013:6087   */\n      div\n        /* \"#utility.yul\":6010:6011   */\n      dup4\n        /* \"#utility.yul\":6007:6088   */\n      gt\n        /* \"#utility.yul\":6002:6003   */\n      dup3\n        /* \"#utility.yul\":5995:6004   */\n      iszero\n        /* \"#utility.yul\":5988:6005   */\n      iszero\n        /* \"#utility.yul\":5984:6089   */\n      and\n        /* \"#utility.yul\":5981:6112   */\n      iszero\n      tag_192\n      jumpi\n        /* \"#utility.yul\":6092:6110   */\n      tag_193\n      tag_182\n      jump\t// in\n    tag_193:\n        /* \"#utility.yul\":5981:6112   */\n    tag_192:\n        /* \"#utility.yul\":6140:6141   */\n      dup3\n        /* \"#utility.yul\":6137:6138   */\n      dup3\n        /* \"#utility.yul\":6133:6142   */\n      mul\n        /* \"#utility.yul\":6122:6142   */\n      swap1\n      pop\n        /* \"#utility.yul\":5800:6148   */\n      swap3\n      swap2\n      pop\n      pop\n      jump\t// out\n        /* \"#utility.yul\":6154:6250   */\n    tag_150:\n        /* \"#utility.yul\":6191:6198   */\n      0x00\n        /* \"#utility.yul\":6220:6244   */\n      tag_195\n        /* \"#utility.yul\":6238:6243   */\n      dup3\n        /* \"#utility.yul\":6220:6244   */\n      tag_196\n      jump\t// in\n    tag_195:\n        /* \"#utility.yul\":6209:6244   */\n      swap1\n      pop\n        /* \"#utility.yul\":6154:6250   */\n      swap2\n      swap1\n      pop\n      jump\t// out\n        /* \"#utility.yul\":6256:6332   */\n    tag_197:\n        /* \"#utility.yul\":6292:6299   */\n      0x00\n        /* \"#utility.yul\":6321:6326   */\n      dup2\n        /* \"#utility.yul\":6310:6326   */\n      swap1\n      pop\n        /* \"#utility.yul\":6256:6332   */\n      swap2\n      swap1\n      pop\n      jump\t// out\n        /* \"#utility.yul\":6338:6464   */\n    tag_196:\n        /* \"#utility.yul\":6375:6382   */\n      0x00\n        /* \"#utility.yul\":6415:6457   */\n      0xffffffffffffffffffffffffffffffffffffffff\n        /* \"#utility.yul\":6408:6413   */\n      dup3\n        /* \"#utility.yul\":6404:6458   */\n      and\n        /* \"#utility.yul\":6393:6458   */\n      swap1\n      pop\n        /* \"#utility.yul\":6338:6464   */\n      swap2\n      swap1\n      pop\n      jump\t// out\n        /* \"#utility.yul\":6470:6547   */\n    tag_165:\n        /* \"#utility.yul\":6507:6514   */\n      0x00\n        /* \"#utility.yul\":6536:6541   */\n      dup2\n        /* \"#utility.yul\":6525:6541   */\n      swap1\n      pop\n        /* \"#utility.yul\":6470:6547   */\n      swap2\n      swap1\n      pop\n      jump\t// out\n        /* \"#utility.yul\":6553:6658   */\n    tag_201:\n        /* \"#utility.yul\":6589:6596   */\n      0x00\n        /* \"#utility.yul\":6629:6651   */\n      0xffffffffffffffffffff\n        /* \"#utility.yul\":6622:6627   */\n      dup3\n        /* \"#utility.yul\":6618:6652   */\n      and\n        /* \"#utility.yul\":6607:6652   */\n      swap1\n      pop\n        /* \"#utility.yul\":6553:6658   */\n      swap2\n      swap1\n      pop\n      jump\t// out\n        /* \"#utility.yul\":6664:6897   */\n    tag_68:\n        /* \"#utility.yul\":6703:6706   */\n      0x00\n        /* \"#utility.yul\":6726:6750   */\n      tag_204\n        /* \"#utility.yul\":6744:6749   */\n      dup3\n        /* \"#utility.yul\":6726:6750   */\n      tag_165\n      jump\t// in\n    tag_204:\n        /* \"#utility.yul\":6717:6750   */\n      swap2\n      pop\n        /* \"#utility.yul\":6772:6838   */\n      0xffffffffffffffffffffffffffffffffffffffffffffffffffffffffffffffff\n        /* \"#utility.yul\":6765:6770   */\n      dup3\n        /* \"#utility.yul\":6762:6839   */\n      eq\n        /* \"#utility.yul\":6759:6862   */\n      iszero\n      tag_205\n      jumpi\n        /* \"#utility.yul\":6842:6860   */\n      tag_206\n      tag_182\n      jump\t// in\n    tag_206:\n        /* \"#utility.yul\":6759:6862   */\n    tag_205:\n        /* \"#utility.yul\":6889:6890   */\n      0x01\n        /* \"#utility.yul\":6882:6887   */\n      dup3\n        /* \"#utility.yul\":6878:6891   */\n      add\n        /* \"#utility.yul\":6871:6891   */\n      swap1\n      pop\n        /* \"#utility.yul\":6664:6897   */\n      swap2\n      swap1\n      pop\n      jump\t// out\n        /* \"#utility.yul\":6903:7083   */\n    tag_182:\n        /* \"#utility.yul\":6951:7028   */\n      0x4e487b7100000000000000000000000000000000000000000000000000000000\n        /* \"#utility.yul\":6948:6949   */\n      0x00\n        /* \"#utility.yul\":6941:7029   */\n      mstore\n        /* \"#utility.yul\":7048:7052   */\n      0x11\n        /* \"#utility.yul\":7045:7046   */\n      0x04\n        /* \"#utility.yul\":7038:7053   */\n      mstore\n        /* \"#utility.yul\":7072:7076   */\n      0x24\n        /* \"#utility.yul\":7069:7070   */\n      0x00\n        /* \"#utility.yul\":7062:7077   */\n      revert\n        /* \"#utility.yul\":7089:7269   */\n    tag_188:\n        /* \"#utility.yul\":7137:7214   */\n      0x4e487b7100000000000000000000000000000000000000000000000000000000\n        /* \"#utility.yul\":7134:7135   */\n      0x00\n        /* \"#utility.yul\":7127:7215   */\n      mstore\n        /* \"#utility.yul\":7234:7238   */\n      0x12\n        /* \"#utility.yul\":7231:7232   */\n      0x04\n        /* \"#utility.yul\":7224:7239   */\n      mstore\n        /* \"#utility.yul\":7258:7262   */\n      0x24\n        /* \"#utility.yul\":7255:7256   */\n      0x00\n        /* \"#utility.yul\":7248:7263   */\n      revert\n        /* \"#utility.yul\":7275:7455   */\n    tag_65:\n        /* \"#utility.yul\":7323:7400   */\n      0x4e487b7100000000000000000000000000000000000000000000000000000000\n        /* \"#utility.yul\":7320:7321   */\n      0x00\n        /* \"#utility.yul\":7313:7401   */\n      mstore\n        /* \"#utility.yul\":7420:7424   */\n      0x32\n        /* \"#utility.yul\":7417:7418   */\n      0x04\n        /* \"#utility.yul\":7410:7425   */\n      mstore\n        /* \"#utility.yul\":7444:7448   */\n      0x24\n        /* \"#utility.yul\":7441:7442   */\n      0x00\n        /* \"#utility.yul\":7434:7449   */\n      revert\n        /* \"#utility.yul\":7461:7641   */\n    tag_71:\n        /* \"#utility.yul\":7509:7586   */\n      0x4e487b7100000000000000000000000000000000000000000000000000000000\n        /* \"#utility.yul\":7506:7507   */\n      0x00\n        /* \"#utility.yul\":7499:7587   */\n      mstore\n        /* \"#utility.yul\":7606:7610   */\n      0x41\n        /* \"#utility.yul\":7603:7604   */\n      0x04\n        /* \"#utility.yul\":7596:7611   */\n      mstore\n        /* \"#utility.yul\":7630:7634   */\n      0x24\n        /* \"#utility.yul\":7627:7628   */\n      0x00\n        /* \"#utility.yul\":7620:7635   */\n      revert\n        /* \"#utility.yul\":7770:7887   */\n    tag_129:\n        /* \"#utility.yul\":7879:7880   */\n      0x00\n        /* \"#utility.yul\":7876:7877   */\n      dup1\n        /* \"#utility.yul\":7869:7881   */\n      revert\n        /* \"#utility.yul\":7893:8075   */\n    tag_156:\n        /* \"#utility.yul\":8033:8067   */\n      0x4f6e6c7920746865206f776e65722063616e2077697468647261772045544873\n        /* \"#utility.yul\":8029:8030   */\n      0x00\n        /* \"#utility.yul\":8021:8027   */\n      dup3\n        /* \"#utility.yul\":8017:8031   */\n      add\n        /* \"#utility.yul\":8010:8068   */\n      mstore\n        /* \"#utility.yul\":7893:8075   */\n      pop\n      jump\t// out\n        /* \"#utility.yul\":8081:8249   */\n    tag_161:\n        /* \"#utility.yul\":8221:8241   */\n      0x4e6f7420656e6f7567682062616c616e63650000000000000000000000000000\n        /* \"#utility.yul\":8217:8218   */\n      0x00\n        /* \"#utility.yul\":8209:8215   */\n      dup3\n        /* \"#utility.yul\":8205:8219   */\n      add\n        /* \"#utility.yul\":8198:8242   */\n      mstore\n        /* \"#utility.yul\":8081:8249   */\n      pop\n      jump\t// out\n        /* \"#utility.yul\":8255:8377   */\n    tag_110:\n        /* \"#utility.yul\":8328:8352   */\n      tag_217\n        /* \"#utility.yul\":8346:8351   */\n      dup2\n        /* \"#utility.yul\":8328:8352   */\n      tag_150\n      jump\t// in\n    tag_217:\n        /* \"#utility.yul\":8321:8326   */\n      dup2\n        /* \"#utility.yul\":8318:8353   */\n      eq\n        /* \"#utility.yul\":8308:8371   */\n      tag_218\n      jumpi\n        /* \"#utility.yul\":8367:8368   */\n      0x00\n        /* \"#utility.yul\":8364:8365   */\n      dup1\n        /* \"#utility.yul\":8357:8369   */\n      revert\n        /* \"#utility.yul\":8308:8371   */\n    tag_218:\n        /* \"#utility.yul\":8255:8377   */\n      pop\n      jump\t// out\n        /* \"#utility.yul\":8383:8503   */\n    tag_114:\n        /* \"#utility.yul\":8455:8478   */\n      tag_220\n        /* \"#utility.yul\":8472:8477   */\n      dup2\n        /* \"#utility.yul\":8455:8478   */\n      tag_197\n      jump\t// in\n    tag_220:\n        /* \"#utility.yul\":8448:8453   */\n      dup2\n        /* \"#utility.yul\":8445:8479   */\n      eq\n        /* \"#utility.yul\":8435:8497   */\n      tag_221\n      jumpi\n        /* \"#utility.yul\":8493:8494   */\n      0x00\n        /* \"#utility.yul\":8490:8491   */\n      dup1\n        /* \"#utility.yul\":8483:8495   */\n      revert\n        /* \"#utility.yul\":8435:8497   */\n    tag_221:\n        /* \"#utility.yul\":8383:8503   */\n      pop\n      jump\t// out\n        /* \"#utility.yul\":8509:8631   */\n    tag_118:\n        /* \"#utility.yul\":8582:8606   */\n      tag_223\n        /* \"#utility.yul\":8600:8605   */\n      dup2\n        /* \"#utility.yul\":8582:8606   */\n      tag_165\n      jump\t// in\n    tag_223:\n        /* \"#utility.yul\":8575:8580   */\n      dup2\n        /* \"#utility.yul\":8572:8607   */\n      eq\n        /* \"#utility.yul\":8562:8625   */\n      tag_224\n      jumpi\n        /* \"#utility.yul\":8621:8622   */\n      0x00\n        /* \"#utility.yul\":8618:8619   */\n      dup1\n        /* \"#utility.yul\":8611:8623   */\n      revert\n        /* \"#utility.yul\":8562:8625   */\n    tag_224:\n        /* \"#utility.yul\":8509:8631   */\n      pop\n      jump\t// out\n        /* \"#utility.yul\":8637:8757   */\n    tag_125:\n        /* \"#utility.yul\":8709:8732   */\n      tag_226\n        /* \"#utility.yul\":8726:8731   */\n      dup2\n        /* \"#utility.yul\":8709:8732   */\n      tag_201\n      jump\t// in\n    tag_226:\n        /* \"#utility.yul\":8702:8707   */\n      dup2\n        /* \"#utility.yul\":8699:8733   */\n      eq\n        /* \"#utility.yul\":8689:8751   */\n      tag_227\n      jumpi\n        /* \"#utility.yul\":8747:8748   */\n      0x00\n        /* \"#utility.yul\":8744:8745   */\n      dup1\n        /* \"#utility.yul\":8737:8749   */\n      revert\n        /* \"#utility.yul\":8689:8751   */\n    tag_227:\n        /* \"#utility.yul\":8637:8757   */\n      pop\n      jump\t// out\n\n    auxdata: 0xa2646970667358221220b1c119a5e3e3d704de4b0b467059b6f8868576bfb99dd3390927eac215fc157364736f6c63430008070033\n}\n",
				"bytecode": {
					"linkReferences": {},
					"object": "608060405273d4a33860578de61dbabdc8bfdb98fd742fa7028e6000806101000a81548173ffffffffffffffffffffffffffffffffffffffff021916908373ffffffffffffffffffffffffffffffffffffffff16021790555034801561006457600080fd5b5033600160006101000a81548173ffffffffffffffffffffffffffffffffffffffff021916908373ffffffffffffffffffffffffffffffffffffffff160217905550610d60806100b56000396000f3fe60806040526004361061007b5760003560e01c80638da5cb5b1161004e5780638da5cb5b1461011d578063a90cecbf14610148578063c290d69114610185578063f2aa8218146101a15761007b565b8063196e609d146100805780633ccfd60b146100bd578063679aefce146100c75780638793ad55146100f2575b600080fd5b34801561008c57600080fd5b506100a760048036038101906100a29190610875565b6101de565b6040516100b49190610a09565b60405180910390f35b6100c5610214565b005b3480156100d357600080fd5b506100dc6103f4565b6040516100e99190610a09565b60405180910390f35b3480156100fe57600080fd5b506101076104a8565b6040516101149190610a09565b60405180910390f35b34801561012957600080fd5b50610132610552565b60405161013f91906109ae565b60405180910390f35b34801561015457600080fd5b5061016f600480360381019061016a9190610848565b610578565b60405161017c9190610a09565b60405180910390f35b61019f600480360381019061019a9190610875565b610590565b005b3480156101ad57600080fd5b506101c860048036038101906101c39190610875565b6106f9565b6040516101d591906109ae565b60405180910390f35b6000806101e96103f4565b905060006305f5e10084836101fe9190610abc565b6102089190610a8b565b90508092505050919050565b600160009054906101000a900473ffffffffffffffffffffffffffffffffffffffff1673ffffffffffffffffffffffffffffffffffffffff163373ffffffffffffffffffffffffffffffffffffffff16146102a4576040517f08c379a000000000000000000000000000000000000000000000000000000000815260040161029b906109c9565b60405180910390fd5b3373ffffffffffffffffffffffffffffffffffffffff166108fc479081150290604051600060405180830381858888f193505050501580156102ea573d6000803e3d6000fd5b5060005b600380549050811015610391576000600260006003848154811061031557610314610c19565b5b9060005260206000200160009054906101000a900473ffffffffffffffffffffffffffffffffffffffff1673ffffffffffffffffffffffffffffffffffffffff1673ffffffffffffffffffffffffffffffffffffffff16815260200190815260200160002081905550808061038990610b72565b9150506102ee565b50600067ffffffffffffffff8111156103ad576103ac610c48565b5b6040519080825280602002602001820160405280156103db5781602001602082028036833780820191505090505b50600390805190602001906103f1929190610738565b50565b60008060008054906101000a900473ffffffffffffffffffffffffffffffffffffffff16905060008173ffffffffffffffffffffffffffffffffffffffff1663feaf968c6040518163ffffffff1660e01b815260040160a06040518083038186803b15801561046257600080fd5b505afa158015610476573d6000803e3d6000fd5b505050506040513d601f19601f8201168201806040525081019061049a91906108cf565b505050915050809250505090565b60008060008054906101000a900473ffffffffffffffffffffffffffffffffffffffff1690508073ffffffffffffffffffffffffffffffffffffffff166354fd4d506040518163ffffffff1660e01b815260040160206040518083038186803b15801561051457600080fd5b505afa158015610528573d6000803e3d6000fd5b505050506040513d601f19601f8201168201806040525081019061054c91906108a2565b91505090565b600160009054906101000a900473ffffffffffffffffffffffffffffffffffffffff1681565b60026020528060005260406000206000915090505481565b6000670de0b6b3a7640000826105a69190610abc565b9050806105b2346101de565b10156105f3576040517f08c379a00000000000000000000000000000000000000000000000000000000081526004016105ea906109e9565b60405180910390fd5b6000600260003373ffffffffffffffffffffffffffffffffffffffff1673ffffffffffffffffffffffffffffffffffffffff16815260200190815260200160002054141561069f576003339080600181540180825580915050600190039060005260206000200160009091909190916101000a81548173ffffffffffffffffffffffffffffffffffffffff021916908373ffffffffffffffffffffffffffffffffffffffff1602179055505b34600260003373ffffffffffffffffffffffffffffffffffffffff1673ffffffffffffffffffffffffffffffffffffffff16815260200190815260200160002060008282546106ee9190610a35565b925050819055505050565b6003818154811061070957600080fd5b906000526020600020016000915054906101000a900473ffffffffffffffffffffffffffffffffffffffff1681565b8280548282559060005260206000209081019282156107b1579160200282015b828111156107b05782518260006101000a81548173ffffffffffffffffffffffffffffffffffffffff021916908373ffffffffffffffffffffffffffffffffffffffff16021790555091602001919060010190610758565b5b5090506107be91906107c2565b5090565b5b808211156107db5760008160009055506001016107c3565b5090565b6000813590506107ee81610cce565b92915050565b60008151905061080381610ce5565b92915050565b60008135905061081881610cfc565b92915050565b60008151905061082d81610cfc565b92915050565b60008151905061084281610d13565b92915050565b60006020828403121561085e5761085d610c77565b5b600061086c848285016107df565b91505092915050565b60006020828403121561088b5761088a610c77565b5b600061089984828501610809565b91505092915050565b6000602082840312156108b8576108b7610c77565b5b60006108c68482850161081e565b91505092915050565b600080600080600060a086880312156108eb576108ea610c77565b5b60006108f988828901610833565b955050602061090a888289016107f4565b945050604061091b8882890161081e565b935050606061092c8882890161081e565b925050608061093d88828901610833565b9150509295509295909350565b61095381610b16565b82525050565b6000610966602083610a24565b915061097182610c7c565b602082019050919050565b6000610989601283610a24565b915061099482610ca5565b602082019050919050565b6109a881610b52565b82525050565b60006020820190506109c3600083018461094a565b92915050565b600060208201905081810360008301526109e281610959565b9050919050565b60006020820190508181036000830152610a028161097c565b9050919050565b6000602082019050610a1e600083018461099f565b92915050565b600082825260208201905092915050565b6000610a4082610b52565b9150610a4b83610b52565b9250827fffffffffffffffffffffffffffffffffffffffffffffffffffffffffffffffff03821115610a8057610a7f610bbb565b5b828201905092915050565b6000610a9682610b52565b9150610aa183610b52565b925082610ab157610ab0610bea565b5b828204905092915050565b6000610ac782610b52565b9150610ad283610b52565b9250817fffffffffffffffffffffffffffffffffffffffffffffffffffffffffffffffff0483118215151615610b0b57610b0a610bbb565b5b828202905092915050565b6000610b2182610b32565b9050919050565b6000819050919050565b600073ffffffffffffffffffffffffffffffffffffffff82169050919050565b6000819050919050565b600069ffffffffffffffffffff82169050919050565b6000610b7d82610b52565b91507fffffffffffffffffffffffffffffffffffffffffffffffffffffffffffffffff821415610bb057610baf610bbb565b5b600182019050919050565b7f4e487b7100000000000000000000000000000000000000000000000000000000600052601160045260246000fd5b7f4e487b7100000000000000000000000000000000000000000000000000000000600052601260045260246000fd5b7f4e487b7100000000000000000000000000000000000000000000000000000000600052603260045260246000fd5b7f4e487b7100000000000000000000000000000000000000000000000000000000600052604160045260246000fd5b600080fd5b7f4f6e6c7920746865206f776e65722063616e2077697468647261772045544873600082015250565b7f4e6f7420656e6f7567682062616c616e63650000000000000000000000000000600082015250565b610cd781610b16565b8114610ce257600080fd5b50565b610cee81610b28565b8114610cf957600080fd5b50565b610d0581610b52565b8114610d1057600080fd5b50565b610d1c81610b5c565b8114610d2757600080fd5b5056fea2646970667358221220b1c119a5e3e3d704de4b0b467059b6f8868576bfb99dd3390927eac215fc157364736f6c63430008070033",
					"opcodes": "PUSH1 0x80 PUSH1 0x40 MSTORE PUSH20 0xD4A33860578DE61DBABDC8BFDB98FD742FA7028E PUSH1 0x0 DUP1 PUSH2 0x100 EXP DUP2 SLOAD DUP2 PUSH20 0xFFFFFFFFFFFFFFFFFFFFFFFFFFFFFFFFFFFFFFFF MUL NOT AND SWAP1 DUP4 PUSH20 0xFFFFFFFFFFFFFFFFFFFFFFFFFFFFFFFFFFFFFFFF AND MUL OR SWAP1 SSTORE POP CALLVALUE DUP1 ISZERO PUSH2 0x64 JUMPI PUSH1 0x0 DUP1 REVERT JUMPDEST POP CALLER PUSH1 0x1 PUSH1 0x0 PUSH2 0x100 EXP DUP2 SLOAD DUP2 PUSH20 0xFFFFFFFFFFFFFFFFFFFFFFFFFFFFFFFFFFFFFFFF MUL NOT AND SWAP1 DUP4 PUSH20 0xFFFFFFFFFFFFFFFFFFFFFFFFFFFFFFFFFFFFFFFF AND MUL OR SWAP1 SSTORE POP PUSH2 0xD60 DUP1 PUSH2 0xB5 PUSH1 0x0 CODECOPY PUSH1 0x0 RETURN INVALID PUSH1 0x80 PUSH1 0x40 MSTORE PUSH1 0x4 CALLDATASIZE LT PUSH2 0x7B JUMPI PUSH1 0x0 CALLDATALOAD PUSH1 0xE0 SHR DUP1 PUSH4 0x8DA5CB5B GT PUSH2 0x4E JUMPI DUP1 PUSH4 0x8DA5CB5B EQ PUSH2 0x11D JUMPI DUP1 PUSH4 0xA90CECBF EQ PUSH2 0x148 JUMPI DUP1 PUSH4 0xC290D691 EQ PUSH2 0x185 JUMPI DUP1 PUSH4 0xF2AA8218 EQ PUSH2 0x1A1 JUMPI PUSH2 0x7B JUMP JUMPDEST DUP1 PUSH4 0x196E609D EQ PUSH2 0x80 JUMPI DUP1 PUSH4 0x3CCFD60B EQ PUSH2 0xBD JUMPI DUP1 PUSH4 0x679AEFCE EQ PUSH2 0xC7 JUMPI DUP1 PUSH4 0x8793AD55 EQ PUSH2 0xF2 JUMPI JUMPDEST PUSH1 0x0 DUP1 REVERT JUMPDEST CALLVALUE DUP1 ISZERO PUSH2 0x8C JUMPI PUSH1 0x0 DUP1 REVERT JUMPDEST POP PUSH2 0xA7 PUSH1 0x4 DUP1 CALLDATASIZE SUB DUP2 ADD SWAP1 PUSH2 0xA2 SWAP2 SWAP1 PUSH2 0x875 JUMP JUMPDEST PUSH2 0x1DE JUMP JUMPDEST PUSH1 0x40 MLOAD PUSH2 0xB4 SWAP2 SWAP1 PUSH2 0xA09 JUMP JUMPDEST PUSH1 0x40 MLOAD DUP1 SWAP2 SUB SWAP1 RETURN JUMPDEST PUSH2 0xC5 PUSH2 0x214 JUMP JUMPDEST STOP JUMPDEST CALLVALUE DUP1 ISZERO PUSH2 0xD3 JUMPI PUSH1 0x0 DUP1 REVERT JUMPDEST POP PUSH2 0xDC PUSH2 0x3F4 JUMP JUMPDEST PUSH1 0x40 MLOAD PUSH2 0xE9 SWAP2 SWAP1 PUSH2 0xA09 JUMP JUMPDEST PUSH1 0x40 MLOAD DUP1 SWAP2 SUB SWAP1 RETURN JUMPDEST CALLVALUE DUP1 ISZERO PUSH2 0xFE JUMPI PUSH1 0x0 DUP1 REVERT JUMPDEST POP PUSH2 0x107 PUSH2 0x4A8 JUMP JUMPDEST PUSH1 0x40 MLOAD PUSH2 0x114 SWAP2 SWAP1 PUSH2 0xA09 JUMP JUMPDEST PUSH1 0x40 MLOAD DUP1 SWAP2 SUB SWAP1 RETURN JUMPDEST CALLVALUE DUP1 ISZERO PUSH2 0x129 JUMPI PUSH1 0x0 DUP1 REVERT JUMPDEST POP PUSH2 0x132 PUSH2 0x552 JUMP JUMPDEST PUSH1 0x40 MLOAD PUSH2 0x13F SWAP2 SWAP1 PUSH2 0x9AE JUMP JUMPDEST PUSH1 0x40 MLOAD DUP1 SWAP2 SUB SWAP1 RETURN JUMPDEST CALLVALUE DUP1 ISZERO PUSH2 0x154 JUMPI PUSH1 0x0 DUP1 REVERT JUMPDEST POP PUSH2 0x16F PUSH1 0x4 DUP1 CALLDATASIZE SUB DUP2 ADD SWAP1 PUSH2 0x16A SWAP2 SWAP1 PUSH2 0x848 JUMP JUMPDEST PUSH2 0x578 JUMP JUMPDEST PUSH1 0x40 MLOAD PUSH2 0x17C SWAP2 SWAP1 PUSH2 0xA09 JUMP JUMPDEST PUSH1 0x40 MLOAD DUP1 SWAP2 SUB SWAP1 RETURN JUMPDEST PUSH2 0x19F PUSH1 0x4 DUP1 CALLDATASIZE SUB DUP2 ADD SWAP1 PUSH2 0x19A SWAP2 SWAP1 PUSH2 0x875 JUMP JUMPDEST PUSH2 0x590 JUMP JUMPDEST STOP JUMPDEST CALLVALUE DUP1 ISZERO PUSH2 0x1AD JUMPI PUSH1 0x0 DUP1 REVERT JUMPDEST POP PUSH2 0x1C8 PUSH1 0x4 DUP1 CALLDATASIZE SUB DUP2 ADD SWAP1 PUSH2 0x1C3 SWAP2 SWAP1 PUSH2 0x875 JUMP JUMPDEST PUSH2 0x6F9 JUMP JUMPDEST PUSH1 0x40 MLOAD PUSH2 0x1D5 SWAP2 SWAP1 PUSH2 0x9AE JUMP JUMPDEST PUSH1 0x40 MLOAD DUP1 SWAP2 SUB SWAP1 RETURN JUMPDEST PUSH1 0x0 DUP1 PUSH2 0x1E9 PUSH2 0x3F4 JUMP JUMPDEST SWAP1 POP PUSH1 0x0 PUSH4 0x5F5E100 DUP5 DUP4 PUSH2 0x1FE SWAP2 SWAP1 PUSH2 0xABC JUMP JUMPDEST PUSH2 0x208 SWAP2 SWAP1 PUSH2 0xA8B JUMP JUMPDEST SWAP1 POP DUP1 SWAP3 POP POP POP SWAP2 SWAP1 POP JUMP JUMPDEST PUSH1 0x1 PUSH1 0x0 SWAP1 SLOAD SWAP1 PUSH2 0x100 EXP SWAP1 DIV PUSH20 0xFFFFFFFFFFFFFFFFFFFFFFFFFFFFFFFFFFFFFFFF AND PUSH20 0xFFFFFFFFFFFFFFFFFFFFFFFFFFFFFFFFFFFFFFFF AND CALLER PUSH20 0xFFFFFFFFFFFFFFFFFFFFFFFFFFFFFFFFFFFFFFFF AND EQ PUSH2 0x2A4 JUMPI PUSH1 0x40 MLOAD PUSH32 0x8C379A000000000000000000000000000000000000000000000000000000000 DUP2 MSTORE PUSH1 0x4 ADD PUSH2 0x29B SWAP1 PUSH2 0x9C9 JUMP JUMPDEST PUSH1 0x40 MLOAD DUP1 SWAP2 SUB SWAP1 REVERT JUMPDEST CALLER PUSH20 0xFFFFFFFFFFFFFFFFFFFFFFFFFFFFFFFFFFFFFFFF AND PUSH2 0x8FC SELFBALANCE SWAP1 DUP2 ISZERO MUL SWAP1 PUSH1 0x40 MLOAD PUSH1 0x0 PUSH1 0x40 MLOAD DUP1 DUP4 SUB DUP2 DUP6 DUP9 DUP9 CALL SWAP4 POP POP POP POP ISZERO DUP1 ISZERO PUSH2 0x2EA JUMPI RETURNDATASIZE PUSH1 0x0 DUP1 RETURNDATACOPY RETURNDATASIZE PUSH1 0x0 REVERT JUMPDEST POP PUSH1 0x0 JUMPDEST PUSH1 0x3 DUP1 SLOAD SWAP1 POP DUP2 LT ISZERO PUSH2 0x391 JUMPI PUSH1 0x0 PUSH1 0x2 PUSH1 0x0 PUSH1 0x3 DUP5 DUP2 SLOAD DUP2 LT PUSH2 0x315 JUMPI PUSH2 0x314 PUSH2 0xC19 JUMP JUMPDEST JUMPDEST SWAP1 PUSH1 0x0 MSTORE PUSH1 0x20 PUSH1 0x0 KECCAK256 ADD PUSH1 0x0 SWAP1 SLOAD SWAP1 PUSH2 0x100 EXP SWAP1 DIV PUSH20 0xFFFFFFFFFFFFFFFFFFFFFFFFFFFFFFFFFFFFFFFF AND PUSH20 0xFFFFFFFFFFFFFFFFFFFFFFFFFFFFFFFFFFFFFFFF AND PUSH20 0xFFFFFFFFFFFFFFFFFFFFFFFFFFFFFFFFFFFFFFFF AND DUP2 MSTORE PUSH1 0x20 ADD SWAP1 DUP2 MSTORE PUSH1 0x20 ADD PUSH1 0x0 KECCAK256 DUP2 SWAP1 SSTORE POP DUP1 DUP1 PUSH2 0x389 SWAP1 PUSH2 0xB72 JUMP JUMPDEST SWAP2 POP POP PUSH2 0x2EE JUMP JUMPDEST POP PUSH1 0x0 PUSH8 0xFFFFFFFFFFFFFFFF DUP2 GT ISZERO PUSH2 0x3AD JUMPI PUSH2 0x3AC PUSH2 0xC48 JUMP JUMPDEST JUMPDEST PUSH1 0x40 MLOAD SWAP1 DUP1 DUP3 MSTORE DUP1 PUSH1 0x20 MUL PUSH1 0x20 ADD DUP3 ADD PUSH1 0x40 MSTORE DUP1 ISZERO PUSH2 0x3DB JUMPI DUP2 PUSH1 0x20 ADD PUSH1 0x20 DUP3 MUL DUP1 CALLDATASIZE DUP4 CALLDATACOPY DUP1 DUP3 ADD SWAP2 POP POP SWAP1 POP JUMPDEST POP PUSH1 0x3 SWAP1 DUP1 MLOAD SWAP1 PUSH1 0x20 ADD SWAP1 PUSH2 0x3F1 SWAP3 SWAP2 SWAP1 PUSH2 0x738 JUMP JUMPDEST POP JUMP JUMPDEST PUSH1 0x0 DUP1 PUSH1 0x0 DUP1 SLOAD SWAP1 PUSH2 0x100 EXP SWAP1 DIV PUSH20 0xFFFFFFFFFFFFFFFFFFFFFFFFFFFFFFFFFFFFFFFF AND SWAP1 POP PUSH1 0x0 DUP2 PUSH20 0xFFFFFFFFFFFFFFFFFFFFFFFFFFFFFFFFFFFFFFFF AND PUSH4 0xFEAF968C PUSH1 0x40 MLOAD DUP2 PUSH4 0xFFFFFFFF AND PUSH1 0xE0 SHL DUP2 MSTORE PUSH1 0x4 ADD PUSH1 0xA0 PUSH1 0x40 MLOAD DUP1 DUP4 SUB DUP2 DUP7 DUP1 EXTCODESIZE ISZERO DUP1 ISZERO PUSH2 0x462 JUMPI PUSH1 0x0 DUP1 REVERT JUMPDEST POP GAS STATICCALL ISZERO DUP1 ISZERO PUSH2 0x476 JUMPI RETURNDATASIZE PUSH1 0x0 DUP1 RETURNDATACOPY RETURNDATASIZE PUSH1 0x0 REVERT JUMPDEST POP POP POP POP PUSH1 0x40 MLOAD RETURNDATASIZE PUSH1 0x1F NOT PUSH1 0x1F DUP3 ADD AND DUP3 ADD DUP1 PUSH1 0x40 MSTORE POP DUP2 ADD SWAP1 PUSH2 0x49A SWAP2 SWAP1 PUSH2 0x8CF JUMP JUMPDEST POP POP POP SWAP2 POP POP DUP1 SWAP3 POP POP POP SWAP1 JUMP JUMPDEST PUSH1 0x0 DUP1 PUSH1 0x0 DUP1 SLOAD SWAP1 PUSH2 0x100 EXP SWAP1 DIV PUSH20 0xFFFFFFFFFFFFFFFFFFFFFFFFFFFFFFFFFFFFFFFF AND SWAP1 POP DUP1 PUSH20 0xFFFFFFFFFFFFFFFFFFFFFFFFFFFFFFFFFFFFFFFF AND PUSH4 0x54FD4D50 PUSH1 0x40 MLOAD DUP2 PUSH4 0xFFFFFFFF AND PUSH1 0xE0 SHL DUP2 MSTORE PUSH1 0x4 ADD PUSH1 0x20 PUSH1 0x40 MLOAD DUP1 DUP4 SUB DUP2 DUP7 DUP1 EXTCODESIZE ISZERO DUP1 ISZERO PUSH2 0x514 JUMPI PUSH1 0x0 DUP1 REVERT JUMPDEST POP GAS STATICCALL ISZERO DUP1 ISZERO PUSH2 0x528 JUMPI RETURNDATASIZE PUSH1 0x0 DUP1 RETURNDATACOPY RETURNDATASIZE PUSH1 0x0 REVERT JUMPDEST POP POP POP POP PUSH1 0x40 MLOAD RETURNDATASIZE PUSH1 0x1F NOT PUSH1 0x1F DUP3 ADD AND DUP3 ADD DUP1 PUSH1 0x40 MSTORE POP DUP2 ADD SWAP1 PUSH2 0x54C SWAP2 SWAP1 PUSH2 0x8A2 JUMP JUMPDEST SWAP2 POP POP SWAP1 JUMP JUMPDEST PUSH1 0x1 PUSH1 0x0 SWAP1 SLOAD SWAP1 PUSH2 0x100 EXP SWAP1 DIV PUSH20 0xFFFFFFFFFFFFFFFFFFFFFFFFFFFFFFFFFFFFFFFF AND DUP2 JUMP JUMPDEST PUSH1 0x2 PUSH1 0x20 MSTORE DUP1 PUSH1 0x0 MSTORE PUSH1 0x40 PUSH1 0x0 KECCAK256 PUSH1 0x0 SWAP2 POP SWAP1 POP SLOAD DUP2 JUMP JUMPDEST PUSH1 0x0 PUSH8 0xDE0B6B3A7640000 DUP3 PUSH2 0x5A6 SWAP2 SWAP1 PUSH2 0xABC JUMP JUMPDEST SWAP1 POP DUP1 PUSH2 0x5B2 CALLVALUE PUSH2 0x1DE JUMP JUMPDEST LT ISZERO PUSH2 0x5F3 JUMPI PUSH1 0x40 MLOAD PUSH32 0x8C379A000000000000000000000000000000000000000000000000000000000 DUP2 MSTORE PUSH1 0x4 ADD PUSH2 0x5EA SWAP1 PUSH2 0x9E9 JUMP JUMPDEST PUSH1 0x40 MLOAD DUP1 SWAP2 SUB SWAP1 REVERT JUMPDEST PUSH1 0x0 PUSH1 0x2 PUSH1 0x0 CALLER PUSH20 0xFFFFFFFFFFFFFFFFFFFFFFFFFFFFFFFFFFFFFFFF AND PUSH20 0xFFFFFFFFFFFFFFFFFFFFFFFFFFFFFFFFFFFFFFFF AND DUP2 MSTORE PUSH1 0x20 ADD SWAP1 DUP2 MSTORE PUSH1 0x20 ADD PUSH1 0x0 KECCAK256 SLOAD EQ ISZERO PUSH2 0x69F JUMPI PUSH1 0x3 CALLER SWAP1 DUP1 PUSH1 0x1 DUP2 SLOAD ADD DUP1 DUP3 SSTORE DUP1 SWAP2 POP POP PUSH1 0x1 SWAP1 SUB SWAP1 PUSH1 0x0 MSTORE PUSH1 0x20 PUSH1 0x0 KECCAK256 ADD PUSH1 0x0 SWAP1 SWAP2 SWAP1 SWAP2 SWAP1 SWAP2 PUSH2 0x100 EXP DUP2 SLOAD DUP2 PUSH20 0xFFFFFFFFFFFFFFFFFFFFFFFFFFFFFFFFFFFFFFFF MUL NOT AND SWAP1 DUP4 PUSH20 0xFFFFFFFFFFFFFFFFFFFFFFFFFFFFFFFFFFFFFFFF AND MUL OR SWAP1 SSTORE POP JUMPDEST CALLVALUE PUSH1 0x2 PUSH1 0x0 CALLER PUSH20 0xFFFFFFFFFFFFFFFFFFFFFFFFFFFFFFFFFFFFFFFF AND PUSH20 0xFFFFFFFFFFFFFFFFFFFFFFFFFFFFFFFFFFFFFFFF AND DUP2 MSTORE PUSH1 0x20 ADD SWAP1 DUP2 MSTORE PUSH1 0x20 ADD PUSH1 0x0 KECCAK256 PUSH1 0x0 DUP3 DUP3 SLOAD PUSH2 0x6EE SWAP2 SWAP1 PUSH2 0xA35 JUMP JUMPDEST SWAP3 POP POP DUP2 SWAP1 SSTORE POP POP POP JUMP JUMPDEST PUSH1 0x3 DUP2 DUP2 SLOAD DUP2 LT PUSH2 0x709 JUMPI PUSH1 0x0 DUP1 REVERT JUMPDEST SWAP1 PUSH1 0x0 MSTORE PUSH1 0x20 PUSH1 0x0 KECCAK256 ADD PUSH1 0x0 SWAP2 POP SLOAD SWAP1 PUSH2 0x100 EXP SWAP1 DIV PUSH20 0xFFFFFFFFFFFFFFFFFFFFFFFFFFFFFFFFFFFFFFFF AND DUP2 JUMP JUMPDEST DUP3 DUP1 SLOAD DUP3 DUP3 SSTORE SWAP1 PUSH1 0x0 MSTORE PUSH1 0x20 PUSH1 0x0 KECCAK256 SWAP1 DUP2 ADD SWAP3 DUP3 ISZERO PUSH2 0x7B1 JUMPI SWAP2 PUSH1 0x20 MUL DUP3 ADD JUMPDEST DUP3 DUP2 GT ISZERO PUSH2 0x7B0 JUMPI DUP3 MLOAD DUP3 PUSH1 0x0 PUSH2 0x100 EXP DUP2 SLOAD DUP2 PUSH20 0xFFFFFFFFFFFFFFFFFFFFFFFFFFFFFFFFFFFFFFFF MUL NOT AND SWAP1 DUP4 PUSH20 0xFFFFFFFFFFFFFFFFFFFFFFFFFFFFFFFFFFFFFFFF AND MUL OR SWAP1 SSTORE POP SWAP2 PUSH1 0x20 ADD SWAP2 SWAP1 PUSH1 0x1 ADD SWAP1 PUSH2 0x758 JUMP JUMPDEST JUMPDEST POP SWAP1 POP PUSH2 0x7BE SWAP2 SWAP1 PUSH2 0x7C2 JUMP JUMPDEST POP SWAP1 JUMP JUMPDEST JUMPDEST DUP1 DUP3 GT ISZERO PUSH2 0x7DB JUMPI PUSH1 0x0 DUP2 PUSH1 0x0 SWAP1 SSTORE POP PUSH1 0x1 ADD PUSH2 0x7C3 JUMP JUMPDEST POP SWAP1 JUMP JUMPDEST PUSH1 0x0 DUP2 CALLDATALOAD SWAP1 POP PUSH2 0x7EE DUP2 PUSH2 0xCCE JUMP JUMPDEST SWAP3 SWAP2 POP POP JUMP JUMPDEST PUSH1 0x0 DUP2 MLOAD SWAP1 POP PUSH2 0x803 DUP2 PUSH2 0xCE5 JUMP JUMPDEST SWAP3 SWAP2 POP POP JUMP JUMPDEST PUSH1 0x0 DUP2 CALLDATALOAD SWAP1 POP PUSH2 0x818 DUP2 PUSH2 0xCFC JUMP JUMPDEST SWAP3 SWAP2 POP POP JUMP JUMPDEST PUSH1 0x0 DUP2 MLOAD SWAP1 POP PUSH2 0x82D DUP2 PUSH2 0xCFC JUMP JUMPDEST SWAP3 SWAP2 POP POP JUMP JUMPDEST PUSH1 0x0 DUP2 MLOAD SWAP1 POP PUSH2 0x842 DUP2 PUSH2 0xD13 JUMP JUMPDEST SWAP3 SWAP2 POP POP JUMP JUMPDEST PUSH1 0x0 PUSH1 0x20 DUP3 DUP5 SUB SLT ISZERO PUSH2 0x85E JUMPI PUSH2 0x85D PUSH2 0xC77 JUMP JUMPDEST JUMPDEST PUSH1 0x0 PUSH2 0x86C DUP5 DUP3 DUP6 ADD PUSH2 0x7DF JUMP JUMPDEST SWAP2 POP POP SWAP3 SWAP2 POP POP JUMP JUMPDEST PUSH1 0x0 PUSH1 0x20 DUP3 DUP5 SUB SLT ISZERO PUSH2 0x88B JUMPI PUSH2 0x88A PUSH2 0xC77 JUMP JUMPDEST JUMPDEST PUSH1 0x0 PUSH2 0x899 DUP5 DUP3 DUP6 ADD PUSH2 0x809 JUMP JUMPDEST SWAP2 POP POP SWAP3 SWAP2 POP POP JUMP JUMPDEST PUSH1 0x0 PUSH1 0x20 DUP3 DUP5 SUB SLT ISZERO PUSH2 0x8B8 JUMPI PUSH2 0x8B7 PUSH2 0xC77 JUMP JUMPDEST JUMPDEST PUSH1 0x0 PUSH2 0x8C6 DUP5 DUP3 DUP6 ADD PUSH2 0x81E JUMP JUMPDEST SWAP2 POP POP SWAP3 SWAP2 POP POP JUMP JUMPDEST PUSH1 0x0 DUP1 PUSH1 0x0 DUP1 PUSH1 0x0 PUSH1 0xA0 DUP7 DUP9 SUB SLT ISZERO PUSH2 0x8EB JUMPI PUSH2 0x8EA PUSH2 0xC77 JUMP JUMPDEST JUMPDEST PUSH1 0x0 PUSH2 0x8F9 DUP9 DUP3 DUP10 ADD PUSH2 0x833 JUMP JUMPDEST SWAP6 POP POP PUSH1 0x20 PUSH2 0x90A DUP9 DUP3 DUP10 ADD PUSH2 0x7F4 JUMP JUMPDEST SWAP5 POP POP PUSH1 0x40 PUSH2 0x91B DUP9 DUP3 DUP10 ADD PUSH2 0x81E JUMP JUMPDEST SWAP4 POP POP PUSH1 0x60 PUSH2 0x92C DUP9 DUP3 DUP10 ADD PUSH2 0x81E JUMP JUMPDEST SWAP3 POP POP PUSH1 0x80 PUSH2 0x93D DUP9 DUP3 DUP10 ADD PUSH2 0x833 JUMP JUMPDEST SWAP2 POP POP SWAP3 SWAP6 POP SWAP3 SWAP6 SWAP1 SWAP4 POP JUMP JUMPDEST PUSH2 0x953 DUP2 PUSH2 0xB16 JUMP JUMPDEST DUP3 MSTORE POP POP JUMP JUMPDEST PUSH1 0x0 PUSH2 0x966 PUSH1 0x20 DUP4 PUSH2 0xA24 JUMP JUMPDEST SWAP2 POP PUSH2 0x971 DUP3 PUSH2 0xC7C JUMP JUMPDEST PUSH1 0x20 DUP3 ADD SWAP1 POP SWAP2 SWAP1 POP JUMP JUMPDEST PUSH1 0x0 PUSH2 0x989 PUSH1 0x12 DUP4 PUSH2 0xA24 JUMP JUMPDEST SWAP2 POP PUSH2 0x994 DUP3 PUSH2 0xCA5 JUMP JUMPDEST PUSH1 0x20 DUP3 ADD SWAP1 POP SWAP2 SWAP1 POP JUMP JUMPDEST PUSH2 0x9A8 DUP2 PUSH2 0xB52 JUMP JUMPDEST DUP3 MSTORE POP POP JUMP JUMPDEST PUSH1 0x0 PUSH1 0x20 DUP3 ADD SWAP1 POP PUSH2 0x9C3 PUSH1 0x0 DUP4 ADD DUP5 PUSH2 0x94A JUMP JUMPDEST SWAP3 SWAP2 POP POP JUMP JUMPDEST PUSH1 0x0 PUSH1 0x20 DUP3 ADD SWAP1 POP DUP2 DUP2 SUB PUSH1 0x0 DUP4 ADD MSTORE PUSH2 0x9E2 DUP2 PUSH2 0x959 JUMP JUMPDEST SWAP1 POP SWAP2 SWAP1 POP JUMP JUMPDEST PUSH1 0x0 PUSH1 0x20 DUP3 ADD SWAP1 POP DUP2 DUP2 SUB PUSH1 0x0 DUP4 ADD MSTORE PUSH2 0xA02 DUP2 PUSH2 0x97C JUMP JUMPDEST SWAP1 POP SWAP2 SWAP1 POP JUMP JUMPDEST PUSH1 0x0 PUSH1 0x20 DUP3 ADD SWAP1 POP PUSH2 0xA1E PUSH1 0x0 DUP4 ADD DUP5 PUSH2 0x99F JUMP JUMPDEST SWAP3 SWAP2 POP POP JUMP JUMPDEST PUSH1 0x0 DUP3 DUP3 MSTORE PUSH1 0x20 DUP3 ADD SWAP1 POP SWAP3 SWAP2 POP POP JUMP JUMPDEST PUSH1 0x0 PUSH2 0xA40 DUP3 PUSH2 0xB52 JUMP JUMPDEST SWAP2 POP PUSH2 0xA4B DUP4 PUSH2 0xB52 JUMP JUMPDEST SWAP3 POP DUP3 PUSH32 0xFFFFFFFFFFFFFFFFFFFFFFFFFFFFFFFFFFFFFFFFFFFFFFFFFFFFFFFFFFFFFFFF SUB DUP3 GT ISZERO PUSH2 0xA80 JUMPI PUSH2 0xA7F PUSH2 0xBBB JUMP JUMPDEST JUMPDEST DUP3 DUP3 ADD SWAP1 POP SWAP3 SWAP2 POP POP JUMP JUMPDEST PUSH1 0x0 PUSH2 0xA96 DUP3 PUSH2 0xB52 JUMP JUMPDEST SWAP2 POP PUSH2 0xAA1 DUP4 PUSH2 0xB52 JUMP JUMPDEST SWAP3 POP DUP3 PUSH2 0xAB1 JUMPI PUSH2 0xAB0 PUSH2 0xBEA JUMP JUMPDEST JUMPDEST DUP3 DUP3 DIV SWAP1 POP SWAP3 SWAP2 POP POP JUMP JUMPDEST PUSH1 0x0 PUSH2 0xAC7 DUP3 PUSH2 0xB52 JUMP JUMPDEST SWAP2 POP PUSH2 0xAD2 DUP4 PUSH2 0xB52 JUMP JUMPDEST SWAP3 POP DUP2 PUSH32 0xFFFFFFFFFFFFFFFFFFFFFFFFFFFFFFFFFFFFFFFFFFFFFFFFFFFFFFFFFFFFFFFF DIV DUP4 GT DUP3 ISZERO ISZERO AND ISZERO PUSH2 0xB0B JUMPI PUSH2 0xB0A PUSH2 0xBBB JUMP JUMPDEST JUMPDEST DUP3 DUP3 MUL SWAP1 POP SWAP3 SWAP2 POP POP JUMP JUMPDEST PUSH1 0x0 PUSH2 0xB21 DUP3 PUSH2 0xB32 JUMP JUMPDEST SWAP1 POP SWAP2 SWAP1 POP JUMP JUMPDEST PUSH1 0x0 DUP2 SWAP1 POP SWAP2 SWAP1 POP JUMP JUMPDEST PUSH1 0x0 PUSH20 0xFFFFFFFFFFFFFFFFFFFFFFFFFFFFFFFFFFFFFFFF DUP3 AND SWAP1 POP SWAP2 SWAP1 POP JUMP JUMPDEST PUSH1 0x0 DUP2 SWAP1 POP SWAP2 SWAP1 POP JUMP JUMPDEST PUSH1 0x0 PUSH10 0xFFFFFFFFFFFFFFFFFFFF DUP3 AND SWAP1 POP SWAP2 SWAP1 POP JUMP JUMPDEST PUSH1 0x0 PUSH2 0xB7D DUP3 PUSH2 0xB52 JUMP JUMPDEST SWAP2 POP PUSH32 0xFFFFFFFFFFFFFFFFFFFFFFFFFFFFFFFFFFFFFFFFFFFFFFFFFFFFFFFFFFFFFFFF DUP3 EQ ISZERO PUSH2 0xBB0 JUMPI PUSH2 0xBAF PUSH2 0xBBB JUMP JUMPDEST JUMPDEST PUSH1 0x1 DUP3 ADD SWAP1 POP SWAP2 SWAP1 POP JUMP JUMPDEST PUSH32 0x4E487B7100000000000000000000000000000000000000000000000000000000 PUSH1 0x0 MSTORE PUSH1 0x11 PUSH1 0x4 MSTORE PUSH1 0x24 PUSH1 0x0 REVERT JUMPDEST PUSH32 0x4E487B7100000000000000000000000000000000000000000000000000000000 PUSH1 0x0 MSTORE PUSH1 0x12 PUSH1 0x4 MSTORE PUSH1 0x24 PUSH1 0x0 REVERT JUMPDEST PUSH32 0x4E487B7100000000000000000000000000000000000000000000000000000000 PUSH1 0x0 MSTORE PUSH1 0x32 PUSH1 0x4 MSTORE PUSH1 0x24 PUSH1 0x0 REVERT JUMPDEST PUSH32 0x4E487B7100000000000000000000000000000000000000000000000000000000 PUSH1 0x0 MSTORE PUSH1 0x41 PUSH1 0x4 MSTORE PUSH1 0x24 PUSH1 0x0 REVERT JUMPDEST PUSH1 0x0 DUP1 REVERT JUMPDEST PUSH32 0x4F6E6C7920746865206F776E65722063616E2077697468647261772045544873 PUSH1 0x0 DUP3 ADD MSTORE POP JUMP JUMPDEST PUSH32 0x4E6F7420656E6F7567682062616C616E63650000000000000000000000000000 PUSH1 0x0 DUP3 ADD MSTORE POP JUMP JUMPDEST PUSH2 0xCD7 DUP2 PUSH2 0xB16 JUMP JUMPDEST DUP2 EQ PUSH2 0xCE2 JUMPI PUSH1 0x0 DUP1 REVERT JUMPDEST POP JUMP JUMPDEST PUSH2 0xCEE DUP2 PUSH2 0xB28 JUMP JUMPDEST DUP2 EQ PUSH2 0xCF9 JUMPI PUSH1 0x0 DUP1 REVERT JUMPDEST POP JUMP JUMPDEST PUSH2 0xD05 DUP2 PUSH2 0xB52 JUMP JUMPDEST DUP2 EQ PUSH2 0xD10 JUMPI PUSH1 0x0 DUP1 REVERT JUMPDEST POP JUMP JUMPDEST PUSH2 0xD1C DUP2 PUSH2 0xB5C JUMP JUMPDEST DUP2 EQ PUSH2 0xD27 JUMPI PUSH1 0x0 DUP1 REVERT JUMPDEST POP JUMP INVALID LOG2 PUSH5 0x6970667358 0x22 SLT KECCAK256 0xB1 0xC1 NOT 0xA5 0xE3 0xE3 0xD7 DIV 0xDE 0x4B SIGNEXTEND CHAINID PUSH17 0x59B6F8868576BFB99DD3390927EAC215FC ISZERO PUSH20 0x64736F6C63430008070033000000000000000000 "
				},
				"gasEstimates": {
					"creation": {
						"codeDepositCost": "684800",
						"executionCost": "49248",
						"totalCost": "734048"
					},
					"external": {
						"addrToAmtSpent(address)": "2836",
						"buyers(uint256)": "5022",
						"ethToUSD(uint256)": "infinite",
						"getRate()": "infinite",
						"getVer()": "infinite",
						"owner()": "2514",
						"pay(uint256)": "infinite",
						"withdraw()": "infinite"
					}
				},
				"methodIdentifiers": {
					"addrToAmtSpent(address)": "a90cecbf",
					"buyers(uint256)": "f2aa8218",
					"ethToUSD(uint256)": "196e609d",
					"getRate()": "679aefce",
					"getVer()": "8793ad55",
					"owner()": "8da5cb5b",
					"pay(uint256)": "c290d691",
					"withdraw()": "3ccfd60b"
				}
			},
			"storageLayout": {
				"storage": [
					{
						"astId": 51,
						"contract": "contracts/PayMe.sol:PayMe",
						"label": "GOERLI_TESTNET_ETH_USD",
						"offset": 0,
						"slot": "0",
						"type": "t_address"
					},
					{
						"astId": 53,
						"contract": "contracts/PayMe.sol:PayMe",
						"label": "owner",
						"offset": 0,
						"slot": "1",
						"type": "t_address"
					},
					{
						"astId": 57,
						"contract": "contracts/PayMe.sol:PayMe",
						"label": "addrToAmtSpent",
						"offset": 0,
						"slot": "2",
						"type": "t_mapping(t_address,t_uint256)"
					},
					{
						"astId": 60,
						"contract": "contracts/PayMe.sol:PayMe",
						"label": "buyers",
						"offset": 0,
						"slot": "3",
						"type": "t_array(t_address)dyn_storage"
					}
				],
				"types": {
					"t_address": {
						"encoding": "inplace",
						"label": "address",
						"numberOfBytes": "20"
					},
					"t_array(t_address)dyn_storage": {
						"base": "t_address",
						"encoding": "dynamic_array",
						"label": "address[]",
						"numberOfBytes": "32"
					},
					"t_mapping(t_address,t_uint256)": {
						"encoding": "mapping",
						"key": "t_address",
						"label": "mapping(address => uint256)",
						"numberOfBytes": "32",
						"value": "t_uint256"
					},
					"t_uint256": {
						"encoding": "inplace",
						"label": "uint256",
						"numberOfBytes": "32"
					}
				}
			},
			"userdoc": {
				"kind": "user",
				"methods": {},
				"version": 1
			}
		}
	}
}