{
	"contracts/Coin2.sol": {
		"CoinFlip": {
			"abi": [
				{
					"inputs": [
						{
							"internalType": "bytes32",
							"name": "commitment",
							"type": "bytes32"
						}
					],
					"stateMutability": "payable",
					"type": "constructor"
				},
				{
					"inputs": [
						{
							"internalType": "bool",
							"name": "choice",
							"type": "bool"
						},
						{
							"internalType": "uint256",
							"name": "nonce",
							"type": "uint256"
						}
					],
					"name": "Reveal",
					"outputs": [],
					"stateMutability": "nonpayable",
					"type": "function"
				},
				{
					"inputs": [
						{
							"internalType": "bool",
							"name": "choice",
							"type": "bool"
						}
					],
					"name": "TakeBet",
					"outputs": [],
					"stateMutability": "payable",
					"type": "function"
				},
				{
					"inputs": [],
					"name": "betAmount",
					"outputs": [
						{
							"internalType": "uint256",
							"name": "",
							"type": "uint256"
						}
					],
					"stateMutability": "view",
					"type": "function"
				},
				{
					"inputs": [],
					"name": "earnestAmount",
					"outputs": [
						{
							"internalType": "uint256",
							"name": "",
							"type": "uint256"
						}
					],
					"stateMutability": "view",
					"type": "function"
				},
				{
					"inputs": [],
					"name": "player1",
					"outputs": [
						{
							"internalType": "address payable",
							"name": "",
							"type": "address"
						}
					],
					"stateMutability": "view",
					"type": "function"
				},
				{
					"inputs": [],
					"name": "player1Commitment",
					"outputs": [
						{
							"internalType": "bytes32",
							"name": "",
							"type": "bytes32"
						}
					],
					"stateMutability": "view",
					"type": "function"
				},
				{
					"inputs": [],
					"name": "player2",
					"outputs": [
						{
							"internalType": "address payable",
							"name": "",
							"type": "address"
						}
					],
					"stateMutability": "view",
					"type": "function"
				},
				{
					"inputs": [],
					"name": "player2Choice",
					"outputs": [
						{
							"internalType": "bool",
							"name": "",
							"type": "bool"
						}
					],
					"stateMutability": "view",
					"type": "function"
				},
				{
					"inputs": [],
					"name": "player2Commitment",
					"outputs": [
						{
							"internalType": "bytes32",
							"name": "",
							"type": "bytes32"
						}
					],
					"stateMutability": "view",
					"type": "function"
				}
			],
			"devdoc": {
				"kind": "dev",
				"methods": {},
				"version": 1
			},
			"evm": {
				"assembly": "    /* \"contracts/Coin2.sol\":62:1196  contract CoinFlip {\r... */\n  mstore(0x40, 0x80)\n    /* \"contracts/Coin2.sol\":345:558  constructor(bytes32 commitment) payable {\r... */\n  mload(0x40)\n  sub(codesize, bytecodeSize)\n  dup1\n  bytecodeSize\n  dup4\n  codecopy\n  dup2\n  dup2\n  add\n  0x40\n  mstore\n  dup2\n  add\n  swap1\n  tag_1\n  swap2\n  swap1\n  tag_2\n  jump\t// in\ntag_1:\n    /* \"contracts/Coin2.sol\":414:424  msg.sender */\n  caller\n    /* \"contracts/Coin2.sol\":396:403  player1 */\n  0x00\n  dup1\n    /* \"contracts/Coin2.sol\":396:425  player1 = payable(msg.sender) */\n  0x0100\n  exp\n  dup2\n  sload\n  dup2\n  0xffffffffffffffffffffffffffffffffffffffff\n  mul\n  not\n  and\n  swap1\n  dup4\n  0xffffffffffffffffffffffffffffffffffffffff\n  and\n  mul\n  or\n  swap1\n  sstore\n  pop\n    /* \"contracts/Coin2.sol\":456:466  commitment */\n  dup1\n    /* \"contracts/Coin2.sol\":436:453  player1Commitment */\n  0x02\n    /* \"contracts/Coin2.sol\":436:466  player1Commitment = commitment */\n  dup2\n  swap1\n  sstore\n  pop\n    /* \"contracts/Coin2.sol\":501:502  2 */\n  0x02\n    /* \"contracts/Coin2.sol\":489:498  msg.value */\n  callvalue\n    /* \"contracts/Coin2.sol\":489:502  msg.value / 2 */\n  tag_5\n  swap2\n  swap1\n  tag_6\n  jump\t// in\ntag_5:\n    /* \"contracts/Coin2.sol\":477:486  betAmount */\n  0x04\n    /* \"contracts/Coin2.sol\":477:502  betAmount = msg.value / 2 */\n  dup2\n  swap1\n  sstore\n  pop\n    /* \"contracts/Coin2.sol\":541:550  betAmount */\n  sload(0x04)\n    /* \"contracts/Coin2.sol\":529:538  msg.value */\n  callvalue\n    /* \"contracts/Coin2.sol\":529:550  msg.value - betAmount */\n  tag_7\n  swap2\n  swap1\n  tag_8\n  jump\t// in\ntag_7:\n    /* \"contracts/Coin2.sol\":513:526  earnestAmount */\n  0x05\n    /* \"contracts/Coin2.sol\":513:550  earnestAmount = msg.value - betAmount */\n  dup2\n  swap1\n  sstore\n  pop\n    /* \"contracts/Coin2.sol\":345:558  constructor(bytes32 commitment) payable {\r... */\n  pop\n    /* \"contracts/Coin2.sol\":62:1196  contract CoinFlip {\r... */\n  jump(tag_9)\n    /* \"#utility.yul\":7:150   */\ntag_11:\n    /* \"#utility.yul\":64:69   */\n  0x00\n    /* \"#utility.yul\":95:101   */\n  dup2\n    /* \"#utility.yul\":89:102   */\n  mload\n    /* \"#utility.yul\":80:102   */\n  swap1\n  pop\n    /* \"#utility.yul\":111:144   */\n  tag_13\n    /* \"#utility.yul\":138:143   */\n  dup2\n    /* \"#utility.yul\":111:144   */\n  tag_14\n  jump\t// in\ntag_13:\n    /* \"#utility.yul\":7:150   */\n  swap3\n  swap2\n  pop\n  pop\n  jump\t// out\n    /* \"#utility.yul\":156:507   */\ntag_2:\n    /* \"#utility.yul\":226:232   */\n  0x00\n    /* \"#utility.yul\":275:277   */\n  0x20\n    /* \"#utility.yul\":263:272   */\n  dup3\n    /* \"#utility.yul\":254:261   */\n  dup5\n    /* \"#utility.yul\":250:273   */\n  sub\n    /* \"#utility.yul\":246:278   */\n  slt\n    /* \"#utility.yul\":243:362   */\n  iszero\n  tag_16\n  jumpi\n    /* \"#utility.yul\":281:360   */\n  tag_17\n  tag_18\n  jump\t// in\ntag_17:\n    /* \"#utility.yul\":243:362   */\ntag_16:\n    /* \"#utility.yul\":401:402   */\n  0x00\n    /* \"#utility.yul\":426:490   */\n  tag_19\n    /* \"#utility.yul\":482:489   */\n  dup5\n    /* \"#utility.yul\":473:479   */\n  dup3\n    /* \"#utility.yul\":462:471   */\n  dup6\n    /* \"#utility.yul\":458:480   */\n  add\n    /* \"#utility.yul\":426:490   */\n  tag_11\n  jump\t// in\ntag_19:\n    /* \"#utility.yul\":416:490   */\n  swap2\n  pop\n    /* \"#utility.yul\":372:500   */\n  pop\n    /* \"#utility.yul\":156:507   */\n  swap3\n  swap2\n  pop\n  pop\n  jump\t// out\n    /* \"#utility.yul\":594:779   */\ntag_6:\n    /* \"#utility.yul\":634:635   */\n  0x00\n    /* \"#utility.yul\":651:671   */\n  tag_23\n    /* \"#utility.yul\":669:670   */\n  dup3\n    /* \"#utility.yul\":651:671   */\n  tag_24\n  jump\t// in\ntag_23:\n    /* \"#utility.yul\":646:671   */\n  swap2\n  pop\n    /* \"#utility.yul\":685:705   */\n  tag_25\n    /* \"#utility.yul\":703:704   */\n  dup4\n    /* \"#utility.yul\":685:705   */\n  tag_24\n  jump\t// in\ntag_25:\n    /* \"#utility.yul\":680:705   */\n  swap3\n  pop\n    /* \"#utility.yul\":724:725   */\n  dup3\n    /* \"#utility.yul\":714:749   */\n  tag_26\n  jumpi\n    /* \"#utility.yul\":729:747   */\n  tag_27\n  tag_28\n  jump\t// in\ntag_27:\n    /* \"#utility.yul\":714:749   */\ntag_26:\n    /* \"#utility.yul\":771:772   */\n  dup3\n    /* \"#utility.yul\":768:769   */\n  dup3\n    /* \"#utility.yul\":764:773   */\n  div\n    /* \"#utility.yul\":759:773   */\n  swap1\n  pop\n    /* \"#utility.yul\":594:779   */\n  swap3\n  swap2\n  pop\n  pop\n  jump\t// out\n    /* \"#utility.yul\":785:976   */\ntag_8:\n    /* \"#utility.yul\":825:829   */\n  0x00\n    /* \"#utility.yul\":845:865   */\n  tag_30\n    /* \"#utility.yul\":863:864   */\n  dup3\n    /* \"#utility.yul\":845:865   */\n  tag_24\n  jump\t// in\ntag_30:\n    /* \"#utility.yul\":840:865   */\n  swap2\n  pop\n    /* \"#utility.yul\":879:899   */\n  tag_31\n    /* \"#utility.yul\":897:898   */\n  dup4\n    /* \"#utility.yul\":879:899   */\n  tag_24\n  jump\t// in\ntag_31:\n    /* \"#utility.yul\":874:899   */\n  swap3\n  pop\n    /* \"#utility.yul\":918:919   */\n  dup3\n    /* \"#utility.yul\":915:916   */\n  dup3\n    /* \"#utility.yul\":912:920   */\n  lt\n    /* \"#utility.yul\":909:943   */\n  iszero\n  tag_32\n  jumpi\n    /* \"#utility.yul\":923:941   */\n  tag_33\n  tag_34\n  jump\t// in\ntag_33:\n    /* \"#utility.yul\":909:943   */\ntag_32:\n    /* \"#utility.yul\":968:969   */\n  dup3\n    /* \"#utility.yul\":965:966   */\n  dup3\n    /* \"#utility.yul\":961:970   */\n  sub\n    /* \"#utility.yul\":953:970   */\n  swap1\n  pop\n    /* \"#utility.yul\":785:976   */\n  swap3\n  swap2\n  pop\n  pop\n  jump\t// out\n    /* \"#utility.yul\":982:1059   */\ntag_35:\n    /* \"#utility.yul\":1019:1026   */\n  0x00\n    /* \"#utility.yul\":1048:1053   */\n  dup2\n    /* \"#utility.yul\":1037:1053   */\n  swap1\n  pop\n    /* \"#utility.yul\":982:1059   */\n  swap2\n  swap1\n  pop\n  jump\t// out\n    /* \"#utility.yul\":1065:1142   */\ntag_24:\n    /* \"#utility.yul\":1102:1109   */\n  0x00\n    /* \"#utility.yul\":1131:1136   */\n  dup2\n    /* \"#utility.yul\":1120:1136   */\n  swap1\n  pop\n    /* \"#utility.yul\":1065:1142   */\n  swap2\n  swap1\n  pop\n  jump\t// out\n    /* \"#utility.yul\":1148:1328   */\ntag_34:\n    /* \"#utility.yul\":1196:1273   */\n  0x4e487b7100000000000000000000000000000000000000000000000000000000\n    /* \"#utility.yul\":1193:1194   */\n  0x00\n    /* \"#utility.yul\":1186:1274   */\n  mstore\n    /* \"#utility.yul\":1293:1297   */\n  0x11\n    /* \"#utility.yul\":1290:1291   */\n  0x04\n    /* \"#utility.yul\":1283:1298   */\n  mstore\n    /* \"#utility.yul\":1317:1321   */\n  0x24\n    /* \"#utility.yul\":1314:1315   */\n  0x00\n    /* \"#utility.yul\":1307:1322   */\n  revert\n    /* \"#utility.yul\":1334:1514   */\ntag_28:\n    /* \"#utility.yul\":1382:1459   */\n  0x4e487b7100000000000000000000000000000000000000000000000000000000\n    /* \"#utility.yul\":1379:1380   */\n  0x00\n    /* \"#utility.yul\":1372:1460   */\n  mstore\n    /* \"#utility.yul\":1479:1483   */\n  0x12\n    /* \"#utility.yul\":1476:1477   */\n  0x04\n    /* \"#utility.yul\":1469:1484   */\n  mstore\n    /* \"#utility.yul\":1503:1507   */\n  0x24\n    /* \"#utility.yul\":1500:1501   */\n  0x00\n    /* \"#utility.yul\":1493:1508   */\n  revert\n    /* \"#utility.yul\":1643:1760   */\ntag_18:\n    /* \"#utility.yul\":1752:1753   */\n  0x00\n    /* \"#utility.yul\":1749:1750   */\n  dup1\n    /* \"#utility.yul\":1742:1754   */\n  revert\n    /* \"#utility.yul\":1766:1888   */\ntag_14:\n    /* \"#utility.yul\":1839:1863   */\n  tag_44\n    /* \"#utility.yul\":1857:1862   */\n  dup2\n    /* \"#utility.yul\":1839:1863   */\n  tag_35\n  jump\t// in\ntag_44:\n    /* \"#utility.yul\":1832:1837   */\n  dup2\n    /* \"#utility.yul\":1829:1864   */\n  eq\n    /* \"#utility.yul\":1819:1882   */\n  tag_45\n  jumpi\n    /* \"#utility.yul\":1878:1879   */\n  0x00\n    /* \"#utility.yul\":1875:1876   */\n  dup1\n    /* \"#utility.yul\":1868:1880   */\n  revert\n    /* \"#utility.yul\":1819:1882   */\ntag_45:\n    /* \"#utility.yul\":1766:1888   */\n  pop\n  jump\t// out\n    /* \"contracts/Coin2.sol\":62:1196  contract CoinFlip {\r... */\ntag_9:\n  dataSize(sub_0)\n  dup1\n  dataOffset(sub_0)\n  0x00\n  codecopy\n  0x00\n  return\nstop\n\nsub_0: assembly {\n        /* \"contracts/Coin2.sol\":62:1196  contract CoinFlip {\r... */\n      mstore(0x40, 0x80)\n      jumpi(tag_1, lt(calldatasize, 0x04))\n      shr(0xe0, calldataload(0x00))\n      dup1\n      0xd24257c0\n      gt\n      tag_11\n      jumpi\n      dup1\n      0xd24257c0\n      eq\n      tag_6\n      jumpi\n      dup1\n      0xd30895e4\n      eq\n      tag_7\n      jumpi\n      dup1\n      0xd82ead64\n      eq\n      tag_8\n      jumpi\n      dup1\n      0xde32e357\n      eq\n      tag_9\n      jumpi\n      dup1\n      0xeb13175d\n      eq\n      tag_10\n      jumpi\n      jump(tag_1)\n    tag_11:\n      dup1\n      0x0ce6e680\n      eq\n      tag_2\n      jumpi\n      dup1\n      0x1b99b468\n      eq\n      tag_3\n      jumpi\n      dup1\n      0x59a5f12d\n      eq\n      tag_4\n      jumpi\n      dup1\n      0x603f5088\n      eq\n      tag_5\n      jumpi\n    tag_1:\n      0x00\n      dup1\n      revert\n        /* \"contracts/Coin2.sol\":311:336  bool public player2Choice */\n    tag_2:\n      callvalue\n      dup1\n      iszero\n      tag_12\n      jumpi\n      0x00\n      dup1\n      revert\n    tag_12:\n      pop\n      tag_13\n      tag_14\n      jump\t// in\n    tag_13:\n      mload(0x40)\n      tag_15\n      swap2\n      swap1\n      tag_16\n      jump\t// in\n    tag_15:\n      mload(0x40)\n      dup1\n      swap2\n      sub\n      swap1\n      return\n        /* \"contracts/Coin2.sol\":274:302  uint256 public earnestAmount */\n    tag_3:\n      callvalue\n      dup1\n      iszero\n      tag_17\n      jumpi\n      0x00\n      dup1\n      revert\n    tag_17:\n      pop\n      tag_18\n      tag_19\n      jump\t// in\n    tag_18:\n      mload(0x40)\n      tag_20\n      swap2\n      swap1\n      tag_21\n      jump\t// in\n    tag_20:\n      mload(0x40)\n      dup1\n      swap2\n      sub\n      swap1\n      return\n        /* \"contracts/Coin2.sol\":124:154  address payable public player2 */\n    tag_4:\n      callvalue\n      dup1\n      iszero\n      tag_22\n      jumpi\n      0x00\n      dup1\n      revert\n    tag_22:\n      pop\n      tag_23\n      tag_24\n      jump\t// in\n    tag_23:\n      mload(0x40)\n      tag_25\n      swap2\n      swap1\n      tag_26\n      jump\t// in\n    tag_25:\n      mload(0x40)\n      dup1\n      swap2\n      sub\n      swap1\n      return\n        /* \"contracts/Coin2.sol\":202:234  bytes32 public player2Commitment */\n    tag_5:\n      callvalue\n      dup1\n      iszero\n      tag_27\n      jumpi\n      0x00\n      dup1\n      revert\n    tag_27:\n      pop\n      tag_28\n      tag_29\n      jump\t// in\n    tag_28:\n      mload(0x40)\n      tag_30\n      swap2\n      swap1\n      tag_31\n      jump\t// in\n    tag_30:\n      mload(0x40)\n      dup1\n      swap2\n      sub\n      swap1\n      return\n        /* \"contracts/Coin2.sol\":243:267  uint256 public betAmount */\n    tag_6:\n      callvalue\n      dup1\n      iszero\n      tag_32\n      jumpi\n      0x00\n      dup1\n      revert\n    tag_32:\n      pop\n      tag_33\n      tag_34\n      jump\t// in\n    tag_33:\n      mload(0x40)\n      tag_35\n      swap2\n      swap1\n      tag_21\n      jump\t// in\n    tag_35:\n      mload(0x40)\n      dup1\n      swap2\n      sub\n      swap1\n      return\n        /* \"contracts/Coin2.sol\":87:117  address payable public player1 */\n    tag_7:\n      callvalue\n      dup1\n      iszero\n      tag_36\n      jumpi\n      0x00\n      dup1\n      revert\n    tag_36:\n      pop\n      tag_37\n      tag_38\n      jump\t// in\n    tag_37:\n      mload(0x40)\n      tag_39\n      swap2\n      swap1\n      tag_26\n      jump\t// in\n    tag_39:\n      mload(0x40)\n      dup1\n      swap2\n      sub\n      swap1\n      return\n        /* \"contracts/Coin2.sol\":785:1193  function Reveal(bool choice, uint256 nonce) public {\r... */\n    tag_8:\n      callvalue\n      dup1\n      iszero\n      tag_40\n      jumpi\n      0x00\n      dup1\n      revert\n    tag_40:\n      pop\n      tag_41\n      0x04\n      dup1\n      calldatasize\n      sub\n      dup2\n      add\n      swap1\n      tag_42\n      swap2\n      swap1\n      tag_43\n      jump\t// in\n    tag_42:\n      tag_44\n      jump\t// in\n    tag_41:\n      stop\n        /* \"contracts/Coin2.sol\":566:777  function TakeBet(bool choice) public payable {\r... */\n    tag_9:\n      tag_45\n      0x04\n      dup1\n      calldatasize\n      sub\n      dup2\n      add\n      swap1\n      tag_46\n      swap2\n      swap1\n      tag_47\n      jump\t// in\n    tag_46:\n      tag_48\n      jump\t// in\n    tag_45:\n      stop\n        /* \"contracts/Coin2.sol\":163:195  bytes32 public player1Commitment */\n    tag_10:\n      callvalue\n      dup1\n      iszero\n      tag_49\n      jumpi\n      0x00\n      dup1\n      revert\n    tag_49:\n      pop\n      tag_50\n      tag_51\n      jump\t// in\n    tag_50:\n      mload(0x40)\n      tag_52\n      swap2\n      swap1\n      tag_31\n      jump\t// in\n    tag_52:\n      mload(0x40)\n      dup1\n      swap2\n      sub\n      swap1\n      return\n        /* \"contracts/Coin2.sol\":311:336  bool public player2Choice */\n    tag_14:\n      0x06\n      0x00\n      swap1\n      sload\n      swap1\n      0x0100\n      exp\n      swap1\n      div\n      0xff\n      and\n      dup2\n      jump\t// out\n        /* \"contracts/Coin2.sol\":274:302  uint256 public earnestAmount */\n    tag_19:\n      sload(0x05)\n      dup2\n      jump\t// out\n        /* \"contracts/Coin2.sol\":124:154  address payable public player2 */\n    tag_24:\n      0x01\n      0x00\n      swap1\n      sload\n      swap1\n      0x0100\n      exp\n      swap1\n      div\n      0xffffffffffffffffffffffffffffffffffffffff\n      and\n      dup2\n      jump\t// out\n        /* \"contracts/Coin2.sol\":202:234  bytes32 public player2Commitment */\n    tag_29:\n      sload(0x03)\n      dup2\n      jump\t// out\n        /* \"contracts/Coin2.sol\":243:267  uint256 public betAmount */\n    tag_34:\n      sload(0x04)\n      dup2\n      jump\t// out\n        /* \"contracts/Coin2.sol\":87:117  address payable public player1 */\n    tag_38:\n      0x00\n      dup1\n      sload\n      swap1\n      0x0100\n      exp\n      swap1\n      div\n      0xffffffffffffffffffffffffffffffffffffffff\n      and\n      dup2\n      jump\t// out\n        /* \"contracts/Coin2.sol\":785:1193  function Reveal(bool choice, uint256 nonce) public {\r... */\n    tag_44:\n        /* \"contracts/Coin2.sol\":874:875  0 */\n      0x00\n        /* \"contracts/Coin2.sol\":855:876  player2 != address(0) */\n      0xffffffffffffffffffffffffffffffffffffffff\n      and\n        /* \"contracts/Coin2.sol\":855:862  player2 */\n      0x01\n      0x00\n      swap1\n      sload\n      swap1\n      0x0100\n      exp\n      swap1\n      div\n      0xffffffffffffffffffffffffffffffffffffffff\n      and\n        /* \"contracts/Coin2.sol\":855:876  player2 != address(0) */\n      0xffffffffffffffffffffffffffffffffffffffff\n      and\n      eq\n      iszero\n        /* \"contracts/Coin2.sol\":847:877  require(player2 != address(0)) */\n      tag_54\n      jumpi\n      0x00\n      dup1\n      revert\n    tag_54:\n        /* \"contracts/Coin2.sol\":942:959  player1Commitment */\n      sload(0x02)\n        /* \"contracts/Coin2.sol\":923:929  choice */\n      dup3\n        /* \"contracts/Coin2.sol\":931:936  nonce */\n      dup3\n        /* \"contracts/Coin2.sol\":906:937  abi.encodePacked(choice, nonce) */\n      add(0x20, mload(0x40))\n      tag_55\n      swap3\n      swap2\n      swap1\n      tag_56\n      jump\t// in\n    tag_55:\n      mload(0x40)\n      0x20\n      dup2\n      dup4\n      sub\n      sub\n      dup2\n      mstore\n      swap1\n      0x40\n      mstore\n        /* \"contracts/Coin2.sol\":896:938  keccak256(abi.encodePacked(choice, nonce)) */\n      dup1\n      mload\n      swap1\n      0x20\n      add\n      keccak256\n        /* \"contracts/Coin2.sol\":896:959  keccak256(abi.encodePacked(choice, nonce)) == player1Commitment */\n      eq\n        /* \"contracts/Coin2.sol\":888:960  require(keccak256(abi.encodePacked(choice, nonce)) == player1Commitment) */\n      tag_57\n      jumpi\n      0x00\n      dup1\n      revert\n    tag_57:\n        /* \"contracts/Coin2.sol\":994:1000  choice */\n      dup2\n        /* \"contracts/Coin2.sol\":977:1000  player2Choice == choice */\n      iszero\n      iszero\n        /* \"contracts/Coin2.sol\":977:990  player2Choice */\n      0x06\n      0x00\n      swap1\n      sload\n      swap1\n      0x0100\n      exp\n      swap1\n      div\n      0xff\n      and\n        /* \"contracts/Coin2.sol\":977:1000  player2Choice == choice */\n      iszero\n      iszero\n      eq\n        /* \"contracts/Coin2.sol\":973:1186  if (player2Choice == choice) {\r... */\n      iszero\n      tag_58\n      jumpi\n        /* \"contracts/Coin2.sol\":1017:1024  player1 */\n      0x00\n      dup1\n      sload\n      swap1\n      0x0100\n      exp\n      swap1\n      div\n      0xffffffffffffffffffffffffffffffffffffffff\n      and\n        /* \"contracts/Coin2.sol\":1017:1033  player1.transfer */\n      0xffffffffffffffffffffffffffffffffffffffff\n      and\n        /* \"contracts/Coin2.sol\":1017:1048  player1.transfer(earnestAmount) */\n      0x08fc\n        /* \"contracts/Coin2.sol\":1034:1047  earnestAmount */\n      sload(0x05)\n        /* \"contracts/Coin2.sol\":1017:1048  player1.transfer(earnestAmount) */\n      swap1\n      dup2\n      iszero\n      mul\n      swap1\n      mload(0x40)\n      0x00\n      mload(0x40)\n      dup1\n      dup4\n      sub\n      dup2\n      dup6\n      dup9\n      dup9\n      call\n      swap4\n      pop\n      pop\n      pop\n      pop\n      iszero\n      dup1\n      iszero\n      tag_60\n      jumpi\n      returndatasize\n      0x00\n      dup1\n      returndatacopy\n      revert(0x00, returndatasize)\n    tag_60:\n      pop\n        /* \"contracts/Coin2.sol\":1063:1070  player2 */\n      0x01\n      0x00\n      swap1\n      sload\n      swap1\n      0x0100\n      exp\n      swap1\n      div\n      0xffffffffffffffffffffffffffffffffffffffff\n      and\n        /* \"contracts/Coin2.sol\":1063:1079  player2.transfer */\n      0xffffffffffffffffffffffffffffffffffffffff\n      and\n        /* \"contracts/Coin2.sol\":1063:1102  player2.transfer(address(this).balance) */\n      0x08fc\n        /* \"contracts/Coin2.sol\":1080:1101  address(this).balance */\n      selfbalance\n        /* \"contracts/Coin2.sol\":1063:1102  player2.transfer(address(this).balance) */\n      swap1\n      dup2\n      iszero\n      mul\n      swap1\n      mload(0x40)\n      0x00\n      mload(0x40)\n      dup1\n      dup4\n      sub\n      dup2\n      dup6\n      dup9\n      dup9\n      call\n      swap4\n      pop\n      pop\n      pop\n      pop\n      iszero\n      dup1\n      iszero\n      tag_62\n      jumpi\n      returndatasize\n      0x00\n      dup1\n      returndatacopy\n      revert(0x00, returndatasize)\n    tag_62:\n      pop\n        /* \"contracts/Coin2.sol\":973:1186  if (player2Choice == choice) {\r... */\n      jump(tag_63)\n    tag_58:\n        /* \"contracts/Coin2.sol\":1135:1142  player1 */\n      0x00\n      dup1\n      sload\n      swap1\n      0x0100\n      exp\n      swap1\n      div\n      0xffffffffffffffffffffffffffffffffffffffff\n      and\n        /* \"contracts/Coin2.sol\":1135:1151  player1.transfer */\n      0xffffffffffffffffffffffffffffffffffffffff\n      and\n        /* \"contracts/Coin2.sol\":1135:1174  player1.transfer(address(this).balance) */\n      0x08fc\n        /* \"contracts/Coin2.sol\":1152:1173  address(this).balance */\n      selfbalance\n        /* \"contracts/Coin2.sol\":1135:1174  player1.transfer(address(this).balance) */\n      swap1\n      dup2\n      iszero\n      mul\n      swap1\n      mload(0x40)\n      0x00\n      mload(0x40)\n      dup1\n      dup4\n      sub\n      dup2\n      dup6\n      dup9\n      dup9\n      call\n      swap4\n      pop\n      pop\n      pop\n      pop\n      iszero\n      dup1\n      iszero\n      tag_65\n      jumpi\n      returndatasize\n      0x00\n      dup1\n      returndatacopy\n      revert(0x00, returndatasize)\n    tag_65:\n      pop\n        /* \"contracts/Coin2.sol\":973:1186  if (player2Choice == choice) {\r... */\n    tag_63:\n        /* \"contracts/Coin2.sol\":785:1193  function Reveal(bool choice, uint256 nonce) public {\r... */\n      pop\n      pop\n      jump\t// out\n        /* \"contracts/Coin2.sol\":566:777  function TakeBet(bool choice) public payable {\r... */\n    tag_48:\n        /* \"contracts/Coin2.sol\":649:650  0 */\n      0x00\n        /* \"contracts/Coin2.sol\":630:651  player2 == address(0) */\n      0xffffffffffffffffffffffffffffffffffffffff\n      and\n        /* \"contracts/Coin2.sol\":630:637  player2 */\n      0x01\n      0x00\n      swap1\n      sload\n      swap1\n      0x0100\n      exp\n      swap1\n      div\n      0xffffffffffffffffffffffffffffffffffffffff\n      and\n        /* \"contracts/Coin2.sol\":630:651  player2 == address(0) */\n      0xffffffffffffffffffffffffffffffffffffffff\n      and\n      eq\n        /* \"contracts/Coin2.sol\":622:652  require(player2 == address(0)) */\n      tag_67\n      jumpi\n      0x00\n      dup1\n      revert\n    tag_67:\n        /* \"contracts/Coin2.sol\":684:693  betAmount */\n      sload(0x04)\n        /* \"contracts/Coin2.sol\":671:680  msg.value */\n      callvalue\n        /* \"contracts/Coin2.sol\":671:693  msg.value == betAmount */\n      eq\n        /* \"contracts/Coin2.sol\":663:694  require(msg.value == betAmount) */\n      tag_68\n      jumpi\n      0x00\n      dup1\n      revert\n    tag_68:\n        /* \"contracts/Coin2.sol\":725:735  msg.sender */\n      caller\n        /* \"contracts/Coin2.sol\":707:714  player2 */\n      0x01\n      0x00\n        /* \"contracts/Coin2.sol\":707:736  player2 = payable(msg.sender) */\n      0x0100\n      exp\n      dup2\n      sload\n      dup2\n      0xffffffffffffffffffffffffffffffffffffffff\n      mul\n      not\n      and\n      swap1\n      dup4\n      0xffffffffffffffffffffffffffffffffffffffff\n      and\n      mul\n      or\n      swap1\n      sstore\n      pop\n        /* \"contracts/Coin2.sol\":763:769  choice */\n      dup1\n        /* \"contracts/Coin2.sol\":747:760  player2Choice */\n      0x06\n      0x00\n        /* \"contracts/Coin2.sol\":747:769  player2Choice = choice */\n      0x0100\n      exp\n      dup2\n      sload\n      dup2\n      0xff\n      mul\n      not\n      and\n      swap1\n      dup4\n      iszero\n      iszero\n      mul\n      or\n      swap1\n      sstore\n      pop\n        /* \"contracts/Coin2.sol\":566:777  function TakeBet(bool choice) public payable {\r... */\n      pop\n      jump\t// out\n        /* \"contracts/Coin2.sol\":163:195  bytes32 public player1Commitment */\n    tag_51:\n      sload(0x02)\n      dup2\n      jump\t// out\n        /* \"#utility.yul\":7:140   */\n    tag_70:\n        /* \"#utility.yul\":50:55   */\n      0x00\n        /* \"#utility.yul\":88:94   */\n      dup2\n        /* \"#utility.yul\":75:95   */\n      calldataload\n        /* \"#utility.yul\":66:95   */\n      swap1\n      pop\n        /* \"#utility.yul\":104:134   */\n      tag_72\n        /* \"#utility.yul\":128:133   */\n      dup2\n        /* \"#utility.yul\":104:134   */\n      tag_73\n      jump\t// in\n    tag_72:\n        /* \"#utility.yul\":7:140   */\n      swap3\n      swap2\n      pop\n      pop\n      jump\t// out\n        /* \"#utility.yul\":146:285   */\n    tag_74:\n        /* \"#utility.yul\":192:197   */\n      0x00\n        /* \"#utility.yul\":230:236   */\n      dup2\n        /* \"#utility.yul\":217:237   */\n      calldataload\n        /* \"#utility.yul\":208:237   */\n      swap1\n      pop\n        /* \"#utility.yul\":246:279   */\n      tag_76\n        /* \"#utility.yul\":273:278   */\n      dup2\n        /* \"#utility.yul\":246:279   */\n      tag_77\n      jump\t// in\n    tag_76:\n        /* \"#utility.yul\":146:285   */\n      swap3\n      swap2\n      pop\n      pop\n      jump\t// out\n        /* \"#utility.yul\":291:614   */\n    tag_47:\n        /* \"#utility.yul\":347:353   */\n      0x00\n        /* \"#utility.yul\":396:398   */\n      0x20\n        /* \"#utility.yul\":384:393   */\n      dup3\n        /* \"#utility.yul\":375:382   */\n      dup5\n        /* \"#utility.yul\":371:394   */\n      sub\n        /* \"#utility.yul\":367:399   */\n      slt\n        /* \"#utility.yul\":364:483   */\n      iszero\n      tag_79\n      jumpi\n        /* \"#utility.yul\":402:481   */\n      tag_80\n      tag_81\n      jump\t// in\n    tag_80:\n        /* \"#utility.yul\":364:483   */\n    tag_79:\n        /* \"#utility.yul\":522:523   */\n      0x00\n        /* \"#utility.yul\":547:597   */\n      tag_82\n        /* \"#utility.yul\":589:596   */\n      dup5\n        /* \"#utility.yul\":580:586   */\n      dup3\n        /* \"#utility.yul\":569:578   */\n      dup6\n        /* \"#utility.yul\":565:587   */\n      add\n        /* \"#utility.yul\":547:597   */\n      tag_70\n      jump\t// in\n    tag_82:\n        /* \"#utility.yul\":537:597   */\n      swap2\n      pop\n        /* \"#utility.yul\":493:607   */\n      pop\n        /* \"#utility.yul\":291:614   */\n      swap3\n      swap2\n      pop\n      pop\n      jump\t// out\n        /* \"#utility.yul\":620:1088   */\n    tag_43:\n        /* \"#utility.yul\":685:691   */\n      0x00\n        /* \"#utility.yul\":693:699   */\n      dup1\n        /* \"#utility.yul\":742:744   */\n      0x40\n        /* \"#utility.yul\":730:739   */\n      dup4\n        /* \"#utility.yul\":721:728   */\n      dup6\n        /* \"#utility.yul\":717:740   */\n      sub\n        /* \"#utility.yul\":713:745   */\n      slt\n        /* \"#utility.yul\":710:829   */\n      iszero\n      tag_84\n      jumpi\n        /* \"#utility.yul\":748:827   */\n      tag_85\n      tag_81\n      jump\t// in\n    tag_85:\n        /* \"#utility.yul\":710:829   */\n    tag_84:\n        /* \"#utility.yul\":868:869   */\n      0x00\n        /* \"#utility.yul\":893:943   */\n      tag_86\n        /* \"#utility.yul\":935:942   */\n      dup6\n        /* \"#utility.yul\":926:932   */\n      dup3\n        /* \"#utility.yul\":915:924   */\n      dup7\n        /* \"#utility.yul\":911:933   */\n      add\n        /* \"#utility.yul\":893:943   */\n      tag_70\n      jump\t// in\n    tag_86:\n        /* \"#utility.yul\":883:943   */\n      swap3\n      pop\n        /* \"#utility.yul\":839:953   */\n      pop\n        /* \"#utility.yul\":992:994   */\n      0x20\n        /* \"#utility.yul\":1018:1071   */\n      tag_87\n        /* \"#utility.yul\":1063:1070   */\n      dup6\n        /* \"#utility.yul\":1054:1060   */\n      dup3\n        /* \"#utility.yul\":1043:1052   */\n      dup7\n        /* \"#utility.yul\":1039:1061   */\n      add\n        /* \"#utility.yul\":1018:1071   */\n      tag_74\n      jump\t// in\n    tag_87:\n        /* \"#utility.yul\":1008:1071   */\n      swap2\n      pop\n        /* \"#utility.yul\":963:1081   */\n      pop\n        /* \"#utility.yul\":620:1088   */\n      swap3\n      pop\n      swap3\n      swap1\n      pop\n      jump\t// out\n        /* \"#utility.yul\":1094:1236   */\n    tag_88:\n        /* \"#utility.yul\":1197:1229   */\n      tag_90\n        /* \"#utility.yul\":1223:1228   */\n      dup2\n        /* \"#utility.yul\":1197:1229   */\n      tag_91\n      jump\t// in\n    tag_90:\n        /* \"#utility.yul\":1192:1195   */\n      dup3\n        /* \"#utility.yul\":1185:1230   */\n      mstore\n        /* \"#utility.yul\":1094:1236   */\n      pop\n      pop\n      jump\t// out\n        /* \"#utility.yul\":1242:1351   */\n    tag_92:\n        /* \"#utility.yul\":1323:1344   */\n      tag_94\n        /* \"#utility.yul\":1338:1343   */\n      dup2\n        /* \"#utility.yul\":1323:1344   */\n      tag_95\n      jump\t// in\n    tag_94:\n        /* \"#utility.yul\":1318:1321   */\n      dup3\n        /* \"#utility.yul\":1311:1345   */\n      mstore\n        /* \"#utility.yul\":1242:1351   */\n      pop\n      pop\n      jump\t// out\n        /* \"#utility.yul\":1357:1502   */\n    tag_96:\n        /* \"#utility.yul\":1456:1495   */\n      tag_98\n        /* \"#utility.yul\":1473:1494   */\n      tag_99\n        /* \"#utility.yul\":1488:1493   */\n      dup3\n        /* \"#utility.yul\":1473:1494   */\n      tag_95\n      jump\t// in\n    tag_99:\n        /* \"#utility.yul\":1456:1495   */\n      tag_100\n      jump\t// in\n    tag_98:\n        /* \"#utility.yul\":1451:1454   */\n      dup3\n        /* \"#utility.yul\":1444:1496   */\n      mstore\n        /* \"#utility.yul\":1357:1502   */\n      pop\n      pop\n      jump\t// out\n        /* \"#utility.yul\":1508:1626   */\n    tag_101:\n        /* \"#utility.yul\":1595:1619   */\n      tag_103\n        /* \"#utility.yul\":1613:1618   */\n      dup2\n        /* \"#utility.yul\":1595:1619   */\n      tag_104\n      jump\t// in\n    tag_103:\n        /* \"#utility.yul\":1590:1593   */\n      dup3\n        /* \"#utility.yul\":1583:1620   */\n      mstore\n        /* \"#utility.yul\":1508:1626   */\n      pop\n      pop\n      jump\t// out\n        /* \"#utility.yul\":1632:1750   */\n    tag_105:\n        /* \"#utility.yul\":1719:1743   */\n      tag_107\n        /* \"#utility.yul\":1737:1742   */\n      dup2\n        /* \"#utility.yul\":1719:1743   */\n      tag_108\n      jump\t// in\n    tag_107:\n        /* \"#utility.yul\":1714:1717   */\n      dup3\n        /* \"#utility.yul\":1707:1744   */\n      mstore\n        /* \"#utility.yul\":1632:1750   */\n      pop\n      pop\n      jump\t// out\n        /* \"#utility.yul\":1756:1913   */\n    tag_109:\n        /* \"#utility.yul\":1861:1906   */\n      tag_111\n        /* \"#utility.yul\":1881:1905   */\n      tag_112\n        /* \"#utility.yul\":1899:1904   */\n      dup3\n        /* \"#utility.yul\":1881:1905   */\n      tag_108\n      jump\t// in\n    tag_112:\n        /* \"#utility.yul\":1861:1906   */\n      tag_113\n      jump\t// in\n    tag_111:\n        /* \"#utility.yul\":1856:1859   */\n      dup3\n        /* \"#utility.yul\":1849:1907   */\n      mstore\n        /* \"#utility.yul\":1756:1913   */\n      pop\n      pop\n      jump\t// out\n        /* \"#utility.yul\":1919:2303   */\n    tag_56:\n        /* \"#utility.yul\":2053:2056   */\n      0x00\n        /* \"#utility.yul\":2068:2137   */\n      tag_115\n        /* \"#utility.yul\":2133:2136   */\n      dup3\n        /* \"#utility.yul\":2124:2130   */\n      dup6\n        /* \"#utility.yul\":2068:2137   */\n      tag_96\n      jump\t// in\n    tag_115:\n        /* \"#utility.yul\":2162:2163   */\n      0x01\n        /* \"#utility.yul\":2157:2160   */\n      dup3\n        /* \"#utility.yul\":2153:2164   */\n      add\n        /* \"#utility.yul\":2146:2164   */\n      swap2\n      pop\n        /* \"#utility.yul\":2174:2249   */\n      tag_116\n        /* \"#utility.yul\":2245:2248   */\n      dup3\n        /* \"#utility.yul\":2236:2242   */\n      dup5\n        /* \"#utility.yul\":2174:2249   */\n      tag_109\n      jump\t// in\n    tag_116:\n        /* \"#utility.yul\":2274:2276   */\n      0x20\n        /* \"#utility.yul\":2269:2272   */\n      dup3\n        /* \"#utility.yul\":2265:2277   */\n      add\n        /* \"#utility.yul\":2258:2277   */\n      swap2\n      pop\n        /* \"#utility.yul\":2294:2297   */\n      dup2\n        /* \"#utility.yul\":2287:2297   */\n      swap1\n      pop\n        /* \"#utility.yul\":1919:2303   */\n      swap4\n      swap3\n      pop\n      pop\n      pop\n      jump\t// out\n        /* \"#utility.yul\":2309:2563   */\n    tag_26:\n        /* \"#utility.yul\":2418:2422   */\n      0x00\n        /* \"#utility.yul\":2456:2458   */\n      0x20\n        /* \"#utility.yul\":2445:2454   */\n      dup3\n        /* \"#utility.yul\":2441:2459   */\n      add\n        /* \"#utility.yul\":2433:2459   */\n      swap1\n      pop\n        /* \"#utility.yul\":2469:2556   */\n      tag_118\n        /* \"#utility.yul\":2553:2554   */\n      0x00\n        /* \"#utility.yul\":2542:2551   */\n      dup4\n        /* \"#utility.yul\":2538:2555   */\n      add\n        /* \"#utility.yul\":2529:2535   */\n      dup5\n        /* \"#utility.yul\":2469:2556   */\n      tag_88\n      jump\t// in\n    tag_118:\n        /* \"#utility.yul\":2309:2563   */\n      swap3\n      swap2\n      pop\n      pop\n      jump\t// out\n        /* \"#utility.yul\":2569:2779   */\n    tag_16:\n        /* \"#utility.yul\":2656:2660   */\n      0x00\n        /* \"#utility.yul\":2694:2696   */\n      0x20\n        /* \"#utility.yul\":2683:2692   */\n      dup3\n        /* \"#utility.yul\":2679:2697   */\n      add\n        /* \"#utility.yul\":2671:2697   */\n      swap1\n      pop\n        /* \"#utility.yul\":2707:2772   */\n      tag_120\n        /* \"#utility.yul\":2769:2770   */\n      0x00\n        /* \"#utility.yul\":2758:2767   */\n      dup4\n        /* \"#utility.yul\":2754:2771   */\n      add\n        /* \"#utility.yul\":2745:2751   */\n      dup5\n        /* \"#utility.yul\":2707:2772   */\n      tag_92\n      jump\t// in\n    tag_120:\n        /* \"#utility.yul\":2569:2779   */\n      swap3\n      swap2\n      pop\n      pop\n      jump\t// out\n        /* \"#utility.yul\":2785:3007   */\n    tag_31:\n        /* \"#utility.yul\":2878:2882   */\n      0x00\n        /* \"#utility.yul\":2916:2918   */\n      0x20\n        /* \"#utility.yul\":2905:2914   */\n      dup3\n        /* \"#utility.yul\":2901:2919   */\n      add\n        /* \"#utility.yul\":2893:2919   */\n      swap1\n      pop\n        /* \"#utility.yul\":2929:3000   */\n      tag_122\n        /* \"#utility.yul\":2997:2998   */\n      0x00\n        /* \"#utility.yul\":2986:2995   */\n      dup4\n        /* \"#utility.yul\":2982:2999   */\n      add\n        /* \"#utility.yul\":2973:2979   */\n      dup5\n        /* \"#utility.yul\":2929:3000   */\n      tag_101\n      jump\t// in\n    tag_122:\n        /* \"#utility.yul\":2785:3007   */\n      swap3\n      swap2\n      pop\n      pop\n      jump\t// out\n        /* \"#utility.yul\":3013:3235   */\n    tag_21:\n        /* \"#utility.yul\":3106:3110   */\n      0x00\n        /* \"#utility.yul\":3144:3146   */\n      0x20\n        /* \"#utility.yul\":3133:3142   */\n      dup3\n        /* \"#utility.yul\":3129:3147   */\n      add\n        /* \"#utility.yul\":3121:3147   */\n      swap1\n      pop\n        /* \"#utility.yul\":3157:3228   */\n      tag_124\n        /* \"#utility.yul\":3225:3226   */\n      0x00\n        /* \"#utility.yul\":3214:3223   */\n      dup4\n        /* \"#utility.yul\":3210:3227   */\n      add\n        /* \"#utility.yul\":3201:3207   */\n      dup5\n        /* \"#utility.yul\":3157:3228   */\n      tag_105\n      jump\t// in\n    tag_124:\n        /* \"#utility.yul\":3013:3235   */\n      swap3\n      swap2\n      pop\n      pop\n      jump\t// out\n        /* \"#utility.yul\":3322:3426   */\n    tag_91:\n        /* \"#utility.yul\":3367:3374   */\n      0x00\n        /* \"#utility.yul\":3396:3420   */\n      tag_128\n        /* \"#utility.yul\":3414:3419   */\n      dup3\n        /* \"#utility.yul\":3396:3420   */\n      tag_129\n      jump\t// in\n    tag_128:\n        /* \"#utility.yul\":3385:3420   */\n      swap1\n      pop\n        /* \"#utility.yul\":3322:3426   */\n      swap2\n      swap1\n      pop\n      jump\t// out\n        /* \"#utility.yul\":3432:3522   */\n    tag_95:\n        /* \"#utility.yul\":3466:3473   */\n      0x00\n        /* \"#utility.yul\":3509:3514   */\n      dup2\n        /* \"#utility.yul\":3502:3515   */\n      iszero\n        /* \"#utility.yul\":3495:3516   */\n      iszero\n        /* \"#utility.yul\":3484:3516   */\n      swap1\n      pop\n        /* \"#utility.yul\":3432:3522   */\n      swap2\n      swap1\n      pop\n      jump\t// out\n        /* \"#utility.yul\":3528:3605   */\n    tag_104:\n        /* \"#utility.yul\":3565:3572   */\n      0x00\n        /* \"#utility.yul\":3594:3599   */\n      dup2\n        /* \"#utility.yul\":3583:3599   */\n      swap1\n      pop\n        /* \"#utility.yul\":3528:3605   */\n      swap2\n      swap1\n      pop\n      jump\t// out\n        /* \"#utility.yul\":3611:3737   */\n    tag_129:\n        /* \"#utility.yul\":3648:3655   */\n      0x00\n        /* \"#utility.yul\":3688:3730   */\n      0xffffffffffffffffffffffffffffffffffffffff\n        /* \"#utility.yul\":3681:3686   */\n      dup3\n        /* \"#utility.yul\":3677:3731   */\n      and\n        /* \"#utility.yul\":3666:3731   */\n      swap1\n      pop\n        /* \"#utility.yul\":3611:3737   */\n      swap2\n      swap1\n      pop\n      jump\t// out\n        /* \"#utility.yul\":3743:3820   */\n    tag_108:\n        /* \"#utility.yul\":3780:3787   */\n      0x00\n        /* \"#utility.yul\":3809:3814   */\n      dup2\n        /* \"#utility.yul\":3798:3814   */\n      swap1\n      pop\n        /* \"#utility.yul\":3743:3820   */\n      swap2\n      swap1\n      pop\n      jump\t// out\n        /* \"#utility.yul\":3826:3921   */\n    tag_100:\n        /* \"#utility.yul\":3862:3869   */\n      0x00\n        /* \"#utility.yul\":3891:3915   */\n      tag_135\n        /* \"#utility.yul\":3909:3914   */\n      dup3\n        /* \"#utility.yul\":3891:3915   */\n      tag_136\n      jump\t// in\n    tag_135:\n        /* \"#utility.yul\":3880:3915   */\n      swap1\n      pop\n        /* \"#utility.yul\":3826:3921   */\n      swap2\n      swap1\n      pop\n      jump\t// out\n        /* \"#utility.yul\":3927:4006   */\n    tag_113:\n        /* \"#utility.yul\":3966:3973   */\n      0x00\n        /* \"#utility.yul\":3995:4000   */\n      dup2\n        /* \"#utility.yul\":3984:4000   */\n      swap1\n      pop\n        /* \"#utility.yul\":3927:4006   */\n      swap2\n      swap1\n      pop\n      jump\t// out\n        /* \"#utility.yul\":4012:4105   */\n    tag_136:\n        /* \"#utility.yul\":4049:4056   */\n      0x00\n        /* \"#utility.yul\":4078:4099   */\n      tag_139\n        /* \"#utility.yul\":4093:4098   */\n      dup3\n        /* \"#utility.yul\":4078:4099   */\n      tag_140\n      jump\t// in\n    tag_139:\n        /* \"#utility.yul\":4067:4099   */\n      swap1\n      pop\n        /* \"#utility.yul\":4012:4105   */\n      swap2\n      swap1\n      pop\n      jump\t// out\n        /* \"#utility.yul\":4234:4351   */\n    tag_81:\n        /* \"#utility.yul\":4343:4344   */\n      0x00\n        /* \"#utility.yul\":4340:4341   */\n      dup1\n        /* \"#utility.yul\":4333:4345   */\n      revert\n        /* \"#utility.yul\":4357:4453   */\n    tag_140:\n        /* \"#utility.yul\":4391:4399   */\n      0x00\n        /* \"#utility.yul\":4440:4445   */\n      dup2\n        /* \"#utility.yul\":4435:4438   */\n      0xf8\n        /* \"#utility.yul\":4431:4446   */\n      shl\n        /* \"#utility.yul\":4410:4446   */\n      swap1\n      pop\n        /* \"#utility.yul\":4357:4453   */\n      swap2\n      swap1\n      pop\n      jump\t// out\n        /* \"#utility.yul\":4459:4575   */\n    tag_73:\n        /* \"#utility.yul\":4529:4550   */\n      tag_146\n        /* \"#utility.yul\":4544:4549   */\n      dup2\n        /* \"#utility.yul\":4529:4550   */\n      tag_95\n      jump\t// in\n    tag_146:\n        /* \"#utility.yul\":4522:4527   */\n      dup2\n        /* \"#utility.yul\":4519:4551   */\n      eq\n        /* \"#utility.yul\":4509:4569   */\n      tag_147\n      jumpi\n        /* \"#utility.yul\":4565:4566   */\n      0x00\n        /* \"#utility.yul\":4562:4563   */\n      dup1\n        /* \"#utility.yul\":4555:4567   */\n      revert\n        /* \"#utility.yul\":4509:4569   */\n    tag_147:\n        /* \"#utility.yul\":4459:4575   */\n      pop\n      jump\t// out\n        /* \"#utility.yul\":4581:4703   */\n    tag_77:\n        /* \"#utility.yul\":4654:4678   */\n      tag_149\n        /* \"#utility.yul\":4672:4677   */\n      dup2\n        /* \"#utility.yul\":4654:4678   */\n      tag_108\n      jump\t// in\n    tag_149:\n        /* \"#utility.yul\":4647:4652   */\n      dup2\n        /* \"#utility.yul\":4644:4679   */\n      eq\n        /* \"#utility.yul\":4634:4697   */\n      tag_150\n      jumpi\n        /* \"#utility.yul\":4693:4694   */\n      0x00\n        /* \"#utility.yul\":4690:4691   */\n      dup1\n        /* \"#utility.yul\":4683:4695   */\n      revert\n        /* \"#utility.yul\":4634:4697   */\n    tag_150:\n        /* \"#utility.yul\":4581:4703   */\n      pop\n      jump\t// out\n\n    auxdata: 0xa26469706673582212201c311ee823762d0d86f8e345326fab8df912ad958377e3a05b7ddb494ffa09ea64736f6c63430008070033\n}\n",
				"bytecode": {
					"linkReferences": {},
					"object": "6080604052604051610995380380610995833981810160405281019061002591906100ae565b336000806101000a81548173ffffffffffffffffffffffffffffffffffffffff021916908373ffffffffffffffffffffffffffffffffffffffff1602179055508060028190555060023461007991906100db565b6004819055506004543461008d919061010c565b600581905550506101ce565b6000815190506100a8816101b7565b92915050565b6000602082840312156100c4576100c36101b2565b5b60006100d284828501610099565b91505092915050565b60006100e68261014a565b91506100f18361014a565b92508261010157610100610183565b5b828204905092915050565b60006101178261014a565b91506101228361014a565b92508282101561013557610134610154565b5b828203905092915050565b6000819050919050565b6000819050919050565b7f4e487b7100000000000000000000000000000000000000000000000000000000600052601160045260246000fd5b7f4e487b7100000000000000000000000000000000000000000000000000000000600052601260045260246000fd5b600080fd5b6101c081610140565b81146101cb57600080fd5b50565b6107b8806101dd6000396000f3fe6080604052600436106100865760003560e01c8063d24257c011610059578063d24257c014610137578063d30895e414610162578063d82ead641461018d578063de32e357146101b6578063eb13175d146101d257610086565b80630ce6e6801461008b5780631b99b468146100b657806359a5f12d146100e1578063603f50881461010c575b600080fd5b34801561009757600080fd5b506100a06101fd565b6040516100ad9190610671565b60405180910390f35b3480156100c257600080fd5b506100cb610210565b6040516100d891906106a7565b60405180910390f35b3480156100ed57600080fd5b506100f6610216565b6040516101039190610656565b60405180910390f35b34801561011857600080fd5b5061012161023c565b60405161012e919061068c565b60405180910390f35b34801561014357600080fd5b5061014c610242565b60405161015991906106a7565b60405180910390f35b34801561016e57600080fd5b50610177610248565b6040516101849190610656565b60405180910390f35b34801561019957600080fd5b506101b460048036038101906101af9190610580565b61026c565b005b6101d060048036038101906101cb9190610553565b61045c565b005b3480156101de57600080fd5b506101e7610523565b6040516101f4919061068c565b60405180910390f35b600660009054906101000a900460ff1681565b60055481565b600160009054906101000a900473ffffffffffffffffffffffffffffffffffffffff1681565b60035481565b60045481565b60008054906101000a900473ffffffffffffffffffffffffffffffffffffffff1681565b600073ffffffffffffffffffffffffffffffffffffffff16600160009054906101000a900473ffffffffffffffffffffffffffffffffffffffff1673ffffffffffffffffffffffffffffffffffffffff1614156102c857600080fd5b60025482826040516020016102de92919061062a565b60405160208183030381529060405280519060200120146102fe57600080fd5b811515600660009054906101000a900460ff16151514156103f05760008054906101000a900473ffffffffffffffffffffffffffffffffffffffff1673ffffffffffffffffffffffffffffffffffffffff166108fc6005549081150290604051600060405180830381858888f19350505050158015610381573d6000803e3d6000fd5b50600160009054906101000a900473ffffffffffffffffffffffffffffffffffffffff1673ffffffffffffffffffffffffffffffffffffffff166108fc479081150290604051600060405180830381858888f193505050501580156103ea573d6000803e3d6000fd5b50610458565b60008054906101000a900473ffffffffffffffffffffffffffffffffffffffff1673ffffffffffffffffffffffffffffffffffffffff166108fc479081150290604051600060405180830381858888f19350505050158015610456573d6000803e3d6000fd5b505b5050565b600073ffffffffffffffffffffffffffffffffffffffff16600160009054906101000a900473ffffffffffffffffffffffffffffffffffffffff1673ffffffffffffffffffffffffffffffffffffffff16146104b757600080fd5b60045434146104c557600080fd5b33600160006101000a81548173ffffffffffffffffffffffffffffffffffffffff021916908373ffffffffffffffffffffffffffffffffffffffff16021790555080600660006101000a81548160ff02191690831515021790555050565b60025481565b60008135905061053881610754565b92915050565b60008135905061054d8161076b565b92915050565b60006020828403121561056957610568610742565b5b600061057784828501610529565b91505092915050565b6000806040838503121561059757610596610742565b5b60006105a585828601610529565b92505060206105b68582860161053e565b9150509250929050565b6105c9816106c2565b82525050565b6105d8816106d4565b82525050565b6105ef6105ea826106d4565b610714565b82525050565b6105fe816106e0565b82525050565b61060d8161070a565b82525050565b61062461061f8261070a565b610726565b82525050565b600061063682856105de565b6001820191506106468284610613565b6020820191508190509392505050565b600060208201905061066b60008301846105c0565b92915050565b600060208201905061068660008301846105cf565b92915050565b60006020820190506106a160008301846105f5565b92915050565b60006020820190506106bc6000830184610604565b92915050565b60006106cd826106ea565b9050919050565b60008115159050919050565b6000819050919050565b600073ffffffffffffffffffffffffffffffffffffffff82169050919050565b6000819050919050565b600061071f82610730565b9050919050565b6000819050919050565b600061073b82610747565b9050919050565b600080fd5b60008160f81b9050919050565b61075d816106d4565b811461076857600080fd5b50565b6107748161070a565b811461077f57600080fd5b5056fea26469706673582212201c311ee823762d0d86f8e345326fab8df912ad958377e3a05b7ddb494ffa09ea64736f6c63430008070033",
					"opcodes": "PUSH1 0x80 PUSH1 0x40 MSTORE PUSH1 0x40 MLOAD PUSH2 0x995 CODESIZE SUB DUP1 PUSH2 0x995 DUP4 CODECOPY DUP2 DUP2 ADD PUSH1 0x40 MSTORE DUP2 ADD SWAP1 PUSH2 0x25 SWAP2 SWAP1 PUSH2 0xAE JUMP JUMPDEST CALLER PUSH1 0x0 DUP1 PUSH2 0x100 EXP DUP2 SLOAD DUP2 PUSH20 0xFFFFFFFFFFFFFFFFFFFFFFFFFFFFFFFFFFFFFFFF MUL NOT AND SWAP1 DUP4 PUSH20 0xFFFFFFFFFFFFFFFFFFFFFFFFFFFFFFFFFFFFFFFF AND MUL OR SWAP1 SSTORE POP DUP1 PUSH1 0x2 DUP2 SWAP1 SSTORE POP PUSH1 0x2 CALLVALUE PUSH2 0x79 SWAP2 SWAP1 PUSH2 0xDB JUMP JUMPDEST PUSH1 0x4 DUP2 SWAP1 SSTORE POP PUSH1 0x4 SLOAD CALLVALUE PUSH2 0x8D SWAP2 SWAP1 PUSH2 0x10C JUMP JUMPDEST PUSH1 0x5 DUP2 SWAP1 SSTORE POP POP PUSH2 0x1CE JUMP JUMPDEST PUSH1 0x0 DUP2 MLOAD SWAP1 POP PUSH2 0xA8 DUP2 PUSH2 0x1B7 JUMP JUMPDEST SWAP3 SWAP2 POP POP JUMP JUMPDEST PUSH1 0x0 PUSH1 0x20 DUP3 DUP5 SUB SLT ISZERO PUSH2 0xC4 JUMPI PUSH2 0xC3 PUSH2 0x1B2 JUMP JUMPDEST JUMPDEST PUSH1 0x0 PUSH2 0xD2 DUP5 DUP3 DUP6 ADD PUSH2 0x99 JUMP JUMPDEST SWAP2 POP POP SWAP3 SWAP2 POP POP JUMP JUMPDEST PUSH1 0x0 PUSH2 0xE6 DUP3 PUSH2 0x14A JUMP JUMPDEST SWAP2 POP PUSH2 0xF1 DUP4 PUSH2 0x14A JUMP JUMPDEST SWAP3 POP DUP3 PUSH2 0x101 JUMPI PUSH2 0x100 PUSH2 0x183 JUMP JUMPDEST JUMPDEST DUP3 DUP3 DIV SWAP1 POP SWAP3 SWAP2 POP POP JUMP JUMPDEST PUSH1 0x0 PUSH2 0x117 DUP3 PUSH2 0x14A JUMP JUMPDEST SWAP2 POP PUSH2 0x122 DUP4 PUSH2 0x14A JUMP JUMPDEST SWAP3 POP DUP3 DUP3 LT ISZERO PUSH2 0x135 JUMPI PUSH2 0x134 PUSH2 0x154 JUMP JUMPDEST JUMPDEST DUP3 DUP3 SUB SWAP1 POP SWAP3 SWAP2 POP POP JUMP JUMPDEST PUSH1 0x0 DUP2 SWAP1 POP SWAP2 SWAP1 POP JUMP JUMPDEST PUSH1 0x0 DUP2 SWAP1 POP SWAP2 SWAP1 POP JUMP JUMPDEST PUSH32 0x4E487B7100000000000000000000000000000000000000000000000000000000 PUSH1 0x0 MSTORE PUSH1 0x11 PUSH1 0x4 MSTORE PUSH1 0x24 PUSH1 0x0 REVERT JUMPDEST PUSH32 0x4E487B7100000000000000000000000000000000000000000000000000000000 PUSH1 0x0 MSTORE PUSH1 0x12 PUSH1 0x4 MSTORE PUSH1 0x24 PUSH1 0x0 REVERT JUMPDEST PUSH1 0x0 DUP1 REVERT JUMPDEST PUSH2 0x1C0 DUP2 PUSH2 0x140 JUMP JUMPDEST DUP2 EQ PUSH2 0x1CB JUMPI PUSH1 0x0 DUP1 REVERT JUMPDEST POP JUMP JUMPDEST PUSH2 0x7B8 DUP1 PUSH2 0x1DD PUSH1 0x0 CODECOPY PUSH1 0x0 RETURN INVALID PUSH1 0x80 PUSH1 0x40 MSTORE PUSH1 0x4 CALLDATASIZE LT PUSH2 0x86 JUMPI PUSH1 0x0 CALLDATALOAD PUSH1 0xE0 SHR DUP1 PUSH4 0xD24257C0 GT PUSH2 0x59 JUMPI DUP1 PUSH4 0xD24257C0 EQ PUSH2 0x137 JUMPI DUP1 PUSH4 0xD30895E4 EQ PUSH2 0x162 JUMPI DUP1 PUSH4 0xD82EAD64 EQ PUSH2 0x18D JUMPI DUP1 PUSH4 0xDE32E357 EQ PUSH2 0x1B6 JUMPI DUP1 PUSH4 0xEB13175D EQ PUSH2 0x1D2 JUMPI PUSH2 0x86 JUMP JUMPDEST DUP1 PUSH4 0xCE6E680 EQ PUSH2 0x8B JUMPI DUP1 PUSH4 0x1B99B468 EQ PUSH2 0xB6 JUMPI DUP1 PUSH4 0x59A5F12D EQ PUSH2 0xE1 JUMPI DUP1 PUSH4 0x603F5088 EQ PUSH2 0x10C JUMPI JUMPDEST PUSH1 0x0 DUP1 REVERT JUMPDEST CALLVALUE DUP1 ISZERO PUSH2 0x97 JUMPI PUSH1 0x0 DUP1 REVERT JUMPDEST POP PUSH2 0xA0 PUSH2 0x1FD JUMP JUMPDEST PUSH1 0x40 MLOAD PUSH2 0xAD SWAP2 SWAP1 PUSH2 0x671 JUMP JUMPDEST PUSH1 0x40 MLOAD DUP1 SWAP2 SUB SWAP1 RETURN JUMPDEST CALLVALUE DUP1 ISZERO PUSH2 0xC2 JUMPI PUSH1 0x0 DUP1 REVERT JUMPDEST POP PUSH2 0xCB PUSH2 0x210 JUMP JUMPDEST PUSH1 0x40 MLOAD PUSH2 0xD8 SWAP2 SWAP1 PUSH2 0x6A7 JUMP JUMPDEST PUSH1 0x40 MLOAD DUP1 SWAP2 SUB SWAP1 RETURN JUMPDEST CALLVALUE DUP1 ISZERO PUSH2 0xED JUMPI PUSH1 0x0 DUP1 REVERT JUMPDEST POP PUSH2 0xF6 PUSH2 0x216 JUMP JUMPDEST PUSH1 0x40 MLOAD PUSH2 0x103 SWAP2 SWAP1 PUSH2 0x656 JUMP JUMPDEST PUSH1 0x40 MLOAD DUP1 SWAP2 SUB SWAP1 RETURN JUMPDEST CALLVALUE DUP1 ISZERO PUSH2 0x118 JUMPI PUSH1 0x0 DUP1 REVERT JUMPDEST POP PUSH2 0x121 PUSH2 0x23C JUMP JUMPDEST PUSH1 0x40 MLOAD PUSH2 0x12E SWAP2 SWAP1 PUSH2 0x68C JUMP JUMPDEST PUSH1 0x40 MLOAD DUP1 SWAP2 SUB SWAP1 RETURN JUMPDEST CALLVALUE DUP1 ISZERO PUSH2 0x143 JUMPI PUSH1 0x0 DUP1 REVERT JUMPDEST POP PUSH2 0x14C PUSH2 0x242 JUMP JUMPDEST PUSH1 0x40 MLOAD PUSH2 0x159 SWAP2 SWAP1 PUSH2 0x6A7 JUMP JUMPDEST PUSH1 0x40 MLOAD DUP1 SWAP2 SUB SWAP1 RETURN JUMPDEST CALLVALUE DUP1 ISZERO PUSH2 0x16E JUMPI PUSH1 0x0 DUP1 REVERT JUMPDEST POP PUSH2 0x177 PUSH2 0x248 JUMP JUMPDEST PUSH1 0x40 MLOAD PUSH2 0x184 SWAP2 SWAP1 PUSH2 0x656 JUMP JUMPDEST PUSH1 0x40 MLOAD DUP1 SWAP2 SUB SWAP1 RETURN JUMPDEST CALLVALUE DUP1 ISZERO PUSH2 0x199 JUMPI PUSH1 0x0 DUP1 REVERT JUMPDEST POP PUSH2 0x1B4 PUSH1 0x4 DUP1 CALLDATASIZE SUB DUP2 ADD SWAP1 PUSH2 0x1AF SWAP2 SWAP1 PUSH2 0x580 JUMP JUMPDEST PUSH2 0x26C JUMP JUMPDEST STOP JUMPDEST PUSH2 0x1D0 PUSH1 0x4 DUP1 CALLDATASIZE SUB DUP2 ADD SWAP1 PUSH2 0x1CB SWAP2 SWAP1 PUSH2 0x553 JUMP JUMPDEST PUSH2 0x45C JUMP JUMPDEST STOP JUMPDEST CALLVALUE DUP1 ISZERO PUSH2 0x1DE JUMPI PUSH1 0x0 DUP1 REVERT JUMPDEST POP PUSH2 0x1E7 PUSH2 0x523 JUMP JUMPDEST PUSH1 0x40 MLOAD PUSH2 0x1F4 SWAP2 SWAP1 PUSH2 0x68C JUMP JUMPDEST PUSH1 0x40 MLOAD DUP1 SWAP2 SUB SWAP1 RETURN JUMPDEST PUSH1 0x6 PUSH1 0x0 SWAP1 SLOAD SWAP1 PUSH2 0x100 EXP SWAP1 DIV PUSH1 0xFF AND DUP2 JUMP JUMPDEST PUSH1 0x5 SLOAD DUP2 JUMP JUMPDEST PUSH1 0x1 PUSH1 0x0 SWAP1 SLOAD SWAP1 PUSH2 0x100 EXP SWAP1 DIV PUSH20 0xFFFFFFFFFFFFFFFFFFFFFFFFFFFFFFFFFFFFFFFF AND DUP2 JUMP JUMPDEST PUSH1 0x3 SLOAD DUP2 JUMP JUMPDEST PUSH1 0x4 SLOAD DUP2 JUMP JUMPDEST PUSH1 0x0 DUP1 SLOAD SWAP1 PUSH2 0x100 EXP SWAP1 DIV PUSH20 0xFFFFFFFFFFFFFFFFFFFFFFFFFFFFFFFFFFFFFFFF AND DUP2 JUMP JUMPDEST PUSH1 0x0 PUSH20 0xFFFFFFFFFFFFFFFFFFFFFFFFFFFFFFFFFFFFFFFF AND PUSH1 0x1 PUSH1 0x0 SWAP1 SLOAD SWAP1 PUSH2 0x100 EXP SWAP1 DIV PUSH20 0xFFFFFFFFFFFFFFFFFFFFFFFFFFFFFFFFFFFFFFFF AND PUSH20 0xFFFFFFFFFFFFFFFFFFFFFFFFFFFFFFFFFFFFFFFF AND EQ ISZERO PUSH2 0x2C8 JUMPI PUSH1 0x0 DUP1 REVERT JUMPDEST PUSH1 0x2 SLOAD DUP3 DUP3 PUSH1 0x40 MLOAD PUSH1 0x20 ADD PUSH2 0x2DE SWAP3 SWAP2 SWAP1 PUSH2 0x62A JUMP JUMPDEST PUSH1 0x40 MLOAD PUSH1 0x20 DUP2 DUP4 SUB SUB DUP2 MSTORE SWAP1 PUSH1 0x40 MSTORE DUP1 MLOAD SWAP1 PUSH1 0x20 ADD KECCAK256 EQ PUSH2 0x2FE JUMPI PUSH1 0x0 DUP1 REVERT JUMPDEST DUP2 ISZERO ISZERO PUSH1 0x6 PUSH1 0x0 SWAP1 SLOAD SWAP1 PUSH2 0x100 EXP SWAP1 DIV PUSH1 0xFF AND ISZERO ISZERO EQ ISZERO PUSH2 0x3F0 JUMPI PUSH1 0x0 DUP1 SLOAD SWAP1 PUSH2 0x100 EXP SWAP1 DIV PUSH20 0xFFFFFFFFFFFFFFFFFFFFFFFFFFFFFFFFFFFFFFFF AND PUSH20 0xFFFFFFFFFFFFFFFFFFFFFFFFFFFFFFFFFFFFFFFF AND PUSH2 0x8FC PUSH1 0x5 SLOAD SWAP1 DUP2 ISZERO MUL SWAP1 PUSH1 0x40 MLOAD PUSH1 0x0 PUSH1 0x40 MLOAD DUP1 DUP4 SUB DUP2 DUP6 DUP9 DUP9 CALL SWAP4 POP POP POP POP ISZERO DUP1 ISZERO PUSH2 0x381 JUMPI RETURNDATASIZE PUSH1 0x0 DUP1 RETURNDATACOPY RETURNDATASIZE PUSH1 0x0 REVERT JUMPDEST POP PUSH1 0x1 PUSH1 0x0 SWAP1 SLOAD SWAP1 PUSH2 0x100 EXP SWAP1 DIV PUSH20 0xFFFFFFFFFFFFFFFFFFFFFFFFFFFFFFFFFFFFFFFF AND PUSH20 0xFFFFFFFFFFFFFFFFFFFFFFFFFFFFFFFFFFFFFFFF AND PUSH2 0x8FC SELFBALANCE SWAP1 DUP2 ISZERO MUL SWAP1 PUSH1 0x40 MLOAD PUSH1 0x0 PUSH1 0x40 MLOAD DUP1 DUP4 SUB DUP2 DUP6 DUP9 DUP9 CALL SWAP4 POP POP POP POP ISZERO DUP1 ISZERO PUSH2 0x3EA JUMPI RETURNDATASIZE PUSH1 0x0 DUP1 RETURNDATACOPY RETURNDATASIZE PUSH1 0x0 REVERT JUMPDEST POP PUSH2 0x458 JUMP JUMPDEST PUSH1 0x0 DUP1 SLOAD SWAP1 PUSH2 0x100 EXP SWAP1 DIV PUSH20 0xFFFFFFFFFFFFFFFFFFFFFFFFFFFFFFFFFFFFFFFF AND PUSH20 0xFFFFFFFFFFFFFFFFFFFFFFFFFFFFFFFFFFFFFFFF AND PUSH2 0x8FC SELFBALANCE SWAP1 DUP2 ISZERO MUL SWAP1 PUSH1 0x40 MLOAD PUSH1 0x0 PUSH1 0x40 MLOAD DUP1 DUP4 SUB DUP2 DUP6 DUP9 DUP9 CALL SWAP4 POP POP POP POP ISZERO DUP1 ISZERO PUSH2 0x456 JUMPI RETURNDATASIZE PUSH1 0x0 DUP1 RETURNDATACOPY RETURNDATASIZE PUSH1 0x0 REVERT JUMPDEST POP JUMPDEST POP POP JUMP JUMPDEST PUSH1 0x0 PUSH20 0xFFFFFFFFFFFFFFFFFFFFFFFFFFFFFFFFFFFFFFFF AND PUSH1 0x1 PUSH1 0x0 SWAP1 SLOAD SWAP1 PUSH2 0x100 EXP SWAP1 DIV PUSH20 0xFFFFFFFFFFFFFFFFFFFFFFFFFFFFFFFFFFFFFFFF AND PUSH20 0xFFFFFFFFFFFFFFFFFFFFFFFFFFFFFFFFFFFFFFFF AND EQ PUSH2 0x4B7 JUMPI PUSH1 0x0 DUP1 REVERT JUMPDEST PUSH1 0x4 SLOAD CALLVALUE EQ PUSH2 0x4C5 JUMPI PUSH1 0x0 DUP1 REVERT JUMPDEST CALLER PUSH1 0x1 PUSH1 0x0 PUSH2 0x100 EXP DUP2 SLOAD DUP2 PUSH20 0xFFFFFFFFFFFFFFFFFFFFFFFFFFFFFFFFFFFFFFFF MUL NOT AND SWAP1 DUP4 PUSH20 0xFFFFFFFFFFFFFFFFFFFFFFFFFFFFFFFFFFFFFFFF AND MUL OR SWAP1 SSTORE POP DUP1 PUSH1 0x6 PUSH1 0x0 PUSH2 0x100 EXP DUP2 SLOAD DUP2 PUSH1 0xFF MUL NOT AND SWAP1 DUP4 ISZERO ISZERO MUL OR SWAP1 SSTORE POP POP JUMP JUMPDEST PUSH1 0x2 SLOAD DUP2 JUMP JUMPDEST PUSH1 0x0 DUP2 CALLDATALOAD SWAP1 POP PUSH2 0x538 DUP2 PUSH2 0x754 JUMP JUMPDEST SWAP3 SWAP2 POP POP JUMP JUMPDEST PUSH1 0x0 DUP2 CALLDATALOAD SWAP1 POP PUSH2 0x54D DUP2 PUSH2 0x76B JUMP JUMPDEST SWAP3 SWAP2 POP POP JUMP JUMPDEST PUSH1 0x0 PUSH1 0x20 DUP3 DUP5 SUB SLT ISZERO PUSH2 0x569 JUMPI PUSH2 0x568 PUSH2 0x742 JUMP JUMPDEST JUMPDEST PUSH1 0x0 PUSH2 0x577 DUP5 DUP3 DUP6 ADD PUSH2 0x529 JUMP JUMPDEST SWAP2 POP POP SWAP3 SWAP2 POP POP JUMP JUMPDEST PUSH1 0x0 DUP1 PUSH1 0x40 DUP4 DUP6 SUB SLT ISZERO PUSH2 0x597 JUMPI PUSH2 0x596 PUSH2 0x742 JUMP JUMPDEST JUMPDEST PUSH1 0x0 PUSH2 0x5A5 DUP6 DUP3 DUP7 ADD PUSH2 0x529 JUMP JUMPDEST SWAP3 POP POP PUSH1 0x20 PUSH2 0x5B6 DUP6 DUP3 DUP7 ADD PUSH2 0x53E JUMP JUMPDEST SWAP2 POP POP SWAP3 POP SWAP3 SWAP1 POP JUMP JUMPDEST PUSH2 0x5C9 DUP2 PUSH2 0x6C2 JUMP JUMPDEST DUP3 MSTORE POP POP JUMP JUMPDEST PUSH2 0x5D8 DUP2 PUSH2 0x6D4 JUMP JUMPDEST DUP3 MSTORE POP POP JUMP JUMPDEST PUSH2 0x5EF PUSH2 0x5EA DUP3 PUSH2 0x6D4 JUMP JUMPDEST PUSH2 0x714 JUMP JUMPDEST DUP3 MSTORE POP POP JUMP JUMPDEST PUSH2 0x5FE DUP2 PUSH2 0x6E0 JUMP JUMPDEST DUP3 MSTORE POP POP JUMP JUMPDEST PUSH2 0x60D DUP2 PUSH2 0x70A JUMP JUMPDEST DUP3 MSTORE POP POP JUMP JUMPDEST PUSH2 0x624 PUSH2 0x61F DUP3 PUSH2 0x70A JUMP JUMPDEST PUSH2 0x726 JUMP JUMPDEST DUP3 MSTORE POP POP JUMP JUMPDEST PUSH1 0x0 PUSH2 0x636 DUP3 DUP6 PUSH2 0x5DE JUMP JUMPDEST PUSH1 0x1 DUP3 ADD SWAP2 POP PUSH2 0x646 DUP3 DUP5 PUSH2 0x613 JUMP JUMPDEST PUSH1 0x20 DUP3 ADD SWAP2 POP DUP2 SWAP1 POP SWAP4 SWAP3 POP POP POP JUMP JUMPDEST PUSH1 0x0 PUSH1 0x20 DUP3 ADD SWAP1 POP PUSH2 0x66B PUSH1 0x0 DUP4 ADD DUP5 PUSH2 0x5C0 JUMP JUMPDEST SWAP3 SWAP2 POP POP JUMP JUMPDEST PUSH1 0x0 PUSH1 0x20 DUP3 ADD SWAP1 POP PUSH2 0x686 PUSH1 0x0 DUP4 ADD DUP5 PUSH2 0x5CF JUMP JUMPDEST SWAP3 SWAP2 POP POP JUMP JUMPDEST PUSH1 0x0 PUSH1 0x20 DUP3 ADD SWAP1 POP PUSH2 0x6A1 PUSH1 0x0 DUP4 ADD DUP5 PUSH2 0x5F5 JUMP JUMPDEST SWAP3 SWAP2 POP POP JUMP JUMPDEST PUSH1 0x0 PUSH1 0x20 DUP3 ADD SWAP1 POP PUSH2 0x6BC PUSH1 0x0 DUP4 ADD DUP5 PUSH2 0x604 JUMP JUMPDEST SWAP3 SWAP2 POP POP JUMP JUMPDEST PUSH1 0x0 PUSH2 0x6CD DUP3 PUSH2 0x6EA JUMP JUMPDEST SWAP1 POP SWAP2 SWAP1 POP JUMP JUMPDEST PUSH1 0x0 DUP2 ISZERO ISZERO SWAP1 POP SWAP2 SWAP1 POP JUMP JUMPDEST PUSH1 0x0 DUP2 SWAP1 POP SWAP2 SWAP1 POP JUMP JUMPDEST PUSH1 0x0 PUSH20 0xFFFFFFFFFFFFFFFFFFFFFFFFFFFFFFFFFFFFFFFF DUP3 AND SWAP1 POP SWAP2 SWAP1 POP JUMP JUMPDEST PUSH1 0x0 DUP2 SWAP1 POP SWAP2 SWAP1 POP JUMP JUMPDEST PUSH1 0x0 PUSH2 0x71F DUP3 PUSH2 0x730 JUMP JUMPDEST SWAP1 POP SWAP2 SWAP1 POP JUMP JUMPDEST PUSH1 0x0 DUP2 SWAP1 POP SWAP2 SWAP1 POP JUMP JUMPDEST PUSH1 0x0 PUSH2 0x73B DUP3 PUSH2 0x747 JUMP JUMPDEST SWAP1 POP SWAP2 SWAP1 POP JUMP JUMPDEST PUSH1 0x0 DUP1 REVERT JUMPDEST PUSH1 0x0 DUP2 PUSH1 0xF8 SHL SWAP1 POP SWAP2 SWAP1 POP JUMP JUMPDEST PUSH2 0x75D DUP2 PUSH2 0x6D4 JUMP JUMPDEST DUP2 EQ PUSH2 0x768 JUMPI PUSH1 0x0 DUP1 REVERT JUMPDEST POP JUMP JUMPDEST PUSH2 0x774 DUP2 PUSH2 0x70A JUMP JUMPDEST DUP2 EQ PUSH2 0x77F JUMPI PUSH1 0x0 DUP1 REVERT JUMPDEST POP JUMP INVALID LOG2 PUSH5 0x6970667358 0x22 SLT KECCAK256 SHR BALANCE 0x1E 0xE8 0x23 PUSH23 0x2D0D86F8E345326FAB8DF912AD958377E3A05B7DDB494F STATICCALL MULMOD 0xEA PUSH5 0x736F6C6343 STOP ADDMOD SMOD STOP CALLER "
				},
				"gasEstimates": {
					"creation": {
						"codeDepositCost": "395200",
						"executionCost": "infinite",
						"totalCost": "infinite"
					},
					"external": {
						"Reveal(bool,uint256)": "infinite",
						"TakeBet(bool)": "53280",
						"betAmount()": "2429",
						"earnestAmount()": "2452",
						"player1()": "2533",
						"player1Commitment()": "2517",
						"player2()": "2559",
						"player2Choice()": "2472",
						"player2Commitment()": "2496"
					}
				},
				"methodIdentifiers": {
					"Reveal(bool,uint256)": "d82ead64",
					"TakeBet(bool)": "de32e357",
					"betAmount()": "d24257c0",
					"earnestAmount()": "1b99b468",
					"player1()": "d30895e4",
					"player1Commitment()": "eb13175d",
					"player2()": "59a5f12d",
					"player2Choice()": "0ce6e680",
					"player2Commitment()": "603f5088"
				}
			},
			"storageLayout": {
				"storage": [
					{
						"astId": 3,
						"contract": "contracts/Coin2.sol:CoinFlip",
						"label": "player1",
						"offset": 0,
						"slot": "0",
						"type": "t_address_payable"
					},
					{
						"astId": 5,
						"contract": "contracts/Coin2.sol:CoinFlip",
						"label": "player2",
						"offset": 0,
						"slot": "1",
						"type": "t_address_payable"
					},
					{
						"astId": 7,
						"contract": "contracts/Coin2.sol:CoinFlip",
						"label": "player1Commitment",
						"offset": 0,
						"slot": "2",
						"type": "t_bytes32"
					},
					{
						"astId": 9,
						"contract": "contracts/Coin2.sol:CoinFlip",
						"label": "player2Commitment",
						"offset": 0,
						"slot": "3",
						"type": "t_bytes32"
					},
					{
						"astId": 11,
						"contract": "contracts/Coin2.sol:CoinFlip",
						"label": "betAmount",
						"offset": 0,
						"slot": "4",
						"type": "t_uint256"
					},
					{
						"astId": 13,
						"contract": "contracts/Coin2.sol:CoinFlip",
						"label": "earnestAmount",
						"offset": 0,
						"slot": "5",
						"type": "t_uint256"
					},
					{
						"astId": 15,
						"contract": "contracts/Coin2.sol:CoinFlip",
						"label": "player2Choice",
						"offset": 0,
						"slot": "6",
						"type": "t_bool"
					}
				],
				"types": {
					"t_address_payable": {
						"encoding": "inplace",
						"label": "address payable",
						"numberOfBytes": "20"
					},
					"t_bool": {
						"encoding": "inplace",
						"label": "bool",
						"numberOfBytes": "1"
					},
					"t_bytes32": {
						"encoding": "inplace",
						"label": "bytes32",
						"numberOfBytes": "32"
					},
					"t_uint256": {
						"encoding": "inplace",
						"label": "uint256",
						"numberOfBytes": "32"
					}
				}
			},
			"userdoc": {
				"kind": "user",
				"methods": {},
				"version": 1
			}
		}
	}
}