{
	"contracts/Coin2.sol": {
		"CoinFlip": {
			"abi": [
				{
					"inputs": [
						{
							"internalType": "bytes32",
							"name": "commitment",
							"type": "bytes32"
						}
					],
					"stateMutability": "payable",
					"type": "constructor"
				},
				{
					"inputs": [
						{
							"internalType": "bool",
							"name": "choice",
							"type": "bool"
						},
						{
							"internalType": "uint256",
							"name": "nonce",
							"type": "uint256"
						}
					],
					"name": "Reveal1",
					"outputs": [],
					"stateMutability": "nonpayable",
					"type": "function"
				},
				{
					"inputs": [
						{
							"internalType": "bool",
							"name": "choice",
							"type": "bool"
						},
						{
							"internalType": "uint256",
							"name": "nonce",
							"type": "uint256"
						}
					],
					"name": "Reveal2",
					"outputs": [],
					"stateMutability": "nonpayable",
					"type": "function"
				},
				{
					"inputs": [
						{
							"internalType": "bytes32",
							"name": "commitment",
							"type": "bytes32"
						}
					],
					"name": "TakeBet",
					"outputs": [],
					"stateMutability": "payable",
					"type": "function"
				},
				{
					"inputs": [],
					"name": "betAmount",
					"outputs": [
						{
							"internalType": "uint256",
							"name": "",
							"type": "uint256"
						}
					],
					"stateMutability": "view",
					"type": "function"
				},
				{
					"inputs": [],
					"name": "player1",
					"outputs": [
						{
							"internalType": "address payable",
							"name": "",
							"type": "address"
						}
					],
					"stateMutability": "view",
					"type": "function"
				},
				{
					"inputs": [],
					"name": "player1Choice",
					"outputs": [
						{
							"internalType": "bool",
							"name": "",
							"type": "bool"
						}
					],
					"stateMutability": "view",
					"type": "function"
				},
				{
					"inputs": [],
					"name": "player1Commitment",
					"outputs": [
						{
							"internalType": "bytes32",
							"name": "",
							"type": "bytes32"
						}
					],
					"stateMutability": "view",
					"type": "function"
				},
				{
					"inputs": [],
					"name": "player2",
					"outputs": [
						{
							"internalType": "address payable",
							"name": "",
							"type": "address"
						}
					],
					"stateMutability": "view",
					"type": "function"
				},
				{
					"inputs": [],
					"name": "player2Commitment",
					"outputs": [
						{
							"internalType": "bytes32",
							"name": "",
							"type": "bytes32"
						}
					],
					"stateMutability": "view",
					"type": "function"
				},
				{
					"inputs": [],
					"name": "revealed",
					"outputs": [
						{
							"internalType": "bool",
							"name": "",
							"type": "bool"
						}
					],
					"stateMutability": "view",
					"type": "function"
				}
			],
			"devdoc": {
				"kind": "dev",
				"methods": {},
				"version": 1
			},
			"evm": {
				"assembly": "    /* \"contracts/Coin2.sol\":62:1497  contract CoinFlip {\r... */\n  mstore(0x40, 0x80)\n    /* \"contracts/Coin2.sol\":337:525  constructor(bytes32 commitment) payable {\r... */\n  mload(0x40)\n  sub(codesize, bytecodeSize)\n  dup1\n  bytecodeSize\n  dup4\n  codecopy\n  dup2\n  dup2\n  add\n  0x40\n  mstore\n  dup2\n  add\n  swap1\n  tag_1\n  swap2\n  swap1\n  tag_2\n  jump\t// in\ntag_1:\n    /* \"contracts/Coin2.sol\":406:416  msg.sender */\n  caller\n    /* \"contracts/Coin2.sol\":388:395  player1 */\n  0x00\n  dup1\n    /* \"contracts/Coin2.sol\":388:417  player1 = payable(msg.sender) */\n  0x0100\n  exp\n  dup2\n  sload\n  dup2\n  0xffffffffffffffffffffffffffffffffffffffff\n  mul\n  not\n  and\n  swap1\n  dup4\n  0xffffffffffffffffffffffffffffffffffffffff\n  and\n  mul\n  or\n  swap1\n  sstore\n  pop\n    /* \"contracts/Coin2.sol\":448:458  commitment */\n  dup1\n    /* \"contracts/Coin2.sol\":428:445  player1Commitment */\n  0x02\n    /* \"contracts/Coin2.sol\":428:458  player1Commitment = commitment */\n  dup2\n  swap1\n  sstore\n  pop\n    /* \"contracts/Coin2.sol\":481:490  msg.value */\n  callvalue\n    /* \"contracts/Coin2.sol\":469:478  betAmount */\n  0x04\n    /* \"contracts/Coin2.sol\":469:490  betAmount = msg.value */\n  dup2\n  swap1\n  sstore\n  pop\n    /* \"contracts/Coin2.sol\":512:517  false */\n  0x00\n    /* \"contracts/Coin2.sol\":501:509  revealed */\n  0x05\n  0x01\n    /* \"contracts/Coin2.sol\":501:517  revealed = false */\n  0x0100\n  exp\n  dup2\n  sload\n  dup2\n  0xff\n  mul\n  not\n  and\n  swap1\n  dup4\n  iszero\n  iszero\n  mul\n  or\n  swap1\n  sstore\n  pop\n    /* \"contracts/Coin2.sol\":337:525  constructor(bytes32 commitment) payable {\r... */\n  pop\n    /* \"contracts/Coin2.sol\":62:1497  contract CoinFlip {\r... */\n  jump(tag_5)\n    /* \"#utility.yul\":7:150   */\ntag_7:\n    /* \"#utility.yul\":64:69   */\n  0x00\n    /* \"#utility.yul\":95:101   */\n  dup2\n    /* \"#utility.yul\":89:102   */\n  mload\n    /* \"#utility.yul\":80:102   */\n  swap1\n  pop\n    /* \"#utility.yul\":111:144   */\n  tag_9\n    /* \"#utility.yul\":138:143   */\n  dup2\n    /* \"#utility.yul\":111:144   */\n  tag_10\n  jump\t// in\ntag_9:\n    /* \"#utility.yul\":7:150   */\n  swap3\n  swap2\n  pop\n  pop\n  jump\t// out\n    /* \"#utility.yul\":156:507   */\ntag_2:\n    /* \"#utility.yul\":226:232   */\n  0x00\n    /* \"#utility.yul\":275:277   */\n  0x20\n    /* \"#utility.yul\":263:272   */\n  dup3\n    /* \"#utility.yul\":254:261   */\n  dup5\n    /* \"#utility.yul\":250:273   */\n  sub\n    /* \"#utility.yul\":246:278   */\n  slt\n    /* \"#utility.yul\":243:362   */\n  iszero\n  tag_12\n  jumpi\n    /* \"#utility.yul\":281:360   */\n  tag_13\n  tag_14\n  jump\t// in\ntag_13:\n    /* \"#utility.yul\":243:362   */\ntag_12:\n    /* \"#utility.yul\":401:402   */\n  0x00\n    /* \"#utility.yul\":426:490   */\n  tag_15\n    /* \"#utility.yul\":482:489   */\n  dup5\n    /* \"#utility.yul\":473:479   */\n  dup3\n    /* \"#utility.yul\":462:471   */\n  dup6\n    /* \"#utility.yul\":458:480   */\n  add\n    /* \"#utility.yul\":426:490   */\n  tag_7\n  jump\t// in\ntag_15:\n    /* \"#utility.yul\":416:490   */\n  swap2\n  pop\n    /* \"#utility.yul\":372:500   */\n  pop\n    /* \"#utility.yul\":156:507   */\n  swap3\n  swap2\n  pop\n  pop\n  jump\t// out\n    /* \"#utility.yul\":594:671   */\ntag_18:\n    /* \"#utility.yul\":631:638   */\n  0x00\n    /* \"#utility.yul\":660:665   */\n  dup2\n    /* \"#utility.yul\":649:665   */\n  swap1\n  pop\n    /* \"#utility.yul\":594:671   */\n  swap2\n  swap1\n  pop\n  jump\t// out\n    /* \"#utility.yul\":800:917   */\ntag_14:\n    /* \"#utility.yul\":909:910   */\n  0x00\n    /* \"#utility.yul\":906:907   */\n  dup1\n    /* \"#utility.yul\":899:911   */\n  revert\n    /* \"#utility.yul\":923:1045   */\ntag_10:\n    /* \"#utility.yul\":996:1020   */\n  tag_24\n    /* \"#utility.yul\":1014:1019   */\n  dup2\n    /* \"#utility.yul\":996:1020   */\n  tag_18\n  jump\t// in\ntag_24:\n    /* \"#utility.yul\":989:994   */\n  dup2\n    /* \"#utility.yul\":986:1021   */\n  eq\n    /* \"#utility.yul\":976:1039   */\n  tag_25\n  jumpi\n    /* \"#utility.yul\":1035:1036   */\n  0x00\n    /* \"#utility.yul\":1032:1033   */\n  dup1\n    /* \"#utility.yul\":1025:1037   */\n  revert\n    /* \"#utility.yul\":976:1039   */\ntag_25:\n    /* \"#utility.yul\":923:1045   */\n  pop\n  jump\t// out\n    /* \"contracts/Coin2.sol\":62:1497  contract CoinFlip {\r... */\ntag_5:\n  dataSize(sub_0)\n  dup1\n  dataOffset(sub_0)\n  0x00\n  codecopy\n  0x00\n  return\nstop\n\nsub_0: assembly {\n        /* \"contracts/Coin2.sol\":62:1497  contract CoinFlip {\r... */\n      mstore(0x40, 0x80)\n      jumpi(tag_1, lt(calldatasize, 0x04))\n      shr(0xe0, calldataload(0x00))\n      dup1\n      0xcf7c3708\n      gt\n      tag_12\n      jumpi\n      dup1\n      0xcf7c3708\n      eq\n      tag_7\n      jumpi\n      dup1\n      0xd24257c0\n      eq\n      tag_8\n      jumpi\n      dup1\n      0xd30895e4\n      eq\n      tag_9\n      jumpi\n      dup1\n      0xd8b1f219\n      eq\n      tag_10\n      jumpi\n      dup1\n      0xeb13175d\n      eq\n      tag_11\n      jumpi\n      jump(tag_1)\n    tag_12:\n      dup1\n      0x2c0f9aaa\n      eq\n      tag_2\n      jumpi\n      dup1\n      0x51830227\n      eq\n      tag_3\n      jumpi\n      dup1\n      0x59a5f12d\n      eq\n      tag_4\n      jumpi\n      dup1\n      0x603f5088\n      eq\n      tag_5\n      jumpi\n      dup1\n      0xb422de9d\n      eq\n      tag_6\n      jumpi\n    tag_1:\n      0x00\n      dup1\n      revert\n        /* \"contracts/Coin2.sol\":1103:1494  function Reveal2(bool choice, uint256 nonce) public {\r... */\n    tag_2:\n      callvalue\n      dup1\n      iszero\n      tag_13\n      jumpi\n      0x00\n      dup1\n      revert\n    tag_13:\n      pop\n      tag_14\n      0x04\n      dup1\n      calldatasize\n      sub\n      dup2\n      add\n      swap1\n      tag_15\n      swap2\n      swap1\n      tag_16\n      jump\t// in\n    tag_15:\n      tag_17\n      jump\t// in\n    tag_14:\n      stop\n        /* \"contracts/Coin2.sol\":308:328  bool public revealed */\n    tag_3:\n      callvalue\n      dup1\n      iszero\n      tag_18\n      jumpi\n      0x00\n      dup1\n      revert\n    tag_18:\n      pop\n      tag_19\n      tag_20\n      jump\t// in\n    tag_19:\n      mload(0x40)\n      tag_21\n      swap2\n      swap1\n      tag_22\n      jump\t// in\n    tag_21:\n      mload(0x40)\n      dup1\n      swap2\n      sub\n      swap1\n      return\n        /* \"contracts/Coin2.sol\":124:154  address payable public player2 */\n    tag_4:\n      callvalue\n      dup1\n      iszero\n      tag_23\n      jumpi\n      0x00\n      dup1\n      revert\n    tag_23:\n      pop\n      tag_24\n      tag_25\n      jump\t// in\n    tag_24:\n      mload(0x40)\n      tag_26\n      swap2\n      swap1\n      tag_27\n      jump\t// in\n    tag_26:\n      mload(0x40)\n      dup1\n      swap2\n      sub\n      swap1\n      return\n        /* \"contracts/Coin2.sol\":202:234  bytes32 public player2Commitment */\n    tag_5:\n      callvalue\n      dup1\n      iszero\n      tag_28\n      jumpi\n      0x00\n      dup1\n      revert\n    tag_28:\n      pop\n      tag_29\n      tag_30\n      jump\t// in\n    tag_29:\n      mload(0x40)\n      tag_31\n      swap2\n      swap1\n      tag_32\n      jump\t// in\n    tag_31:\n      mload(0x40)\n      dup1\n      swap2\n      sub\n      swap1\n      return\n        /* \"contracts/Coin2.sol\":533:759  function TakeBet(bytes32 commitment) public payable {\r... */\n    tag_6:\n      tag_33\n      0x04\n      dup1\n      calldatasize\n      sub\n      dup2\n      add\n      swap1\n      tag_34\n      swap2\n      swap1\n      tag_35\n      jump\t// in\n    tag_34:\n      tag_36\n      jump\t// in\n    tag_33:\n      stop\n        /* \"contracts/Coin2.sol\":767:1095  function Reveal1(bool choice, uint256 nonce) public {\r... */\n    tag_7:\n      callvalue\n      dup1\n      iszero\n      tag_37\n      jumpi\n      0x00\n      dup1\n      revert\n    tag_37:\n      pop\n      tag_38\n      0x04\n      dup1\n      calldatasize\n      sub\n      dup2\n      add\n      swap1\n      tag_39\n      swap2\n      swap1\n      tag_16\n      jump\t// in\n    tag_39:\n      tag_40\n      jump\t// in\n    tag_38:\n      stop\n        /* \"contracts/Coin2.sol\":243:267  uint256 public betAmount */\n    tag_8:\n      callvalue\n      dup1\n      iszero\n      tag_41\n      jumpi\n      0x00\n      dup1\n      revert\n    tag_41:\n      pop\n      tag_42\n      tag_43\n      jump\t// in\n    tag_42:\n      mload(0x40)\n      tag_44\n      swap2\n      swap1\n      tag_45\n      jump\t// in\n    tag_44:\n      mload(0x40)\n      dup1\n      swap2\n      sub\n      swap1\n      return\n        /* \"contracts/Coin2.sol\":87:117  address payable public player1 */\n    tag_9:\n      callvalue\n      dup1\n      iszero\n      tag_46\n      jumpi\n      0x00\n      dup1\n      revert\n    tag_46:\n      pop\n      tag_47\n      tag_48\n      jump\t// in\n    tag_47:\n      mload(0x40)\n      tag_49\n      swap2\n      swap1\n      tag_27\n      jump\t// in\n    tag_49:\n      mload(0x40)\n      dup1\n      swap2\n      sub\n      swap1\n      return\n        /* \"contracts/Coin2.sol\":276:301  bool public player1Choice */\n    tag_10:\n      callvalue\n      dup1\n      iszero\n      tag_50\n      jumpi\n      0x00\n      dup1\n      revert\n    tag_50:\n      pop\n      tag_51\n      tag_52\n      jump\t// in\n    tag_51:\n      mload(0x40)\n      tag_53\n      swap2\n      swap1\n      tag_22\n      jump\t// in\n    tag_53:\n      mload(0x40)\n      dup1\n      swap2\n      sub\n      swap1\n      return\n        /* \"contracts/Coin2.sol\":163:195  bytes32 public player1Commitment */\n    tag_11:\n      callvalue\n      dup1\n      iszero\n      tag_54\n      jumpi\n      0x00\n      dup1\n      revert\n    tag_54:\n      pop\n      tag_55\n      tag_56\n      jump\t// in\n    tag_55:\n      mload(0x40)\n      tag_57\n      swap2\n      swap1\n      tag_32\n      jump\t// in\n    tag_57:\n      mload(0x40)\n      dup1\n      swap2\n      sub\n      swap1\n      return\n        /* \"contracts/Coin2.sol\":1103:1494  function Reveal2(bool choice, uint256 nonce) public {\r... */\n    tag_17:\n        /* \"contracts/Coin2.sol\":1193:1194  0 */\n      0x00\n        /* \"contracts/Coin2.sol\":1174:1195  player2 != address(0) */\n      0xffffffffffffffffffffffffffffffffffffffff\n      and\n        /* \"contracts/Coin2.sol\":1174:1181  player2 */\n      0x01\n      0x00\n      swap1\n      sload\n      swap1\n      0x0100\n      exp\n      swap1\n      div\n      0xffffffffffffffffffffffffffffffffffffffff\n      and\n        /* \"contracts/Coin2.sol\":1174:1195  player2 != address(0) */\n      0xffffffffffffffffffffffffffffffffffffffff\n      and\n      eq\n      iszero\n        /* \"contracts/Coin2.sol\":1166:1196  require(player2 != address(0)) */\n      tag_59\n      jumpi\n      0x00\n      dup1\n      revert\n    tag_59:\n        /* \"contracts/Coin2.sol\":1215:1223  revealed */\n      0x05\n      0x01\n      swap1\n      sload\n      swap1\n      0x0100\n      exp\n      swap1\n      div\n      0xff\n      and\n        /* \"contracts/Coin2.sol\":1207:1224  require(revealed) */\n      tag_60\n      jumpi\n      0x00\n      dup1\n      revert\n    tag_60:\n        /* \"contracts/Coin2.sol\":1289:1306  player2Commitment */\n      sload(0x03)\n        /* \"contracts/Coin2.sol\":1270:1276  choice */\n      dup3\n        /* \"contracts/Coin2.sol\":1278:1283  nonce */\n      dup3\n        /* \"contracts/Coin2.sol\":1253:1284  abi.encodePacked(choice, nonce) */\n      add(0x20, mload(0x40))\n      tag_61\n      swap3\n      swap2\n      swap1\n      tag_62\n      jump\t// in\n    tag_61:\n      mload(0x40)\n      0x20\n      dup2\n      dup4\n      sub\n      sub\n      dup2\n      mstore\n      swap1\n      0x40\n      mstore\n        /* \"contracts/Coin2.sol\":1243:1285  keccak256(abi.encodePacked(choice, nonce)) */\n      dup1\n      mload\n      swap1\n      0x20\n      add\n      keccak256\n        /* \"contracts/Coin2.sol\":1243:1306  keccak256(abi.encodePacked(choice, nonce)) == player2Commitment */\n      eq\n        /* \"contracts/Coin2.sol\":1235:1307  require(keccak256(abi.encodePacked(choice, nonce)) == player2Commitment) */\n      tag_63\n      jumpi\n      0x00\n      dup1\n      revert\n    tag_63:\n        /* \"contracts/Coin2.sol\":1341:1347  choice */\n      dup2\n        /* \"contracts/Coin2.sol\":1324:1347  player1Choice == choice */\n      iszero\n      iszero\n        /* \"contracts/Coin2.sol\":1324:1337  player1Choice */\n      0x05\n      0x00\n      swap1\n      sload\n      swap1\n      0x0100\n      exp\n      swap1\n      div\n      0xff\n      and\n        /* \"contracts/Coin2.sol\":1324:1347  player1Choice == choice */\n      iszero\n      iszero\n      eq\n        /* \"contracts/Coin2.sol\":1320:1487  if (player1Choice == choice) {\r... */\n      iszero\n      tag_64\n      jumpi\n        /* \"contracts/Coin2.sol\":1364:1371  player2 */\n      0x01\n      0x00\n      swap1\n      sload\n      swap1\n      0x0100\n      exp\n      swap1\n      div\n      0xffffffffffffffffffffffffffffffffffffffff\n      and\n        /* \"contracts/Coin2.sol\":1364:1380  player2.transfer */\n      0xffffffffffffffffffffffffffffffffffffffff\n      and\n        /* \"contracts/Coin2.sol\":1364:1403  player2.transfer(address(this).balance) */\n      0x08fc\n        /* \"contracts/Coin2.sol\":1381:1402  address(this).balance */\n      selfbalance\n        /* \"contracts/Coin2.sol\":1364:1403  player2.transfer(address(this).balance) */\n      swap1\n      dup2\n      iszero\n      mul\n      swap1\n      mload(0x40)\n      0x00\n      mload(0x40)\n      dup1\n      dup4\n      sub\n      dup2\n      dup6\n      dup9\n      dup9\n      call\n      swap4\n      pop\n      pop\n      pop\n      pop\n      iszero\n      dup1\n      iszero\n      tag_66\n      jumpi\n      returndatasize\n      0x00\n      dup1\n      returndatacopy\n      revert(0x00, returndatasize)\n    tag_66:\n      pop\n        /* \"contracts/Coin2.sol\":1320:1487  if (player1Choice == choice) {\r... */\n      jump(tag_67)\n    tag_64:\n        /* \"contracts/Coin2.sol\":1436:1443  player1 */\n      0x00\n      dup1\n      sload\n      swap1\n      0x0100\n      exp\n      swap1\n      div\n      0xffffffffffffffffffffffffffffffffffffffff\n      and\n        /* \"contracts/Coin2.sol\":1436:1452  player1.transfer */\n      0xffffffffffffffffffffffffffffffffffffffff\n      and\n        /* \"contracts/Coin2.sol\":1436:1475  player1.transfer(address(this).balance) */\n      0x08fc\n        /* \"contracts/Coin2.sol\":1453:1474  address(this).balance */\n      selfbalance\n        /* \"contracts/Coin2.sol\":1436:1475  player1.transfer(address(this).balance) */\n      swap1\n      dup2\n      iszero\n      mul\n      swap1\n      mload(0x40)\n      0x00\n      mload(0x40)\n      dup1\n      dup4\n      sub\n      dup2\n      dup6\n      dup9\n      dup9\n      call\n      swap4\n      pop\n      pop\n      pop\n      pop\n      iszero\n      dup1\n      iszero\n      tag_69\n      jumpi\n      returndatasize\n      0x00\n      dup1\n      returndatacopy\n      revert(0x00, returndatasize)\n    tag_69:\n      pop\n        /* \"contracts/Coin2.sol\":1320:1487  if (player1Choice == choice) {\r... */\n    tag_67:\n        /* \"contracts/Coin2.sol\":1103:1494  function Reveal2(bool choice, uint256 nonce) public {\r... */\n      pop\n      pop\n      jump\t// out\n        /* \"contracts/Coin2.sol\":308:328  bool public revealed */\n    tag_20:\n      0x05\n      0x01\n      swap1\n      sload\n      swap1\n      0x0100\n      exp\n      swap1\n      div\n      0xff\n      and\n      dup2\n      jump\t// out\n        /* \"contracts/Coin2.sol\":124:154  address payable public player2 */\n    tag_25:\n      0x01\n      0x00\n      swap1\n      sload\n      swap1\n      0x0100\n      exp\n      swap1\n      div\n      0xffffffffffffffffffffffffffffffffffffffff\n      and\n      dup2\n      jump\t// out\n        /* \"contracts/Coin2.sol\":202:234  bytes32 public player2Commitment */\n    tag_30:\n      sload(0x03)\n      dup2\n      jump\t// out\n        /* \"contracts/Coin2.sol\":533:759  function TakeBet(bytes32 commitment) public payable {\r... */\n    tag_36:\n        /* \"contracts/Coin2.sol\":623:624  0 */\n      0x00\n        /* \"contracts/Coin2.sol\":604:625  player2 == address(0) */\n      0xffffffffffffffffffffffffffffffffffffffff\n      and\n        /* \"contracts/Coin2.sol\":604:611  player2 */\n      0x01\n      0x00\n      swap1\n      sload\n      swap1\n      0x0100\n      exp\n      swap1\n      div\n      0xffffffffffffffffffffffffffffffffffffffff\n      and\n        /* \"contracts/Coin2.sol\":604:625  player2 == address(0) */\n      0xffffffffffffffffffffffffffffffffffffffff\n      and\n      eq\n        /* \"contracts/Coin2.sol\":596:626  require(player2 == address(0)) */\n      tag_71\n      jumpi\n      0x00\n      dup1\n      revert\n    tag_71:\n        /* \"contracts/Coin2.sol\":658:667  betAmount */\n      sload(0x04)\n        /* \"contracts/Coin2.sol\":645:654  msg.value */\n      callvalue\n        /* \"contracts/Coin2.sol\":645:667  msg.value == betAmount */\n      eq\n        /* \"contracts/Coin2.sol\":637:668  require(msg.value == betAmount) */\n      tag_72\n      jumpi\n      0x00\n      dup1\n      revert\n    tag_72:\n        /* \"contracts/Coin2.sol\":699:709  msg.sender */\n      caller\n        /* \"contracts/Coin2.sol\":681:688  player2 */\n      0x01\n      0x00\n        /* \"contracts/Coin2.sol\":681:710  player2 = payable(msg.sender) */\n      0x0100\n      exp\n      dup2\n      sload\n      dup2\n      0xffffffffffffffffffffffffffffffffffffffff\n      mul\n      not\n      and\n      swap1\n      dup4\n      0xffffffffffffffffffffffffffffffffffffffff\n      and\n      mul\n      or\n      swap1\n      sstore\n      pop\n        /* \"contracts/Coin2.sol\":741:751  commitment */\n      dup1\n        /* \"contracts/Coin2.sol\":721:738  player2Commitment */\n      0x03\n        /* \"contracts/Coin2.sol\":721:751  player2Commitment = commitment */\n      dup2\n      swap1\n      sstore\n      pop\n        /* \"contracts/Coin2.sol\":533:759  function TakeBet(bytes32 commitment) public payable {\r... */\n      pop\n      jump\t// out\n        /* \"contracts/Coin2.sol\":767:1095  function Reveal1(bool choice, uint256 nonce) public {\r... */\n    tag_40:\n        /* \"contracts/Coin2.sol\":857:858  0 */\n      0x00\n        /* \"contracts/Coin2.sol\":838:859  player2 != address(0) */\n      0xffffffffffffffffffffffffffffffffffffffff\n      and\n        /* \"contracts/Coin2.sol\":838:845  player2 */\n      0x01\n      0x00\n      swap1\n      sload\n      swap1\n      0x0100\n      exp\n      swap1\n      div\n      0xffffffffffffffffffffffffffffffffffffffff\n      and\n        /* \"contracts/Coin2.sol\":838:859  player2 != address(0) */\n      0xffffffffffffffffffffffffffffffffffffffff\n      and\n      eq\n      iszero\n        /* \"contracts/Coin2.sol\":830:860  require(player2 != address(0)) */\n      tag_74\n      jumpi\n      0x00\n      dup1\n      revert\n    tag_74:\n        /* \"contracts/Coin2.sol\":880:888  revealed */\n      0x05\n      0x01\n      swap1\n      sload\n      swap1\n      0x0100\n      exp\n      swap1\n      div\n      0xff\n      and\n        /* \"contracts/Coin2.sol\":879:888  !revealed */\n      iszero\n        /* \"contracts/Coin2.sol\":871:889  require(!revealed) */\n      tag_75\n      jumpi\n      0x00\n      dup1\n      revert\n    tag_75:\n        /* \"contracts/Coin2.sol\":954:971  player1Commitment */\n      sload(0x02)\n        /* \"contracts/Coin2.sol\":935:941  choice */\n      dup3\n        /* \"contracts/Coin2.sol\":943:948  nonce */\n      dup3\n        /* \"contracts/Coin2.sol\":918:949  abi.encodePacked(choice, nonce) */\n      add(0x20, mload(0x40))\n      tag_76\n      swap3\n      swap2\n      swap1\n      tag_62\n      jump\t// in\n    tag_76:\n      mload(0x40)\n      0x20\n      dup2\n      dup4\n      sub\n      sub\n      dup2\n      mstore\n      swap1\n      0x40\n      mstore\n        /* \"contracts/Coin2.sol\":908:950  keccak256(abi.encodePacked(choice, nonce)) */\n      dup1\n      mload\n      swap1\n      0x20\n      add\n      keccak256\n        /* \"contracts/Coin2.sol\":908:971  keccak256(abi.encodePacked(choice, nonce)) == player1Commitment */\n      eq\n        /* \"contracts/Coin2.sol\":900:972  require(keccak256(abi.encodePacked(choice, nonce)) == player1Commitment) */\n      tag_77\n      jumpi\n      0x00\n      dup1\n      revert\n    tag_77:\n        /* \"contracts/Coin2.sol\":1001:1007  choice */\n      dup2\n        /* \"contracts/Coin2.sol\":985:998  player1Choice */\n      0x05\n      0x00\n        /* \"contracts/Coin2.sol\":985:1007  player1Choice = choice */\n      0x0100\n      exp\n      dup2\n      sload\n      dup2\n      0xff\n      mul\n      not\n      and\n      swap1\n      dup4\n      iszero\n      iszero\n      mul\n      or\n      swap1\n      sstore\n      pop\n        /* \"contracts/Coin2.sol\":1029:1033  true */\n      0x01\n        /* \"contracts/Coin2.sol\":1018:1026  revealed */\n      0x05\n      0x01\n        /* \"contracts/Coin2.sol\":1018:1033  revealed = true */\n      0x0100\n      exp\n      dup2\n      sload\n      dup2\n      0xff\n      mul\n      not\n      and\n      swap1\n      dup4\n      iszero\n      iszero\n      mul\n      or\n      swap1\n      sstore\n      pop\n        /* \"contracts/Coin2.sol\":1044:1051  player1 */\n      0x00\n      dup1\n      sload\n      swap1\n      0x0100\n      exp\n      swap1\n      div\n      0xffffffffffffffffffffffffffffffffffffffff\n      and\n        /* \"contracts/Coin2.sol\":1044:1060  player1.transfer */\n      0xffffffffffffffffffffffffffffffffffffffff\n      and\n        /* \"contracts/Coin2.sol\":1044:1087  player1.transfer(address(this).balance / 4) */\n      0x08fc\n        /* \"contracts/Coin2.sol\":1085:1086  4 */\n      0x04\n        /* \"contracts/Coin2.sol\":1061:1082  address(this).balance */\n      selfbalance\n        /* \"contracts/Coin2.sol\":1061:1086  address(this).balance / 4 */\n      tag_78\n      swap2\n      swap1\n      tag_79\n      jump\t// in\n    tag_78:\n        /* \"contracts/Coin2.sol\":1044:1087  player1.transfer(address(this).balance / 4) */\n      swap1\n      dup2\n      iszero\n      mul\n      swap1\n      mload(0x40)\n      0x00\n      mload(0x40)\n      dup1\n      dup4\n      sub\n      dup2\n      dup6\n      dup9\n      dup9\n      call\n      swap4\n      pop\n      pop\n      pop\n      pop\n      iszero\n      dup1\n      iszero\n      tag_81\n      jumpi\n      returndatasize\n      0x00\n      dup1\n      returndatacopy\n      revert(0x00, returndatasize)\n    tag_81:\n      pop\n        /* \"contracts/Coin2.sol\":767:1095  function Reveal1(bool choice, uint256 nonce) public {\r... */\n      pop\n      pop\n      jump\t// out\n        /* \"contracts/Coin2.sol\":243:267  uint256 public betAmount */\n    tag_43:\n      sload(0x04)\n      dup2\n      jump\t// out\n        /* \"contracts/Coin2.sol\":87:117  address payable public player1 */\n    tag_48:\n      0x00\n      dup1\n      sload\n      swap1\n      0x0100\n      exp\n      swap1\n      div\n      0xffffffffffffffffffffffffffffffffffffffff\n      and\n      dup2\n      jump\t// out\n        /* \"contracts/Coin2.sol\":276:301  bool public player1Choice */\n    tag_52:\n      0x05\n      0x00\n      swap1\n      sload\n      swap1\n      0x0100\n      exp\n      swap1\n      div\n      0xff\n      and\n      dup2\n      jump\t// out\n        /* \"contracts/Coin2.sol\":163:195  bytes32 public player1Commitment */\n    tag_56:\n      sload(0x02)\n      dup2\n      jump\t// out\n        /* \"#utility.yul\":7:140   */\n    tag_83:\n        /* \"#utility.yul\":50:55   */\n      0x00\n        /* \"#utility.yul\":88:94   */\n      dup2\n        /* \"#utility.yul\":75:95   */\n      calldataload\n        /* \"#utility.yul\":66:95   */\n      swap1\n      pop\n        /* \"#utility.yul\":104:134   */\n      tag_85\n        /* \"#utility.yul\":128:133   */\n      dup2\n        /* \"#utility.yul\":104:134   */\n      tag_86\n      jump\t// in\n    tag_85:\n        /* \"#utility.yul\":7:140   */\n      swap3\n      swap2\n      pop\n      pop\n      jump\t// out\n        /* \"#utility.yul\":146:285   */\n    tag_87:\n        /* \"#utility.yul\":192:197   */\n      0x00\n        /* \"#utility.yul\":230:236   */\n      dup2\n        /* \"#utility.yul\":217:237   */\n      calldataload\n        /* \"#utility.yul\":208:237   */\n      swap1\n      pop\n        /* \"#utility.yul\":246:279   */\n      tag_89\n        /* \"#utility.yul\":273:278   */\n      dup2\n        /* \"#utility.yul\":246:279   */\n      tag_90\n      jump\t// in\n    tag_89:\n        /* \"#utility.yul\":146:285   */\n      swap3\n      swap2\n      pop\n      pop\n      jump\t// out\n        /* \"#utility.yul\":291:430   */\n    tag_91:\n        /* \"#utility.yul\":337:342   */\n      0x00\n        /* \"#utility.yul\":375:381   */\n      dup2\n        /* \"#utility.yul\":362:382   */\n      calldataload\n        /* \"#utility.yul\":353:382   */\n      swap1\n      pop\n        /* \"#utility.yul\":391:424   */\n      tag_93\n        /* \"#utility.yul\":418:423   */\n      dup2\n        /* \"#utility.yul\":391:424   */\n      tag_94\n      jump\t// in\n    tag_93:\n        /* \"#utility.yul\":291:430   */\n      swap3\n      swap2\n      pop\n      pop\n      jump\t// out\n        /* \"#utility.yul\":436:904   */\n    tag_16:\n        /* \"#utility.yul\":501:507   */\n      0x00\n        /* \"#utility.yul\":509:515   */\n      dup1\n        /* \"#utility.yul\":558:560   */\n      0x40\n        /* \"#utility.yul\":546:555   */\n      dup4\n        /* \"#utility.yul\":537:544   */\n      dup6\n        /* \"#utility.yul\":533:556   */\n      sub\n        /* \"#utility.yul\":529:561   */\n      slt\n        /* \"#utility.yul\":526:645   */\n      iszero\n      tag_96\n      jumpi\n        /* \"#utility.yul\":564:643   */\n      tag_97\n      tag_98\n      jump\t// in\n    tag_97:\n        /* \"#utility.yul\":526:645   */\n    tag_96:\n        /* \"#utility.yul\":684:685   */\n      0x00\n        /* \"#utility.yul\":709:759   */\n      tag_99\n        /* \"#utility.yul\":751:758   */\n      dup6\n        /* \"#utility.yul\":742:748   */\n      dup3\n        /* \"#utility.yul\":731:740   */\n      dup7\n        /* \"#utility.yul\":727:749   */\n      add\n        /* \"#utility.yul\":709:759   */\n      tag_83\n      jump\t// in\n    tag_99:\n        /* \"#utility.yul\":699:759   */\n      swap3\n      pop\n        /* \"#utility.yul\":655:769   */\n      pop\n        /* \"#utility.yul\":808:810   */\n      0x20\n        /* \"#utility.yul\":834:887   */\n      tag_100\n        /* \"#utility.yul\":879:886   */\n      dup6\n        /* \"#utility.yul\":870:876   */\n      dup3\n        /* \"#utility.yul\":859:868   */\n      dup7\n        /* \"#utility.yul\":855:877   */\n      add\n        /* \"#utility.yul\":834:887   */\n      tag_91\n      jump\t// in\n    tag_100:\n        /* \"#utility.yul\":824:887   */\n      swap2\n      pop\n        /* \"#utility.yul\":779:897   */\n      pop\n        /* \"#utility.yul\":436:904   */\n      swap3\n      pop\n      swap3\n      swap1\n      pop\n      jump\t// out\n        /* \"#utility.yul\":910:1239   */\n    tag_35:\n        /* \"#utility.yul\":969:975   */\n      0x00\n        /* \"#utility.yul\":1018:1020   */\n      0x20\n        /* \"#utility.yul\":1006:1015   */\n      dup3\n        /* \"#utility.yul\":997:1004   */\n      dup5\n        /* \"#utility.yul\":993:1016   */\n      sub\n        /* \"#utility.yul\":989:1021   */\n      slt\n        /* \"#utility.yul\":986:1105   */\n      iszero\n      tag_102\n      jumpi\n        /* \"#utility.yul\":1024:1103   */\n      tag_103\n      tag_98\n      jump\t// in\n    tag_103:\n        /* \"#utility.yul\":986:1105   */\n    tag_102:\n        /* \"#utility.yul\":1144:1145   */\n      0x00\n        /* \"#utility.yul\":1169:1222   */\n      tag_104\n        /* \"#utility.yul\":1214:1221   */\n      dup5\n        /* \"#utility.yul\":1205:1211   */\n      dup3\n        /* \"#utility.yul\":1194:1203   */\n      dup6\n        /* \"#utility.yul\":1190:1212   */\n      add\n        /* \"#utility.yul\":1169:1222   */\n      tag_87\n      jump\t// in\n    tag_104:\n        /* \"#utility.yul\":1159:1222   */\n      swap2\n      pop\n        /* \"#utility.yul\":1115:1232   */\n      pop\n        /* \"#utility.yul\":910:1239   */\n      swap3\n      swap2\n      pop\n      pop\n      jump\t// out\n        /* \"#utility.yul\":1245:1387   */\n    tag_105:\n        /* \"#utility.yul\":1348:1380   */\n      tag_107\n        /* \"#utility.yul\":1374:1379   */\n      dup2\n        /* \"#utility.yul\":1348:1380   */\n      tag_108\n      jump\t// in\n    tag_107:\n        /* \"#utility.yul\":1343:1346   */\n      dup3\n        /* \"#utility.yul\":1336:1381   */\n      mstore\n        /* \"#utility.yul\":1245:1387   */\n      pop\n      pop\n      jump\t// out\n        /* \"#utility.yul\":1393:1502   */\n    tag_109:\n        /* \"#utility.yul\":1474:1495   */\n      tag_111\n        /* \"#utility.yul\":1489:1494   */\n      dup2\n        /* \"#utility.yul\":1474:1495   */\n      tag_112\n      jump\t// in\n    tag_111:\n        /* \"#utility.yul\":1469:1472   */\n      dup3\n        /* \"#utility.yul\":1462:1496   */\n      mstore\n        /* \"#utility.yul\":1393:1502   */\n      pop\n      pop\n      jump\t// out\n        /* \"#utility.yul\":1508:1653   */\n    tag_113:\n        /* \"#utility.yul\":1607:1646   */\n      tag_115\n        /* \"#utility.yul\":1624:1645   */\n      tag_116\n        /* \"#utility.yul\":1639:1644   */\n      dup3\n        /* \"#utility.yul\":1624:1645   */\n      tag_112\n      jump\t// in\n    tag_116:\n        /* \"#utility.yul\":1607:1646   */\n      tag_117\n      jump\t// in\n    tag_115:\n        /* \"#utility.yul\":1602:1605   */\n      dup3\n        /* \"#utility.yul\":1595:1647   */\n      mstore\n        /* \"#utility.yul\":1508:1653   */\n      pop\n      pop\n      jump\t// out\n        /* \"#utility.yul\":1659:1777   */\n    tag_118:\n        /* \"#utility.yul\":1746:1770   */\n      tag_120\n        /* \"#utility.yul\":1764:1769   */\n      dup2\n        /* \"#utility.yul\":1746:1770   */\n      tag_121\n      jump\t// in\n    tag_120:\n        /* \"#utility.yul\":1741:1744   */\n      dup3\n        /* \"#utility.yul\":1734:1771   */\n      mstore\n        /* \"#utility.yul\":1659:1777   */\n      pop\n      pop\n      jump\t// out\n        /* \"#utility.yul\":1783:1901   */\n    tag_122:\n        /* \"#utility.yul\":1870:1894   */\n      tag_124\n        /* \"#utility.yul\":1888:1893   */\n      dup2\n        /* \"#utility.yul\":1870:1894   */\n      tag_125\n      jump\t// in\n    tag_124:\n        /* \"#utility.yul\":1865:1868   */\n      dup3\n        /* \"#utility.yul\":1858:1895   */\n      mstore\n        /* \"#utility.yul\":1783:1901   */\n      pop\n      pop\n      jump\t// out\n        /* \"#utility.yul\":1907:2064   */\n    tag_126:\n        /* \"#utility.yul\":2012:2057   */\n      tag_128\n        /* \"#utility.yul\":2032:2056   */\n      tag_129\n        /* \"#utility.yul\":2050:2055   */\n      dup3\n        /* \"#utility.yul\":2032:2056   */\n      tag_125\n      jump\t// in\n    tag_129:\n        /* \"#utility.yul\":2012:2057   */\n      tag_130\n      jump\t// in\n    tag_128:\n        /* \"#utility.yul\":2007:2010   */\n      dup3\n        /* \"#utility.yul\":2000:2058   */\n      mstore\n        /* \"#utility.yul\":1907:2064   */\n      pop\n      pop\n      jump\t// out\n        /* \"#utility.yul\":2070:2454   */\n    tag_62:\n        /* \"#utility.yul\":2204:2207   */\n      0x00\n        /* \"#utility.yul\":2219:2288   */\n      tag_132\n        /* \"#utility.yul\":2284:2287   */\n      dup3\n        /* \"#utility.yul\":2275:2281   */\n      dup6\n        /* \"#utility.yul\":2219:2288   */\n      tag_113\n      jump\t// in\n    tag_132:\n        /* \"#utility.yul\":2313:2314   */\n      0x01\n        /* \"#utility.yul\":2308:2311   */\n      dup3\n        /* \"#utility.yul\":2304:2315   */\n      add\n        /* \"#utility.yul\":2297:2315   */\n      swap2\n      pop\n        /* \"#utility.yul\":2325:2400   */\n      tag_133\n        /* \"#utility.yul\":2396:2399   */\n      dup3\n        /* \"#utility.yul\":2387:2393   */\n      dup5\n        /* \"#utility.yul\":2325:2400   */\n      tag_126\n      jump\t// in\n    tag_133:\n        /* \"#utility.yul\":2425:2427   */\n      0x20\n        /* \"#utility.yul\":2420:2423   */\n      dup3\n        /* \"#utility.yul\":2416:2428   */\n      add\n        /* \"#utility.yul\":2409:2428   */\n      swap2\n      pop\n        /* \"#utility.yul\":2445:2448   */\n      dup2\n        /* \"#utility.yul\":2438:2448   */\n      swap1\n      pop\n        /* \"#utility.yul\":2070:2454   */\n      swap4\n      swap3\n      pop\n      pop\n      pop\n      jump\t// out\n        /* \"#utility.yul\":2460:2714   */\n    tag_27:\n        /* \"#utility.yul\":2569:2573   */\n      0x00\n        /* \"#utility.yul\":2607:2609   */\n      0x20\n        /* \"#utility.yul\":2596:2605   */\n      dup3\n        /* \"#utility.yul\":2592:2610   */\n      add\n        /* \"#utility.yul\":2584:2610   */\n      swap1\n      pop\n        /* \"#utility.yul\":2620:2707   */\n      tag_135\n        /* \"#utility.yul\":2704:2705   */\n      0x00\n        /* \"#utility.yul\":2693:2702   */\n      dup4\n        /* \"#utility.yul\":2689:2706   */\n      add\n        /* \"#utility.yul\":2680:2686   */\n      dup5\n        /* \"#utility.yul\":2620:2707   */\n      tag_105\n      jump\t// in\n    tag_135:\n        /* \"#utility.yul\":2460:2714   */\n      swap3\n      swap2\n      pop\n      pop\n      jump\t// out\n        /* \"#utility.yul\":2720:2930   */\n    tag_22:\n        /* \"#utility.yul\":2807:2811   */\n      0x00\n        /* \"#utility.yul\":2845:2847   */\n      0x20\n        /* \"#utility.yul\":2834:2843   */\n      dup3\n        /* \"#utility.yul\":2830:2848   */\n      add\n        /* \"#utility.yul\":2822:2848   */\n      swap1\n      pop\n        /* \"#utility.yul\":2858:2923   */\n      tag_137\n        /* \"#utility.yul\":2920:2921   */\n      0x00\n        /* \"#utility.yul\":2909:2918   */\n      dup4\n        /* \"#utility.yul\":2905:2922   */\n      add\n        /* \"#utility.yul\":2896:2902   */\n      dup5\n        /* \"#utility.yul\":2858:2923   */\n      tag_109\n      jump\t// in\n    tag_137:\n        /* \"#utility.yul\":2720:2930   */\n      swap3\n      swap2\n      pop\n      pop\n      jump\t// out\n        /* \"#utility.yul\":2936:3158   */\n    tag_32:\n        /* \"#utility.yul\":3029:3033   */\n      0x00\n        /* \"#utility.yul\":3067:3069   */\n      0x20\n        /* \"#utility.yul\":3056:3065   */\n      dup3\n        /* \"#utility.yul\":3052:3070   */\n      add\n        /* \"#utility.yul\":3044:3070   */\n      swap1\n      pop\n        /* \"#utility.yul\":3080:3151   */\n      tag_139\n        /* \"#utility.yul\":3148:3149   */\n      0x00\n        /* \"#utility.yul\":3137:3146   */\n      dup4\n        /* \"#utility.yul\":3133:3150   */\n      add\n        /* \"#utility.yul\":3124:3130   */\n      dup5\n        /* \"#utility.yul\":3080:3151   */\n      tag_118\n      jump\t// in\n    tag_139:\n        /* \"#utility.yul\":2936:3158   */\n      swap3\n      swap2\n      pop\n      pop\n      jump\t// out\n        /* \"#utility.yul\":3164:3386   */\n    tag_45:\n        /* \"#utility.yul\":3257:3261   */\n      0x00\n        /* \"#utility.yul\":3295:3297   */\n      0x20\n        /* \"#utility.yul\":3284:3293   */\n      dup3\n        /* \"#utility.yul\":3280:3298   */\n      add\n        /* \"#utility.yul\":3272:3298   */\n      swap1\n      pop\n        /* \"#utility.yul\":3308:3379   */\n      tag_141\n        /* \"#utility.yul\":3376:3377   */\n      0x00\n        /* \"#utility.yul\":3365:3374   */\n      dup4\n        /* \"#utility.yul\":3361:3378   */\n      add\n        /* \"#utility.yul\":3352:3358   */\n      dup5\n        /* \"#utility.yul\":3308:3379   */\n      tag_122\n      jump\t// in\n    tag_141:\n        /* \"#utility.yul\":3164:3386   */\n      swap3\n      swap2\n      pop\n      pop\n      jump\t// out\n        /* \"#utility.yul\":3473:3658   */\n    tag_79:\n        /* \"#utility.yul\":3513:3514   */\n      0x00\n        /* \"#utility.yul\":3530:3550   */\n      tag_145\n        /* \"#utility.yul\":3548:3549   */\n      dup3\n        /* \"#utility.yul\":3530:3550   */\n      tag_125\n      jump\t// in\n    tag_145:\n        /* \"#utility.yul\":3525:3550   */\n      swap2\n      pop\n        /* \"#utility.yul\":3564:3584   */\n      tag_146\n        /* \"#utility.yul\":3582:3583   */\n      dup4\n        /* \"#utility.yul\":3564:3584   */\n      tag_125\n      jump\t// in\n    tag_146:\n        /* \"#utility.yul\":3559:3584   */\n      swap3\n      pop\n        /* \"#utility.yul\":3603:3604   */\n      dup3\n        /* \"#utility.yul\":3593:3628   */\n      tag_147\n      jumpi\n        /* \"#utility.yul\":3608:3626   */\n      tag_148\n      tag_149\n      jump\t// in\n    tag_148:\n        /* \"#utility.yul\":3593:3628   */\n    tag_147:\n        /* \"#utility.yul\":3650:3651   */\n      dup3\n        /* \"#utility.yul\":3647:3648   */\n      dup3\n        /* \"#utility.yul\":3643:3652   */\n      div\n        /* \"#utility.yul\":3638:3652   */\n      swap1\n      pop\n        /* \"#utility.yul\":3473:3658   */\n      swap3\n      swap2\n      pop\n      pop\n      jump\t// out\n        /* \"#utility.yul\":3664:3768   */\n    tag_108:\n        /* \"#utility.yul\":3709:3716   */\n      0x00\n        /* \"#utility.yul\":3738:3762   */\n      tag_151\n        /* \"#utility.yul\":3756:3761   */\n      dup3\n        /* \"#utility.yul\":3738:3762   */\n      tag_152\n      jump\t// in\n    tag_151:\n        /* \"#utility.yul\":3727:3762   */\n      swap1\n      pop\n        /* \"#utility.yul\":3664:3768   */\n      swap2\n      swap1\n      pop\n      jump\t// out\n        /* \"#utility.yul\":3774:3864   */\n    tag_112:\n        /* \"#utility.yul\":3808:3815   */\n      0x00\n        /* \"#utility.yul\":3851:3856   */\n      dup2\n        /* \"#utility.yul\":3844:3857   */\n      iszero\n        /* \"#utility.yul\":3837:3858   */\n      iszero\n        /* \"#utility.yul\":3826:3858   */\n      swap1\n      pop\n        /* \"#utility.yul\":3774:3864   */\n      swap2\n      swap1\n      pop\n      jump\t// out\n        /* \"#utility.yul\":3870:3947   */\n    tag_121:\n        /* \"#utility.yul\":3907:3914   */\n      0x00\n        /* \"#utility.yul\":3936:3941   */\n      dup2\n        /* \"#utility.yul\":3925:3941   */\n      swap1\n      pop\n        /* \"#utility.yul\":3870:3947   */\n      swap2\n      swap1\n      pop\n      jump\t// out\n        /* \"#utility.yul\":3953:4079   */\n    tag_152:\n        /* \"#utility.yul\":3990:3997   */\n      0x00\n        /* \"#utility.yul\":4030:4072   */\n      0xffffffffffffffffffffffffffffffffffffffff\n        /* \"#utility.yul\":4023:4028   */\n      dup3\n        /* \"#utility.yul\":4019:4073   */\n      and\n        /* \"#utility.yul\":4008:4073   */\n      swap1\n      pop\n        /* \"#utility.yul\":3953:4079   */\n      swap2\n      swap1\n      pop\n      jump\t// out\n        /* \"#utility.yul\":4085:4162   */\n    tag_125:\n        /* \"#utility.yul\":4122:4129   */\n      0x00\n        /* \"#utility.yul\":4151:4156   */\n      dup2\n        /* \"#utility.yul\":4140:4156   */\n      swap1\n      pop\n        /* \"#utility.yul\":4085:4162   */\n      swap2\n      swap1\n      pop\n      jump\t// out\n        /* \"#utility.yul\":4168:4263   */\n    tag_117:\n        /* \"#utility.yul\":4204:4211   */\n      0x00\n        /* \"#utility.yul\":4233:4257   */\n      tag_158\n        /* \"#utility.yul\":4251:4256   */\n      dup3\n        /* \"#utility.yul\":4233:4257   */\n      tag_159\n      jump\t// in\n    tag_158:\n        /* \"#utility.yul\":4222:4257   */\n      swap1\n      pop\n        /* \"#utility.yul\":4168:4263   */\n      swap2\n      swap1\n      pop\n      jump\t// out\n        /* \"#utility.yul\":4269:4348   */\n    tag_130:\n        /* \"#utility.yul\":4308:4315   */\n      0x00\n        /* \"#utility.yul\":4337:4342   */\n      dup2\n        /* \"#utility.yul\":4326:4342   */\n      swap1\n      pop\n        /* \"#utility.yul\":4269:4348   */\n      swap2\n      swap1\n      pop\n      jump\t// out\n        /* \"#utility.yul\":4354:4447   */\n    tag_159:\n        /* \"#utility.yul\":4391:4398   */\n      0x00\n        /* \"#utility.yul\":4420:4441   */\n      tag_162\n        /* \"#utility.yul\":4435:4440   */\n      dup3\n        /* \"#utility.yul\":4420:4441   */\n      tag_163\n      jump\t// in\n    tag_162:\n        /* \"#utility.yul\":4409:4441   */\n      swap1\n      pop\n        /* \"#utility.yul\":4354:4447   */\n      swap2\n      swap1\n      pop\n      jump\t// out\n        /* \"#utility.yul\":4639:4819   */\n    tag_149:\n        /* \"#utility.yul\":4687:4764   */\n      0x4e487b7100000000000000000000000000000000000000000000000000000000\n        /* \"#utility.yul\":4684:4685   */\n      0x00\n        /* \"#utility.yul\":4677:4765   */\n      mstore\n        /* \"#utility.yul\":4784:4788   */\n      0x12\n        /* \"#utility.yul\":4781:4782   */\n      0x04\n        /* \"#utility.yul\":4774:4789   */\n      mstore\n        /* \"#utility.yul\":4808:4812   */\n      0x24\n        /* \"#utility.yul\":4805:4806   */\n      0x00\n        /* \"#utility.yul\":4798:4813   */\n      revert\n        /* \"#utility.yul\":4948:5065   */\n    tag_98:\n        /* \"#utility.yul\":5057:5058   */\n      0x00\n        /* \"#utility.yul\":5054:5055   */\n      dup1\n        /* \"#utility.yul\":5047:5059   */\n      revert\n        /* \"#utility.yul\":5071:5167   */\n    tag_163:\n        /* \"#utility.yul\":5105:5113   */\n      0x00\n        /* \"#utility.yul\":5154:5159   */\n      dup2\n        /* \"#utility.yul\":5149:5152   */\n      0xf8\n        /* \"#utility.yul\":5145:5160   */\n      shl\n        /* \"#utility.yul\":5124:5160   */\n      swap1\n      pop\n        /* \"#utility.yul\":5071:5167   */\n      swap2\n      swap1\n      pop\n      jump\t// out\n        /* \"#utility.yul\":5173:5289   */\n    tag_86:\n        /* \"#utility.yul\":5243:5264   */\n      tag_172\n        /* \"#utility.yul\":5258:5263   */\n      dup2\n        /* \"#utility.yul\":5243:5264   */\n      tag_112\n      jump\t// in\n    tag_172:\n        /* \"#utility.yul\":5236:5241   */\n      dup2\n        /* \"#utility.yul\":5233:5265   */\n      eq\n        /* \"#utility.yul\":5223:5283   */\n      tag_173\n      jumpi\n        /* \"#utility.yul\":5279:5280   */\n      0x00\n        /* \"#utility.yul\":5276:5277   */\n      dup1\n        /* \"#utility.yul\":5269:5281   */\n      revert\n        /* \"#utility.yul\":5223:5283   */\n    tag_173:\n        /* \"#utility.yul\":5173:5289   */\n      pop\n      jump\t// out\n        /* \"#utility.yul\":5295:5417   */\n    tag_90:\n        /* \"#utility.yul\":5368:5392   */\n      tag_175\n        /* \"#utility.yul\":5386:5391   */\n      dup2\n        /* \"#utility.yul\":5368:5392   */\n      tag_121\n      jump\t// in\n    tag_175:\n        /* \"#utility.yul\":5361:5366   */\n      dup2\n        /* \"#utility.yul\":5358:5393   */\n      eq\n        /* \"#utility.yul\":5348:5411   */\n      tag_176\n      jumpi\n        /* \"#utility.yul\":5407:5408   */\n      0x00\n        /* \"#utility.yul\":5404:5405   */\n      dup1\n        /* \"#utility.yul\":5397:5409   */\n      revert\n        /* \"#utility.yul\":5348:5411   */\n    tag_176:\n        /* \"#utility.yul\":5295:5417   */\n      pop\n      jump\t// out\n        /* \"#utility.yul\":5423:5545   */\n    tag_94:\n        /* \"#utility.yul\":5496:5520   */\n      tag_178\n        /* \"#utility.yul\":5514:5519   */\n      dup2\n        /* \"#utility.yul\":5496:5520   */\n      tag_125\n      jump\t// in\n    tag_178:\n        /* \"#utility.yul\":5489:5494   */\n      dup2\n        /* \"#utility.yul\":5486:5521   */\n      eq\n        /* \"#utility.yul\":5476:5539   */\n      tag_179\n      jumpi\n        /* \"#utility.yul\":5535:5536   */\n      0x00\n        /* \"#utility.yul\":5532:5533   */\n      dup1\n        /* \"#utility.yul\":5525:5537   */\n      revert\n        /* \"#utility.yul\":5476:5539   */\n    tag_179:\n        /* \"#utility.yul\":5423:5545   */\n      pop\n      jump\t// out\n\n    auxdata: 0xa2646970667358221220b8368bc3ed44518ebd1fedf895ca23ad3a994ef8783aef03b834522cba1cbc5b64736f6c63430008070033\n}\n",
				"bytecode": {
					"linkReferences": {},
					"object": "6080604052604051610a85380380610a85833981810160405281019061002591906100a9565b336000806101000a81548173ffffffffffffffffffffffffffffffffffffffff021916908373ffffffffffffffffffffffffffffffffffffffff16021790555080600281905550346004819055506000600560016101000a81548160ff021916908315150217905550506100fc565b6000815190506100a3816100e5565b92915050565b6000602082840312156100bf576100be6100e0565b5b60006100cd84828501610094565b91505092915050565b6000819050919050565b600080fd5b6100ee816100d6565b81146100f957600080fd5b50565b61097a8061010b6000396000f3fe6080604052600436106100915760003560e01c8063cf7c370811610059578063cf7c37081461015c578063d24257c014610185578063d30895e4146101b0578063d8b1f219146101db578063eb13175d1461020657610091565b80632c0f9aaa1461009657806351830227146100bf57806359a5f12d146100ea578063603f508814610115578063b422de9d14610140575b600080fd5b3480156100a257600080fd5b506100bd60048036038101906100b8919061069e565b610231565b005b3480156100cb57600080fd5b506100d46103d1565b6040516100e191906107bc565b60405180910390f35b3480156100f657600080fd5b506100ff6103e4565b60405161010c91906107a1565b60405180910390f35b34801561012157600080fd5b5061012a61040a565b60405161013791906107d7565b60405180910390f35b61015a600480360381019061015591906106de565b610410565b005b34801561016857600080fd5b50610183600480360381019061017e919061069e565b6104c4565b005b34801561019157600080fd5b5061019a61061c565b6040516101a791906107f2565b60405180910390f35b3480156101bc57600080fd5b506101c5610622565b6040516101d291906107a1565b60405180910390f35b3480156101e757600080fd5b506101f0610646565b6040516101fd91906107bc565b60405180910390f35b34801561021257600080fd5b5061021b610659565b60405161022891906107d7565b60405180910390f35b600073ffffffffffffffffffffffffffffffffffffffff16600160009054906101000a900473ffffffffffffffffffffffffffffffffffffffff1673ffffffffffffffffffffffffffffffffffffffff16141561028d57600080fd5b600560019054906101000a900460ff166102a657600080fd5b60035482826040516020016102bc929190610775565b60405160208183030381529060405280519060200120146102dc57600080fd5b811515600560009054906101000a900460ff161515141561036557600160009054906101000a900473ffffffffffffffffffffffffffffffffffffffff1673ffffffffffffffffffffffffffffffffffffffff166108fc479081150290604051600060405180830381858888f1935050505015801561035f573d6000803e3d6000fd5b506103cd565b60008054906101000a900473ffffffffffffffffffffffffffffffffffffffff1673ffffffffffffffffffffffffffffffffffffffff166108fc479081150290604051600060405180830381858888f193505050501580156103cb573d6000803e3d6000fd5b505b5050565b600560019054906101000a900460ff1681565b600160009054906101000a900473ffffffffffffffffffffffffffffffffffffffff1681565b60035481565b600073ffffffffffffffffffffffffffffffffffffffff16600160009054906101000a900473ffffffffffffffffffffffffffffffffffffffff1673ffffffffffffffffffffffffffffffffffffffff161461046b57600080fd5b600454341461047957600080fd5b33600160006101000a81548173ffffffffffffffffffffffffffffffffffffffff021916908373ffffffffffffffffffffffffffffffffffffffff1602179055508060038190555050565b600073ffffffffffffffffffffffffffffffffffffffff16600160009054906101000a900473ffffffffffffffffffffffffffffffffffffffff1673ffffffffffffffffffffffffffffffffffffffff16141561052057600080fd5b600560019054906101000a900460ff161561053a57600080fd5b6002548282604051602001610550929190610775565b604051602081830303815290604052805190602001201461057057600080fd5b81600560006101000a81548160ff0219169083151502179055506001600560016101000a81548160ff02191690831515021790555060008054906101000a900473ffffffffffffffffffffffffffffffffffffffff1673ffffffffffffffffffffffffffffffffffffffff166108fc6004476105ec919061080d565b9081150290604051600060405180830381858888f19350505050158015610617573d6000803e3d6000fd5b505050565b60045481565b60008054906101000a900473ffffffffffffffffffffffffffffffffffffffff1681565b600560009054906101000a900460ff1681565b60025481565b60008135905061066e816108ff565b92915050565b60008135905061068381610916565b92915050565b6000813590506106988161092d565b92915050565b600080604083850312156106b5576106b46108ed565b5b60006106c38582860161065f565b92505060206106d485828601610689565b9150509250929050565b6000602082840312156106f4576106f36108ed565b5b600061070284828501610674565b91505092915050565b6107148161083e565b82525050565b61072381610850565b82525050565b61073a61073582610850565b610890565b82525050565b6107498161085c565b82525050565b61075881610886565b82525050565b61076f61076a82610886565b6108a2565b82525050565b60006107818285610729565b600182019150610791828461075e565b6020820191508190509392505050565b60006020820190506107b6600083018461070b565b92915050565b60006020820190506107d1600083018461071a565b92915050565b60006020820190506107ec6000830184610740565b92915050565b6000602082019050610807600083018461074f565b92915050565b600061081882610886565b915061082383610886565b925082610833576108326108be565b5b828204905092915050565b600061084982610866565b9050919050565b60008115159050919050565b6000819050919050565b600073ffffffffffffffffffffffffffffffffffffffff82169050919050565b6000819050919050565b600061089b826108ac565b9050919050565b6000819050919050565b60006108b7826108f2565b9050919050565b7f4e487b7100000000000000000000000000000000000000000000000000000000600052601260045260246000fd5b600080fd5b60008160f81b9050919050565b61090881610850565b811461091357600080fd5b50565b61091f8161085c565b811461092a57600080fd5b50565b61093681610886565b811461094157600080fd5b5056fea2646970667358221220b8368bc3ed44518ebd1fedf895ca23ad3a994ef8783aef03b834522cba1cbc5b64736f6c63430008070033",
					"opcodes": "PUSH1 0x80 PUSH1 0x40 MSTORE PUSH1 0x40 MLOAD PUSH2 0xA85 CODESIZE SUB DUP1 PUSH2 0xA85 DUP4 CODECOPY DUP2 DUP2 ADD PUSH1 0x40 MSTORE DUP2 ADD SWAP1 PUSH2 0x25 SWAP2 SWAP1 PUSH2 0xA9 JUMP JUMPDEST CALLER PUSH1 0x0 DUP1 PUSH2 0x100 EXP DUP2 SLOAD DUP2 PUSH20 0xFFFFFFFFFFFFFFFFFFFFFFFFFFFFFFFFFFFFFFFF MUL NOT AND SWAP1 DUP4 PUSH20 0xFFFFFFFFFFFFFFFFFFFFFFFFFFFFFFFFFFFFFFFF AND MUL OR SWAP1 SSTORE POP DUP1 PUSH1 0x2 DUP2 SWAP1 SSTORE POP CALLVALUE PUSH1 0x4 DUP2 SWAP1 SSTORE POP PUSH1 0x0 PUSH1 0x5 PUSH1 0x1 PUSH2 0x100 EXP DUP2 SLOAD DUP2 PUSH1 0xFF MUL NOT AND SWAP1 DUP4 ISZERO ISZERO MUL OR SWAP1 SSTORE POP POP PUSH2 0xFC JUMP JUMPDEST PUSH1 0x0 DUP2 MLOAD SWAP1 POP PUSH2 0xA3 DUP2 PUSH2 0xE5 JUMP JUMPDEST SWAP3 SWAP2 POP POP JUMP JUMPDEST PUSH1 0x0 PUSH1 0x20 DUP3 DUP5 SUB SLT ISZERO PUSH2 0xBF JUMPI PUSH2 0xBE PUSH2 0xE0 JUMP JUMPDEST JUMPDEST PUSH1 0x0 PUSH2 0xCD DUP5 DUP3 DUP6 ADD PUSH2 0x94 JUMP JUMPDEST SWAP2 POP POP SWAP3 SWAP2 POP POP JUMP JUMPDEST PUSH1 0x0 DUP2 SWAP1 POP SWAP2 SWAP1 POP JUMP JUMPDEST PUSH1 0x0 DUP1 REVERT JUMPDEST PUSH2 0xEE DUP2 PUSH2 0xD6 JUMP JUMPDEST DUP2 EQ PUSH2 0xF9 JUMPI PUSH1 0x0 DUP1 REVERT JUMPDEST POP JUMP JUMPDEST PUSH2 0x97A DUP1 PUSH2 0x10B PUSH1 0x0 CODECOPY PUSH1 0x0 RETURN INVALID PUSH1 0x80 PUSH1 0x40 MSTORE PUSH1 0x4 CALLDATASIZE LT PUSH2 0x91 JUMPI PUSH1 0x0 CALLDATALOAD PUSH1 0xE0 SHR DUP1 PUSH4 0xCF7C3708 GT PUSH2 0x59 JUMPI DUP1 PUSH4 0xCF7C3708 EQ PUSH2 0x15C JUMPI DUP1 PUSH4 0xD24257C0 EQ PUSH2 0x185 JUMPI DUP1 PUSH4 0xD30895E4 EQ PUSH2 0x1B0 JUMPI DUP1 PUSH4 0xD8B1F219 EQ PUSH2 0x1DB JUMPI DUP1 PUSH4 0xEB13175D EQ PUSH2 0x206 JUMPI PUSH2 0x91 JUMP JUMPDEST DUP1 PUSH4 0x2C0F9AAA EQ PUSH2 0x96 JUMPI DUP1 PUSH4 0x51830227 EQ PUSH2 0xBF JUMPI DUP1 PUSH4 0x59A5F12D EQ PUSH2 0xEA JUMPI DUP1 PUSH4 0x603F5088 EQ PUSH2 0x115 JUMPI DUP1 PUSH4 0xB422DE9D EQ PUSH2 0x140 JUMPI JUMPDEST PUSH1 0x0 DUP1 REVERT JUMPDEST CALLVALUE DUP1 ISZERO PUSH2 0xA2 JUMPI PUSH1 0x0 DUP1 REVERT JUMPDEST POP PUSH2 0xBD PUSH1 0x4 DUP1 CALLDATASIZE SUB DUP2 ADD SWAP1 PUSH2 0xB8 SWAP2 SWAP1 PUSH2 0x69E JUMP JUMPDEST PUSH2 0x231 JUMP JUMPDEST STOP JUMPDEST CALLVALUE DUP1 ISZERO PUSH2 0xCB JUMPI PUSH1 0x0 DUP1 REVERT JUMPDEST POP PUSH2 0xD4 PUSH2 0x3D1 JUMP JUMPDEST PUSH1 0x40 MLOAD PUSH2 0xE1 SWAP2 SWAP1 PUSH2 0x7BC JUMP JUMPDEST PUSH1 0x40 MLOAD DUP1 SWAP2 SUB SWAP1 RETURN JUMPDEST CALLVALUE DUP1 ISZERO PUSH2 0xF6 JUMPI PUSH1 0x0 DUP1 REVERT JUMPDEST POP PUSH2 0xFF PUSH2 0x3E4 JUMP JUMPDEST PUSH1 0x40 MLOAD PUSH2 0x10C SWAP2 SWAP1 PUSH2 0x7A1 JUMP JUMPDEST PUSH1 0x40 MLOAD DUP1 SWAP2 SUB SWAP1 RETURN JUMPDEST CALLVALUE DUP1 ISZERO PUSH2 0x121 JUMPI PUSH1 0x0 DUP1 REVERT JUMPDEST POP PUSH2 0x12A PUSH2 0x40A JUMP JUMPDEST PUSH1 0x40 MLOAD PUSH2 0x137 SWAP2 SWAP1 PUSH2 0x7D7 JUMP JUMPDEST PUSH1 0x40 MLOAD DUP1 SWAP2 SUB SWAP1 RETURN JUMPDEST PUSH2 0x15A PUSH1 0x4 DUP1 CALLDATASIZE SUB DUP2 ADD SWAP1 PUSH2 0x155 SWAP2 SWAP1 PUSH2 0x6DE JUMP JUMPDEST PUSH2 0x410 JUMP JUMPDEST STOP JUMPDEST CALLVALUE DUP1 ISZERO PUSH2 0x168 JUMPI PUSH1 0x0 DUP1 REVERT JUMPDEST POP PUSH2 0x183 PUSH1 0x4 DUP1 CALLDATASIZE SUB DUP2 ADD SWAP1 PUSH2 0x17E SWAP2 SWAP1 PUSH2 0x69E JUMP JUMPDEST PUSH2 0x4C4 JUMP JUMPDEST STOP JUMPDEST CALLVALUE DUP1 ISZERO PUSH2 0x191 JUMPI PUSH1 0x0 DUP1 REVERT JUMPDEST POP PUSH2 0x19A PUSH2 0x61C JUMP JUMPDEST PUSH1 0x40 MLOAD PUSH2 0x1A7 SWAP2 SWAP1 PUSH2 0x7F2 JUMP JUMPDEST PUSH1 0x40 MLOAD DUP1 SWAP2 SUB SWAP1 RETURN JUMPDEST CALLVALUE DUP1 ISZERO PUSH2 0x1BC JUMPI PUSH1 0x0 DUP1 REVERT JUMPDEST POP PUSH2 0x1C5 PUSH2 0x622 JUMP JUMPDEST PUSH1 0x40 MLOAD PUSH2 0x1D2 SWAP2 SWAP1 PUSH2 0x7A1 JUMP JUMPDEST PUSH1 0x40 MLOAD DUP1 SWAP2 SUB SWAP1 RETURN JUMPDEST CALLVALUE DUP1 ISZERO PUSH2 0x1E7 JUMPI PUSH1 0x0 DUP1 REVERT JUMPDEST POP PUSH2 0x1F0 PUSH2 0x646 JUMP JUMPDEST PUSH1 0x40 MLOAD PUSH2 0x1FD SWAP2 SWAP1 PUSH2 0x7BC JUMP JUMPDEST PUSH1 0x40 MLOAD DUP1 SWAP2 SUB SWAP1 RETURN JUMPDEST CALLVALUE DUP1 ISZERO PUSH2 0x212 JUMPI PUSH1 0x0 DUP1 REVERT JUMPDEST POP PUSH2 0x21B PUSH2 0x659 JUMP JUMPDEST PUSH1 0x40 MLOAD PUSH2 0x228 SWAP2 SWAP1 PUSH2 0x7D7 JUMP JUMPDEST PUSH1 0x40 MLOAD DUP1 SWAP2 SUB SWAP1 RETURN JUMPDEST PUSH1 0x0 PUSH20 0xFFFFFFFFFFFFFFFFFFFFFFFFFFFFFFFFFFFFFFFF AND PUSH1 0x1 PUSH1 0x0 SWAP1 SLOAD SWAP1 PUSH2 0x100 EXP SWAP1 DIV PUSH20 0xFFFFFFFFFFFFFFFFFFFFFFFFFFFFFFFFFFFFFFFF AND PUSH20 0xFFFFFFFFFFFFFFFFFFFFFFFFFFFFFFFFFFFFFFFF AND EQ ISZERO PUSH2 0x28D JUMPI PUSH1 0x0 DUP1 REVERT JUMPDEST PUSH1 0x5 PUSH1 0x1 SWAP1 SLOAD SWAP1 PUSH2 0x100 EXP SWAP1 DIV PUSH1 0xFF AND PUSH2 0x2A6 JUMPI PUSH1 0x0 DUP1 REVERT JUMPDEST PUSH1 0x3 SLOAD DUP3 DUP3 PUSH1 0x40 MLOAD PUSH1 0x20 ADD PUSH2 0x2BC SWAP3 SWAP2 SWAP1 PUSH2 0x775 JUMP JUMPDEST PUSH1 0x40 MLOAD PUSH1 0x20 DUP2 DUP4 SUB SUB DUP2 MSTORE SWAP1 PUSH1 0x40 MSTORE DUP1 MLOAD SWAP1 PUSH1 0x20 ADD KECCAK256 EQ PUSH2 0x2DC JUMPI PUSH1 0x0 DUP1 REVERT JUMPDEST DUP2 ISZERO ISZERO PUSH1 0x5 PUSH1 0x0 SWAP1 SLOAD SWAP1 PUSH2 0x100 EXP SWAP1 DIV PUSH1 0xFF AND ISZERO ISZERO EQ ISZERO PUSH2 0x365 JUMPI PUSH1 0x1 PUSH1 0x0 SWAP1 SLOAD SWAP1 PUSH2 0x100 EXP SWAP1 DIV PUSH20 0xFFFFFFFFFFFFFFFFFFFFFFFFFFFFFFFFFFFFFFFF AND PUSH20 0xFFFFFFFFFFFFFFFFFFFFFFFFFFFFFFFFFFFFFFFF AND PUSH2 0x8FC SELFBALANCE SWAP1 DUP2 ISZERO MUL SWAP1 PUSH1 0x40 MLOAD PUSH1 0x0 PUSH1 0x40 MLOAD DUP1 DUP4 SUB DUP2 DUP6 DUP9 DUP9 CALL SWAP4 POP POP POP POP ISZERO DUP1 ISZERO PUSH2 0x35F JUMPI RETURNDATASIZE PUSH1 0x0 DUP1 RETURNDATACOPY RETURNDATASIZE PUSH1 0x0 REVERT JUMPDEST POP PUSH2 0x3CD JUMP JUMPDEST PUSH1 0x0 DUP1 SLOAD SWAP1 PUSH2 0x100 EXP SWAP1 DIV PUSH20 0xFFFFFFFFFFFFFFFFFFFFFFFFFFFFFFFFFFFFFFFF AND PUSH20 0xFFFFFFFFFFFFFFFFFFFFFFFFFFFFFFFFFFFFFFFF AND PUSH2 0x8FC SELFBALANCE SWAP1 DUP2 ISZERO MUL SWAP1 PUSH1 0x40 MLOAD PUSH1 0x0 PUSH1 0x40 MLOAD DUP1 DUP4 SUB DUP2 DUP6 DUP9 DUP9 CALL SWAP4 POP POP POP POP ISZERO DUP1 ISZERO PUSH2 0x3CB JUMPI RETURNDATASIZE PUSH1 0x0 DUP1 RETURNDATACOPY RETURNDATASIZE PUSH1 0x0 REVERT JUMPDEST POP JUMPDEST POP POP JUMP JUMPDEST PUSH1 0x5 PUSH1 0x1 SWAP1 SLOAD SWAP1 PUSH2 0x100 EXP SWAP1 DIV PUSH1 0xFF AND DUP2 JUMP JUMPDEST PUSH1 0x1 PUSH1 0x0 SWAP1 SLOAD SWAP1 PUSH2 0x100 EXP SWAP1 DIV PUSH20 0xFFFFFFFFFFFFFFFFFFFFFFFFFFFFFFFFFFFFFFFF AND DUP2 JUMP JUMPDEST PUSH1 0x3 SLOAD DUP2 JUMP JUMPDEST PUSH1 0x0 PUSH20 0xFFFFFFFFFFFFFFFFFFFFFFFFFFFFFFFFFFFFFFFF AND PUSH1 0x1 PUSH1 0x0 SWAP1 SLOAD SWAP1 PUSH2 0x100 EXP SWAP1 DIV PUSH20 0xFFFFFFFFFFFFFFFFFFFFFFFFFFFFFFFFFFFFFFFF AND PUSH20 0xFFFFFFFFFFFFFFFFFFFFFFFFFFFFFFFFFFFFFFFF AND EQ PUSH2 0x46B JUMPI PUSH1 0x0 DUP1 REVERT JUMPDEST PUSH1 0x4 SLOAD CALLVALUE EQ PUSH2 0x479 JUMPI PUSH1 0x0 DUP1 REVERT JUMPDEST CALLER PUSH1 0x1 PUSH1 0x0 PUSH2 0x100 EXP DUP2 SLOAD DUP2 PUSH20 0xFFFFFFFFFFFFFFFFFFFFFFFFFFFFFFFFFFFFFFFF MUL NOT AND SWAP1 DUP4 PUSH20 0xFFFFFFFFFFFFFFFFFFFFFFFFFFFFFFFFFFFFFFFF AND MUL OR SWAP1 SSTORE POP DUP1 PUSH1 0x3 DUP2 SWAP1 SSTORE POP POP JUMP JUMPDEST PUSH1 0x0 PUSH20 0xFFFFFFFFFFFFFFFFFFFFFFFFFFFFFFFFFFFFFFFF AND PUSH1 0x1 PUSH1 0x0 SWAP1 SLOAD SWAP1 PUSH2 0x100 EXP SWAP1 DIV PUSH20 0xFFFFFFFFFFFFFFFFFFFFFFFFFFFFFFFFFFFFFFFF AND PUSH20 0xFFFFFFFFFFFFFFFFFFFFFFFFFFFFFFFFFFFFFFFF AND EQ ISZERO PUSH2 0x520 JUMPI PUSH1 0x0 DUP1 REVERT JUMPDEST PUSH1 0x5 PUSH1 0x1 SWAP1 SLOAD SWAP1 PUSH2 0x100 EXP SWAP1 DIV PUSH1 0xFF AND ISZERO PUSH2 0x53A JUMPI PUSH1 0x0 DUP1 REVERT JUMPDEST PUSH1 0x2 SLOAD DUP3 DUP3 PUSH1 0x40 MLOAD PUSH1 0x20 ADD PUSH2 0x550 SWAP3 SWAP2 SWAP1 PUSH2 0x775 JUMP JUMPDEST PUSH1 0x40 MLOAD PUSH1 0x20 DUP2 DUP4 SUB SUB DUP2 MSTORE SWAP1 PUSH1 0x40 MSTORE DUP1 MLOAD SWAP1 PUSH1 0x20 ADD KECCAK256 EQ PUSH2 0x570 JUMPI PUSH1 0x0 DUP1 REVERT JUMPDEST DUP2 PUSH1 0x5 PUSH1 0x0 PUSH2 0x100 EXP DUP2 SLOAD DUP2 PUSH1 0xFF MUL NOT AND SWAP1 DUP4 ISZERO ISZERO MUL OR SWAP1 SSTORE POP PUSH1 0x1 PUSH1 0x5 PUSH1 0x1 PUSH2 0x100 EXP DUP2 SLOAD DUP2 PUSH1 0xFF MUL NOT AND SWAP1 DUP4 ISZERO ISZERO MUL OR SWAP1 SSTORE POP PUSH1 0x0 DUP1 SLOAD SWAP1 PUSH2 0x100 EXP SWAP1 DIV PUSH20 0xFFFFFFFFFFFFFFFFFFFFFFFFFFFFFFFFFFFFFFFF AND PUSH20 0xFFFFFFFFFFFFFFFFFFFFFFFFFFFFFFFFFFFFFFFF AND PUSH2 0x8FC PUSH1 0x4 SELFBALANCE PUSH2 0x5EC SWAP2 SWAP1 PUSH2 0x80D JUMP JUMPDEST SWAP1 DUP2 ISZERO MUL SWAP1 PUSH1 0x40 MLOAD PUSH1 0x0 PUSH1 0x40 MLOAD DUP1 DUP4 SUB DUP2 DUP6 DUP9 DUP9 CALL SWAP4 POP POP POP POP ISZERO DUP1 ISZERO PUSH2 0x617 JUMPI RETURNDATASIZE PUSH1 0x0 DUP1 RETURNDATACOPY RETURNDATASIZE PUSH1 0x0 REVERT JUMPDEST POP POP POP JUMP JUMPDEST PUSH1 0x4 SLOAD DUP2 JUMP JUMPDEST PUSH1 0x0 DUP1 SLOAD SWAP1 PUSH2 0x100 EXP SWAP1 DIV PUSH20 0xFFFFFFFFFFFFFFFFFFFFFFFFFFFFFFFFFFFFFFFF AND DUP2 JUMP JUMPDEST PUSH1 0x5 PUSH1 0x0 SWAP1 SLOAD SWAP1 PUSH2 0x100 EXP SWAP1 DIV PUSH1 0xFF AND DUP2 JUMP JUMPDEST PUSH1 0x2 SLOAD DUP2 JUMP JUMPDEST PUSH1 0x0 DUP2 CALLDATALOAD SWAP1 POP PUSH2 0x66E DUP2 PUSH2 0x8FF JUMP JUMPDEST SWAP3 SWAP2 POP POP JUMP JUMPDEST PUSH1 0x0 DUP2 CALLDATALOAD SWAP1 POP PUSH2 0x683 DUP2 PUSH2 0x916 JUMP JUMPDEST SWAP3 SWAP2 POP POP JUMP JUMPDEST PUSH1 0x0 DUP2 CALLDATALOAD SWAP1 POP PUSH2 0x698 DUP2 PUSH2 0x92D JUMP JUMPDEST SWAP3 SWAP2 POP POP JUMP JUMPDEST PUSH1 0x0 DUP1 PUSH1 0x40 DUP4 DUP6 SUB SLT ISZERO PUSH2 0x6B5 JUMPI PUSH2 0x6B4 PUSH2 0x8ED JUMP JUMPDEST JUMPDEST PUSH1 0x0 PUSH2 0x6C3 DUP6 DUP3 DUP7 ADD PUSH2 0x65F JUMP JUMPDEST SWAP3 POP POP PUSH1 0x20 PUSH2 0x6D4 DUP6 DUP3 DUP7 ADD PUSH2 0x689 JUMP JUMPDEST SWAP2 POP POP SWAP3 POP SWAP3 SWAP1 POP JUMP JUMPDEST PUSH1 0x0 PUSH1 0x20 DUP3 DUP5 SUB SLT ISZERO PUSH2 0x6F4 JUMPI PUSH2 0x6F3 PUSH2 0x8ED JUMP JUMPDEST JUMPDEST PUSH1 0x0 PUSH2 0x702 DUP5 DUP3 DUP6 ADD PUSH2 0x674 JUMP JUMPDEST SWAP2 POP POP SWAP3 SWAP2 POP POP JUMP JUMPDEST PUSH2 0x714 DUP2 PUSH2 0x83E JUMP JUMPDEST DUP3 MSTORE POP POP JUMP JUMPDEST PUSH2 0x723 DUP2 PUSH2 0x850 JUMP JUMPDEST DUP3 MSTORE POP POP JUMP JUMPDEST PUSH2 0x73A PUSH2 0x735 DUP3 PUSH2 0x850 JUMP JUMPDEST PUSH2 0x890 JUMP JUMPDEST DUP3 MSTORE POP POP JUMP JUMPDEST PUSH2 0x749 DUP2 PUSH2 0x85C JUMP JUMPDEST DUP3 MSTORE POP POP JUMP JUMPDEST PUSH2 0x758 DUP2 PUSH2 0x886 JUMP JUMPDEST DUP3 MSTORE POP POP JUMP JUMPDEST PUSH2 0x76F PUSH2 0x76A DUP3 PUSH2 0x886 JUMP JUMPDEST PUSH2 0x8A2 JUMP JUMPDEST DUP3 MSTORE POP POP JUMP JUMPDEST PUSH1 0x0 PUSH2 0x781 DUP3 DUP6 PUSH2 0x729 JUMP JUMPDEST PUSH1 0x1 DUP3 ADD SWAP2 POP PUSH2 0x791 DUP3 DUP5 PUSH2 0x75E JUMP JUMPDEST PUSH1 0x20 DUP3 ADD SWAP2 POP DUP2 SWAP1 POP SWAP4 SWAP3 POP POP POP JUMP JUMPDEST PUSH1 0x0 PUSH1 0x20 DUP3 ADD SWAP1 POP PUSH2 0x7B6 PUSH1 0x0 DUP4 ADD DUP5 PUSH2 0x70B JUMP JUMPDEST SWAP3 SWAP2 POP POP JUMP JUMPDEST PUSH1 0x0 PUSH1 0x20 DUP3 ADD SWAP1 POP PUSH2 0x7D1 PUSH1 0x0 DUP4 ADD DUP5 PUSH2 0x71A JUMP JUMPDEST SWAP3 SWAP2 POP POP JUMP JUMPDEST PUSH1 0x0 PUSH1 0x20 DUP3 ADD SWAP1 POP PUSH2 0x7EC PUSH1 0x0 DUP4 ADD DUP5 PUSH2 0x740 JUMP JUMPDEST SWAP3 SWAP2 POP POP JUMP JUMPDEST PUSH1 0x0 PUSH1 0x20 DUP3 ADD SWAP1 POP PUSH2 0x807 PUSH1 0x0 DUP4 ADD DUP5 PUSH2 0x74F JUMP JUMPDEST SWAP3 SWAP2 POP POP JUMP JUMPDEST PUSH1 0x0 PUSH2 0x818 DUP3 PUSH2 0x886 JUMP JUMPDEST SWAP2 POP PUSH2 0x823 DUP4 PUSH2 0x886 JUMP JUMPDEST SWAP3 POP DUP3 PUSH2 0x833 JUMPI PUSH2 0x832 PUSH2 0x8BE JUMP JUMPDEST JUMPDEST DUP3 DUP3 DIV SWAP1 POP SWAP3 SWAP2 POP POP JUMP JUMPDEST PUSH1 0x0 PUSH2 0x849 DUP3 PUSH2 0x866 JUMP JUMPDEST SWAP1 POP SWAP2 SWAP1 POP JUMP JUMPDEST PUSH1 0x0 DUP2 ISZERO ISZERO SWAP1 POP SWAP2 SWAP1 POP JUMP JUMPDEST PUSH1 0x0 DUP2 SWAP1 POP SWAP2 SWAP1 POP JUMP JUMPDEST PUSH1 0x0 PUSH20 0xFFFFFFFFFFFFFFFFFFFFFFFFFFFFFFFFFFFFFFFF DUP3 AND SWAP1 POP SWAP2 SWAP1 POP JUMP JUMPDEST PUSH1 0x0 DUP2 SWAP1 POP SWAP2 SWAP1 POP JUMP JUMPDEST PUSH1 0x0 PUSH2 0x89B DUP3 PUSH2 0x8AC JUMP JUMPDEST SWAP1 POP SWAP2 SWAP1 POP JUMP JUMPDEST PUSH1 0x0 DUP2 SWAP1 POP SWAP2 SWAP1 POP JUMP JUMPDEST PUSH1 0x0 PUSH2 0x8B7 DUP3 PUSH2 0x8F2 JUMP JUMPDEST SWAP1 POP SWAP2 SWAP1 POP JUMP JUMPDEST PUSH32 0x4E487B7100000000000000000000000000000000000000000000000000000000 PUSH1 0x0 MSTORE PUSH1 0x12 PUSH1 0x4 MSTORE PUSH1 0x24 PUSH1 0x0 REVERT JUMPDEST PUSH1 0x0 DUP1 REVERT JUMPDEST PUSH1 0x0 DUP2 PUSH1 0xF8 SHL SWAP1 POP SWAP2 SWAP1 POP JUMP JUMPDEST PUSH2 0x908 DUP2 PUSH2 0x850 JUMP JUMPDEST DUP2 EQ PUSH2 0x913 JUMPI PUSH1 0x0 DUP1 REVERT JUMPDEST POP JUMP JUMPDEST PUSH2 0x91F DUP2 PUSH2 0x85C JUMP JUMPDEST DUP2 EQ PUSH2 0x92A JUMPI PUSH1 0x0 DUP1 REVERT JUMPDEST POP JUMP JUMPDEST PUSH2 0x936 DUP2 PUSH2 0x886 JUMP JUMPDEST DUP2 EQ PUSH2 0x941 JUMPI PUSH1 0x0 DUP1 REVERT JUMPDEST POP JUMP INVALID LOG2 PUSH5 0x6970667358 0x22 SLT KECCAK256 0xB8 CALLDATASIZE DUP12 0xC3 0xED DIFFICULTY MLOAD DUP15 0xBD 0x1F 0xED 0xF8 SWAP6 0xCA 0x23 0xAD GASPRICE SWAP10 0x4E 0xF8 PUSH25 0x3AEF03B834522CBA1CBC5B64736F6C63430008070033000000 "
				},
				"gasEstimates": {
					"creation": {
						"codeDepositCost": "485200",
						"executionCost": "infinite",
						"totalCost": "infinite"
					},
					"external": {
						"Reveal1(bool,uint256)": "infinite",
						"Reveal2(bool,uint256)": "infinite",
						"TakeBet(bytes32)": "51144",
						"betAmount()": "2451",
						"player1()": "2555",
						"player1Choice()": "2537",
						"player1Commitment()": "2517",
						"player2()": "2559",
						"player2Commitment()": "2496",
						"revealed()": "2544"
					}
				},
				"methodIdentifiers": {
					"Reveal1(bool,uint256)": "cf7c3708",
					"Reveal2(bool,uint256)": "2c0f9aaa",
					"TakeBet(bytes32)": "b422de9d",
					"betAmount()": "d24257c0",
					"player1()": "d30895e4",
					"player1Choice()": "d8b1f219",
					"player1Commitment()": "eb13175d",
					"player2()": "59a5f12d",
					"player2Commitment()": "603f5088",
					"revealed()": "51830227"
				}
			},
			"storageLayout": {
				"storage": [
					{
						"astId": 3,
						"contract": "contracts/Coin2.sol:CoinFlip",
						"label": "player1",
						"offset": 0,
						"slot": "0",
						"type": "t_address_payable"
					},
					{
						"astId": 5,
						"contract": "contracts/Coin2.sol:CoinFlip",
						"label": "player2",
						"offset": 0,
						"slot": "1",
						"type": "t_address_payable"
					},
					{
						"astId": 7,
						"contract": "contracts/Coin2.sol:CoinFlip",
						"label": "player1Commitment",
						"offset": 0,
						"slot": "2",
						"type": "t_bytes32"
					},
					{
						"astId": 9,
						"contract": "contracts/Coin2.sol:CoinFlip",
						"label": "player2Commitment",
						"offset": 0,
						"slot": "3",
						"type": "t_bytes32"
					},
					{
						"astId": 11,
						"contract": "contracts/Coin2.sol:CoinFlip",
						"label": "betAmount",
						"offset": 0,
						"slot": "4",
						"type": "t_uint256"
					},
					{
						"astId": 13,
						"contract": "contracts/Coin2.sol:CoinFlip",
						"label": "player1Choice",
						"offset": 0,
						"slot": "5",
						"type": "t_bool"
					},
					{
						"astId": 15,
						"contract": "contracts/Coin2.sol:CoinFlip",
						"label": "revealed",
						"offset": 1,
						"slot": "5",
						"type": "t_bool"
					}
				],
				"types": {
					"t_address_payable": {
						"encoding": "inplace",
						"label": "address payable",
						"numberOfBytes": "20"
					},
					"t_bool": {
						"encoding": "inplace",
						"label": "bool",
						"numberOfBytes": "1"
					},
					"t_bytes32": {
						"encoding": "inplace",
						"label": "bytes32",
						"numberOfBytes": "32"
					},
					"t_uint256": {
						"encoding": "inplace",
						"label": "uint256",
						"numberOfBytes": "32"
					}
				}
			},
			"userdoc": {
				"kind": "user",
				"methods": {},
				"version": 1
			}
		}
	}
}