{
	"contracts/Coin2.sol": {
		"CoinFlip": {
			"abi": [
				{
					"inputs": [
						{
							"internalType": "bytes32",
							"name": "commitment",
							"type": "bytes32"
						}
					],
					"stateMutability": "payable",
					"type": "constructor"
				},
				{
					"inputs": [
						{
							"internalType": "bool",
							"name": "choice",
							"type": "bool"
						},
						{
							"internalType": "uint256",
							"name": "nonce",
							"type": "uint256"
						}
					],
					"name": "Reveal1",
					"outputs": [],
					"stateMutability": "nonpayable",
					"type": "function"
				},
				{
					"inputs": [
						{
							"internalType": "bytes32",
							"name": "commitment",
							"type": "bytes32"
						}
					],
					"name": "TakeBet",
					"outputs": [],
					"stateMutability": "payable",
					"type": "function"
				},
				{
					"inputs": [],
					"name": "betAmount",
					"outputs": [
						{
							"internalType": "uint256",
							"name": "",
							"type": "uint256"
						}
					],
					"stateMutability": "view",
					"type": "function"
				},
				{
					"inputs": [],
					"name": "player1",
					"outputs": [
						{
							"internalType": "address payable",
							"name": "",
							"type": "address"
						}
					],
					"stateMutability": "view",
					"type": "function"
				},
				{
					"inputs": [],
					"name": "player1Choice",
					"outputs": [
						{
							"internalType": "bool",
							"name": "",
							"type": "bool"
						}
					],
					"stateMutability": "view",
					"type": "function"
				},
				{
					"inputs": [],
					"name": "player1Commitment",
					"outputs": [
						{
							"internalType": "bytes32",
							"name": "",
							"type": "bytes32"
						}
					],
					"stateMutability": "view",
					"type": "function"
				},
				{
					"inputs": [],
					"name": "player2",
					"outputs": [
						{
							"internalType": "address payable",
							"name": "",
							"type": "address"
						}
					],
					"stateMutability": "view",
					"type": "function"
				},
				{
					"inputs": [],
					"name": "player2Commitment",
					"outputs": [
						{
							"internalType": "bytes32",
							"name": "",
							"type": "bytes32"
						}
					],
					"stateMutability": "view",
					"type": "function"
				}
			],
			"devdoc": {
				"kind": "dev",
				"methods": {},
				"version": 1
			},
			"evm": {
				"assembly": "    /* \"contracts/Coin2.sol\":62:939  contract CoinFlip {\r... */\n  mstore(0x40, 0x80)\n    /* \"contracts/Coin2.sol\":310:471  constructor(bytes32 commitment) payable {\r... */\n  mload(0x40)\n  sub(codesize, bytecodeSize)\n  dup1\n  bytecodeSize\n  dup4\n  codecopy\n  dup2\n  dup2\n  add\n  0x40\n  mstore\n  dup2\n  add\n  swap1\n  tag_1\n  swap2\n  swap1\n  tag_2\n  jump\t// in\ntag_1:\n    /* \"contracts/Coin2.sol\":379:389  msg.sender */\n  caller\n    /* \"contracts/Coin2.sol\":361:368  player1 */\n  0x00\n  dup1\n    /* \"contracts/Coin2.sol\":361:390  player1 = payable(msg.sender) */\n  0x0100\n  exp\n  dup2\n  sload\n  dup2\n  0xffffffffffffffffffffffffffffffffffffffff\n  mul\n  not\n  and\n  swap1\n  dup4\n  0xffffffffffffffffffffffffffffffffffffffff\n  and\n  mul\n  or\n  swap1\n  sstore\n  pop\n    /* \"contracts/Coin2.sol\":421:431  commitment */\n  dup1\n    /* \"contracts/Coin2.sol\":401:418  player1Commitment */\n  0x02\n    /* \"contracts/Coin2.sol\":401:431  player1Commitment = commitment */\n  dup2\n  swap1\n  sstore\n  pop\n    /* \"contracts/Coin2.sol\":454:463  msg.value */\n  callvalue\n    /* \"contracts/Coin2.sol\":442:451  betAmount */\n  0x04\n    /* \"contracts/Coin2.sol\":442:463  betAmount = msg.value */\n  dup2\n  swap1\n  sstore\n  pop\n    /* \"contracts/Coin2.sol\":310:471  constructor(bytes32 commitment) payable {\r... */\n  pop\n    /* \"contracts/Coin2.sol\":62:939  contract CoinFlip {\r... */\n  jump(tag_5)\n    /* \"#utility.yul\":7:150   */\ntag_7:\n    /* \"#utility.yul\":64:69   */\n  0x00\n    /* \"#utility.yul\":95:101   */\n  dup2\n    /* \"#utility.yul\":89:102   */\n  mload\n    /* \"#utility.yul\":80:102   */\n  swap1\n  pop\n    /* \"#utility.yul\":111:144   */\n  tag_9\n    /* \"#utility.yul\":138:143   */\n  dup2\n    /* \"#utility.yul\":111:144   */\n  tag_10\n  jump\t// in\ntag_9:\n    /* \"#utility.yul\":7:150   */\n  swap3\n  swap2\n  pop\n  pop\n  jump\t// out\n    /* \"#utility.yul\":156:507   */\ntag_2:\n    /* \"#utility.yul\":226:232   */\n  0x00\n    /* \"#utility.yul\":275:277   */\n  0x20\n    /* \"#utility.yul\":263:272   */\n  dup3\n    /* \"#utility.yul\":254:261   */\n  dup5\n    /* \"#utility.yul\":250:273   */\n  sub\n    /* \"#utility.yul\":246:278   */\n  slt\n    /* \"#utility.yul\":243:362   */\n  iszero\n  tag_12\n  jumpi\n    /* \"#utility.yul\":281:360   */\n  tag_13\n  tag_14\n  jump\t// in\ntag_13:\n    /* \"#utility.yul\":243:362   */\ntag_12:\n    /* \"#utility.yul\":401:402   */\n  0x00\n    /* \"#utility.yul\":426:490   */\n  tag_15\n    /* \"#utility.yul\":482:489   */\n  dup5\n    /* \"#utility.yul\":473:479   */\n  dup3\n    /* \"#utility.yul\":462:471   */\n  dup6\n    /* \"#utility.yul\":458:480   */\n  add\n    /* \"#utility.yul\":426:490   */\n  tag_7\n  jump\t// in\ntag_15:\n    /* \"#utility.yul\":416:490   */\n  swap2\n  pop\n    /* \"#utility.yul\":372:500   */\n  pop\n    /* \"#utility.yul\":156:507   */\n  swap3\n  swap2\n  pop\n  pop\n  jump\t// out\n    /* \"#utility.yul\":594:671   */\ntag_18:\n    /* \"#utility.yul\":631:638   */\n  0x00\n    /* \"#utility.yul\":660:665   */\n  dup2\n    /* \"#utility.yul\":649:665   */\n  swap1\n  pop\n    /* \"#utility.yul\":594:671   */\n  swap2\n  swap1\n  pop\n  jump\t// out\n    /* \"#utility.yul\":800:917   */\ntag_14:\n    /* \"#utility.yul\":909:910   */\n  0x00\n    /* \"#utility.yul\":906:907   */\n  dup1\n    /* \"#utility.yul\":899:911   */\n  revert\n    /* \"#utility.yul\":923:1045   */\ntag_10:\n    /* \"#utility.yul\":996:1020   */\n  tag_24\n    /* \"#utility.yul\":1014:1019   */\n  dup2\n    /* \"#utility.yul\":996:1020   */\n  tag_18\n  jump\t// in\ntag_24:\n    /* \"#utility.yul\":989:994   */\n  dup2\n    /* \"#utility.yul\":986:1021   */\n  eq\n    /* \"#utility.yul\":976:1039   */\n  tag_25\n  jumpi\n    /* \"#utility.yul\":1035:1036   */\n  0x00\n    /* \"#utility.yul\":1032:1033   */\n  dup1\n    /* \"#utility.yul\":1025:1037   */\n  revert\n    /* \"#utility.yul\":976:1039   */\ntag_25:\n    /* \"#utility.yul\":923:1045   */\n  pop\n  jump\t// out\n    /* \"contracts/Coin2.sol\":62:939  contract CoinFlip {\r... */\ntag_5:\n  dataSize(sub_0)\n  dup1\n  dataOffset(sub_0)\n  0x00\n  codecopy\n  0x00\n  return\nstop\n\nsub_0: assembly {\n        /* \"contracts/Coin2.sol\":62:939  contract CoinFlip {\r... */\n      mstore(0x40, 0x80)\n      jumpi(tag_1, lt(calldatasize, 0x04))\n      shr(0xe0, calldataload(0x00))\n      dup1\n      0xd24257c0\n      gt\n      tag_10\n      jumpi\n      dup1\n      0xd24257c0\n      eq\n      tag_6\n      jumpi\n      dup1\n      0xd30895e4\n      eq\n      tag_7\n      jumpi\n      dup1\n      0xd8b1f219\n      eq\n      tag_8\n      jumpi\n      dup1\n      0xeb13175d\n      eq\n      tag_9\n      jumpi\n      jump(tag_1)\n    tag_10:\n      dup1\n      0x59a5f12d\n      eq\n      tag_2\n      jumpi\n      dup1\n      0x603f5088\n      eq\n      tag_3\n      jumpi\n      dup1\n      0xb422de9d\n      eq\n      tag_4\n      jumpi\n      dup1\n      0xcf7c3708\n      eq\n      tag_5\n      jumpi\n    tag_1:\n      0x00\n      dup1\n      revert\n        /* \"contracts/Coin2.sol\":124:154  address payable public player2 */\n    tag_2:\n      callvalue\n      dup1\n      iszero\n      tag_11\n      jumpi\n      0x00\n      dup1\n      revert\n    tag_11:\n      pop\n      tag_12\n      tag_13\n      jump\t// in\n    tag_12:\n      mload(0x40)\n      tag_14\n      swap2\n      swap1\n      tag_15\n      jump\t// in\n    tag_14:\n      mload(0x40)\n      dup1\n      swap2\n      sub\n      swap1\n      return\n        /* \"contracts/Coin2.sol\":202:234  bytes32 public player2Commitment */\n    tag_3:\n      callvalue\n      dup1\n      iszero\n      tag_16\n      jumpi\n      0x00\n      dup1\n      revert\n    tag_16:\n      pop\n      tag_17\n      tag_18\n      jump\t// in\n    tag_17:\n      mload(0x40)\n      tag_19\n      swap2\n      swap1\n      tag_20\n      jump\t// in\n    tag_19:\n      mload(0x40)\n      dup1\n      swap2\n      sub\n      swap1\n      return\n        /* \"contracts/Coin2.sol\":479:705  function TakeBet(bytes32 commitment) public payable {\r... */\n    tag_4:\n      tag_21\n      0x04\n      dup1\n      calldatasize\n      sub\n      dup2\n      add\n      swap1\n      tag_22\n      swap2\n      swap1\n      tag_23\n      jump\t// in\n    tag_22:\n      tag_24\n      jump\t// in\n    tag_21:\n      stop\n        /* \"contracts/Coin2.sol\":713:934  function Reveal1(bool choice, uint256 nonce) public {\r... */\n    tag_5:\n      callvalue\n      dup1\n      iszero\n      tag_25\n      jumpi\n      0x00\n      dup1\n      revert\n    tag_25:\n      pop\n      tag_26\n      0x04\n      dup1\n      calldatasize\n      sub\n      dup2\n      add\n      swap1\n      tag_27\n      swap2\n      swap1\n      tag_28\n      jump\t// in\n    tag_27:\n      tag_29\n      jump\t// in\n    tag_26:\n      stop\n        /* \"contracts/Coin2.sol\":243:267  uint256 public betAmount */\n    tag_6:\n      callvalue\n      dup1\n      iszero\n      tag_30\n      jumpi\n      0x00\n      dup1\n      revert\n    tag_30:\n      pop\n      tag_31\n      tag_32\n      jump\t// in\n    tag_31:\n      mload(0x40)\n      tag_33\n      swap2\n      swap1\n      tag_34\n      jump\t// in\n    tag_33:\n      mload(0x40)\n      dup1\n      swap2\n      sub\n      swap1\n      return\n        /* \"contracts/Coin2.sol\":87:117  address payable public player1 */\n    tag_7:\n      callvalue\n      dup1\n      iszero\n      tag_35\n      jumpi\n      0x00\n      dup1\n      revert\n    tag_35:\n      pop\n      tag_36\n      tag_37\n      jump\t// in\n    tag_36:\n      mload(0x40)\n      tag_38\n      swap2\n      swap1\n      tag_15\n      jump\t// in\n    tag_38:\n      mload(0x40)\n      dup1\n      swap2\n      sub\n      swap1\n      return\n        /* \"contracts/Coin2.sol\":276:301  bool public player1Choice */\n    tag_8:\n      callvalue\n      dup1\n      iszero\n      tag_39\n      jumpi\n      0x00\n      dup1\n      revert\n    tag_39:\n      pop\n      tag_40\n      tag_41\n      jump\t// in\n    tag_40:\n      mload(0x40)\n      tag_42\n      swap2\n      swap1\n      tag_43\n      jump\t// in\n    tag_42:\n      mload(0x40)\n      dup1\n      swap2\n      sub\n      swap1\n      return\n        /* \"contracts/Coin2.sol\":163:195  bytes32 public player1Commitment */\n    tag_9:\n      callvalue\n      dup1\n      iszero\n      tag_44\n      jumpi\n      0x00\n      dup1\n      revert\n    tag_44:\n      pop\n      tag_45\n      tag_46\n      jump\t// in\n    tag_45:\n      mload(0x40)\n      tag_47\n      swap2\n      swap1\n      tag_20\n      jump\t// in\n    tag_47:\n      mload(0x40)\n      dup1\n      swap2\n      sub\n      swap1\n      return\n        /* \"contracts/Coin2.sol\":124:154  address payable public player2 */\n    tag_13:\n      0x01\n      0x00\n      swap1\n      sload\n      swap1\n      0x0100\n      exp\n      swap1\n      div\n      0xffffffffffffffffffffffffffffffffffffffff\n      and\n      dup2\n      jump\t// out\n        /* \"contracts/Coin2.sol\":202:234  bytes32 public player2Commitment */\n    tag_18:\n      sload(0x03)\n      dup2\n      jump\t// out\n        /* \"contracts/Coin2.sol\":479:705  function TakeBet(bytes32 commitment) public payable {\r... */\n    tag_24:\n        /* \"contracts/Coin2.sol\":569:570  0 */\n      0x00\n        /* \"contracts/Coin2.sol\":550:571  player2 == address(0) */\n      0xffffffffffffffffffffffffffffffffffffffff\n      and\n        /* \"contracts/Coin2.sol\":550:557  player2 */\n      0x01\n      0x00\n      swap1\n      sload\n      swap1\n      0x0100\n      exp\n      swap1\n      div\n      0xffffffffffffffffffffffffffffffffffffffff\n      and\n        /* \"contracts/Coin2.sol\":550:571  player2 == address(0) */\n      0xffffffffffffffffffffffffffffffffffffffff\n      and\n      eq\n        /* \"contracts/Coin2.sol\":542:572  require(player2 == address(0)) */\n      tag_49\n      jumpi\n      0x00\n      dup1\n      revert\n    tag_49:\n        /* \"contracts/Coin2.sol\":604:613  betAmount */\n      sload(0x04)\n        /* \"contracts/Coin2.sol\":591:600  msg.value */\n      callvalue\n        /* \"contracts/Coin2.sol\":591:613  msg.value == betAmount */\n      eq\n        /* \"contracts/Coin2.sol\":583:614  require(msg.value == betAmount) */\n      tag_50\n      jumpi\n      0x00\n      dup1\n      revert\n    tag_50:\n        /* \"contracts/Coin2.sol\":645:655  msg.sender */\n      caller\n        /* \"contracts/Coin2.sol\":627:634  player2 */\n      0x01\n      0x00\n        /* \"contracts/Coin2.sol\":627:656  player2 = payable(msg.sender) */\n      0x0100\n      exp\n      dup2\n      sload\n      dup2\n      0xffffffffffffffffffffffffffffffffffffffff\n      mul\n      not\n      and\n      swap1\n      dup4\n      0xffffffffffffffffffffffffffffffffffffffff\n      and\n      mul\n      or\n      swap1\n      sstore\n      pop\n        /* \"contracts/Coin2.sol\":687:697  commitment */\n      dup1\n        /* \"contracts/Coin2.sol\":667:684  player2Commitment */\n      0x03\n        /* \"contracts/Coin2.sol\":667:697  player2Commitment = commitment */\n      dup2\n      swap1\n      sstore\n      pop\n        /* \"contracts/Coin2.sol\":479:705  function TakeBet(bytes32 commitment) public payable {\r... */\n      pop\n      jump\t// out\n        /* \"contracts/Coin2.sol\":713:934  function Reveal1(bool choice, uint256 nonce) public {\r... */\n    tag_29:\n        /* \"contracts/Coin2.sol\":803:804  0 */\n      0x00\n        /* \"contracts/Coin2.sol\":784:805  player2 != address(0) */\n      0xffffffffffffffffffffffffffffffffffffffff\n      and\n        /* \"contracts/Coin2.sol\":784:791  player2 */\n      0x01\n      0x00\n      swap1\n      sload\n      swap1\n      0x0100\n      exp\n      swap1\n      div\n      0xffffffffffffffffffffffffffffffffffffffff\n      and\n        /* \"contracts/Coin2.sol\":784:805  player2 != address(0) */\n      0xffffffffffffffffffffffffffffffffffffffff\n      and\n      eq\n      iszero\n        /* \"contracts/Coin2.sol\":776:806  require(player2 != address(0)) */\n      tag_52\n      jumpi\n      0x00\n      dup1\n      revert\n    tag_52:\n        /* \"contracts/Coin2.sol\":873:890  player1Commitment */\n      sload(0x02)\n        /* \"contracts/Coin2.sol\":854:860  choice */\n      dup3\n        /* \"contracts/Coin2.sol\":862:867  nonce */\n      dup3\n        /* \"contracts/Coin2.sol\":837:868  abi.encodePacked(choice, nonce) */\n      add(0x20, mload(0x40))\n      tag_53\n      swap3\n      swap2\n      swap1\n      tag_54\n      jump\t// in\n    tag_53:\n      mload(0x40)\n      0x20\n      dup2\n      dup4\n      sub\n      sub\n      dup2\n      mstore\n      swap1\n      0x40\n      mstore\n        /* \"contracts/Coin2.sol\":827:869  keccak256(abi.encodePacked(choice, nonce)) */\n      dup1\n      mload\n      swap1\n      0x20\n      add\n      keccak256\n        /* \"contracts/Coin2.sol\":827:890  keccak256(abi.encodePacked(choice, nonce)) == player1Commitment */\n      eq\n        /* \"contracts/Coin2.sol\":819:891  require(keccak256(abi.encodePacked(choice, nonce)) == player1Commitment) */\n      tag_55\n      jumpi\n      0x00\n      dup1\n      revert\n    tag_55:\n        /* \"contracts/Coin2.sol\":920:926  choice */\n      dup2\n        /* \"contracts/Coin2.sol\":904:917  player1Choice */\n      0x05\n      0x00\n        /* \"contracts/Coin2.sol\":904:926  player1Choice = choice */\n      0x0100\n      exp\n      dup2\n      sload\n      dup2\n      0xff\n      mul\n      not\n      and\n      swap1\n      dup4\n      iszero\n      iszero\n      mul\n      or\n      swap1\n      sstore\n      pop\n        /* \"contracts/Coin2.sol\":713:934  function Reveal1(bool choice, uint256 nonce) public {\r... */\n      pop\n      pop\n      jump\t// out\n        /* \"contracts/Coin2.sol\":243:267  uint256 public betAmount */\n    tag_32:\n      sload(0x04)\n      dup2\n      jump\t// out\n        /* \"contracts/Coin2.sol\":87:117  address payable public player1 */\n    tag_37:\n      0x00\n      dup1\n      sload\n      swap1\n      0x0100\n      exp\n      swap1\n      div\n      0xffffffffffffffffffffffffffffffffffffffff\n      and\n      dup2\n      jump\t// out\n        /* \"contracts/Coin2.sol\":276:301  bool public player1Choice */\n    tag_41:\n      0x05\n      0x00\n      swap1\n      sload\n      swap1\n      0x0100\n      exp\n      swap1\n      div\n      0xff\n      and\n      dup2\n      jump\t// out\n        /* \"contracts/Coin2.sol\":163:195  bytes32 public player1Commitment */\n    tag_46:\n      sload(0x02)\n      dup2\n      jump\t// out\n        /* \"#utility.yul\":7:140   */\n    tag_57:\n        /* \"#utility.yul\":50:55   */\n      0x00\n        /* \"#utility.yul\":88:94   */\n      dup2\n        /* \"#utility.yul\":75:95   */\n      calldataload\n        /* \"#utility.yul\":66:95   */\n      swap1\n      pop\n        /* \"#utility.yul\":104:134   */\n      tag_59\n        /* \"#utility.yul\":128:133   */\n      dup2\n        /* \"#utility.yul\":104:134   */\n      tag_60\n      jump\t// in\n    tag_59:\n        /* \"#utility.yul\":7:140   */\n      swap3\n      swap2\n      pop\n      pop\n      jump\t// out\n        /* \"#utility.yul\":146:285   */\n    tag_61:\n        /* \"#utility.yul\":192:197   */\n      0x00\n        /* \"#utility.yul\":230:236   */\n      dup2\n        /* \"#utility.yul\":217:237   */\n      calldataload\n        /* \"#utility.yul\":208:237   */\n      swap1\n      pop\n        /* \"#utility.yul\":246:279   */\n      tag_63\n        /* \"#utility.yul\":273:278   */\n      dup2\n        /* \"#utility.yul\":246:279   */\n      tag_64\n      jump\t// in\n    tag_63:\n        /* \"#utility.yul\":146:285   */\n      swap3\n      swap2\n      pop\n      pop\n      jump\t// out\n        /* \"#utility.yul\":291:430   */\n    tag_65:\n        /* \"#utility.yul\":337:342   */\n      0x00\n        /* \"#utility.yul\":375:381   */\n      dup2\n        /* \"#utility.yul\":362:382   */\n      calldataload\n        /* \"#utility.yul\":353:382   */\n      swap1\n      pop\n        /* \"#utility.yul\":391:424   */\n      tag_67\n        /* \"#utility.yul\":418:423   */\n      dup2\n        /* \"#utility.yul\":391:424   */\n      tag_68\n      jump\t// in\n    tag_67:\n        /* \"#utility.yul\":291:430   */\n      swap3\n      swap2\n      pop\n      pop\n      jump\t// out\n        /* \"#utility.yul\":436:904   */\n    tag_28:\n        /* \"#utility.yul\":501:507   */\n      0x00\n        /* \"#utility.yul\":509:515   */\n      dup1\n        /* \"#utility.yul\":558:560   */\n      0x40\n        /* \"#utility.yul\":546:555   */\n      dup4\n        /* \"#utility.yul\":537:544   */\n      dup6\n        /* \"#utility.yul\":533:556   */\n      sub\n        /* \"#utility.yul\":529:561   */\n      slt\n        /* \"#utility.yul\":526:645   */\n      iszero\n      tag_70\n      jumpi\n        /* \"#utility.yul\":564:643   */\n      tag_71\n      tag_72\n      jump\t// in\n    tag_71:\n        /* \"#utility.yul\":526:645   */\n    tag_70:\n        /* \"#utility.yul\":684:685   */\n      0x00\n        /* \"#utility.yul\":709:759   */\n      tag_73\n        /* \"#utility.yul\":751:758   */\n      dup6\n        /* \"#utility.yul\":742:748   */\n      dup3\n        /* \"#utility.yul\":731:740   */\n      dup7\n        /* \"#utility.yul\":727:749   */\n      add\n        /* \"#utility.yul\":709:759   */\n      tag_57\n      jump\t// in\n    tag_73:\n        /* \"#utility.yul\":699:759   */\n      swap3\n      pop\n        /* \"#utility.yul\":655:769   */\n      pop\n        /* \"#utility.yul\":808:810   */\n      0x20\n        /* \"#utility.yul\":834:887   */\n      tag_74\n        /* \"#utility.yul\":879:886   */\n      dup6\n        /* \"#utility.yul\":870:876   */\n      dup3\n        /* \"#utility.yul\":859:868   */\n      dup7\n        /* \"#utility.yul\":855:877   */\n      add\n        /* \"#utility.yul\":834:887   */\n      tag_65\n      jump\t// in\n    tag_74:\n        /* \"#utility.yul\":824:887   */\n      swap2\n      pop\n        /* \"#utility.yul\":779:897   */\n      pop\n        /* \"#utility.yul\":436:904   */\n      swap3\n      pop\n      swap3\n      swap1\n      pop\n      jump\t// out\n        /* \"#utility.yul\":910:1239   */\n    tag_23:\n        /* \"#utility.yul\":969:975   */\n      0x00\n        /* \"#utility.yul\":1018:1020   */\n      0x20\n        /* \"#utility.yul\":1006:1015   */\n      dup3\n        /* \"#utility.yul\":997:1004   */\n      dup5\n        /* \"#utility.yul\":993:1016   */\n      sub\n        /* \"#utility.yul\":989:1021   */\n      slt\n        /* \"#utility.yul\":986:1105   */\n      iszero\n      tag_76\n      jumpi\n        /* \"#utility.yul\":1024:1103   */\n      tag_77\n      tag_72\n      jump\t// in\n    tag_77:\n        /* \"#utility.yul\":986:1105   */\n    tag_76:\n        /* \"#utility.yul\":1144:1145   */\n      0x00\n        /* \"#utility.yul\":1169:1222   */\n      tag_78\n        /* \"#utility.yul\":1214:1221   */\n      dup5\n        /* \"#utility.yul\":1205:1211   */\n      dup3\n        /* \"#utility.yul\":1194:1203   */\n      dup6\n        /* \"#utility.yul\":1190:1212   */\n      add\n        /* \"#utility.yul\":1169:1222   */\n      tag_61\n      jump\t// in\n    tag_78:\n        /* \"#utility.yul\":1159:1222   */\n      swap2\n      pop\n        /* \"#utility.yul\":1115:1232   */\n      pop\n        /* \"#utility.yul\":910:1239   */\n      swap3\n      swap2\n      pop\n      pop\n      jump\t// out\n        /* \"#utility.yul\":1245:1387   */\n    tag_79:\n        /* \"#utility.yul\":1348:1380   */\n      tag_81\n        /* \"#utility.yul\":1374:1379   */\n      dup2\n        /* \"#utility.yul\":1348:1380   */\n      tag_82\n      jump\t// in\n    tag_81:\n        /* \"#utility.yul\":1343:1346   */\n      dup3\n        /* \"#utility.yul\":1336:1381   */\n      mstore\n        /* \"#utility.yul\":1245:1387   */\n      pop\n      pop\n      jump\t// out\n        /* \"#utility.yul\":1393:1502   */\n    tag_83:\n        /* \"#utility.yul\":1474:1495   */\n      tag_85\n        /* \"#utility.yul\":1489:1494   */\n      dup2\n        /* \"#utility.yul\":1474:1495   */\n      tag_86\n      jump\t// in\n    tag_85:\n        /* \"#utility.yul\":1469:1472   */\n      dup3\n        /* \"#utility.yul\":1462:1496   */\n      mstore\n        /* \"#utility.yul\":1393:1502   */\n      pop\n      pop\n      jump\t// out\n        /* \"#utility.yul\":1508:1653   */\n    tag_87:\n        /* \"#utility.yul\":1607:1646   */\n      tag_89\n        /* \"#utility.yul\":1624:1645   */\n      tag_90\n        /* \"#utility.yul\":1639:1644   */\n      dup3\n        /* \"#utility.yul\":1624:1645   */\n      tag_86\n      jump\t// in\n    tag_90:\n        /* \"#utility.yul\":1607:1646   */\n      tag_91\n      jump\t// in\n    tag_89:\n        /* \"#utility.yul\":1602:1605   */\n      dup3\n        /* \"#utility.yul\":1595:1647   */\n      mstore\n        /* \"#utility.yul\":1508:1653   */\n      pop\n      pop\n      jump\t// out\n        /* \"#utility.yul\":1659:1777   */\n    tag_92:\n        /* \"#utility.yul\":1746:1770   */\n      tag_94\n        /* \"#utility.yul\":1764:1769   */\n      dup2\n        /* \"#utility.yul\":1746:1770   */\n      tag_95\n      jump\t// in\n    tag_94:\n        /* \"#utility.yul\":1741:1744   */\n      dup3\n        /* \"#utility.yul\":1734:1771   */\n      mstore\n        /* \"#utility.yul\":1659:1777   */\n      pop\n      pop\n      jump\t// out\n        /* \"#utility.yul\":1783:1901   */\n    tag_96:\n        /* \"#utility.yul\":1870:1894   */\n      tag_98\n        /* \"#utility.yul\":1888:1893   */\n      dup2\n        /* \"#utility.yul\":1870:1894   */\n      tag_99\n      jump\t// in\n    tag_98:\n        /* \"#utility.yul\":1865:1868   */\n      dup3\n        /* \"#utility.yul\":1858:1895   */\n      mstore\n        /* \"#utility.yul\":1783:1901   */\n      pop\n      pop\n      jump\t// out\n        /* \"#utility.yul\":1907:2064   */\n    tag_100:\n        /* \"#utility.yul\":2012:2057   */\n      tag_102\n        /* \"#utility.yul\":2032:2056   */\n      tag_103\n        /* \"#utility.yul\":2050:2055   */\n      dup3\n        /* \"#utility.yul\":2032:2056   */\n      tag_99\n      jump\t// in\n    tag_103:\n        /* \"#utility.yul\":2012:2057   */\n      tag_104\n      jump\t// in\n    tag_102:\n        /* \"#utility.yul\":2007:2010   */\n      dup3\n        /* \"#utility.yul\":2000:2058   */\n      mstore\n        /* \"#utility.yul\":1907:2064   */\n      pop\n      pop\n      jump\t// out\n        /* \"#utility.yul\":2070:2454   */\n    tag_54:\n        /* \"#utility.yul\":2204:2207   */\n      0x00\n        /* \"#utility.yul\":2219:2288   */\n      tag_106\n        /* \"#utility.yul\":2284:2287   */\n      dup3\n        /* \"#utility.yul\":2275:2281   */\n      dup6\n        /* \"#utility.yul\":2219:2288   */\n      tag_87\n      jump\t// in\n    tag_106:\n        /* \"#utility.yul\":2313:2314   */\n      0x01\n        /* \"#utility.yul\":2308:2311   */\n      dup3\n        /* \"#utility.yul\":2304:2315   */\n      add\n        /* \"#utility.yul\":2297:2315   */\n      swap2\n      pop\n        /* \"#utility.yul\":2325:2400   */\n      tag_107\n        /* \"#utility.yul\":2396:2399   */\n      dup3\n        /* \"#utility.yul\":2387:2393   */\n      dup5\n        /* \"#utility.yul\":2325:2400   */\n      tag_100\n      jump\t// in\n    tag_107:\n        /* \"#utility.yul\":2425:2427   */\n      0x20\n        /* \"#utility.yul\":2420:2423   */\n      dup3\n        /* \"#utility.yul\":2416:2428   */\n      add\n        /* \"#utility.yul\":2409:2428   */\n      swap2\n      pop\n        /* \"#utility.yul\":2445:2448   */\n      dup2\n        /* \"#utility.yul\":2438:2448   */\n      swap1\n      pop\n        /* \"#utility.yul\":2070:2454   */\n      swap4\n      swap3\n      pop\n      pop\n      pop\n      jump\t// out\n        /* \"#utility.yul\":2460:2714   */\n    tag_15:\n        /* \"#utility.yul\":2569:2573   */\n      0x00\n        /* \"#utility.yul\":2607:2609   */\n      0x20\n        /* \"#utility.yul\":2596:2605   */\n      dup3\n        /* \"#utility.yul\":2592:2610   */\n      add\n        /* \"#utility.yul\":2584:2610   */\n      swap1\n      pop\n        /* \"#utility.yul\":2620:2707   */\n      tag_109\n        /* \"#utility.yul\":2704:2705   */\n      0x00\n        /* \"#utility.yul\":2693:2702   */\n      dup4\n        /* \"#utility.yul\":2689:2706   */\n      add\n        /* \"#utility.yul\":2680:2686   */\n      dup5\n        /* \"#utility.yul\":2620:2707   */\n      tag_79\n      jump\t// in\n    tag_109:\n        /* \"#utility.yul\":2460:2714   */\n      swap3\n      swap2\n      pop\n      pop\n      jump\t// out\n        /* \"#utility.yul\":2720:2930   */\n    tag_43:\n        /* \"#utility.yul\":2807:2811   */\n      0x00\n        /* \"#utility.yul\":2845:2847   */\n      0x20\n        /* \"#utility.yul\":2834:2843   */\n      dup3\n        /* \"#utility.yul\":2830:2848   */\n      add\n        /* \"#utility.yul\":2822:2848   */\n      swap1\n      pop\n        /* \"#utility.yul\":2858:2923   */\n      tag_111\n        /* \"#utility.yul\":2920:2921   */\n      0x00\n        /* \"#utility.yul\":2909:2918   */\n      dup4\n        /* \"#utility.yul\":2905:2922   */\n      add\n        /* \"#utility.yul\":2896:2902   */\n      dup5\n        /* \"#utility.yul\":2858:2923   */\n      tag_83\n      jump\t// in\n    tag_111:\n        /* \"#utility.yul\":2720:2930   */\n      swap3\n      swap2\n      pop\n      pop\n      jump\t// out\n        /* \"#utility.yul\":2936:3158   */\n    tag_20:\n        /* \"#utility.yul\":3029:3033   */\n      0x00\n        /* \"#utility.yul\":3067:3069   */\n      0x20\n        /* \"#utility.yul\":3056:3065   */\n      dup3\n        /* \"#utility.yul\":3052:3070   */\n      add\n        /* \"#utility.yul\":3044:3070   */\n      swap1\n      pop\n        /* \"#utility.yul\":3080:3151   */\n      tag_113\n        /* \"#utility.yul\":3148:3149   */\n      0x00\n        /* \"#utility.yul\":3137:3146   */\n      dup4\n        /* \"#utility.yul\":3133:3150   */\n      add\n        /* \"#utility.yul\":3124:3130   */\n      dup5\n        /* \"#utility.yul\":3080:3151   */\n      tag_92\n      jump\t// in\n    tag_113:\n        /* \"#utility.yul\":2936:3158   */\n      swap3\n      swap2\n      pop\n      pop\n      jump\t// out\n        /* \"#utility.yul\":3164:3386   */\n    tag_34:\n        /* \"#utility.yul\":3257:3261   */\n      0x00\n        /* \"#utility.yul\":3295:3297   */\n      0x20\n        /* \"#utility.yul\":3284:3293   */\n      dup3\n        /* \"#utility.yul\":3280:3298   */\n      add\n        /* \"#utility.yul\":3272:3298   */\n      swap1\n      pop\n        /* \"#utility.yul\":3308:3379   */\n      tag_115\n        /* \"#utility.yul\":3376:3377   */\n      0x00\n        /* \"#utility.yul\":3365:3374   */\n      dup4\n        /* \"#utility.yul\":3361:3378   */\n      add\n        /* \"#utility.yul\":3352:3358   */\n      dup5\n        /* \"#utility.yul\":3308:3379   */\n      tag_96\n      jump\t// in\n    tag_115:\n        /* \"#utility.yul\":3164:3386   */\n      swap3\n      swap2\n      pop\n      pop\n      jump\t// out\n        /* \"#utility.yul\":3473:3577   */\n    tag_82:\n        /* \"#utility.yul\":3518:3525   */\n      0x00\n        /* \"#utility.yul\":3547:3571   */\n      tag_119\n        /* \"#utility.yul\":3565:3570   */\n      dup3\n        /* \"#utility.yul\":3547:3571   */\n      tag_120\n      jump\t// in\n    tag_119:\n        /* \"#utility.yul\":3536:3571   */\n      swap1\n      pop\n        /* \"#utility.yul\":3473:3577   */\n      swap2\n      swap1\n      pop\n      jump\t// out\n        /* \"#utility.yul\":3583:3673   */\n    tag_86:\n        /* \"#utility.yul\":3617:3624   */\n      0x00\n        /* \"#utility.yul\":3660:3665   */\n      dup2\n        /* \"#utility.yul\":3653:3666   */\n      iszero\n        /* \"#utility.yul\":3646:3667   */\n      iszero\n        /* \"#utility.yul\":3635:3667   */\n      swap1\n      pop\n        /* \"#utility.yul\":3583:3673   */\n      swap2\n      swap1\n      pop\n      jump\t// out\n        /* \"#utility.yul\":3679:3756   */\n    tag_95:\n        /* \"#utility.yul\":3716:3723   */\n      0x00\n        /* \"#utility.yul\":3745:3750   */\n      dup2\n        /* \"#utility.yul\":3734:3750   */\n      swap1\n      pop\n        /* \"#utility.yul\":3679:3756   */\n      swap2\n      swap1\n      pop\n      jump\t// out\n        /* \"#utility.yul\":3762:3888   */\n    tag_120:\n        /* \"#utility.yul\":3799:3806   */\n      0x00\n        /* \"#utility.yul\":3839:3881   */\n      0xffffffffffffffffffffffffffffffffffffffff\n        /* \"#utility.yul\":3832:3837   */\n      dup3\n        /* \"#utility.yul\":3828:3882   */\n      and\n        /* \"#utility.yul\":3817:3882   */\n      swap1\n      pop\n        /* \"#utility.yul\":3762:3888   */\n      swap2\n      swap1\n      pop\n      jump\t// out\n        /* \"#utility.yul\":3894:3971   */\n    tag_99:\n        /* \"#utility.yul\":3931:3938   */\n      0x00\n        /* \"#utility.yul\":3960:3965   */\n      dup2\n        /* \"#utility.yul\":3949:3965   */\n      swap1\n      pop\n        /* \"#utility.yul\":3894:3971   */\n      swap2\n      swap1\n      pop\n      jump\t// out\n        /* \"#utility.yul\":3977:4072   */\n    tag_91:\n        /* \"#utility.yul\":4013:4020   */\n      0x00\n        /* \"#utility.yul\":4042:4066   */\n      tag_126\n        /* \"#utility.yul\":4060:4065   */\n      dup3\n        /* \"#utility.yul\":4042:4066   */\n      tag_127\n      jump\t// in\n    tag_126:\n        /* \"#utility.yul\":4031:4066   */\n      swap1\n      pop\n        /* \"#utility.yul\":3977:4072   */\n      swap2\n      swap1\n      pop\n      jump\t// out\n        /* \"#utility.yul\":4078:4157   */\n    tag_104:\n        /* \"#utility.yul\":4117:4124   */\n      0x00\n        /* \"#utility.yul\":4146:4151   */\n      dup2\n        /* \"#utility.yul\":4135:4151   */\n      swap1\n      pop\n        /* \"#utility.yul\":4078:4157   */\n      swap2\n      swap1\n      pop\n      jump\t// out\n        /* \"#utility.yul\":4163:4256   */\n    tag_127:\n        /* \"#utility.yul\":4200:4207   */\n      0x00\n        /* \"#utility.yul\":4229:4250   */\n      tag_130\n        /* \"#utility.yul\":4244:4249   */\n      dup3\n        /* \"#utility.yul\":4229:4250   */\n      tag_131\n      jump\t// in\n    tag_130:\n        /* \"#utility.yul\":4218:4250   */\n      swap1\n      pop\n        /* \"#utility.yul\":4163:4256   */\n      swap2\n      swap1\n      pop\n      jump\t// out\n        /* \"#utility.yul\":4385:4502   */\n    tag_72:\n        /* \"#utility.yul\":4494:4495   */\n      0x00\n        /* \"#utility.yul\":4491:4492   */\n      dup1\n        /* \"#utility.yul\":4484:4496   */\n      revert\n        /* \"#utility.yul\":4508:4604   */\n    tag_131:\n        /* \"#utility.yul\":4542:4550   */\n      0x00\n        /* \"#utility.yul\":4591:4596   */\n      dup2\n        /* \"#utility.yul\":4586:4589   */\n      0xf8\n        /* \"#utility.yul\":4582:4597   */\n      shl\n        /* \"#utility.yul\":4561:4597   */\n      swap1\n      pop\n        /* \"#utility.yul\":4508:4604   */\n      swap2\n      swap1\n      pop\n      jump\t// out\n        /* \"#utility.yul\":4610:4726   */\n    tag_60:\n        /* \"#utility.yul\":4680:4701   */\n      tag_137\n        /* \"#utility.yul\":4695:4700   */\n      dup2\n        /* \"#utility.yul\":4680:4701   */\n      tag_86\n      jump\t// in\n    tag_137:\n        /* \"#utility.yul\":4673:4678   */\n      dup2\n        /* \"#utility.yul\":4670:4702   */\n      eq\n        /* \"#utility.yul\":4660:4720   */\n      tag_138\n      jumpi\n        /* \"#utility.yul\":4716:4717   */\n      0x00\n        /* \"#utility.yul\":4713:4714   */\n      dup1\n        /* \"#utility.yul\":4706:4718   */\n      revert\n        /* \"#utility.yul\":4660:4720   */\n    tag_138:\n        /* \"#utility.yul\":4610:4726   */\n      pop\n      jump\t// out\n        /* \"#utility.yul\":4732:4854   */\n    tag_64:\n        /* \"#utility.yul\":4805:4829   */\n      tag_140\n        /* \"#utility.yul\":4823:4828   */\n      dup2\n        /* \"#utility.yul\":4805:4829   */\n      tag_95\n      jump\t// in\n    tag_140:\n        /* \"#utility.yul\":4798:4803   */\n      dup2\n        /* \"#utility.yul\":4795:4830   */\n      eq\n        /* \"#utility.yul\":4785:4848   */\n      tag_141\n      jumpi\n        /* \"#utility.yul\":4844:4845   */\n      0x00\n        /* \"#utility.yul\":4841:4842   */\n      dup1\n        /* \"#utility.yul\":4834:4846   */\n      revert\n        /* \"#utility.yul\":4785:4848   */\n    tag_141:\n        /* \"#utility.yul\":4732:4854   */\n      pop\n      jump\t// out\n        /* \"#utility.yul\":4860:4982   */\n    tag_68:\n        /* \"#utility.yul\":4933:4957   */\n      tag_143\n        /* \"#utility.yul\":4951:4956   */\n      dup2\n        /* \"#utility.yul\":4933:4957   */\n      tag_99\n      jump\t// in\n    tag_143:\n        /* \"#utility.yul\":4926:4931   */\n      dup2\n        /* \"#utility.yul\":4923:4958   */\n      eq\n        /* \"#utility.yul\":4913:4976   */\n      tag_144\n      jumpi\n        /* \"#utility.yul\":4972:4973   */\n      0x00\n        /* \"#utility.yul\":4969:4970   */\n      dup1\n        /* \"#utility.yul\":4962:4974   */\n      revert\n        /* \"#utility.yul\":4913:4976   */\n    tag_144:\n        /* \"#utility.yul\":4860:4982   */\n      pop\n      jump\t// out\n\n    auxdata: 0xa2646970667358221220d7291ccd8796c2c2917eafe8a4fed022784b32e70ef702c64a90dd0843249ef964736f6c63430008070033\n}\n",
				"bytecode": {
					"linkReferences": {},
					"object": "60806040526040516107453803806107458339818101604052810190610025919061008e565b336000806101000a81548173ffffffffffffffffffffffffffffffffffffffff021916908373ffffffffffffffffffffffffffffffffffffffff1602179055508060028190555034600481905550506100e1565b600081519050610088816100ca565b92915050565b6000602082840312156100a4576100a36100c5565b5b60006100b284828501610079565b91505092915050565b6000819050919050565b600080fd5b6100d3816100bb565b81146100de57600080fd5b50565b610655806100f06000396000f3fe60806040526004361061007b5760003560e01c8063d24257c01161004e578063d24257c01461011b578063d30895e414610146578063d8b1f21914610171578063eb13175d1461019c5761007b565b806359a5f12d14610080578063603f5088146100ab578063b422de9d146100d6578063cf7c3708146100f2575b600080fd5b34801561008c57600080fd5b506100956101c7565b6040516100a291906104dc565b60405180910390f35b3480156100b757600080fd5b506100c06101ed565b6040516100cd9190610512565b60405180910390f35b6100f060048036038101906100eb9190610419565b6101f3565b005b3480156100fe57600080fd5b50610119600480360381019061011491906103d9565b6102a7565b005b34801561012757600080fd5b50610130610357565b60405161013d919061052d565b60405180910390f35b34801561015257600080fd5b5061015b61035d565b60405161016891906104dc565b60405180910390f35b34801561017d57600080fd5b50610186610381565b60405161019391906104f7565b60405180910390f35b3480156101a857600080fd5b506101b1610394565b6040516101be9190610512565b60405180910390f35b600160009054906101000a900473ffffffffffffffffffffffffffffffffffffffff1681565b60035481565b600073ffffffffffffffffffffffffffffffffffffffff16600160009054906101000a900473ffffffffffffffffffffffffffffffffffffffff1673ffffffffffffffffffffffffffffffffffffffff161461024e57600080fd5b600454341461025c57600080fd5b33600160006101000a81548173ffffffffffffffffffffffffffffffffffffffff021916908373ffffffffffffffffffffffffffffffffffffffff1602179055508060038190555050565b600073ffffffffffffffffffffffffffffffffffffffff16600160009054906101000a900473ffffffffffffffffffffffffffffffffffffffff1673ffffffffffffffffffffffffffffffffffffffff16141561030357600080fd5b60025482826040516020016103199291906104b0565b604051602081830303815290604052805190602001201461033957600080fd5b81600560006101000a81548160ff0219169083151502179055505050565b60045481565b60008054906101000a900473ffffffffffffffffffffffffffffffffffffffff1681565b600560009054906101000a900460ff1681565b60025481565b6000813590506103a9816105da565b92915050565b6000813590506103be816105f1565b92915050565b6000813590506103d381610608565b92915050565b600080604083850312156103f0576103ef6105c8565b5b60006103fe8582860161039a565b925050602061040f858286016103c4565b9150509250929050565b60006020828403121561042f5761042e6105c8565b5b600061043d848285016103af565b91505092915050565b61044f81610548565b82525050565b61045e8161055a565b82525050565b6104756104708261055a565b61059a565b82525050565b61048481610566565b82525050565b61049381610590565b82525050565b6104aa6104a582610590565b6105ac565b82525050565b60006104bc8285610464565b6001820191506104cc8284610499565b6020820191508190509392505050565b60006020820190506104f16000830184610446565b92915050565b600060208201905061050c6000830184610455565b92915050565b6000602082019050610527600083018461047b565b92915050565b6000602082019050610542600083018461048a565b92915050565b600061055382610570565b9050919050565b60008115159050919050565b6000819050919050565b600073ffffffffffffffffffffffffffffffffffffffff82169050919050565b6000819050919050565b60006105a5826105b6565b9050919050565b6000819050919050565b60006105c1826105cd565b9050919050565b600080fd5b60008160f81b9050919050565b6105e38161055a565b81146105ee57600080fd5b50565b6105fa81610566565b811461060557600080fd5b50565b61061181610590565b811461061c57600080fd5b5056fea2646970667358221220d7291ccd8796c2c2917eafe8a4fed022784b32e70ef702c64a90dd0843249ef964736f6c63430008070033",
					"opcodes": "PUSH1 0x80 PUSH1 0x40 MSTORE PUSH1 0x40 MLOAD PUSH2 0x745 CODESIZE SUB DUP1 PUSH2 0x745 DUP4 CODECOPY DUP2 DUP2 ADD PUSH1 0x40 MSTORE DUP2 ADD SWAP1 PUSH2 0x25 SWAP2 SWAP1 PUSH2 0x8E JUMP JUMPDEST CALLER PUSH1 0x0 DUP1 PUSH2 0x100 EXP DUP2 SLOAD DUP2 PUSH20 0xFFFFFFFFFFFFFFFFFFFFFFFFFFFFFFFFFFFFFFFF MUL NOT AND SWAP1 DUP4 PUSH20 0xFFFFFFFFFFFFFFFFFFFFFFFFFFFFFFFFFFFFFFFF AND MUL OR SWAP1 SSTORE POP DUP1 PUSH1 0x2 DUP2 SWAP1 SSTORE POP CALLVALUE PUSH1 0x4 DUP2 SWAP1 SSTORE POP POP PUSH2 0xE1 JUMP JUMPDEST PUSH1 0x0 DUP2 MLOAD SWAP1 POP PUSH2 0x88 DUP2 PUSH2 0xCA JUMP JUMPDEST SWAP3 SWAP2 POP POP JUMP JUMPDEST PUSH1 0x0 PUSH1 0x20 DUP3 DUP5 SUB SLT ISZERO PUSH2 0xA4 JUMPI PUSH2 0xA3 PUSH2 0xC5 JUMP JUMPDEST JUMPDEST PUSH1 0x0 PUSH2 0xB2 DUP5 DUP3 DUP6 ADD PUSH2 0x79 JUMP JUMPDEST SWAP2 POP POP SWAP3 SWAP2 POP POP JUMP JUMPDEST PUSH1 0x0 DUP2 SWAP1 POP SWAP2 SWAP1 POP JUMP JUMPDEST PUSH1 0x0 DUP1 REVERT JUMPDEST PUSH2 0xD3 DUP2 PUSH2 0xBB JUMP JUMPDEST DUP2 EQ PUSH2 0xDE JUMPI PUSH1 0x0 DUP1 REVERT JUMPDEST POP JUMP JUMPDEST PUSH2 0x655 DUP1 PUSH2 0xF0 PUSH1 0x0 CODECOPY PUSH1 0x0 RETURN INVALID PUSH1 0x80 PUSH1 0x40 MSTORE PUSH1 0x4 CALLDATASIZE LT PUSH2 0x7B JUMPI PUSH1 0x0 CALLDATALOAD PUSH1 0xE0 SHR DUP1 PUSH4 0xD24257C0 GT PUSH2 0x4E JUMPI DUP1 PUSH4 0xD24257C0 EQ PUSH2 0x11B JUMPI DUP1 PUSH4 0xD30895E4 EQ PUSH2 0x146 JUMPI DUP1 PUSH4 0xD8B1F219 EQ PUSH2 0x171 JUMPI DUP1 PUSH4 0xEB13175D EQ PUSH2 0x19C JUMPI PUSH2 0x7B JUMP JUMPDEST DUP1 PUSH4 0x59A5F12D EQ PUSH2 0x80 JUMPI DUP1 PUSH4 0x603F5088 EQ PUSH2 0xAB JUMPI DUP1 PUSH4 0xB422DE9D EQ PUSH2 0xD6 JUMPI DUP1 PUSH4 0xCF7C3708 EQ PUSH2 0xF2 JUMPI JUMPDEST PUSH1 0x0 DUP1 REVERT JUMPDEST CALLVALUE DUP1 ISZERO PUSH2 0x8C JUMPI PUSH1 0x0 DUP1 REVERT JUMPDEST POP PUSH2 0x95 PUSH2 0x1C7 JUMP JUMPDEST PUSH1 0x40 MLOAD PUSH2 0xA2 SWAP2 SWAP1 PUSH2 0x4DC JUMP JUMPDEST PUSH1 0x40 MLOAD DUP1 SWAP2 SUB SWAP1 RETURN JUMPDEST CALLVALUE DUP1 ISZERO PUSH2 0xB7 JUMPI PUSH1 0x0 DUP1 REVERT JUMPDEST POP PUSH2 0xC0 PUSH2 0x1ED JUMP JUMPDEST PUSH1 0x40 MLOAD PUSH2 0xCD SWAP2 SWAP1 PUSH2 0x512 JUMP JUMPDEST PUSH1 0x40 MLOAD DUP1 SWAP2 SUB SWAP1 RETURN JUMPDEST PUSH2 0xF0 PUSH1 0x4 DUP1 CALLDATASIZE SUB DUP2 ADD SWAP1 PUSH2 0xEB SWAP2 SWAP1 PUSH2 0x419 JUMP JUMPDEST PUSH2 0x1F3 JUMP JUMPDEST STOP JUMPDEST CALLVALUE DUP1 ISZERO PUSH2 0xFE JUMPI PUSH1 0x0 DUP1 REVERT JUMPDEST POP PUSH2 0x119 PUSH1 0x4 DUP1 CALLDATASIZE SUB DUP2 ADD SWAP1 PUSH2 0x114 SWAP2 SWAP1 PUSH2 0x3D9 JUMP JUMPDEST PUSH2 0x2A7 JUMP JUMPDEST STOP JUMPDEST CALLVALUE DUP1 ISZERO PUSH2 0x127 JUMPI PUSH1 0x0 DUP1 REVERT JUMPDEST POP PUSH2 0x130 PUSH2 0x357 JUMP JUMPDEST PUSH1 0x40 MLOAD PUSH2 0x13D SWAP2 SWAP1 PUSH2 0x52D JUMP JUMPDEST PUSH1 0x40 MLOAD DUP1 SWAP2 SUB SWAP1 RETURN JUMPDEST CALLVALUE DUP1 ISZERO PUSH2 0x152 JUMPI PUSH1 0x0 DUP1 REVERT JUMPDEST POP PUSH2 0x15B PUSH2 0x35D JUMP JUMPDEST PUSH1 0x40 MLOAD PUSH2 0x168 SWAP2 SWAP1 PUSH2 0x4DC JUMP JUMPDEST PUSH1 0x40 MLOAD DUP1 SWAP2 SUB SWAP1 RETURN JUMPDEST CALLVALUE DUP1 ISZERO PUSH2 0x17D JUMPI PUSH1 0x0 DUP1 REVERT JUMPDEST POP PUSH2 0x186 PUSH2 0x381 JUMP JUMPDEST PUSH1 0x40 MLOAD PUSH2 0x193 SWAP2 SWAP1 PUSH2 0x4F7 JUMP JUMPDEST PUSH1 0x40 MLOAD DUP1 SWAP2 SUB SWAP1 RETURN JUMPDEST CALLVALUE DUP1 ISZERO PUSH2 0x1A8 JUMPI PUSH1 0x0 DUP1 REVERT JUMPDEST POP PUSH2 0x1B1 PUSH2 0x394 JUMP JUMPDEST PUSH1 0x40 MLOAD PUSH2 0x1BE SWAP2 SWAP1 PUSH2 0x512 JUMP JUMPDEST PUSH1 0x40 MLOAD DUP1 SWAP2 SUB SWAP1 RETURN JUMPDEST PUSH1 0x1 PUSH1 0x0 SWAP1 SLOAD SWAP1 PUSH2 0x100 EXP SWAP1 DIV PUSH20 0xFFFFFFFFFFFFFFFFFFFFFFFFFFFFFFFFFFFFFFFF AND DUP2 JUMP JUMPDEST PUSH1 0x3 SLOAD DUP2 JUMP JUMPDEST PUSH1 0x0 PUSH20 0xFFFFFFFFFFFFFFFFFFFFFFFFFFFFFFFFFFFFFFFF AND PUSH1 0x1 PUSH1 0x0 SWAP1 SLOAD SWAP1 PUSH2 0x100 EXP SWAP1 DIV PUSH20 0xFFFFFFFFFFFFFFFFFFFFFFFFFFFFFFFFFFFFFFFF AND PUSH20 0xFFFFFFFFFFFFFFFFFFFFFFFFFFFFFFFFFFFFFFFF AND EQ PUSH2 0x24E JUMPI PUSH1 0x0 DUP1 REVERT JUMPDEST PUSH1 0x4 SLOAD CALLVALUE EQ PUSH2 0x25C JUMPI PUSH1 0x0 DUP1 REVERT JUMPDEST CALLER PUSH1 0x1 PUSH1 0x0 PUSH2 0x100 EXP DUP2 SLOAD DUP2 PUSH20 0xFFFFFFFFFFFFFFFFFFFFFFFFFFFFFFFFFFFFFFFF MUL NOT AND SWAP1 DUP4 PUSH20 0xFFFFFFFFFFFFFFFFFFFFFFFFFFFFFFFFFFFFFFFF AND MUL OR SWAP1 SSTORE POP DUP1 PUSH1 0x3 DUP2 SWAP1 SSTORE POP POP JUMP JUMPDEST PUSH1 0x0 PUSH20 0xFFFFFFFFFFFFFFFFFFFFFFFFFFFFFFFFFFFFFFFF AND PUSH1 0x1 PUSH1 0x0 SWAP1 SLOAD SWAP1 PUSH2 0x100 EXP SWAP1 DIV PUSH20 0xFFFFFFFFFFFFFFFFFFFFFFFFFFFFFFFFFFFFFFFF AND PUSH20 0xFFFFFFFFFFFFFFFFFFFFFFFFFFFFFFFFFFFFFFFF AND EQ ISZERO PUSH2 0x303 JUMPI PUSH1 0x0 DUP1 REVERT JUMPDEST PUSH1 0x2 SLOAD DUP3 DUP3 PUSH1 0x40 MLOAD PUSH1 0x20 ADD PUSH2 0x319 SWAP3 SWAP2 SWAP1 PUSH2 0x4B0 JUMP JUMPDEST PUSH1 0x40 MLOAD PUSH1 0x20 DUP2 DUP4 SUB SUB DUP2 MSTORE SWAP1 PUSH1 0x40 MSTORE DUP1 MLOAD SWAP1 PUSH1 0x20 ADD KECCAK256 EQ PUSH2 0x339 JUMPI PUSH1 0x0 DUP1 REVERT JUMPDEST DUP2 PUSH1 0x5 PUSH1 0x0 PUSH2 0x100 EXP DUP2 SLOAD DUP2 PUSH1 0xFF MUL NOT AND SWAP1 DUP4 ISZERO ISZERO MUL OR SWAP1 SSTORE POP POP POP JUMP JUMPDEST PUSH1 0x4 SLOAD DUP2 JUMP JUMPDEST PUSH1 0x0 DUP1 SLOAD SWAP1 PUSH2 0x100 EXP SWAP1 DIV PUSH20 0xFFFFFFFFFFFFFFFFFFFFFFFFFFFFFFFFFFFFFFFF AND DUP2 JUMP JUMPDEST PUSH1 0x5 PUSH1 0x0 SWAP1 SLOAD SWAP1 PUSH2 0x100 EXP SWAP1 DIV PUSH1 0xFF AND DUP2 JUMP JUMPDEST PUSH1 0x2 SLOAD DUP2 JUMP JUMPDEST PUSH1 0x0 DUP2 CALLDATALOAD SWAP1 POP PUSH2 0x3A9 DUP2 PUSH2 0x5DA JUMP JUMPDEST SWAP3 SWAP2 POP POP JUMP JUMPDEST PUSH1 0x0 DUP2 CALLDATALOAD SWAP1 POP PUSH2 0x3BE DUP2 PUSH2 0x5F1 JUMP JUMPDEST SWAP3 SWAP2 POP POP JUMP JUMPDEST PUSH1 0x0 DUP2 CALLDATALOAD SWAP1 POP PUSH2 0x3D3 DUP2 PUSH2 0x608 JUMP JUMPDEST SWAP3 SWAP2 POP POP JUMP JUMPDEST PUSH1 0x0 DUP1 PUSH1 0x40 DUP4 DUP6 SUB SLT ISZERO PUSH2 0x3F0 JUMPI PUSH2 0x3EF PUSH2 0x5C8 JUMP JUMPDEST JUMPDEST PUSH1 0x0 PUSH2 0x3FE DUP6 DUP3 DUP7 ADD PUSH2 0x39A JUMP JUMPDEST SWAP3 POP POP PUSH1 0x20 PUSH2 0x40F DUP6 DUP3 DUP7 ADD PUSH2 0x3C4 JUMP JUMPDEST SWAP2 POP POP SWAP3 POP SWAP3 SWAP1 POP JUMP JUMPDEST PUSH1 0x0 PUSH1 0x20 DUP3 DUP5 SUB SLT ISZERO PUSH2 0x42F JUMPI PUSH2 0x42E PUSH2 0x5C8 JUMP JUMPDEST JUMPDEST PUSH1 0x0 PUSH2 0x43D DUP5 DUP3 DUP6 ADD PUSH2 0x3AF JUMP JUMPDEST SWAP2 POP POP SWAP3 SWAP2 POP POP JUMP JUMPDEST PUSH2 0x44F DUP2 PUSH2 0x548 JUMP JUMPDEST DUP3 MSTORE POP POP JUMP JUMPDEST PUSH2 0x45E DUP2 PUSH2 0x55A JUMP JUMPDEST DUP3 MSTORE POP POP JUMP JUMPDEST PUSH2 0x475 PUSH2 0x470 DUP3 PUSH2 0x55A JUMP JUMPDEST PUSH2 0x59A JUMP JUMPDEST DUP3 MSTORE POP POP JUMP JUMPDEST PUSH2 0x484 DUP2 PUSH2 0x566 JUMP JUMPDEST DUP3 MSTORE POP POP JUMP JUMPDEST PUSH2 0x493 DUP2 PUSH2 0x590 JUMP JUMPDEST DUP3 MSTORE POP POP JUMP JUMPDEST PUSH2 0x4AA PUSH2 0x4A5 DUP3 PUSH2 0x590 JUMP JUMPDEST PUSH2 0x5AC JUMP JUMPDEST DUP3 MSTORE POP POP JUMP JUMPDEST PUSH1 0x0 PUSH2 0x4BC DUP3 DUP6 PUSH2 0x464 JUMP JUMPDEST PUSH1 0x1 DUP3 ADD SWAP2 POP PUSH2 0x4CC DUP3 DUP5 PUSH2 0x499 JUMP JUMPDEST PUSH1 0x20 DUP3 ADD SWAP2 POP DUP2 SWAP1 POP SWAP4 SWAP3 POP POP POP JUMP JUMPDEST PUSH1 0x0 PUSH1 0x20 DUP3 ADD SWAP1 POP PUSH2 0x4F1 PUSH1 0x0 DUP4 ADD DUP5 PUSH2 0x446 JUMP JUMPDEST SWAP3 SWAP2 POP POP JUMP JUMPDEST PUSH1 0x0 PUSH1 0x20 DUP3 ADD SWAP1 POP PUSH2 0x50C PUSH1 0x0 DUP4 ADD DUP5 PUSH2 0x455 JUMP JUMPDEST SWAP3 SWAP2 POP POP JUMP JUMPDEST PUSH1 0x0 PUSH1 0x20 DUP3 ADD SWAP1 POP PUSH2 0x527 PUSH1 0x0 DUP4 ADD DUP5 PUSH2 0x47B JUMP JUMPDEST SWAP3 SWAP2 POP POP JUMP JUMPDEST PUSH1 0x0 PUSH1 0x20 DUP3 ADD SWAP1 POP PUSH2 0x542 PUSH1 0x0 DUP4 ADD DUP5 PUSH2 0x48A JUMP JUMPDEST SWAP3 SWAP2 POP POP JUMP JUMPDEST PUSH1 0x0 PUSH2 0x553 DUP3 PUSH2 0x570 JUMP JUMPDEST SWAP1 POP SWAP2 SWAP1 POP JUMP JUMPDEST PUSH1 0x0 DUP2 ISZERO ISZERO SWAP1 POP SWAP2 SWAP1 POP JUMP JUMPDEST PUSH1 0x0 DUP2 SWAP1 POP SWAP2 SWAP1 POP JUMP JUMPDEST PUSH1 0x0 PUSH20 0xFFFFFFFFFFFFFFFFFFFFFFFFFFFFFFFFFFFFFFFF DUP3 AND SWAP1 POP SWAP2 SWAP1 POP JUMP JUMPDEST PUSH1 0x0 DUP2 SWAP1 POP SWAP2 SWAP1 POP JUMP JUMPDEST PUSH1 0x0 PUSH2 0x5A5 DUP3 PUSH2 0x5B6 JUMP JUMPDEST SWAP1 POP SWAP2 SWAP1 POP JUMP JUMPDEST PUSH1 0x0 DUP2 SWAP1 POP SWAP2 SWAP1 POP JUMP JUMPDEST PUSH1 0x0 PUSH2 0x5C1 DUP3 PUSH2 0x5CD JUMP JUMPDEST SWAP1 POP SWAP2 SWAP1 POP JUMP JUMPDEST PUSH1 0x0 DUP1 REVERT JUMPDEST PUSH1 0x0 DUP2 PUSH1 0xF8 SHL SWAP1 POP SWAP2 SWAP1 POP JUMP JUMPDEST PUSH2 0x5E3 DUP2 PUSH2 0x55A JUMP JUMPDEST DUP2 EQ PUSH2 0x5EE JUMPI PUSH1 0x0 DUP1 REVERT JUMPDEST POP JUMP JUMPDEST PUSH2 0x5FA DUP2 PUSH2 0x566 JUMP JUMPDEST DUP2 EQ PUSH2 0x605 JUMPI PUSH1 0x0 DUP1 REVERT JUMPDEST POP JUMP JUMPDEST PUSH2 0x611 DUP2 PUSH2 0x590 JUMP JUMPDEST DUP2 EQ PUSH2 0x61C JUMPI PUSH1 0x0 DUP1 REVERT JUMPDEST POP JUMP INVALID LOG2 PUSH5 0x6970667358 0x22 SLT KECCAK256 0xD7 0x29 SHR 0xCD DUP8 SWAP7 0xC2 0xC2 SWAP2 PUSH31 0xAFE8A4FED022784B32E70EF702C64A90DD0843249EF964736F6C6343000807 STOP CALLER "
				},
				"gasEstimates": {
					"creation": {
						"codeDepositCost": "324200",
						"executionCost": "infinite",
						"totalCost": "infinite"
					},
					"external": {
						"Reveal1(bool,uint256)": "infinite",
						"TakeBet(bytes32)": "51100",
						"betAmount()": "2429",
						"player1()": "2533",
						"player1Choice()": "2515",
						"player1Commitment()": "2495",
						"player2()": "2515",
						"player2Commitment()": "2452"
					}
				},
				"methodIdentifiers": {
					"Reveal1(bool,uint256)": "cf7c3708",
					"TakeBet(bytes32)": "b422de9d",
					"betAmount()": "d24257c0",
					"player1()": "d30895e4",
					"player1Choice()": "d8b1f219",
					"player1Commitment()": "eb13175d",
					"player2()": "59a5f12d",
					"player2Commitment()": "603f5088"
				}
			},
			"storageLayout": {
				"storage": [
					{
						"astId": 3,
						"contract": "contracts/Coin2.sol:CoinFlip",
						"label": "player1",
						"offset": 0,
						"slot": "0",
						"type": "t_address_payable"
					},
					{
						"astId": 5,
						"contract": "contracts/Coin2.sol:CoinFlip",
						"label": "player2",
						"offset": 0,
						"slot": "1",
						"type": "t_address_payable"
					},
					{
						"astId": 7,
						"contract": "contracts/Coin2.sol:CoinFlip",
						"label": "player1Commitment",
						"offset": 0,
						"slot": "2",
						"type": "t_bytes32"
					},
					{
						"astId": 9,
						"contract": "contracts/Coin2.sol:CoinFlip",
						"label": "player2Commitment",
						"offset": 0,
						"slot": "3",
						"type": "t_bytes32"
					},
					{
						"astId": 11,
						"contract": "contracts/Coin2.sol:CoinFlip",
						"label": "betAmount",
						"offset": 0,
						"slot": "4",
						"type": "t_uint256"
					},
					{
						"astId": 13,
						"contract": "contracts/Coin2.sol:CoinFlip",
						"label": "player1Choice",
						"offset": 0,
						"slot": "5",
						"type": "t_bool"
					}
				],
				"types": {
					"t_address_payable": {
						"encoding": "inplace",
						"label": "address payable",
						"numberOfBytes": "20"
					},
					"t_bool": {
						"encoding": "inplace",
						"label": "bool",
						"numberOfBytes": "1"
					},
					"t_bytes32": {
						"encoding": "inplace",
						"label": "bytes32",
						"numberOfBytes": "32"
					},
					"t_uint256": {
						"encoding": "inplace",
						"label": "uint256",
						"numberOfBytes": "32"
					}
				}
			},
			"userdoc": {
				"kind": "user",
				"methods": {},
				"version": 1
			}
		}
	}
}