{
	"contracts/SimpleStorage.sol": {
		"SimpleStorage": {
			"abi": [
				{
					"inputs": [],
					"name": "calRet",
					"outputs": [
						{
							"internalType": "uint256",
							"name": "",
							"type": "uint256"
						}
					],
					"stateMutability": "view",
					"type": "function"
				},
				{
					"inputs": [],
					"name": "favNum",
					"outputs": [
						{
							"internalType": "uint256",
							"name": "",
							"type": "uint256"
						}
					],
					"stateMutability": "view",
					"type": "function"
				},
				{
					"inputs": [],
					"name": "person",
					"outputs": [
						{
							"internalType": "uint256",
							"name": "favNum",
							"type": "uint256"
						},
						{
							"internalType": "string",
							"name": "name",
							"type": "string"
						}
					],
					"stateMutability": "view",
					"type": "function"
				},
				{
					"inputs": [],
					"name": "retrieve",
					"outputs": [
						{
							"internalType": "uint256",
							"name": "",
							"type": "uint256"
						}
					],
					"stateMutability": "view",
					"type": "function"
				},
				{
					"inputs": [
						{
							"internalType": "uint256",
							"name": "numberIn",
							"type": "uint256"
						}
					],
					"name": "storeNum",
					"outputs": [],
					"stateMutability": "nonpayable",
					"type": "function"
				}
			],
			"devdoc": {
				"kind": "dev",
				"methods": {},
				"version": 1
			},
			"evm": {
				"assembly": "    /* \"contracts/SimpleStorage.sol\":35:773  contract SimpleStorage {\r... */\n  mstore(0x40, 0x80)\n    /* \"contracts/SimpleStorage.sol\":190:232  0xFf9E843a68B78251907dCBA616f09b03012B545f */\n  0xff9e843a68b78251907dcba616f09b03012b545f\n    /* \"contracts/SimpleStorage.sol\":172:232  address favAddr = 0xFf9E843a68B78251907dCBA616f09b03012B545f */\n  0x04\n  exp(0x0100, 0x00)\n  dup2\n  sload\n  dup2\n  0xffffffffffffffffffffffffffffffffffffffff\n  mul\n  not\n  and\n  swap1\n  dup4\n  0xffffffffffffffffffffffffffffffffffffffff\n  and\n  mul\n  or\n  swap1\n  sstore\n  pop\n    /* \"contracts/SimpleStorage.sol\":359:393  People({favNum: 2, name: \"Amiya\"}) */\n  mload(0x40)\n  dup1\n  0x40\n  add\n  0x40\n  mstore\n  dup1\n    /* \"contracts/SimpleStorage.sol\":375:376  2 */\n  0x02\n    /* \"contracts/SimpleStorage.sol\":359:393  People({favNum: 2, name: \"Amiya\"}) */\n  dup2\n  mstore\n  0x20\n  add\n  mload(0x40)\n  dup1\n  0x40\n  add\n  0x40\n  mstore\n  dup1\n  0x05\n  dup2\n  mstore\n  0x20\n  add\n  0x416d697961000000000000000000000000000000000000000000000000000000\n  dup2\n  mstore\n  pop\n  dup2\n  mstore\n  pop\n    /* \"contracts/SimpleStorage.sol\":336:393  People public person = People({favNum: 2, name: \"Amiya\"}) */\n  0x06\n  0x00\n  dup3\n  add\n  mload\n  dup2\n  0x00\n  add\n  sstore\n  0x20\n  dup3\n  add\n  mload\n  dup2\n  0x01\n  add\n  swap1\n  dup1\n  mload\n  swap1\n  0x20\n  add\n  swap1\n  tag_1\n  swap3\n  swap2\n  swap1\n  tag_2\n  jump\t// in\ntag_1:\n  pop\n  pop\n  pop\n    /* \"contracts/SimpleStorage.sol\":35:773  contract SimpleStorage {\r... */\n  callvalue\n  dup1\n  iszero\n  tag_3\n  jumpi\n  0x00\n  dup1\n  revert\ntag_3:\n  pop\n  jump(tag_4)\ntag_2:\n  dup3\n  dup1\n  sload\n  tag_5\n  swap1\n  tag_6\n  jump\t// in\ntag_5:\n  swap1\n  0x00\n  mstore\n  keccak256(0x00, 0x20)\n  swap1\n  0x1f\n  add\n  0x20\n  swap1\n  div\n  dup2\n  add\n  swap3\n  dup3\n  tag_8\n  jumpi\n  0x00\n  dup6\n  sstore\n  jump(tag_7)\ntag_8:\n  dup3\n  0x1f\n  lt\n  tag_9\n  jumpi\n  dup1\n  mload\n  not(0xff)\n  and\n  dup4\n  dup1\n  add\n  or\n  dup6\n  sstore\n  jump(tag_7)\ntag_9:\n  dup3\n  dup1\n  add\n  0x01\n  add\n  dup6\n  sstore\n  dup3\n  iszero\n  tag_7\n  jumpi\n  swap2\n  dup3\n  add\ntag_10:\n  dup3\n  dup2\n  gt\n  iszero\n  tag_11\n  jumpi\n  dup3\n  mload\n  dup3\n  sstore\n  swap2\n  0x20\n  add\n  swap2\n  swap1\n  0x01\n  add\n  swap1\n  jump(tag_10)\ntag_11:\ntag_7:\n  pop\n  swap1\n  pop\n  tag_12\n  swap2\n  swap1\n  tag_13\n  jump\t// in\ntag_12:\n  pop\n  swap1\n  jump\t// out\ntag_13:\ntag_14:\n  dup1\n  dup3\n  gt\n  iszero\n  tag_15\n  jumpi\n  0x00\n  dup2\n  0x00\n  swap1\n  sstore\n  pop\n  0x01\n  add\n  jump(tag_14)\ntag_15:\n  pop\n  swap1\n  jump\t// out\n    /* \"#utility.yul\":7:327   */\ntag_6:\n    /* \"#utility.yul\":51:57   */\n  0x00\n    /* \"#utility.yul\":88:89   */\n  0x02\n    /* \"#utility.yul\":82:86   */\n  dup3\n    /* \"#utility.yul\":78:90   */\n  div\n    /* \"#utility.yul\":68:90   */\n  swap1\n  pop\n    /* \"#utility.yul\":135:136   */\n  0x01\n    /* \"#utility.yul\":129:133   */\n  dup3\n    /* \"#utility.yul\":125:137   */\n  and\n    /* \"#utility.yul\":156:174   */\n  dup1\n    /* \"#utility.yul\":146:227   */\n  tag_18\n  jumpi\n    /* \"#utility.yul\":212:216   */\n  0x7f\n    /* \"#utility.yul\":204:210   */\n  dup3\n    /* \"#utility.yul\":200:217   */\n  and\n    /* \"#utility.yul\":190:217   */\n  swap2\n  pop\n    /* \"#utility.yul\":146:227   */\ntag_18:\n    /* \"#utility.yul\":274:276   */\n  0x20\n    /* \"#utility.yul\":266:272   */\n  dup3\n    /* \"#utility.yul\":263:277   */\n  lt\n    /* \"#utility.yul\":243:261   */\n  dup2\n    /* \"#utility.yul\":240:278   */\n  eq\n    /* \"#utility.yul\":237:321   */\n  iszero\n  tag_19\n  jumpi\n    /* \"#utility.yul\":293:311   */\n  tag_20\n  tag_21\n  jump\t// in\ntag_20:\n    /* \"#utility.yul\":237:321   */\ntag_19:\n    /* \"#utility.yul\":58:327   */\n  pop\n    /* \"#utility.yul\":7:327   */\n  swap2\n  swap1\n  pop\n  jump\t// out\n    /* \"#utility.yul\":333:513   */\ntag_21:\n    /* \"#utility.yul\":381:458   */\n  0x4e487b7100000000000000000000000000000000000000000000000000000000\n    /* \"#utility.yul\":378:379   */\n  0x00\n    /* \"#utility.yul\":371:459   */\n  mstore\n    /* \"#utility.yul\":478:482   */\n  0x22\n    /* \"#utility.yul\":475:476   */\n  0x04\n    /* \"#utility.yul\":468:483   */\n  mstore\n    /* \"#utility.yul\":502:506   */\n  0x24\n    /* \"#utility.yul\":499:500   */\n  0x00\n    /* \"#utility.yul\":492:507   */\n  revert\n    /* \"contracts/SimpleStorage.sol\":35:773  contract SimpleStorage {\r... */\ntag_4:\n  dataSize(sub_0)\n  dup1\n  dataOffset(sub_0)\n  0x00\n  codecopy\n  0x00\n  return\nstop\n\nsub_0: assembly {\n        /* \"contracts/SimpleStorage.sol\":35:773  contract SimpleStorage {\r... */\n      mstore(0x40, 0x80)\n      callvalue\n      dup1\n      iszero\n      tag_1\n      jumpi\n      0x00\n      dup1\n      revert\n    tag_1:\n      pop\n      jumpi(tag_2, lt(calldatasize, 0x04))\n      shr(0xe0, calldataload(0x00))\n      dup1\n      0x2e64cec1\n      eq\n      tag_3\n      jumpi\n      dup1\n      0x376e37ac\n      eq\n      tag_4\n      jumpi\n      dup1\n      0x3c8df652\n      eq\n      tag_5\n      jumpi\n      dup1\n      0x77ec2b55\n      eq\n      tag_6\n      jumpi\n      dup1\n      0x9a67c8b1\n      eq\n      tag_7\n      jumpi\n    tag_2:\n      0x00\n      dup1\n      revert\n        /* \"contracts/SimpleStorage.sol\":486:564  function retrieve() public view returns(uint) {\r... */\n    tag_3:\n      tag_8\n      tag_9\n      jump\t// in\n    tag_8:\n      mload(0x40)\n      tag_10\n      swap2\n      swap1\n      tag_11\n      jump\t// in\n    tag_10:\n      mload(0x40)\n      dup1\n      swap2\n      sub\n      swap1\n      return\n        /* \"contracts/SimpleStorage.sol\":572:653  function calRet() public view returns(uint) {\r... */\n    tag_4:\n      tag_12\n      tag_13\n      jump\t// in\n    tag_12:\n      mload(0x40)\n      tag_14\n      swap2\n      swap1\n      tag_11\n      jump\t// in\n    tag_14:\n      mload(0x40)\n      dup1\n      swap2\n      sub\n      swap1\n      return\n        /* \"contracts/SimpleStorage.sol\":67:85  uint public favNum */\n    tag_5:\n      tag_15\n      tag_16\n      jump\t// in\n    tag_15:\n      mload(0x40)\n      tag_17\n      swap2\n      swap1\n      tag_11\n      jump\t// in\n    tag_17:\n      mload(0x40)\n      dup1\n      swap2\n      sub\n      swap1\n      return\n        /* \"contracts/SimpleStorage.sol\":336:393  People public person = People({favNum: 2, name: \"Amiya\"}) */\n    tag_6:\n      tag_18\n      tag_19\n      jump\t// in\n    tag_18:\n      mload(0x40)\n      tag_20\n      swap3\n      swap2\n      swap1\n      tag_21\n      jump\t// in\n    tag_20:\n      mload(0x40)\n      dup1\n      swap2\n      sub\n      swap1\n      return\n        /* \"contracts/SimpleStorage.sol\":402:478  function storeNum(uint numberIn) public {\r... */\n    tag_7:\n      tag_22\n      0x04\n      dup1\n      calldatasize\n      sub\n      dup2\n      add\n      swap1\n      tag_23\n      swap2\n      swap1\n      tag_24\n      jump\t// in\n    tag_23:\n      tag_25\n      jump\t// in\n    tag_22:\n      stop\n        /* \"contracts/SimpleStorage.sol\":486:564  function retrieve() public view returns(uint) {\r... */\n    tag_9:\n        /* \"contracts/SimpleStorage.sol\":526:530  uint */\n      0x00\n        /* \"contracts/SimpleStorage.sol\":550:556  favNum */\n      dup1\n      sload\n        /* \"contracts/SimpleStorage.sol\":543:556  return favNum */\n      swap1\n      pop\n        /* \"contracts/SimpleStorage.sol\":486:564  function retrieve() public view returns(uint) {\r... */\n      swap1\n      jump\t// out\n        /* \"contracts/SimpleStorage.sol\":572:653  function calRet() public view returns(uint) {\r... */\n    tag_13:\n        /* \"contracts/SimpleStorage.sol\":610:614  uint */\n      0x00\n        /* \"contracts/SimpleStorage.sol\":634:645  cal(favNum) */\n      tag_28\n        /* \"contracts/SimpleStorage.sol\":638:644  favNum */\n      sload(0x00)\n        /* \"contracts/SimpleStorage.sol\":634:637  cal */\n      tag_29\n        /* \"contracts/SimpleStorage.sol\":634:645  cal(favNum) */\n      jump\t// in\n    tag_28:\n        /* \"contracts/SimpleStorage.sol\":627:645  return cal(favNum) */\n      swap1\n      pop\n        /* \"contracts/SimpleStorage.sol\":572:653  function calRet() public view returns(uint) {\r... */\n      swap1\n      jump\t// out\n        /* \"contracts/SimpleStorage.sol\":67:85  uint public favNum */\n    tag_16:\n      sload(0x00)\n      dup2\n      jump\t// out\n        /* \"contracts/SimpleStorage.sol\":336:393  People public person = People({favNum: 2, name: \"Amiya\"}) */\n    tag_19:\n      0x06\n      dup1\n      0x00\n      add\n      sload\n      swap1\n      dup1\n      0x01\n      add\n      dup1\n      sload\n      tag_30\n      swap1\n      tag_31\n      jump\t// in\n    tag_30:\n      dup1\n      0x1f\n      add\n      0x20\n      dup1\n      swap2\n      div\n      mul\n      0x20\n      add\n      mload(0x40)\n      swap1\n      dup2\n      add\n      0x40\n      mstore\n      dup1\n      swap3\n      swap2\n      swap1\n      dup2\n      dup2\n      mstore\n      0x20\n      add\n      dup3\n      dup1\n      sload\n      tag_32\n      swap1\n      tag_31\n      jump\t// in\n    tag_32:\n      dup1\n      iszero\n      tag_33\n      jumpi\n      dup1\n      0x1f\n      lt\n      tag_34\n      jumpi\n      0x0100\n      dup1\n      dup4\n      sload\n      div\n      mul\n      dup4\n      mstore\n      swap2\n      0x20\n      add\n      swap2\n      jump(tag_33)\n    tag_34:\n      dup3\n      add\n      swap2\n      swap1\n      0x00\n      mstore\n      keccak256(0x00, 0x20)\n      swap1\n    tag_35:\n      dup2\n      sload\n      dup2\n      mstore\n      swap1\n      0x01\n      add\n      swap1\n      0x20\n      add\n      dup1\n      dup4\n      gt\n      tag_35\n      jumpi\n      dup3\n      swap1\n      sub\n      0x1f\n      and\n      dup3\n      add\n      swap2\n    tag_33:\n      pop\n      pop\n      pop\n      pop\n      pop\n      swap1\n      pop\n      dup3\n      jump\t// out\n        /* \"contracts/SimpleStorage.sol\":402:478  function storeNum(uint numberIn) public {\r... */\n    tag_25:\n        /* \"contracts/SimpleStorage.sol\":462:470  numberIn */\n      dup1\n        /* \"contracts/SimpleStorage.sol\":453:459  favNum */\n      0x00\n        /* \"contracts/SimpleStorage.sol\":453:470  favNum = numberIn */\n      dup2\n      swap1\n      sstore\n      pop\n        /* \"contracts/SimpleStorage.sol\":402:478  function storeNum(uint numberIn) public {\r... */\n      pop\n      jump\t// out\n        /* \"contracts/SimpleStorage.sol\":661:770  function cal(uint fav) internal pure returns(uint) {\r... */\n    tag_29:\n        /* \"contracts/SimpleStorage.sol\":706:710  uint */\n      0x00\n        /* \"contracts/SimpleStorage.sol\":723:731  uint res */\n      dup1\n        /* \"contracts/SimpleStorage.sol\":740:741  1 */\n      0x01\n        /* \"contracts/SimpleStorage.sol\":734:737  fav */\n      dup4\n        /* \"contracts/SimpleStorage.sol\":734:741  fav + 1 */\n      tag_38\n      swap2\n      swap1\n      tag_39\n      jump\t// in\n    tag_38:\n        /* \"contracts/SimpleStorage.sol\":723:741  uint res = fav + 1 */\n      swap1\n      pop\n        /* \"contracts/SimpleStorage.sol\":759:762  res */\n      dup1\n        /* \"contracts/SimpleStorage.sol\":752:762  return res */\n      swap2\n      pop\n      pop\n        /* \"contracts/SimpleStorage.sol\":661:770  function cal(uint fav) internal pure returns(uint) {\r... */\n      swap2\n      swap1\n      pop\n      jump\t// out\n        /* \"#utility.yul\":7:146   */\n    tag_41:\n        /* \"#utility.yul\":53:58   */\n      0x00\n        /* \"#utility.yul\":91:97   */\n      dup2\n        /* \"#utility.yul\":78:98   */\n      calldataload\n        /* \"#utility.yul\":69:98   */\n      swap1\n      pop\n        /* \"#utility.yul\":107:140   */\n      tag_43\n        /* \"#utility.yul\":134:139   */\n      dup2\n        /* \"#utility.yul\":107:140   */\n      tag_44\n      jump\t// in\n    tag_43:\n        /* \"#utility.yul\":7:146   */\n      swap3\n      swap2\n      pop\n      pop\n      jump\t// out\n        /* \"#utility.yul\":152:481   */\n    tag_24:\n        /* \"#utility.yul\":211:217   */\n      0x00\n        /* \"#utility.yul\":260:262   */\n      0x20\n        /* \"#utility.yul\":248:257   */\n      dup3\n        /* \"#utility.yul\":239:246   */\n      dup5\n        /* \"#utility.yul\":235:258   */\n      sub\n        /* \"#utility.yul\":231:263   */\n      slt\n        /* \"#utility.yul\":228:347   */\n      iszero\n      tag_46\n      jumpi\n        /* \"#utility.yul\":266:345   */\n      tag_47\n      tag_48\n      jump\t// in\n    tag_47:\n        /* \"#utility.yul\":228:347   */\n    tag_46:\n        /* \"#utility.yul\":386:387   */\n      0x00\n        /* \"#utility.yul\":411:464   */\n      tag_49\n        /* \"#utility.yul\":456:463   */\n      dup5\n        /* \"#utility.yul\":447:453   */\n      dup3\n        /* \"#utility.yul\":436:445   */\n      dup6\n        /* \"#utility.yul\":432:454   */\n      add\n        /* \"#utility.yul\":411:464   */\n      tag_41\n      jump\t// in\n    tag_49:\n        /* \"#utility.yul\":401:464   */\n      swap2\n      pop\n        /* \"#utility.yul\":357:474   */\n      pop\n        /* \"#utility.yul\":152:481   */\n      swap3\n      swap2\n      pop\n      pop\n      jump\t// out\n        /* \"#utility.yul\":487:851   */\n    tag_50:\n        /* \"#utility.yul\":575:578   */\n      0x00\n        /* \"#utility.yul\":603:642   */\n      tag_52\n        /* \"#utility.yul\":636:641   */\n      dup3\n        /* \"#utility.yul\":603:642   */\n      tag_53\n      jump\t// in\n    tag_52:\n        /* \"#utility.yul\":658:729   */\n      tag_54\n        /* \"#utility.yul\":722:728   */\n      dup2\n        /* \"#utility.yul\":717:720   */\n      dup6\n        /* \"#utility.yul\":658:729   */\n      tag_55\n      jump\t// in\n    tag_54:\n        /* \"#utility.yul\":651:729   */\n      swap4\n      pop\n        /* \"#utility.yul\":738:790   */\n      tag_56\n        /* \"#utility.yul\":783:789   */\n      dup2\n        /* \"#utility.yul\":778:781   */\n      dup6\n        /* \"#utility.yul\":771:775   */\n      0x20\n        /* \"#utility.yul\":764:769   */\n      dup7\n        /* \"#utility.yul\":760:776   */\n      add\n        /* \"#utility.yul\":738:790   */\n      tag_57\n      jump\t// in\n    tag_56:\n        /* \"#utility.yul\":815:844   */\n      tag_58\n        /* \"#utility.yul\":837:843   */\n      dup2\n        /* \"#utility.yul\":815:844   */\n      tag_59\n      jump\t// in\n    tag_58:\n        /* \"#utility.yul\":810:813   */\n      dup5\n        /* \"#utility.yul\":806:845   */\n      add\n        /* \"#utility.yul\":799:845   */\n      swap2\n      pop\n        /* \"#utility.yul\":579:851   */\n      pop\n        /* \"#utility.yul\":487:851   */\n      swap3\n      swap2\n      pop\n      pop\n      jump\t// out\n        /* \"#utility.yul\":857:975   */\n    tag_60:\n        /* \"#utility.yul\":944:968   */\n      tag_62\n        /* \"#utility.yul\":962:967   */\n      dup2\n        /* \"#utility.yul\":944:968   */\n      tag_63\n      jump\t// in\n    tag_62:\n        /* \"#utility.yul\":939:942   */\n      dup3\n        /* \"#utility.yul\":932:969   */\n      mstore\n        /* \"#utility.yul\":857:975   */\n      pop\n      pop\n      jump\t// out\n        /* \"#utility.yul\":981:1203   */\n    tag_11:\n        /* \"#utility.yul\":1074:1078   */\n      0x00\n        /* \"#utility.yul\":1112:1114   */\n      0x20\n        /* \"#utility.yul\":1101:1110   */\n      dup3\n        /* \"#utility.yul\":1097:1115   */\n      add\n        /* \"#utility.yul\":1089:1115   */\n      swap1\n      pop\n        /* \"#utility.yul\":1125:1196   */\n      tag_65\n        /* \"#utility.yul\":1193:1194   */\n      0x00\n        /* \"#utility.yul\":1182:1191   */\n      dup4\n        /* \"#utility.yul\":1178:1195   */\n      add\n        /* \"#utility.yul\":1169:1175   */\n      dup5\n        /* \"#utility.yul\":1125:1196   */\n      tag_60\n      jump\t// in\n    tag_65:\n        /* \"#utility.yul\":981:1203   */\n      swap3\n      swap2\n      pop\n      pop\n      jump\t// out\n        /* \"#utility.yul\":1209:1632   */\n    tag_21:\n        /* \"#utility.yul\":1350:1354   */\n      0x00\n        /* \"#utility.yul\":1388:1390   */\n      0x40\n        /* \"#utility.yul\":1377:1386   */\n      dup3\n        /* \"#utility.yul\":1373:1391   */\n      add\n        /* \"#utility.yul\":1365:1391   */\n      swap1\n      pop\n        /* \"#utility.yul\":1401:1472   */\n      tag_67\n        /* \"#utility.yul\":1469:1470   */\n      0x00\n        /* \"#utility.yul\":1458:1467   */\n      dup4\n        /* \"#utility.yul\":1454:1471   */\n      add\n        /* \"#utility.yul\":1445:1451   */\n      dup6\n        /* \"#utility.yul\":1401:1472   */\n      tag_60\n      jump\t// in\n    tag_67:\n        /* \"#utility.yul\":1519:1528   */\n      dup2\n        /* \"#utility.yul\":1513:1517   */\n      dup2\n        /* \"#utility.yul\":1509:1529   */\n      sub\n        /* \"#utility.yul\":1504:1506   */\n      0x20\n        /* \"#utility.yul\":1493:1502   */\n      dup4\n        /* \"#utility.yul\":1489:1507   */\n      add\n        /* \"#utility.yul\":1482:1530   */\n      mstore\n        /* \"#utility.yul\":1547:1625   */\n      tag_68\n        /* \"#utility.yul\":1620:1624   */\n      dup2\n        /* \"#utility.yul\":1611:1617   */\n      dup5\n        /* \"#utility.yul\":1547:1625   */\n      tag_50\n      jump\t// in\n    tag_68:\n        /* \"#utility.yul\":1539:1625   */\n      swap1\n      pop\n        /* \"#utility.yul\":1209:1632   */\n      swap4\n      swap3\n      pop\n      pop\n      pop\n      jump\t// out\n        /* \"#utility.yul\":1719:1818   */\n    tag_53:\n        /* \"#utility.yul\":1771:1777   */\n      0x00\n        /* \"#utility.yul\":1805:1810   */\n      dup2\n        /* \"#utility.yul\":1799:1811   */\n      mload\n        /* \"#utility.yul\":1789:1811   */\n      swap1\n      pop\n        /* \"#utility.yul\":1719:1818   */\n      swap2\n      swap1\n      pop\n      jump\t// out\n        /* \"#utility.yul\":1824:1993   */\n    tag_55:\n        /* \"#utility.yul\":1908:1919   */\n      0x00\n        /* \"#utility.yul\":1942:1948   */\n      dup3\n        /* \"#utility.yul\":1937:1940   */\n      dup3\n        /* \"#utility.yul\":1930:1949   */\n      mstore\n        /* \"#utility.yul\":1982:1986   */\n      0x20\n        /* \"#utility.yul\":1977:1980   */\n      dup3\n        /* \"#utility.yul\":1973:1987   */\n      add\n        /* \"#utility.yul\":1958:1987   */\n      swap1\n      pop\n        /* \"#utility.yul\":1824:1993   */\n      swap3\n      swap2\n      pop\n      pop\n      jump\t// out\n        /* \"#utility.yul\":1999:2304   */\n    tag_39:\n        /* \"#utility.yul\":2039:2042   */\n      0x00\n        /* \"#utility.yul\":2058:2078   */\n      tag_74\n        /* \"#utility.yul\":2076:2077   */\n      dup3\n        /* \"#utility.yul\":2058:2078   */\n      tag_63\n      jump\t// in\n    tag_74:\n        /* \"#utility.yul\":2053:2078   */\n      swap2\n      pop\n        /* \"#utility.yul\":2092:2112   */\n      tag_75\n        /* \"#utility.yul\":2110:2111   */\n      dup4\n        /* \"#utility.yul\":2092:2112   */\n      tag_63\n      jump\t// in\n    tag_75:\n        /* \"#utility.yul\":2087:2112   */\n      swap3\n      pop\n        /* \"#utility.yul\":2246:2247   */\n      dup3\n        /* \"#utility.yul\":2178:2244   */\n      0xffffffffffffffffffffffffffffffffffffffffffffffffffffffffffffffff\n        /* \"#utility.yul\":2174:2248   */\n      sub\n        /* \"#utility.yul\":2171:2172   */\n      dup3\n        /* \"#utility.yul\":2168:2249   */\n      gt\n        /* \"#utility.yul\":2165:2272   */\n      iszero\n      tag_76\n      jumpi\n        /* \"#utility.yul\":2252:2270   */\n      tag_77\n      tag_78\n      jump\t// in\n    tag_77:\n        /* \"#utility.yul\":2165:2272   */\n    tag_76:\n        /* \"#utility.yul\":2296:2297   */\n      dup3\n        /* \"#utility.yul\":2293:2294   */\n      dup3\n        /* \"#utility.yul\":2289:2298   */\n      add\n        /* \"#utility.yul\":2282:2298   */\n      swap1\n      pop\n        /* \"#utility.yul\":1999:2304   */\n      swap3\n      swap2\n      pop\n      pop\n      jump\t// out\n        /* \"#utility.yul\":2310:2387   */\n    tag_63:\n        /* \"#utility.yul\":2347:2354   */\n      0x00\n        /* \"#utility.yul\":2376:2381   */\n      dup2\n        /* \"#utility.yul\":2365:2381   */\n      swap1\n      pop\n        /* \"#utility.yul\":2310:2387   */\n      swap2\n      swap1\n      pop\n      jump\t// out\n        /* \"#utility.yul\":2393:2700   */\n    tag_57:\n        /* \"#utility.yul\":2461:2462   */\n      0x00\n        /* \"#utility.yul\":2471:2584   */\n    tag_81:\n        /* \"#utility.yul\":2485:2491   */\n      dup4\n        /* \"#utility.yul\":2482:2483   */\n      dup2\n        /* \"#utility.yul\":2479:2492   */\n      lt\n        /* \"#utility.yul\":2471:2584   */\n      iszero\n      tag_83\n      jumpi\n        /* \"#utility.yul\":2570:2571   */\n      dup1\n        /* \"#utility.yul\":2565:2568   */\n      dup3\n        /* \"#utility.yul\":2561:2572   */\n      add\n        /* \"#utility.yul\":2555:2573   */\n      mload\n        /* \"#utility.yul\":2551:2552   */\n      dup2\n        /* \"#utility.yul\":2546:2549   */\n      dup5\n        /* \"#utility.yul\":2542:2553   */\n      add\n        /* \"#utility.yul\":2535:2574   */\n      mstore\n        /* \"#utility.yul\":2507:2509   */\n      0x20\n        /* \"#utility.yul\":2504:2505   */\n      dup2\n        /* \"#utility.yul\":2500:2510   */\n      add\n        /* \"#utility.yul\":2495:2510   */\n      swap1\n      pop\n        /* \"#utility.yul\":2471:2584   */\n      jump(tag_81)\n    tag_83:\n        /* \"#utility.yul\":2602:2608   */\n      dup4\n        /* \"#utility.yul\":2599:2600   */\n      dup2\n        /* \"#utility.yul\":2596:2609   */\n      gt\n        /* \"#utility.yul\":2593:2694   */\n      iszero\n      tag_84\n      jumpi\n        /* \"#utility.yul\":2682:2683   */\n      0x00\n        /* \"#utility.yul\":2673:2679   */\n      dup5\n        /* \"#utility.yul\":2668:2671   */\n      dup5\n        /* \"#utility.yul\":2664:2680   */\n      add\n        /* \"#utility.yul\":2657:2684   */\n      mstore\n        /* \"#utility.yul\":2593:2694   */\n    tag_84:\n        /* \"#utility.yul\":2442:2700   */\n      pop\n        /* \"#utility.yul\":2393:2700   */\n      pop\n      pop\n      pop\n      jump\t// out\n        /* \"#utility.yul\":2706:3026   */\n    tag_31:\n        /* \"#utility.yul\":2750:2756   */\n      0x00\n        /* \"#utility.yul\":2787:2788   */\n      0x02\n        /* \"#utility.yul\":2781:2785   */\n      dup3\n        /* \"#utility.yul\":2777:2789   */\n      div\n        /* \"#utility.yul\":2767:2789   */\n      swap1\n      pop\n        /* \"#utility.yul\":2834:2835   */\n      0x01\n        /* \"#utility.yul\":2828:2832   */\n      dup3\n        /* \"#utility.yul\":2824:2836   */\n      and\n        /* \"#utility.yul\":2855:2873   */\n      dup1\n        /* \"#utility.yul\":2845:2926   */\n      tag_86\n      jumpi\n        /* \"#utility.yul\":2911:2915   */\n      0x7f\n        /* \"#utility.yul\":2903:2909   */\n      dup3\n        /* \"#utility.yul\":2899:2916   */\n      and\n        /* \"#utility.yul\":2889:2916   */\n      swap2\n      pop\n        /* \"#utility.yul\":2845:2926   */\n    tag_86:\n        /* \"#utility.yul\":2973:2975   */\n      0x20\n        /* \"#utility.yul\":2965:2971   */\n      dup3\n        /* \"#utility.yul\":2962:2976   */\n      lt\n        /* \"#utility.yul\":2942:2960   */\n      dup2\n        /* \"#utility.yul\":2939:2977   */\n      eq\n        /* \"#utility.yul\":2936:3020   */\n      iszero\n      tag_87\n      jumpi\n        /* \"#utility.yul\":2992:3010   */\n      tag_88\n      tag_89\n      jump\t// in\n    tag_88:\n        /* \"#utility.yul\":2936:3020   */\n    tag_87:\n        /* \"#utility.yul\":2757:3026   */\n      pop\n        /* \"#utility.yul\":2706:3026   */\n      swap2\n      swap1\n      pop\n      jump\t// out\n        /* \"#utility.yul\":3032:3212   */\n    tag_78:\n        /* \"#utility.yul\":3080:3157   */\n      0x4e487b7100000000000000000000000000000000000000000000000000000000\n        /* \"#utility.yul\":3077:3078   */\n      0x00\n        /* \"#utility.yul\":3070:3158   */\n      mstore\n        /* \"#utility.yul\":3177:3181   */\n      0x11\n        /* \"#utility.yul\":3174:3175   */\n      0x04\n        /* \"#utility.yul\":3167:3182   */\n      mstore\n        /* \"#utility.yul\":3201:3205   */\n      0x24\n        /* \"#utility.yul\":3198:3199   */\n      0x00\n        /* \"#utility.yul\":3191:3206   */\n      revert\n        /* \"#utility.yul\":3218:3398   */\n    tag_89:\n        /* \"#utility.yul\":3266:3343   */\n      0x4e487b7100000000000000000000000000000000000000000000000000000000\n        /* \"#utility.yul\":3263:3264   */\n      0x00\n        /* \"#utility.yul\":3256:3344   */\n      mstore\n        /* \"#utility.yul\":3363:3367   */\n      0x22\n        /* \"#utility.yul\":3360:3361   */\n      0x04\n        /* \"#utility.yul\":3353:3368   */\n      mstore\n        /* \"#utility.yul\":3387:3391   */\n      0x24\n        /* \"#utility.yul\":3384:3385   */\n      0x00\n        /* \"#utility.yul\":3377:3392   */\n      revert\n        /* \"#utility.yul\":3527:3644   */\n    tag_48:\n        /* \"#utility.yul\":3636:3637   */\n      0x00\n        /* \"#utility.yul\":3633:3634   */\n      dup1\n        /* \"#utility.yul\":3626:3638   */\n      revert\n        /* \"#utility.yul\":3650:3752   */\n    tag_59:\n        /* \"#utility.yul\":3691:3697   */\n      0x00\n        /* \"#utility.yul\":3742:3744   */\n      0x1f\n        /* \"#utility.yul\":3738:3745   */\n      not\n        /* \"#utility.yul\":3733:3735   */\n      0x1f\n        /* \"#utility.yul\":3726:3731   */\n      dup4\n        /* \"#utility.yul\":3722:3736   */\n      add\n        /* \"#utility.yul\":3718:3746   */\n      and\n        /* \"#utility.yul\":3708:3746   */\n      swap1\n      pop\n        /* \"#utility.yul\":3650:3752   */\n      swap2\n      swap1\n      pop\n      jump\t// out\n        /* \"#utility.yul\":3758:3880   */\n    tag_44:\n        /* \"#utility.yul\":3831:3855   */\n      tag_97\n        /* \"#utility.yul\":3849:3854   */\n      dup2\n        /* \"#utility.yul\":3831:3855   */\n      tag_63\n      jump\t// in\n    tag_97:\n        /* \"#utility.yul\":3824:3829   */\n      dup2\n        /* \"#utility.yul\":3821:3856   */\n      eq\n        /* \"#utility.yul\":3811:3874   */\n      tag_98\n      jumpi\n        /* \"#utility.yul\":3870:3871   */\n      0x00\n        /* \"#utility.yul\":3867:3868   */\n      dup1\n        /* \"#utility.yul\":3860:3872   */\n      revert\n        /* \"#utility.yul\":3811:3874   */\n    tag_98:\n        /* \"#utility.yul\":3758:3880   */\n      pop\n      jump\t// out\n\n    auxdata: 0xa2646970667358221220f639561385151a0ae51a103e9f2dcee0c5975263942396795e6d10744b27c4ec64736f6c63430008070033\n}\n",
				"bytecode": {
					"linkReferences": {},
					"object": "608060405273ff9e843a68b78251907dcba616f09b03012b545f600460006101000a81548173ffffffffffffffffffffffffffffffffffffffff021916908373ffffffffffffffffffffffffffffffffffffffff1602179055506040518060400160405280600281526020016040518060400160405280600581526020017f416d69796100000000000000000000000000000000000000000000000000000081525081525060066000820151816000015560208201518160010190805190602001906100cc9291906100e1565b5050503480156100db57600080fd5b506101e5565b8280546100ed90610184565b90600052602060002090601f01602090048101928261010f5760008555610156565b82601f1061012857805160ff1916838001178555610156565b82800160010185558215610156579182015b8281111561015557825182559160200191906001019061013a565b5b5090506101639190610167565b5090565b5b80821115610180576000816000905550600101610168565b5090565b6000600282049050600182168061019c57607f821691505b602082108114156101b0576101af6101b6565b5b50919050565b7f4e487b7100000000000000000000000000000000000000000000000000000000600052602260045260246000fd5b610448806101f46000396000f3fe608060405234801561001057600080fd5b50600436106100575760003560e01c80632e64cec11461005c578063376e37ac1461007a5780633c8df6521461009857806377ec2b55146100b65780639a67c8b1146100d5575b600080fd5b6100646100f1565b604051610071919061025b565b60405180910390f35b6100826100fa565b60405161008f919061025b565b60405180910390f35b6100a061010c565b6040516100ad919061025b565b60405180910390f35b6100be610112565b6040516100cc929190610276565b60405180910390f35b6100ef60048036038101906100ea91906101e6565b6101ac565b005b60008054905090565b60006101076000546101b6565b905090565b60005481565b600680600001549080600101805461012990610355565b80601f016020809104026020016040519081016040528092919081815260200182805461015590610355565b80156101a25780601f10610177576101008083540402835291602001916101a2565b820191906000526020600020905b81548152906001019060200180831161018557829003601f168201915b5050505050905082565b8060008190555050565b6000806001836101c691906102c2565b905080915050919050565b6000813590506101e0816103fb565b92915050565b6000602082840312156101fc576101fb6103e5565b5b600061020a848285016101d1565b91505092915050565b600061021e826102a6565b61022881856102b1565b9350610238818560208601610322565b610241816103ea565b840191505092915050565b61025581610318565b82525050565b6000602082019050610270600083018461024c565b92915050565b600060408201905061028b600083018561024c565b818103602083015261029d8184610213565b90509392505050565b600081519050919050565b600082825260208201905092915050565b60006102cd82610318565b91506102d883610318565b9250827fffffffffffffffffffffffffffffffffffffffffffffffffffffffffffffffff0382111561030d5761030c610387565b5b828201905092915050565b6000819050919050565b60005b83811015610340578082015181840152602081019050610325565b8381111561034f576000848401525b50505050565b6000600282049050600182168061036d57607f821691505b60208210811415610381576103806103b6565b5b50919050565b7f4e487b7100000000000000000000000000000000000000000000000000000000600052601160045260246000fd5b7f4e487b7100000000000000000000000000000000000000000000000000000000600052602260045260246000fd5b600080fd5b6000601f19601f8301169050919050565b61040481610318565b811461040f57600080fd5b5056fea2646970667358221220f639561385151a0ae51a103e9f2dcee0c5975263942396795e6d10744b27c4ec64736f6c63430008070033",
					"opcodes": "PUSH1 0x80 PUSH1 0x40 MSTORE PUSH20 0xFF9E843A68B78251907DCBA616F09B03012B545F PUSH1 0x4 PUSH1 0x0 PUSH2 0x100 EXP DUP2 SLOAD DUP2 PUSH20 0xFFFFFFFFFFFFFFFFFFFFFFFFFFFFFFFFFFFFFFFF MUL NOT AND SWAP1 DUP4 PUSH20 0xFFFFFFFFFFFFFFFFFFFFFFFFFFFFFFFFFFFFFFFF AND MUL OR SWAP1 SSTORE POP PUSH1 0x40 MLOAD DUP1 PUSH1 0x40 ADD PUSH1 0x40 MSTORE DUP1 PUSH1 0x2 DUP2 MSTORE PUSH1 0x20 ADD PUSH1 0x40 MLOAD DUP1 PUSH1 0x40 ADD PUSH1 0x40 MSTORE DUP1 PUSH1 0x5 DUP2 MSTORE PUSH1 0x20 ADD PUSH32 0x416D697961000000000000000000000000000000000000000000000000000000 DUP2 MSTORE POP DUP2 MSTORE POP PUSH1 0x6 PUSH1 0x0 DUP3 ADD MLOAD DUP2 PUSH1 0x0 ADD SSTORE PUSH1 0x20 DUP3 ADD MLOAD DUP2 PUSH1 0x1 ADD SWAP1 DUP1 MLOAD SWAP1 PUSH1 0x20 ADD SWAP1 PUSH2 0xCC SWAP3 SWAP2 SWAP1 PUSH2 0xE1 JUMP JUMPDEST POP POP POP CALLVALUE DUP1 ISZERO PUSH2 0xDB JUMPI PUSH1 0x0 DUP1 REVERT JUMPDEST POP PUSH2 0x1E5 JUMP JUMPDEST DUP3 DUP1 SLOAD PUSH2 0xED SWAP1 PUSH2 0x184 JUMP JUMPDEST SWAP1 PUSH1 0x0 MSTORE PUSH1 0x20 PUSH1 0x0 KECCAK256 SWAP1 PUSH1 0x1F ADD PUSH1 0x20 SWAP1 DIV DUP2 ADD SWAP3 DUP3 PUSH2 0x10F JUMPI PUSH1 0x0 DUP6 SSTORE PUSH2 0x156 JUMP JUMPDEST DUP3 PUSH1 0x1F LT PUSH2 0x128 JUMPI DUP1 MLOAD PUSH1 0xFF NOT AND DUP4 DUP1 ADD OR DUP6 SSTORE PUSH2 0x156 JUMP JUMPDEST DUP3 DUP1 ADD PUSH1 0x1 ADD DUP6 SSTORE DUP3 ISZERO PUSH2 0x156 JUMPI SWAP2 DUP3 ADD JUMPDEST DUP3 DUP2 GT ISZERO PUSH2 0x155 JUMPI DUP3 MLOAD DUP3 SSTORE SWAP2 PUSH1 0x20 ADD SWAP2 SWAP1 PUSH1 0x1 ADD SWAP1 PUSH2 0x13A JUMP JUMPDEST JUMPDEST POP SWAP1 POP PUSH2 0x163 SWAP2 SWAP1 PUSH2 0x167 JUMP JUMPDEST POP SWAP1 JUMP JUMPDEST JUMPDEST DUP1 DUP3 GT ISZERO PUSH2 0x180 JUMPI PUSH1 0x0 DUP2 PUSH1 0x0 SWAP1 SSTORE POP PUSH1 0x1 ADD PUSH2 0x168 JUMP JUMPDEST POP SWAP1 JUMP JUMPDEST PUSH1 0x0 PUSH1 0x2 DUP3 DIV SWAP1 POP PUSH1 0x1 DUP3 AND DUP1 PUSH2 0x19C JUMPI PUSH1 0x7F DUP3 AND SWAP2 POP JUMPDEST PUSH1 0x20 DUP3 LT DUP2 EQ ISZERO PUSH2 0x1B0 JUMPI PUSH2 0x1AF PUSH2 0x1B6 JUMP JUMPDEST JUMPDEST POP SWAP2 SWAP1 POP JUMP JUMPDEST PUSH32 0x4E487B7100000000000000000000000000000000000000000000000000000000 PUSH1 0x0 MSTORE PUSH1 0x22 PUSH1 0x4 MSTORE PUSH1 0x24 PUSH1 0x0 REVERT JUMPDEST PUSH2 0x448 DUP1 PUSH2 0x1F4 PUSH1 0x0 CODECOPY PUSH1 0x0 RETURN INVALID PUSH1 0x80 PUSH1 0x40 MSTORE CALLVALUE DUP1 ISZERO PUSH2 0x10 JUMPI PUSH1 0x0 DUP1 REVERT JUMPDEST POP PUSH1 0x4 CALLDATASIZE LT PUSH2 0x57 JUMPI PUSH1 0x0 CALLDATALOAD PUSH1 0xE0 SHR DUP1 PUSH4 0x2E64CEC1 EQ PUSH2 0x5C JUMPI DUP1 PUSH4 0x376E37AC EQ PUSH2 0x7A JUMPI DUP1 PUSH4 0x3C8DF652 EQ PUSH2 0x98 JUMPI DUP1 PUSH4 0x77EC2B55 EQ PUSH2 0xB6 JUMPI DUP1 PUSH4 0x9A67C8B1 EQ PUSH2 0xD5 JUMPI JUMPDEST PUSH1 0x0 DUP1 REVERT JUMPDEST PUSH2 0x64 PUSH2 0xF1 JUMP JUMPDEST PUSH1 0x40 MLOAD PUSH2 0x71 SWAP2 SWAP1 PUSH2 0x25B JUMP JUMPDEST PUSH1 0x40 MLOAD DUP1 SWAP2 SUB SWAP1 RETURN JUMPDEST PUSH2 0x82 PUSH2 0xFA JUMP JUMPDEST PUSH1 0x40 MLOAD PUSH2 0x8F SWAP2 SWAP1 PUSH2 0x25B JUMP JUMPDEST PUSH1 0x40 MLOAD DUP1 SWAP2 SUB SWAP1 RETURN JUMPDEST PUSH2 0xA0 PUSH2 0x10C JUMP JUMPDEST PUSH1 0x40 MLOAD PUSH2 0xAD SWAP2 SWAP1 PUSH2 0x25B JUMP JUMPDEST PUSH1 0x40 MLOAD DUP1 SWAP2 SUB SWAP1 RETURN JUMPDEST PUSH2 0xBE PUSH2 0x112 JUMP JUMPDEST PUSH1 0x40 MLOAD PUSH2 0xCC SWAP3 SWAP2 SWAP1 PUSH2 0x276 JUMP JUMPDEST PUSH1 0x40 MLOAD DUP1 SWAP2 SUB SWAP1 RETURN JUMPDEST PUSH2 0xEF PUSH1 0x4 DUP1 CALLDATASIZE SUB DUP2 ADD SWAP1 PUSH2 0xEA SWAP2 SWAP1 PUSH2 0x1E6 JUMP JUMPDEST PUSH2 0x1AC JUMP JUMPDEST STOP JUMPDEST PUSH1 0x0 DUP1 SLOAD SWAP1 POP SWAP1 JUMP JUMPDEST PUSH1 0x0 PUSH2 0x107 PUSH1 0x0 SLOAD PUSH2 0x1B6 JUMP JUMPDEST SWAP1 POP SWAP1 JUMP JUMPDEST PUSH1 0x0 SLOAD DUP2 JUMP JUMPDEST PUSH1 0x6 DUP1 PUSH1 0x0 ADD SLOAD SWAP1 DUP1 PUSH1 0x1 ADD DUP1 SLOAD PUSH2 0x129 SWAP1 PUSH2 0x355 JUMP JUMPDEST DUP1 PUSH1 0x1F ADD PUSH1 0x20 DUP1 SWAP2 DIV MUL PUSH1 0x20 ADD PUSH1 0x40 MLOAD SWAP1 DUP2 ADD PUSH1 0x40 MSTORE DUP1 SWAP3 SWAP2 SWAP1 DUP2 DUP2 MSTORE PUSH1 0x20 ADD DUP3 DUP1 SLOAD PUSH2 0x155 SWAP1 PUSH2 0x355 JUMP JUMPDEST DUP1 ISZERO PUSH2 0x1A2 JUMPI DUP1 PUSH1 0x1F LT PUSH2 0x177 JUMPI PUSH2 0x100 DUP1 DUP4 SLOAD DIV MUL DUP4 MSTORE SWAP2 PUSH1 0x20 ADD SWAP2 PUSH2 0x1A2 JUMP JUMPDEST DUP3 ADD SWAP2 SWAP1 PUSH1 0x0 MSTORE PUSH1 0x20 PUSH1 0x0 KECCAK256 SWAP1 JUMPDEST DUP2 SLOAD DUP2 MSTORE SWAP1 PUSH1 0x1 ADD SWAP1 PUSH1 0x20 ADD DUP1 DUP4 GT PUSH2 0x185 JUMPI DUP3 SWAP1 SUB PUSH1 0x1F AND DUP3 ADD SWAP2 JUMPDEST POP POP POP POP POP SWAP1 POP DUP3 JUMP JUMPDEST DUP1 PUSH1 0x0 DUP2 SWAP1 SSTORE POP POP JUMP JUMPDEST PUSH1 0x0 DUP1 PUSH1 0x1 DUP4 PUSH2 0x1C6 SWAP2 SWAP1 PUSH2 0x2C2 JUMP JUMPDEST SWAP1 POP DUP1 SWAP2 POP POP SWAP2 SWAP1 POP JUMP JUMPDEST PUSH1 0x0 DUP2 CALLDATALOAD SWAP1 POP PUSH2 0x1E0 DUP2 PUSH2 0x3FB JUMP JUMPDEST SWAP3 SWAP2 POP POP JUMP JUMPDEST PUSH1 0x0 PUSH1 0x20 DUP3 DUP5 SUB SLT ISZERO PUSH2 0x1FC JUMPI PUSH2 0x1FB PUSH2 0x3E5 JUMP JUMPDEST JUMPDEST PUSH1 0x0 PUSH2 0x20A DUP5 DUP3 DUP6 ADD PUSH2 0x1D1 JUMP JUMPDEST SWAP2 POP POP SWAP3 SWAP2 POP POP JUMP JUMPDEST PUSH1 0x0 PUSH2 0x21E DUP3 PUSH2 0x2A6 JUMP JUMPDEST PUSH2 0x228 DUP2 DUP6 PUSH2 0x2B1 JUMP JUMPDEST SWAP4 POP PUSH2 0x238 DUP2 DUP6 PUSH1 0x20 DUP7 ADD PUSH2 0x322 JUMP JUMPDEST PUSH2 0x241 DUP2 PUSH2 0x3EA JUMP JUMPDEST DUP5 ADD SWAP2 POP POP SWAP3 SWAP2 POP POP JUMP JUMPDEST PUSH2 0x255 DUP2 PUSH2 0x318 JUMP JUMPDEST DUP3 MSTORE POP POP JUMP JUMPDEST PUSH1 0x0 PUSH1 0x20 DUP3 ADD SWAP1 POP PUSH2 0x270 PUSH1 0x0 DUP4 ADD DUP5 PUSH2 0x24C JUMP JUMPDEST SWAP3 SWAP2 POP POP JUMP JUMPDEST PUSH1 0x0 PUSH1 0x40 DUP3 ADD SWAP1 POP PUSH2 0x28B PUSH1 0x0 DUP4 ADD DUP6 PUSH2 0x24C JUMP JUMPDEST DUP2 DUP2 SUB PUSH1 0x20 DUP4 ADD MSTORE PUSH2 0x29D DUP2 DUP5 PUSH2 0x213 JUMP JUMPDEST SWAP1 POP SWAP4 SWAP3 POP POP POP JUMP JUMPDEST PUSH1 0x0 DUP2 MLOAD SWAP1 POP SWAP2 SWAP1 POP JUMP JUMPDEST PUSH1 0x0 DUP3 DUP3 MSTORE PUSH1 0x20 DUP3 ADD SWAP1 POP SWAP3 SWAP2 POP POP JUMP JUMPDEST PUSH1 0x0 PUSH2 0x2CD DUP3 PUSH2 0x318 JUMP JUMPDEST SWAP2 POP PUSH2 0x2D8 DUP4 PUSH2 0x318 JUMP JUMPDEST SWAP3 POP DUP3 PUSH32 0xFFFFFFFFFFFFFFFFFFFFFFFFFFFFFFFFFFFFFFFFFFFFFFFFFFFFFFFFFFFFFFFF SUB DUP3 GT ISZERO PUSH2 0x30D JUMPI PUSH2 0x30C PUSH2 0x387 JUMP JUMPDEST JUMPDEST DUP3 DUP3 ADD SWAP1 POP SWAP3 SWAP2 POP POP JUMP JUMPDEST PUSH1 0x0 DUP2 SWAP1 POP SWAP2 SWAP1 POP JUMP JUMPDEST PUSH1 0x0 JUMPDEST DUP4 DUP2 LT ISZERO PUSH2 0x340 JUMPI DUP1 DUP3 ADD MLOAD DUP2 DUP5 ADD MSTORE PUSH1 0x20 DUP2 ADD SWAP1 POP PUSH2 0x325 JUMP JUMPDEST DUP4 DUP2 GT ISZERO PUSH2 0x34F JUMPI PUSH1 0x0 DUP5 DUP5 ADD MSTORE JUMPDEST POP POP POP POP JUMP JUMPDEST PUSH1 0x0 PUSH1 0x2 DUP3 DIV SWAP1 POP PUSH1 0x1 DUP3 AND DUP1 PUSH2 0x36D JUMPI PUSH1 0x7F DUP3 AND SWAP2 POP JUMPDEST PUSH1 0x20 DUP3 LT DUP2 EQ ISZERO PUSH2 0x381 JUMPI PUSH2 0x380 PUSH2 0x3B6 JUMP JUMPDEST JUMPDEST POP SWAP2 SWAP1 POP JUMP JUMPDEST PUSH32 0x4E487B7100000000000000000000000000000000000000000000000000000000 PUSH1 0x0 MSTORE PUSH1 0x11 PUSH1 0x4 MSTORE PUSH1 0x24 PUSH1 0x0 REVERT JUMPDEST PUSH32 0x4E487B7100000000000000000000000000000000000000000000000000000000 PUSH1 0x0 MSTORE PUSH1 0x22 PUSH1 0x4 MSTORE PUSH1 0x24 PUSH1 0x0 REVERT JUMPDEST PUSH1 0x0 DUP1 REVERT JUMPDEST PUSH1 0x0 PUSH1 0x1F NOT PUSH1 0x1F DUP4 ADD AND SWAP1 POP SWAP2 SWAP1 POP JUMP JUMPDEST PUSH2 0x404 DUP2 PUSH2 0x318 JUMP JUMPDEST DUP2 EQ PUSH2 0x40F JUMPI PUSH1 0x0 DUP1 REVERT JUMPDEST POP JUMP INVALID LOG2 PUSH5 0x6970667358 0x22 SLT KECCAK256 0xF6 CODECOPY JUMP SGT DUP6 ISZERO BYTE EXP 0xE5 BYTE LT RETURNDATACOPY SWAP16 0x2D 0xCE 0xE0 0xC5 SWAP8 MSTORE PUSH4 0x94239679 0x5E PUSH14 0x10744B27C4EC64736F6C63430008 SMOD STOP CALLER "
				},
				"gasEstimates": {
					"creation": {
						"codeDepositCost": "219200",
						"executionCost": "infinite",
						"totalCost": "infinite"
					},
					"external": {
						"calRet()": "infinite",
						"favNum()": "2451",
						"person()": "infinite",
						"retrieve()": "2415",
						"storeNum(uint256)": "22586"
					},
					"internal": {
						"cal(uint256)": "infinite"
					}
				},
				"methodIdentifiers": {
					"calRet()": "376e37ac",
					"favNum()": "3c8df652",
					"person()": "77ec2b55",
					"retrieve()": "2e64cec1",
					"storeNum(uint256)": "9a67c8b1"
				}
			},
			"storageLayout": {
				"storage": [
					{
						"astId": 3,
						"contract": "contracts/SimpleStorage.sol:SimpleStorage",
						"label": "favNum",
						"offset": 0,
						"slot": "0",
						"type": "t_uint256"
					},
					{
						"astId": 5,
						"contract": "contracts/SimpleStorage.sol:SimpleStorage",
						"label": "favBool",
						"offset": 0,
						"slot": "1",
						"type": "t_bool"
					},
					{
						"astId": 7,
						"contract": "contracts/SimpleStorage.sol:SimpleStorage",
						"label": "favString",
						"offset": 0,
						"slot": "2",
						"type": "t_string_storage"
					},
					{
						"astId": 9,
						"contract": "contracts/SimpleStorage.sol:SimpleStorage",
						"label": "favInt",
						"offset": 0,
						"slot": "3",
						"type": "t_int256"
					},
					{
						"astId": 12,
						"contract": "contracts/SimpleStorage.sol:SimpleStorage",
						"label": "favAddr",
						"offset": 0,
						"slot": "4",
						"type": "t_address"
					},
					{
						"astId": 14,
						"contract": "contracts/SimpleStorage.sol:SimpleStorage",
						"label": "favBytes",
						"offset": 0,
						"slot": "5",
						"type": "t_bytes_storage"
					},
					{
						"astId": 26,
						"contract": "contracts/SimpleStorage.sol:SimpleStorage",
						"label": "person",
						"offset": 0,
						"slot": "6",
						"type": "t_struct(People)19_storage"
					}
				],
				"types": {
					"t_address": {
						"encoding": "inplace",
						"label": "address",
						"numberOfBytes": "20"
					},
					"t_bool": {
						"encoding": "inplace",
						"label": "bool",
						"numberOfBytes": "1"
					},
					"t_bytes_storage": {
						"encoding": "bytes",
						"label": "bytes",
						"numberOfBytes": "32"
					},
					"t_int256": {
						"encoding": "inplace",
						"label": "int256",
						"numberOfBytes": "32"
					},
					"t_string_storage": {
						"encoding": "bytes",
						"label": "string",
						"numberOfBytes": "32"
					},
					"t_struct(People)19_storage": {
						"encoding": "inplace",
						"label": "struct SimpleStorage.People",
						"members": [
							{
								"astId": 16,
								"contract": "contracts/SimpleStorage.sol:SimpleStorage",
								"label": "favNum",
								"offset": 0,
								"slot": "0",
								"type": "t_uint256"
							},
							{
								"astId": 18,
								"contract": "contracts/SimpleStorage.sol:SimpleStorage",
								"label": "name",
								"offset": 0,
								"slot": "1",
								"type": "t_string_storage"
							}
						],
						"numberOfBytes": "64"
					},
					"t_uint256": {
						"encoding": "inplace",
						"label": "uint256",
						"numberOfBytes": "32"
					}
				}
			},
			"userdoc": {
				"kind": "user",
				"methods": {},
				"version": 1
			}
		}
	}
}