{
	"contracts/Coin2.sol": {
		"CoinFlip": {
			"abi": [
				{
					"inputs": [
						{
							"internalType": "bytes32",
							"name": "commitment",
							"type": "bytes32"
						}
					],
					"stateMutability": "payable",
					"type": "constructor"
				},
				{
					"inputs": [
						{
							"internalType": "bool",
							"name": "choice",
							"type": "bool"
						},
						{
							"internalType": "uint256",
							"name": "nonce",
							"type": "uint256"
						}
					],
					"name": "Reveal1",
					"outputs": [],
					"stateMutability": "nonpayable",
					"type": "function"
				},
				{
					"inputs": [
						{
							"internalType": "bool",
							"name": "choice",
							"type": "bool"
						},
						{
							"internalType": "uint256",
							"name": "nonce",
							"type": "uint256"
						}
					],
					"name": "Reveal2",
					"outputs": [],
					"stateMutability": "nonpayable",
					"type": "function"
				},
				{
					"inputs": [
						{
							"internalType": "bytes32",
							"name": "commitment",
							"type": "bytes32"
						}
					],
					"name": "TakeBet",
					"outputs": [],
					"stateMutability": "payable",
					"type": "function"
				},
				{
					"inputs": [],
					"name": "betAmount",
					"outputs": [
						{
							"internalType": "uint256",
							"name": "",
							"type": "uint256"
						}
					],
					"stateMutability": "view",
					"type": "function"
				},
				{
					"inputs": [],
					"name": "player1",
					"outputs": [
						{
							"internalType": "address payable",
							"name": "",
							"type": "address"
						}
					],
					"stateMutability": "view",
					"type": "function"
				},
				{
					"inputs": [],
					"name": "player1Choice",
					"outputs": [
						{
							"internalType": "bool",
							"name": "",
							"type": "bool"
						}
					],
					"stateMutability": "view",
					"type": "function"
				},
				{
					"inputs": [],
					"name": "player1Commitment",
					"outputs": [
						{
							"internalType": "bytes32",
							"name": "",
							"type": "bytes32"
						}
					],
					"stateMutability": "view",
					"type": "function"
				},
				{
					"inputs": [],
					"name": "player2",
					"outputs": [
						{
							"internalType": "address payable",
							"name": "",
							"type": "address"
						}
					],
					"stateMutability": "view",
					"type": "function"
				},
				{
					"inputs": [],
					"name": "player2Choice",
					"outputs": [
						{
							"internalType": "bool",
							"name": "",
							"type": "bool"
						}
					],
					"stateMutability": "view",
					"type": "function"
				},
				{
					"inputs": [],
					"name": "player2Commitment",
					"outputs": [
						{
							"internalType": "bytes32",
							"name": "",
							"type": "bytes32"
						}
					],
					"stateMutability": "view",
					"type": "function"
				},
				{
					"inputs": [],
					"name": "revealed",
					"outputs": [
						{
							"internalType": "bool",
							"name": "",
							"type": "bool"
						}
					],
					"stateMutability": "view",
					"type": "function"
				}
			],
			"devdoc": {
				"kind": "dev",
				"methods": {},
				"version": 1
			},
			"evm": {
				"assembly": "    /* \"contracts/Coin2.sol\":62:1518  contract CoinFlip {\r... */\n  mstore(0x40, 0x80)\n    /* \"contracts/Coin2.sol\":369:557  constructor(bytes32 commitment) payable {\r... */\n  mload(0x40)\n  sub(codesize, bytecodeSize)\n  dup1\n  bytecodeSize\n  dup4\n  codecopy\n  dup2\n  dup2\n  add\n  0x40\n  mstore\n  dup2\n  add\n  swap1\n  tag_1\n  swap2\n  swap1\n  tag_2\n  jump\t// in\ntag_1:\n    /* \"contracts/Coin2.sol\":438:448  msg.sender */\n  caller\n    /* \"contracts/Coin2.sol\":420:427  player1 */\n  0x00\n  dup1\n    /* \"contracts/Coin2.sol\":420:449  player1 = payable(msg.sender) */\n  0x0100\n  exp\n  dup2\n  sload\n  dup2\n  0xffffffffffffffffffffffffffffffffffffffff\n  mul\n  not\n  and\n  swap1\n  dup4\n  0xffffffffffffffffffffffffffffffffffffffff\n  and\n  mul\n  or\n  swap1\n  sstore\n  pop\n    /* \"contracts/Coin2.sol\":480:490  commitment */\n  dup1\n    /* \"contracts/Coin2.sol\":460:477  player1Commitment */\n  0x02\n    /* \"contracts/Coin2.sol\":460:490  player1Commitment = commitment */\n  dup2\n  swap1\n  sstore\n  pop\n    /* \"contracts/Coin2.sol\":513:522  msg.value */\n  callvalue\n    /* \"contracts/Coin2.sol\":501:510  betAmount */\n  0x04\n    /* \"contracts/Coin2.sol\":501:522  betAmount = msg.value */\n  dup2\n  swap1\n  sstore\n  pop\n    /* \"contracts/Coin2.sol\":544:549  false */\n  0x00\n    /* \"contracts/Coin2.sol\":533:541  revealed */\n  0x05\n  0x02\n    /* \"contracts/Coin2.sol\":533:549  revealed = false */\n  0x0100\n  exp\n  dup2\n  sload\n  dup2\n  0xff\n  mul\n  not\n  and\n  swap1\n  dup4\n  iszero\n  iszero\n  mul\n  or\n  swap1\n  sstore\n  pop\n    /* \"contracts/Coin2.sol\":369:557  constructor(bytes32 commitment) payable {\r... */\n  pop\n    /* \"contracts/Coin2.sol\":62:1518  contract CoinFlip {\r... */\n  jump(tag_5)\n    /* \"#utility.yul\":7:150   */\ntag_7:\n    /* \"#utility.yul\":64:69   */\n  0x00\n    /* \"#utility.yul\":95:101   */\n  dup2\n    /* \"#utility.yul\":89:102   */\n  mload\n    /* \"#utility.yul\":80:102   */\n  swap1\n  pop\n    /* \"#utility.yul\":111:144   */\n  tag_9\n    /* \"#utility.yul\":138:143   */\n  dup2\n    /* \"#utility.yul\":111:144   */\n  tag_10\n  jump\t// in\ntag_9:\n    /* \"#utility.yul\":7:150   */\n  swap3\n  swap2\n  pop\n  pop\n  jump\t// out\n    /* \"#utility.yul\":156:507   */\ntag_2:\n    /* \"#utility.yul\":226:232   */\n  0x00\n    /* \"#utility.yul\":275:277   */\n  0x20\n    /* \"#utility.yul\":263:272   */\n  dup3\n    /* \"#utility.yul\":254:261   */\n  dup5\n    /* \"#utility.yul\":250:273   */\n  sub\n    /* \"#utility.yul\":246:278   */\n  slt\n    /* \"#utility.yul\":243:362   */\n  iszero\n  tag_12\n  jumpi\n    /* \"#utility.yul\":281:360   */\n  tag_13\n  tag_14\n  jump\t// in\ntag_13:\n    /* \"#utility.yul\":243:362   */\ntag_12:\n    /* \"#utility.yul\":401:402   */\n  0x00\n    /* \"#utility.yul\":426:490   */\n  tag_15\n    /* \"#utility.yul\":482:489   */\n  dup5\n    /* \"#utility.yul\":473:479   */\n  dup3\n    /* \"#utility.yul\":462:471   */\n  dup6\n    /* \"#utility.yul\":458:480   */\n  add\n    /* \"#utility.yul\":426:490   */\n  tag_7\n  jump\t// in\ntag_15:\n    /* \"#utility.yul\":416:490   */\n  swap2\n  pop\n    /* \"#utility.yul\":372:500   */\n  pop\n    /* \"#utility.yul\":156:507   */\n  swap3\n  swap2\n  pop\n  pop\n  jump\t// out\n    /* \"#utility.yul\":594:671   */\ntag_18:\n    /* \"#utility.yul\":631:638   */\n  0x00\n    /* \"#utility.yul\":660:665   */\n  dup2\n    /* \"#utility.yul\":649:665   */\n  swap1\n  pop\n    /* \"#utility.yul\":594:671   */\n  swap2\n  swap1\n  pop\n  jump\t// out\n    /* \"#utility.yul\":800:917   */\ntag_14:\n    /* \"#utility.yul\":909:910   */\n  0x00\n    /* \"#utility.yul\":906:907   */\n  dup1\n    /* \"#utility.yul\":899:911   */\n  revert\n    /* \"#utility.yul\":923:1045   */\ntag_10:\n    /* \"#utility.yul\":996:1020   */\n  tag_24\n    /* \"#utility.yul\":1014:1019   */\n  dup2\n    /* \"#utility.yul\":996:1020   */\n  tag_18\n  jump\t// in\ntag_24:\n    /* \"#utility.yul\":989:994   */\n  dup2\n    /* \"#utility.yul\":986:1021   */\n  eq\n    /* \"#utility.yul\":976:1039   */\n  tag_25\n  jumpi\n    /* \"#utility.yul\":1035:1036   */\n  0x00\n    /* \"#utility.yul\":1032:1033   */\n  dup1\n    /* \"#utility.yul\":1025:1037   */\n  revert\n    /* \"#utility.yul\":976:1039   */\ntag_25:\n    /* \"#utility.yul\":923:1045   */\n  pop\n  jump\t// out\n    /* \"contracts/Coin2.sol\":62:1518  contract CoinFlip {\r... */\ntag_5:\n  dataSize(sub_0)\n  dup1\n  dataOffset(sub_0)\n  0x00\n  codecopy\n  0x00\n  return\nstop\n\nsub_0: assembly {\n        /* \"contracts/Coin2.sol\":62:1518  contract CoinFlip {\r... */\n      mstore(0x40, 0x80)\n      jumpi(tag_1, lt(calldatasize, 0x04))\n      shr(0xe0, calldataload(0x00))\n      dup1\n      0xb422de9d\n      gt\n      tag_13\n      jumpi\n      dup1\n      0xb422de9d\n      eq\n      tag_7\n      jumpi\n      dup1\n      0xcf7c3708\n      eq\n      tag_8\n      jumpi\n      dup1\n      0xd24257c0\n      eq\n      tag_9\n      jumpi\n      dup1\n      0xd30895e4\n      eq\n      tag_10\n      jumpi\n      dup1\n      0xd8b1f219\n      eq\n      tag_11\n      jumpi\n      dup1\n      0xeb13175d\n      eq\n      tag_12\n      jumpi\n      jump(tag_1)\n    tag_13:\n      dup1\n      0x0ce6e680\n      eq\n      tag_2\n      jumpi\n      dup1\n      0x2c0f9aaa\n      eq\n      tag_3\n      jumpi\n      dup1\n      0x51830227\n      eq\n      tag_4\n      jumpi\n      dup1\n      0x59a5f12d\n      eq\n      tag_5\n      jumpi\n      dup1\n      0x603f5088\n      eq\n      tag_6\n      jumpi\n    tag_1:\n      0x00\n      dup1\n      revert\n        /* \"contracts/Coin2.sol\":308:333  bool public player2Choice */\n    tag_2:\n      callvalue\n      dup1\n      iszero\n      tag_14\n      jumpi\n      0x00\n      dup1\n      revert\n    tag_14:\n      pop\n      tag_15\n      tag_16\n      jump\t// in\n    tag_15:\n      mload(0x40)\n      tag_17\n      swap2\n      swap1\n      tag_18\n      jump\t// in\n    tag_17:\n      mload(0x40)\n      dup1\n      swap2\n      sub\n      swap1\n      return\n        /* \"contracts/Coin2.sol\":1081:1515  function Reveal2(bool choice, uint256 nonce) public {\r... */\n    tag_3:\n      callvalue\n      dup1\n      iszero\n      tag_19\n      jumpi\n      0x00\n      dup1\n      revert\n    tag_19:\n      pop\n      tag_20\n      0x04\n      dup1\n      calldatasize\n      sub\n      dup2\n      add\n      swap1\n      tag_21\n      swap2\n      swap1\n      tag_22\n      jump\t// in\n    tag_21:\n      tag_23\n      jump\t// in\n    tag_20:\n      stop\n        /* \"contracts/Coin2.sol\":340:360  bool public revealed */\n    tag_4:\n      callvalue\n      dup1\n      iszero\n      tag_24\n      jumpi\n      0x00\n      dup1\n      revert\n    tag_24:\n      pop\n      tag_25\n      tag_26\n      jump\t// in\n    tag_25:\n      mload(0x40)\n      tag_27\n      swap2\n      swap1\n      tag_18\n      jump\t// in\n    tag_27:\n      mload(0x40)\n      dup1\n      swap2\n      sub\n      swap1\n      return\n        /* \"contracts/Coin2.sol\":124:154  address payable public player2 */\n    tag_5:\n      callvalue\n      dup1\n      iszero\n      tag_28\n      jumpi\n      0x00\n      dup1\n      revert\n    tag_28:\n      pop\n      tag_29\n      tag_30\n      jump\t// in\n    tag_29:\n      mload(0x40)\n      tag_31\n      swap2\n      swap1\n      tag_32\n      jump\t// in\n    tag_31:\n      mload(0x40)\n      dup1\n      swap2\n      sub\n      swap1\n      return\n        /* \"contracts/Coin2.sol\":202:234  bytes32 public player2Commitment */\n    tag_6:\n      callvalue\n      dup1\n      iszero\n      tag_33\n      jumpi\n      0x00\n      dup1\n      revert\n    tag_33:\n      pop\n      tag_34\n      tag_35\n      jump\t// in\n    tag_34:\n      mload(0x40)\n      tag_36\n      swap2\n      swap1\n      tag_37\n      jump\t// in\n    tag_36:\n      mload(0x40)\n      dup1\n      swap2\n      sub\n      swap1\n      return\n        /* \"contracts/Coin2.sol\":565:791  function TakeBet(bytes32 commitment) public payable {\r... */\n    tag_7:\n      tag_38\n      0x04\n      dup1\n      calldatasize\n      sub\n      dup2\n      add\n      swap1\n      tag_39\n      swap2\n      swap1\n      tag_40\n      jump\t// in\n    tag_39:\n      tag_41\n      jump\t// in\n    tag_38:\n      stop\n        /* \"contracts/Coin2.sol\":799:1073  function Reveal1(bool choice, uint256 nonce) public {\r... */\n    tag_8:\n      callvalue\n      dup1\n      iszero\n      tag_42\n      jumpi\n      0x00\n      dup1\n      revert\n    tag_42:\n      pop\n      tag_43\n      0x04\n      dup1\n      calldatasize\n      sub\n      dup2\n      add\n      swap1\n      tag_44\n      swap2\n      swap1\n      tag_22\n      jump\t// in\n    tag_44:\n      tag_45\n      jump\t// in\n    tag_43:\n      stop\n        /* \"contracts/Coin2.sol\":243:267  uint256 public betAmount */\n    tag_9:\n      callvalue\n      dup1\n      iszero\n      tag_46\n      jumpi\n      0x00\n      dup1\n      revert\n    tag_46:\n      pop\n      tag_47\n      tag_48\n      jump\t// in\n    tag_47:\n      mload(0x40)\n      tag_49\n      swap2\n      swap1\n      tag_50\n      jump\t// in\n    tag_49:\n      mload(0x40)\n      dup1\n      swap2\n      sub\n      swap1\n      return\n        /* \"contracts/Coin2.sol\":87:117  address payable public player1 */\n    tag_10:\n      callvalue\n      dup1\n      iszero\n      tag_51\n      jumpi\n      0x00\n      dup1\n      revert\n    tag_51:\n      pop\n      tag_52\n      tag_53\n      jump\t// in\n    tag_52:\n      mload(0x40)\n      tag_54\n      swap2\n      swap1\n      tag_32\n      jump\t// in\n    tag_54:\n      mload(0x40)\n      dup1\n      swap2\n      sub\n      swap1\n      return\n        /* \"contracts/Coin2.sol\":276:301  bool public player1Choice */\n    tag_11:\n      callvalue\n      dup1\n      iszero\n      tag_55\n      jumpi\n      0x00\n      dup1\n      revert\n    tag_55:\n      pop\n      tag_56\n      tag_57\n      jump\t// in\n    tag_56:\n      mload(0x40)\n      tag_58\n      swap2\n      swap1\n      tag_18\n      jump\t// in\n    tag_58:\n      mload(0x40)\n      dup1\n      swap2\n      sub\n      swap1\n      return\n        /* \"contracts/Coin2.sol\":163:195  bytes32 public player1Commitment */\n    tag_12:\n      callvalue\n      dup1\n      iszero\n      tag_59\n      jumpi\n      0x00\n      dup1\n      revert\n    tag_59:\n      pop\n      tag_60\n      tag_61\n      jump\t// in\n    tag_60:\n      mload(0x40)\n      tag_62\n      swap2\n      swap1\n      tag_37\n      jump\t// in\n    tag_62:\n      mload(0x40)\n      dup1\n      swap2\n      sub\n      swap1\n      return\n        /* \"contracts/Coin2.sol\":308:333  bool public player2Choice */\n    tag_16:\n      0x05\n      0x01\n      swap1\n      sload\n      swap1\n      0x0100\n      exp\n      swap1\n      div\n      0xff\n      and\n      dup2\n      jump\t// out\n        /* \"contracts/Coin2.sol\":1081:1515  function Reveal2(bool choice, uint256 nonce) public {\r... */\n    tag_23:\n        /* \"contracts/Coin2.sol\":1171:1172  0 */\n      0x00\n        /* \"contracts/Coin2.sol\":1152:1173  player2 != address(0) */\n      0xffffffffffffffffffffffffffffffffffffffff\n      and\n        /* \"contracts/Coin2.sol\":1152:1159  player2 */\n      0x01\n      0x00\n      swap1\n      sload\n      swap1\n      0x0100\n      exp\n      swap1\n      div\n      0xffffffffffffffffffffffffffffffffffffffff\n      and\n        /* \"contracts/Coin2.sol\":1152:1173  player2 != address(0) */\n      0xffffffffffffffffffffffffffffffffffffffff\n      and\n      eq\n      iszero\n        /* \"contracts/Coin2.sol\":1144:1174  require(player2 != address(0)) */\n      tag_64\n      jumpi\n      0x00\n      dup1\n      revert\n    tag_64:\n        /* \"contracts/Coin2.sol\":1193:1201  revealed */\n      0x05\n      0x02\n      swap1\n      sload\n      swap1\n      0x0100\n      exp\n      swap1\n      div\n      0xff\n      and\n        /* \"contracts/Coin2.sol\":1185:1202  require(revealed) */\n      tag_65\n      jumpi\n      0x00\n      dup1\n      revert\n    tag_65:\n        /* \"contracts/Coin2.sol\":1267:1284  player1Commitment */\n      sload(0x02)\n        /* \"contracts/Coin2.sol\":1248:1254  choice */\n      dup3\n        /* \"contracts/Coin2.sol\":1256:1261  nonce */\n      dup3\n        /* \"contracts/Coin2.sol\":1231:1262  abi.encodePacked(choice, nonce) */\n      add(0x20, mload(0x40))\n      tag_66\n      swap3\n      swap2\n      swap1\n      tag_67\n      jump\t// in\n    tag_66:\n      mload(0x40)\n      0x20\n      dup2\n      dup4\n      sub\n      sub\n      dup2\n      mstore\n      swap1\n      0x40\n      mstore\n        /* \"contracts/Coin2.sol\":1221:1263  keccak256(abi.encodePacked(choice, nonce)) */\n      dup1\n      mload\n      swap1\n      0x20\n      add\n      keccak256\n        /* \"contracts/Coin2.sol\":1221:1284  keccak256(abi.encodePacked(choice, nonce)) == player1Commitment */\n      eq\n        /* \"contracts/Coin2.sol\":1213:1285  require(keccak256(abi.encodePacked(choice, nonce)) == player1Commitment) */\n      tag_68\n      jumpi\n      0x00\n      dup1\n      revert\n    tag_68:\n        /* \"contracts/Coin2.sol\":1314:1320  choice */\n      dup2\n        /* \"contracts/Coin2.sol\":1298:1311  player2Choice */\n      0x05\n      0x01\n        /* \"contracts/Coin2.sol\":1298:1320  player2Choice = choice */\n      0x0100\n      exp\n      dup2\n      sload\n      dup2\n      0xff\n      mul\n      not\n      and\n      swap1\n      dup4\n      iszero\n      iszero\n      mul\n      or\n      swap1\n      sstore\n      pop\n        /* \"contracts/Coin2.sol\":1362:1368  choice */\n      dup2\n        /* \"contracts/Coin2.sol\":1345:1368  player2Choice == choice */\n      iszero\n      iszero\n        /* \"contracts/Coin2.sol\":1345:1358  player2Choice */\n      0x05\n      0x01\n      swap1\n      sload\n      swap1\n      0x0100\n      exp\n      swap1\n      div\n      0xff\n      and\n        /* \"contracts/Coin2.sol\":1345:1368  player2Choice == choice */\n      iszero\n      iszero\n      eq\n        /* \"contracts/Coin2.sol\":1341:1508  if (player2Choice == choice) {\r... */\n      iszero\n      tag_69\n      jumpi\n        /* \"contracts/Coin2.sol\":1385:1392  player2 */\n      0x01\n      0x00\n      swap1\n      sload\n      swap1\n      0x0100\n      exp\n      swap1\n      div\n      0xffffffffffffffffffffffffffffffffffffffff\n      and\n        /* \"contracts/Coin2.sol\":1385:1401  player2.transfer */\n      0xffffffffffffffffffffffffffffffffffffffff\n      and\n        /* \"contracts/Coin2.sol\":1385:1424  player2.transfer(address(this).balance) */\n      0x08fc\n        /* \"contracts/Coin2.sol\":1402:1423  address(this).balance */\n      selfbalance\n        /* \"contracts/Coin2.sol\":1385:1424  player2.transfer(address(this).balance) */\n      swap1\n      dup2\n      iszero\n      mul\n      swap1\n      mload(0x40)\n      0x00\n      mload(0x40)\n      dup1\n      dup4\n      sub\n      dup2\n      dup6\n      dup9\n      dup9\n      call\n      swap4\n      pop\n      pop\n      pop\n      pop\n      iszero\n      dup1\n      iszero\n      tag_71\n      jumpi\n      returndatasize\n      0x00\n      dup1\n      returndatacopy\n      revert(0x00, returndatasize)\n    tag_71:\n      pop\n        /* \"contracts/Coin2.sol\":1341:1508  if (player2Choice == choice) {\r... */\n      jump(tag_72)\n    tag_69:\n        /* \"contracts/Coin2.sol\":1457:1464  player1 */\n      0x00\n      dup1\n      sload\n      swap1\n      0x0100\n      exp\n      swap1\n      div\n      0xffffffffffffffffffffffffffffffffffffffff\n      and\n        /* \"contracts/Coin2.sol\":1457:1473  player1.transfer */\n      0xffffffffffffffffffffffffffffffffffffffff\n      and\n        /* \"contracts/Coin2.sol\":1457:1496  player1.transfer(address(this).balance) */\n      0x08fc\n        /* \"contracts/Coin2.sol\":1474:1495  address(this).balance */\n      selfbalance\n        /* \"contracts/Coin2.sol\":1457:1496  player1.transfer(address(this).balance) */\n      swap1\n      dup2\n      iszero\n      mul\n      swap1\n      mload(0x40)\n      0x00\n      mload(0x40)\n      dup1\n      dup4\n      sub\n      dup2\n      dup6\n      dup9\n      dup9\n      call\n      swap4\n      pop\n      pop\n      pop\n      pop\n      iszero\n      dup1\n      iszero\n      tag_74\n      jumpi\n      returndatasize\n      0x00\n      dup1\n      returndatacopy\n      revert(0x00, returndatasize)\n    tag_74:\n      pop\n        /* \"contracts/Coin2.sol\":1341:1508  if (player2Choice == choice) {\r... */\n    tag_72:\n        /* \"contracts/Coin2.sol\":1081:1515  function Reveal2(bool choice, uint256 nonce) public {\r... */\n      pop\n      pop\n      jump\t// out\n        /* \"contracts/Coin2.sol\":340:360  bool public revealed */\n    tag_26:\n      0x05\n      0x02\n      swap1\n      sload\n      swap1\n      0x0100\n      exp\n      swap1\n      div\n      0xff\n      and\n      dup2\n      jump\t// out\n        /* \"contracts/Coin2.sol\":124:154  address payable public player2 */\n    tag_30:\n      0x01\n      0x00\n      swap1\n      sload\n      swap1\n      0x0100\n      exp\n      swap1\n      div\n      0xffffffffffffffffffffffffffffffffffffffff\n      and\n      dup2\n      jump\t// out\n        /* \"contracts/Coin2.sol\":202:234  bytes32 public player2Commitment */\n    tag_35:\n      sload(0x03)\n      dup2\n      jump\t// out\n        /* \"contracts/Coin2.sol\":565:791  function TakeBet(bytes32 commitment) public payable {\r... */\n    tag_41:\n        /* \"contracts/Coin2.sol\":655:656  0 */\n      0x00\n        /* \"contracts/Coin2.sol\":636:657  player2 == address(0) */\n      0xffffffffffffffffffffffffffffffffffffffff\n      and\n        /* \"contracts/Coin2.sol\":636:643  player2 */\n      0x01\n      0x00\n      swap1\n      sload\n      swap1\n      0x0100\n      exp\n      swap1\n      div\n      0xffffffffffffffffffffffffffffffffffffffff\n      and\n        /* \"contracts/Coin2.sol\":636:657  player2 == address(0) */\n      0xffffffffffffffffffffffffffffffffffffffff\n      and\n      eq\n        /* \"contracts/Coin2.sol\":628:658  require(player2 == address(0)) */\n      tag_76\n      jumpi\n      0x00\n      dup1\n      revert\n    tag_76:\n        /* \"contracts/Coin2.sol\":690:699  betAmount */\n      sload(0x04)\n        /* \"contracts/Coin2.sol\":677:686  msg.value */\n      callvalue\n        /* \"contracts/Coin2.sol\":677:699  msg.value == betAmount */\n      eq\n        /* \"contracts/Coin2.sol\":669:700  require(msg.value == betAmount) */\n      tag_77\n      jumpi\n      0x00\n      dup1\n      revert\n    tag_77:\n        /* \"contracts/Coin2.sol\":731:741  msg.sender */\n      caller\n        /* \"contracts/Coin2.sol\":713:720  player2 */\n      0x01\n      0x00\n        /* \"contracts/Coin2.sol\":713:742  player2 = payable(msg.sender) */\n      0x0100\n      exp\n      dup2\n      sload\n      dup2\n      0xffffffffffffffffffffffffffffffffffffffff\n      mul\n      not\n      and\n      swap1\n      dup4\n      0xffffffffffffffffffffffffffffffffffffffff\n      and\n      mul\n      or\n      swap1\n      sstore\n      pop\n        /* \"contracts/Coin2.sol\":773:783  commitment */\n      dup1\n        /* \"contracts/Coin2.sol\":753:770  player2Commitment */\n      0x03\n        /* \"contracts/Coin2.sol\":753:783  player2Commitment = commitment */\n      dup2\n      swap1\n      sstore\n      pop\n        /* \"contracts/Coin2.sol\":565:791  function TakeBet(bytes32 commitment) public payable {\r... */\n      pop\n      jump\t// out\n        /* \"contracts/Coin2.sol\":799:1073  function Reveal1(bool choice, uint256 nonce) public {\r... */\n    tag_45:\n        /* \"contracts/Coin2.sol\":889:890  0 */\n      0x00\n        /* \"contracts/Coin2.sol\":870:891  player2 != address(0) */\n      0xffffffffffffffffffffffffffffffffffffffff\n      and\n        /* \"contracts/Coin2.sol\":870:877  player2 */\n      0x01\n      0x00\n      swap1\n      sload\n      swap1\n      0x0100\n      exp\n      swap1\n      div\n      0xffffffffffffffffffffffffffffffffffffffff\n      and\n        /* \"contracts/Coin2.sol\":870:891  player2 != address(0) */\n      0xffffffffffffffffffffffffffffffffffffffff\n      and\n      eq\n      iszero\n        /* \"contracts/Coin2.sol\":862:892  require(player2 != address(0)) */\n      tag_79\n      jumpi\n      0x00\n      dup1\n      revert\n    tag_79:\n        /* \"contracts/Coin2.sol\":912:920  revealed */\n      0x05\n      0x02\n      swap1\n      sload\n      swap1\n      0x0100\n      exp\n      swap1\n      div\n      0xff\n      and\n        /* \"contracts/Coin2.sol\":911:920  !revealed */\n      iszero\n        /* \"contracts/Coin2.sol\":903:921  require(!revealed) */\n      tag_80\n      jumpi\n      0x00\n      dup1\n      revert\n    tag_80:\n        /* \"contracts/Coin2.sol\":986:1003  player1Commitment */\n      sload(0x02)\n        /* \"contracts/Coin2.sol\":967:973  choice */\n      dup3\n        /* \"contracts/Coin2.sol\":975:980  nonce */\n      dup3\n        /* \"contracts/Coin2.sol\":950:981  abi.encodePacked(choice, nonce) */\n      add(0x20, mload(0x40))\n      tag_81\n      swap3\n      swap2\n      swap1\n      tag_67\n      jump\t// in\n    tag_81:\n      mload(0x40)\n      0x20\n      dup2\n      dup4\n      sub\n      sub\n      dup2\n      mstore\n      swap1\n      0x40\n      mstore\n        /* \"contracts/Coin2.sol\":940:982  keccak256(abi.encodePacked(choice, nonce)) */\n      dup1\n      mload\n      swap1\n      0x20\n      add\n      keccak256\n        /* \"contracts/Coin2.sol\":940:1003  keccak256(abi.encodePacked(choice, nonce)) == player1Commitment */\n      eq\n        /* \"contracts/Coin2.sol\":932:1004  require(keccak256(abi.encodePacked(choice, nonce)) == player1Commitment) */\n      tag_82\n      jumpi\n      0x00\n      dup1\n      revert\n    tag_82:\n        /* \"contracts/Coin2.sol\":1033:1039  choice */\n      dup2\n        /* \"contracts/Coin2.sol\":1017:1030  player1Choice */\n      0x05\n      0x00\n        /* \"contracts/Coin2.sol\":1017:1039  player1Choice = choice */\n      0x0100\n      exp\n      dup2\n      sload\n      dup2\n      0xff\n      mul\n      not\n      and\n      swap1\n      dup4\n      iszero\n      iszero\n      mul\n      or\n      swap1\n      sstore\n      pop\n        /* \"contracts/Coin2.sol\":1061:1065  true */\n      0x01\n        /* \"contracts/Coin2.sol\":1050:1058  revealed */\n      0x05\n      0x02\n        /* \"contracts/Coin2.sol\":1050:1065  revealed = true */\n      0x0100\n      exp\n      dup2\n      sload\n      dup2\n      0xff\n      mul\n      not\n      and\n      swap1\n      dup4\n      iszero\n      iszero\n      mul\n      or\n      swap1\n      sstore\n      pop\n        /* \"contracts/Coin2.sol\":799:1073  function Reveal1(bool choice, uint256 nonce) public {\r... */\n      pop\n      pop\n      jump\t// out\n        /* \"contracts/Coin2.sol\":243:267  uint256 public betAmount */\n    tag_48:\n      sload(0x04)\n      dup2\n      jump\t// out\n        /* \"contracts/Coin2.sol\":87:117  address payable public player1 */\n    tag_53:\n      0x00\n      dup1\n      sload\n      swap1\n      0x0100\n      exp\n      swap1\n      div\n      0xffffffffffffffffffffffffffffffffffffffff\n      and\n      dup2\n      jump\t// out\n        /* \"contracts/Coin2.sol\":276:301  bool public player1Choice */\n    tag_57:\n      0x05\n      0x00\n      swap1\n      sload\n      swap1\n      0x0100\n      exp\n      swap1\n      div\n      0xff\n      and\n      dup2\n      jump\t// out\n        /* \"contracts/Coin2.sol\":163:195  bytes32 public player1Commitment */\n    tag_61:\n      sload(0x02)\n      dup2\n      jump\t// out\n        /* \"#utility.yul\":7:140   */\n    tag_84:\n        /* \"#utility.yul\":50:55   */\n      0x00\n        /* \"#utility.yul\":88:94   */\n      dup2\n        /* \"#utility.yul\":75:95   */\n      calldataload\n        /* \"#utility.yul\":66:95   */\n      swap1\n      pop\n        /* \"#utility.yul\":104:134   */\n      tag_86\n        /* \"#utility.yul\":128:133   */\n      dup2\n        /* \"#utility.yul\":104:134   */\n      tag_87\n      jump\t// in\n    tag_86:\n        /* \"#utility.yul\":7:140   */\n      swap3\n      swap2\n      pop\n      pop\n      jump\t// out\n        /* \"#utility.yul\":146:285   */\n    tag_88:\n        /* \"#utility.yul\":192:197   */\n      0x00\n        /* \"#utility.yul\":230:236   */\n      dup2\n        /* \"#utility.yul\":217:237   */\n      calldataload\n        /* \"#utility.yul\":208:237   */\n      swap1\n      pop\n        /* \"#utility.yul\":246:279   */\n      tag_90\n        /* \"#utility.yul\":273:278   */\n      dup2\n        /* \"#utility.yul\":246:279   */\n      tag_91\n      jump\t// in\n    tag_90:\n        /* \"#utility.yul\":146:285   */\n      swap3\n      swap2\n      pop\n      pop\n      jump\t// out\n        /* \"#utility.yul\":291:430   */\n    tag_92:\n        /* \"#utility.yul\":337:342   */\n      0x00\n        /* \"#utility.yul\":375:381   */\n      dup2\n        /* \"#utility.yul\":362:382   */\n      calldataload\n        /* \"#utility.yul\":353:382   */\n      swap1\n      pop\n        /* \"#utility.yul\":391:424   */\n      tag_94\n        /* \"#utility.yul\":418:423   */\n      dup2\n        /* \"#utility.yul\":391:424   */\n      tag_95\n      jump\t// in\n    tag_94:\n        /* \"#utility.yul\":291:430   */\n      swap3\n      swap2\n      pop\n      pop\n      jump\t// out\n        /* \"#utility.yul\":436:904   */\n    tag_22:\n        /* \"#utility.yul\":501:507   */\n      0x00\n        /* \"#utility.yul\":509:515   */\n      dup1\n        /* \"#utility.yul\":558:560   */\n      0x40\n        /* \"#utility.yul\":546:555   */\n      dup4\n        /* \"#utility.yul\":537:544   */\n      dup6\n        /* \"#utility.yul\":533:556   */\n      sub\n        /* \"#utility.yul\":529:561   */\n      slt\n        /* \"#utility.yul\":526:645   */\n      iszero\n      tag_97\n      jumpi\n        /* \"#utility.yul\":564:643   */\n      tag_98\n      tag_99\n      jump\t// in\n    tag_98:\n        /* \"#utility.yul\":526:645   */\n    tag_97:\n        /* \"#utility.yul\":684:685   */\n      0x00\n        /* \"#utility.yul\":709:759   */\n      tag_100\n        /* \"#utility.yul\":751:758   */\n      dup6\n        /* \"#utility.yul\":742:748   */\n      dup3\n        /* \"#utility.yul\":731:740   */\n      dup7\n        /* \"#utility.yul\":727:749   */\n      add\n        /* \"#utility.yul\":709:759   */\n      tag_84\n      jump\t// in\n    tag_100:\n        /* \"#utility.yul\":699:759   */\n      swap3\n      pop\n        /* \"#utility.yul\":655:769   */\n      pop\n        /* \"#utility.yul\":808:810   */\n      0x20\n        /* \"#utility.yul\":834:887   */\n      tag_101\n        /* \"#utility.yul\":879:886   */\n      dup6\n        /* \"#utility.yul\":870:876   */\n      dup3\n        /* \"#utility.yul\":859:868   */\n      dup7\n        /* \"#utility.yul\":855:877   */\n      add\n        /* \"#utility.yul\":834:887   */\n      tag_92\n      jump\t// in\n    tag_101:\n        /* \"#utility.yul\":824:887   */\n      swap2\n      pop\n        /* \"#utility.yul\":779:897   */\n      pop\n        /* \"#utility.yul\":436:904   */\n      swap3\n      pop\n      swap3\n      swap1\n      pop\n      jump\t// out\n        /* \"#utility.yul\":910:1239   */\n    tag_40:\n        /* \"#utility.yul\":969:975   */\n      0x00\n        /* \"#utility.yul\":1018:1020   */\n      0x20\n        /* \"#utility.yul\":1006:1015   */\n      dup3\n        /* \"#utility.yul\":997:1004   */\n      dup5\n        /* \"#utility.yul\":993:1016   */\n      sub\n        /* \"#utility.yul\":989:1021   */\n      slt\n        /* \"#utility.yul\":986:1105   */\n      iszero\n      tag_103\n      jumpi\n        /* \"#utility.yul\":1024:1103   */\n      tag_104\n      tag_99\n      jump\t// in\n    tag_104:\n        /* \"#utility.yul\":986:1105   */\n    tag_103:\n        /* \"#utility.yul\":1144:1145   */\n      0x00\n        /* \"#utility.yul\":1169:1222   */\n      tag_105\n        /* \"#utility.yul\":1214:1221   */\n      dup5\n        /* \"#utility.yul\":1205:1211   */\n      dup3\n        /* \"#utility.yul\":1194:1203   */\n      dup6\n        /* \"#utility.yul\":1190:1212   */\n      add\n        /* \"#utility.yul\":1169:1222   */\n      tag_88\n      jump\t// in\n    tag_105:\n        /* \"#utility.yul\":1159:1222   */\n      swap2\n      pop\n        /* \"#utility.yul\":1115:1232   */\n      pop\n        /* \"#utility.yul\":910:1239   */\n      swap3\n      swap2\n      pop\n      pop\n      jump\t// out\n        /* \"#utility.yul\":1245:1387   */\n    tag_106:\n        /* \"#utility.yul\":1348:1380   */\n      tag_108\n        /* \"#utility.yul\":1374:1379   */\n      dup2\n        /* \"#utility.yul\":1348:1380   */\n      tag_109\n      jump\t// in\n    tag_108:\n        /* \"#utility.yul\":1343:1346   */\n      dup3\n        /* \"#utility.yul\":1336:1381   */\n      mstore\n        /* \"#utility.yul\":1245:1387   */\n      pop\n      pop\n      jump\t// out\n        /* \"#utility.yul\":1393:1502   */\n    tag_110:\n        /* \"#utility.yul\":1474:1495   */\n      tag_112\n        /* \"#utility.yul\":1489:1494   */\n      dup2\n        /* \"#utility.yul\":1474:1495   */\n      tag_113\n      jump\t// in\n    tag_112:\n        /* \"#utility.yul\":1469:1472   */\n      dup3\n        /* \"#utility.yul\":1462:1496   */\n      mstore\n        /* \"#utility.yul\":1393:1502   */\n      pop\n      pop\n      jump\t// out\n        /* \"#utility.yul\":1508:1653   */\n    tag_114:\n        /* \"#utility.yul\":1607:1646   */\n      tag_116\n        /* \"#utility.yul\":1624:1645   */\n      tag_117\n        /* \"#utility.yul\":1639:1644   */\n      dup3\n        /* \"#utility.yul\":1624:1645   */\n      tag_113\n      jump\t// in\n    tag_117:\n        /* \"#utility.yul\":1607:1646   */\n      tag_118\n      jump\t// in\n    tag_116:\n        /* \"#utility.yul\":1602:1605   */\n      dup3\n        /* \"#utility.yul\":1595:1647   */\n      mstore\n        /* \"#utility.yul\":1508:1653   */\n      pop\n      pop\n      jump\t// out\n        /* \"#utility.yul\":1659:1777   */\n    tag_119:\n        /* \"#utility.yul\":1746:1770   */\n      tag_121\n        /* \"#utility.yul\":1764:1769   */\n      dup2\n        /* \"#utility.yul\":1746:1770   */\n      tag_122\n      jump\t// in\n    tag_121:\n        /* \"#utility.yul\":1741:1744   */\n      dup3\n        /* \"#utility.yul\":1734:1771   */\n      mstore\n        /* \"#utility.yul\":1659:1777   */\n      pop\n      pop\n      jump\t// out\n        /* \"#utility.yul\":1783:1901   */\n    tag_123:\n        /* \"#utility.yul\":1870:1894   */\n      tag_125\n        /* \"#utility.yul\":1888:1893   */\n      dup2\n        /* \"#utility.yul\":1870:1894   */\n      tag_126\n      jump\t// in\n    tag_125:\n        /* \"#utility.yul\":1865:1868   */\n      dup3\n        /* \"#utility.yul\":1858:1895   */\n      mstore\n        /* \"#utility.yul\":1783:1901   */\n      pop\n      pop\n      jump\t// out\n        /* \"#utility.yul\":1907:2064   */\n    tag_127:\n        /* \"#utility.yul\":2012:2057   */\n      tag_129\n        /* \"#utility.yul\":2032:2056   */\n      tag_130\n        /* \"#utility.yul\":2050:2055   */\n      dup3\n        /* \"#utility.yul\":2032:2056   */\n      tag_126\n      jump\t// in\n    tag_130:\n        /* \"#utility.yul\":2012:2057   */\n      tag_131\n      jump\t// in\n    tag_129:\n        /* \"#utility.yul\":2007:2010   */\n      dup3\n        /* \"#utility.yul\":2000:2058   */\n      mstore\n        /* \"#utility.yul\":1907:2064   */\n      pop\n      pop\n      jump\t// out\n        /* \"#utility.yul\":2070:2454   */\n    tag_67:\n        /* \"#utility.yul\":2204:2207   */\n      0x00\n        /* \"#utility.yul\":2219:2288   */\n      tag_133\n        /* \"#utility.yul\":2284:2287   */\n      dup3\n        /* \"#utility.yul\":2275:2281   */\n      dup6\n        /* \"#utility.yul\":2219:2288   */\n      tag_114\n      jump\t// in\n    tag_133:\n        /* \"#utility.yul\":2313:2314   */\n      0x01\n        /* \"#utility.yul\":2308:2311   */\n      dup3\n        /* \"#utility.yul\":2304:2315   */\n      add\n        /* \"#utility.yul\":2297:2315   */\n      swap2\n      pop\n        /* \"#utility.yul\":2325:2400   */\n      tag_134\n        /* \"#utility.yul\":2396:2399   */\n      dup3\n        /* \"#utility.yul\":2387:2393   */\n      dup5\n        /* \"#utility.yul\":2325:2400   */\n      tag_127\n      jump\t// in\n    tag_134:\n        /* \"#utility.yul\":2425:2427   */\n      0x20\n        /* \"#utility.yul\":2420:2423   */\n      dup3\n        /* \"#utility.yul\":2416:2428   */\n      add\n        /* \"#utility.yul\":2409:2428   */\n      swap2\n      pop\n        /* \"#utility.yul\":2445:2448   */\n      dup2\n        /* \"#utility.yul\":2438:2448   */\n      swap1\n      pop\n        /* \"#utility.yul\":2070:2454   */\n      swap4\n      swap3\n      pop\n      pop\n      pop\n      jump\t// out\n        /* \"#utility.yul\":2460:2714   */\n    tag_32:\n        /* \"#utility.yul\":2569:2573   */\n      0x00\n        /* \"#utility.yul\":2607:2609   */\n      0x20\n        /* \"#utility.yul\":2596:2605   */\n      dup3\n        /* \"#utility.yul\":2592:2610   */\n      add\n        /* \"#utility.yul\":2584:2610   */\n      swap1\n      pop\n        /* \"#utility.yul\":2620:2707   */\n      tag_136\n        /* \"#utility.yul\":2704:2705   */\n      0x00\n        /* \"#utility.yul\":2693:2702   */\n      dup4\n        /* \"#utility.yul\":2689:2706   */\n      add\n        /* \"#utility.yul\":2680:2686   */\n      dup5\n        /* \"#utility.yul\":2620:2707   */\n      tag_106\n      jump\t// in\n    tag_136:\n        /* \"#utility.yul\":2460:2714   */\n      swap3\n      swap2\n      pop\n      pop\n      jump\t// out\n        /* \"#utility.yul\":2720:2930   */\n    tag_18:\n        /* \"#utility.yul\":2807:2811   */\n      0x00\n        /* \"#utility.yul\":2845:2847   */\n      0x20\n        /* \"#utility.yul\":2834:2843   */\n      dup3\n        /* \"#utility.yul\":2830:2848   */\n      add\n        /* \"#utility.yul\":2822:2848   */\n      swap1\n      pop\n        /* \"#utility.yul\":2858:2923   */\n      tag_138\n        /* \"#utility.yul\":2920:2921   */\n      0x00\n        /* \"#utility.yul\":2909:2918   */\n      dup4\n        /* \"#utility.yul\":2905:2922   */\n      add\n        /* \"#utility.yul\":2896:2902   */\n      dup5\n        /* \"#utility.yul\":2858:2923   */\n      tag_110\n      jump\t// in\n    tag_138:\n        /* \"#utility.yul\":2720:2930   */\n      swap3\n      swap2\n      pop\n      pop\n      jump\t// out\n        /* \"#utility.yul\":2936:3158   */\n    tag_37:\n        /* \"#utility.yul\":3029:3033   */\n      0x00\n        /* \"#utility.yul\":3067:3069   */\n      0x20\n        /* \"#utility.yul\":3056:3065   */\n      dup3\n        /* \"#utility.yul\":3052:3070   */\n      add\n        /* \"#utility.yul\":3044:3070   */\n      swap1\n      pop\n        /* \"#utility.yul\":3080:3151   */\n      tag_140\n        /* \"#utility.yul\":3148:3149   */\n      0x00\n        /* \"#utility.yul\":3137:3146   */\n      dup4\n        /* \"#utility.yul\":3133:3150   */\n      add\n        /* \"#utility.yul\":3124:3130   */\n      dup5\n        /* \"#utility.yul\":3080:3151   */\n      tag_119\n      jump\t// in\n    tag_140:\n        /* \"#utility.yul\":2936:3158   */\n      swap3\n      swap2\n      pop\n      pop\n      jump\t// out\n        /* \"#utility.yul\":3164:3386   */\n    tag_50:\n        /* \"#utility.yul\":3257:3261   */\n      0x00\n        /* \"#utility.yul\":3295:3297   */\n      0x20\n        /* \"#utility.yul\":3284:3293   */\n      dup3\n        /* \"#utility.yul\":3280:3298   */\n      add\n        /* \"#utility.yul\":3272:3298   */\n      swap1\n      pop\n        /* \"#utility.yul\":3308:3379   */\n      tag_142\n        /* \"#utility.yul\":3376:3377   */\n      0x00\n        /* \"#utility.yul\":3365:3374   */\n      dup4\n        /* \"#utility.yul\":3361:3378   */\n      add\n        /* \"#utility.yul\":3352:3358   */\n      dup5\n        /* \"#utility.yul\":3308:3379   */\n      tag_123\n      jump\t// in\n    tag_142:\n        /* \"#utility.yul\":3164:3386   */\n      swap3\n      swap2\n      pop\n      pop\n      jump\t// out\n        /* \"#utility.yul\":3473:3577   */\n    tag_109:\n        /* \"#utility.yul\":3518:3525   */\n      0x00\n        /* \"#utility.yul\":3547:3571   */\n      tag_146\n        /* \"#utility.yul\":3565:3570   */\n      dup3\n        /* \"#utility.yul\":3547:3571   */\n      tag_147\n      jump\t// in\n    tag_146:\n        /* \"#utility.yul\":3536:3571   */\n      swap1\n      pop\n        /* \"#utility.yul\":3473:3577   */\n      swap2\n      swap1\n      pop\n      jump\t// out\n        /* \"#utility.yul\":3583:3673   */\n    tag_113:\n        /* \"#utility.yul\":3617:3624   */\n      0x00\n        /* \"#utility.yul\":3660:3665   */\n      dup2\n        /* \"#utility.yul\":3653:3666   */\n      iszero\n        /* \"#utility.yul\":3646:3667   */\n      iszero\n        /* \"#utility.yul\":3635:3667   */\n      swap1\n      pop\n        /* \"#utility.yul\":3583:3673   */\n      swap2\n      swap1\n      pop\n      jump\t// out\n        /* \"#utility.yul\":3679:3756   */\n    tag_122:\n        /* \"#utility.yul\":3716:3723   */\n      0x00\n        /* \"#utility.yul\":3745:3750   */\n      dup2\n        /* \"#utility.yul\":3734:3750   */\n      swap1\n      pop\n        /* \"#utility.yul\":3679:3756   */\n      swap2\n      swap1\n      pop\n      jump\t// out\n        /* \"#utility.yul\":3762:3888   */\n    tag_147:\n        /* \"#utility.yul\":3799:3806   */\n      0x00\n        /* \"#utility.yul\":3839:3881   */\n      0xffffffffffffffffffffffffffffffffffffffff\n        /* \"#utility.yul\":3832:3837   */\n      dup3\n        /* \"#utility.yul\":3828:3882   */\n      and\n        /* \"#utility.yul\":3817:3882   */\n      swap1\n      pop\n        /* \"#utility.yul\":3762:3888   */\n      swap2\n      swap1\n      pop\n      jump\t// out\n        /* \"#utility.yul\":3894:3971   */\n    tag_126:\n        /* \"#utility.yul\":3931:3938   */\n      0x00\n        /* \"#utility.yul\":3960:3965   */\n      dup2\n        /* \"#utility.yul\":3949:3965   */\n      swap1\n      pop\n        /* \"#utility.yul\":3894:3971   */\n      swap2\n      swap1\n      pop\n      jump\t// out\n        /* \"#utility.yul\":3977:4072   */\n    tag_118:\n        /* \"#utility.yul\":4013:4020   */\n      0x00\n        /* \"#utility.yul\":4042:4066   */\n      tag_153\n        /* \"#utility.yul\":4060:4065   */\n      dup3\n        /* \"#utility.yul\":4042:4066   */\n      tag_154\n      jump\t// in\n    tag_153:\n        /* \"#utility.yul\":4031:4066   */\n      swap1\n      pop\n        /* \"#utility.yul\":3977:4072   */\n      swap2\n      swap1\n      pop\n      jump\t// out\n        /* \"#utility.yul\":4078:4157   */\n    tag_131:\n        /* \"#utility.yul\":4117:4124   */\n      0x00\n        /* \"#utility.yul\":4146:4151   */\n      dup2\n        /* \"#utility.yul\":4135:4151   */\n      swap1\n      pop\n        /* \"#utility.yul\":4078:4157   */\n      swap2\n      swap1\n      pop\n      jump\t// out\n        /* \"#utility.yul\":4163:4256   */\n    tag_154:\n        /* \"#utility.yul\":4200:4207   */\n      0x00\n        /* \"#utility.yul\":4229:4250   */\n      tag_157\n        /* \"#utility.yul\":4244:4249   */\n      dup3\n        /* \"#utility.yul\":4229:4250   */\n      tag_158\n      jump\t// in\n    tag_157:\n        /* \"#utility.yul\":4218:4250   */\n      swap1\n      pop\n        /* \"#utility.yul\":4163:4256   */\n      swap2\n      swap1\n      pop\n      jump\t// out\n        /* \"#utility.yul\":4385:4502   */\n    tag_99:\n        /* \"#utility.yul\":4494:4495   */\n      0x00\n        /* \"#utility.yul\":4491:4492   */\n      dup1\n        /* \"#utility.yul\":4484:4496   */\n      revert\n        /* \"#utility.yul\":4508:4604   */\n    tag_158:\n        /* \"#utility.yul\":4542:4550   */\n      0x00\n        /* \"#utility.yul\":4591:4596   */\n      dup2\n        /* \"#utility.yul\":4586:4589   */\n      0xf8\n        /* \"#utility.yul\":4582:4597   */\n      shl\n        /* \"#utility.yul\":4561:4597   */\n      swap1\n      pop\n        /* \"#utility.yul\":4508:4604   */\n      swap2\n      swap1\n      pop\n      jump\t// out\n        /* \"#utility.yul\":4610:4726   */\n    tag_87:\n        /* \"#utility.yul\":4680:4701   */\n      tag_164\n        /* \"#utility.yul\":4695:4700   */\n      dup2\n        /* \"#utility.yul\":4680:4701   */\n      tag_113\n      jump\t// in\n    tag_164:\n        /* \"#utility.yul\":4673:4678   */\n      dup2\n        /* \"#utility.yul\":4670:4702   */\n      eq\n        /* \"#utility.yul\":4660:4720   */\n      tag_165\n      jumpi\n        /* \"#utility.yul\":4716:4717   */\n      0x00\n        /* \"#utility.yul\":4713:4714   */\n      dup1\n        /* \"#utility.yul\":4706:4718   */\n      revert\n        /* \"#utility.yul\":4660:4720   */\n    tag_165:\n        /* \"#utility.yul\":4610:4726   */\n      pop\n      jump\t// out\n        /* \"#utility.yul\":4732:4854   */\n    tag_91:\n        /* \"#utility.yul\":4805:4829   */\n      tag_167\n        /* \"#utility.yul\":4823:4828   */\n      dup2\n        /* \"#utility.yul\":4805:4829   */\n      tag_122\n      jump\t// in\n    tag_167:\n        /* \"#utility.yul\":4798:4803   */\n      dup2\n        /* \"#utility.yul\":4795:4830   */\n      eq\n        /* \"#utility.yul\":4785:4848   */\n      tag_168\n      jumpi\n        /* \"#utility.yul\":4844:4845   */\n      0x00\n        /* \"#utility.yul\":4841:4842   */\n      dup1\n        /* \"#utility.yul\":4834:4846   */\n      revert\n        /* \"#utility.yul\":4785:4848   */\n    tag_168:\n        /* \"#utility.yul\":4732:4854   */\n      pop\n      jump\t// out\n        /* \"#utility.yul\":4860:4982   */\n    tag_95:\n        /* \"#utility.yul\":4933:4957   */\n      tag_170\n        /* \"#utility.yul\":4951:4956   */\n      dup2\n        /* \"#utility.yul\":4933:4957   */\n      tag_126\n      jump\t// in\n    tag_170:\n        /* \"#utility.yul\":4926:4931   */\n      dup2\n        /* \"#utility.yul\":4923:4958   */\n      eq\n        /* \"#utility.yul\":4913:4976   */\n      tag_171\n      jumpi\n        /* \"#utility.yul\":4972:4973   */\n      0x00\n        /* \"#utility.yul\":4969:4970   */\n      dup1\n        /* \"#utility.yul\":4962:4974   */\n      revert\n        /* \"#utility.yul\":4913:4976   */\n    tag_171:\n        /* \"#utility.yul\":4860:4982   */\n      pop\n      jump\t// out\n\n    auxdata: 0xa2646970667358221220e04080e49923fc9ef7d7af0118cf7307713c1dc072af168af36f4237f2318d6764736f6c63430008070033\n}\n",
				"bytecode": {
					"linkReferences": {},
					"object": "6080604052604051610a15380380610a15833981810160405281019061002591906100a9565b336000806101000a81548173ffffffffffffffffffffffffffffffffffffffff021916908373ffffffffffffffffffffffffffffffffffffffff16021790555080600281905550346004819055506000600560026101000a81548160ff021916908315150217905550506100fc565b6000815190506100a3816100e5565b92915050565b6000602082840312156100bf576100be6100e0565b5b60006100cd84828501610094565b91505092915050565b6000819050919050565b600080fd5b6100ee816100d6565b81146100f957600080fd5b50565b61090a8061010b6000396000f3fe60806040526004361061009c5760003560e01c8063b422de9d11610064578063b422de9d14610176578063cf7c370814610192578063d24257c0146101bb578063d30895e4146101e6578063d8b1f21914610211578063eb13175d1461023c5761009c565b80630ce6e680146100a15780632c0f9aaa146100cc57806351830227146100f557806359a5f12d14610120578063603f50881461014b575b600080fd5b3480156100ad57600080fd5b506100b6610267565b6040516100c391906107ac565b60405180910390f35b3480156100d857600080fd5b506100f360048036038101906100ee919061068e565b61027a565b005b34801561010157600080fd5b5061010a610434565b60405161011791906107ac565b60405180910390f35b34801561012c57600080fd5b50610135610447565b6040516101429190610791565b60405180910390f35b34801561015757600080fd5b5061016061046d565b60405161016d91906107c7565b60405180910390f35b610190600480360381019061018b91906106ce565b610473565b005b34801561019e57600080fd5b506101b960048036038101906101b4919061068e565b610527565b005b3480156101c757600080fd5b506101d061060c565b6040516101dd91906107e2565b60405180910390f35b3480156101f257600080fd5b506101fb610612565b6040516102089190610791565b60405180910390f35b34801561021d57600080fd5b50610226610636565b60405161023391906107ac565b60405180910390f35b34801561024857600080fd5b50610251610649565b60405161025e91906107c7565b60405180910390f35b600560019054906101000a900460ff1681565b600073ffffffffffffffffffffffffffffffffffffffff16600160009054906101000a900473ffffffffffffffffffffffffffffffffffffffff1673ffffffffffffffffffffffffffffffffffffffff1614156102d657600080fd5b600560029054906101000a900460ff166102ef57600080fd5b6002548282604051602001610305929190610765565b604051602081830303815290604052805190602001201461032557600080fd5b81600560016101000a81548160ff021916908315150217905550811515600560019054906101000a900460ff16151514156103c857600160009054906101000a900473ffffffffffffffffffffffffffffffffffffffff1673ffffffffffffffffffffffffffffffffffffffff166108fc479081150290604051600060405180830381858888f193505050501580156103c2573d6000803e3d6000fd5b50610430565b60008054906101000a900473ffffffffffffffffffffffffffffffffffffffff1673ffffffffffffffffffffffffffffffffffffffff166108fc479081150290604051600060405180830381858888f1935050505015801561042e573d6000803e3d6000fd5b505b5050565b600560029054906101000a900460ff1681565b600160009054906101000a900473ffffffffffffffffffffffffffffffffffffffff1681565b60035481565b600073ffffffffffffffffffffffffffffffffffffffff16600160009054906101000a900473ffffffffffffffffffffffffffffffffffffffff1673ffffffffffffffffffffffffffffffffffffffff16146104ce57600080fd5b60045434146104dc57600080fd5b33600160006101000a81548173ffffffffffffffffffffffffffffffffffffffff021916908373ffffffffffffffffffffffffffffffffffffffff1602179055508060038190555050565b600073ffffffffffffffffffffffffffffffffffffffff16600160009054906101000a900473ffffffffffffffffffffffffffffffffffffffff1673ffffffffffffffffffffffffffffffffffffffff16141561058357600080fd5b600560029054906101000a900460ff161561059d57600080fd5b60025482826040516020016105b3929190610765565b60405160208183030381529060405280519060200120146105d357600080fd5b81600560006101000a81548160ff0219169083151502179055506001600560026101000a81548160ff0219169083151502179055505050565b60045481565b60008054906101000a900473ffffffffffffffffffffffffffffffffffffffff1681565b600560009054906101000a900460ff1681565b60025481565b60008135905061065e8161088f565b92915050565b600081359050610673816108a6565b92915050565b600081359050610688816108bd565b92915050565b600080604083850312156106a5576106a461087d565b5b60006106b38582860161064f565b92505060206106c485828601610679565b9150509250929050565b6000602082840312156106e4576106e361087d565b5b60006106f284828501610664565b91505092915050565b610704816107fd565b82525050565b6107138161080f565b82525050565b61072a6107258261080f565b61084f565b82525050565b6107398161081b565b82525050565b61074881610845565b82525050565b61075f61075a82610845565b610861565b82525050565b60006107718285610719565b600182019150610781828461074e565b6020820191508190509392505050565b60006020820190506107a660008301846106fb565b92915050565b60006020820190506107c1600083018461070a565b92915050565b60006020820190506107dc6000830184610730565b92915050565b60006020820190506107f7600083018461073f565b92915050565b600061080882610825565b9050919050565b60008115159050919050565b6000819050919050565b600073ffffffffffffffffffffffffffffffffffffffff82169050919050565b6000819050919050565b600061085a8261086b565b9050919050565b6000819050919050565b600061087682610882565b9050919050565b600080fd5b60008160f81b9050919050565b6108988161080f565b81146108a357600080fd5b50565b6108af8161081b565b81146108ba57600080fd5b50565b6108c681610845565b81146108d157600080fd5b5056fea2646970667358221220e04080e49923fc9ef7d7af0118cf7307713c1dc072af168af36f4237f2318d6764736f6c63430008070033",
					"opcodes": "PUSH1 0x80 PUSH1 0x40 MSTORE PUSH1 0x40 MLOAD PUSH2 0xA15 CODESIZE SUB DUP1 PUSH2 0xA15 DUP4 CODECOPY DUP2 DUP2 ADD PUSH1 0x40 MSTORE DUP2 ADD SWAP1 PUSH2 0x25 SWAP2 SWAP1 PUSH2 0xA9 JUMP JUMPDEST CALLER PUSH1 0x0 DUP1 PUSH2 0x100 EXP DUP2 SLOAD DUP2 PUSH20 0xFFFFFFFFFFFFFFFFFFFFFFFFFFFFFFFFFFFFFFFF MUL NOT AND SWAP1 DUP4 PUSH20 0xFFFFFFFFFFFFFFFFFFFFFFFFFFFFFFFFFFFFFFFF AND MUL OR SWAP1 SSTORE POP DUP1 PUSH1 0x2 DUP2 SWAP1 SSTORE POP CALLVALUE PUSH1 0x4 DUP2 SWAP1 SSTORE POP PUSH1 0x0 PUSH1 0x5 PUSH1 0x2 PUSH2 0x100 EXP DUP2 SLOAD DUP2 PUSH1 0xFF MUL NOT AND SWAP1 DUP4 ISZERO ISZERO MUL OR SWAP1 SSTORE POP POP PUSH2 0xFC JUMP JUMPDEST PUSH1 0x0 DUP2 MLOAD SWAP1 POP PUSH2 0xA3 DUP2 PUSH2 0xE5 JUMP JUMPDEST SWAP3 SWAP2 POP POP JUMP JUMPDEST PUSH1 0x0 PUSH1 0x20 DUP3 DUP5 SUB SLT ISZERO PUSH2 0xBF JUMPI PUSH2 0xBE PUSH2 0xE0 JUMP JUMPDEST JUMPDEST PUSH1 0x0 PUSH2 0xCD DUP5 DUP3 DUP6 ADD PUSH2 0x94 JUMP JUMPDEST SWAP2 POP POP SWAP3 SWAP2 POP POP JUMP JUMPDEST PUSH1 0x0 DUP2 SWAP1 POP SWAP2 SWAP1 POP JUMP JUMPDEST PUSH1 0x0 DUP1 REVERT JUMPDEST PUSH2 0xEE DUP2 PUSH2 0xD6 JUMP JUMPDEST DUP2 EQ PUSH2 0xF9 JUMPI PUSH1 0x0 DUP1 REVERT JUMPDEST POP JUMP JUMPDEST PUSH2 0x90A DUP1 PUSH2 0x10B PUSH1 0x0 CODECOPY PUSH1 0x0 RETURN INVALID PUSH1 0x80 PUSH1 0x40 MSTORE PUSH1 0x4 CALLDATASIZE LT PUSH2 0x9C JUMPI PUSH1 0x0 CALLDATALOAD PUSH1 0xE0 SHR DUP1 PUSH4 0xB422DE9D GT PUSH2 0x64 JUMPI DUP1 PUSH4 0xB422DE9D EQ PUSH2 0x176 JUMPI DUP1 PUSH4 0xCF7C3708 EQ PUSH2 0x192 JUMPI DUP1 PUSH4 0xD24257C0 EQ PUSH2 0x1BB JUMPI DUP1 PUSH4 0xD30895E4 EQ PUSH2 0x1E6 JUMPI DUP1 PUSH4 0xD8B1F219 EQ PUSH2 0x211 JUMPI DUP1 PUSH4 0xEB13175D EQ PUSH2 0x23C JUMPI PUSH2 0x9C JUMP JUMPDEST DUP1 PUSH4 0xCE6E680 EQ PUSH2 0xA1 JUMPI DUP1 PUSH4 0x2C0F9AAA EQ PUSH2 0xCC JUMPI DUP1 PUSH4 0x51830227 EQ PUSH2 0xF5 JUMPI DUP1 PUSH4 0x59A5F12D EQ PUSH2 0x120 JUMPI DUP1 PUSH4 0x603F5088 EQ PUSH2 0x14B JUMPI JUMPDEST PUSH1 0x0 DUP1 REVERT JUMPDEST CALLVALUE DUP1 ISZERO PUSH2 0xAD JUMPI PUSH1 0x0 DUP1 REVERT JUMPDEST POP PUSH2 0xB6 PUSH2 0x267 JUMP JUMPDEST PUSH1 0x40 MLOAD PUSH2 0xC3 SWAP2 SWAP1 PUSH2 0x7AC JUMP JUMPDEST PUSH1 0x40 MLOAD DUP1 SWAP2 SUB SWAP1 RETURN JUMPDEST CALLVALUE DUP1 ISZERO PUSH2 0xD8 JUMPI PUSH1 0x0 DUP1 REVERT JUMPDEST POP PUSH2 0xF3 PUSH1 0x4 DUP1 CALLDATASIZE SUB DUP2 ADD SWAP1 PUSH2 0xEE SWAP2 SWAP1 PUSH2 0x68E JUMP JUMPDEST PUSH2 0x27A JUMP JUMPDEST STOP JUMPDEST CALLVALUE DUP1 ISZERO PUSH2 0x101 JUMPI PUSH1 0x0 DUP1 REVERT JUMPDEST POP PUSH2 0x10A PUSH2 0x434 JUMP JUMPDEST PUSH1 0x40 MLOAD PUSH2 0x117 SWAP2 SWAP1 PUSH2 0x7AC JUMP JUMPDEST PUSH1 0x40 MLOAD DUP1 SWAP2 SUB SWAP1 RETURN JUMPDEST CALLVALUE DUP1 ISZERO PUSH2 0x12C JUMPI PUSH1 0x0 DUP1 REVERT JUMPDEST POP PUSH2 0x135 PUSH2 0x447 JUMP JUMPDEST PUSH1 0x40 MLOAD PUSH2 0x142 SWAP2 SWAP1 PUSH2 0x791 JUMP JUMPDEST PUSH1 0x40 MLOAD DUP1 SWAP2 SUB SWAP1 RETURN JUMPDEST CALLVALUE DUP1 ISZERO PUSH2 0x157 JUMPI PUSH1 0x0 DUP1 REVERT JUMPDEST POP PUSH2 0x160 PUSH2 0x46D JUMP JUMPDEST PUSH1 0x40 MLOAD PUSH2 0x16D SWAP2 SWAP1 PUSH2 0x7C7 JUMP JUMPDEST PUSH1 0x40 MLOAD DUP1 SWAP2 SUB SWAP1 RETURN JUMPDEST PUSH2 0x190 PUSH1 0x4 DUP1 CALLDATASIZE SUB DUP2 ADD SWAP1 PUSH2 0x18B SWAP2 SWAP1 PUSH2 0x6CE JUMP JUMPDEST PUSH2 0x473 JUMP JUMPDEST STOP JUMPDEST CALLVALUE DUP1 ISZERO PUSH2 0x19E JUMPI PUSH1 0x0 DUP1 REVERT JUMPDEST POP PUSH2 0x1B9 PUSH1 0x4 DUP1 CALLDATASIZE SUB DUP2 ADD SWAP1 PUSH2 0x1B4 SWAP2 SWAP1 PUSH2 0x68E JUMP JUMPDEST PUSH2 0x527 JUMP JUMPDEST STOP JUMPDEST CALLVALUE DUP1 ISZERO PUSH2 0x1C7 JUMPI PUSH1 0x0 DUP1 REVERT JUMPDEST POP PUSH2 0x1D0 PUSH2 0x60C JUMP JUMPDEST PUSH1 0x40 MLOAD PUSH2 0x1DD SWAP2 SWAP1 PUSH2 0x7E2 JUMP JUMPDEST PUSH1 0x40 MLOAD DUP1 SWAP2 SUB SWAP1 RETURN JUMPDEST CALLVALUE DUP1 ISZERO PUSH2 0x1F2 JUMPI PUSH1 0x0 DUP1 REVERT JUMPDEST POP PUSH2 0x1FB PUSH2 0x612 JUMP JUMPDEST PUSH1 0x40 MLOAD PUSH2 0x208 SWAP2 SWAP1 PUSH2 0x791 JUMP JUMPDEST PUSH1 0x40 MLOAD DUP1 SWAP2 SUB SWAP1 RETURN JUMPDEST CALLVALUE DUP1 ISZERO PUSH2 0x21D JUMPI PUSH1 0x0 DUP1 REVERT JUMPDEST POP PUSH2 0x226 PUSH2 0x636 JUMP JUMPDEST PUSH1 0x40 MLOAD PUSH2 0x233 SWAP2 SWAP1 PUSH2 0x7AC JUMP JUMPDEST PUSH1 0x40 MLOAD DUP1 SWAP2 SUB SWAP1 RETURN JUMPDEST CALLVALUE DUP1 ISZERO PUSH2 0x248 JUMPI PUSH1 0x0 DUP1 REVERT JUMPDEST POP PUSH2 0x251 PUSH2 0x649 JUMP JUMPDEST PUSH1 0x40 MLOAD PUSH2 0x25E SWAP2 SWAP1 PUSH2 0x7C7 JUMP JUMPDEST PUSH1 0x40 MLOAD DUP1 SWAP2 SUB SWAP1 RETURN JUMPDEST PUSH1 0x5 PUSH1 0x1 SWAP1 SLOAD SWAP1 PUSH2 0x100 EXP SWAP1 DIV PUSH1 0xFF AND DUP2 JUMP JUMPDEST PUSH1 0x0 PUSH20 0xFFFFFFFFFFFFFFFFFFFFFFFFFFFFFFFFFFFFFFFF AND PUSH1 0x1 PUSH1 0x0 SWAP1 SLOAD SWAP1 PUSH2 0x100 EXP SWAP1 DIV PUSH20 0xFFFFFFFFFFFFFFFFFFFFFFFFFFFFFFFFFFFFFFFF AND PUSH20 0xFFFFFFFFFFFFFFFFFFFFFFFFFFFFFFFFFFFFFFFF AND EQ ISZERO PUSH2 0x2D6 JUMPI PUSH1 0x0 DUP1 REVERT JUMPDEST PUSH1 0x5 PUSH1 0x2 SWAP1 SLOAD SWAP1 PUSH2 0x100 EXP SWAP1 DIV PUSH1 0xFF AND PUSH2 0x2EF JUMPI PUSH1 0x0 DUP1 REVERT JUMPDEST PUSH1 0x2 SLOAD DUP3 DUP3 PUSH1 0x40 MLOAD PUSH1 0x20 ADD PUSH2 0x305 SWAP3 SWAP2 SWAP1 PUSH2 0x765 JUMP JUMPDEST PUSH1 0x40 MLOAD PUSH1 0x20 DUP2 DUP4 SUB SUB DUP2 MSTORE SWAP1 PUSH1 0x40 MSTORE DUP1 MLOAD SWAP1 PUSH1 0x20 ADD KECCAK256 EQ PUSH2 0x325 JUMPI PUSH1 0x0 DUP1 REVERT JUMPDEST DUP2 PUSH1 0x5 PUSH1 0x1 PUSH2 0x100 EXP DUP2 SLOAD DUP2 PUSH1 0xFF MUL NOT AND SWAP1 DUP4 ISZERO ISZERO MUL OR SWAP1 SSTORE POP DUP2 ISZERO ISZERO PUSH1 0x5 PUSH1 0x1 SWAP1 SLOAD SWAP1 PUSH2 0x100 EXP SWAP1 DIV PUSH1 0xFF AND ISZERO ISZERO EQ ISZERO PUSH2 0x3C8 JUMPI PUSH1 0x1 PUSH1 0x0 SWAP1 SLOAD SWAP1 PUSH2 0x100 EXP SWAP1 DIV PUSH20 0xFFFFFFFFFFFFFFFFFFFFFFFFFFFFFFFFFFFFFFFF AND PUSH20 0xFFFFFFFFFFFFFFFFFFFFFFFFFFFFFFFFFFFFFFFF AND PUSH2 0x8FC SELFBALANCE SWAP1 DUP2 ISZERO MUL SWAP1 PUSH1 0x40 MLOAD PUSH1 0x0 PUSH1 0x40 MLOAD DUP1 DUP4 SUB DUP2 DUP6 DUP9 DUP9 CALL SWAP4 POP POP POP POP ISZERO DUP1 ISZERO PUSH2 0x3C2 JUMPI RETURNDATASIZE PUSH1 0x0 DUP1 RETURNDATACOPY RETURNDATASIZE PUSH1 0x0 REVERT JUMPDEST POP PUSH2 0x430 JUMP JUMPDEST PUSH1 0x0 DUP1 SLOAD SWAP1 PUSH2 0x100 EXP SWAP1 DIV PUSH20 0xFFFFFFFFFFFFFFFFFFFFFFFFFFFFFFFFFFFFFFFF AND PUSH20 0xFFFFFFFFFFFFFFFFFFFFFFFFFFFFFFFFFFFFFFFF AND PUSH2 0x8FC SELFBALANCE SWAP1 DUP2 ISZERO MUL SWAP1 PUSH1 0x40 MLOAD PUSH1 0x0 PUSH1 0x40 MLOAD DUP1 DUP4 SUB DUP2 DUP6 DUP9 DUP9 CALL SWAP4 POP POP POP POP ISZERO DUP1 ISZERO PUSH2 0x42E JUMPI RETURNDATASIZE PUSH1 0x0 DUP1 RETURNDATACOPY RETURNDATASIZE PUSH1 0x0 REVERT JUMPDEST POP JUMPDEST POP POP JUMP JUMPDEST PUSH1 0x5 PUSH1 0x2 SWAP1 SLOAD SWAP1 PUSH2 0x100 EXP SWAP1 DIV PUSH1 0xFF AND DUP2 JUMP JUMPDEST PUSH1 0x1 PUSH1 0x0 SWAP1 SLOAD SWAP1 PUSH2 0x100 EXP SWAP1 DIV PUSH20 0xFFFFFFFFFFFFFFFFFFFFFFFFFFFFFFFFFFFFFFFF AND DUP2 JUMP JUMPDEST PUSH1 0x3 SLOAD DUP2 JUMP JUMPDEST PUSH1 0x0 PUSH20 0xFFFFFFFFFFFFFFFFFFFFFFFFFFFFFFFFFFFFFFFF AND PUSH1 0x1 PUSH1 0x0 SWAP1 SLOAD SWAP1 PUSH2 0x100 EXP SWAP1 DIV PUSH20 0xFFFFFFFFFFFFFFFFFFFFFFFFFFFFFFFFFFFFFFFF AND PUSH20 0xFFFFFFFFFFFFFFFFFFFFFFFFFFFFFFFFFFFFFFFF AND EQ PUSH2 0x4CE JUMPI PUSH1 0x0 DUP1 REVERT JUMPDEST PUSH1 0x4 SLOAD CALLVALUE EQ PUSH2 0x4DC JUMPI PUSH1 0x0 DUP1 REVERT JUMPDEST CALLER PUSH1 0x1 PUSH1 0x0 PUSH2 0x100 EXP DUP2 SLOAD DUP2 PUSH20 0xFFFFFFFFFFFFFFFFFFFFFFFFFFFFFFFFFFFFFFFF MUL NOT AND SWAP1 DUP4 PUSH20 0xFFFFFFFFFFFFFFFFFFFFFFFFFFFFFFFFFFFFFFFF AND MUL OR SWAP1 SSTORE POP DUP1 PUSH1 0x3 DUP2 SWAP1 SSTORE POP POP JUMP JUMPDEST PUSH1 0x0 PUSH20 0xFFFFFFFFFFFFFFFFFFFFFFFFFFFFFFFFFFFFFFFF AND PUSH1 0x1 PUSH1 0x0 SWAP1 SLOAD SWAP1 PUSH2 0x100 EXP SWAP1 DIV PUSH20 0xFFFFFFFFFFFFFFFFFFFFFFFFFFFFFFFFFFFFFFFF AND PUSH20 0xFFFFFFFFFFFFFFFFFFFFFFFFFFFFFFFFFFFFFFFF AND EQ ISZERO PUSH2 0x583 JUMPI PUSH1 0x0 DUP1 REVERT JUMPDEST PUSH1 0x5 PUSH1 0x2 SWAP1 SLOAD SWAP1 PUSH2 0x100 EXP SWAP1 DIV PUSH1 0xFF AND ISZERO PUSH2 0x59D JUMPI PUSH1 0x0 DUP1 REVERT JUMPDEST PUSH1 0x2 SLOAD DUP3 DUP3 PUSH1 0x40 MLOAD PUSH1 0x20 ADD PUSH2 0x5B3 SWAP3 SWAP2 SWAP1 PUSH2 0x765 JUMP JUMPDEST PUSH1 0x40 MLOAD PUSH1 0x20 DUP2 DUP4 SUB SUB DUP2 MSTORE SWAP1 PUSH1 0x40 MSTORE DUP1 MLOAD SWAP1 PUSH1 0x20 ADD KECCAK256 EQ PUSH2 0x5D3 JUMPI PUSH1 0x0 DUP1 REVERT JUMPDEST DUP2 PUSH1 0x5 PUSH1 0x0 PUSH2 0x100 EXP DUP2 SLOAD DUP2 PUSH1 0xFF MUL NOT AND SWAP1 DUP4 ISZERO ISZERO MUL OR SWAP1 SSTORE POP PUSH1 0x1 PUSH1 0x5 PUSH1 0x2 PUSH2 0x100 EXP DUP2 SLOAD DUP2 PUSH1 0xFF MUL NOT AND SWAP1 DUP4 ISZERO ISZERO MUL OR SWAP1 SSTORE POP POP POP JUMP JUMPDEST PUSH1 0x4 SLOAD DUP2 JUMP JUMPDEST PUSH1 0x0 DUP1 SLOAD SWAP1 PUSH2 0x100 EXP SWAP1 DIV PUSH20 0xFFFFFFFFFFFFFFFFFFFFFFFFFFFFFFFFFFFFFFFF AND DUP2 JUMP JUMPDEST PUSH1 0x5 PUSH1 0x0 SWAP1 SLOAD SWAP1 PUSH2 0x100 EXP SWAP1 DIV PUSH1 0xFF AND DUP2 JUMP JUMPDEST PUSH1 0x2 SLOAD DUP2 JUMP JUMPDEST PUSH1 0x0 DUP2 CALLDATALOAD SWAP1 POP PUSH2 0x65E DUP2 PUSH2 0x88F JUMP JUMPDEST SWAP3 SWAP2 POP POP JUMP JUMPDEST PUSH1 0x0 DUP2 CALLDATALOAD SWAP1 POP PUSH2 0x673 DUP2 PUSH2 0x8A6 JUMP JUMPDEST SWAP3 SWAP2 POP POP JUMP JUMPDEST PUSH1 0x0 DUP2 CALLDATALOAD SWAP1 POP PUSH2 0x688 DUP2 PUSH2 0x8BD JUMP JUMPDEST SWAP3 SWAP2 POP POP JUMP JUMPDEST PUSH1 0x0 DUP1 PUSH1 0x40 DUP4 DUP6 SUB SLT ISZERO PUSH2 0x6A5 JUMPI PUSH2 0x6A4 PUSH2 0x87D JUMP JUMPDEST JUMPDEST PUSH1 0x0 PUSH2 0x6B3 DUP6 DUP3 DUP7 ADD PUSH2 0x64F JUMP JUMPDEST SWAP3 POP POP PUSH1 0x20 PUSH2 0x6C4 DUP6 DUP3 DUP7 ADD PUSH2 0x679 JUMP JUMPDEST SWAP2 POP POP SWAP3 POP SWAP3 SWAP1 POP JUMP JUMPDEST PUSH1 0x0 PUSH1 0x20 DUP3 DUP5 SUB SLT ISZERO PUSH2 0x6E4 JUMPI PUSH2 0x6E3 PUSH2 0x87D JUMP JUMPDEST JUMPDEST PUSH1 0x0 PUSH2 0x6F2 DUP5 DUP3 DUP6 ADD PUSH2 0x664 JUMP JUMPDEST SWAP2 POP POP SWAP3 SWAP2 POP POP JUMP JUMPDEST PUSH2 0x704 DUP2 PUSH2 0x7FD JUMP JUMPDEST DUP3 MSTORE POP POP JUMP JUMPDEST PUSH2 0x713 DUP2 PUSH2 0x80F JUMP JUMPDEST DUP3 MSTORE POP POP JUMP JUMPDEST PUSH2 0x72A PUSH2 0x725 DUP3 PUSH2 0x80F JUMP JUMPDEST PUSH2 0x84F JUMP JUMPDEST DUP3 MSTORE POP POP JUMP JUMPDEST PUSH2 0x739 DUP2 PUSH2 0x81B JUMP JUMPDEST DUP3 MSTORE POP POP JUMP JUMPDEST PUSH2 0x748 DUP2 PUSH2 0x845 JUMP JUMPDEST DUP3 MSTORE POP POP JUMP JUMPDEST PUSH2 0x75F PUSH2 0x75A DUP3 PUSH2 0x845 JUMP JUMPDEST PUSH2 0x861 JUMP JUMPDEST DUP3 MSTORE POP POP JUMP JUMPDEST PUSH1 0x0 PUSH2 0x771 DUP3 DUP6 PUSH2 0x719 JUMP JUMPDEST PUSH1 0x1 DUP3 ADD SWAP2 POP PUSH2 0x781 DUP3 DUP5 PUSH2 0x74E JUMP JUMPDEST PUSH1 0x20 DUP3 ADD SWAP2 POP DUP2 SWAP1 POP SWAP4 SWAP3 POP POP POP JUMP JUMPDEST PUSH1 0x0 PUSH1 0x20 DUP3 ADD SWAP1 POP PUSH2 0x7A6 PUSH1 0x0 DUP4 ADD DUP5 PUSH2 0x6FB JUMP JUMPDEST SWAP3 SWAP2 POP POP JUMP JUMPDEST PUSH1 0x0 PUSH1 0x20 DUP3 ADD SWAP1 POP PUSH2 0x7C1 PUSH1 0x0 DUP4 ADD DUP5 PUSH2 0x70A JUMP JUMPDEST SWAP3 SWAP2 POP POP JUMP JUMPDEST PUSH1 0x0 PUSH1 0x20 DUP3 ADD SWAP1 POP PUSH2 0x7DC PUSH1 0x0 DUP4 ADD DUP5 PUSH2 0x730 JUMP JUMPDEST SWAP3 SWAP2 POP POP JUMP JUMPDEST PUSH1 0x0 PUSH1 0x20 DUP3 ADD SWAP1 POP PUSH2 0x7F7 PUSH1 0x0 DUP4 ADD DUP5 PUSH2 0x73F JUMP JUMPDEST SWAP3 SWAP2 POP POP JUMP JUMPDEST PUSH1 0x0 PUSH2 0x808 DUP3 PUSH2 0x825 JUMP JUMPDEST SWAP1 POP SWAP2 SWAP1 POP JUMP JUMPDEST PUSH1 0x0 DUP2 ISZERO ISZERO SWAP1 POP SWAP2 SWAP1 POP JUMP JUMPDEST PUSH1 0x0 DUP2 SWAP1 POP SWAP2 SWAP1 POP JUMP JUMPDEST PUSH1 0x0 PUSH20 0xFFFFFFFFFFFFFFFFFFFFFFFFFFFFFFFFFFFFFFFF DUP3 AND SWAP1 POP SWAP2 SWAP1 POP JUMP JUMPDEST PUSH1 0x0 DUP2 SWAP1 POP SWAP2 SWAP1 POP JUMP JUMPDEST PUSH1 0x0 PUSH2 0x85A DUP3 PUSH2 0x86B JUMP JUMPDEST SWAP1 POP SWAP2 SWAP1 POP JUMP JUMPDEST PUSH1 0x0 DUP2 SWAP1 POP SWAP2 SWAP1 POP JUMP JUMPDEST PUSH1 0x0 PUSH2 0x876 DUP3 PUSH2 0x882 JUMP JUMPDEST SWAP1 POP SWAP2 SWAP1 POP JUMP JUMPDEST PUSH1 0x0 DUP1 REVERT JUMPDEST PUSH1 0x0 DUP2 PUSH1 0xF8 SHL SWAP1 POP SWAP2 SWAP1 POP JUMP JUMPDEST PUSH2 0x898 DUP2 PUSH2 0x80F JUMP JUMPDEST DUP2 EQ PUSH2 0x8A3 JUMPI PUSH1 0x0 DUP1 REVERT JUMPDEST POP JUMP JUMPDEST PUSH2 0x8AF DUP2 PUSH2 0x81B JUMP JUMPDEST DUP2 EQ PUSH2 0x8BA JUMPI PUSH1 0x0 DUP1 REVERT JUMPDEST POP JUMP JUMPDEST PUSH2 0x8C6 DUP2 PUSH2 0x845 JUMP JUMPDEST DUP2 EQ PUSH2 0x8D1 JUMPI PUSH1 0x0 DUP1 REVERT JUMPDEST POP JUMP INVALID LOG2 PUSH5 0x6970667358 0x22 SLT KECCAK256 0xE0 BLOCKHASH DUP1 0xE4 SWAP10 0x23 0xFC SWAP15 0xF7 0xD7 0xAF ADD XOR 0xCF PUSH20 0x7713C1DC072AF168AF36F4237F2318D6764736F PUSH13 0x63430008070033000000000000 "
				},
				"gasEstimates": {
					"creation": {
						"codeDepositCost": "462800",
						"executionCost": "infinite",
						"totalCost": "infinite"
					},
					"external": {
						"Reveal1(bool,uint256)": "infinite",
						"Reveal2(bool,uint256)": "infinite",
						"TakeBet(bytes32)": "51055",
						"betAmount()": "2473",
						"player1()": "2577",
						"player1Choice()": "2559",
						"player1Commitment()": "2539",
						"player2()": "2581",
						"player2Choice()": "2522",
						"player2Commitment()": "2518",
						"revealed()": "2566"
					}
				},
				"methodIdentifiers": {
					"Reveal1(bool,uint256)": "cf7c3708",
					"Reveal2(bool,uint256)": "2c0f9aaa",
					"TakeBet(bytes32)": "b422de9d",
					"betAmount()": "d24257c0",
					"player1()": "d30895e4",
					"player1Choice()": "d8b1f219",
					"player1Commitment()": "eb13175d",
					"player2()": "59a5f12d",
					"player2Choice()": "0ce6e680",
					"player2Commitment()": "603f5088",
					"revealed()": "51830227"
				}
			},
			"storageLayout": {
				"storage": [
					{
						"astId": 3,
						"contract": "contracts/Coin2.sol:CoinFlip",
						"label": "player1",
						"offset": 0,
						"slot": "0",
						"type": "t_address_payable"
					},
					{
						"astId": 5,
						"contract": "contracts/Coin2.sol:CoinFlip",
						"label": "player2",
						"offset": 0,
						"slot": "1",
						"type": "t_address_payable"
					},
					{
						"astId": 7,
						"contract": "contracts/Coin2.sol:CoinFlip",
						"label": "player1Commitment",
						"offset": 0,
						"slot": "2",
						"type": "t_bytes32"
					},
					{
						"astId": 9,
						"contract": "contracts/Coin2.sol:CoinFlip",
						"label": "player2Commitment",
						"offset": 0,
						"slot": "3",
						"type": "t_bytes32"
					},
					{
						"astId": 11,
						"contract": "contracts/Coin2.sol:CoinFlip",
						"label": "betAmount",
						"offset": 0,
						"slot": "4",
						"type": "t_uint256"
					},
					{
						"astId": 13,
						"contract": "contracts/Coin2.sol:CoinFlip",
						"label": "player1Choice",
						"offset": 0,
						"slot": "5",
						"type": "t_bool"
					},
					{
						"astId": 15,
						"contract": "contracts/Coin2.sol:CoinFlip",
						"label": "player2Choice",
						"offset": 1,
						"slot": "5",
						"type": "t_bool"
					},
					{
						"astId": 17,
						"contract": "contracts/Coin2.sol:CoinFlip",
						"label": "revealed",
						"offset": 2,
						"slot": "5",
						"type": "t_bool"
					}
				],
				"types": {
					"t_address_payable": {
						"encoding": "inplace",
						"label": "address payable",
						"numberOfBytes": "20"
					},
					"t_bool": {
						"encoding": "inplace",
						"label": "bool",
						"numberOfBytes": "1"
					},
					"t_bytes32": {
						"encoding": "inplace",
						"label": "bytes32",
						"numberOfBytes": "32"
					},
					"t_uint256": {
						"encoding": "inplace",
						"label": "uint256",
						"numberOfBytes": "32"
					}
				}
			},
			"userdoc": {
				"kind": "user",
				"methods": {},
				"version": 1
			}
		}
	}
}