{
	"contracts/FundMe.sol": {
		"FundMe": {
			"abi": [
				{
					"inputs": [],
					"stateMutability": "nonpayable",
					"type": "constructor"
				},
				{
					"inputs": [
						{
							"internalType": "address",
							"name": "",
							"type": "address"
						}
					],
					"name": "addrToAmtFunded",
					"outputs": [
						{
							"internalType": "uint256",
							"name": "",
							"type": "uint256"
						}
					],
					"stateMutability": "view",
					"type": "function"
				},
				{
					"inputs": [],
					"name": "fund",
					"outputs": [],
					"stateMutability": "payable",
					"type": "function"
				},
				{
					"inputs": [
						{
							"internalType": "uint256",
							"name": "ethAmt",
							"type": "uint256"
						}
					],
					"name": "getConvRate",
					"outputs": [
						{
							"internalType": "uint256",
							"name": "",
							"type": "uint256"
						}
					],
					"stateMutability": "view",
					"type": "function"
				},
				{
					"inputs": [],
					"name": "getPrice",
					"outputs": [
						{
							"internalType": "uint256",
							"name": "",
							"type": "uint256"
						}
					],
					"stateMutability": "view",
					"type": "function"
				},
				{
					"inputs": [],
					"name": "getVer",
					"outputs": [
						{
							"internalType": "uint256",
							"name": "",
							"type": "uint256"
						}
					],
					"stateMutability": "view",
					"type": "function"
				},
				{
					"inputs": [],
					"name": "owner",
					"outputs": [
						{
							"internalType": "address",
							"name": "",
							"type": "address"
						}
					],
					"stateMutability": "view",
					"type": "function"
				},
				{
					"inputs": [],
					"name": "withdraw",
					"outputs": [],
					"stateMutability": "payable",
					"type": "function"
				}
			],
			"devdoc": {
				"kind": "dev",
				"methods": {},
				"version": 1
			},
			"evm": {
				"assembly": "    /* \"contracts/FundMe.sol\":491:1850  contract FundMe {\r... */\n  mstore(0x40, 0x80)\n    /* \"contracts/FundMe.sol\":547:589  0xD4a33860578De61DBAbDc8BFdb98FD742fA7028e */\n  0xd4a33860578de61dbabdc8bfdb98fd742fa7028e\n    /* \"contracts/FundMe.sol\":514:589  address GOERLI_TESTNET_ETH_USD = 0xD4a33860578De61DBAbDc8BFdb98FD742fA7028e */\n  0x00\n  dup1\n  0x0100\n  exp\n  dup2\n  sload\n  dup2\n  0xffffffffffffffffffffffffffffffffffffffff\n  mul\n  not\n  and\n  swap1\n  dup4\n  0xffffffffffffffffffffffffffffffffffffffff\n  and\n  mul\n  or\n  swap1\n  sstore\n  pop\n    /* \"contracts/FundMe.sol\":679:730  constructor() {\r... */\n  callvalue\n  dup1\n  iszero\n  tag_1\n  jumpi\n  0x00\n  dup1\n  revert\ntag_1:\n  pop\n    /* \"contracts/FundMe.sol\":712:722  msg.sender */\n  caller\n    /* \"contracts/FundMe.sol\":704:709  owner */\n  0x01\n  0x00\n    /* \"contracts/FundMe.sol\":704:722  owner = msg.sender */\n  0x0100\n  exp\n  dup2\n  sload\n  dup2\n  0xffffffffffffffffffffffffffffffffffffffff\n  mul\n  not\n  and\n  swap1\n  dup4\n  0xffffffffffffffffffffffffffffffffffffffff\n  and\n  mul\n  or\n  swap1\n  sstore\n  pop\n    /* \"contracts/FundMe.sol\":491:1850  contract FundMe {\r... */\n  dataSize(sub_0)\n  dup1\n  dataOffset(sub_0)\n  0x00\n  codecopy\n  0x00\n  return\nstop\n\nsub_0: assembly {\n        /* \"contracts/FundMe.sol\":491:1850  contract FundMe {\r... */\n      mstore(0x40, 0x80)\n      jumpi(tag_1, lt(calldatasize, 0x04))\n      shr(0xe0, calldataload(0x00))\n      dup1\n      0x8da5cb5b\n      gt\n      tag_9\n      jumpi\n      dup1\n      0x8da5cb5b\n      eq\n      tag_5\n      jumpi\n      dup1\n      0x98d5fdca\n      eq\n      tag_6\n      jumpi\n      dup1\n      0xb062654f\n      eq\n      tag_7\n      jumpi\n      dup1\n      0xb60d4288\n      eq\n      tag_8\n      jumpi\n      jump(tag_1)\n    tag_9:\n      dup1\n      0x0504b2cd\n      eq\n      tag_2\n      jumpi\n      dup1\n      0x3ccfd60b\n      eq\n      tag_3\n      jumpi\n      dup1\n      0x8793ad55\n      eq\n      tag_4\n      jumpi\n    tag_1:\n      0x00\n      dup1\n      revert\n        /* \"contracts/FundMe.sol\":623:670  mapping(address => uint) public addrToAmtFunded */\n    tag_2:\n      callvalue\n      dup1\n      iszero\n      tag_10\n      jumpi\n      0x00\n      dup1\n      revert\n    tag_10:\n      pop\n      tag_11\n      0x04\n      dup1\n      calldatasize\n      sub\n      dup2\n      add\n      swap1\n      tag_12\n      swap2\n      swap1\n      tag_13\n      jump\t// in\n    tag_12:\n      tag_14\n      jump\t// in\n    tag_11:\n      mload(0x40)\n      tag_15\n      swap2\n      swap1\n      tag_16\n      jump\t// in\n    tag_15:\n      mload(0x40)\n      dup1\n      swap2\n      sub\n      swap1\n      return\n        /* \"contracts/FundMe.sol\":1729:1845  function withdraw() payable onlyOwnder public {\r... */\n    tag_3:\n      tag_17\n      tag_18\n      jump\t// in\n    tag_17:\n      stop\n        /* \"contracts/FundMe.sol\":980:1159  function getVer() public view returns(uint) {\r... */\n    tag_4:\n      callvalue\n      dup1\n      iszero\n      tag_19\n      jumpi\n      0x00\n      dup1\n      revert\n    tag_19:\n      pop\n      tag_20\n      tag_21\n      jump\t// in\n    tag_20:\n      mload(0x40)\n      tag_22\n      swap2\n      swap1\n      tag_16\n      jump\t// in\n    tag_22:\n      mload(0x40)\n      dup1\n      swap2\n      sub\n      swap1\n      return\n        /* \"contracts/FundMe.sol\":596:616  address public owner */\n    tag_5:\n      callvalue\n      dup1\n      iszero\n      tag_23\n      jumpi\n      0x00\n      dup1\n      revert\n    tag_23:\n      pop\n      tag_24\n      tag_25\n      jump\t// in\n    tag_24:\n      mload(0x40)\n      tag_26\n      swap2\n      swap1\n      tag_27\n      jump\t// in\n    tag_26:\n      mload(0x40)\n      dup1\n      swap2\n      sub\n      swap1\n      return\n        /* \"contracts/FundMe.sol\":1167:1401  function getPrice() public view returns(uint) {\r... */\n    tag_6:\n      callvalue\n      dup1\n      iszero\n      tag_28\n      jumpi\n      0x00\n      dup1\n      revert\n    tag_28:\n      pop\n      tag_29\n      tag_30\n      jump\t// in\n    tag_29:\n      mload(0x40)\n      tag_31\n      swap2\n      swap1\n      tag_16\n      jump\t// in\n    tag_31:\n      mload(0x40)\n      dup1\n      swap2\n      sub\n      swap1\n      return\n        /* \"contracts/FundMe.sol\":1409:1600  function getConvRate(uint ethAmt) public view returns(uint) {\r... */\n    tag_7:\n      callvalue\n      dup1\n      iszero\n      tag_32\n      jumpi\n      0x00\n      dup1\n      revert\n    tag_32:\n      pop\n      tag_33\n      0x04\n      dup1\n      calldatasize\n      sub\n      dup2\n      add\n      swap1\n      tag_34\n      swap2\n      swap1\n      tag_35\n      jump\t// in\n    tag_34:\n      tag_36\n      jump\t// in\n    tag_33:\n      mload(0x40)\n      tag_37\n      swap2\n      swap1\n      tag_16\n      jump\t// in\n    tag_37:\n      mload(0x40)\n      dup1\n      swap2\n      sub\n      swap1\n      return\n        /* \"contracts/FundMe.sol\":738:972  function fund() public payable {\r... */\n    tag_8:\n      tag_38\n      tag_39\n      jump\t// in\n    tag_38:\n      stop\n        /* \"contracts/FundMe.sol\":623:670  mapping(address => uint) public addrToAmtFunded */\n    tag_14:\n      mstore(0x20, 0x02)\n      dup1\n      0x00\n      mstore\n      keccak256(0x00, 0x40)\n      0x00\n      swap2\n      pop\n      swap1\n      pop\n      sload\n      dup2\n      jump\t// out\n        /* \"contracts/FundMe.sol\":1729:1845  function withdraw() payable onlyOwnder public {\r... */\n    tag_18:\n        /* \"contracts/FundMe.sol\":1661:1666  owner */\n      0x01\n      0x00\n      swap1\n      sload\n      swap1\n      0x0100\n      exp\n      swap1\n      div\n      0xffffffffffffffffffffffffffffffffffffffff\n      and\n        /* \"contracts/FundMe.sol\":1647:1666  msg.sender == owner */\n      0xffffffffffffffffffffffffffffffffffffffff\n      and\n        /* \"contracts/FundMe.sol\":1647:1657  msg.sender */\n      caller\n        /* \"contracts/FundMe.sol\":1647:1666  msg.sender == owner */\n      0xffffffffffffffffffffffffffffffffffffffff\n      and\n      eq\n        /* \"contracts/FundMe.sol\":1639:1703  require(msg.sender == owner, \"Only the owner can withdraw ETHs\") */\n      tag_41\n      jumpi\n      mload(0x40)\n      0x08c379a000000000000000000000000000000000000000000000000000000000\n      dup2\n      mstore\n      0x04\n      add\n      tag_42\n      swap1\n      tag_43\n      jump\t// in\n    tag_42:\n      mload(0x40)\n      dup1\n      swap2\n      sub\n      swap1\n      revert\n    tag_41:\n        /* \"contracts/FundMe.sol\":1794:1804  msg.sender */\n      caller\n        /* \"contracts/FundMe.sol\":1786:1814  payable(msg.sender).transfer */\n      0xffffffffffffffffffffffffffffffffffffffff\n      and\n        /* \"contracts/FundMe.sol\":1786:1837  payable(msg.sender).transfer(address(this).balance) */\n      0x08fc\n        /* \"contracts/FundMe.sol\":1815:1836  address(this).balance */\n      selfbalance\n        /* \"contracts/FundMe.sol\":1786:1837  payable(msg.sender).transfer(address(this).balance) */\n      swap1\n      dup2\n      iszero\n      mul\n      swap1\n      mload(0x40)\n      0x00\n      mload(0x40)\n      dup1\n      dup4\n      sub\n      dup2\n      dup6\n      dup9\n      dup9\n      call\n      swap4\n      pop\n      pop\n      pop\n      pop\n      iszero\n      dup1\n      iszero\n      tag_46\n      jumpi\n      returndatasize\n      0x00\n      dup1\n      returndatacopy\n      revert(0x00, returndatasize)\n    tag_46:\n      pop\n        /* \"contracts/FundMe.sol\":1729:1845  function withdraw() payable onlyOwnder public {\r... */\n      jump\t// out\n        /* \"contracts/FundMe.sol\":980:1159  function getVer() public view returns(uint) {\r... */\n    tag_21:\n        /* \"contracts/FundMe.sol\":1018:1022  uint */\n      0x00\n        /* \"contracts/FundMe.sol\":1035:1066  AggregatorV3Interface priceFeed */\n      dup1\n        /* \"contracts/FundMe.sol\":1091:1113  GOERLI_TESTNET_ETH_USD */\n      0x00\n      dup1\n      sload\n      swap1\n      0x0100\n      exp\n      swap1\n      div\n      0xffffffffffffffffffffffffffffffffffffffff\n      and\n        /* \"contracts/FundMe.sol\":1035:1114  AggregatorV3Interface priceFeed = AggregatorV3Interface(GOERLI_TESTNET_ETH_USD) */\n      swap1\n      pop\n        /* \"contracts/FundMe.sol\":1132:1141  priceFeed */\n      dup1\n        /* \"contracts/FundMe.sol\":1132:1149  priceFeed.version */\n      0xffffffffffffffffffffffffffffffffffffffff\n      and\n      0x54fd4d50\n        /* \"contracts/FundMe.sol\":1132:1151  priceFeed.version() */\n      mload(0x40)\n      dup2\n      0xffffffff\n      and\n      0xe0\n      shl\n      dup2\n      mstore\n      0x04\n      add\n      0x20\n      mload(0x40)\n      dup1\n      dup4\n      sub\n      dup2\n      dup7\n      dup1\n      extcodesize\n      iszero\n      dup1\n      iszero\n      tag_48\n      jumpi\n      0x00\n      dup1\n      revert\n    tag_48:\n      pop\n      gas\n      staticcall\n      iszero\n      dup1\n      iszero\n      tag_50\n      jumpi\n      returndatasize\n      0x00\n      dup1\n      returndatacopy\n      revert(0x00, returndatasize)\n    tag_50:\n      pop\n      pop\n      pop\n      pop\n      mload(0x40)\n      returndatasize\n      not(0x1f)\n      0x1f\n      dup3\n      add\n      and\n      dup3\n      add\n      dup1\n      0x40\n      mstore\n      pop\n      dup2\n      add\n      swap1\n      tag_51\n      swap2\n      swap1\n      tag_52\n      jump\t// in\n    tag_51:\n        /* \"contracts/FundMe.sol\":1125:1151  return priceFeed.version() */\n      swap2\n      pop\n      pop\n        /* \"contracts/FundMe.sol\":980:1159  function getVer() public view returns(uint) {\r... */\n      swap1\n      jump\t// out\n        /* \"contracts/FundMe.sol\":596:616  address public owner */\n    tag_25:\n      0x01\n      0x00\n      swap1\n      sload\n      swap1\n      0x0100\n      exp\n      swap1\n      div\n      0xffffffffffffffffffffffffffffffffffffffff\n      and\n      dup2\n      jump\t// out\n        /* \"contracts/FundMe.sol\":1167:1401  function getPrice() public view returns(uint) {\r... */\n    tag_30:\n        /* \"contracts/FundMe.sol\":1207:1211  uint */\n      0x00\n        /* \"contracts/FundMe.sol\":1224:1255  AggregatorV3Interface priceFeed */\n      dup1\n        /* \"contracts/FundMe.sol\":1280:1302  GOERLI_TESTNET_ETH_USD */\n      0x00\n      dup1\n      sload\n      swap1\n      0x0100\n      exp\n      swap1\n      div\n      0xffffffffffffffffffffffffffffffffffffffff\n      and\n        /* \"contracts/FundMe.sol\":1224:1303  AggregatorV3Interface priceFeed = AggregatorV3Interface(GOERLI_TESTNET_ETH_USD) */\n      swap1\n      pop\n        /* \"contracts/FundMe.sol\":1316:1329  int256 answer */\n      0x00\n        /* \"contracts/FundMe.sol\":1336:1345  priceFeed */\n      dup2\n        /* \"contracts/FundMe.sol\":1336:1361  priceFeed.latestRoundData */\n      0xffffffffffffffffffffffffffffffffffffffff\n      and\n      0xfeaf968c\n        /* \"contracts/FundMe.sol\":1336:1363  priceFeed.latestRoundData() */\n      mload(0x40)\n      dup2\n      0xffffffff\n      and\n      0xe0\n      shl\n      dup2\n      mstore\n      0x04\n      add\n      0xa0\n      mload(0x40)\n      dup1\n      dup4\n      sub\n      dup2\n      dup7\n      dup1\n      extcodesize\n      iszero\n      dup1\n      iszero\n      tag_54\n      jumpi\n      0x00\n      dup1\n      revert\n    tag_54:\n      pop\n      gas\n      staticcall\n      iszero\n      dup1\n      iszero\n      tag_56\n      jumpi\n      returndatasize\n      0x00\n      dup1\n      returndatacopy\n      revert(0x00, returndatasize)\n    tag_56:\n      pop\n      pop\n      pop\n      pop\n      mload(0x40)\n      returndatasize\n      not(0x1f)\n      0x1f\n      dup3\n      add\n      and\n      dup3\n      add\n      dup1\n      0x40\n      mstore\n      pop\n      dup2\n      add\n      swap1\n      tag_57\n      swap2\n      swap1\n      tag_58\n      jump\t// in\n    tag_57:\n        /* \"contracts/FundMe.sol\":1314:1363  (,int256 answer,,,) = priceFeed.latestRoundData() */\n      pop\n      pop\n      pop\n      swap2\n      pop\n      pop\n        /* \"contracts/FundMe.sol\":1386:1392  answer */\n      dup1\n        /* \"contracts/FundMe.sol\":1374:1393  return uint(answer) */\n      swap3\n      pop\n      pop\n      pop\n        /* \"contracts/FundMe.sol\":1167:1401  function getPrice() public view returns(uint) {\r... */\n      swap1\n      jump\t// out\n        /* \"contracts/FundMe.sol\":1409:1600  function getConvRate(uint ethAmt) public view returns(uint) {\r... */\n    tag_36:\n        /* \"contracts/FundMe.sol\":1463:1467  uint */\n      0x00\n        /* \"contracts/FundMe.sol\":1480:1493  uint ethPrice */\n      dup1\n        /* \"contracts/FundMe.sol\":1496:1506  getPrice() */\n      tag_60\n        /* \"contracts/FundMe.sol\":1496:1504  getPrice */\n      tag_30\n        /* \"contracts/FundMe.sol\":1496:1506  getPrice() */\n      jump\t// in\n    tag_60:\n        /* \"contracts/FundMe.sol\":1480:1506  uint ethPrice = getPrice() */\n      swap1\n      pop\n        /* \"contracts/FundMe.sol\":1517:1533  uint ethAmtInUsd */\n      0x00\n        /* \"contracts/FundMe.sol\":1558:1563  10**8 */\n      0x05f5e100\n        /* \"contracts/FundMe.sol\":1548:1554  ethAmt */\n      dup5\n        /* \"contracts/FundMe.sol\":1537:1545  ethPrice */\n      dup4\n        /* \"contracts/FundMe.sol\":1537:1554  ethPrice * ethAmt */\n      tag_61\n      swap2\n      swap1\n      tag_62\n      jump\t// in\n    tag_61:\n        /* \"contracts/FundMe.sol\":1536:1563  (ethPrice * ethAmt) / 10**8 */\n      tag_63\n      swap2\n      swap1\n      tag_64\n      jump\t// in\n    tag_63:\n        /* \"contracts/FundMe.sol\":1517:1563  uint ethAmtInUsd = (ethPrice * ethAmt) / 10**8 */\n      swap1\n      pop\n        /* \"contracts/FundMe.sol\":1581:1592  ethAmtInUsd */\n      dup1\n        /* \"contracts/FundMe.sol\":1574:1592  return ethAmtInUsd */\n      swap3\n      pop\n      pop\n      pop\n        /* \"contracts/FundMe.sol\":1409:1600  function getConvRate(uint ethAmt) public view returns(uint) {\r... */\n      swap2\n      swap1\n      pop\n      jump\t// out\n        /* \"contracts/FundMe.sol\":738:972  function fund() public payable {\r... */\n    tag_39:\n        /* \"contracts/FundMe.sol\":798:811  uint minimUSD */\n      0x00\n        /* \"contracts/FundMe.sol\":814:823  1 * 10**8 */\n      0x05f5e100\n        /* \"contracts/FundMe.sol\":798:823  uint minimUSD = 1 * 10**8 */\n      swap1\n      pop\n        /* \"contracts/FundMe.sol\":868:876  minimUSD */\n      dup1\n        /* \"contracts/FundMe.sol\":842:864  getConvRate(msg.value) */\n      tag_66\n        /* \"contracts/FundMe.sol\":854:863  msg.value */\n      callvalue\n        /* \"contracts/FundMe.sol\":842:853  getConvRate */\n      tag_36\n        /* \"contracts/FundMe.sol\":842:864  getConvRate(msg.value) */\n      jump\t// in\n    tag_66:\n        /* \"contracts/FundMe.sol\":842:876  getConvRate(msg.value) >= minimUSD */\n      lt\n      iszero\n        /* \"contracts/FundMe.sol\":834:913  require(getConvRate(msg.value) >= minimUSD, \"Minimum spending allowed is US$1\") */\n      tag_67\n      jumpi\n      mload(0x40)\n      0x08c379a000000000000000000000000000000000000000000000000000000000\n      dup2\n      mstore\n      0x04\n      add\n      tag_68\n      swap1\n      tag_69\n      jump\t// in\n    tag_68:\n      mload(0x40)\n      dup1\n      swap2\n      sub\n      swap1\n      revert\n    tag_67:\n        /* \"contracts/FundMe.sol\":955:964  msg.value */\n      callvalue\n        /* \"contracts/FundMe.sol\":924:939  addrToAmtFunded */\n      0x02\n        /* \"contracts/FundMe.sol\":924:951  addrToAmtFunded[msg.sender] */\n      0x00\n        /* \"contracts/FundMe.sol\":940:950  msg.sender */\n      caller\n        /* \"contracts/FundMe.sol\":924:951  addrToAmtFunded[msg.sender] */\n      0xffffffffffffffffffffffffffffffffffffffff\n      and\n      0xffffffffffffffffffffffffffffffffffffffff\n      and\n      dup2\n      mstore\n      0x20\n      add\n      swap1\n      dup2\n      mstore\n      0x20\n      add\n      0x00\n      keccak256\n      0x00\n        /* \"contracts/FundMe.sol\":924:964  addrToAmtFunded[msg.sender] += msg.value */\n      dup3\n      dup3\n      sload\n      tag_70\n      swap2\n      swap1\n      tag_71\n      jump\t// in\n    tag_70:\n      swap3\n      pop\n      pop\n      dup2\n      swap1\n      sstore\n      pop\n        /* \"contracts/FundMe.sol\":738:972  function fund() public payable {\r... */\n      pop\n      jump\t// out\n        /* \"#utility.yul\":7:146   */\n    tag_73:\n      0x00\n        /* \"#utility.yul\":91:97   */\n      dup2\n        /* \"#utility.yul\":78:98   */\n      calldataload\n        /* \"#utility.yul\":69:98   */\n      swap1\n      pop\n        /* \"#utility.yul\":107:140   */\n      tag_75\n        /* \"#utility.yul\":134:139   */\n      dup2\n        /* \"#utility.yul\":107:140   */\n      tag_76\n      jump\t// in\n    tag_75:\n        /* \"#utility.yul\":59:146   */\n      swap3\n      swap2\n      pop\n      pop\n      jump\t// out\n        /* \"#utility.yul\":152:293   */\n    tag_77:\n      0x00\n        /* \"#utility.yul\":239:245   */\n      dup2\n        /* \"#utility.yul\":233:246   */\n      mload\n        /* \"#utility.yul\":224:246   */\n      swap1\n      pop\n        /* \"#utility.yul\":255:287   */\n      tag_79\n        /* \"#utility.yul\":281:286   */\n      dup2\n        /* \"#utility.yul\":255:287   */\n      tag_80\n      jump\t// in\n    tag_79:\n        /* \"#utility.yul\":214:293   */\n      swap3\n      swap2\n      pop\n      pop\n      jump\t// out\n        /* \"#utility.yul\":299:438   */\n    tag_81:\n      0x00\n        /* \"#utility.yul\":383:389   */\n      dup2\n        /* \"#utility.yul\":370:390   */\n      calldataload\n        /* \"#utility.yul\":361:390   */\n      swap1\n      pop\n        /* \"#utility.yul\":399:432   */\n      tag_83\n        /* \"#utility.yul\":426:431   */\n      dup2\n        /* \"#utility.yul\":399:432   */\n      tag_84\n      jump\t// in\n    tag_83:\n        /* \"#utility.yul\":351:438   */\n      swap3\n      swap2\n      pop\n      pop\n      jump\t// out\n        /* \"#utility.yul\":444:587   */\n    tag_85:\n      0x00\n        /* \"#utility.yul\":532:538   */\n      dup2\n        /* \"#utility.yul\":526:539   */\n      mload\n        /* \"#utility.yul\":517:539   */\n      swap1\n      pop\n        /* \"#utility.yul\":548:581   */\n      tag_87\n        /* \"#utility.yul\":575:580   */\n      dup2\n        /* \"#utility.yul\":548:581   */\n      tag_84\n      jump\t// in\n    tag_87:\n        /* \"#utility.yul\":507:587   */\n      swap3\n      swap2\n      pop\n      pop\n      jump\t// out\n        /* \"#utility.yul\":593:734   */\n    tag_88:\n      0x00\n        /* \"#utility.yul\":680:686   */\n      dup2\n        /* \"#utility.yul\":674:687   */\n      mload\n        /* \"#utility.yul\":665:687   */\n      swap1\n      pop\n        /* \"#utility.yul\":696:728   */\n      tag_90\n        /* \"#utility.yul\":722:727   */\n      dup2\n        /* \"#utility.yul\":696:728   */\n      tag_91\n      jump\t// in\n    tag_90:\n        /* \"#utility.yul\":655:734   */\n      swap3\n      swap2\n      pop\n      pop\n      jump\t// out\n        /* \"#utility.yul\":740:1002   */\n    tag_13:\n      0x00\n        /* \"#utility.yul\":848:850   */\n      0x20\n        /* \"#utility.yul\":836:845   */\n      dup3\n        /* \"#utility.yul\":827:834   */\n      dup5\n        /* \"#utility.yul\":823:846   */\n      sub\n        /* \"#utility.yul\":819:851   */\n      slt\n        /* \"#utility.yul\":816:818   */\n      iszero\n      tag_93\n      jumpi\n        /* \"#utility.yul\":864:865   */\n      0x00\n        /* \"#utility.yul\":861:862   */\n      dup1\n        /* \"#utility.yul\":854:866   */\n      revert\n        /* \"#utility.yul\":816:818   */\n    tag_93:\n        /* \"#utility.yul\":907:908   */\n      0x00\n        /* \"#utility.yul\":932:985   */\n      tag_94\n        /* \"#utility.yul\":977:984   */\n      dup5\n        /* \"#utility.yul\":968:974   */\n      dup3\n        /* \"#utility.yul\":957:966   */\n      dup6\n        /* \"#utility.yul\":953:975   */\n      add\n        /* \"#utility.yul\":932:985   */\n      tag_73\n      jump\t// in\n    tag_94:\n        /* \"#utility.yul\":922:985   */\n      swap2\n      pop\n        /* \"#utility.yul\":878:995   */\n      pop\n        /* \"#utility.yul\":806:1002   */\n      swap3\n      swap2\n      pop\n      pop\n      jump\t// out\n        /* \"#utility.yul\":1008:1270   */\n    tag_35:\n      0x00\n        /* \"#utility.yul\":1116:1118   */\n      0x20\n        /* \"#utility.yul\":1104:1113   */\n      dup3\n        /* \"#utility.yul\":1095:1102   */\n      dup5\n        /* \"#utility.yul\":1091:1114   */\n      sub\n        /* \"#utility.yul\":1087:1119   */\n      slt\n        /* \"#utility.yul\":1084:1086   */\n      iszero\n      tag_96\n      jumpi\n        /* \"#utility.yul\":1132:1133   */\n      0x00\n        /* \"#utility.yul\":1129:1130   */\n      dup1\n        /* \"#utility.yul\":1122:1134   */\n      revert\n        /* \"#utility.yul\":1084:1086   */\n    tag_96:\n        /* \"#utility.yul\":1175:1176   */\n      0x00\n        /* \"#utility.yul\":1200:1253   */\n      tag_97\n        /* \"#utility.yul\":1245:1252   */\n      dup5\n        /* \"#utility.yul\":1236:1242   */\n      dup3\n        /* \"#utility.yul\":1225:1234   */\n      dup6\n        /* \"#utility.yul\":1221:1243   */\n      add\n        /* \"#utility.yul\":1200:1253   */\n      tag_81\n      jump\t// in\n    tag_97:\n        /* \"#utility.yul\":1190:1253   */\n      swap2\n      pop\n        /* \"#utility.yul\":1146:1263   */\n      pop\n        /* \"#utility.yul\":1074:1270   */\n      swap3\n      swap2\n      pop\n      pop\n      jump\t// out\n        /* \"#utility.yul\":1276:1560   */\n    tag_52:\n      0x00\n        /* \"#utility.yul\":1395:1397   */\n      0x20\n        /* \"#utility.yul\":1383:1392   */\n      dup3\n        /* \"#utility.yul\":1374:1381   */\n      dup5\n        /* \"#utility.yul\":1370:1393   */\n      sub\n        /* \"#utility.yul\":1366:1398   */\n      slt\n        /* \"#utility.yul\":1363:1365   */\n      iszero\n      tag_99\n      jumpi\n        /* \"#utility.yul\":1411:1412   */\n      0x00\n        /* \"#utility.yul\":1408:1409   */\n      dup1\n        /* \"#utility.yul\":1401:1413   */\n      revert\n        /* \"#utility.yul\":1363:1365   */\n    tag_99:\n        /* \"#utility.yul\":1454:1455   */\n      0x00\n        /* \"#utility.yul\":1479:1543   */\n      tag_100\n        /* \"#utility.yul\":1535:1542   */\n      dup5\n        /* \"#utility.yul\":1526:1532   */\n      dup3\n        /* \"#utility.yul\":1515:1524   */\n      dup6\n        /* \"#utility.yul\":1511:1533   */\n      add\n        /* \"#utility.yul\":1479:1543   */\n      tag_85\n      jump\t// in\n    tag_100:\n        /* \"#utility.yul\":1469:1543   */\n      swap2\n      pop\n        /* \"#utility.yul\":1425:1553   */\n      pop\n        /* \"#utility.yul\":1353:1560   */\n      swap3\n      swap2\n      pop\n      pop\n      jump\t// out\n        /* \"#utility.yul\":1566:2470   */\n    tag_58:\n      0x00\n      dup1\n      0x00\n      dup1\n      0x00\n        /* \"#utility.yul\":1750:1753   */\n      0xa0\n        /* \"#utility.yul\":1738:1747   */\n      dup7\n        /* \"#utility.yul\":1729:1736   */\n      dup9\n        /* \"#utility.yul\":1725:1748   */\n      sub\n        /* \"#utility.yul\":1721:1754   */\n      slt\n        /* \"#utility.yul\":1718:1720   */\n      iszero\n      tag_102\n      jumpi\n        /* \"#utility.yul\":1767:1768   */\n      0x00\n        /* \"#utility.yul\":1764:1765   */\n      dup1\n        /* \"#utility.yul\":1757:1769   */\n      revert\n        /* \"#utility.yul\":1718:1720   */\n    tag_102:\n        /* \"#utility.yul\":1810:1811   */\n      0x00\n        /* \"#utility.yul\":1835:1898   */\n      tag_103\n        /* \"#utility.yul\":1890:1897   */\n      dup9\n        /* \"#utility.yul\":1881:1887   */\n      dup3\n        /* \"#utility.yul\":1870:1879   */\n      dup10\n        /* \"#utility.yul\":1866:1888   */\n      add\n        /* \"#utility.yul\":1835:1898   */\n      tag_88\n      jump\t// in\n    tag_103:\n        /* \"#utility.yul\":1825:1898   */\n      swap6\n      pop\n        /* \"#utility.yul\":1781:1908   */\n      pop\n        /* \"#utility.yul\":1947:1949   */\n      0x20\n        /* \"#utility.yul\":1973:2036   */\n      tag_104\n        /* \"#utility.yul\":2028:2035   */\n      dup9\n        /* \"#utility.yul\":2019:2025   */\n      dup3\n        /* \"#utility.yul\":2008:2017   */\n      dup10\n        /* \"#utility.yul\":2004:2026   */\n      add\n        /* \"#utility.yul\":1973:2036   */\n      tag_77\n      jump\t// in\n    tag_104:\n        /* \"#utility.yul\":1963:2036   */\n      swap5\n      pop\n        /* \"#utility.yul\":1918:2046   */\n      pop\n        /* \"#utility.yul\":2085:2087   */\n      0x40\n        /* \"#utility.yul\":2111:2175   */\n      tag_105\n        /* \"#utility.yul\":2167:2174   */\n      dup9\n        /* \"#utility.yul\":2158:2164   */\n      dup3\n        /* \"#utility.yul\":2147:2156   */\n      dup10\n        /* \"#utility.yul\":2143:2165   */\n      add\n        /* \"#utility.yul\":2111:2175   */\n      tag_85\n      jump\t// in\n    tag_105:\n        /* \"#utility.yul\":2101:2175   */\n      swap4\n      pop\n        /* \"#utility.yul\":2056:2185   */\n      pop\n        /* \"#utility.yul\":2224:2226   */\n      0x60\n        /* \"#utility.yul\":2250:2314   */\n      tag_106\n        /* \"#utility.yul\":2306:2313   */\n      dup9\n        /* \"#utility.yul\":2297:2303   */\n      dup3\n        /* \"#utility.yul\":2286:2295   */\n      dup10\n        /* \"#utility.yul\":2282:2304   */\n      add\n        /* \"#utility.yul\":2250:2314   */\n      tag_85\n      jump\t// in\n    tag_106:\n        /* \"#utility.yul\":2240:2314   */\n      swap3\n      pop\n        /* \"#utility.yul\":2195:2324   */\n      pop\n        /* \"#utility.yul\":2363:2366   */\n      0x80\n        /* \"#utility.yul\":2390:2453   */\n      tag_107\n        /* \"#utility.yul\":2445:2452   */\n      dup9\n        /* \"#utility.yul\":2436:2442   */\n      dup3\n        /* \"#utility.yul\":2425:2434   */\n      dup10\n        /* \"#utility.yul\":2421:2443   */\n      add\n        /* \"#utility.yul\":2390:2453   */\n      tag_88\n      jump\t// in\n    tag_107:\n        /* \"#utility.yul\":2380:2453   */\n      swap2\n      pop\n        /* \"#utility.yul\":2334:2463   */\n      pop\n        /* \"#utility.yul\":1708:2470   */\n      swap3\n      swap6\n      pop\n      swap3\n      swap6\n      swap1\n      swap4\n      pop\n      jump\t// out\n        /* \"#utility.yul\":2476:2594   */\n    tag_108:\n        /* \"#utility.yul\":2563:2587   */\n      tag_110\n        /* \"#utility.yul\":2581:2586   */\n      dup2\n        /* \"#utility.yul\":2563:2587   */\n      tag_111\n      jump\t// in\n    tag_110:\n        /* \"#utility.yul\":2558:2561   */\n      dup3\n        /* \"#utility.yul\":2551:2588   */\n      mstore\n        /* \"#utility.yul\":2541:2594   */\n      pop\n      pop\n      jump\t// out\n        /* \"#utility.yul\":2600:2930   */\n    tag_112:\n      0x00\n        /* \"#utility.yul\":2763:2830   */\n      tag_114\n        /* \"#utility.yul\":2827:2829   */\n      0x20\n        /* \"#utility.yul\":2822:2825   */\n      dup4\n        /* \"#utility.yul\":2763:2830   */\n      tag_115\n      jump\t// in\n    tag_114:\n        /* \"#utility.yul\":2756:2830   */\n      swap2\n      pop\n        /* \"#utility.yul\":2860:2894   */\n      0x4d696e696d756d207370656e64696e6720616c6c6f7765642069732055532431\n        /* \"#utility.yul\":2856:2857   */\n      0x00\n        /* \"#utility.yul\":2851:2854   */\n      dup4\n        /* \"#utility.yul\":2847:2858   */\n      add\n        /* \"#utility.yul\":2840:2895   */\n      mstore\n        /* \"#utility.yul\":2921:2923   */\n      0x20\n        /* \"#utility.yul\":2916:2919   */\n      dup3\n        /* \"#utility.yul\":2912:2924   */\n      add\n        /* \"#utility.yul\":2905:2924   */\n      swap1\n      pop\n        /* \"#utility.yul\":2746:2930   */\n      swap2\n      swap1\n      pop\n      jump\t// out\n        /* \"#utility.yul\":2936:3266   */\n    tag_116:\n      0x00\n        /* \"#utility.yul\":3099:3166   */\n      tag_118\n        /* \"#utility.yul\":3163:3165   */\n      0x20\n        /* \"#utility.yul\":3158:3161   */\n      dup4\n        /* \"#utility.yul\":3099:3166   */\n      tag_115\n      jump\t// in\n    tag_118:\n        /* \"#utility.yul\":3092:3166   */\n      swap2\n      pop\n        /* \"#utility.yul\":3196:3230   */\n      0x4f6e6c7920746865206f776e65722063616e2077697468647261772045544873\n        /* \"#utility.yul\":3192:3193   */\n      0x00\n        /* \"#utility.yul\":3187:3190   */\n      dup4\n        /* \"#utility.yul\":3183:3194   */\n      add\n        /* \"#utility.yul\":3176:3231   */\n      mstore\n        /* \"#utility.yul\":3257:3259   */\n      0x20\n        /* \"#utility.yul\":3252:3255   */\n      dup3\n        /* \"#utility.yul\":3248:3260   */\n      add\n        /* \"#utility.yul\":3241:3260   */\n      swap1\n      pop\n        /* \"#utility.yul\":3082:3266   */\n      swap2\n      swap1\n      pop\n      jump\t// out\n        /* \"#utility.yul\":3272:3390   */\n    tag_119:\n        /* \"#utility.yul\":3359:3383   */\n      tag_121\n        /* \"#utility.yul\":3377:3382   */\n      dup2\n        /* \"#utility.yul\":3359:3383   */\n      tag_122\n      jump\t// in\n    tag_121:\n        /* \"#utility.yul\":3354:3357   */\n      dup3\n        /* \"#utility.yul\":3347:3384   */\n      mstore\n        /* \"#utility.yul\":3337:3390   */\n      pop\n      pop\n      jump\t// out\n        /* \"#utility.yul\":3396:3618   */\n    tag_27:\n      0x00\n        /* \"#utility.yul\":3527:3529   */\n      0x20\n        /* \"#utility.yul\":3516:3525   */\n      dup3\n        /* \"#utility.yul\":3512:3530   */\n      add\n        /* \"#utility.yul\":3504:3530   */\n      swap1\n      pop\n        /* \"#utility.yul\":3540:3611   */\n      tag_124\n        /* \"#utility.yul\":3608:3609   */\n      0x00\n        /* \"#utility.yul\":3597:3606   */\n      dup4\n        /* \"#utility.yul\":3593:3610   */\n      add\n        /* \"#utility.yul\":3584:3590   */\n      dup5\n        /* \"#utility.yul\":3540:3611   */\n      tag_108\n      jump\t// in\n    tag_124:\n        /* \"#utility.yul\":3494:3618   */\n      swap3\n      swap2\n      pop\n      pop\n      jump\t// out\n        /* \"#utility.yul\":3624:4043   */\n    tag_69:\n      0x00\n        /* \"#utility.yul\":3828:3830   */\n      0x20\n        /* \"#utility.yul\":3817:3826   */\n      dup3\n        /* \"#utility.yul\":3813:3831   */\n      add\n        /* \"#utility.yul\":3805:3831   */\n      swap1\n      pop\n        /* \"#utility.yul\":3877:3886   */\n      dup2\n        /* \"#utility.yul\":3871:3875   */\n      dup2\n        /* \"#utility.yul\":3867:3887   */\n      sub\n        /* \"#utility.yul\":3863:3864   */\n      0x00\n        /* \"#utility.yul\":3852:3861   */\n      dup4\n        /* \"#utility.yul\":3848:3865   */\n      add\n        /* \"#utility.yul\":3841:3888   */\n      mstore\n        /* \"#utility.yul\":3905:4036   */\n      tag_126\n        /* \"#utility.yul\":4031:4035   */\n      dup2\n        /* \"#utility.yul\":3905:4036   */\n      tag_112\n      jump\t// in\n    tag_126:\n        /* \"#utility.yul\":3897:4036   */\n      swap1\n      pop\n        /* \"#utility.yul\":3795:4043   */\n      swap2\n      swap1\n      pop\n      jump\t// out\n        /* \"#utility.yul\":4049:4468   */\n    tag_43:\n      0x00\n        /* \"#utility.yul\":4253:4255   */\n      0x20\n        /* \"#utility.yul\":4242:4251   */\n      dup3\n        /* \"#utility.yul\":4238:4256   */\n      add\n        /* \"#utility.yul\":4230:4256   */\n      swap1\n      pop\n        /* \"#utility.yul\":4302:4311   */\n      dup2\n        /* \"#utility.yul\":4296:4300   */\n      dup2\n        /* \"#utility.yul\":4292:4312   */\n      sub\n        /* \"#utility.yul\":4288:4289   */\n      0x00\n        /* \"#utility.yul\":4277:4286   */\n      dup4\n        /* \"#utility.yul\":4273:4290   */\n      add\n        /* \"#utility.yul\":4266:4313   */\n      mstore\n        /* \"#utility.yul\":4330:4461   */\n      tag_128\n        /* \"#utility.yul\":4456:4460   */\n      dup2\n        /* \"#utility.yul\":4330:4461   */\n      tag_116\n      jump\t// in\n    tag_128:\n        /* \"#utility.yul\":4322:4461   */\n      swap1\n      pop\n        /* \"#utility.yul\":4220:4468   */\n      swap2\n      swap1\n      pop\n      jump\t// out\n        /* \"#utility.yul\":4474:4696   */\n    tag_16:\n      0x00\n        /* \"#utility.yul\":4605:4607   */\n      0x20\n        /* \"#utility.yul\":4594:4603   */\n      dup3\n        /* \"#utility.yul\":4590:4608   */\n      add\n        /* \"#utility.yul\":4582:4608   */\n      swap1\n      pop\n        /* \"#utility.yul\":4618:4689   */\n      tag_130\n        /* \"#utility.yul\":4686:4687   */\n      0x00\n        /* \"#utility.yul\":4675:4684   */\n      dup4\n        /* \"#utility.yul\":4671:4688   */\n      add\n        /* \"#utility.yul\":4662:4668   */\n      dup5\n        /* \"#utility.yul\":4618:4689   */\n      tag_119\n      jump\t// in\n    tag_130:\n        /* \"#utility.yul\":4572:4696   */\n      swap3\n      swap2\n      pop\n      pop\n      jump\t// out\n        /* \"#utility.yul\":4702:4871   */\n    tag_115:\n      0x00\n        /* \"#utility.yul\":4820:4826   */\n      dup3\n        /* \"#utility.yul\":4815:4818   */\n      dup3\n        /* \"#utility.yul\":4808:4827   */\n      mstore\n        /* \"#utility.yul\":4860:4864   */\n      0x20\n        /* \"#utility.yul\":4855:4858   */\n      dup3\n        /* \"#utility.yul\":4851:4865   */\n      add\n        /* \"#utility.yul\":4836:4865   */\n      swap1\n      pop\n        /* \"#utility.yul\":4798:4871   */\n      swap3\n      swap2\n      pop\n      pop\n      jump\t// out\n        /* \"#utility.yul\":4877:5182   */\n    tag_71:\n      0x00\n        /* \"#utility.yul\":4936:4956   */\n      tag_133\n        /* \"#utility.yul\":4954:4955   */\n      dup3\n        /* \"#utility.yul\":4936:4956   */\n      tag_122\n      jump\t// in\n    tag_133:\n        /* \"#utility.yul\":4931:4956   */\n      swap2\n      pop\n        /* \"#utility.yul\":4970:4990   */\n      tag_134\n        /* \"#utility.yul\":4988:4989   */\n      dup4\n        /* \"#utility.yul\":4970:4990   */\n      tag_122\n      jump\t// in\n    tag_134:\n        /* \"#utility.yul\":4965:4990   */\n      swap3\n      pop\n        /* \"#utility.yul\":5124:5125   */\n      dup3\n        /* \"#utility.yul\":5056:5122   */\n      0xffffffffffffffffffffffffffffffffffffffffffffffffffffffffffffffff\n        /* \"#utility.yul\":5052:5126   */\n      sub\n        /* \"#utility.yul\":5049:5050   */\n      dup3\n        /* \"#utility.yul\":5046:5127   */\n      gt\n        /* \"#utility.yul\":5043:5045   */\n      iszero\n      tag_135\n      jumpi\n        /* \"#utility.yul\":5130:5148   */\n      tag_136\n      tag_137\n      jump\t// in\n    tag_136:\n        /* \"#utility.yul\":5043:5045   */\n    tag_135:\n        /* \"#utility.yul\":5174:5175   */\n      dup3\n        /* \"#utility.yul\":5171:5172   */\n      dup3\n        /* \"#utility.yul\":5167:5176   */\n      add\n        /* \"#utility.yul\":5160:5176   */\n      swap1\n      pop\n        /* \"#utility.yul\":4921:5182   */\n      swap3\n      swap2\n      pop\n      pop\n      jump\t// out\n        /* \"#utility.yul\":5188:5373   */\n    tag_64:\n      0x00\n        /* \"#utility.yul\":5245:5265   */\n      tag_139\n        /* \"#utility.yul\":5263:5264   */\n      dup3\n        /* \"#utility.yul\":5245:5265   */\n      tag_122\n      jump\t// in\n    tag_139:\n        /* \"#utility.yul\":5240:5265   */\n      swap2\n      pop\n        /* \"#utility.yul\":5279:5299   */\n      tag_140\n        /* \"#utility.yul\":5297:5298   */\n      dup4\n        /* \"#utility.yul\":5279:5299   */\n      tag_122\n      jump\t// in\n    tag_140:\n        /* \"#utility.yul\":5274:5299   */\n      swap3\n      pop\n        /* \"#utility.yul\":5318:5319   */\n      dup3\n        /* \"#utility.yul\":5308:5310   */\n      tag_141\n      jumpi\n        /* \"#utility.yul\":5323:5341   */\n      tag_142\n      tag_143\n      jump\t// in\n    tag_142:\n        /* \"#utility.yul\":5308:5310   */\n    tag_141:\n        /* \"#utility.yul\":5365:5366   */\n      dup3\n        /* \"#utility.yul\":5362:5363   */\n      dup3\n        /* \"#utility.yul\":5358:5367   */\n      div\n        /* \"#utility.yul\":5353:5367   */\n      swap1\n      pop\n        /* \"#utility.yul\":5230:5373   */\n      swap3\n      swap2\n      pop\n      pop\n      jump\t// out\n        /* \"#utility.yul\":5379:5727   */\n    tag_62:\n      0x00\n        /* \"#utility.yul\":5442:5462   */\n      tag_145\n        /* \"#utility.yul\":5460:5461   */\n      dup3\n        /* \"#utility.yul\":5442:5462   */\n      tag_122\n      jump\t// in\n    tag_145:\n        /* \"#utility.yul\":5437:5462   */\n      swap2\n      pop\n        /* \"#utility.yul\":5476:5496   */\n      tag_146\n        /* \"#utility.yul\":5494:5495   */\n      dup4\n        /* \"#utility.yul\":5476:5496   */\n      tag_122\n      jump\t// in\n    tag_146:\n        /* \"#utility.yul\":5471:5496   */\n      swap3\n      pop\n        /* \"#utility.yul\":5664:5665   */\n      dup2\n        /* \"#utility.yul\":5596:5662   */\n      0xffffffffffffffffffffffffffffffffffffffffffffffffffffffffffffffff\n        /* \"#utility.yul\":5592:5666   */\n      div\n        /* \"#utility.yul\":5589:5590   */\n      dup4\n        /* \"#utility.yul\":5586:5667   */\n      gt\n        /* \"#utility.yul\":5581:5582   */\n      dup3\n        /* \"#utility.yul\":5574:5583   */\n      iszero\n        /* \"#utility.yul\":5567:5584   */\n      iszero\n        /* \"#utility.yul\":5563:5668   */\n      and\n        /* \"#utility.yul\":5560:5562   */\n      iszero\n      tag_147\n      jumpi\n        /* \"#utility.yul\":5671:5689   */\n      tag_148\n      tag_137\n      jump\t// in\n    tag_148:\n        /* \"#utility.yul\":5560:5562   */\n    tag_147:\n        /* \"#utility.yul\":5719:5720   */\n      dup3\n        /* \"#utility.yul\":5716:5717   */\n      dup3\n        /* \"#utility.yul\":5712:5721   */\n      mul\n        /* \"#utility.yul\":5701:5721   */\n      swap1\n      pop\n        /* \"#utility.yul\":5427:5727   */\n      swap3\n      swap2\n      pop\n      pop\n      jump\t// out\n        /* \"#utility.yul\":5733:5829   */\n    tag_111:\n      0x00\n        /* \"#utility.yul\":5799:5823   */\n      tag_150\n        /* \"#utility.yul\":5817:5822   */\n      dup3\n        /* \"#utility.yul\":5799:5823   */\n      tag_151\n      jump\t// in\n    tag_150:\n        /* \"#utility.yul\":5788:5823   */\n      swap1\n      pop\n        /* \"#utility.yul\":5778:5829   */\n      swap2\n      swap1\n      pop\n      jump\t// out\n        /* \"#utility.yul\":5835:5911   */\n    tag_152:\n      0x00\n        /* \"#utility.yul\":5900:5905   */\n      dup2\n        /* \"#utility.yul\":5889:5905   */\n      swap1\n      pop\n        /* \"#utility.yul\":5879:5911   */\n      swap2\n      swap1\n      pop\n      jump\t// out\n        /* \"#utility.yul\":5917:6043   */\n    tag_151:\n      0x00\n        /* \"#utility.yul\":5994:6036   */\n      0xffffffffffffffffffffffffffffffffffffffff\n        /* \"#utility.yul\":5987:5992   */\n      dup3\n        /* \"#utility.yul\":5983:6037   */\n      and\n        /* \"#utility.yul\":5972:6037   */\n      swap1\n      pop\n        /* \"#utility.yul\":5962:6043   */\n      swap2\n      swap1\n      pop\n      jump\t// out\n        /* \"#utility.yul\":6049:6126   */\n    tag_122:\n      0x00\n        /* \"#utility.yul\":6115:6120   */\n      dup2\n        /* \"#utility.yul\":6104:6120   */\n      swap1\n      pop\n        /* \"#utility.yul\":6094:6126   */\n      swap2\n      swap1\n      pop\n      jump\t// out\n        /* \"#utility.yul\":6132:6237   */\n    tag_156:\n      0x00\n        /* \"#utility.yul\":6208:6230   */\n      0xffffffffffffffffffff\n        /* \"#utility.yul\":6201:6206   */\n      dup3\n        /* \"#utility.yul\":6197:6231   */\n      and\n        /* \"#utility.yul\":6186:6231   */\n      swap1\n      pop\n        /* \"#utility.yul\":6176:6237   */\n      swap2\n      swap1\n      pop\n      jump\t// out\n        /* \"#utility.yul\":6243:6423   */\n    tag_137:\n        /* \"#utility.yul\":6291:6368   */\n      0x4e487b7100000000000000000000000000000000000000000000000000000000\n        /* \"#utility.yul\":6288:6289   */\n      0x00\n        /* \"#utility.yul\":6281:6369   */\n      mstore\n        /* \"#utility.yul\":6388:6392   */\n      0x11\n        /* \"#utility.yul\":6385:6386   */\n      0x04\n        /* \"#utility.yul\":6378:6393   */\n      mstore\n        /* \"#utility.yul\":6412:6416   */\n      0x24\n        /* \"#utility.yul\":6409:6410   */\n      0x00\n        /* \"#utility.yul\":6402:6417   */\n      revert\n        /* \"#utility.yul\":6429:6609   */\n    tag_143:\n        /* \"#utility.yul\":6477:6554   */\n      0x4e487b7100000000000000000000000000000000000000000000000000000000\n        /* \"#utility.yul\":6474:6475   */\n      0x00\n        /* \"#utility.yul\":6467:6555   */\n      mstore\n        /* \"#utility.yul\":6574:6578   */\n      0x12\n        /* \"#utility.yul\":6571:6572   */\n      0x04\n        /* \"#utility.yul\":6564:6579   */\n      mstore\n        /* \"#utility.yul\":6598:6602   */\n      0x24\n        /* \"#utility.yul\":6595:6596   */\n      0x00\n        /* \"#utility.yul\":6588:6603   */\n      revert\n        /* \"#utility.yul\":6615:6737   */\n    tag_76:\n        /* \"#utility.yul\":6688:6712   */\n      tag_161\n        /* \"#utility.yul\":6706:6711   */\n      dup2\n        /* \"#utility.yul\":6688:6712   */\n      tag_111\n      jump\t// in\n    tag_161:\n        /* \"#utility.yul\":6681:6686   */\n      dup2\n        /* \"#utility.yul\":6678:6713   */\n      eq\n        /* \"#utility.yul\":6668:6670   */\n      tag_162\n      jumpi\n        /* \"#utility.yul\":6727:6728   */\n      0x00\n        /* \"#utility.yul\":6724:6725   */\n      dup1\n        /* \"#utility.yul\":6717:6729   */\n      revert\n        /* \"#utility.yul\":6668:6670   */\n    tag_162:\n        /* \"#utility.yul\":6658:6737   */\n      pop\n      jump\t// out\n        /* \"#utility.yul\":6743:6863   */\n    tag_80:\n        /* \"#utility.yul\":6815:6838   */\n      tag_164\n        /* \"#utility.yul\":6832:6837   */\n      dup2\n        /* \"#utility.yul\":6815:6838   */\n      tag_152\n      jump\t// in\n    tag_164:\n        /* \"#utility.yul\":6808:6813   */\n      dup2\n        /* \"#utility.yul\":6805:6839   */\n      eq\n        /* \"#utility.yul\":6795:6797   */\n      tag_165\n      jumpi\n        /* \"#utility.yul\":6853:6854   */\n      0x00\n        /* \"#utility.yul\":6850:6851   */\n      dup1\n        /* \"#utility.yul\":6843:6855   */\n      revert\n        /* \"#utility.yul\":6795:6797   */\n    tag_165:\n        /* \"#utility.yul\":6785:6863   */\n      pop\n      jump\t// out\n        /* \"#utility.yul\":6869:6991   */\n    tag_84:\n        /* \"#utility.yul\":6942:6966   */\n      tag_167\n        /* \"#utility.yul\":6960:6965   */\n      dup2\n        /* \"#utility.yul\":6942:6966   */\n      tag_122\n      jump\t// in\n    tag_167:\n        /* \"#utility.yul\":6935:6940   */\n      dup2\n        /* \"#utility.yul\":6932:6967   */\n      eq\n        /* \"#utility.yul\":6922:6924   */\n      tag_168\n      jumpi\n        /* \"#utility.yul\":6981:6982   */\n      0x00\n        /* \"#utility.yul\":6978:6979   */\n      dup1\n        /* \"#utility.yul\":6971:6983   */\n      revert\n        /* \"#utility.yul\":6922:6924   */\n    tag_168:\n        /* \"#utility.yul\":6912:6991   */\n      pop\n      jump\t// out\n        /* \"#utility.yul\":6997:7117   */\n    tag_91:\n        /* \"#utility.yul\":7069:7092   */\n      tag_170\n        /* \"#utility.yul\":7086:7091   */\n      dup2\n        /* \"#utility.yul\":7069:7092   */\n      tag_156\n      jump\t// in\n    tag_170:\n        /* \"#utility.yul\":7062:7067   */\n      dup2\n        /* \"#utility.yul\":7059:7093   */\n      eq\n        /* \"#utility.yul\":7049:7051   */\n      tag_171\n      jumpi\n        /* \"#utility.yul\":7107:7108   */\n      0x00\n        /* \"#utility.yul\":7104:7105   */\n      dup1\n        /* \"#utility.yul\":7097:7109   */\n      revert\n        /* \"#utility.yul\":7049:7051   */\n    tag_171:\n        /* \"#utility.yul\":7039:7117   */\n      pop\n      jump\t// out\n\n    auxdata: 0xa264697066735822122002e14f0f373016bc283567521a31dd1850cdcfcbc5b6687eb50de581e071335564736f6c63430008000033\n}\n",
				"bytecode": {
					"linkReferences": {},
					"object": "608060405273d4a33860578de61dbabdc8bfdb98fd742fa7028e6000806101000a81548173ffffffffffffffffffffffffffffffffffffffff021916908373ffffffffffffffffffffffffffffffffffffffff16021790555034801561006457600080fd5b5033600160006101000a81548173ffffffffffffffffffffffffffffffffffffffff021916908373ffffffffffffffffffffffffffffffffffffffff160217905550610989806100b56000396000f3fe6080604052600436106100705760003560e01c80638da5cb5b1161004e5780638da5cb5b146100e757806398d5fdca14610112578063b062654f1461013d578063b60d42881461017a57610070565b80630504b2cd146100755780633ccfd60b146100b25780638793ad55146100bc575b600080fd5b34801561008157600080fd5b5061009c60048036038101906100979190610545565b610184565b6040516100a99190610730565b60405180910390f35b6100ba61019c565b005b3480156100c857600080fd5b506100d1610275565b6040516100de9190610730565b60405180910390f35b3480156100f357600080fd5b506100fc61031f565b60405161010991906106d5565b60405180910390f35b34801561011e57600080fd5b50610127610345565b6040516101349190610730565b60405180910390f35b34801561014957600080fd5b50610164600480360381019061015f919061056e565b6103f9565b6040516101719190610730565b60405180910390f35b61018261042f565b005b60026020528060005260406000206000915090505481565b600160009054906101000a900473ffffffffffffffffffffffffffffffffffffffff1673ffffffffffffffffffffffffffffffffffffffff163373ffffffffffffffffffffffffffffffffffffffff161461022c576040517f08c379a000000000000000000000000000000000000000000000000000000000815260040161022390610710565b60405180910390fd5b3373ffffffffffffffffffffffffffffffffffffffff166108fc479081150290604051600060405180830381858888f19350505050158015610272573d6000803e3d6000fd5b50565b60008060008054906101000a900473ffffffffffffffffffffffffffffffffffffffff1690508073ffffffffffffffffffffffffffffffffffffffff166354fd4d506040518163ffffffff1660e01b815260040160206040518083038186803b1580156102e157600080fd5b505afa1580156102f5573d6000803e3d6000fd5b505050506040513d601f19601f820116820180604052508101906103199190610597565b91505090565b600160009054906101000a900473ffffffffffffffffffffffffffffffffffffffff1681565b60008060008054906101000a900473ffffffffffffffffffffffffffffffffffffffff16905060008173ffffffffffffffffffffffffffffffffffffffff1663feaf968c6040518163ffffffff1660e01b815260040160a06040518083038186803b1580156103b357600080fd5b505afa1580156103c7573d6000803e3d6000fd5b505050506040513d601f19601f820116820180604052508101906103eb91906105c0565b505050915050809250505090565b600080610404610345565b905060006305f5e100848361041991906107e3565b61042391906107b2565b90508092505050919050565b60006305f5e100905080610442346103f9565b1015610483576040517f08c379a000000000000000000000000000000000000000000000000000000000815260040161047a906106f0565b60405180910390fd5b34600260003373ffffffffffffffffffffffffffffffffffffffff1673ffffffffffffffffffffffffffffffffffffffff16815260200190815260200160002060008282546104d2919061075c565b9250508190555050565b6000813590506104eb816108f7565b92915050565b6000815190506105008161090e565b92915050565b60008135905061051581610925565b92915050565b60008151905061052a81610925565b92915050565b60008151905061053f8161093c565b92915050565b60006020828403121561055757600080fd5b6000610565848285016104dc565b91505092915050565b60006020828403121561058057600080fd5b600061058e84828501610506565b91505092915050565b6000602082840312156105a957600080fd5b60006105b78482850161051b565b91505092915050565b600080600080600060a086880312156105d857600080fd5b60006105e688828901610530565b95505060206105f7888289016104f1565b94505060406106088882890161051b565b93505060606106198882890161051b565b925050608061062a88828901610530565b9150509295509295909350565b6106408161083d565b82525050565b600061065360208361074b565b91507f4d696e696d756d207370656e64696e6720616c6c6f77656420697320555324316000830152602082019050919050565b600061069360208361074b565b91507f4f6e6c7920746865206f776e65722063616e20776974686472617720455448736000830152602082019050919050565b6106cf81610879565b82525050565b60006020820190506106ea6000830184610637565b92915050565b6000602082019050818103600083015261070981610646565b9050919050565b6000602082019050818103600083015261072981610686565b9050919050565b600060208201905061074560008301846106c6565b92915050565b600082825260208201905092915050565b600061076782610879565b915061077283610879565b9250827fffffffffffffffffffffffffffffffffffffffffffffffffffffffffffffffff038211156107a7576107a6610899565b5b828201905092915050565b60006107bd82610879565b91506107c883610879565b9250826107d8576107d76108c8565b5b828204905092915050565b60006107ee82610879565b91506107f983610879565b9250817fffffffffffffffffffffffffffffffffffffffffffffffffffffffffffffffff048311821515161561083257610831610899565b5b828202905092915050565b600061084882610859565b9050919050565b6000819050919050565b600073ffffffffffffffffffffffffffffffffffffffff82169050919050565b6000819050919050565b600069ffffffffffffffffffff82169050919050565b7f4e487b7100000000000000000000000000000000000000000000000000000000600052601160045260246000fd5b7f4e487b7100000000000000000000000000000000000000000000000000000000600052601260045260246000fd5b6109008161083d565b811461090b57600080fd5b50565b6109178161084f565b811461092257600080fd5b50565b61092e81610879565b811461093957600080fd5b50565b61094581610883565b811461095057600080fd5b5056fea264697066735822122002e14f0f373016bc283567521a31dd1850cdcfcbc5b6687eb50de581e071335564736f6c63430008000033",
					"opcodes": "PUSH1 0x80 PUSH1 0x40 MSTORE PUSH20 0xD4A33860578DE61DBABDC8BFDB98FD742FA7028E PUSH1 0x0 DUP1 PUSH2 0x100 EXP DUP2 SLOAD DUP2 PUSH20 0xFFFFFFFFFFFFFFFFFFFFFFFFFFFFFFFFFFFFFFFF MUL NOT AND SWAP1 DUP4 PUSH20 0xFFFFFFFFFFFFFFFFFFFFFFFFFFFFFFFFFFFFFFFF AND MUL OR SWAP1 SSTORE POP CALLVALUE DUP1 ISZERO PUSH2 0x64 JUMPI PUSH1 0x0 DUP1 REVERT JUMPDEST POP CALLER PUSH1 0x1 PUSH1 0x0 PUSH2 0x100 EXP DUP2 SLOAD DUP2 PUSH20 0xFFFFFFFFFFFFFFFFFFFFFFFFFFFFFFFFFFFFFFFF MUL NOT AND SWAP1 DUP4 PUSH20 0xFFFFFFFFFFFFFFFFFFFFFFFFFFFFFFFFFFFFFFFF AND MUL OR SWAP1 SSTORE POP PUSH2 0x989 DUP1 PUSH2 0xB5 PUSH1 0x0 CODECOPY PUSH1 0x0 RETURN INVALID PUSH1 0x80 PUSH1 0x40 MSTORE PUSH1 0x4 CALLDATASIZE LT PUSH2 0x70 JUMPI PUSH1 0x0 CALLDATALOAD PUSH1 0xE0 SHR DUP1 PUSH4 0x8DA5CB5B GT PUSH2 0x4E JUMPI DUP1 PUSH4 0x8DA5CB5B EQ PUSH2 0xE7 JUMPI DUP1 PUSH4 0x98D5FDCA EQ PUSH2 0x112 JUMPI DUP1 PUSH4 0xB062654F EQ PUSH2 0x13D JUMPI DUP1 PUSH4 0xB60D4288 EQ PUSH2 0x17A JUMPI PUSH2 0x70 JUMP JUMPDEST DUP1 PUSH4 0x504B2CD EQ PUSH2 0x75 JUMPI DUP1 PUSH4 0x3CCFD60B EQ PUSH2 0xB2 JUMPI DUP1 PUSH4 0x8793AD55 EQ PUSH2 0xBC JUMPI JUMPDEST PUSH1 0x0 DUP1 REVERT JUMPDEST CALLVALUE DUP1 ISZERO PUSH2 0x81 JUMPI PUSH1 0x0 DUP1 REVERT JUMPDEST POP PUSH2 0x9C PUSH1 0x4 DUP1 CALLDATASIZE SUB DUP2 ADD SWAP1 PUSH2 0x97 SWAP2 SWAP1 PUSH2 0x545 JUMP JUMPDEST PUSH2 0x184 JUMP JUMPDEST PUSH1 0x40 MLOAD PUSH2 0xA9 SWAP2 SWAP1 PUSH2 0x730 JUMP JUMPDEST PUSH1 0x40 MLOAD DUP1 SWAP2 SUB SWAP1 RETURN JUMPDEST PUSH2 0xBA PUSH2 0x19C JUMP JUMPDEST STOP JUMPDEST CALLVALUE DUP1 ISZERO PUSH2 0xC8 JUMPI PUSH1 0x0 DUP1 REVERT JUMPDEST POP PUSH2 0xD1 PUSH2 0x275 JUMP JUMPDEST PUSH1 0x40 MLOAD PUSH2 0xDE SWAP2 SWAP1 PUSH2 0x730 JUMP JUMPDEST PUSH1 0x40 MLOAD DUP1 SWAP2 SUB SWAP1 RETURN JUMPDEST CALLVALUE DUP1 ISZERO PUSH2 0xF3 JUMPI PUSH1 0x0 DUP1 REVERT JUMPDEST POP PUSH2 0xFC PUSH2 0x31F JUMP JUMPDEST PUSH1 0x40 MLOAD PUSH2 0x109 SWAP2 SWAP1 PUSH2 0x6D5 JUMP JUMPDEST PUSH1 0x40 MLOAD DUP1 SWAP2 SUB SWAP1 RETURN JUMPDEST CALLVALUE DUP1 ISZERO PUSH2 0x11E JUMPI PUSH1 0x0 DUP1 REVERT JUMPDEST POP PUSH2 0x127 PUSH2 0x345 JUMP JUMPDEST PUSH1 0x40 MLOAD PUSH2 0x134 SWAP2 SWAP1 PUSH2 0x730 JUMP JUMPDEST PUSH1 0x40 MLOAD DUP1 SWAP2 SUB SWAP1 RETURN JUMPDEST CALLVALUE DUP1 ISZERO PUSH2 0x149 JUMPI PUSH1 0x0 DUP1 REVERT JUMPDEST POP PUSH2 0x164 PUSH1 0x4 DUP1 CALLDATASIZE SUB DUP2 ADD SWAP1 PUSH2 0x15F SWAP2 SWAP1 PUSH2 0x56E JUMP JUMPDEST PUSH2 0x3F9 JUMP JUMPDEST PUSH1 0x40 MLOAD PUSH2 0x171 SWAP2 SWAP1 PUSH2 0x730 JUMP JUMPDEST PUSH1 0x40 MLOAD DUP1 SWAP2 SUB SWAP1 RETURN JUMPDEST PUSH2 0x182 PUSH2 0x42F JUMP JUMPDEST STOP JUMPDEST PUSH1 0x2 PUSH1 0x20 MSTORE DUP1 PUSH1 0x0 MSTORE PUSH1 0x40 PUSH1 0x0 KECCAK256 PUSH1 0x0 SWAP2 POP SWAP1 POP SLOAD DUP2 JUMP JUMPDEST PUSH1 0x1 PUSH1 0x0 SWAP1 SLOAD SWAP1 PUSH2 0x100 EXP SWAP1 DIV PUSH20 0xFFFFFFFFFFFFFFFFFFFFFFFFFFFFFFFFFFFFFFFF AND PUSH20 0xFFFFFFFFFFFFFFFFFFFFFFFFFFFFFFFFFFFFFFFF AND CALLER PUSH20 0xFFFFFFFFFFFFFFFFFFFFFFFFFFFFFFFFFFFFFFFF AND EQ PUSH2 0x22C JUMPI PUSH1 0x40 MLOAD PUSH32 0x8C379A000000000000000000000000000000000000000000000000000000000 DUP2 MSTORE PUSH1 0x4 ADD PUSH2 0x223 SWAP1 PUSH2 0x710 JUMP JUMPDEST PUSH1 0x40 MLOAD DUP1 SWAP2 SUB SWAP1 REVERT JUMPDEST CALLER PUSH20 0xFFFFFFFFFFFFFFFFFFFFFFFFFFFFFFFFFFFFFFFF AND PUSH2 0x8FC SELFBALANCE SWAP1 DUP2 ISZERO MUL SWAP1 PUSH1 0x40 MLOAD PUSH1 0x0 PUSH1 0x40 MLOAD DUP1 DUP4 SUB DUP2 DUP6 DUP9 DUP9 CALL SWAP4 POP POP POP POP ISZERO DUP1 ISZERO PUSH2 0x272 JUMPI RETURNDATASIZE PUSH1 0x0 DUP1 RETURNDATACOPY RETURNDATASIZE PUSH1 0x0 REVERT JUMPDEST POP JUMP JUMPDEST PUSH1 0x0 DUP1 PUSH1 0x0 DUP1 SLOAD SWAP1 PUSH2 0x100 EXP SWAP1 DIV PUSH20 0xFFFFFFFFFFFFFFFFFFFFFFFFFFFFFFFFFFFFFFFF AND SWAP1 POP DUP1 PUSH20 0xFFFFFFFFFFFFFFFFFFFFFFFFFFFFFFFFFFFFFFFF AND PUSH4 0x54FD4D50 PUSH1 0x40 MLOAD DUP2 PUSH4 0xFFFFFFFF AND PUSH1 0xE0 SHL DUP2 MSTORE PUSH1 0x4 ADD PUSH1 0x20 PUSH1 0x40 MLOAD DUP1 DUP4 SUB DUP2 DUP7 DUP1 EXTCODESIZE ISZERO DUP1 ISZERO PUSH2 0x2E1 JUMPI PUSH1 0x0 DUP1 REVERT JUMPDEST POP GAS STATICCALL ISZERO DUP1 ISZERO PUSH2 0x2F5 JUMPI RETURNDATASIZE PUSH1 0x0 DUP1 RETURNDATACOPY RETURNDATASIZE PUSH1 0x0 REVERT JUMPDEST POP POP POP POP PUSH1 0x40 MLOAD RETURNDATASIZE PUSH1 0x1F NOT PUSH1 0x1F DUP3 ADD AND DUP3 ADD DUP1 PUSH1 0x40 MSTORE POP DUP2 ADD SWAP1 PUSH2 0x319 SWAP2 SWAP1 PUSH2 0x597 JUMP JUMPDEST SWAP2 POP POP SWAP1 JUMP JUMPDEST PUSH1 0x1 PUSH1 0x0 SWAP1 SLOAD SWAP1 PUSH2 0x100 EXP SWAP1 DIV PUSH20 0xFFFFFFFFFFFFFFFFFFFFFFFFFFFFFFFFFFFFFFFF AND DUP2 JUMP JUMPDEST PUSH1 0x0 DUP1 PUSH1 0x0 DUP1 SLOAD SWAP1 PUSH2 0x100 EXP SWAP1 DIV PUSH20 0xFFFFFFFFFFFFFFFFFFFFFFFFFFFFFFFFFFFFFFFF AND SWAP1 POP PUSH1 0x0 DUP2 PUSH20 0xFFFFFFFFFFFFFFFFFFFFFFFFFFFFFFFFFFFFFFFF AND PUSH4 0xFEAF968C PUSH1 0x40 MLOAD DUP2 PUSH4 0xFFFFFFFF AND PUSH1 0xE0 SHL DUP2 MSTORE PUSH1 0x4 ADD PUSH1 0xA0 PUSH1 0x40 MLOAD DUP1 DUP4 SUB DUP2 DUP7 DUP1 EXTCODESIZE ISZERO DUP1 ISZERO PUSH2 0x3B3 JUMPI PUSH1 0x0 DUP1 REVERT JUMPDEST POP GAS STATICCALL ISZERO DUP1 ISZERO PUSH2 0x3C7 JUMPI RETURNDATASIZE PUSH1 0x0 DUP1 RETURNDATACOPY RETURNDATASIZE PUSH1 0x0 REVERT JUMPDEST POP POP POP POP PUSH1 0x40 MLOAD RETURNDATASIZE PUSH1 0x1F NOT PUSH1 0x1F DUP3 ADD AND DUP3 ADD DUP1 PUSH1 0x40 MSTORE POP DUP2 ADD SWAP1 PUSH2 0x3EB SWAP2 SWAP1 PUSH2 0x5C0 JUMP JUMPDEST POP POP POP SWAP2 POP POP DUP1 SWAP3 POP POP POP SWAP1 JUMP JUMPDEST PUSH1 0x0 DUP1 PUSH2 0x404 PUSH2 0x345 JUMP JUMPDEST SWAP1 POP PUSH1 0x0 PUSH4 0x5F5E100 DUP5 DUP4 PUSH2 0x419 SWAP2 SWAP1 PUSH2 0x7E3 JUMP JUMPDEST PUSH2 0x423 SWAP2 SWAP1 PUSH2 0x7B2 JUMP JUMPDEST SWAP1 POP DUP1 SWAP3 POP POP POP SWAP2 SWAP1 POP JUMP JUMPDEST PUSH1 0x0 PUSH4 0x5F5E100 SWAP1 POP DUP1 PUSH2 0x442 CALLVALUE PUSH2 0x3F9 JUMP JUMPDEST LT ISZERO PUSH2 0x483 JUMPI PUSH1 0x40 MLOAD PUSH32 0x8C379A000000000000000000000000000000000000000000000000000000000 DUP2 MSTORE PUSH1 0x4 ADD PUSH2 0x47A SWAP1 PUSH2 0x6F0 JUMP JUMPDEST PUSH1 0x40 MLOAD DUP1 SWAP2 SUB SWAP1 REVERT JUMPDEST CALLVALUE PUSH1 0x2 PUSH1 0x0 CALLER PUSH20 0xFFFFFFFFFFFFFFFFFFFFFFFFFFFFFFFFFFFFFFFF AND PUSH20 0xFFFFFFFFFFFFFFFFFFFFFFFFFFFFFFFFFFFFFFFF AND DUP2 MSTORE PUSH1 0x20 ADD SWAP1 DUP2 MSTORE PUSH1 0x20 ADD PUSH1 0x0 KECCAK256 PUSH1 0x0 DUP3 DUP3 SLOAD PUSH2 0x4D2 SWAP2 SWAP1 PUSH2 0x75C JUMP JUMPDEST SWAP3 POP POP DUP2 SWAP1 SSTORE POP POP JUMP JUMPDEST PUSH1 0x0 DUP2 CALLDATALOAD SWAP1 POP PUSH2 0x4EB DUP2 PUSH2 0x8F7 JUMP JUMPDEST SWAP3 SWAP2 POP POP JUMP JUMPDEST PUSH1 0x0 DUP2 MLOAD SWAP1 POP PUSH2 0x500 DUP2 PUSH2 0x90E JUMP JUMPDEST SWAP3 SWAP2 POP POP JUMP JUMPDEST PUSH1 0x0 DUP2 CALLDATALOAD SWAP1 POP PUSH2 0x515 DUP2 PUSH2 0x925 JUMP JUMPDEST SWAP3 SWAP2 POP POP JUMP JUMPDEST PUSH1 0x0 DUP2 MLOAD SWAP1 POP PUSH2 0x52A DUP2 PUSH2 0x925 JUMP JUMPDEST SWAP3 SWAP2 POP POP JUMP JUMPDEST PUSH1 0x0 DUP2 MLOAD SWAP1 POP PUSH2 0x53F DUP2 PUSH2 0x93C JUMP JUMPDEST SWAP3 SWAP2 POP POP JUMP JUMPDEST PUSH1 0x0 PUSH1 0x20 DUP3 DUP5 SUB SLT ISZERO PUSH2 0x557 JUMPI PUSH1 0x0 DUP1 REVERT JUMPDEST PUSH1 0x0 PUSH2 0x565 DUP5 DUP3 DUP6 ADD PUSH2 0x4DC JUMP JUMPDEST SWAP2 POP POP SWAP3 SWAP2 POP POP JUMP JUMPDEST PUSH1 0x0 PUSH1 0x20 DUP3 DUP5 SUB SLT ISZERO PUSH2 0x580 JUMPI PUSH1 0x0 DUP1 REVERT JUMPDEST PUSH1 0x0 PUSH2 0x58E DUP5 DUP3 DUP6 ADD PUSH2 0x506 JUMP JUMPDEST SWAP2 POP POP SWAP3 SWAP2 POP POP JUMP JUMPDEST PUSH1 0x0 PUSH1 0x20 DUP3 DUP5 SUB SLT ISZERO PUSH2 0x5A9 JUMPI PUSH1 0x0 DUP1 REVERT JUMPDEST PUSH1 0x0 PUSH2 0x5B7 DUP5 DUP3 DUP6 ADD PUSH2 0x51B JUMP JUMPDEST SWAP2 POP POP SWAP3 SWAP2 POP POP JUMP JUMPDEST PUSH1 0x0 DUP1 PUSH1 0x0 DUP1 PUSH1 0x0 PUSH1 0xA0 DUP7 DUP9 SUB SLT ISZERO PUSH2 0x5D8 JUMPI PUSH1 0x0 DUP1 REVERT JUMPDEST PUSH1 0x0 PUSH2 0x5E6 DUP9 DUP3 DUP10 ADD PUSH2 0x530 JUMP JUMPDEST SWAP6 POP POP PUSH1 0x20 PUSH2 0x5F7 DUP9 DUP3 DUP10 ADD PUSH2 0x4F1 JUMP JUMPDEST SWAP5 POP POP PUSH1 0x40 PUSH2 0x608 DUP9 DUP3 DUP10 ADD PUSH2 0x51B JUMP JUMPDEST SWAP4 POP POP PUSH1 0x60 PUSH2 0x619 DUP9 DUP3 DUP10 ADD PUSH2 0x51B JUMP JUMPDEST SWAP3 POP POP PUSH1 0x80 PUSH2 0x62A DUP9 DUP3 DUP10 ADD PUSH2 0x530 JUMP JUMPDEST SWAP2 POP POP SWAP3 SWAP6 POP SWAP3 SWAP6 SWAP1 SWAP4 POP JUMP JUMPDEST PUSH2 0x640 DUP2 PUSH2 0x83D JUMP JUMPDEST DUP3 MSTORE POP POP JUMP JUMPDEST PUSH1 0x0 PUSH2 0x653 PUSH1 0x20 DUP4 PUSH2 0x74B JUMP JUMPDEST SWAP2 POP PUSH32 0x4D696E696D756D207370656E64696E6720616C6C6F7765642069732055532431 PUSH1 0x0 DUP4 ADD MSTORE PUSH1 0x20 DUP3 ADD SWAP1 POP SWAP2 SWAP1 POP JUMP JUMPDEST PUSH1 0x0 PUSH2 0x693 PUSH1 0x20 DUP4 PUSH2 0x74B JUMP JUMPDEST SWAP2 POP PUSH32 0x4F6E6C7920746865206F776E65722063616E2077697468647261772045544873 PUSH1 0x0 DUP4 ADD MSTORE PUSH1 0x20 DUP3 ADD SWAP1 POP SWAP2 SWAP1 POP JUMP JUMPDEST PUSH2 0x6CF DUP2 PUSH2 0x879 JUMP JUMPDEST DUP3 MSTORE POP POP JUMP JUMPDEST PUSH1 0x0 PUSH1 0x20 DUP3 ADD SWAP1 POP PUSH2 0x6EA PUSH1 0x0 DUP4 ADD DUP5 PUSH2 0x637 JUMP JUMPDEST SWAP3 SWAP2 POP POP JUMP JUMPDEST PUSH1 0x0 PUSH1 0x20 DUP3 ADD SWAP1 POP DUP2 DUP2 SUB PUSH1 0x0 DUP4 ADD MSTORE PUSH2 0x709 DUP2 PUSH2 0x646 JUMP JUMPDEST SWAP1 POP SWAP2 SWAP1 POP JUMP JUMPDEST PUSH1 0x0 PUSH1 0x20 DUP3 ADD SWAP1 POP DUP2 DUP2 SUB PUSH1 0x0 DUP4 ADD MSTORE PUSH2 0x729 DUP2 PUSH2 0x686 JUMP JUMPDEST SWAP1 POP SWAP2 SWAP1 POP JUMP JUMPDEST PUSH1 0x0 PUSH1 0x20 DUP3 ADD SWAP1 POP PUSH2 0x745 PUSH1 0x0 DUP4 ADD DUP5 PUSH2 0x6C6 JUMP JUMPDEST SWAP3 SWAP2 POP POP JUMP JUMPDEST PUSH1 0x0 DUP3 DUP3 MSTORE PUSH1 0x20 DUP3 ADD SWAP1 POP SWAP3 SWAP2 POP POP JUMP JUMPDEST PUSH1 0x0 PUSH2 0x767 DUP3 PUSH2 0x879 JUMP JUMPDEST SWAP2 POP PUSH2 0x772 DUP4 PUSH2 0x879 JUMP JUMPDEST SWAP3 POP DUP3 PUSH32 0xFFFFFFFFFFFFFFFFFFFFFFFFFFFFFFFFFFFFFFFFFFFFFFFFFFFFFFFFFFFFFFFF SUB DUP3 GT ISZERO PUSH2 0x7A7 JUMPI PUSH2 0x7A6 PUSH2 0x899 JUMP JUMPDEST JUMPDEST DUP3 DUP3 ADD SWAP1 POP SWAP3 SWAP2 POP POP JUMP JUMPDEST PUSH1 0x0 PUSH2 0x7BD DUP3 PUSH2 0x879 JUMP JUMPDEST SWAP2 POP PUSH2 0x7C8 DUP4 PUSH2 0x879 JUMP JUMPDEST SWAP3 POP DUP3 PUSH2 0x7D8 JUMPI PUSH2 0x7D7 PUSH2 0x8C8 JUMP JUMPDEST JUMPDEST DUP3 DUP3 DIV SWAP1 POP SWAP3 SWAP2 POP POP JUMP JUMPDEST PUSH1 0x0 PUSH2 0x7EE DUP3 PUSH2 0x879 JUMP JUMPDEST SWAP2 POP PUSH2 0x7F9 DUP4 PUSH2 0x879 JUMP JUMPDEST SWAP3 POP DUP2 PUSH32 0xFFFFFFFFFFFFFFFFFFFFFFFFFFFFFFFFFFFFFFFFFFFFFFFFFFFFFFFFFFFFFFFF DIV DUP4 GT DUP3 ISZERO ISZERO AND ISZERO PUSH2 0x832 JUMPI PUSH2 0x831 PUSH2 0x899 JUMP JUMPDEST JUMPDEST DUP3 DUP3 MUL SWAP1 POP SWAP3 SWAP2 POP POP JUMP JUMPDEST PUSH1 0x0 PUSH2 0x848 DUP3 PUSH2 0x859 JUMP JUMPDEST SWAP1 POP SWAP2 SWAP1 POP JUMP JUMPDEST PUSH1 0x0 DUP2 SWAP1 POP SWAP2 SWAP1 POP JUMP JUMPDEST PUSH1 0x0 PUSH20 0xFFFFFFFFFFFFFFFFFFFFFFFFFFFFFFFFFFFFFFFF DUP3 AND SWAP1 POP SWAP2 SWAP1 POP JUMP JUMPDEST PUSH1 0x0 DUP2 SWAP1 POP SWAP2 SWAP1 POP JUMP JUMPDEST PUSH1 0x0 PUSH10 0xFFFFFFFFFFFFFFFFFFFF DUP3 AND SWAP1 POP SWAP2 SWAP1 POP JUMP JUMPDEST PUSH32 0x4E487B7100000000000000000000000000000000000000000000000000000000 PUSH1 0x0 MSTORE PUSH1 0x11 PUSH1 0x4 MSTORE PUSH1 0x24 PUSH1 0x0 REVERT JUMPDEST PUSH32 0x4E487B7100000000000000000000000000000000000000000000000000000000 PUSH1 0x0 MSTORE PUSH1 0x12 PUSH1 0x4 MSTORE PUSH1 0x24 PUSH1 0x0 REVERT JUMPDEST PUSH2 0x900 DUP2 PUSH2 0x83D JUMP JUMPDEST DUP2 EQ PUSH2 0x90B JUMPI PUSH1 0x0 DUP1 REVERT JUMPDEST POP JUMP JUMPDEST PUSH2 0x917 DUP2 PUSH2 0x84F JUMP JUMPDEST DUP2 EQ PUSH2 0x922 JUMPI PUSH1 0x0 DUP1 REVERT JUMPDEST POP JUMP JUMPDEST PUSH2 0x92E DUP2 PUSH2 0x879 JUMP JUMPDEST DUP2 EQ PUSH2 0x939 JUMPI PUSH1 0x0 DUP1 REVERT JUMPDEST POP JUMP JUMPDEST PUSH2 0x945 DUP2 PUSH2 0x883 JUMP JUMPDEST DUP2 EQ PUSH2 0x950 JUMPI PUSH1 0x0 DUP1 REVERT JUMPDEST POP JUMP INVALID LOG2 PUSH5 0x6970667358 0x22 SLT KECCAK256 MUL 0xE1 0x4F 0xF CALLDATACOPY ADDRESS AND 0xBC 0x28 CALLDATALOAD PUSH8 0x521A31DD1850CDCF 0xCB 0xC5 0xB6 PUSH9 0x7EB50DE581E0713355 PUSH5 0x736F6C6343 STOP ADDMOD STOP STOP CALLER "
				},
				"gasEstimates": {
					"creation": {
						"codeDepositCost": "488200",
						"executionCost": "42257",
						"totalCost": "530457"
					},
					"external": {
						"addrToAmtFunded(address)": "1515",
						"fund()": "infinite",
						"getConvRate(uint256)": "infinite",
						"getPrice()": "infinite",
						"getVer()": "infinite",
						"owner()": "1214",
						"withdraw()": "infinite"
					}
				},
				"methodIdentifiers": {
					"addrToAmtFunded(address)": "0504b2cd",
					"fund()": "b60d4288",
					"getConvRate(uint256)": "b062654f",
					"getPrice()": "98d5fdca",
					"getVer()": "8793ad55",
					"owner()": "8da5cb5b",
					"withdraw()": "3ccfd60b"
				}
			},
			"storageLayout": {
				"storage": [
					{
						"astId": 51,
						"contract": "contracts/FundMe.sol:FundMe",
						"label": "GOERLI_TESTNET_ETH_USD",
						"offset": 0,
						"slot": "0",
						"type": "t_address"
					},
					{
						"astId": 53,
						"contract": "contracts/FundMe.sol:FundMe",
						"label": "owner",
						"offset": 0,
						"slot": "1",
						"type": "t_address"
					},
					{
						"astId": 57,
						"contract": "contracts/FundMe.sol:FundMe",
						"label": "addrToAmtFunded",
						"offset": 0,
						"slot": "2",
						"type": "t_mapping(t_address,t_uint256)"
					}
				],
				"types": {
					"t_address": {
						"encoding": "inplace",
						"label": "address",
						"numberOfBytes": "20"
					},
					"t_mapping(t_address,t_uint256)": {
						"encoding": "mapping",
						"key": "t_address",
						"label": "mapping(address => uint256)",
						"numberOfBytes": "32",
						"value": "t_uint256"
					},
					"t_uint256": {
						"encoding": "inplace",
						"label": "uint256",
						"numberOfBytes": "32"
					}
				}
			},
			"userdoc": {
				"kind": "user",
				"methods": {},
				"version": 1
			}
		}
	}
}