{
	"contracts/FundMe.sol": {
		"FundMe": {
			"abi": [
				{
					"inputs": [],
					"stateMutability": "nonpayable",
					"type": "constructor"
				},
				{
					"inputs": [
						{
							"internalType": "address",
							"name": "",
							"type": "address"
						}
					],
					"name": "addrToAmtFunded",
					"outputs": [
						{
							"internalType": "uint256",
							"name": "",
							"type": "uint256"
						}
					],
					"stateMutability": "view",
					"type": "function"
				},
				{
					"inputs": [],
					"name": "fund",
					"outputs": [],
					"stateMutability": "payable",
					"type": "function"
				},
				{
					"inputs": [
						{
							"internalType": "uint256",
							"name": "ethAmt",
							"type": "uint256"
						}
					],
					"name": "getConvRate",
					"outputs": [
						{
							"internalType": "uint256",
							"name": "",
							"type": "uint256"
						}
					],
					"stateMutability": "view",
					"type": "function"
				},
				{
					"inputs": [],
					"name": "getPrice",
					"outputs": [
						{
							"internalType": "uint256",
							"name": "",
							"type": "uint256"
						}
					],
					"stateMutability": "view",
					"type": "function"
				},
				{
					"inputs": [],
					"name": "getVer",
					"outputs": [
						{
							"internalType": "uint256",
							"name": "",
							"type": "uint256"
						}
					],
					"stateMutability": "view",
					"type": "function"
				},
				{
					"inputs": [],
					"name": "owner",
					"outputs": [
						{
							"internalType": "address",
							"name": "",
							"type": "address"
						}
					],
					"stateMutability": "view",
					"type": "function"
				},
				{
					"inputs": [],
					"name": "withdraw",
					"outputs": [],
					"stateMutability": "payable",
					"type": "function"
				}
			],
			"devdoc": {
				"kind": "dev",
				"methods": {},
				"version": 1
			},
			"evm": {
				"assembly": "    /* \"contracts/FundMe.sol\":491:1764  contract FundMe {\r... */\n  mstore(0x40, 0x80)\n    /* \"contracts/FundMe.sol\":547:589  0xD4a33860578De61DBAbDc8BFdb98FD742fA7028e */\n  0xd4a33860578de61dbabdc8bfdb98fd742fa7028e\n    /* \"contracts/FundMe.sol\":514:589  address GOERLI_TESTNET_ETH_USD = 0xD4a33860578De61DBAbDc8BFdb98FD742fA7028e */\n  0x00\n  dup1\n  0x0100\n  exp\n  dup2\n  sload\n  dup2\n  0xffffffffffffffffffffffffffffffffffffffff\n  mul\n  not\n  and\n  swap1\n  dup4\n  0xffffffffffffffffffffffffffffffffffffffff\n  and\n  mul\n  or\n  swap1\n  sstore\n  pop\n    /* \"contracts/FundMe.sol\":679:737  constructor() public {\r... */\n  callvalue\n  dup1\n  iszero\n  tag_1\n  jumpi\n  0x00\n  dup1\n  revert\ntag_1:\n  pop\n    /* \"contracts/FundMe.sol\":719:729  msg.sender */\n  caller\n    /* \"contracts/FundMe.sol\":711:716  owner */\n  0x01\n  0x00\n    /* \"contracts/FundMe.sol\":711:729  owner = msg.sender */\n  0x0100\n  exp\n  dup2\n  sload\n  dup2\n  0xffffffffffffffffffffffffffffffffffffffff\n  mul\n  not\n  and\n  swap1\n  dup4\n  0xffffffffffffffffffffffffffffffffffffffff\n  and\n  mul\n  or\n  swap1\n  sstore\n  pop\n    /* \"contracts/FundMe.sol\":491:1764  contract FundMe {\r... */\n  dataSize(sub_0)\n  dup1\n  dataOffset(sub_0)\n  0x00\n  codecopy\n  0x00\n  return\nstop\n\nsub_0: assembly {\n        /* \"contracts/FundMe.sol\":491:1764  contract FundMe {\r... */\n      mstore(0x40, 0x80)\n      jumpi(tag_1, lt(calldatasize, 0x04))\n      shr(0xe0, calldataload(0x00))\n      dup1\n      0x8da5cb5b\n      gt\n      tag_9\n      jumpi\n      dup1\n      0x8da5cb5b\n      eq\n      tag_5\n      jumpi\n      dup1\n      0x98d5fdca\n      eq\n      tag_6\n      jumpi\n      dup1\n      0xb062654f\n      eq\n      tag_7\n      jumpi\n      dup1\n      0xb60d4288\n      eq\n      tag_8\n      jumpi\n      jump(tag_1)\n    tag_9:\n      dup1\n      0x0504b2cd\n      eq\n      tag_2\n      jumpi\n      dup1\n      0x3ccfd60b\n      eq\n      tag_3\n      jumpi\n      dup1\n      0x8793ad55\n      eq\n      tag_4\n      jumpi\n    tag_1:\n      0x00\n      dup1\n      revert\n        /* \"contracts/FundMe.sol\":623:670  mapping(address => uint) public addrToAmtFunded */\n    tag_2:\n      callvalue\n      dup1\n      iszero\n      tag_10\n      jumpi\n      0x00\n      dup1\n      revert\n    tag_10:\n      pop\n      tag_11\n      0x04\n      dup1\n      calldatasize\n      sub\n      dup2\n      add\n      swap1\n      tag_12\n      swap2\n      swap1\n      tag_13\n      jump\t// in\n    tag_12:\n      tag_14\n      jump\t// in\n    tag_11:\n      mload(0x40)\n      tag_15\n      swap2\n      swap1\n      tag_16\n      jump\t// in\n    tag_15:\n      mload(0x40)\n      dup1\n      swap2\n      sub\n      swap1\n      return\n        /* \"contracts/FundMe.sol\":1615:1759  function withdraw() payable public {\r... */\n    tag_3:\n      tag_17\n      tag_18\n      jump\t// in\n    tag_17:\n      stop\n        /* \"contracts/FundMe.sol\":987:1166  function getVer() public view returns(uint) {\r... */\n    tag_4:\n      callvalue\n      dup1\n      iszero\n      tag_19\n      jumpi\n      0x00\n      dup1\n      revert\n    tag_19:\n      pop\n      tag_20\n      tag_21\n      jump\t// in\n    tag_20:\n      mload(0x40)\n      tag_22\n      swap2\n      swap1\n      tag_16\n      jump\t// in\n    tag_22:\n      mload(0x40)\n      dup1\n      swap2\n      sub\n      swap1\n      return\n        /* \"contracts/FundMe.sol\":596:616  address public owner */\n    tag_5:\n      callvalue\n      dup1\n      iszero\n      tag_23\n      jumpi\n      0x00\n      dup1\n      revert\n    tag_23:\n      pop\n      tag_24\n      tag_25\n      jump\t// in\n    tag_24:\n      mload(0x40)\n      tag_26\n      swap2\n      swap1\n      tag_27\n      jump\t// in\n    tag_26:\n      mload(0x40)\n      dup1\n      swap2\n      sub\n      swap1\n      return\n        /* \"contracts/FundMe.sol\":1174:1408  function getPrice() public view returns(uint) {\r... */\n    tag_6:\n      callvalue\n      dup1\n      iszero\n      tag_28\n      jumpi\n      0x00\n      dup1\n      revert\n    tag_28:\n      pop\n      tag_29\n      tag_30\n      jump\t// in\n    tag_29:\n      mload(0x40)\n      tag_31\n      swap2\n      swap1\n      tag_16\n      jump\t// in\n    tag_31:\n      mload(0x40)\n      dup1\n      swap2\n      sub\n      swap1\n      return\n        /* \"contracts/FundMe.sol\":1416:1607  function getConvRate(uint ethAmt) public view returns(uint) {\r... */\n    tag_7:\n      callvalue\n      dup1\n      iszero\n      tag_32\n      jumpi\n      0x00\n      dup1\n      revert\n    tag_32:\n      pop\n      tag_33\n      0x04\n      dup1\n      calldatasize\n      sub\n      dup2\n      add\n      swap1\n      tag_34\n      swap2\n      swap1\n      tag_35\n      jump\t// in\n    tag_34:\n      tag_36\n      jump\t// in\n    tag_33:\n      mload(0x40)\n      tag_37\n      swap2\n      swap1\n      tag_16\n      jump\t// in\n    tag_37:\n      mload(0x40)\n      dup1\n      swap2\n      sub\n      swap1\n      return\n        /* \"contracts/FundMe.sol\":745:979  function fund() public payable {\r... */\n    tag_8:\n      tag_38\n      tag_39\n      jump\t// in\n    tag_38:\n      stop\n        /* \"contracts/FundMe.sol\":623:670  mapping(address => uint) public addrToAmtFunded */\n    tag_14:\n      mstore(0x20, 0x02)\n      dup1\n      0x00\n      mstore\n      keccak256(0x00, 0x40)\n      0x00\n      swap2\n      pop\n      swap1\n      pop\n      sload\n      dup2\n      jump\t// out\n        /* \"contracts/FundMe.sol\":1615:1759  function withdraw() payable public {\r... */\n    tag_18:\n        /* \"contracts/FundMe.sol\":1683:1688  owner */\n      0x01\n      0x00\n      swap1\n      sload\n      swap1\n      0x0100\n      exp\n      swap1\n      div\n      0xffffffffffffffffffffffffffffffffffffffff\n      and\n        /* \"contracts/FundMe.sol\":1669:1688  msg.sender == owner */\n      0xffffffffffffffffffffffffffffffffffffffff\n      and\n        /* \"contracts/FundMe.sol\":1669:1679  msg.sender */\n      caller\n        /* \"contracts/FundMe.sol\":1669:1688  msg.sender == owner */\n      0xffffffffffffffffffffffffffffffffffffffff\n      and\n      eq\n        /* \"contracts/FundMe.sol\":1661:1689  require(msg.sender == owner) */\n      tag_41\n      jumpi\n      0x00\n      dup1\n      revert\n    tag_41:\n        /* \"contracts/FundMe.sol\":1708:1718  msg.sender */\n      caller\n        /* \"contracts/FundMe.sol\":1700:1728  payable(msg.sender).transfer */\n      0xffffffffffffffffffffffffffffffffffffffff\n      and\n        /* \"contracts/FundMe.sol\":1700:1751  payable(msg.sender).transfer(address(this).balance) */\n      0x08fc\n        /* \"contracts/FundMe.sol\":1729:1750  address(this).balance */\n      selfbalance\n        /* \"contracts/FundMe.sol\":1700:1751  payable(msg.sender).transfer(address(this).balance) */\n      swap1\n      dup2\n      iszero\n      mul\n      swap1\n      mload(0x40)\n      0x00\n      mload(0x40)\n      dup1\n      dup4\n      sub\n      dup2\n      dup6\n      dup9\n      dup9\n      call\n      swap4\n      pop\n      pop\n      pop\n      pop\n      iszero\n      dup1\n      iszero\n      tag_43\n      jumpi\n      returndatasize\n      0x00\n      dup1\n      returndatacopy\n      revert(0x00, returndatasize)\n    tag_43:\n      pop\n        /* \"contracts/FundMe.sol\":1615:1759  function withdraw() payable public {\r... */\n      jump\t// out\n        /* \"contracts/FundMe.sol\":987:1166  function getVer() public view returns(uint) {\r... */\n    tag_21:\n        /* \"contracts/FundMe.sol\":1025:1029  uint */\n      0x00\n        /* \"contracts/FundMe.sol\":1042:1073  AggregatorV3Interface priceFeed */\n      dup1\n        /* \"contracts/FundMe.sol\":1098:1120  GOERLI_TESTNET_ETH_USD */\n      0x00\n      dup1\n      sload\n      swap1\n      0x0100\n      exp\n      swap1\n      div\n      0xffffffffffffffffffffffffffffffffffffffff\n      and\n        /* \"contracts/FundMe.sol\":1042:1121  AggregatorV3Interface priceFeed = AggregatorV3Interface(GOERLI_TESTNET_ETH_USD) */\n      swap1\n      pop\n        /* \"contracts/FundMe.sol\":1139:1148  priceFeed */\n      dup1\n        /* \"contracts/FundMe.sol\":1139:1156  priceFeed.version */\n      0xffffffffffffffffffffffffffffffffffffffff\n      and\n      0x54fd4d50\n        /* \"contracts/FundMe.sol\":1139:1158  priceFeed.version() */\n      mload(0x40)\n      dup2\n      0xffffffff\n      and\n      0xe0\n      shl\n      dup2\n      mstore\n      0x04\n      add\n      0x20\n      mload(0x40)\n      dup1\n      dup4\n      sub\n      dup2\n      dup7\n      dup1\n      extcodesize\n      iszero\n      dup1\n      iszero\n      tag_45\n      jumpi\n      0x00\n      dup1\n      revert\n    tag_45:\n      pop\n      gas\n      staticcall\n      iszero\n      dup1\n      iszero\n      tag_47\n      jumpi\n      returndatasize\n      0x00\n      dup1\n      returndatacopy\n      revert(0x00, returndatasize)\n    tag_47:\n      pop\n      pop\n      pop\n      pop\n      mload(0x40)\n      returndatasize\n      not(0x1f)\n      0x1f\n      dup3\n      add\n      and\n      dup3\n      add\n      dup1\n      0x40\n      mstore\n      pop\n      dup2\n      add\n      swap1\n      tag_48\n      swap2\n      swap1\n      tag_49\n      jump\t// in\n    tag_48:\n        /* \"contracts/FundMe.sol\":1132:1158  return priceFeed.version() */\n      swap2\n      pop\n      pop\n        /* \"contracts/FundMe.sol\":987:1166  function getVer() public view returns(uint) {\r... */\n      swap1\n      jump\t// out\n        /* \"contracts/FundMe.sol\":596:616  address public owner */\n    tag_25:\n      0x01\n      0x00\n      swap1\n      sload\n      swap1\n      0x0100\n      exp\n      swap1\n      div\n      0xffffffffffffffffffffffffffffffffffffffff\n      and\n      dup2\n      jump\t// out\n        /* \"contracts/FundMe.sol\":1174:1408  function getPrice() public view returns(uint) {\r... */\n    tag_30:\n        /* \"contracts/FundMe.sol\":1214:1218  uint */\n      0x00\n        /* \"contracts/FundMe.sol\":1231:1262  AggregatorV3Interface priceFeed */\n      dup1\n        /* \"contracts/FundMe.sol\":1287:1309  GOERLI_TESTNET_ETH_USD */\n      0x00\n      dup1\n      sload\n      swap1\n      0x0100\n      exp\n      swap1\n      div\n      0xffffffffffffffffffffffffffffffffffffffff\n      and\n        /* \"contracts/FundMe.sol\":1231:1310  AggregatorV3Interface priceFeed = AggregatorV3Interface(GOERLI_TESTNET_ETH_USD) */\n      swap1\n      pop\n        /* \"contracts/FundMe.sol\":1323:1336  int256 answer */\n      0x00\n        /* \"contracts/FundMe.sol\":1343:1352  priceFeed */\n      dup2\n        /* \"contracts/FundMe.sol\":1343:1368  priceFeed.latestRoundData */\n      0xffffffffffffffffffffffffffffffffffffffff\n      and\n      0xfeaf968c\n        /* \"contracts/FundMe.sol\":1343:1370  priceFeed.latestRoundData() */\n      mload(0x40)\n      dup2\n      0xffffffff\n      and\n      0xe0\n      shl\n      dup2\n      mstore\n      0x04\n      add\n      0xa0\n      mload(0x40)\n      dup1\n      dup4\n      sub\n      dup2\n      dup7\n      dup1\n      extcodesize\n      iszero\n      dup1\n      iszero\n      tag_51\n      jumpi\n      0x00\n      dup1\n      revert\n    tag_51:\n      pop\n      gas\n      staticcall\n      iszero\n      dup1\n      iszero\n      tag_53\n      jumpi\n      returndatasize\n      0x00\n      dup1\n      returndatacopy\n      revert(0x00, returndatasize)\n    tag_53:\n      pop\n      pop\n      pop\n      pop\n      mload(0x40)\n      returndatasize\n      not(0x1f)\n      0x1f\n      dup3\n      add\n      and\n      dup3\n      add\n      dup1\n      0x40\n      mstore\n      pop\n      dup2\n      add\n      swap1\n      tag_54\n      swap2\n      swap1\n      tag_55\n      jump\t// in\n    tag_54:\n        /* \"contracts/FundMe.sol\":1321:1370  (,int256 answer,,,) = priceFeed.latestRoundData() */\n      pop\n      pop\n      pop\n      swap2\n      pop\n      pop\n        /* \"contracts/FundMe.sol\":1393:1399  answer */\n      dup1\n        /* \"contracts/FundMe.sol\":1381:1400  return uint(answer) */\n      swap3\n      pop\n      pop\n      pop\n        /* \"contracts/FundMe.sol\":1174:1408  function getPrice() public view returns(uint) {\r... */\n      swap1\n      jump\t// out\n        /* \"contracts/FundMe.sol\":1416:1607  function getConvRate(uint ethAmt) public view returns(uint) {\r... */\n    tag_36:\n        /* \"contracts/FundMe.sol\":1470:1474  uint */\n      0x00\n        /* \"contracts/FundMe.sol\":1487:1500  uint ethPrice */\n      dup1\n        /* \"contracts/FundMe.sol\":1503:1513  getPrice() */\n      tag_57\n        /* \"contracts/FundMe.sol\":1503:1511  getPrice */\n      tag_30\n        /* \"contracts/FundMe.sol\":1503:1513  getPrice() */\n      jump\t// in\n    tag_57:\n        /* \"contracts/FundMe.sol\":1487:1513  uint ethPrice = getPrice() */\n      swap1\n      pop\n        /* \"contracts/FundMe.sol\":1524:1540  uint ethAmtInUsd */\n      0x00\n        /* \"contracts/FundMe.sol\":1565:1570  10**8 */\n      0x05f5e100\n        /* \"contracts/FundMe.sol\":1555:1561  ethAmt */\n      dup5\n        /* \"contracts/FundMe.sol\":1544:1552  ethPrice */\n      dup4\n        /* \"contracts/FundMe.sol\":1544:1561  ethPrice * ethAmt */\n      tag_58\n      swap2\n      swap1\n      tag_59\n      jump\t// in\n    tag_58:\n        /* \"contracts/FundMe.sol\":1543:1570  (ethPrice * ethAmt) / 10**8 */\n      tag_60\n      swap2\n      swap1\n      tag_61\n      jump\t// in\n    tag_60:\n        /* \"contracts/FundMe.sol\":1524:1570  uint ethAmtInUsd = (ethPrice * ethAmt) / 10**8 */\n      swap1\n      pop\n        /* \"contracts/FundMe.sol\":1588:1599  ethAmtInUsd */\n      dup1\n        /* \"contracts/FundMe.sol\":1581:1599  return ethAmtInUsd */\n      swap3\n      pop\n      pop\n      pop\n        /* \"contracts/FundMe.sol\":1416:1607  function getConvRate(uint ethAmt) public view returns(uint) {\r... */\n      swap2\n      swap1\n      pop\n      jump\t// out\n        /* \"contracts/FundMe.sol\":745:979  function fund() public payable {\r... */\n    tag_39:\n        /* \"contracts/FundMe.sol\":805:818  uint minimUSD */\n      0x00\n        /* \"contracts/FundMe.sol\":821:830  1 * 10**8 */\n      0x05f5e100\n        /* \"contracts/FundMe.sol\":805:830  uint minimUSD = 1 * 10**8 */\n      swap1\n      pop\n        /* \"contracts/FundMe.sol\":875:883  minimUSD */\n      dup1\n        /* \"contracts/FundMe.sol\":849:871  getConvRate(msg.value) */\n      tag_63\n        /* \"contracts/FundMe.sol\":861:870  msg.value */\n      callvalue\n        /* \"contracts/FundMe.sol\":849:860  getConvRate */\n      tag_36\n        /* \"contracts/FundMe.sol\":849:871  getConvRate(msg.value) */\n      jump\t// in\n    tag_63:\n        /* \"contracts/FundMe.sol\":849:883  getConvRate(msg.value) >= minimUSD */\n      lt\n      iszero\n        /* \"contracts/FundMe.sol\":841:920  require(getConvRate(msg.value) >= minimUSD, \"Minimum spending allowed is US$1\") */\n      tag_64\n      jumpi\n      mload(0x40)\n      0x08c379a000000000000000000000000000000000000000000000000000000000\n      dup2\n      mstore\n      0x04\n      add\n      tag_65\n      swap1\n      tag_66\n      jump\t// in\n    tag_65:\n      mload(0x40)\n      dup1\n      swap2\n      sub\n      swap1\n      revert\n    tag_64:\n        /* \"contracts/FundMe.sol\":962:971  msg.value */\n      callvalue\n        /* \"contracts/FundMe.sol\":931:946  addrToAmtFunded */\n      0x02\n        /* \"contracts/FundMe.sol\":931:958  addrToAmtFunded[msg.sender] */\n      0x00\n        /* \"contracts/FundMe.sol\":947:957  msg.sender */\n      caller\n        /* \"contracts/FundMe.sol\":931:958  addrToAmtFunded[msg.sender] */\n      0xffffffffffffffffffffffffffffffffffffffff\n      and\n      0xffffffffffffffffffffffffffffffffffffffff\n      and\n      dup2\n      mstore\n      0x20\n      add\n      swap1\n      dup2\n      mstore\n      0x20\n      add\n      0x00\n      keccak256\n      0x00\n        /* \"contracts/FundMe.sol\":931:971  addrToAmtFunded[msg.sender] += msg.value */\n      dup3\n      dup3\n      sload\n      tag_67\n      swap2\n      swap1\n      tag_68\n      jump\t// in\n    tag_67:\n      swap3\n      pop\n      pop\n      dup2\n      swap1\n      sstore\n      pop\n        /* \"contracts/FundMe.sol\":745:979  function fund() public payable {\r... */\n      pop\n      jump\t// out\n        /* \"#utility.yul\":7:146   */\n    tag_70:\n      0x00\n        /* \"#utility.yul\":91:97   */\n      dup2\n        /* \"#utility.yul\":78:98   */\n      calldataload\n        /* \"#utility.yul\":69:98   */\n      swap1\n      pop\n        /* \"#utility.yul\":107:140   */\n      tag_72\n        /* \"#utility.yul\":134:139   */\n      dup2\n        /* \"#utility.yul\":107:140   */\n      tag_73\n      jump\t// in\n    tag_72:\n        /* \"#utility.yul\":59:146   */\n      swap3\n      swap2\n      pop\n      pop\n      jump\t// out\n        /* \"#utility.yul\":152:293   */\n    tag_74:\n      0x00\n        /* \"#utility.yul\":239:245   */\n      dup2\n        /* \"#utility.yul\":233:246   */\n      mload\n        /* \"#utility.yul\":224:246   */\n      swap1\n      pop\n        /* \"#utility.yul\":255:287   */\n      tag_76\n        /* \"#utility.yul\":281:286   */\n      dup2\n        /* \"#utility.yul\":255:287   */\n      tag_77\n      jump\t// in\n    tag_76:\n        /* \"#utility.yul\":214:293   */\n      swap3\n      swap2\n      pop\n      pop\n      jump\t// out\n        /* \"#utility.yul\":299:438   */\n    tag_78:\n      0x00\n        /* \"#utility.yul\":383:389   */\n      dup2\n        /* \"#utility.yul\":370:390   */\n      calldataload\n        /* \"#utility.yul\":361:390   */\n      swap1\n      pop\n        /* \"#utility.yul\":399:432   */\n      tag_80\n        /* \"#utility.yul\":426:431   */\n      dup2\n        /* \"#utility.yul\":399:432   */\n      tag_81\n      jump\t// in\n    tag_80:\n        /* \"#utility.yul\":351:438   */\n      swap3\n      swap2\n      pop\n      pop\n      jump\t// out\n        /* \"#utility.yul\":444:587   */\n    tag_82:\n      0x00\n        /* \"#utility.yul\":532:538   */\n      dup2\n        /* \"#utility.yul\":526:539   */\n      mload\n        /* \"#utility.yul\":517:539   */\n      swap1\n      pop\n        /* \"#utility.yul\":548:581   */\n      tag_84\n        /* \"#utility.yul\":575:580   */\n      dup2\n        /* \"#utility.yul\":548:581   */\n      tag_81\n      jump\t// in\n    tag_84:\n        /* \"#utility.yul\":507:587   */\n      swap3\n      swap2\n      pop\n      pop\n      jump\t// out\n        /* \"#utility.yul\":593:734   */\n    tag_85:\n      0x00\n        /* \"#utility.yul\":680:686   */\n      dup2\n        /* \"#utility.yul\":674:687   */\n      mload\n        /* \"#utility.yul\":665:687   */\n      swap1\n      pop\n        /* \"#utility.yul\":696:728   */\n      tag_87\n        /* \"#utility.yul\":722:727   */\n      dup2\n        /* \"#utility.yul\":696:728   */\n      tag_88\n      jump\t// in\n    tag_87:\n        /* \"#utility.yul\":655:734   */\n      swap3\n      swap2\n      pop\n      pop\n      jump\t// out\n        /* \"#utility.yul\":740:1002   */\n    tag_13:\n      0x00\n        /* \"#utility.yul\":848:850   */\n      0x20\n        /* \"#utility.yul\":836:845   */\n      dup3\n        /* \"#utility.yul\":827:834   */\n      dup5\n        /* \"#utility.yul\":823:846   */\n      sub\n        /* \"#utility.yul\":819:851   */\n      slt\n        /* \"#utility.yul\":816:818   */\n      iszero\n      tag_90\n      jumpi\n        /* \"#utility.yul\":864:865   */\n      0x00\n        /* \"#utility.yul\":861:862   */\n      dup1\n        /* \"#utility.yul\":854:866   */\n      revert\n        /* \"#utility.yul\":816:818   */\n    tag_90:\n        /* \"#utility.yul\":907:908   */\n      0x00\n        /* \"#utility.yul\":932:985   */\n      tag_91\n        /* \"#utility.yul\":977:984   */\n      dup5\n        /* \"#utility.yul\":968:974   */\n      dup3\n        /* \"#utility.yul\":957:966   */\n      dup6\n        /* \"#utility.yul\":953:975   */\n      add\n        /* \"#utility.yul\":932:985   */\n      tag_70\n      jump\t// in\n    tag_91:\n        /* \"#utility.yul\":922:985   */\n      swap2\n      pop\n        /* \"#utility.yul\":878:995   */\n      pop\n        /* \"#utility.yul\":806:1002   */\n      swap3\n      swap2\n      pop\n      pop\n      jump\t// out\n        /* \"#utility.yul\":1008:1270   */\n    tag_35:\n      0x00\n        /* \"#utility.yul\":1116:1118   */\n      0x20\n        /* \"#utility.yul\":1104:1113   */\n      dup3\n        /* \"#utility.yul\":1095:1102   */\n      dup5\n        /* \"#utility.yul\":1091:1114   */\n      sub\n        /* \"#utility.yul\":1087:1119   */\n      slt\n        /* \"#utility.yul\":1084:1086   */\n      iszero\n      tag_93\n      jumpi\n        /* \"#utility.yul\":1132:1133   */\n      0x00\n        /* \"#utility.yul\":1129:1130   */\n      dup1\n        /* \"#utility.yul\":1122:1134   */\n      revert\n        /* \"#utility.yul\":1084:1086   */\n    tag_93:\n        /* \"#utility.yul\":1175:1176   */\n      0x00\n        /* \"#utility.yul\":1200:1253   */\n      tag_94\n        /* \"#utility.yul\":1245:1252   */\n      dup5\n        /* \"#utility.yul\":1236:1242   */\n      dup3\n        /* \"#utility.yul\":1225:1234   */\n      dup6\n        /* \"#utility.yul\":1221:1243   */\n      add\n        /* \"#utility.yul\":1200:1253   */\n      tag_78\n      jump\t// in\n    tag_94:\n        /* \"#utility.yul\":1190:1253   */\n      swap2\n      pop\n        /* \"#utility.yul\":1146:1263   */\n      pop\n        /* \"#utility.yul\":1074:1270   */\n      swap3\n      swap2\n      pop\n      pop\n      jump\t// out\n        /* \"#utility.yul\":1276:1560   */\n    tag_49:\n      0x00\n        /* \"#utility.yul\":1395:1397   */\n      0x20\n        /* \"#utility.yul\":1383:1392   */\n      dup3\n        /* \"#utility.yul\":1374:1381   */\n      dup5\n        /* \"#utility.yul\":1370:1393   */\n      sub\n        /* \"#utility.yul\":1366:1398   */\n      slt\n        /* \"#utility.yul\":1363:1365   */\n      iszero\n      tag_96\n      jumpi\n        /* \"#utility.yul\":1411:1412   */\n      0x00\n        /* \"#utility.yul\":1408:1409   */\n      dup1\n        /* \"#utility.yul\":1401:1413   */\n      revert\n        /* \"#utility.yul\":1363:1365   */\n    tag_96:\n        /* \"#utility.yul\":1454:1455   */\n      0x00\n        /* \"#utility.yul\":1479:1543   */\n      tag_97\n        /* \"#utility.yul\":1535:1542   */\n      dup5\n        /* \"#utility.yul\":1526:1532   */\n      dup3\n        /* \"#utility.yul\":1515:1524   */\n      dup6\n        /* \"#utility.yul\":1511:1533   */\n      add\n        /* \"#utility.yul\":1479:1543   */\n      tag_82\n      jump\t// in\n    tag_97:\n        /* \"#utility.yul\":1469:1543   */\n      swap2\n      pop\n        /* \"#utility.yul\":1425:1553   */\n      pop\n        /* \"#utility.yul\":1353:1560   */\n      swap3\n      swap2\n      pop\n      pop\n      jump\t// out\n        /* \"#utility.yul\":1566:2470   */\n    tag_55:\n      0x00\n      dup1\n      0x00\n      dup1\n      0x00\n        /* \"#utility.yul\":1750:1753   */\n      0xa0\n        /* \"#utility.yul\":1738:1747   */\n      dup7\n        /* \"#utility.yul\":1729:1736   */\n      dup9\n        /* \"#utility.yul\":1725:1748   */\n      sub\n        /* \"#utility.yul\":1721:1754   */\n      slt\n        /* \"#utility.yul\":1718:1720   */\n      iszero\n      tag_99\n      jumpi\n        /* \"#utility.yul\":1767:1768   */\n      0x00\n        /* \"#utility.yul\":1764:1765   */\n      dup1\n        /* \"#utility.yul\":1757:1769   */\n      revert\n        /* \"#utility.yul\":1718:1720   */\n    tag_99:\n        /* \"#utility.yul\":1810:1811   */\n      0x00\n        /* \"#utility.yul\":1835:1898   */\n      tag_100\n        /* \"#utility.yul\":1890:1897   */\n      dup9\n        /* \"#utility.yul\":1881:1887   */\n      dup3\n        /* \"#utility.yul\":1870:1879   */\n      dup10\n        /* \"#utility.yul\":1866:1888   */\n      add\n        /* \"#utility.yul\":1835:1898   */\n      tag_85\n      jump\t// in\n    tag_100:\n        /* \"#utility.yul\":1825:1898   */\n      swap6\n      pop\n        /* \"#utility.yul\":1781:1908   */\n      pop\n        /* \"#utility.yul\":1947:1949   */\n      0x20\n        /* \"#utility.yul\":1973:2036   */\n      tag_101\n        /* \"#utility.yul\":2028:2035   */\n      dup9\n        /* \"#utility.yul\":2019:2025   */\n      dup3\n        /* \"#utility.yul\":2008:2017   */\n      dup10\n        /* \"#utility.yul\":2004:2026   */\n      add\n        /* \"#utility.yul\":1973:2036   */\n      tag_74\n      jump\t// in\n    tag_101:\n        /* \"#utility.yul\":1963:2036   */\n      swap5\n      pop\n        /* \"#utility.yul\":1918:2046   */\n      pop\n        /* \"#utility.yul\":2085:2087   */\n      0x40\n        /* \"#utility.yul\":2111:2175   */\n      tag_102\n        /* \"#utility.yul\":2167:2174   */\n      dup9\n        /* \"#utility.yul\":2158:2164   */\n      dup3\n        /* \"#utility.yul\":2147:2156   */\n      dup10\n        /* \"#utility.yul\":2143:2165   */\n      add\n        /* \"#utility.yul\":2111:2175   */\n      tag_82\n      jump\t// in\n    tag_102:\n        /* \"#utility.yul\":2101:2175   */\n      swap4\n      pop\n        /* \"#utility.yul\":2056:2185   */\n      pop\n        /* \"#utility.yul\":2224:2226   */\n      0x60\n        /* \"#utility.yul\":2250:2314   */\n      tag_103\n        /* \"#utility.yul\":2306:2313   */\n      dup9\n        /* \"#utility.yul\":2297:2303   */\n      dup3\n        /* \"#utility.yul\":2286:2295   */\n      dup10\n        /* \"#utility.yul\":2282:2304   */\n      add\n        /* \"#utility.yul\":2250:2314   */\n      tag_82\n      jump\t// in\n    tag_103:\n        /* \"#utility.yul\":2240:2314   */\n      swap3\n      pop\n        /* \"#utility.yul\":2195:2324   */\n      pop\n        /* \"#utility.yul\":2363:2366   */\n      0x80\n        /* \"#utility.yul\":2390:2453   */\n      tag_104\n        /* \"#utility.yul\":2445:2452   */\n      dup9\n        /* \"#utility.yul\":2436:2442   */\n      dup3\n        /* \"#utility.yul\":2425:2434   */\n      dup10\n        /* \"#utility.yul\":2421:2443   */\n      add\n        /* \"#utility.yul\":2390:2453   */\n      tag_85\n      jump\t// in\n    tag_104:\n        /* \"#utility.yul\":2380:2453   */\n      swap2\n      pop\n        /* \"#utility.yul\":2334:2463   */\n      pop\n        /* \"#utility.yul\":1708:2470   */\n      swap3\n      swap6\n      pop\n      swap3\n      swap6\n      swap1\n      swap4\n      pop\n      jump\t// out\n        /* \"#utility.yul\":2476:2594   */\n    tag_105:\n        /* \"#utility.yul\":2563:2587   */\n      tag_107\n        /* \"#utility.yul\":2581:2586   */\n      dup2\n        /* \"#utility.yul\":2563:2587   */\n      tag_108\n      jump\t// in\n    tag_107:\n        /* \"#utility.yul\":2558:2561   */\n      dup3\n        /* \"#utility.yul\":2551:2588   */\n      mstore\n        /* \"#utility.yul\":2541:2594   */\n      pop\n      pop\n      jump\t// out\n        /* \"#utility.yul\":2600:2930   */\n    tag_109:\n      0x00\n        /* \"#utility.yul\":2763:2830   */\n      tag_111\n        /* \"#utility.yul\":2827:2829   */\n      0x20\n        /* \"#utility.yul\":2822:2825   */\n      dup4\n        /* \"#utility.yul\":2763:2830   */\n      tag_112\n      jump\t// in\n    tag_111:\n        /* \"#utility.yul\":2756:2830   */\n      swap2\n      pop\n        /* \"#utility.yul\":2860:2894   */\n      0x4d696e696d756d207370656e64696e6720616c6c6f7765642069732055532431\n        /* \"#utility.yul\":2856:2857   */\n      0x00\n        /* \"#utility.yul\":2851:2854   */\n      dup4\n        /* \"#utility.yul\":2847:2858   */\n      add\n        /* \"#utility.yul\":2840:2895   */\n      mstore\n        /* \"#utility.yul\":2921:2923   */\n      0x20\n        /* \"#utility.yul\":2916:2919   */\n      dup3\n        /* \"#utility.yul\":2912:2924   */\n      add\n        /* \"#utility.yul\":2905:2924   */\n      swap1\n      pop\n        /* \"#utility.yul\":2746:2930   */\n      swap2\n      swap1\n      pop\n      jump\t// out\n        /* \"#utility.yul\":2936:3054   */\n    tag_113:\n        /* \"#utility.yul\":3023:3047   */\n      tag_115\n        /* \"#utility.yul\":3041:3046   */\n      dup2\n        /* \"#utility.yul\":3023:3047   */\n      tag_116\n      jump\t// in\n    tag_115:\n        /* \"#utility.yul\":3018:3021   */\n      dup3\n        /* \"#utility.yul\":3011:3048   */\n      mstore\n        /* \"#utility.yul\":3001:3054   */\n      pop\n      pop\n      jump\t// out\n        /* \"#utility.yul\":3060:3282   */\n    tag_27:\n      0x00\n        /* \"#utility.yul\":3191:3193   */\n      0x20\n        /* \"#utility.yul\":3180:3189   */\n      dup3\n        /* \"#utility.yul\":3176:3194   */\n      add\n        /* \"#utility.yul\":3168:3194   */\n      swap1\n      pop\n        /* \"#utility.yul\":3204:3275   */\n      tag_118\n        /* \"#utility.yul\":3272:3273   */\n      0x00\n        /* \"#utility.yul\":3261:3270   */\n      dup4\n        /* \"#utility.yul\":3257:3274   */\n      add\n        /* \"#utility.yul\":3248:3254   */\n      dup5\n        /* \"#utility.yul\":3204:3275   */\n      tag_105\n      jump\t// in\n    tag_118:\n        /* \"#utility.yul\":3158:3282   */\n      swap3\n      swap2\n      pop\n      pop\n      jump\t// out\n        /* \"#utility.yul\":3288:3707   */\n    tag_66:\n      0x00\n        /* \"#utility.yul\":3492:3494   */\n      0x20\n        /* \"#utility.yul\":3481:3490   */\n      dup3\n        /* \"#utility.yul\":3477:3495   */\n      add\n        /* \"#utility.yul\":3469:3495   */\n      swap1\n      pop\n        /* \"#utility.yul\":3541:3550   */\n      dup2\n        /* \"#utility.yul\":3535:3539   */\n      dup2\n        /* \"#utility.yul\":3531:3551   */\n      sub\n        /* \"#utility.yul\":3527:3528   */\n      0x00\n        /* \"#utility.yul\":3516:3525   */\n      dup4\n        /* \"#utility.yul\":3512:3529   */\n      add\n        /* \"#utility.yul\":3505:3552   */\n      mstore\n        /* \"#utility.yul\":3569:3700   */\n      tag_120\n        /* \"#utility.yul\":3695:3699   */\n      dup2\n        /* \"#utility.yul\":3569:3700   */\n      tag_109\n      jump\t// in\n    tag_120:\n        /* \"#utility.yul\":3561:3700   */\n      swap1\n      pop\n        /* \"#utility.yul\":3459:3707   */\n      swap2\n      swap1\n      pop\n      jump\t// out\n        /* \"#utility.yul\":3713:3935   */\n    tag_16:\n      0x00\n        /* \"#utility.yul\":3844:3846   */\n      0x20\n        /* \"#utility.yul\":3833:3842   */\n      dup3\n        /* \"#utility.yul\":3829:3847   */\n      add\n        /* \"#utility.yul\":3821:3847   */\n      swap1\n      pop\n        /* \"#utility.yul\":3857:3928   */\n      tag_122\n        /* \"#utility.yul\":3925:3926   */\n      0x00\n        /* \"#utility.yul\":3914:3923   */\n      dup4\n        /* \"#utility.yul\":3910:3927   */\n      add\n        /* \"#utility.yul\":3901:3907   */\n      dup5\n        /* \"#utility.yul\":3857:3928   */\n      tag_113\n      jump\t// in\n    tag_122:\n        /* \"#utility.yul\":3811:3935   */\n      swap3\n      swap2\n      pop\n      pop\n      jump\t// out\n        /* \"#utility.yul\":3941:4110   */\n    tag_112:\n      0x00\n        /* \"#utility.yul\":4059:4065   */\n      dup3\n        /* \"#utility.yul\":4054:4057   */\n      dup3\n        /* \"#utility.yul\":4047:4066   */\n      mstore\n        /* \"#utility.yul\":4099:4103   */\n      0x20\n        /* \"#utility.yul\":4094:4097   */\n      dup3\n        /* \"#utility.yul\":4090:4104   */\n      add\n        /* \"#utility.yul\":4075:4104   */\n      swap1\n      pop\n        /* \"#utility.yul\":4037:4110   */\n      swap3\n      swap2\n      pop\n      pop\n      jump\t// out\n        /* \"#utility.yul\":4116:4421   */\n    tag_68:\n      0x00\n        /* \"#utility.yul\":4175:4195   */\n      tag_125\n        /* \"#utility.yul\":4193:4194   */\n      dup3\n        /* \"#utility.yul\":4175:4195   */\n      tag_116\n      jump\t// in\n    tag_125:\n        /* \"#utility.yul\":4170:4195   */\n      swap2\n      pop\n        /* \"#utility.yul\":4209:4229   */\n      tag_126\n        /* \"#utility.yul\":4227:4228   */\n      dup4\n        /* \"#utility.yul\":4209:4229   */\n      tag_116\n      jump\t// in\n    tag_126:\n        /* \"#utility.yul\":4204:4229   */\n      swap3\n      pop\n        /* \"#utility.yul\":4363:4364   */\n      dup3\n        /* \"#utility.yul\":4295:4361   */\n      0xffffffffffffffffffffffffffffffffffffffffffffffffffffffffffffffff\n        /* \"#utility.yul\":4291:4365   */\n      sub\n        /* \"#utility.yul\":4288:4289   */\n      dup3\n        /* \"#utility.yul\":4285:4366   */\n      gt\n        /* \"#utility.yul\":4282:4284   */\n      iszero\n      tag_127\n      jumpi\n        /* \"#utility.yul\":4369:4387   */\n      tag_128\n      tag_129\n      jump\t// in\n    tag_128:\n        /* \"#utility.yul\":4282:4284   */\n    tag_127:\n        /* \"#utility.yul\":4413:4414   */\n      dup3\n        /* \"#utility.yul\":4410:4411   */\n      dup3\n        /* \"#utility.yul\":4406:4415   */\n      add\n        /* \"#utility.yul\":4399:4415   */\n      swap1\n      pop\n        /* \"#utility.yul\":4160:4421   */\n      swap3\n      swap2\n      pop\n      pop\n      jump\t// out\n        /* \"#utility.yul\":4427:4612   */\n    tag_61:\n      0x00\n        /* \"#utility.yul\":4484:4504   */\n      tag_131\n        /* \"#utility.yul\":4502:4503   */\n      dup3\n        /* \"#utility.yul\":4484:4504   */\n      tag_116\n      jump\t// in\n    tag_131:\n        /* \"#utility.yul\":4479:4504   */\n      swap2\n      pop\n        /* \"#utility.yul\":4518:4538   */\n      tag_132\n        /* \"#utility.yul\":4536:4537   */\n      dup4\n        /* \"#utility.yul\":4518:4538   */\n      tag_116\n      jump\t// in\n    tag_132:\n        /* \"#utility.yul\":4513:4538   */\n      swap3\n      pop\n        /* \"#utility.yul\":4557:4558   */\n      dup3\n        /* \"#utility.yul\":4547:4549   */\n      tag_133\n      jumpi\n        /* \"#utility.yul\":4562:4580   */\n      tag_134\n      tag_135\n      jump\t// in\n    tag_134:\n        /* \"#utility.yul\":4547:4549   */\n    tag_133:\n        /* \"#utility.yul\":4604:4605   */\n      dup3\n        /* \"#utility.yul\":4601:4602   */\n      dup3\n        /* \"#utility.yul\":4597:4606   */\n      div\n        /* \"#utility.yul\":4592:4606   */\n      swap1\n      pop\n        /* \"#utility.yul\":4469:4612   */\n      swap3\n      swap2\n      pop\n      pop\n      jump\t// out\n        /* \"#utility.yul\":4618:4966   */\n    tag_59:\n      0x00\n        /* \"#utility.yul\":4681:4701   */\n      tag_137\n        /* \"#utility.yul\":4699:4700   */\n      dup3\n        /* \"#utility.yul\":4681:4701   */\n      tag_116\n      jump\t// in\n    tag_137:\n        /* \"#utility.yul\":4676:4701   */\n      swap2\n      pop\n        /* \"#utility.yul\":4715:4735   */\n      tag_138\n        /* \"#utility.yul\":4733:4734   */\n      dup4\n        /* \"#utility.yul\":4715:4735   */\n      tag_116\n      jump\t// in\n    tag_138:\n        /* \"#utility.yul\":4710:4735   */\n      swap3\n      pop\n        /* \"#utility.yul\":4903:4904   */\n      dup2\n        /* \"#utility.yul\":4835:4901   */\n      0xffffffffffffffffffffffffffffffffffffffffffffffffffffffffffffffff\n        /* \"#utility.yul\":4831:4905   */\n      div\n        /* \"#utility.yul\":4828:4829   */\n      dup4\n        /* \"#utility.yul\":4825:4906   */\n      gt\n        /* \"#utility.yul\":4820:4821   */\n      dup3\n        /* \"#utility.yul\":4813:4822   */\n      iszero\n        /* \"#utility.yul\":4806:4823   */\n      iszero\n        /* \"#utility.yul\":4802:4907   */\n      and\n        /* \"#utility.yul\":4799:4801   */\n      iszero\n      tag_139\n      jumpi\n        /* \"#utility.yul\":4910:4928   */\n      tag_140\n      tag_129\n      jump\t// in\n    tag_140:\n        /* \"#utility.yul\":4799:4801   */\n    tag_139:\n        /* \"#utility.yul\":4958:4959   */\n      dup3\n        /* \"#utility.yul\":4955:4956   */\n      dup3\n        /* \"#utility.yul\":4951:4960   */\n      mul\n        /* \"#utility.yul\":4940:4960   */\n      swap1\n      pop\n        /* \"#utility.yul\":4666:4966   */\n      swap3\n      swap2\n      pop\n      pop\n      jump\t// out\n        /* \"#utility.yul\":4972:5068   */\n    tag_108:\n      0x00\n        /* \"#utility.yul\":5038:5062   */\n      tag_142\n        /* \"#utility.yul\":5056:5061   */\n      dup3\n        /* \"#utility.yul\":5038:5062   */\n      tag_143\n      jump\t// in\n    tag_142:\n        /* \"#utility.yul\":5027:5062   */\n      swap1\n      pop\n        /* \"#utility.yul\":5017:5068   */\n      swap2\n      swap1\n      pop\n      jump\t// out\n        /* \"#utility.yul\":5074:5150   */\n    tag_144:\n      0x00\n        /* \"#utility.yul\":5139:5144   */\n      dup2\n        /* \"#utility.yul\":5128:5144   */\n      swap1\n      pop\n        /* \"#utility.yul\":5118:5150   */\n      swap2\n      swap1\n      pop\n      jump\t// out\n        /* \"#utility.yul\":5156:5282   */\n    tag_143:\n      0x00\n        /* \"#utility.yul\":5233:5275   */\n      0xffffffffffffffffffffffffffffffffffffffff\n        /* \"#utility.yul\":5226:5231   */\n      dup3\n        /* \"#utility.yul\":5222:5276   */\n      and\n        /* \"#utility.yul\":5211:5276   */\n      swap1\n      pop\n        /* \"#utility.yul\":5201:5282   */\n      swap2\n      swap1\n      pop\n      jump\t// out\n        /* \"#utility.yul\":5288:5365   */\n    tag_116:\n      0x00\n        /* \"#utility.yul\":5354:5359   */\n      dup2\n        /* \"#utility.yul\":5343:5359   */\n      swap1\n      pop\n        /* \"#utility.yul\":5333:5365   */\n      swap2\n      swap1\n      pop\n      jump\t// out\n        /* \"#utility.yul\":5371:5476   */\n    tag_148:\n      0x00\n        /* \"#utility.yul\":5447:5469   */\n      0xffffffffffffffffffff\n        /* \"#utility.yul\":5440:5445   */\n      dup3\n        /* \"#utility.yul\":5436:5470   */\n      and\n        /* \"#utility.yul\":5425:5470   */\n      swap1\n      pop\n        /* \"#utility.yul\":5415:5476   */\n      swap2\n      swap1\n      pop\n      jump\t// out\n        /* \"#utility.yul\":5482:5662   */\n    tag_129:\n        /* \"#utility.yul\":5530:5607   */\n      0x4e487b7100000000000000000000000000000000000000000000000000000000\n        /* \"#utility.yul\":5527:5528   */\n      0x00\n        /* \"#utility.yul\":5520:5608   */\n      mstore\n        /* \"#utility.yul\":5627:5631   */\n      0x11\n        /* \"#utility.yul\":5624:5625   */\n      0x04\n        /* \"#utility.yul\":5617:5632   */\n      mstore\n        /* \"#utility.yul\":5651:5655   */\n      0x24\n        /* \"#utility.yul\":5648:5649   */\n      0x00\n        /* \"#utility.yul\":5641:5656   */\n      revert\n        /* \"#utility.yul\":5668:5848   */\n    tag_135:\n        /* \"#utility.yul\":5716:5793   */\n      0x4e487b7100000000000000000000000000000000000000000000000000000000\n        /* \"#utility.yul\":5713:5714   */\n      0x00\n        /* \"#utility.yul\":5706:5794   */\n      mstore\n        /* \"#utility.yul\":5813:5817   */\n      0x12\n        /* \"#utility.yul\":5810:5811   */\n      0x04\n        /* \"#utility.yul\":5803:5818   */\n      mstore\n        /* \"#utility.yul\":5837:5841   */\n      0x24\n        /* \"#utility.yul\":5834:5835   */\n      0x00\n        /* \"#utility.yul\":5827:5842   */\n      revert\n        /* \"#utility.yul\":5854:5976   */\n    tag_73:\n        /* \"#utility.yul\":5927:5951   */\n      tag_153\n        /* \"#utility.yul\":5945:5950   */\n      dup2\n        /* \"#utility.yul\":5927:5951   */\n      tag_108\n      jump\t// in\n    tag_153:\n        /* \"#utility.yul\":5920:5925   */\n      dup2\n        /* \"#utility.yul\":5917:5952   */\n      eq\n        /* \"#utility.yul\":5907:5909   */\n      tag_154\n      jumpi\n        /* \"#utility.yul\":5966:5967   */\n      0x00\n        /* \"#utility.yul\":5963:5964   */\n      dup1\n        /* \"#utility.yul\":5956:5968   */\n      revert\n        /* \"#utility.yul\":5907:5909   */\n    tag_154:\n        /* \"#utility.yul\":5897:5976   */\n      pop\n      jump\t// out\n        /* \"#utility.yul\":5982:6102   */\n    tag_77:\n        /* \"#utility.yul\":6054:6077   */\n      tag_156\n        /* \"#utility.yul\":6071:6076   */\n      dup2\n        /* \"#utility.yul\":6054:6077   */\n      tag_144\n      jump\t// in\n    tag_156:\n        /* \"#utility.yul\":6047:6052   */\n      dup2\n        /* \"#utility.yul\":6044:6078   */\n      eq\n        /* \"#utility.yul\":6034:6036   */\n      tag_157\n      jumpi\n        /* \"#utility.yul\":6092:6093   */\n      0x00\n        /* \"#utility.yul\":6089:6090   */\n      dup1\n        /* \"#utility.yul\":6082:6094   */\n      revert\n        /* \"#utility.yul\":6034:6036   */\n    tag_157:\n        /* \"#utility.yul\":6024:6102   */\n      pop\n      jump\t// out\n        /* \"#utility.yul\":6108:6230   */\n    tag_81:\n        /* \"#utility.yul\":6181:6205   */\n      tag_159\n        /* \"#utility.yul\":6199:6204   */\n      dup2\n        /* \"#utility.yul\":6181:6205   */\n      tag_116\n      jump\t// in\n    tag_159:\n        /* \"#utility.yul\":6174:6179   */\n      dup2\n        /* \"#utility.yul\":6171:6206   */\n      eq\n        /* \"#utility.yul\":6161:6163   */\n      tag_160\n      jumpi\n        /* \"#utility.yul\":6220:6221   */\n      0x00\n        /* \"#utility.yul\":6217:6218   */\n      dup1\n        /* \"#utility.yul\":6210:6222   */\n      revert\n        /* \"#utility.yul\":6161:6163   */\n    tag_160:\n        /* \"#utility.yul\":6151:6230   */\n      pop\n      jump\t// out\n        /* \"#utility.yul\":6236:6356   */\n    tag_88:\n        /* \"#utility.yul\":6308:6331   */\n      tag_162\n        /* \"#utility.yul\":6325:6330   */\n      dup2\n        /* \"#utility.yul\":6308:6331   */\n      tag_148\n      jump\t// in\n    tag_162:\n        /* \"#utility.yul\":6301:6306   */\n      dup2\n        /* \"#utility.yul\":6298:6332   */\n      eq\n        /* \"#utility.yul\":6288:6290   */\n      tag_163\n      jumpi\n        /* \"#utility.yul\":6346:6347   */\n      0x00\n        /* \"#utility.yul\":6343:6344   */\n      dup1\n        /* \"#utility.yul\":6336:6348   */\n      revert\n        /* \"#utility.yul\":6288:6290   */\n    tag_163:\n        /* \"#utility.yul\":6278:6356   */\n      pop\n      jump\t// out\n\n    auxdata: 0xa2646970667358221220898cfbeb99b4cb10ef5dcb996a8426bd93a876b8126d9d65a6c192f0390b888564736f6c63430008000033\n}\n",
				"bytecode": {
					"linkReferences": {},
					"object": "608060405273d4a33860578de61dbabdc8bfdb98fd742fa7028e6000806101000a81548173ffffffffffffffffffffffffffffffffffffffff021916908373ffffffffffffffffffffffffffffffffffffffff16021790555034801561006457600080fd5b5033600160006101000a81548173ffffffffffffffffffffffffffffffffffffffff021916908373ffffffffffffffffffffffffffffffffffffffff1602179055506108f3806100b56000396000f3fe6080604052600436106100705760003560e01c80638da5cb5b1161004e5780638da5cb5b146100e757806398d5fdca14610112578063b062654f1461013d578063b60d42881461017a57610070565b80630504b2cd146100755780633ccfd60b146100b25780638793ad55146100bc575b600080fd5b34801561008157600080fd5b5061009c6004803603810190610097919061050f565b610184565b6040516100a9919061069a565b60405180910390f35b6100ba61019c565b005b3480156100c857600080fd5b506100d161023f565b6040516100de919061069a565b60405180910390f35b3480156100f357600080fd5b506100fc6102e9565b604051610109919061065f565b60405180910390f35b34801561011e57600080fd5b5061012761030f565b604051610134919061069a565b60405180910390f35b34801561014957600080fd5b50610164600480360381019061015f9190610538565b6103c3565b604051610171919061069a565b60405180910390f35b6101826103f9565b005b60026020528060005260406000206000915090505481565b600160009054906101000a900473ffffffffffffffffffffffffffffffffffffffff1673ffffffffffffffffffffffffffffffffffffffff163373ffffffffffffffffffffffffffffffffffffffff16146101f657600080fd5b3373ffffffffffffffffffffffffffffffffffffffff166108fc479081150290604051600060405180830381858888f1935050505015801561023c573d6000803e3d6000fd5b50565b60008060008054906101000a900473ffffffffffffffffffffffffffffffffffffffff1690508073ffffffffffffffffffffffffffffffffffffffff166354fd4d506040518163ffffffff1660e01b815260040160206040518083038186803b1580156102ab57600080fd5b505afa1580156102bf573d6000803e3d6000fd5b505050506040513d601f19601f820116820180604052508101906102e39190610561565b91505090565b600160009054906101000a900473ffffffffffffffffffffffffffffffffffffffff1681565b60008060008054906101000a900473ffffffffffffffffffffffffffffffffffffffff16905060008173ffffffffffffffffffffffffffffffffffffffff1663feaf968c6040518163ffffffff1660e01b815260040160a06040518083038186803b15801561037d57600080fd5b505afa158015610391573d6000803e3d6000fd5b505050506040513d601f19601f820116820180604052508101906103b5919061058a565b505050915050809250505090565b6000806103ce61030f565b905060006305f5e10084836103e3919061074d565b6103ed919061071c565b90508092505050919050565b60006305f5e10090508061040c346103c3565b101561044d576040517f08c379a00000000000000000000000000000000000000000000000000000000081526004016104449061067a565b60405180910390fd5b34600260003373ffffffffffffffffffffffffffffffffffffffff1673ffffffffffffffffffffffffffffffffffffffff168152602001908152602001600020600082825461049c91906106c6565b9250508190555050565b6000813590506104b581610861565b92915050565b6000815190506104ca81610878565b92915050565b6000813590506104df8161088f565b92915050565b6000815190506104f48161088f565b92915050565b600081519050610509816108a6565b92915050565b60006020828403121561052157600080fd5b600061052f848285016104a6565b91505092915050565b60006020828403121561054a57600080fd5b6000610558848285016104d0565b91505092915050565b60006020828403121561057357600080fd5b6000610581848285016104e5565b91505092915050565b600080600080600060a086880312156105a257600080fd5b60006105b0888289016104fa565b95505060206105c1888289016104bb565b94505060406105d2888289016104e5565b93505060606105e3888289016104e5565b92505060806105f4888289016104fa565b9150509295509295909350565b61060a816107a7565b82525050565b600061061d6020836106b5565b91507f4d696e696d756d207370656e64696e6720616c6c6f77656420697320555324316000830152602082019050919050565b610659816107e3565b82525050565b60006020820190506106746000830184610601565b92915050565b6000602082019050818103600083015261069381610610565b9050919050565b60006020820190506106af6000830184610650565b92915050565b600082825260208201905092915050565b60006106d1826107e3565b91506106dc836107e3565b9250827fffffffffffffffffffffffffffffffffffffffffffffffffffffffffffffffff0382111561071157610710610803565b5b828201905092915050565b6000610727826107e3565b9150610732836107e3565b92508261074257610741610832565b5b828204905092915050565b6000610758826107e3565b9150610763836107e3565b9250817fffffffffffffffffffffffffffffffffffffffffffffffffffffffffffffffff048311821515161561079c5761079b610803565b5b828202905092915050565b60006107b2826107c3565b9050919050565b6000819050919050565b600073ffffffffffffffffffffffffffffffffffffffff82169050919050565b6000819050919050565b600069ffffffffffffffffffff82169050919050565b7f4e487b7100000000000000000000000000000000000000000000000000000000600052601160045260246000fd5b7f4e487b7100000000000000000000000000000000000000000000000000000000600052601260045260246000fd5b61086a816107a7565b811461087557600080fd5b50565b610881816107b9565b811461088c57600080fd5b50565b610898816107e3565b81146108a357600080fd5b50565b6108af816107ed565b81146108ba57600080fd5b5056fea2646970667358221220898cfbeb99b4cb10ef5dcb996a8426bd93a876b8126d9d65a6c192f0390b888564736f6c63430008000033",
					"opcodes": "PUSH1 0x80 PUSH1 0x40 MSTORE PUSH20 0xD4A33860578DE61DBABDC8BFDB98FD742FA7028E PUSH1 0x0 DUP1 PUSH2 0x100 EXP DUP2 SLOAD DUP2 PUSH20 0xFFFFFFFFFFFFFFFFFFFFFFFFFFFFFFFFFFFFFFFF MUL NOT AND SWAP1 DUP4 PUSH20 0xFFFFFFFFFFFFFFFFFFFFFFFFFFFFFFFFFFFFFFFF AND MUL OR SWAP1 SSTORE POP CALLVALUE DUP1 ISZERO PUSH2 0x64 JUMPI PUSH1 0x0 DUP1 REVERT JUMPDEST POP CALLER PUSH1 0x1 PUSH1 0x0 PUSH2 0x100 EXP DUP2 SLOAD DUP2 PUSH20 0xFFFFFFFFFFFFFFFFFFFFFFFFFFFFFFFFFFFFFFFF MUL NOT AND SWAP1 DUP4 PUSH20 0xFFFFFFFFFFFFFFFFFFFFFFFFFFFFFFFFFFFFFFFF AND MUL OR SWAP1 SSTORE POP PUSH2 0x8F3 DUP1 PUSH2 0xB5 PUSH1 0x0 CODECOPY PUSH1 0x0 RETURN INVALID PUSH1 0x80 PUSH1 0x40 MSTORE PUSH1 0x4 CALLDATASIZE LT PUSH2 0x70 JUMPI PUSH1 0x0 CALLDATALOAD PUSH1 0xE0 SHR DUP1 PUSH4 0x8DA5CB5B GT PUSH2 0x4E JUMPI DUP1 PUSH4 0x8DA5CB5B EQ PUSH2 0xE7 JUMPI DUP1 PUSH4 0x98D5FDCA EQ PUSH2 0x112 JUMPI DUP1 PUSH4 0xB062654F EQ PUSH2 0x13D JUMPI DUP1 PUSH4 0xB60D4288 EQ PUSH2 0x17A JUMPI PUSH2 0x70 JUMP JUMPDEST DUP1 PUSH4 0x504B2CD EQ PUSH2 0x75 JUMPI DUP1 PUSH4 0x3CCFD60B EQ PUSH2 0xB2 JUMPI DUP1 PUSH4 0x8793AD55 EQ PUSH2 0xBC JUMPI JUMPDEST PUSH1 0x0 DUP1 REVERT JUMPDEST CALLVALUE DUP1 ISZERO PUSH2 0x81 JUMPI PUSH1 0x0 DUP1 REVERT JUMPDEST POP PUSH2 0x9C PUSH1 0x4 DUP1 CALLDATASIZE SUB DUP2 ADD SWAP1 PUSH2 0x97 SWAP2 SWAP1 PUSH2 0x50F JUMP JUMPDEST PUSH2 0x184 JUMP JUMPDEST PUSH1 0x40 MLOAD PUSH2 0xA9 SWAP2 SWAP1 PUSH2 0x69A JUMP JUMPDEST PUSH1 0x40 MLOAD DUP1 SWAP2 SUB SWAP1 RETURN JUMPDEST PUSH2 0xBA PUSH2 0x19C JUMP JUMPDEST STOP JUMPDEST CALLVALUE DUP1 ISZERO PUSH2 0xC8 JUMPI PUSH1 0x0 DUP1 REVERT JUMPDEST POP PUSH2 0xD1 PUSH2 0x23F JUMP JUMPDEST PUSH1 0x40 MLOAD PUSH2 0xDE SWAP2 SWAP1 PUSH2 0x69A JUMP JUMPDEST PUSH1 0x40 MLOAD DUP1 SWAP2 SUB SWAP1 RETURN JUMPDEST CALLVALUE DUP1 ISZERO PUSH2 0xF3 JUMPI PUSH1 0x0 DUP1 REVERT JUMPDEST POP PUSH2 0xFC PUSH2 0x2E9 JUMP JUMPDEST PUSH1 0x40 MLOAD PUSH2 0x109 SWAP2 SWAP1 PUSH2 0x65F JUMP JUMPDEST PUSH1 0x40 MLOAD DUP1 SWAP2 SUB SWAP1 RETURN JUMPDEST CALLVALUE DUP1 ISZERO PUSH2 0x11E JUMPI PUSH1 0x0 DUP1 REVERT JUMPDEST POP PUSH2 0x127 PUSH2 0x30F JUMP JUMPDEST PUSH1 0x40 MLOAD PUSH2 0x134 SWAP2 SWAP1 PUSH2 0x69A JUMP JUMPDEST PUSH1 0x40 MLOAD DUP1 SWAP2 SUB SWAP1 RETURN JUMPDEST CALLVALUE DUP1 ISZERO PUSH2 0x149 JUMPI PUSH1 0x0 DUP1 REVERT JUMPDEST POP PUSH2 0x164 PUSH1 0x4 DUP1 CALLDATASIZE SUB DUP2 ADD SWAP1 PUSH2 0x15F SWAP2 SWAP1 PUSH2 0x538 JUMP JUMPDEST PUSH2 0x3C3 JUMP JUMPDEST PUSH1 0x40 MLOAD PUSH2 0x171 SWAP2 SWAP1 PUSH2 0x69A JUMP JUMPDEST PUSH1 0x40 MLOAD DUP1 SWAP2 SUB SWAP1 RETURN JUMPDEST PUSH2 0x182 PUSH2 0x3F9 JUMP JUMPDEST STOP JUMPDEST PUSH1 0x2 PUSH1 0x20 MSTORE DUP1 PUSH1 0x0 MSTORE PUSH1 0x40 PUSH1 0x0 KECCAK256 PUSH1 0x0 SWAP2 POP SWAP1 POP SLOAD DUP2 JUMP JUMPDEST PUSH1 0x1 PUSH1 0x0 SWAP1 SLOAD SWAP1 PUSH2 0x100 EXP SWAP1 DIV PUSH20 0xFFFFFFFFFFFFFFFFFFFFFFFFFFFFFFFFFFFFFFFF AND PUSH20 0xFFFFFFFFFFFFFFFFFFFFFFFFFFFFFFFFFFFFFFFF AND CALLER PUSH20 0xFFFFFFFFFFFFFFFFFFFFFFFFFFFFFFFFFFFFFFFF AND EQ PUSH2 0x1F6 JUMPI PUSH1 0x0 DUP1 REVERT JUMPDEST CALLER PUSH20 0xFFFFFFFFFFFFFFFFFFFFFFFFFFFFFFFFFFFFFFFF AND PUSH2 0x8FC SELFBALANCE SWAP1 DUP2 ISZERO MUL SWAP1 PUSH1 0x40 MLOAD PUSH1 0x0 PUSH1 0x40 MLOAD DUP1 DUP4 SUB DUP2 DUP6 DUP9 DUP9 CALL SWAP4 POP POP POP POP ISZERO DUP1 ISZERO PUSH2 0x23C JUMPI RETURNDATASIZE PUSH1 0x0 DUP1 RETURNDATACOPY RETURNDATASIZE PUSH1 0x0 REVERT JUMPDEST POP JUMP JUMPDEST PUSH1 0x0 DUP1 PUSH1 0x0 DUP1 SLOAD SWAP1 PUSH2 0x100 EXP SWAP1 DIV PUSH20 0xFFFFFFFFFFFFFFFFFFFFFFFFFFFFFFFFFFFFFFFF AND SWAP1 POP DUP1 PUSH20 0xFFFFFFFFFFFFFFFFFFFFFFFFFFFFFFFFFFFFFFFF AND PUSH4 0x54FD4D50 PUSH1 0x40 MLOAD DUP2 PUSH4 0xFFFFFFFF AND PUSH1 0xE0 SHL DUP2 MSTORE PUSH1 0x4 ADD PUSH1 0x20 PUSH1 0x40 MLOAD DUP1 DUP4 SUB DUP2 DUP7 DUP1 EXTCODESIZE ISZERO DUP1 ISZERO PUSH2 0x2AB JUMPI PUSH1 0x0 DUP1 REVERT JUMPDEST POP GAS STATICCALL ISZERO DUP1 ISZERO PUSH2 0x2BF JUMPI RETURNDATASIZE PUSH1 0x0 DUP1 RETURNDATACOPY RETURNDATASIZE PUSH1 0x0 REVERT JUMPDEST POP POP POP POP PUSH1 0x40 MLOAD RETURNDATASIZE PUSH1 0x1F NOT PUSH1 0x1F DUP3 ADD AND DUP3 ADD DUP1 PUSH1 0x40 MSTORE POP DUP2 ADD SWAP1 PUSH2 0x2E3 SWAP2 SWAP1 PUSH2 0x561 JUMP JUMPDEST SWAP2 POP POP SWAP1 JUMP JUMPDEST PUSH1 0x1 PUSH1 0x0 SWAP1 SLOAD SWAP1 PUSH2 0x100 EXP SWAP1 DIV PUSH20 0xFFFFFFFFFFFFFFFFFFFFFFFFFFFFFFFFFFFFFFFF AND DUP2 JUMP JUMPDEST PUSH1 0x0 DUP1 PUSH1 0x0 DUP1 SLOAD SWAP1 PUSH2 0x100 EXP SWAP1 DIV PUSH20 0xFFFFFFFFFFFFFFFFFFFFFFFFFFFFFFFFFFFFFFFF AND SWAP1 POP PUSH1 0x0 DUP2 PUSH20 0xFFFFFFFFFFFFFFFFFFFFFFFFFFFFFFFFFFFFFFFF AND PUSH4 0xFEAF968C PUSH1 0x40 MLOAD DUP2 PUSH4 0xFFFFFFFF AND PUSH1 0xE0 SHL DUP2 MSTORE PUSH1 0x4 ADD PUSH1 0xA0 PUSH1 0x40 MLOAD DUP1 DUP4 SUB DUP2 DUP7 DUP1 EXTCODESIZE ISZERO DUP1 ISZERO PUSH2 0x37D JUMPI PUSH1 0x0 DUP1 REVERT JUMPDEST POP GAS STATICCALL ISZERO DUP1 ISZERO PUSH2 0x391 JUMPI RETURNDATASIZE PUSH1 0x0 DUP1 RETURNDATACOPY RETURNDATASIZE PUSH1 0x0 REVERT JUMPDEST POP POP POP POP PUSH1 0x40 MLOAD RETURNDATASIZE PUSH1 0x1F NOT PUSH1 0x1F DUP3 ADD AND DUP3 ADD DUP1 PUSH1 0x40 MSTORE POP DUP2 ADD SWAP1 PUSH2 0x3B5 SWAP2 SWAP1 PUSH2 0x58A JUMP JUMPDEST POP POP POP SWAP2 POP POP DUP1 SWAP3 POP POP POP SWAP1 JUMP JUMPDEST PUSH1 0x0 DUP1 PUSH2 0x3CE PUSH2 0x30F JUMP JUMPDEST SWAP1 POP PUSH1 0x0 PUSH4 0x5F5E100 DUP5 DUP4 PUSH2 0x3E3 SWAP2 SWAP1 PUSH2 0x74D JUMP JUMPDEST PUSH2 0x3ED SWAP2 SWAP1 PUSH2 0x71C JUMP JUMPDEST SWAP1 POP DUP1 SWAP3 POP POP POP SWAP2 SWAP1 POP JUMP JUMPDEST PUSH1 0x0 PUSH4 0x5F5E100 SWAP1 POP DUP1 PUSH2 0x40C CALLVALUE PUSH2 0x3C3 JUMP JUMPDEST LT ISZERO PUSH2 0x44D JUMPI PUSH1 0x40 MLOAD PUSH32 0x8C379A000000000000000000000000000000000000000000000000000000000 DUP2 MSTORE PUSH1 0x4 ADD PUSH2 0x444 SWAP1 PUSH2 0x67A JUMP JUMPDEST PUSH1 0x40 MLOAD DUP1 SWAP2 SUB SWAP1 REVERT JUMPDEST CALLVALUE PUSH1 0x2 PUSH1 0x0 CALLER PUSH20 0xFFFFFFFFFFFFFFFFFFFFFFFFFFFFFFFFFFFFFFFF AND PUSH20 0xFFFFFFFFFFFFFFFFFFFFFFFFFFFFFFFFFFFFFFFF AND DUP2 MSTORE PUSH1 0x20 ADD SWAP1 DUP2 MSTORE PUSH1 0x20 ADD PUSH1 0x0 KECCAK256 PUSH1 0x0 DUP3 DUP3 SLOAD PUSH2 0x49C SWAP2 SWAP1 PUSH2 0x6C6 JUMP JUMPDEST SWAP3 POP POP DUP2 SWAP1 SSTORE POP POP JUMP JUMPDEST PUSH1 0x0 DUP2 CALLDATALOAD SWAP1 POP PUSH2 0x4B5 DUP2 PUSH2 0x861 JUMP JUMPDEST SWAP3 SWAP2 POP POP JUMP JUMPDEST PUSH1 0x0 DUP2 MLOAD SWAP1 POP PUSH2 0x4CA DUP2 PUSH2 0x878 JUMP JUMPDEST SWAP3 SWAP2 POP POP JUMP JUMPDEST PUSH1 0x0 DUP2 CALLDATALOAD SWAP1 POP PUSH2 0x4DF DUP2 PUSH2 0x88F JUMP JUMPDEST SWAP3 SWAP2 POP POP JUMP JUMPDEST PUSH1 0x0 DUP2 MLOAD SWAP1 POP PUSH2 0x4F4 DUP2 PUSH2 0x88F JUMP JUMPDEST SWAP3 SWAP2 POP POP JUMP JUMPDEST PUSH1 0x0 DUP2 MLOAD SWAP1 POP PUSH2 0x509 DUP2 PUSH2 0x8A6 JUMP JUMPDEST SWAP3 SWAP2 POP POP JUMP JUMPDEST PUSH1 0x0 PUSH1 0x20 DUP3 DUP5 SUB SLT ISZERO PUSH2 0x521 JUMPI PUSH1 0x0 DUP1 REVERT JUMPDEST PUSH1 0x0 PUSH2 0x52F DUP5 DUP3 DUP6 ADD PUSH2 0x4A6 JUMP JUMPDEST SWAP2 POP POP SWAP3 SWAP2 POP POP JUMP JUMPDEST PUSH1 0x0 PUSH1 0x20 DUP3 DUP5 SUB SLT ISZERO PUSH2 0x54A JUMPI PUSH1 0x0 DUP1 REVERT JUMPDEST PUSH1 0x0 PUSH2 0x558 DUP5 DUP3 DUP6 ADD PUSH2 0x4D0 JUMP JUMPDEST SWAP2 POP POP SWAP3 SWAP2 POP POP JUMP JUMPDEST PUSH1 0x0 PUSH1 0x20 DUP3 DUP5 SUB SLT ISZERO PUSH2 0x573 JUMPI PUSH1 0x0 DUP1 REVERT JUMPDEST PUSH1 0x0 PUSH2 0x581 DUP5 DUP3 DUP6 ADD PUSH2 0x4E5 JUMP JUMPDEST SWAP2 POP POP SWAP3 SWAP2 POP POP JUMP JUMPDEST PUSH1 0x0 DUP1 PUSH1 0x0 DUP1 PUSH1 0x0 PUSH1 0xA0 DUP7 DUP9 SUB SLT ISZERO PUSH2 0x5A2 JUMPI PUSH1 0x0 DUP1 REVERT JUMPDEST PUSH1 0x0 PUSH2 0x5B0 DUP9 DUP3 DUP10 ADD PUSH2 0x4FA JUMP JUMPDEST SWAP6 POP POP PUSH1 0x20 PUSH2 0x5C1 DUP9 DUP3 DUP10 ADD PUSH2 0x4BB JUMP JUMPDEST SWAP5 POP POP PUSH1 0x40 PUSH2 0x5D2 DUP9 DUP3 DUP10 ADD PUSH2 0x4E5 JUMP JUMPDEST SWAP4 POP POP PUSH1 0x60 PUSH2 0x5E3 DUP9 DUP3 DUP10 ADD PUSH2 0x4E5 JUMP JUMPDEST SWAP3 POP POP PUSH1 0x80 PUSH2 0x5F4 DUP9 DUP3 DUP10 ADD PUSH2 0x4FA JUMP JUMPDEST SWAP2 POP POP SWAP3 SWAP6 POP SWAP3 SWAP6 SWAP1 SWAP4 POP JUMP JUMPDEST PUSH2 0x60A DUP2 PUSH2 0x7A7 JUMP JUMPDEST DUP3 MSTORE POP POP JUMP JUMPDEST PUSH1 0x0 PUSH2 0x61D PUSH1 0x20 DUP4 PUSH2 0x6B5 JUMP JUMPDEST SWAP2 POP PUSH32 0x4D696E696D756D207370656E64696E6720616C6C6F7765642069732055532431 PUSH1 0x0 DUP4 ADD MSTORE PUSH1 0x20 DUP3 ADD SWAP1 POP SWAP2 SWAP1 POP JUMP JUMPDEST PUSH2 0x659 DUP2 PUSH2 0x7E3 JUMP JUMPDEST DUP3 MSTORE POP POP JUMP JUMPDEST PUSH1 0x0 PUSH1 0x20 DUP3 ADD SWAP1 POP PUSH2 0x674 PUSH1 0x0 DUP4 ADD DUP5 PUSH2 0x601 JUMP JUMPDEST SWAP3 SWAP2 POP POP JUMP JUMPDEST PUSH1 0x0 PUSH1 0x20 DUP3 ADD SWAP1 POP DUP2 DUP2 SUB PUSH1 0x0 DUP4 ADD MSTORE PUSH2 0x693 DUP2 PUSH2 0x610 JUMP JUMPDEST SWAP1 POP SWAP2 SWAP1 POP JUMP JUMPDEST PUSH1 0x0 PUSH1 0x20 DUP3 ADD SWAP1 POP PUSH2 0x6AF PUSH1 0x0 DUP4 ADD DUP5 PUSH2 0x650 JUMP JUMPDEST SWAP3 SWAP2 POP POP JUMP JUMPDEST PUSH1 0x0 DUP3 DUP3 MSTORE PUSH1 0x20 DUP3 ADD SWAP1 POP SWAP3 SWAP2 POP POP JUMP JUMPDEST PUSH1 0x0 PUSH2 0x6D1 DUP3 PUSH2 0x7E3 JUMP JUMPDEST SWAP2 POP PUSH2 0x6DC DUP4 PUSH2 0x7E3 JUMP JUMPDEST SWAP3 POP DUP3 PUSH32 0xFFFFFFFFFFFFFFFFFFFFFFFFFFFFFFFFFFFFFFFFFFFFFFFFFFFFFFFFFFFFFFFF SUB DUP3 GT ISZERO PUSH2 0x711 JUMPI PUSH2 0x710 PUSH2 0x803 JUMP JUMPDEST JUMPDEST DUP3 DUP3 ADD SWAP1 POP SWAP3 SWAP2 POP POP JUMP JUMPDEST PUSH1 0x0 PUSH2 0x727 DUP3 PUSH2 0x7E3 JUMP JUMPDEST SWAP2 POP PUSH2 0x732 DUP4 PUSH2 0x7E3 JUMP JUMPDEST SWAP3 POP DUP3 PUSH2 0x742 JUMPI PUSH2 0x741 PUSH2 0x832 JUMP JUMPDEST JUMPDEST DUP3 DUP3 DIV SWAP1 POP SWAP3 SWAP2 POP POP JUMP JUMPDEST PUSH1 0x0 PUSH2 0x758 DUP3 PUSH2 0x7E3 JUMP JUMPDEST SWAP2 POP PUSH2 0x763 DUP4 PUSH2 0x7E3 JUMP JUMPDEST SWAP3 POP DUP2 PUSH32 0xFFFFFFFFFFFFFFFFFFFFFFFFFFFFFFFFFFFFFFFFFFFFFFFFFFFFFFFFFFFFFFFF DIV DUP4 GT DUP3 ISZERO ISZERO AND ISZERO PUSH2 0x79C JUMPI PUSH2 0x79B PUSH2 0x803 JUMP JUMPDEST JUMPDEST DUP3 DUP3 MUL SWAP1 POP SWAP3 SWAP2 POP POP JUMP JUMPDEST PUSH1 0x0 PUSH2 0x7B2 DUP3 PUSH2 0x7C3 JUMP JUMPDEST SWAP1 POP SWAP2 SWAP1 POP JUMP JUMPDEST PUSH1 0x0 DUP2 SWAP1 POP SWAP2 SWAP1 POP JUMP JUMPDEST PUSH1 0x0 PUSH20 0xFFFFFFFFFFFFFFFFFFFFFFFFFFFFFFFFFFFFFFFF DUP3 AND SWAP1 POP SWAP2 SWAP1 POP JUMP JUMPDEST PUSH1 0x0 DUP2 SWAP1 POP SWAP2 SWAP1 POP JUMP JUMPDEST PUSH1 0x0 PUSH10 0xFFFFFFFFFFFFFFFFFFFF DUP3 AND SWAP1 POP SWAP2 SWAP1 POP JUMP JUMPDEST PUSH32 0x4E487B7100000000000000000000000000000000000000000000000000000000 PUSH1 0x0 MSTORE PUSH1 0x11 PUSH1 0x4 MSTORE PUSH1 0x24 PUSH1 0x0 REVERT JUMPDEST PUSH32 0x4E487B7100000000000000000000000000000000000000000000000000000000 PUSH1 0x0 MSTORE PUSH1 0x12 PUSH1 0x4 MSTORE PUSH1 0x24 PUSH1 0x0 REVERT JUMPDEST PUSH2 0x86A DUP2 PUSH2 0x7A7 JUMP JUMPDEST DUP2 EQ PUSH2 0x875 JUMPI PUSH1 0x0 DUP1 REVERT JUMPDEST POP JUMP JUMPDEST PUSH2 0x881 DUP2 PUSH2 0x7B9 JUMP JUMPDEST DUP2 EQ PUSH2 0x88C JUMPI PUSH1 0x0 DUP1 REVERT JUMPDEST POP JUMP JUMPDEST PUSH2 0x898 DUP2 PUSH2 0x7E3 JUMP JUMPDEST DUP2 EQ PUSH2 0x8A3 JUMPI PUSH1 0x0 DUP1 REVERT JUMPDEST POP JUMP JUMPDEST PUSH2 0x8AF DUP2 PUSH2 0x7ED JUMP JUMPDEST DUP2 EQ PUSH2 0x8BA JUMPI PUSH1 0x0 DUP1 REVERT JUMPDEST POP JUMP INVALID LOG2 PUSH5 0x6970667358 0x22 SLT KECCAK256 DUP10 DUP13 0xFB 0xEB SWAP10 0xB4 0xCB LT 0xEF 0x5D 0xCB SWAP10 PUSH11 0x8426BD93A876B8126D9D65 0xA6 0xC1 SWAP3 CREATE CODECOPY SIGNEXTEND DUP9 DUP6 PUSH5 0x736F6C6343 STOP ADDMOD STOP STOP CALLER "
				},
				"gasEstimates": {
					"creation": {
						"codeDepositCost": "458200",
						"executionCost": "42226",
						"totalCost": "500426"
					},
					"external": {
						"addrToAmtFunded(address)": "1515",
						"fund()": "infinite",
						"getConvRate(uint256)": "infinite",
						"getPrice()": "infinite",
						"getVer()": "infinite",
						"owner()": "1214",
						"withdraw()": "infinite"
					}
				},
				"methodIdentifiers": {
					"addrToAmtFunded(address)": "0504b2cd",
					"fund()": "b60d4288",
					"getConvRate(uint256)": "b062654f",
					"getPrice()": "98d5fdca",
					"getVer()": "8793ad55",
					"owner()": "8da5cb5b",
					"withdraw()": "3ccfd60b"
				}
			},
			"storageLayout": {
				"storage": [
					{
						"astId": 51,
						"contract": "contracts/FundMe.sol:FundMe",
						"label": "GOERLI_TESTNET_ETH_USD",
						"offset": 0,
						"slot": "0",
						"type": "t_address"
					},
					{
						"astId": 53,
						"contract": "contracts/FundMe.sol:FundMe",
						"label": "owner",
						"offset": 0,
						"slot": "1",
						"type": "t_address"
					},
					{
						"astId": 57,
						"contract": "contracts/FundMe.sol:FundMe",
						"label": "addrToAmtFunded",
						"offset": 0,
						"slot": "2",
						"type": "t_mapping(t_address,t_uint256)"
					}
				],
				"types": {
					"t_address": {
						"encoding": "inplace",
						"label": "address",
						"numberOfBytes": "20"
					},
					"t_mapping(t_address,t_uint256)": {
						"encoding": "mapping",
						"key": "t_address",
						"label": "mapping(address => uint256)",
						"numberOfBytes": "32",
						"value": "t_uint256"
					},
					"t_uint256": {
						"encoding": "inplace",
						"label": "uint256",
						"numberOfBytes": "32"
					}
				}
			},
			"userdoc": {
				"kind": "user",
				"methods": {},
				"version": 1
			}
		}
	}
}